:020000040000FA
:2000000000500020ED000000E5000000C9000000E9000000E9000000E9000000000000001A
:20002000000000000000000000000000E9000000E900000000000000E9000000E90000001C
:20004000812D0000E9000000E1330000E9000000A92400009D290000E9000000E9000000A7
:20006000E90000000D340000E9000000E9000000E9000000E9000000E9000000E9000000E0
:20008000E9000000E9000000E9000000E9000000E9000000E9000000E9000000E900000018
:2000A000E9000000E9000000E9000000E9000000E9000000E9000000E9000000E9000000F8
:2000C000E9000000A93600004EF62853CEF200031A68B2F5806F03D01B689B0500D4FEE70F
:2000E000704700BFFEE700BFFEE700BF10B504F049FA40F2000140F24963C2F20001C2F2CC
:20010000000399420ED2CC431C4424F0030447F658200434C0F200000023C258CA5004336A
:20012000A342FAD1064807494FF000028842B8BF40F8042BFADB00F021FDFFF7C5FF10BD1E
:20014000500600202319002070B5832982B00446164678D0238893B140F22D25AB4209D1A2
:2001600041F62013C2F200031B788B4227D0012002B070BD00230320238002B070BD40F609
:200180001910C0F2000002F0C1FB00F0EFFB40F2A06047F25842C2F200008121C0F20002ED
:2001A00003F0D4FF40F27860C2F20000782103F02FFE40F22D230120238002B070BD002EAF
:2001C000D5D041F23573C2F200031A780AB100221A70304606F072FFB0F5967F42DA40F20A
:2001E0007860C2F2000003F01BFE41F23373C2F200031B7880B3C3B141F6240241F6AC035A
:20020000C2F20002C2F2000312681988914232DC59888A4233DB99888A4234DBDB889A427F
:20022000B4BF2020012000F017FE40F2806040F29122C2F20000C0F200024FF4C0710023EF
:2002400003F010FBB5E740F2A060C2F20000019103F090FF01997DE7002BE6D0402000F0DB
:20026000FBFDE2E7304606F029FF41F62403C2F200031860B3E7022000F0EEFDD5E7042025
:2002800000F0EAFDD1E7102000F0E6FDCDE700BF7F2000F0EBBD00BF02F0B4B9F0B501F16D
:2002A00012040646E4B240F2C86083B00D4617462146C2F20000012200F0BAFB10B900203D
:2002C00003B0F0BD40F2FC63C2F2000340F2C8600093C2F2000021460122082300F060FBD5
:2002E0000028ECD040F2C860009732462B46C2F20000214600F054FB0028E0D040F2C860B4
:200300002146C2F2000000F073FB0028D7D040F2C860C2F2000000F03FFB014640F2C860BC
:20032000C2F2000005F046F840F2A060C2F2000003F022FF0120C3E700B59BB0D2B201ABE1
:2003400000F088FBC1B201A805F034F840F2A060C2F2000003F010FF1BB05DF804FB00BF27
:2003600030B585B000F0F4FE0446F0B101AD2A460C21002000F02AFF044600F01FFF204654
:200380008CB1039A41F20103CCF613439A4203BF41F6AC03C2F2000395E80700022004BF90
:2003A00083E80700012005B030BD00F007FF204605B030BD10B500F0CBFE0446C8B10020A9
:2003C0000C2100F089FF00B910BD41F6AC03C2F2000341F20104CCF613441A4600200C2157
:2003E0009C6000F01FFF0028EED000F0E7FE0120EAE700F0E3FE204610BD00BF2DE9F04F2E
:2004000085B004F06FFF064604F084FF41F2687541F6B804C2F20005C2F2000401462A4657
:200420003046234600F030FB012802D005B0BDE8F08F6A782B782778082A08BF012BF5D1DF
:2004400040F2FC60C2F20000A91C082206F03AFE002879D1002FE9D0DFF8208141F2337A8B
:2004600041F6AC0608F1FF39C2F2000AC2F20006002416E0FA2844D080280CD141F62C00B2
:2004800040F29922C2F20000C0F200024FF4C071002303F0E7F90BF1020B5C44E4B2A74275
:2004A000C4D9285D18F804B0F928E3D1A21C02EB090393F801E0D87812F809109A7801EBED
:2004C0000E2102EB002289B292B29142187993F805E093F806C0DB790AD200EB0E2080B2BF
:2004E000824205D20CEB032C1FFA8CFC604533D301238DF80830012102AAF920FFF7CEFE65
:20050000C9E7B6F800E07188B288F3888DF808E04FEA1E2E8DF809E08DF80A104FEA112E78
:2005200008214FEA122C8DF80BE08DF80C204FEA132E0DEB01028DF80DC08DF80E308DF8EB
:200540000FE0FFF7ABFEA6E70320A91C05F06AFA00287FF47FAF69E7002372803180B08030
:20056000A6F806C08AF800300193FFF723FF019B01228DF808308AF80020BCE76917002058
:200580002DE9F04F47F2B843C0F200035D6883B0E320A84741F2E874A038C2F20004206094
:2005A000E520A847276841F62003C2F20003791C18605CD0421C5AD041F23473C2F2000355
:2005C0001A780AB100221A70FCB2C6B2C7F30727C0F3072540F2FC6CC2F2000C41F624037D
:2005E0009CF80580C2F20003196841F2EC73C2F20003CDF804809CF800009CF801204FEA96
:2006000021285F73019F9CF802B09CF803A09CF8049083F8158019759CF8068001219CF80C
:2006200007C01C7308241E745D741226212519705C7098700224DA70DF7119464FF0110784
:200640000020162283F804B083F805A083F8069083F8088083F809C09F729E739D74DC721A
:20066000DC73DC7403B0BDE8F04FFFF765BE41F23472C2F20002117809B90121117048F670
:2006800088014FF0FF32FF25882721601A602E463C469FE741F6AC0310B5C2F200034FF472
:2006A0007A7040F214514FF4C8624FF4FA741C8058809980DA80FFF753FE02280DD040F234
:2006C000FC60C2F20000082101F0A0FF41F23373C2F2000301221A7010BDFFF76BFEEEE713
:2006E00070B504880546ACB140F206239C420DD1882930D041F62113C2F200031B788B4257
:200700003ED040F206232B80012070BD00230380032070BD40F2FC60C2F20000082101F025
:2007200075FF47F2B843C0F200039E6801218120B04721460220B04740F2B860C2F200001E
:200740004FF4705103F07EF9FFF7A4FF40F206232B80012070BD40F2B863C2F200039A425E
:20076000CFD141F23273C2F200031B780BB340F2B860C2F200004FF4207103F063F9C0E731
:2007800047F29C43C0F200039A42BAD1536801209847B0F5C07FB4DD41F62C0040F29922A5
:2007A000C2F20000C0F200021021002303F05AF8A7E7FFF7E5FEDAE72DE9F04704880746EA
:2007C0006B2C1BD0852C06D0002C49D0002303800320BDE8F08785294FD140F2087440F238
:2007E000047640F20C75C2F20004C2F20006C2F20005002323603360A5F8803040F208766B
:2008000040F6180540F20478C2F20006C2F20005C2F200084FF0000A4FF001090BE0336890
:200820007E2BE854D9BF01332360C4F800A0C8F800900A2824D040F61000C2F2000003F0C5
:2008400059FC40F2087440F61801431CC2F20004C2F20001E3D16B233B800120BDE8F08740
:2008600003F0CAF941F6201240F20873C2F20002C2F2000310701C60C0E70120BDE8F0875F
:2008800040F20476C2F2000633685BBBD4F8008040F20C75C2F2000540F618012846424644
:2008A000C2F2000106F042FCA5F8808041F62013C2F2000340F20C721978C2F2000200207A
:2008C00003F02AFA40F64C33C2F2000318688521002203F021FA00288BD185233B80012037
:2008E000BDE8F087D4F8008040F20C75C2F20005C8F1800941444A46284606F017FC40F620
:20090000180105EB09004246C2F2000106F00EFC8023A5F88030C9E710B5014678B141F280
:200920003674C2F20004237853B10A2813D040F24840C2F2000003F043FA012010BD10BD48
:2009400040F61000C2F2000003F0BCFB0028EED101232370EBE740F61000C2F2000003F096
:20096000B1FB0028E3D000232370E0E708B540F6100040F29071C2F20000C2F20001802232
:2009800003F098FBBDE8084040F24840C2F20000002103F0F3B900BF40780230C0B27047E4
:2009A000F0B545780446281D1844884283B002DC2178402902D0002003B0F0BD691C665C74
:2009C00060187D2EF7D1DF1C3D4466556254089A437032B1114602301A46019306F0A6FBF3
:2009E000019B62780233134463700120E4E700BFF8B543780446DD1C8D4202DA0278402A3D
:200A000001D00020F8BD5E1C825D87197D2AF8D19A1C194600F8012F002203F0ABFAA15DD2
:200A20000346020A6155A3557A700120F8BD00BF042910B481BF022140247D23827083BFA8
:200A400004704170C370002088BF01205DF8044B704700BF70B5161D1C46F6B2402315467C
:200A6000A0702370667012B1E01C06F05FFB601CA91C002203F07EFA2C44020A7D23E070B4
:200A800022716371B01C70BD2DE9F84F0F46064690469946002400F1010B00F1030A21B94A
:200AA00014E00134A4B2A74210D9355D402DF8D133195D7802352C44BC421EDC741914F8C4
:200AC000013C7D2B05D00124A742EED8FF20BDE8F88F00225846291F03F04CFA14F8022CC2
:200AE00014F8033C03EB02239842ECD1B378012B09D0AF4204D02C46D5E70020BDE8F88F92
:200B00000120BDE8F88FAC1F22464046514606F00DFB89F80040ECE7F0B5002783B005465C
:200B20003E463C46284600F097F90194019B9E4206DD00BF019B01330193019B9E42F8DC5A
:200B4000284600F093F90194019BC6F5C876B34206DA00BF019B01330193019BB342F8DB25
:200B60000137B7F5487F06D0B7F5C87FCCBFC7F548763E46D6E703B0F0BD00BFF0B54FF4B4
:200B8000EC74C1F2000423684FF4804083B05B68C4F2030001219847236801214FF4804050
:200BA0000A461B68C4F20300984703F0F3FB02F001F902F08FF800F041FE02F0CDF800F0AE
:200BC00041F944F20C010822C4F20902C4F20901012542F22C030D6028461560C4F2090352
:200BE0001B68FFF799FF03F0D9FB01F0CBFB01F0CFFA03F0F5F801F0CDFC03F005F841F2EF
:200C0000342002F045FC01F057FE03F09DF940F2F8400021C2F2000003F0B0F802F0E6FDCF
:200C200002F044FE1020FFF777FF04F099FA6846082101F0EBFC47F254549DF80720BDF85C
:200C400006109DF8067041F6E003C2F20003C0F20004198042EA0727E66A4AF6CD31022049
:200C6000B04739460320B04717212846B047636B082269460B2098470420FFF74DFF40F2FE
:200C800058400021C2F2000003F078F847F24C40C0F2000002F04CFD01F08CFC1020FFF733
:200CA0003BFF02F0CFFF044601F09EFC14F0FF0FF7D101F0ADFEF4E72DE9F041058880467A
:200CC000772D42D07E2D36D025B1002303800320BDE8F08102F090FF40F26846C2F20006DD
:200CE00041F6211340F698043268C2F20003C2F2000418702560002A62D02B4641F6DC05BC
:200D00001F46C2F20005EF5493688020002198472368013356F823202360002AF3D1DBB289
:200D200041F23771C2F200010B707723A8F800300120BDE8F08141F62113C2F200031B7852
:200D40008B4223D00120BDE8F08141F23777C2F2000740F6980440F69C063A78C2F20004EC
:200D6000C2F2000600239342336023600ADA41F6DC05C2F20005E956002923DB0133934287
:200D80002360F4DB3368002BECD1CEE740F6980441F6DC0541F2377740F69C06C2F200046E
:200DA000C2F20005C2F20007C2F2000623683268E85C511C00F07F003A78E8543160DDE77D
:200DC0001346ADE741F6211140F26842C2F20001C2F20002097852F82320002002F09CFFBB
:200DE0000028E3D17E23A8F800300120BDE8F08110B441F23773C2F200031C7804B340F29A
:200E00006842C2F20002136898424FF0000304D106E052F8041F884202D00133A342F8DB2B
:200E200041F6DC02C2F20002D15C40F2584061F07F01D154C2F200005DF8044B02F0C0BF31
:200E40002346EDE708B500F077FC41F23873C2F2000300221A7008BD41F23873C2F200039A
:200E60001A78024310461A7000F086BC41F23873C2F200031A7822EA000210461A7000F084
:200E80007BBC00BF40B1012803BF40F6A003C2F20003D868002070474FF40353C4F2020385
:200EA0001868C0F3403080F0010070478138012808B501D9002008BD4FF4DA73C1F20003C3
:200EC0001B680D205B689847C0F3804008BD00BF0D2838B500D038BD40F6A004C2F2000450
:200EE000204602F0B7FF0028F5D02046042102F0A9FF4FF40353C4F202031D68C5F34035CC
:200F000065B101F09BF9A368C31AE36047F29C40C0F20000BDE83840FFF76ABF01F08EF990
:200F2000E560A06038BD00BF802810B50CD0812808D151BB4FF4DA73C1F200031B680D20EB
:200F40005B6B9847012010BD42F2E0034FF40052C4F202034FF4DA741A60C1F2000423684A
:200F60000D209B6B984723684FF480421B68C2F207020D200021984740F6D161C0F2000147
:200F80000D2001F0D1FE012010BD42F2E0034FF40052C4F202034FF4DA74C1F200041A604D
:200FA00023680D209B6B984723684FF48042C2F2070200211B680D20984723680D201B6B59
:200FC0009847012010BD00BF10B542F2A00382B0062202A8C4F202034FF4801400F8042D2A
:200FE00001211C6000F0E6F942F29003C4F202031C6002B010BD00BF30B547F2B443C0F281
:201000000003186842F2A00383B00024C4F202034FF4801501908DF800408DF8014001A8C7
:201020001D60042100F0C6F938B942F29003C4F202031D60FF2003B030BD6846022100F0EF
:20104000D9F942F29003C4F202031D6010B9FF2003B030BD9DF80030C22B18BFEF2B18BFBD
:201060002046E8D19DF80130A3F11400113BC0B2DBB2012888BF012B94BF0020012080F0F8
:201080000100D8E730B542F2A00383B0C4F20203052202AC4FF4801504F8042D1D6000F09F
:2010A000CFF92046012100F085F920B913E09DF80730DB0716D50DF10700012100F09AF963
:2010C0000028F4D142F29003C4F202034FF480121A6003B030BD42F29003C4F202031D60B3
:2010E00003B030BD42F29003C4F202034FF4801201201A6003B030BD10B582B0FFF7C2FF10
:2011000008B902B010BD42F2A003C4F202034FF48014B92202A800F8012D01211C6000F0ED
:2011200049F942F29003C4F202031C600A24FFF763FF631E0028E4D013F0FF04F7D142F28A
:201140009003C4F202034FF480121A6002B010BD10B54FF4106082B00A21C0F23D0000F0BF
:2011600083F94FF4DA73C1F200031B681420DB6B984742F2900142F2A003C4F202014FF439
:201180008012AB2402A8C4F202030A6000F8014D01211A6000F00EF908B1FFF773FF42F2F1
:2011A0009003C4F202034FF480121A60FFF724FF421E5042504102B010BD00BF08B5FFF705
:2011C0009BFFBDE8084000F0B5B900BFF0B583B004460E461746FFF755FF08B903B0F0BD2D
:2011E00042F2A0030320210CC4F20203220A4FF480158DF804008DF805108DF807408DF895
:20120000062001A81D60042100F0D4F818B13846314600F0EFF842F29003C4F202031D600D
:2012200003B0F0BD2DE9F04F0D4683B00446164600294BD042F2A00842F29009C4F2020820
:20124000C4F202094FF0020A4FF480172AE0FFF7BBFEE3B2C3F580734FEA144C220A0421C5
:20126000AB4234BF9B46AB4600B38DF806208DF807408DF804A08DF805C00DEB0100C8F866
:20128000007000F097F80246594630465C44CBEB050582B100F08EF8024660B1C9F800706F
:2012A0005E449DB1FFF7EEFE0028D0D10022104603B0BDE8F08F42F29003C4F202034FF47F
:2012C00080111046196003B0BDE8F08F0122104603B0BDE8F08F00BF2DE9F04701F6FE7115
:2012E000040B01EB000A2403C4EB0A0A82B020235FEA1A3A8DF804302FD0002542F2A00735
:2013000042F29008A946C4F20207C4F202084FF4801619E0FFF758FE220C230A042104F5FC
:201320008054B0B18DF806308DF805208DF807900DEB01003E6000F03DF84FF4801380B134
:201340005545C8F8006008D00135FFF79BFE0028E0D1002002B0BDE8F087012002B0BDE8F7
:20136000F08742F29002C4F20202136002B0BDE8F08700BF08B5FFF7EBFEFFF7BDFEBDE884
:20138000084000F0D7B800BF08B54FF4DC73C1F200031B6802205B6B9847012801BF42F25B
:2013A0007803C4F20803186800F0010018BF002008BD00BFF0B583B006460C46FFF7E4FFB6
:2013C000074698B194B14FF4E275C1F200052B684FF080405B6816F8011B98472B684FF0B0
:2013E0008040DB6801A99847013CF0D1384603B0F0BD00BFF0B583B006460C46FFF7C4FF97
:201400000746D0B1CCB14FF4E275C1F2000507E02B68DB689847019B013C06F8013B0CD0A4
:201420002B6800219B684FF080409847034601A94FF08040002BEBD11F46384603B0F0BDFB
:2014400010B582B0FFF7A0FF58B14FF4E274C1F2000423684FF080401B6901A998470028E8
:20146000F7D102B010BD00BFF0B54FF4DC77C1F200073B68064685B05B6902200D46984735
:201480003B6802205B6B98474FF4DC7301280446C1F20003F4D11B684FF48070DB69984789
:2014A00042F22803C6F2080342F228021C60C4F2080213689B07FCD51423C4F20003186812
:2014C000202220F00F00C4F2000203214FF4E274186008271160C1F2000423688DE8C000A7
:2014E00000224FF4D8411E68C0F2DC2113464FF08040B0474FF4DA73C1F200031B6800958C
:201500005D6C09224FF0FF3339464FF08040A8470423C4F200031A6842F002021A6023685C
:201520004FF080401B6903A998470028F7D105B0F0BD00BF10B54FF4DC73C1F200031B68FC
:201540004FF480701B6A984742F22803C6F20803012142F228021960C4F2080213689907FE
:20156000FCD54FF4DA74C1F20004236808209B6B984723684FF4005108209B699847236805
:2015800009209B6B984723684FF4005109209B69984723680A209B6B984723680A209B69BF
:2015A0004FF40051984710BD813801289DBF40F6B003C2F2000318680020704730B520F0C1
:2015C0008004012C83B00D4623D0022827D125F08003012B23D841F23973C2F200031A78D8
:2015E00002AC02F07E021543EDB204F8045D002040211D7004F08CFE21460122E62004F067
:2016000013FF00280CBF4FF0FF340124204603B030BD0228DBD0812806D0012805D04FF097
:20162000FF34204603B030BD89B90020402104F06FFE00210A46FE2004F0F6FE0028EED0F0
:2016400043F6982000F044FE204603B030BD0020402104F05DFE41F23971C2F20001E720F8
:20166000224604F0D3FE0028DFD040F6B003C2F200031D60D5E700BF10B540F6B003C2F26C
:2016800000031B6882B00446002B47D0E52818BFE3280CBF0020012014D0012C3ED10020CB
:2016A000402104F035FE41F23974C2F200042146E720012204F0AAFE80B32078C0F38010CF
:2016C00002B010BD402104F023FE012CEBD0E4B2E52C18BFE32C21D1204601A9022204F086
:2016E00095FED8B19DF804109DF805204FF6FC7302EB0122E32C02EA030313D043F2D400BA
:2017000000FB03F0000CA0F5167042F210729042A8BF104680B280B202B010BD4FF0FF301E
:2017200002B010BD44F2A44000FB03F0000CA0F592500D3880B2EEE738B540F6B403C2F2C5
:2017400000031A68BAB901254FF4DA74C1F200041D6023680620DB6B984723682846DB6B91
:20176000984723680720DB6B984742F2A003C4F20203C2221A6038BD41F23A73C2F2000337
:20178000187042F2A002C30748BF42F29003C4F202024FF0C20148BFC4F20203116044BF61
:2017A00040221A60410741BF42F29003C4F2020302221A60820741BF42F29003C4F20203DA
:2017C00080221A60030707D542F29003C4F202030221802219601A60C10607D542F2900363
:2017E000C4F202034021022219601A60820607D542F29003C4F202034021802219601A60DA
:20180000430609D542F29003C4F20203402002218022186019601A60704700BF10B54FF411
:20182000DC74C1F20004236804205B699847236804205B6B98470128F9D110BD38B502F05C
:20184000A9FD0546FFF7EAFF4FF4DC73C1F200031B684FF4A060DB69984742F22803C6F270
:201860000803012142F228021960C4F2080213689B07FCD5FFF77EFD4FF4DA7440F27440CE
:20188000C1F20004C2F2000001F014FA23680B20DB6B984723684FF480410B209B69984766
:2018A00023680C20DB6B984723680C209B694FF48041984705B138BDBDE8384002F06EBDC9
:2018C000012070470120704708B501F01DFB48B140F23C53C2F200035888022814BF022022
:2018E000012008BD022008BD10B582B001F06CFD044601F009FB08B902B010BD0120C0F278
:20190000014001A901F008FB0128F5D1638803F44063002BF0D1638803F44063002BF5D013
:20192000EAE700BF30B583B001F0EEFA40F23C54C2F20004A8B900256580A37F40F23C5061
:201940005BB2C3F5FF6307339BB2C2F2000001A9238301F0E1FA012818BF284608D003B010
:2019600030BD6388022B08BF0120E4D103B030BD00F006FD4FF6C075CFF6FF752D1A03E055
:2019800000F0FEFCC54203D563889BB2022BF7D1608880B2831E58425841E0E708B5B32903
:2019A00094BF0A46B4220146024805F0BFFB002008BD00BFD208002070B540F6C405C2F2F8
:2019C00000052C68002603E024682B68A3420DD02379032BF8D140F2B440C2F2000002F025
:2019E000EFF924682B680136A342F1D1304670BDF8B540F6CC04C2F2000425682B79032B95
:201A000018BF002601D03046F8BD2E89023E002E0CDD8E4205F10A070EDDB957042089B28E
:201A200003F02EFD03207F2103F02AFD2B68002223602A713046F8BD3946324605F076FB50
:201A4000EBE700BF10B582B001F05EFAF8B140F23C54C2F2000463880120022B15D101A9C9
:201A6000C0F2014001F058FA02E06388022B03D101F04AFA0028F8D16088A0F550500438E3
:201A800080B201288CBF0020012002B010BD012002B010BD10B540F29C43C2F2000340F281
:201AA0008454C2F200041B68052284F8242082B09B88204601A9638301F02EFA012818BFC8
:201AC000002001D002B010BD204601F07BFA421E5042504102B010BD00B540F26C5083B0F2
:201AE000C2F2000001A901F017FA012818BF002002D003B05DF804FB40F26C50C2F20000EB
:201B000001F060FA411E4842484103B05DF804FB08B5FFF7BFFF012801D0002008BDFFF7BB
:201B2000DBFF0128F9D1FFF7FDFEC0B208BD00BF08B501F0A1FC012815D0FFF783FF01F02F
:201B400035FB01F097F940F23C5040F6881140F614230022C2F20000C2F20001C2F2000398
:201B600042800A711A71012008BD00BF2DE9F84F01F082FC01281AD001F04AF901F0C4F937
:201B800070B901F0C1F9044600285ED101F034FA012805460ED001F009FB0020BDE8F88F1E
:201BA00040F23C53C2F200035B88022BE9D10120BDE8F88F40F21C4047F28C51C0F200013F
:201BC0004FF42372C2F200104FF4647805F0AEFAC2F2001840F2793C40F2753E40F2773735
:201BE00040F2AE3640F2AB3040F281314FF4707340F2BD5288F80040C2F2001CC2F2001E15
:201C0000C2F20010C2F20011C2F20013C2F200124FF0020BC2F200174FF0030AC2F2001681
:201C20004FF004094FF0050806248CF800508EF800B087F800A086F8009080F800800C7037
:201C40001A6001F03DFA0128A5D1002001F05AFB01F0F6F8FFF71EFF012802D00020BDE82B
:201C6000F88FFFF739FF0128F8D1BDE8F84FFFF759BE00BF30B583B007286ED8DFE800F0C1
:201C80004D046D6D266D542920294AD840F26C53C2F20003188ADC894FF47A7202FB04F4CB
:201CA00002FB00F2A4F55F2402F57F42A4F66C64FF3248F21F5004EB1242C5F2EB10A0FB8D
:201CC0000240CAB2C0F38710824251D1002003B030BD40F24663C2F20003197001F014F93D
:201CE00000283CD040F23C53C2F200035B88022B08BF002533D1FFF7A5FE012814BF03247C
:201D00000024FFF705FF012818BF03242046002DDDD0FFF70DFF2046D9E701294FD00029A4
:201D200047D0022003B030BD01F10A03182BF8D847F2CC440191C0F20004FFF7D5FD0199C5
:201D400023460F22986F083B81423DDD12F1FF32F8D2FFF7DDFE0020B9E70120B7E7FFF77E
:201D600005FF012808BF0546C5D0032003B030BDC82000FB01F044F6D35200F55F20C1F272
:201D8000620200F66C60A2FB00414FF618448909CFF6FF7404FB01000004A2FB004040F2C1
:201DA000845289B28009C2F200021882D981118494E70191FFF7BCFE0199084687E7FFF741
:201DC000D5FE0128D1D181E740F29C4304EBC202C2F200031A60BCE770B50C4682B069B1A2
:201DE000102800F28380DFE800F0101E818181816F783E8181818163666A0C00022002B091
:201E000070BD0E2323600020F9E701F07DF838B140F23C53C2F200035888851E6842684144
:201E200020600020EBE740F26C53C2F200031A8AD9894FF47A7303FB01F103FB02F3A1F5D9
:201E40005F2103F57F43A1F66C61FF3348F21F5201EB1343C5F2EB12A2FB0312C2F3871211
:201E600022600020CBE701F04FF8002840D040F23C53C2F200035B88022B08BF002637D121
:201E8000002240F2034301A869460192ADF8043001F042F801280CBF9DF902506FF07F05FA
:201EA00066BB256015F1800F0CBF03200020A6E700202060A3E72023236000209FE76FF057
:201EC0000903236000209AE740F29C43C2F200031B6800201B68236091E740F24663C2F25A
:201EE000000393F900300020236088E7012086E7FFF73CFE012804D10646C1E7FFF718FE55
:201F0000CFE76FF07F032360032078E770B582B0044600F0F9FF80B340F23C53C2F20003F1
:201F20005B88022B08BF002627D1221DA01C40F6D00340F2AC54C2F2000392B2C2F20004C3
:201F400080B2110A2082E36159701A70FFF77AFD0020014601F016FA204601A900F0DCFF4B
:201F60000125C0B9002001F023FA00236380FFF7D9FC284656B902B070BDFFF7F7FD012854
:201F800008BF0646D1D0012002B070BDFFF7D0FD284602B070BD00F027FB638803F44063E6
:201FA00033B900F02BFD638803F44063002BF8D06588ADB2B5F5505518BF0125D2E700BF95
:201FC00010B5B32994BF0A46B4220C460146044805F0ACF82046BDE81040FFF797BF00BF03
:201FE000D208002030B583B001F046FA012825D000F08AFF20B340F2AC53C2F200035B8869
:20200000022B18BF002528D0802403E09DF80640630607D10120C0F2034001A900F07CFFD1
:202020000128F3D0B5B940F24663C2F2000393F9000064B2A042D4BF0020012003B030BDBC
:20204000FFF794FD012808BF0546DDD0FFF770FD0120F3E7FFF76CFDE5E70120EEE700BFD3
:2020600008B500F051FF70B140F23C53C2F200035B88022B06D1FFF7B5FF10F1FF3018BF32
:20208000012008BD002008BD40F288402DE9F84FC2F2000000F00EFE02F0E6F8012803D0A2
:2020A00000242046BDE8F88F40F68814C2F2000440F6142501F0FCF8C2F20005204600214C
:2020C0008C224FF0000A05F0A7F8022700218C22D146284605F0A0F867F3830A67F383099E
:2020E0004FF0840840F6CC0E40F6C40340F23C5040F6B80140F2845640F26C52C2F20003A8
:20210000C2F2000040F2993CC2F20002C2F2000EC2F2000125602C6084F805A0A4F8068083
:202120000027C2F200064BF2333B85F80590A5F80680CEF8004083E890008362C162A6F837
:2021400020C0A2F80EC0A2F810B0FFF70FFD01280446A5D147F24C50C0F2000001F03AF947
:2021600040F2B4403946C2F2000001F007FE98E710B54FF4DC74C1F20004236804205B690F
:202180009847236804205B6B98470128F9D110BDF8B540F25061C2F2000100220023C1E918
:2021A00000234FF4DC73C1F200031B6804205B6B9847012801D0FFF7DBFF4FF4DC73C1F259
:2021C00000031B680020DB69984742F22803C6F20803012142F228021960C4F208021368E0
:2021E0009B07FCD50C23C4F2010319684FF4E47221F4807121F001011960C1F200021368A7
:202200000024C4F201044FF404511B682046C0F20041984704233C2108221F46C4F20101C1
:202220003126C4F2010240F22125C4F22433012027600E6015601860F8BD00BF10B442F29A
:20224000080342F20C04C4F20903C4F209041968226818688142FAD1C90140F2506001EBF9
:202260005262C2F200000023C0E900235DF8044B03C8704710B542F2080342F20C04C4F2E3
:202280000903C4F209041968226818688142FAD1C90140F2506001EB52620023C2F2000033
:2022A000C0E9002301F0D8FB00B910BDBDE8104001F0C2BB10B502F06DF842F20803C4F294
:2022C00009031C6808B902F069F8204610BD00BF38B54FF4DC73C1F200031B6804465B6BA0
:2022E00004209847012801D0FFF742FF4FF4DC72C1F20002126842F25403C4F208031D6819
:202300000020D369984742F22803C6F20803012142F2280205F001051960C4F20802136831
:202320009B07FCD52C22C4F201020C231460C4F2010319681A4641F4807119601368D805EE
:20234000FCD405B138BD4FF4DC73C1F200031B6828461B6A984742F22803C6F20803012121
:2023600042F228021960C4F2080213689907FCD538BD00BF704700BF0146012000F058B848
:2023800001F05EBF2DE9F04102F004F8002642F204034FF48032C4F2090301240027C4F2E0
:2023A00024364FF480714FF4C2753760C1F200051C6019601A602B6880461B6838462321B9
:2023C00098472B6820461B68242198472B6802201B68252198474FF40053C4F20903196848
:2023E00042F2080241F4E021C4F209021960176001F026FF42F21C024FF4287300F500700D
:20240000C4F22433C4F209024FF4D8711060C1F200011C6034600B6814201B699847B8F17B
:20242000000F01D0BDE8F081BDE8F04101F0B6BF431E042818BF012B10B42CD810F001020F
:202440001EBF42F21803C4F20903196010F002031EBF42F21C04C4F20904216010F0040097
:202460001EBF42F22004C4F2090421602AB14FF42072C4F22432012111602BB14FF42873DA
:20248000C4F2243301221A6028B14FF43073C4F2243301221A605DF8044B704740F6A023D5
:2024A000C2F200031868704708B5FFF769FF40F6A023C2F200031860FFF7DCFEA023C4F2A2
:2024C00024331B68BBB98023C4F224331B6863BBC023C4F224331B6863B14FF4307242F2BD
:2024E0000403C4F224320020C4F209034FF480311060196008BD42F20403C4F209034FF405
:2025000080721A6001F09CFE00F2052020F4FF7242F21C03C4F2090322F001021A608023E1
:20252000C4F224331B68002BD2D04FF4207242F20403C4F224320020C4F2090301211060AE
:20254000196001F04FFCC3E7820741BF4FF44063C4F2080301221A60C30700D4704701F009
:202560001DBF00BF08B501F015FF4FF44063C4F208031A68012A03BF4EF25152C1F6CC2260
:202580001A60002308BF0223002814BF184643F0010008BD00224FF6FF714FF44063C4F2ED
:2025A0000802C0F20F01C4F20803012011601860704700BF38B5FFF7D5FF00244FF6FF757A
:2025C0000C214FF48273C4F20804C0F20F050122C4F20033C4F2080125600A601A60BDE835
:2025E0003840FFF7B1BF00BF00224FF6FF710C23C4F20802C0F20F01C4F208030120116063
:202600001860704708B5FFF7D5FFFEE710B44FF6C7734FF6CF74C0F20103C0F2010413F8DC
:20262000012FFF2A12D1A342F9D141F2F022C5F2000241B10A44002312F8014C013AC454A4
:2026400001338B42F8DB5DF8044B70474FF6C872C0F20102EDE700BF38B54FF4DC75C1F250
:2026600000052B6802205B6998472B6802205B6B98474FF4DC7301280446C1F20003F4D123
:202680001B684FF40070DB69984742F22803C6F2080342F228021C60C4F2080213689B0708
:2026A000FCD538BD2DE9F0434FF4E87683B0C1F20006FFF7D1FF33684FF480504FF4D87877
:2026C000DB68C4F20000C1F200089847D8F8003041F238045B691520C4F2000498472368DB
:2026E00041F2440523F4FE6323F00203C4F2000540F2F2794FF4DA772360C1F20007C5F8E8
:2027000000903B680320DB6B984742F29003C4F2020308221A603A684FF0FF3300934FF42F
:202720008050176CC4F200001D210322B84733684FF480504FF4D8415E68C4F20000C0F2F6
:20274000DC214FF416426023B04741F23403C4F20003142141F22C021960C4F20002116804
:2027600040F6A42341F010011160C2F20003196840F2013640F2011041F23002002914BF64
:2027800031460146C4F200021160C5F800901B6843B12368152043F050032360D8F80030C5
:2027A0001B69984703B0BDE8F08300BF08B54FF4DC73C1F200031B6802205B6B98470128B4
:2027C00001BF42F26C03C4F20803186800F0010018BF002008BD00BF38B50446FFF7E6FFD7
:2027E00030B141F21802C4F2000213681807FCD4032C06D040F6A423C2F200031B6803B199
:2028000038BDFFF7D3FF38BB4FF4DC75C1F200052B684FF400701B6A9847032C41D042F29E
:202820002803C6F20803012142F228021960C4F2080213689907FCD5032000F05DFA1D205E
:2028400000F05AFA4FF0FF3000F056FABDE838404FF0FF3000F050BA4FF4E873C1F20003AD
:202860001B684FF48050DB68C4F2000098474FF4D873C1F200031B6815205B69984741F218
:202880003803C4F20003186841F2440220F4FE6020F00200C4F2000240F2F2711860116091
:2028A000B2E72B684FF400709B6A98472B684FF400701B6B9847B2E710B501F06BFD0446A9
:2028C00040F2A040C2F2000000F0F4F940F6A423C2F2000300221A6004B110BDBDE810408E
:2028E00001F05CBD10B50446FFF760FF08B9FFF7D9FE4FF4E873C1F200031B684FF48050F2
:202900002146DB69C4F20000984710BD40F6A423C2F2000310B5186040F2A043C2F20003ED
:2029200000B302224FF4DC741A61C1F2000423684FF400705B6A984723684FF40070DB6A96
:20294000984742F22803C6F20803012142F228021960C4F2080213689C07FCD5BDE81040D9
:20296000FFF7A0BE4FF4DC741861C1F2000423684FF400709B6A984723684FF400701B6B5A
:202980009847DEE708B5FFF711FF30B141F21803C4F200031868C0F3C00008BD70B5FFF715
:2029A0005BFE4FF48253C4F200031A6841F24403C4F2000340F2F27112F0500F196018D0E1
:2029C00041F218054FF4E87640F6A424C4F20005C1F20006C2F2000406E03368C4F20000A5
:2029E0001B69984723682BB92B684FF48050DB06F3D570BDC0B29847F6E700BF4EF61053F5
:202A0000CEF200031A6822F004021A6030BF704770B501F0BFFC01F073F918B1BDE87040ED
:202A200001F0BCBC40F6A820C2F2000001F0BEFA0225044648B1636823B19847A84228BF19
:202A40002846C5B22468002CF5D1FFF799FC4FF42073C4F224331B680446002B40F0B88045
:202A600000F0FAFF03460146002840F0F280012D00F0CC80022DD1D12846002B00F00581C9
:202A8000FFF7D6FC40F6A820C2F2000001F08EFA06250446002800F0AF80A368022003B1A6
:202AA00098472369246825EA0305002CF5D1FFF79BFD6A0705F0060400F1A180002C40F0AA
:202AC000E98000F0D7F9002003F0FEFC4FF48052C4F20902116841F2080321F003011160AD
:202AE000C4F2090319684FF4DC7241F00F011960C1F20002136839209B6998474FF48252C5
:202B00004FF484610023C4F20902C4F222311360184613600B6002F0F5F8062C00F0C380AD
:202B200042F22C0542F22424C4F20804C4F209052B6823684FF4EC7623F003032360C1F21C
:202B4000000633684FF48040C4F2030003215B6898474FF4DC73C1F200031B689B6B9847A2
:202B60002B6802F04DFA4FF4C0730022C4F204331A6033684FF48040C4F203005B6801214E
:202B80009847216844F20C0341F003010122C4F2090321601A602B6802F072FA03F05CFC37
:202BA000FFF768FBFFF720FD40F6A820C2F2000001F0FCF9044628B1E36803B19847246884
:202BC000002CF9D101F0EAFBBDE8704001F0E6BB42F21803C4F209031B681B1A022B52D426
:202BE000A3F28F23002BB8BF0123BFF639AF9D4228BF1D46EDB233E7FFF7F6FC062444F201
:202C00000C03C4F2090300221A6057E7002B4ED04FF6F873CFF6FF731B1BCB4248BF04F19A
:202C2000080106D404F58034631A31EA230128BF21460220FFF7FCFB4EF61053CEF2000381
:202C40001A6822F004021A6030BFBDE8704001F0A5BB00F00BFF0646FFF7F0FA361A002E27
:202C600015DDFFF71BFC4FF67153CFF6FF731B1B00EB4621CB424FF001037FF5F8AE9D4244
:202C800028BF1D46F3E60023B1E7611EF8E600231946F4E74FF4DC73C1F200031B6820466B
:202CA0009B6998470DE7022001F0D6FB38E704F58031BEE7014640F6A820C2F2000001F001
:202CC00077B900BF014640F6A820C2F2000001F0C3B900BF40F6A82008B5C2F2000001F080
:202CE00061F94FF4C273C1F200031B6803201B682021984708BD00BF411C10B5044611D032
:202D00004FF4DA73C1F200031B684FF4C0421B68002198474FF4D053A400C4F24423234395
:202D200000221A6010BD00BF38B504460D4601F031FB0121A14042F2E00240F6AC23C4F2F0
:202D40000202C2F20003116043F8245000B138BDBDE8384001F022BB08B5084B002103F1E2
:202D6000800243F8041F9342FBD14FF4D873C1F200031B6810201B69984708BDA80A0020E1
:202D8000F8B542F2E003C4F202031D6840F6AC271D60C2F200070024012606FA04F32B423F
:202DA000E0B203D057F8243003B198470134202CF3D1F8BD10B584B00022412302A80292C1
:202DC000039303F05FFB042001F02EFB032819D00420032101F0EAFA042001F025FB032841
:202DE0000346F9D14FF4D272C1F2000212684FF4204000935468C4F20C0000214FF0405264
:202E00001C23A04702A803F09FFB04B010BD00BF00B583B00022412368468DE80C0003F085
:202E200031FB012001F000FB012803D00320012101F0BCFA684603F087FB03B05DF804FB47
:202E400000B583B00022412368468DE80C0003F019FB012001F0E8FA012805D04823C1F2BE
:202E60000003986B01F0D2F9684603F06DFB03B05DF804FB10B582B04123684600240193BF
:202E8000009403F0FFFA0320214601F08FFA012001F0CAFA28B14823C1F20003986B01F0EA
:202EA000B5F9684603F050FB02B010BD70B503880646C3B140F21A22934219D1822921D1BF
:202EC00047F25453C0F2000347F6D4051C69C0F20005FFF789FB02F05BFA02F003FA8021BA
:202EE000A047002808DC40F21A233380012070BD00230380032070BD80B202F0EDF92B69DB
:202F00009847E6E7012070BD42F29C13C4F20803186800F00100704738B510F003030546AD
:202F20000C4626D001F036FA42F29C13C4F208031B68003018BF0120DB072AD54FF48053E2
:202F4000C4F2040341F204011D60C4F204010B684CF25032236003E00B68013A236018D092
:202F600013F0FF0FF8D050B32078421E5042504138BD02881005D5D56B8001F00BFA42F207
:202F80009C13C4F208031B68003018BF0120D90702D480B1002038BD2B8813F4405FCDD024
:202FA00003F44063B3F5006F02BF40F62C33C2F200031D60C2E701F0F1F9002038BD01F04C
:202FC000EDF9D1E74AF22013C0F2070301E0013B0FD0428802F44062B2F5806FF7D14088A4
:202FE00000F44060B0F5806CDCF1000050EB0C0070471846704700BF30B583B001F0CAF941
:203000004FF4D874C1F20004236805461B6A19209847236812201B6A9847236819205B694E
:20302000984723684FF4DC745B691220C1F200049847236801205B699847236801205B6B46
:2030400098470128F9D142F22C0142F22803C4F20801C6F2080342F228020860C4F20802D6
:20306000186013689907FCD541F2100141F214030022C6F20401C6F204034FF4D8740A60C7
:20308000C1F200041A60236819201B699847236812201B6998477DB10023C6F2040307227F
:2030A00001201A6001A9C0F20640FFF735FF431E5842584103B030BD01F070F9ECE700BF89
:2030C00030B540F63433C2F2000387B01B680024012240F60A0501A8694601940494059354
:2030E00002940394ADF804508DF81120FFF714FF012804BF4AF22010C0F2070004D02046A0
:2031000007B030BD0138FBD0BDF8063003F44063B3F5806FF6D1BDF8060000F44060B0F530
:2031200080646042604107B030BD00BF10B586B00023012240F6090401A8694601930493FE
:20314000029303930593ADF804408DF81120FFF7E3FE012806BF4AF22010C0F20700C0B2B1
:2031600003D006B010BD0138FBD0BDF8063003F44063B3F5806FF6D1BDF8063003F440638D
:20318000B3F5806F18BF0020EBD141F23B73C2F200031A780120002AE3D140F63432059982
:2031A000C2F20002012011601870DAE730B587B001F0F0F84FF4D874C1F20004236805466D
:2031C0005B6919209847236812205B69984742F29C13C4F208031B68DA0720D541F2100172
:2031E00041F214020023C6F20401C6F204020B6040F60D04136002A8012201A9029305931F
:2032000003930493ADF808408DF81520FFF784FE012804BF4AF22013C0F207033DD0FFF748
:2032200085FF42F22C0142F22803C4F208010024C6F20803012042F228020C60C4F20802F9
:20324000186013689B07FCD54FF4DC74C1F20004236801209B699847236801205B6B9847DE
:203260000228F9D14FF4D874C1F20004236819201B6A9847236812201B6A98472368192007
:203280001B699847236812201B6998470DB901F085F807B030BD013BC1D0BDF80A2002F431
:2032A0004062B2F5806FF6D1BDF80A30B7E700BF08B501F001F8052815D003281AD050B1F4
:2032C000012801BF42F2D013C4F2080305221A6018BF002008BD42F2D013C4F208030322D3
:2032E0001A60012008BD42F2D013C4F208031860012008BD42F2D013C4F2080302221A60C2
:20330000012008BDF8B542F29C13C4F208031A680023C8F2800300280CBF1D460025D10741
:2033200000D4F8BD01F036F841F2180141F2140241F21003C6F20401C6F204020646C6F28B
:20334000040300204FF000474FF4D8740F60C1F2000415601860236819201B6A984723686B
:2033600012201B6A9847236819201B699847236812201B69984706B1F8BDBDE8F84001F036
:203380000DB800BF002398420CBF022008200029C8F2800318BF002341F2100141F21402AA
:2033A0001843C6F20401C6F204020B60106070470023984241F21402C8F2800318BF002328
:2033C000C6F204021360704740F62C33C2F200031868704740F63033C2F200031860704703
:2033E00008B542F29C13C4F208031B68D80704D4FFF702FE012800D008BD41F21003C6F280
:2034000004036FF000421A6008BD00BF08B542F29C13C4F208031B68D9070AD447F618000F
:20342000C0F2000003F0A6F8FFF7E6FD012800D008BD00F0AFFF41F21003C6F204031A688D
:2034400012020ED441F21003C6F204031A6812F00A0F1CBF6FF00A021A60BDE8084000F037
:203460009DBF6FF4000240F2B4401A60C2F2000000F0A6FCE6E700BF41F23C73C2F2000380
:203480001878704708B500F0A3F880B208BD00BF00F038B938B54FF4DC75C1F200052B683A
:2034A00004205B6998472B6804205B6B98474FF4DC7301280446C1F20003F4D11B6840F2B4
:2034C0000140DB69984742F22803C6F2080342F228021C60C4F2080213689B07FCD538BDE9
:2034E00040F63833C2F20003186800280CBF0220012070472DE9F04103880646002B4AD0A4
:20350000B3F5847F09D140F24763C2F200031B788B4207D00120BDE8F0810023038003205C
:20352000BDE8F08140F63837C2F200073B68B3B14FF4E673C1F200031A6848F20403C4F243
:20354000020352680220D3F8008090470024221848F10003194610463B6898473C604FF4B8
:20356000DC73C1F200031B6840F201409B6A984742F22803C6F20803012142F22802196051
:20358000C4F2080213689907FCD540F2C440C2F20000FFF797FB4FF4847333800120BDE85A
:2035A000F08100BF08B54FF4DC73C1F200031B6804205B6B9847012801BF42F23C03C4F278
:2035C00008031868C0F3400018BF002008BD00BF70B540F63833C2F200031B68D3B140F638
:2035E0003C30C2F200000023C15C40F63C32C2F2000229B90133042BF6D10020014670BD71
:2036000040F258610024C2F2000101EBC301D45403C970BDFFF7C6FF002842D048F20803DB
:20362000C4F202031A680123C8F2000313409BB949F6F073C4F2020301221A601868002823
:20364000FCD102464FF4807101F05EFD4FF42A73C4F2502301221A6000F09CFE48F2080261
:203660000646C4F202021368D807FCD54FF4E673C1F200031A6848F20403C4F2020352688F
:2036800002201C68904700222346141843F1000516B12046294670BD00F080FE20462946B1
:2036A00070BDFFF7F7FEB9E738B54FF42A750024C4F2502548F20C032C60C4F20203196823
:2036C0004FF4D87221F001011960C1F20002136831205B699847204622464FF4807101F0BA
:2036E00013FD012240F247632A60C2F2000340F2D84022461978C2F20000BDE8384000F076
:203700000BBB00BF10B540F24764C2F200042378802B00D010BD00F06FFA207040F2D840B4
:20372000C2F200000021BDE8104000F027BB00BF10B50446006830B1002100F01FFB54F85F
:20374000040F0028F8D110BDF8B5038806461546EBB14A2B17D1882946D140F64030C2F29E
:20376000000000F023FC044648B1031D9D4202D126E09D4224D02468231D002CF9D14A231D
:2037800033800120F8BD002303800320F8BD40F64030C2F2000000F009FC044630B1201D6B
:2037A000A16800F04FF92468002CF8D141F23D73C2F2000301221A704A2333800120F8BD0A
:2037C00040F64030C2F20000214600F045FC40F64C356269A369C2F200052F682A600BB1D3
:2037E000E06998472F60CAE70120F8BD10B541F23D7340F640300024C2F20003C2F20000AE
:203800001C7000F0CFFB40F2E8402146C2F20000BDE8104000F0B2BA70B541F23D74C2F2DF
:203820000004049D267882610446C36145614EB9A16040F640302146C2F20000BDE8704030
:2038400000F0B6BB40F64C35C2F200052E6840F2E843C2F2000304302B6000F0F3F82E60C5
:20386000E7E700BF10B540F64C34C2F20004246882B00094FFF7D0FF02B010BD10B541F2FA
:203880003D73C2F200031B78044653B9C360036140F640302146C2F20000BDE8104000F0AB
:2038A000DBBB043000F0EEF8F2E700BF704700BF10B540F64434C2F200042368CBB1FEF733
:2038C000BDFC236859681A689B680A44121A4BB193E812009B682144091A8A4228BF0A46CD
:2038E000002BF5D140F648330244C2F200031A6010BD40F64832C2F20002136010BD00BF7D
:203900002DE9F041038805467BB1592B08D1872915D0822926D059232B800120BDE8F0816D
:20392000002303800320BDE8F08140F64432C2F20002136059232B800120BDE8F08140F63F
:203940004437C2F200073B68002BE4D0D9688A4203D02BE0D9688A4227D19B68002BF9D1C7
:203960003B60D8E740F64437C2F200074FF000083C68002CCFD0002604E0A3682646002B1F
:20398000C9D01C46204600F065FA0028F5D0E0688821224600F0C0F9034640F2F840C2F221
:2039A000000073B100F00CFAE7E73B6099680029B1D0C86882420BBF89680B4699608968EF
:2039C000F5E7E360A3682EB1B360C4F80880FFF76FFFCDE73B60F8E710B5044640F2F8407C
:2039E000C2F2000000F0ECF940F64432E368C2F20002116853B149B18C4218BF0B4602D151
:203A000010E09C420ED09B68002BFAD140F64C33C2F200031B68A160E3601460BDE8104065
:203A2000FFF746BF40F64C33C2F200031B68E360BDE81040FFF73CBF40F2F840C2F2000055
:203A400000F0BEB910B5044600F0FCF92046BDE81040FFF7C1BF00BF40F64433C2F2000317
:203A60001868003018BF0120704700BF40F64433C2F20003186820B140F64833C2F200030B
:203A80001868704710B540F64433C2F200031A680446904217D04AB1936883420AD02BB1D0
:203AA0009A68A24207D01346002BF9D10023A360E36010BD1346A2689A60FFF7F9FE002358
:203AC000A360E36010BD82681A60FFF7F1FEEDE72DE9F84340F65038C2F20008D8F80040DB
:203AE00040F64C36221CC2F2000618BF0122844218BF002C054689463768234604D01B68DA
:203B00009D4218BF002BFAD163B3AB7BE3B10023AB736AB1A54220464FF087012A4604D075
:203B2000A37BDB0701D500F029F82468002CF1D1AB683BB14D4505D0356005F10C00832183
:203B400000229847D8F80040A54212D04CB12368AB4209D02BB11A68AA4206D01346002B99
:203B6000F9D13760BDE8F88323462A681A603760F8E72B683760C8F80030F3E770B58568D3
:203B800004460E468DB140F64C33C2F200030220A0731C6004F10C00A8470238012805D9FB
:203BA000832E1CBF0123A37300D070BD20462146BDE87040FFF78CBF70B540F65033C2F24D
:203BC00000031C6841F24073C2F2000300261E7084B1012501E0246864B1E37B002BFAD0DD
:203BE000A573E673204682210022FFF7C7FF2468002CF2D170BD00BF41F24173C2F2000368
:203C00001878421C1A70704770B441F23F7040F6503140F64C32002341F2417541F23E7413
:203C2000C2F20000C2F20001C2F20002C2F200058A26C2F2000403700B6013602E702370C2
:203C400070BC70472DE9F04141F24074C2F2000423780BB1FFF7B0FF41F23F75C2F20005FF
:203C6000287818B341F23E72C2F20002117840F6543301EB410C4FEA8C0CC2F2000303EB4B
:203C80000C0701380131BE68C0B201F01F012870117013F80C807F68B6B1B8F1810F04BF03
:203CA0000123B37306D0B37BDA0703D423781844BDE8F081304641463A46FFF75FFF287880
:203CC00023781844BDE8F08140F65033C2F200031E6836B9EAE7B37BD9070AD43668002E69
:203CE000EDD02378002BF6D0FFF766FFB37BD907F4D5304641463A46FFF740FFEEE700BF03
:203D000041F2407241F23F73C2F20003C2F200021278187810447047F0B441F23F73C2F20A
:203D200000031D78202D08BF012315D041F23E74C2F20004277840F654342F4407F01F0744
:203D400007EB4707BF00C2F20004E6190135E1551D7072600023B0601846F0BC704700BF2F
:203D600038B5837B40F64C34C2F20004DB07256801D5FFF703FF256038BD00BF70B440F61A
:203D80005035C2F200052E680446864218BF002E334604D01B689C4218BF002BFAD1A342D8
:203DA0000BD0012000232660A073A3810A4620462C60812170BCFFF7D3BF70BC704700BFED
:203DC00060B1837B013BDBB2012B9FBF41F240730122C2F200031A7098BFC273704700BF35
:203DE000FEF7C8BA10B540F6D444C2F20004236863B1184600225B688168226098472368CA
:203E000023B11868BDE81040FEF7B6BA10BD00BF10B541600446FEF74DFA206010BD00BF70
:203E200010B50446FEF746FA616822684FF6FE730A44801AC7F6FF7398428CBF00200120B8
:203E400010BD00BF10B541600446FEF7F7F9206010BD00BF10B50446FEF7F0F994E80C00C0
:203E6000C2F10102104483422CBF0020012010BDF8B504880546672C0ED0792C04D064B3F5
:203E8000002303800320F8BD852933D140F6E054C2F200040023236040F6E05440F66056D4
:203EA000C2F20004C2F2000607E00A2824D022687E2ADEBF511CB054196040F65850C2F238
:203EC000000000F017F940F6E053421CC2F20003EBD167232B800120F8BDFFF78DFE41F6E5
:203EE000221240F6E053C2F20002C2F2000310701C60D1E70120F8BD40F6E054C2F200040C
:203F0000276840F6605341F62211C2F200030026C2F200011A4607F1010E09783046DE559C
:203F2000C4F800E0FFF7F8FE40F64C33C2F20003324618688521FFF7EFFE0028AAD17923CD
:203F40002B800120F8BD00BF08B540F6585040F6D841C2F20000C2F20001802200F0AAF89A
:203F6000BDE8084040F20850C2F200000021FFF705BF00BF0029034611DD084413F8011BA9
:203F80004A4052BA02F47F4182EA011292B282EA123202F47F41834282EA5112EED1104603
:203FA000704700BF00230360704700BF0068704710B404685CB1A14225D023680BB906E026
:203FC0001346994210D01A681C46002AF8D100230B6002680AB911E01A461368002BFBD178
:203FE00011605DF8044B704764B10A68226000221A6000230B600268002AEED101605DF8B9
:20400000044B70470C46226823460260EFE700BF30B4056865B1A94219D02B6843B12C462A
:2040200000E01346994207D01A681C46002AF8D10D60016030BC704744B10A682260002242
:204040001A6005680D60016030BC70470D462A682B460260F3E700BF10B404685CB18C42AC
:2040600015D023680BB906E01346994206D01A681C46002AF8D15DF8044B704734B11A6883
:20408000226000221A605DF8044B70470C46226823460260F5E700BF03682BB100201B687B
:2040A0000130002BFBD170471846704700B10068704700BF0023013A0160027143718371A3
:2040C000704700BF10B40346447980791A79201A104082421FBF1A68012011555A791FBF2E
:2040E000197912180A405A7108BF00205DF8044B704700BF10B40346827940791979801A01
:2041000008421FBF1868541C2140805C14BF99714FF0FF305DF8044B704700BF08B543697C
:204120005B6803B1984708BD10B5044682B01A2001F0C2F9014601A801F004F863691B6811
:2041400013B1204601A9984702B010BD70B5144647F69C020646C0F200020D4602F080FA14
:2041600047F6980174612846C0F20001BDE8704000F040B802F084BA10B541F6E0010446DF
:20418000C2F200011A2001F08BF92046BDE8104002F078BA40F6E450C2F20000FFF702BF67
:2041A000034640F6E4509980C2F200001946FFF7FFBE00BF014640F6E450C2F20000FFF753
:2041C0004BBF00BF10B5044640F6E450C2F20000FFF7ECFE50B18388A34203D109E0838850
:2041E000A34205D0FFF762FF0028F8D1002010BD10BD10BD38B50D46FFF7E4FF044620B102
:204200008560284602F070FA207338BD70B5064600F0C0F84FF400420546C4F20C0213683F
:204220004FF40044C4F20C04002BF8D0B0470123236005B170BDBDE8704000F0AFB800BF52
:2042400010B442F2080342F20C04C4F20903C4F209041A68206819688A42FAD1120442EA2E
:2042600010405DF8044B704741F21832C5F2000213684BF69A11C3F30F338B4213D04BF60D
:20428000BE12934208BF01200BD04BF64132934208BF032005D04BF6203083420CBF02202B
:2042A000FF2040B270471068000F0B280CBF0420002040B2704700BF10B541F29423C5F29F
:2042C00000031C68FFF7D0FF0128C4F3033409D1082C08BF002003D00F2C0CBF0120FF206D
:2042E00040B210BDFF20FBE738B541F218324FF48553C5F20003C5F2000212681C68150FE4
:20430000E4B27F2C88BF0024FFF7AEFF04280FD8DFE800F01108030304004DB90A34E0B28B
:2043200040B238BDF5B1022D04BF1434E0B2F7D0FF2040B238BD013D072DF9D801A353F825
:2043400025F000BF65430000314300007343000031430000314300003143000077430000A1
:204360006B4300000A2040B238BD04F11600C0B2D6E71420D4E71520D2E700BF08B5FFF7F5
:2043800073FF012800D0FEE7FFF7AEFF1328FADD08BD00BFEFF3108072B67047EFF31080D1
:2043A00062B6704701387FF4FDAF704770B50D46C10782B0044626D4A20713D463070FD58B
:2043C0004FF4D273C1F200031B68ADB24FF4204000955C68C4F20C0000210C220223A047A4
:2043E00002B070BD4FF4D273C1F200031B68AAB200924FF420405E68C4F20C0000210222BF
:204400000123B047DAE74FF4D273C1F200031B68AAB2009200214FF420405E68C4F20C00C5
:204420000B460122B047C7E710B54FF4D273C1F200031B6804284FF42040DC684FF0340156
:2044400007BF4FF0C0421D234FF080521C23C4F20C00A04710BD00BF01280FD030B14FF464
:20446000C073C4F2043301221A6070470023C4F209031A6822F005021A6070470023C4F23E
:2044800009031A6842F005021A60704738B541F21003C4F2090301214FF42572054619606F
:2044A000C4F222321368002BFCD04FF4C042C4F20C02C02143F6B0731160C5F200031B688C
:2044C0009B070DD443F6AC73C5F200031A6846F25623C2F3034242F0F002C4F208031A70AB
:2044E0004FF48252C4F20902002143F6B4731160C5F200031C68204600F0E8F828462146A9
:2045000000F0AEFA41F21433C5F200031A6840F21D2392B29A4219D841F2BC23C5F20003FE
:2045200019681A68C1F30363C2F3034219462BBB931F012B83BF023202F00F021201702223
:2045400046F202030A43C4F208031A70204600F021F94FF4D073C1F200031B680220DB68F2
:2045600098474FF4C04240F29443C4F20C024020C4F2602301211060196038BD013BD9B2EA
:20458000D6E700BF38B541F21C33C5F200031C68FFF7F4FE40F2844046F25C0142F2082320
:2045A0000122C4F20433C4F260200025C4F20C0105600A601A6000F069FB4FF4C073C4F204
:2045C00028331B68B4F1FF3F08BF2C463BB14FF48073C4F2203320461B68FFF757FF42F24D
:2045E0008C12C4F20802002142F248031160C4F203031968042221F07F6121F4702141F021
:204600009C7141F480311960C4F209021368C3F30133012B06D00C22C4F268221368002BF2
:20462000FCD138BD136823F0407323F4403343F4003111601360EEE7F0B441F28833C5F283
:204640000003196846F20623C4F208031B78C1F3046103F01F031529C8BF2039152BC8BF0E
:20466000203B99422FD09822C4F22032002442F22C0046F26C251460C4F20900C4F2080500
:204680006FF0010C0126CA1A022AC8BF022202DC6245B8BF6246134403F01F0444F4F85437
:2046A00042F22C028B420768C4F209022C804FF001040660E7D198231168C4F220331460DC
:2046C00011681C601368F0BC704700BF00F04073B3F1807F70B504463DD041F2B823C5F2C1
:2046E00000031B68C3F30463152B51DC03EB24730133152BC8BF41F6157108DC13F10A0F6C
:20470000A6BF03F01F0343F4F85141F6167146F26E22C4F2080200231180C4F209031B6860
:2047200013F0020309BF40F2944244F04064C4F22A321360C4F3C0610022C4F38064082384
:2047400081F0010184F00104C4F22032C4F2203311601C6070BD46F2252546F2662146F2C9
:2047600015238022C4F20803C4F20801C4F208054FF6D8062A700E801A70FFF75DFF41F2C2
:204780008833C5F200031B68C3F30423152BADDD203BABE7F8B5C0F38143012B47D0022BF9
:2047A0004CD143F6B073C5F200031B684FF400711B075FBF4AF26803C4F20C0340221A6007
:2047C0004AF28002C4F20C0241F28C331160C5F200031A68C0F381504AF20813C2F3C14225
:2047E00042F03002C4F20C0301281A7058D032D302282BD104200321FFF7D8FD41F26C33A5
:20480000C5F200031C684BF20B014BF2700204F03F04C4F20C01C4F20C0247F6180042F21B
:204820002C030C70C4F2090310801B68F8BD41F28C33C5F200031B689A0375D54AF24003AE
:20484000C4F20C034FF000421A60AAE704200221FFF7ACFDD2E704200121FFF7A7FD46F250
:204860003C0046F2400146F24403C4F20C0043F2BD76C4F20C018625C4F20C03012440F64C
:2048800084020660C4F28C320D601C601368002BFCD046F24403C4F20C0300221A60ADE7E9
:2048A000FFF7C2FD044601460420FFF77FFD0420FFF7BAFDA042FAD143F6A873C5F2000390
:2048C000186846F23C0446F2400146F2440387B2C4F20C04C0F30746C4F20C01C4F20C0361
:2048E000012540F684022760C4F28C320E601D601368002BFCD046F24402C4F20C0200211B
:204900004FF4DA731160C1F200031B684FF060221B68000E072198474AF24003C4F20C03C0
:204920004FF480621A6065E74AF24001C4F20C014FF4804446F20C020C60C4F2080211685A
:20494000C3F3033421F08F012143C3F3004441EAC41446F20B011460C4F208010A68C3F3C9
:20496000032422F00F02144346F20A020C60C4F20802116803F0E70321F0E7010B43136016
:204980000FE700BF41F25033C5F200031B688203C3F38361C3F38F230DD440F30722002A81
:2049A0000CDA5B0805D149080ABF01234FF6FF7319460132F5D143EA01407047FBD05B0040
:2049C00043F00103B3F5803F4FEA410007D340F001010F2992BF01230F214FF6FF73013AE4
:2049E000EDD143EA0140704770B441F2783343F6B072C5F20003C5F200021B681268C3F351
:204A0000035412F00102C3F3034105461CBF24050A0419D143F6AC70C5F20000006840F352
:204A20000326341948BF144605D40F2CD8BF240501DD4FF4700440F30330411804D40F2967
:204A4000D4BF0A044FF4702298B2212D40EA040040EA020084BF03F08043184370BC7047B7
:204A600070B5044682B00846FFF78CFF02464FF42040C4F20C00182101F0BCFE41F250337F
:204A8000C5F2000319681A684FF4D273C1F3870102F00302C1F200031B6841EA0222009284
:204AA0004FF420405D68C4F20C002C2140F2FF320023A84741F27C33C5F200031A684FF4A9
:204AC0002040C2F30D02C4F20C001C2101F092FE41F27433C5F200031A684FF4204002F087
:204AE000FC32C4F20C00142101F084FE41F27033C5F200031A684FF4204022F07F4222F480
:204B000040321021C4F20C0001F074FE2046FFF76BFF02464FF42040C4F20C000C2101F03C
:204B200069FE212C73D941F28C32C5F2000211684AF24913C1F30071490041F02001C4F244
:204B40000C03C9B219701268C2F3407242F01002D2B21A7041F29835C5F200052B684FF47D
:204B60002040C3F30262C3F3C1619200C3F3815342EA01221A43C4F20C00282101F03AFEE7
:204B80002A684AF24C13C2F30152520042F06002C4F20C03212C1A7063D941F28C33C5F279
:204BA000000319684AF24112C1F3C061C90061F07F01C4F20C02C9B211701A684AF2DC1306
:204BC000C2F34552920042F47C42C4F20C031A8041F29833C5F200031B68C3F30512C3F3E6
:204BE000892112041B0342EA81529BB21A434FF42040C4F20C00082101F0FCFD4AF2400337
:204C0000C4F20C034FF480021A6002B070BD4AF24913C4F20C03222111221F2C19701A7080
:204C200098D84FF42040C4F20C002821002201F0E1FD4AF24C104AF241114AF2DC13C4F25E
:204C40000C006026C4F20C018025C4F20C034FF47C444FF400420670C4F23F020D701C8087
:204C6000C5E74AF241124AF2DC13C4F20C028020C4F20C034FF47C411F2C10701980A7D8C2
:204C80004FF40042C4F23F02B1E700BF10B40C22C4F268221368002BFCD144F2040343F626
:204CA000B072C4F20303C5F200021968126821F00051520721F007011CD44FF48042C4F2E3
:204CC0000302146841F0005141F00400A40708BF18600CD041F007011960136803F00303B0
:204CE000032BFAD144F20403C4F2030318605DF8044B704741F0005141F0050119605DF868
:204D0000044B70472DE9F04F0023C4F209031B6883B013F00207804611D040F6E85341F246
:204D200030024FF6FD51C2F200030820C4F20902C0F2A4019871116003B0BDE8F08F01F075
:204D40003DFD43F6B473C5F200031C6801462517A00205F1010540F1D78004F04073B3F187
:204D6000807F00F0E08041F2B823C5F2000341F23C121B68C5F200021668C3F30463152B84
:204D8000C6F30446C8BF203B152E00DD203E1D44152DC4BF41F61570152540F3D98046F2D0
:204DA0006E22C4F2080242F22423C4F2080310801A6812F0030318BF0123520748BF43F0BF
:204DC0000203B8F1000F01D043F0040340F6E852C2F2000292F90700081A042826DC9079FA
:204DE000984208BF918821D142F20803C4F209031B6840F6E8501E291360C2F200000B4656
:204E000000F2C6801F234EF208718380C8F2A40141F2300041F23402C4F20900C4F20902B1
:204E200000230160136003B0BDE8F08FB1F10F0900F1D08009EB09194FEA2920072840F2B0
:204E4000938041F2B830C5F2000041F2B4374FF4E0688446C5F20007CDF804803F68DCF878
:204E600000C013F0040BC7EB0C0C18BFCCF307285FFA8CF718BF474413F0020A1CBFCCF3EA
:204E80000748474413F0010840F09780DDF804C0CCEB090909FB07F780373F0AD0F800C0F9
:204EA0005FFA8CF0BBF1000F02D0CCF307294844BAF1000F02D0CCF307494844B8F1000F36
:204EC00001D000EB1C60751B002D07444FF03400C8BF6843E4B204FB00F04FF6FF7CB0FBFD
:204EE000F7F0604528BF604680B27F299080C8BF7F2105DC11F1800FA8BFC9B200DA8021B9
:204F0000D171937101466FE7C1F13E03DB10082BA8BF08239D42B8BF1D4604F04073B3F107
:204F2000807F7FF420AF41F28833C5F2000341F288321B68C5F200021668C3F30423152BC4
:204F4000C6F30466C8BF203B152E7FF720AF1DE715F10A0FA7BF05F01F0040F4F85041F674
:204F600016706FF009051AE73FF46BAF00F1010841F298374FEA8808C5F2000741F29C3C62
:204F800000024744C5F2000C0190C444384665E7B1F5007F28BF002227D35B08B3F5007FAC
:204FA00002F10102F9D24FF467410F3BC8F2A4011B09114341EAC3012AE7DDF8048007EBD9
:204FC0001C67C8EB090909FB07F780373F0A4FF0010863E741F29C30C5F2000003F0040B3D
:204FE00003F0020A03F0010858E7A1F10F031B094FF46741DB00C8F2A401194308E700BF80
:2050000010B541F23403C4F209031C68A4B204B910BD01F0D3FB40F6E853C2F2000393F9C8
:20502000072090421CDB9A8840F6E8539442C2F2000322D342F20801C4F20901086819687D
:205040000230411A1F2928BF1F21A41A4908CC404FF6FF7122448A4228BF0A469A8010BD34
:205060006FF07F029042B8BF10469A88D871944240F6E853C2F20003DCD29C8010BD00BFF2
:2050800010B445F22803C4F209031B6853B343F6B472C5F20002116801F04062B2F1406F29
:2050A00020D00022C4F20902106884071AD443F6B070C5F200000068800713D443F6AC74ED
:2050C000C5F200041068246810F0050FC4F3035404F11C044FEA041407D0A3423CBF20F0C2
:2050E000050010605DF8044B7047A342FAD90B0158BF40F0010000234C0158BF40F0040019
:20510000C4F209031860EDE730B448F21403C4F202031D68120202F47062090AC0F38710D3
:205120004FF6FF34090410432C4048F218020C4325F480650843C4F202021D601C6010601C
:2051400030BC70470B880380704700BF08B5022201F0B8FFD0F1010038BF002008BD00BF3A
:2051600008B547F25453C0F200031B68984747F6D403C0F200035B68984747F6FC03C0F222
:2051800000035B68984747F6B003C0F200035B68984747F61813C0F200035B68984708BD9F
:2051A00041F22E7CC2F2000CF0B4BCF80070EFB141F22C73C2F200031D88A5B141F242737E
:2051C000C2F200031E7840F6F05400233744FFB21A46C2F200040132E11892B2C85D13B247
:2051E000AB428855F7DB0023ACF80030F0BC70472DE9F04141F2427241F22C73C2F2000203
:20520000C2F2000315781E888046AC19802CC8BF002414DC40F6F057C2F200072A463946AB
:2052200001F084FF41F22E73C2F20003197808EB05000D44E9B23246394401F077FF204638
:20524000BDE8F081F0B441F22E7341F24276C2F20003C2F200061A78377841F22C73C2F29D
:2052600000031B883A44D2B21A4492B21318802BC8BF002014DC013A92B213B2002BA2BFA7
:2052800040F6F054C2F20004251806DBE15C013A92B2E95413B2002BF8DA384430700120C6
:2052A000F0BC704710B441F22C73C2F2000319888142A1BF41F22E72C2F20002148880B223
:2052C000A1BFC0EB0101001910801980ACBF012000205DF8044B704741F22C73C2F20003EF
:2052E0001880704741F22E7241F24273C2F20003C2F200021878127840F6F0531044C2F29C
:205300000003C0B21844704740F6F050C2F20000704700BF41F22C73C2F200031888704785
:2053200041F22E7241F24273C2F20003C2F200021878127841F22C73C2F2000310441B88AB
:20534000C0B2184480B2704738B541F6EC0241F6E404C2F200020021C2F2000411605160B4
:205360009160D160116151619161D161116251629162D162116304F1080547F6A4012046B9
:20538000C0F200010234FFF7DDFEAC42F5D138BD41F22E7041F22C7141F242730022C2F24B
:2053A0000000C2F20001C2F2000302800A801A70FFF7CABFF8B541F22E7241F2427341F2D1
:2053C0002C740026C2F20003C2F20002C2F20004802934BF0D468025074616801E70268037
:2053E000FFF7B2FF40F6F05039462A46C2F2000001F09CFE25802846F8BD00BFF0B441F600
:20540000EC06C2F200068C46054606F1300734460FCCBC4228606960AA60EB60264605F13A
:205420001005F4D1206841F6E4032860C2F2000303CBCCF80000CCF80410F0BC704700BF21
:20544000F0B441F6EC0604468C4600F13007C2F2000620686168A268E36835460FC5103448
:20546000BC422E46F5D1206841F6E4032860DCF80000DCF80410C2F2000303C3F0BC70472A
:2054800041F6EC03C2F2000323F810100120704741F6EC03C2F2000333F81000704700BF8E
:2054A00008B541F6E403C2F200031A3803EB4000FFF748FE012008BD41F6E403C2F20003E3
:2054C0001A3803EB4000704747F6A401C0F200010148FFF73BBE00BFE618002008B547F6F1
:2054E000FC03C0F20003DB68984708BD08B547F6D403C0F200035B69984708BD08B547F629
:20550000D403C0F200039B69984708BD08B547F6D403C0F20003D86900B1804708BD00BF94
:2055200010B5044678B1006BFEF740FD024650B147F6D403C0F2000345F2E9702146DB684A
:20554000C0F20000984710BD70B590F829300546032B9CBF01249C4047F6D403C0F2000349
:20556000DA6994BF04F1FF340F249047002808BF012004FB00F42CB1FDF784FFB0FBF4F37A
:2055800003FB140445F22152214605F108002B46C0F20002BDE87040FEF764B92DE9F04113
:2055A00006461B200F46FFF787FF41F24373C2F200031A780546002A4ED041F23073C2F244
:2055C000000319884C1CA4B209B9022401210A201C80FFF755FF40F6E460C2F20000FEF72C
:2055E000E5FC044628B917E02046FEF75FFD044690B1201D2946FFF7A9FD0028F4D0206BA7
:20560000FEF74AFD072832DD3046394604220123BDE8F04100F084BB40F22450C2F2000072
:2056200000F0D0FF04460028EED02946201DFFF789FD002304F12C00206384F8283084F83C
:205640002930E362FEF7AEFC40F6E460C2F200002146FEF7ADFCD2E701221A70FDF712FF6F
:2056600041F23073C2F2000318800146AAE740F23050C2F2000000F0A5FF0546A8B340F25B
:205680001850C2F2000000F09DFFA86030B301F0DFF86860D8B10920D5F80880FFF7F8FEF4
:2056A000002836D1082388F8083088E8C0000D20FFF7EEFE01282946206B30D0FEF778FC0D
:2056C000206BFEF773FC85422CD0BDE8F08140F21850C2F20000A96800F092FF40F2305070
:2056E0002946C2F2000000F08BFF206BFEF7D4FC002889D140F6E4602146C2F20000FEF7B1
:20570000ABFC40F224502146C2F2000000F078FF7AE70920FFF7BCFE88F80800C5E7FEF757
:2057200077FCCDE72046BDE8F041FFF70DBF00BF08B540F23050C2F2000000F031FF40F210
:205740001850C2F2000000F02BFFBDE8084040F22450C2F2000000F023BF00BF2DE9F041F4
:205760008B680D460646106B1446D3F800805F68FEF772FC686801F099F840F21850A96850
:20578000C2F2000000F03CFF40F230502946C2F2000000F035FF206BFEF708FC80B1002359
:2057A00084F8283084F829302046FFF7CDFE40463946324694F82830BDE8F04100F0B0BA88
:2057C00004F10800FEF75AF840F6E4602146C2F20000FEF741FC40F224502146C2F20000FD
:2057E00000F00EFFE3E700BF2DE9F04106460F469046E0B1006BFEF7D9FB044628B916E07F
:205800002046FEF753FC044698B10A21606801F083F805460A20FFF73BFE8542F0D1A368B5
:205820002BB1032F45D8DFE807F0361A0602BDE8F081BDE8F08196F8282000214244D2B2FA
:2058400086F8282086F829101B7A934238D93046FFF77AFE6068BDE8F04101F021B896F876
:2058600029204244D2B2052A86F8292096F8282081BF00210132D2B286F8282088BF86F866
:2058800029101B7A9342E2D8214632460120BDE8F041FFF763BF96F828300020984486F85D
:2058A000288086F8290021463246BDE8F041FFF755BF384621463246BDE8F041FFF74EBFA4
:2058C000214632460220BDE8F041FFF747BF00BF40F24463C2F200031888704730B4B0B10A
:2058E000037A022B15D00378022B1CD00379002423B9447A14F0030418BF0124C37913F005
:20590000030318BF012301B10C6002B1136030BC7047C479457A037944B1B5B1032C17D1B5
:20592000032D29D1FBB100231C46ECE70DB9012B08D0002BF7D1023DEDB2012D1AD9002459
:20594000E1E76BB101230024DDE74BB1032C15D0022C11D1002DF4D19BB12B462C46D2E75D
:205960000123002CE7D00123022CE4D0032CE6D1022DE4D10124C6E7022DE2D0002BF3D0AF
:20598000D1E72B46D7E700BF00220B4630B503F8012B01334A7003F8012B03F8012B03F8AB
:2059A000012B1A70437D0D46D9075CBF01232B70037E83B0012B044623D904F1100069468A
:2059C00001AAFFF78BFF009B0BB10223EB70019B0BB102236B70E37D03F00303022B03D014
:2059E000032B0CBF08230023AB70637E03F00303022B03D0032B0CBF082300232B7103B0D5
:205A000030BDC37D9A0709D0437E9B0706D0838BC28B9A4204BF01230375CED000232375B7
:205A2000CBE700BF02280CBF022008200B1803E013F8012DFF2A04D15A1A002AF8DC0120E6
:205A400070470020704700BF00B583B06946FFF79BFF9DF800009DF801309DF8022002308E
:205A600018449DF8033010449DF8042018449DF805301044184403B05DF804FBF0B583B040
:205A800007460D466946FFF77FFFBB7C797C387C03F00103FA7C1B0101F0010143EAC101F8
:205AA00000F007003B7D014302F0010241EA421203F0010342EA83132B70787D7A7EBB7D06
:205AC000F97D00F0010040EA821003F001033A7E40EA430301F0030143EA810102F00302E9
:205AE0009DF8003041EA0212012B6A7002BFBB7E0320AB709DF8013018BF0220022B34D074
:205B00009DF802C0BCF1000F12D000EB0C01C9B207EB0C03024600E02246541C13F8016CA4
:205B2000E4B28C42AE5403F1FF33F5D16044C0B29DF80330022B22D09DF804C0BCF1000F01
:205B400011D00CF1080100EB0C063944F6B2034600E013465A1C11F8014DD2B2B242EC5435
:205B6000F7D16044C0B203B0F0BDBA8B431C2A54BA8BDBB2120A0230EA54C0B2C0E7FA8BC9
:205B8000431C2A54FA8BDBB2120A0230EA54C0B2D2E700BF2DE9F0470129064686B00F4652
:205BA0001446D8BF002068DD3278737802F0070AC3F38100C3F30111C2F3C009C2F30018AD
:205BC000C2F3401C03F00105C2F38012C3F3400E9B098DF815308DF810208DF814108DF81F
:205BE0000CA08DF80D908DF80E808DF80FC08DF811508DF812E08DF8130003AB03CB1A885D
:205C0000206122836161002D3AD0B51C03A801A902AAFFF763FE9DF81380B8F1000F43D049
:205C2000029B002B33D06A7815F8023B03EB0223A383B8F1020F58D0B8F1030F40D09DF8F2
:205C40001580B8F1000F24D0019BEBB1697815F8023B029A03EB01239BB2E38372B3B8F171
:205C6000020F4FD0B8F1030F34D0AE1BBB1BA563E363B742ACBF3046002006B0BDE8F0877C
:205C8000B378F51CA376C1E7A38BE383E7E7A383CFE747F6A401C0F2000104F10800FFF741
:205CA00051FAA4F81E80E0E747F6A401C0F200012046FFF747FAA4F81C80C0E7A383CEE7AC
:205CC00008352A46002312F8011DE1540133082BF9D1B4E722460723E95C013B581C1172C1
:205CE00002F10102F8D10835BFE747F6A401C0F200012046FFF726FA6B78237015F8023B31
:205D000063709CE747F6A401C0F2000104F10800FFF718FA6B78237215F8023B6372A4E771
:205D200010B5044618B1084611461A46A04710BD08B547F25453C0F200031B6A984708BD57
:205D40000020704708B547F25453C0F200031B6A984708BD70B592B0FFF7DCFA0446FFF77E
:205D6000C1FA0546FFF7D6FA032820D047F62413C0F200039B689847002818DB1B20FFF7E5
:205D80009BFB41F6E001C2F20001FFF7DFF980B100F0C8FE064600283AD02846214602AAEC
:205DA000FFF7F8FE9DF81830012B0FD036B112B070BDFFF789FB0028EAD1F8E747F6B0030D
:205DC000C0F20003DB68984712B070BD9DF81B30002BEBD041F6E00102A8C2F20001FFF7CA
:205DE000B5F90028E2D09DF8220047F254530021C0F2000302228DF806008DF80510DB6822
:205E00008DF8042001A803219847002ECFD1D5E700F0B2FEC1E700BF2DE9F047884641F64A
:205E2000E00184B0C2F2000105461A20FFF738FB01210B20FFF724FB47F62413C0F200035F
:205E40005B68984700282EDBFFF75EFA47F25454C0F20004666890F80290FFF755FA074610
:205E6000FFF75EFA01463846B047FFF72DFBA6690746B04750B10122002428464146012346
:205E8000FFF74EFF204604B0BDE8F0876FB1A3680193FFF745FA019B984758B102280CBF1C
:205EA00001220422E8E70522E6E7E36998470028E1D1ECE717B102460124DEE7FCF760FAB7
:205EC0008246FCF791FB4FF65D77CFF6FF77CAEB0707FCF755FAF842FBD4B04798B1D4F80D
:205EE0001CA0FCF74DFA0746FCF77EFB4FF6BF76CFF6FF76F61BFCF743FAF042FBD4D047E6
:205F000050B90222B8E747F25456E769C0F20006B84770B1BA46E4E7236903A803219847A5
:205F20000328A8D19DF80E304B45A4D100220124A3E7736998470028E3D1EBE770B506463A
:205F40000D4612B90BE054B122465068146800F0C9FC30462946FFF75FFF0028F3D170BD90
:205F6000FFF75ABF08B547F25453C0F2000310B95B6A984708BD1B6A984708BD704700BFEF
:205F800008B547F61813C0F200039B68984708BD38B505460C4614200121FFF771FA47F602
:205FA000B003C0F20003284621469B68984738BD10B54FF4D673C1F200031B684FF40050B0
:205FC0005B68C4F20000984710F00C0F044608D042F60403C4F2000304221A600220FEF77D
:205FE000E1F9D4F1010038BF002010BD08B54FF4DC73C1F200031B6802205B6B98470128A5
:2060000001BF42F26003C4F20803186800F0010018BF002008BD00BF38B54FF4DC75C1F248
:2060200000052B6802205B6998472B6802205B6B98474FF4DC7301280446C1F20003F4D129
:206040001B684FF44070DB69984742F22803C6F2080342F228021C60C4F2080213689B07CE
:20606000FCD54FF4D673C1F200031B684FF400504FF4D8411B68C4F20000C0F2DC21012290
:20608000984738BD2DE9F84F41F24473C2F200031A784FF420535200C4F200031A60064615
:2060A00042F608020078C4F2000242F6040388461060C4F200031A6842F604045106C4F269
:2060C0000004F8D4032323600220FEF76BF92368DA07FCD4FFF76CFFB8F1010F034631D923
:2060E00068B3344614F8012F42F6080708F1FF3AA31B42F6040BC4F200075345C4F2000B3B
:206100004FF002054FF001093A6008D345451BD214F8012F0135A31B53453A60F6D2CBF817
:2061200000900220FEF73EF9DBF80030DB07FBD4FFF73EFF4545034604D20028E8D10020F0
:20614000BDE8F88F002BFAD042F60404C4F20004052323600220FEF725F92368DD07FCD405
:20616000FFF726FF42F60402C4F2000213685C06FCD4BDE8F88F00BF2DE9F04F41F2447733
:20618000C2F200073D784FF420546D00C4F200042560057842F6080485B08346C4F20004B3
:2061A00042F604000392029388462560C4F20000036842F604045A06C4F20004F8D40323B9
:2061C00023600220FEF7EEF82368DB07FCD4FFF7EFFEB8F1010F064637D990B35C4614F819
:2061E000010F42F6080308F1FF3ACBEB040642F60409C4F200035645C4F200094FF00205BC
:20620000186009D3454522D214F8010F0135CBEB040656451860F5D20122C9F8002002209A
:206220000193FEF7BFF8019BD9F80000C607FBD40193FFF7BDFE45450646019B05D200285F
:20624000E2D1002005B0BDE8F08F002EF9D039784FF42053490042F60406C4F2000341F0BF
:2062600001010B22C4F20006196002203260FEF799F8029B42F60808C4F200085F1E01253A
:206280004FF0000A4FF00909BA451AD2002DD8D0336842F60404D807C4F20004F8D4FFF76E
:2062A00087FE05460028EFD0D8F80030039A022002F80A30C4F80090FEF774F80AF1010A81
:2062C000E2E7002DBDD042F60404C4F20004052323600220FEF766F82368D907FCD4FFF7F0
:2062E00067FE0028ADD042F60803C4F200031A68DDF80CA0029B9A4442F604030AF8012CAC
:20630000C4F200031A685206FCD401209AE700BF41F2447310B5C2F2000304461970FFF78A
:2063200065FE38B340F24863C2F200031A78A2421FD042F604004FF482620021C4F20000DC
:20634000C4F205221C70016011601B78ABB1012B37D04FF4D673C1F200031B684FF4005088
:206360004FF4D8411B68C4F20000C0F2DC210122984710BDFFF750FED4E74FF4DA74C1F2C7
:206380000004236805209B694FF4C0419847236804209B694FF4C041984723684FF400502E
:2063A00005210422DB6CC4F20000984723684FF0FF309B6B984723684FF0FF309B6B9847F9
:2063C000C7E74FF4DA74C1F2000423684FF0FF309B694FF4C041984723684FF0FF309B69AA
:2063E0004FF4C041984723684FF0FF314FF400500A46DB6CC4F200009847236805209B6B0B
:206400009847236804209B6B9847A2E710B582B002AC04F8010D134620460A460121FFF7AA
:20642000ABFE02B010BD00BF30B440F6B075C2F200052870002332B1013311F8014BD8B2CC
:206440009042EC54F8D3511C40F6B070C9B2C2F2000030BCFFF716BE40F6D07008B5C2F2D0
:206460000000FDF7A3FD60B14FF40073C4F22233012141F214021960C4F2090213689B06F5
:20648000FCD508BD70B50446FDF784FF4FF4D075064640F6D070C2F200002146C1F2000563
:2064A000FDF786FDFFF7D8FF2B6860681B6898472B6860689B6898471128F9D106B170BDB7
:2064C000BDE87040FDF76ABF38B5044670B940F6D070C2F20000FDF769FD034630B12046D6
:2064E0005A681B681043002BFAD110BB41F20403C4F209031D684FF4C0744FF40071002077
:20650000C4F2223125F4C055C4F222344FF4D0721D60C1F200022060086013680120DB68BA
:20652000984741F21402C4F2090213689906FCD438BD41F20403C4F209031A6822F4C052ED
:2065400042F400621A6038BD38B50546FDF722FF044640F6D070C2F200002946FDF77CFD97
:206560000020FFF7B1FF04B138BDBDE83840FDF715BF00BF38B50546002403E0285DFCF750
:20658000B1F90134284600F091FE8442F6D30A20FCF7A8F9FCF7F6F90128FBD0204638BDB1
:2065A00010B5044662880021406800F035FE23886288A06802FB03F2BDE81040002100F061
:2065C0002BBE00BF30B44588BDB141680B7863B14A1C002303E01478114601322CB1013321
:2065E000AB42F8DB002030BC704701220A700588826803FB052030BC70472846F3E700BF37
:2066000070B4458882686DB18A420FD006880023324402E091420AD022460133AB4202EBAA
:206620000604F7DBFF22104670BC704700234168CA5C002AF7D0013ACA54426870BCD25CE4
:206640001046704783688B4208D84288008800FB023399422CBF002001207047002070477E
:2066600070B5064614460D46FDF79AFD47F60C1134612846C0F20001BDE87040FDF7BABDA1
:20668000FDF798BD00F086B808B503691B6803B1984708BD08B503695B6803B1984708BD3B
:2066A000FDF778BD47F63813C0F2000310B51B689847044618B10120A188FEF7E1FE2046B6
:2066C00010BD00BF38B547F63813C0F200035B6805469847A98804460120FEF7D1FE201C7B
:2066E00018BF012038BD00BF08B547F63813C0F200039B68984708BDF8B5064640F6D470DA
:20670000C2F200000D461746FDF750FC044648B1A368284603B198472046FDF7C7FC04461F
:206720000028F5D1304629463A46BDE8F840FFF7B1BF00BF38B5FFF7B5FF054640F6D470A8
:20674000C2F20000FDF732FC044640B1636803B198472046FDF7AAFC04460028F6D125B1BB
:206760002846BDE83840FFF78FBF38BD10B500F05FF8FEF70DFE00F039FAFFF791FFBDE8FB
:20678000104002204FF400714FF4F0524FF4E12300F0EABA10B50446FFF794FF68B1FEF7CD
:2067A000FFFC47F6FC03C0F2000346F2F960C0F2000021469B689847012010BD45F230010B
:2067C00041F20C3245F22803C4F20901C5F20002C4F20903086812781B6852B2A3F54073DF
:2067E00003FB02F340F31000A0EB231080300012704700BF2DE9F04106460F469046FDF7BB
:20680000C9FD4FF40045C4F20C052C684FF40043C4F20C03002CF8D0012246F807801A602E
:2068200008B1BDE8F081BDE8F041FDF7B7BD00BF08B540F23060C2F20000FFF7B1FEBDE80F
:20684000084040F22460C2F20000FFF7A9BE00BF40F2246038B5C2F20000FFF7B3FE054621
:20686000A0B140F23060C2F20000FFF7ABFE0446286060B1FEF7BCFC04F1B601A4F880005A
:2068800004F18200FEF7BAFD284638BD38BD40F224602946C2F20000FFF7B2FE204638BDA3
:2068A000016801F18200B631FEF7A8BD10B5044640F224602146C2F20000FFF7C3FE00B96A
:2068C00010BD40F230602168C2F20000FFF798FE40F224602146C2F20000BDE81040FFF7A4
:2068E0008FBE00BF10B5044640F224602146C2F20000FFF7A7FE00B910BD2468B4F88010C3
:206900002046FEF757FD04F1820004F1B601BDE81040FEF795BD00BF036803EB4101B1F866
