:020000040000FA
:2000000000500020ED000000E5000000C9000000E9000000E9000000E9000000000000001A
:20002000000000000000000000000000E9000000E900000000000000E9000000E90000001C
:20004000512C0000E9000000B1320000E9000000812300006D280000E9000000E900000063
:20006000E9000000DD320000E9000000E9000000E9000000E9000000E9000000E900000012
:20008000E9000000E9000000E9000000E9000000E9000000E9000000E9000000E900000018
:2000A000E9000000E9000000E9000000E9000000E9000000E9000000E9000000E9000000F8
:2000C000E9000000793500004EF62853CEF200031A68B2F5806F03D01B689B0500D4FEE740
:2000E000704700BFFEE700BFFEE700BF10B504F0FDF940F2000140F21823C2F20001C2F28A
:20010000000399420ED2CC431C4424F0030447F21C300434C0F200000023C258CA5004339A
:20012000A342FAD1064807494FF000028842B8BF40F8042BFADB00F027FEFFF7C5FF10BD17
:2001400018020020D3140020704700BF30B5038883B0044683B140F22125AB4207D18829D9
:2001600012D040F221230120238003B030BD00230380032003B030BD40F24C30C2F20000F8
:20018000802103F0E7FBECE740F24C33C2F200039A42E6D10120019200F050FF019A8021EC
:2001A000104603F0D7FBDCE708B51B2005F038F9BDE8084047F27021C0F2000104F07ABFAC
:2001C0002DE9F0431E46013B01F11204012B83B00D4607469046E4B258D840F2BC20C2F2D1
:2001E00000002146012200F043FD20B9002040B203B0BDE8F08340F2F029C2F2000940F255
:20020000BC20CDF80090C2F2000021460122082300F0E6FC0028E9D040F2BC20CDF800803E
:200220003A462B46C2F20000214600F0D9FC0028DCD040F2BC202146C2F2000000F0F8FC0C
:200240000028D3D0012E23D041F29043C2F200031A88B9F806309A4208BF0120C7D040F2DE
:20026000BC20C2F2000000F0B7FC014640F2BC20C2F2000005F052F840F2402009F1060170
:20028000C2F2000003F070FF0120B0E7FF20AEE740F2BC20C2F2000000F09EFC014640F217
:2002A000BC20C2F2000005F039F840F29C20C2F2000003F0DFFE304699E700BF30B5044632
:2002C00040F2F82083B00D46C2F200001321012200F0CEFC10B9002003B030BD41F2844306
:2002E000C2F2000340F2F8200093C2F2000013210122082300F074FC0028ECD040F2F820A6
:2003000000952246C2F200001321012300F068FC0028E0D040F2F820C2F20000132100F086
:2003200087FC0028D7D040F2F820C2F20000132100F02CFC0120CFE708B501468F20FFF7A1
:20034000BDFF022000F06EFE42F2A003C4F202034FF480521A6008BD2DE9F84F04F08EFF9F
:2003600041F25035C2F20005288004F06FFF41F2803441F28046C2F20004C2F2000640F27E
:20038000B427298822463346C2F20007386000F081FC012801D0BDE8F88F30780A2141F204
:2003A0005939C2F20009884289F800102BD941F2703AC2F2000AA27A9AF800E041F25D389E
:2003C000C2F2000841F25B3BE37A7245C2F2000B88F800208BF800301CBF98F8002004F1F2
:2003E000010C05D12BE0625C11F80C30724520D019440231C9B28842F5D888F800208BF8A0
:20040000003089F8001040F22C30C2F2000003F09DF92978386800F0B9FB41F28030C2F2D4
:2004200000000021327806F053FC00233370BDE8F88F88F800E08BF8003089F800100023F3
:2004400002208AF8003000F0EDFD42F2A003C4F202034FF4805240F22C301A60C2F200008B
:2004600003F094F9D5E700BF10B541F20044C2F2000460782378082808BF012B14BF002004
:20048000012009D141F28440C2F20000A11C082206F074FB08B9012010BDA11C032005F0E6
:2004A00075FA003018BF012010BD00BF30B583B000F06EFF0446E8B16A460821002000F0D8
:2004C000A5FF044600F09AFF20468CB141F20203019ACCF613439A4203BF41F27433C2F2EB
:2004E00000039DE80300022004BF83E80300012003B030BD00F082FF204603B030BD00BF27
:2005000010B500F045FF0446C8B10020082101F003F800B910BD41F27433C2F2000341F2A0
:200520000204CCF613441A46002008215C6000F099FF0028EED000F061FF0120EAE700F097
:200540005DFF204610BD00BF30B541F2743483B0C2F20004002302AD05F8013D2070FFF70F
:20056000CFFF46F61073C0F20003DB6A21780120984729468620FFF7A1FE022000F052FD50
:2005800042F2A003C4F202034FF480521A6003B030BD00BF00B541F27433C2F2000383B062
:2005A0001B7802A901F8013D8C20FFF787FE022000F038FD42F2A003C4F202034FF48052B1
:2005C0001A6003B05DF804FB00B583B0002302A901F8013D8820FFF771FE022000F022FD6F
:2005E00042F2A003C4F202034FF480521A6003B05DF804FB10B541F274340123C2F2000457
:200600002370FFF753FF02280FD041F28440C2F20000082101F062FF46F61073C0F200035C
:200620002178DB6A0120984710BDFFF769FFECE72DE9F04F832985B00446164600F0818011
:200640002388A3B140F23F2293420AD141F2D043C2F200031B788B4230D0012005B0BDE880
:20066000F08F00230320238005B0BDE8F08F40F2402046F6C452C2F20000C0F2000292213A
:2006800003F05CFD40F29C2046F6F052C2F20000C0F20002812103F0D7FCFFF7ABFF40F6FC
:2006A0003D30C0F2000002F099F800F07FFA40F23F230120238005B0BDE8F08F002ECCD034
:2006C00042F29003B6F88080C4F202034FF4805241F2004541F27C371A600220C2F2000522
:2006E000C2F2000700F094FC304641462A463B4600F0D0FA0128064632D13F78002FD6D013
:200700006A782B78082A08BF012B14BF4FF0000E4FF0010E34D041F27D3540F27C2040F2D8
:20072000393240F21123C2F20005C2F20000C0F20002C2F20003802185F800E002F0FAFF27
:20074000B5E740F24020C2F20000019103F00AFD40F29C20C2F2000003F08AFC01996FE720
:2007600040F27C2040F2393240F20E23C2F20000C0F20002C2F20003802102F0DBFF96E7A2
:2007800005F102094946032005F000F9002800F0EC8041F25832C2F20002029216700A237A
:2007A00040F2F028D9F80000D9F8041041F27D3C41F25A36C2F20008C2F2000C0122C2F237
:2007C00000069F42A8E803008CF8002033707FF66EAF41F25E3A41F25C3840F2B829DFF84A
:2007E000F8B10394C2F2000AC2F20008C2F200096446E85C1BF803108AF8000088F800105C
:20080000002900F0AD8041F2004C0233C2F2000C6344C9F80030A2B1A0F180030D2B00F2F5
:200820008D80DFE803F0728B8B8B725B495B3E195B5B075BDDF808C09CF80030022B00F080
:200840009F80337802331944C9B28F42317040F28A800B462278CCE7DDF808C09CF8003014
:20086000012BEED1D9F800208920FFF7A9FC40F22C3040F2393240F21523C2F20000C0F25D
:200880000002C2F200034FF4207102F053FF41F270339AF80020C2F200031A7098F800101E
:2008A000CFE7DDF808C09CF80030012BC9D1FFF78BFE98F80010C4E7DDF808C09CF8003030
:2008C000022BBED1FFF7D0FD002861D0D9F800301878FFF739FE98F80010B2E7DDF808C0AC
:2008E0009CF80030022BACD1D9F80020FFF768FC40F22C3040F2393240F20F23C2F20000FC
:20090000C0F20002C2F20003BDE7DDF808C09CF800305A1ED2B2012A93D8D9F80020FFF7EE
:200920004FFC40F22C3040F2393240F21023C2F20000C0F20002C2F20003A4E740F27C2064
:2009400040F2393240F214238021C2F20000C0F20002C2F2000302F0EDFE98F8001070E7FD
:20096000C9F8001057E7039CA1E641F25833C2F200030293DDF808C002238CF800300EE7CD
:20098000FFF772FDB0B1FFF705FE98F8001058E740F25C2040F2393240F212238021C2F2B2
:2009A0000000C0F20002C2F2000302F0C3FE98F8001046E740F25C2040F2393240F2132399
:2009C0008021C2F20000C0F20002C2F2000302F0B1FE98F8001034E7011400202DE9F04779
:2009E000048807466C2C1BD0862C06D0002C49D0002303800320BDE8F08785294FD140F2E9
:200A0000603440F25C3640F26435C2F20004C2F20006C2F20005002323603360A5F8803002
:200A200040F2603640F2704540F25C38C2F20006C2F20005C2F200084FF0000A4FF0010980
:200A40000BE033687E2BE854D9BF01332360C4F800A0C8F800907D2824D040F26840C2F209
:200A6000000003F0C5FA40F2603440F27041431CC2F20004C2F20001E3D16C233B80012030
:200A8000BDE8F08703F04AF841F2D04240F26033C2F20002C2F2000310701C60C0E70120CA
:200AA000BDE8F08740F25C36C2F2000633685BBBD4F8008040F26435C2F2000540F2704138
:200AC00028464246C2F2000106F08CF8A5F8808041F2D043C2F2000340F264321978C2F24A
:200AE0000002002003F0AAF840F29073C2F2000318688521002203F0A1F800288BD1862352
:200B00003B800120BDE8F087D4F8008040F26435C2F20005C8F1800941444A46284606F052
:200B200061F840F2704105EB09004246C2F2000106F058F88023A5F88030C9E710B541F265
:200B40005F34C2F20004237801464BB17D2812D040F22000C2F2000003F0C4F8012010BD42
:200B600040F26840C2F2000003F02AFA0028EFD101232370ECE740F26840C2F2000003F0DD
:200B80001FFA0028E4D000232370E1E770B50E4658B149B14D1EEDB20544441E14F8010F95
:200BA00001F008FEAC42F9D1304670BD08B540F2684040F2E831C2F20000C2F200018022F6
:200BC00003F0F6F9BDE8084040F22000C2F20000002103F065B800BF40780230C0B270473D
:200BE000F0B545780446281D1844884283B002DC2178402902D0002003B0F0BD691C665C32
:200C000060187D2EF7D1DF1C3D4466556254089A437032B1114602301A46019305F0E2FF71
:200C2000019B62780233134463700120E4E700BFF8B543780446DD1C8D4202DA0278402AFA
:200C400001D00020F8BD5E1C825D87197D2AF8D19A1C194600F8012F002203F009F9A15D33
:200C60000346020A6155A3557A700120F8BD00BF042910B481BF022140247D23827083BF66
:200C800004704170C370002088BF01205DF8044B704700BF2DE9F84F0F46064690469946A7
:200CA000002400F1010B00F1030A21B914E00134A4B2A74210D9355D402DF8D133195D7801
:200CC00002352C44BC421EDC741914F8013C7D2B05D00124A742EED8FF20BDE8F88F0022E1
:200CE0005846291F03F0C4F814F8022C14F8033C03EB02239842ECD1B378012B09D0AF420F
:200D000004D02C46D5E70020BDE8F88F0120BDE8F88FAC1F22464046514605F063FF89F810
:200D20000040ECE7F0B5002783B005463E463C46284600F06DF90194019B9E4206DD00BFD9
:200D4000019B01330193019B9E42F8DC284600F069F90194019BC6F5C876B34206DA00BF61
:200D6000019B01330193019BB342F8DB0137B7F5487F06D0B7F5C87FCCBFC7F548763E46AE
:200D8000D6E703B0F0BD00BFF0B54FF4EC74C1F2000423684FF4804083B05B68C4F203003B
:200DA00001219847236801214FF480400A461B68C4F20300984703F0A5FA01F063FF01F041
:200DC000F1FE00F0C7F901F02FFF00F017F944F20C010822C4F20902C4F20901012542F20D
:200DE0002C030D6028461560C4F209031B68FFF799FF03F08BFA01F031FA01F095F902F09C
:200E000081FF01F033FB02F091FE41F2342002F0A7FA01F0B9FC03F015F840F2CC000021D3
:200E2000C2F2000002F03CFF02F048FC02F0C6FC0220FFF777FF04F047F96846082101F05D
:200E40004DFB46F610749DF80720BDF806109DF8067041F29043C2F20003C0F200041980EC
:200E600042EA0727E66A4AF6CD310220B04739460320B04705212846B047636B08226946A6
:200E80000B2098470220FFF74DFF40F230000021C2F2000002F004FF46F6F850C0F2000082
:200EA00002F0AEFB01F0F2FA0220FFF73BFF02F05BFE044601F004FB14F0FF0FF7D101F018
:200EC0000FFDF4E72DE9F04105888046772D42D07E2D36D025B1002303800320BDE8F08175
:200EE00002F01CFE40F24006C2F2000641F2D14340F2F0443268C2F20003C2F20004187076
:200F00002560002A62D02B4641F28C451F46C2F20005EF54936880200021984723680133C0
:200F200056F823202360002AF3D1DBB241F26031C2F200010B707723A8F800300120BDE8FE
:200F4000F08141F2D143C2F200031B788B4223D00120BDE8F08141F26037C2F2000740F2E1
:200F6000F04440F2F4463A78C2F20004C2F2000600239342336023600ADA41F28C45C2F203
:200F80000005E956002923DB013393422360F4DB3368002BECD1CEE740F2F04441F28C45E9
:200FA00041F2603740F2F446C2F20004C2F20005C2F20007C2F2000623683268E85C511C3F
:200FC00000F07F003A78E8543160DDE71346ADE741F2D14140F24002C2F20001C2F200024E
:200FE000097852F82320002002F028FE0028E3D17E23A8F800300120BDE8F08108B500F07A
:20100000F3FB41F26133C2F2000300221A7008BD41F26133C2F200031A78024310461A70BE
:2010200000F0FEBB41F26133C2F200031A7822EA000210461A7000F0F3BB00BF41F26133E5
:20104000C2F200031A78424010461A7000F0E8BB704700BF08B1002070474FF40353C4F2FD
:2010600002031B68012070478138012808B501D9002008BD4FF4DA73C1F200031B684FF0AA
:20108000FF305B689847C0F3804008BD802838B50DD0812809D161BB4FF4DA73C1F20003F0
:2010A0001B684FF0FF305B6B9847012038BD42F2E0030025C4F202034FF4DA741D60C1F2CC
:2010C000000423684FF0FF309B6B984723684FF480421B682946C2F207024FF0FF309847A2
:2010E00041F25101C0F20001FF2001F085FD012038BD42F2E0030025C4F202034FF4DA7488
:20110000C1F200041D6023684FF0FF309B6B984723684FF480422946C2F207021B684FF03F
:20112000FF30984723684FF0FF301B6B9847012038BD00BF10B54FF4DC74C1F200042368D4
:2011400004205B699847236804205B6B98470128F9D110BDF0B595B003F0D4F80746FFF7C8
:20116000E9FF4FF4DC73C1F200031B684FF4A060DB69984742F22803C6F20803012142F2DE
:2011800028021960C4F2080213689907FCD500F011FA40F24800C2F2000001F0F3FC46F6BB
:2011A000346150226846C0F2000105F01BFD009C621C1EBF4FF4DA756E46C1F200050DD0E8
:2011C0002B6820469B6B98472B6820469B694FF40051984756F8044F631CF1D14FF4DA744E
:2011E000C1F2000423680C20DB6B984723680C209B694FF4005198470FB115B0F0BD15B037
:20120000BDE8F04003F082B810B542F2A00382B0062202A8C4F202034FF4801400F8042D71
:2012200001211C6000F0E6F942F29003C4F202031C6002B010BD00BF30B546F68463C0F24B
:201240000003186842F2A00383B00024C4F202034FF4801501908DF800408DF8014001A885
:201260001D60042100F0C6F938B942F29003C4F202031D60FF2003B030BD6846022100F0AD
:20128000D9F942F29003C4F202031D6010B9FF2003B030BD9DF80030C22B18BFEF2B18BF7B
:2012A0002046E8D19DF80130A3F11400113BC0B2DBB2012888BF012B94BF0020012080F0B6
:2012C0000100D8E730B542F2A00383B0C4F20203052202AC4FF4801504F8042D1D6000F05D
:2012E000CFF92046012100F085F920B913E09DF80730DB0716D50DF10700012100F09AF921
:201300000028F4D142F29003C4F202034FF480121A6003B030BD42F29003C4F202031D6070
:2013200003B030BD42F29003C4F202034FF4801201201A6003B030BD10B582B0FFF7C2FFCD
:2013400008B902B010BD42F2A003C4F202034FF48014B92202A800F8012D01211C6000F0AB
:2013600049F942F29003C4F202031C600A24FFF763FF631E0028E4D013F0FF04F7D142F248
:201380009003C4F202034FF480121A6002B010BD10B54FF4106082B00A21C0F23D0000F07D
:2013A00083F94FF4DA73C1F200031B681420DB6B984742F2900142F2A003C4F202014FF4F7
:2013C0008012AB2402A8C4F202030A6000F8014D01211A6000F00EF908B1FFF773FF42F2AF
:2013E0009003C4F202034FF480121A60FFF724FF421E5042504102B010BD00BF08B5FFF7C3
:201400009BFFBDE8084000F0B5B900BFF0B583B004460E461746FFF755FF08B903B0F0BDEA
:2014200042F2A0030320210CC4F20203220A4FF480158DF804008DF805108DF807408DF852
:20144000062001A81D60042100F0D4F818B13846314600F0EFF842F29003C4F202031D60CB
:2014600003B0F0BD2DE9F04F0D4683B00446164600294BD042F2A00842F29009C4F20208DE
:20148000C4F202094FF0020A4FF480172AE0FFF7BBFEE3B2C3F580734FEA144C220A042183
:2014A000AB4234BF9B46AB4600B38DF806208DF807408DF804A08DF805C00DEB0100C8F824
:2014C000007000F097F80246594630465C44CBEB050582B100F08EF8024660B1C9F800702D
:2014E0005E449DB1FFF7EEFE0028D0D10022104603B0BDE8F08F42F29003C4F202034FF43D
:2015000080111046196003B0BDE8F08F0122104603B0BDE8F08F00BF2DE9F04701F6FE71D2
:20152000040B01EB000A2403C4EB0A0A82B020235FEA1A3A8DF804302FD0002542F2A007F2
:2015400042F29008A946C4F20207C4F202084FF4801619E0FFF758FE220C230A042104F5BA
:201560008054B0B18DF806308DF805208DF807900DEB01003E6000F03DF84FF4801380B1F2
:201580005545C8F8006008D00135FFF79BFE0028E0D1002002B0BDE8F087012002B0BDE8B5
:2015A000F08742F29002C4F20202136002B0BDE8F08700BF08B5FFF7EBFEFFF7BDFEBDE842
:2015C000084000F0D7B800BF08B54FF4DC73C1F200031B6802205B6B9847012801BF42F219
:2015E0007803C4F20803186800F0010018BF002008BD00BFF0B583B006460C46FFF7E4FF74
:20160000074698B194B14FF4E275C1F200052B684FF080405B6816F8011B98472B684FF06D
:201620008040DB6801A99847013CF0D1384603B0F0BD00BFF0B583B006460C46FFF7C4FF54
:201640000746D0B1CCB14FF4E275C1F2000507E02B68DB689847019B013C06F8013B0CD062
:201660002B6800219B684FF080409847034601A94FF08040002BEBD11F46384603B0F0BDB9
:2016800010B582B0FFF7A0FF58B14FF4E274C1F2000423684FF080401B6901A998470028A6
:2016A000F7D102B010BD00BFF0B54FF4DC77C1F200073B68064685B05B6902200D469847F3
:2016C0003B6802205B6B98474FF4DC7301280446C1F20003F4D11B684FF48070DB69984747
:2016E00042F22803C6F2080342F228021C60C4F2080213689B07FCD51423C4F200031868D0
:20170000202220F00F00C4F2000203214FF4E274186008271160C1F2000423688DE8C00064
:2017200000224FF4D8411E68C0F2DC2113464FF08040B0474FF4DA73C1F200031B68009549
:201740005D6C09224FF0FF3339464FF08040A8470423C4F200031A6842F002021A6023681A
:201760004FF080401B6903A998470028F7D105B0F0BD00BF10B54FF4DC73C1F200031B68BA
:201780004FF480701B6A984742F22803C6F20803012142F228021960C4F2080213689907BC
:2017A000FCD54FF4DA74C1F20004236808209B6B984723684FF4005108209B6998472368C3
:2017C00009209B6B984723684FF4005109209B69984723680A209B6B984723680A209B697D
:2017E0004FF40051984710BD10B540F2F843C2F200031A6892B901204FF4DA741860C1F216
:2018000000042368DB6B984723680720DB6B984742F2A003C4F2020382221A6010BD00BF01
:2018200041F2623342F2A002C2F20003C4F20202822118701160C20741BF42F29003C4F2B7
:20184000020302221A60830741BF42F29003C4F2020380221A607047012070470120704756
:2018600008B501F0B9FA48B140F21013C2F200035888022814BF0220012008BD022008BD36
:2018800010B582B001F008FD044601F0A5FA08B902B010BD0120C0F2014001A901F0A4FAF4
:2018A0000128F5D1638803F44063002BF0D1638803F44063002BF5D0EAE700BF30B583B0AB
:2018C00001F08AFA40F21014C2F20004A8B900256580A37F40F210105BB2C3F5FF63073345
:2018E0009BB2C2F2000001A9238301F07DFA012818BF284608D003B030BD6388022B08BF6A
:201900000120E4D103B030BD00F0A6FC4FF6C075CFF6FF752D1A03E000F09EFCC54203D579
:2019200063889BB2022BF7D1608880B2831E58425841E0E708B5B32994BF0A46B42201466C
:20194000024805F04FF9002008BD00BF1605002070B540F20855C2F200052C68002603E017
:2019600024682B68A3420DD02379032BF8D140F28800C2F2000002F0B5F924682B6801368F
:20198000A342F1D1304670BDF8B540F21054C2F2000425682B79032B18BF002601D030465F
:2019A000F8BD2E89023E002E0CDD8E4205F10A070EDDB957042089B203F016FD03207F216A
:2019C00003F012FD2B68002223602A713046F8BD3946324605F006F9EBE700BF10B582B094
:2019E00001F0FAF9F8B140F21014C2F2000463880120022B15D101A9C0F2014001F0F4F9B2
:201A000002E06388022B03D101F0E6F90028F8D16088A0F55050043880B201288CBF002018
:201A2000012002B010BD012002B010BD10B540F27003C2F2000340F25814C2F200041B686C
:201A4000052284F8242082B09B88204601A9638301F0CAF9012818BF002001D002B010BD30
:201A6000204601F017FA421E5042504102B010BD00B540F2401083B0C2F2000001A901F043
:201A8000B3F9012818BF002002D003B05DF804FB40F24010C2F2000001F0FCF9411E48429C
:201AA000484103B05DF804FB08B5FFF7BFFF012801D0002008BDFFF7DBFF0128F9D1FFF78D
:201AC000FDFEC0B208BD00BF08B501F03DFC012815D0FFF783FF01F0D1FA01F033F940F29D
:201AE000101040F2CC5140F258630022C2F20000C2F20001C2F2000342800A711A7101205F
:201B000008BD00BF2DE9F84F01F01EFC01281AD001F0E6F801F060F970B901F05DF90446F3
:201B200000285ED101F0D0F9012805460ED001F0A5FA0020BDE8F88F40F21013C2F200035A
:201B40005B88022BE9D10120BDE8F88F40F21C4046F64871C0F200014FF42372C2F200109C
:201B60004FF4647805F03EF8C2F2001840F2793C40F2753E40F2773740F2AE3640F2AB3080
:201B800040F281314FF4707340F2BD5288F80040C2F2001CC2F2001EC2F20010C2F200110F
:201BA000C2F20013C2F200124FF0020BC2F200174FF0030AC2F200164FF004094FF00508D3
:201BC00006248CF800508EF800B087F800A086F8009080F800800C701A6001F0D9F90128CA
:201BE000A5D1002001F0F6FA01F092F8FFF71EFF012802D00020BDE8F88FFFF739FF012842
:201C0000F8D1BDE8F84FFFF759BE00BF30B583B007286ED8DFE800F04D046D6D266D5429C4
:201C200020294AD840F24013C2F20003188ADC894FF47A7202FB04F402FB00F2A4F55F24C7
:201C400002F57F42A4F66C64FF3248F21F5004EB1242C5F2EB10A0FB0240CAB2C0F38710F0
:201C6000824251D1002003B030BD40F21623C2F20003197001F0B0F800283CD040F21013F1
:201C8000C2F200035B88022B08BF002533D1FFF7A5FE012814BF03240024FFF705FF01288A
:201CA00018BF03242046002DDDD0FFF70DFF2046D9E701294FD0002947D0022003B030BD73
:201CC00001F10A03182BF8D846F688640191C0F20004FFF7D5FD019923460F22986F083B3C
:201CE00081423DDD12F1FF32F8D2FFF7DDFE0020B9E70120B7E7FFF705FF012808BF054684
:201D0000C5D0032003B030BDC82000FB01F044F6D35200F55F20C1F2620200F66C60A2FB4E
:201D200000414FF618448909CFF6FF7404FB01000004A2FB004040F2581289B28009C2F202
:201D400000021882D981118494E70191FFF7BCFE0199084687E7FFF7D5FE0128D1D181E7E9
:201D600040F2700304EBC202C2F200031A60BCE770B50C4682B069B1102800F28380DFE880
:201D800000F0101E818181816F783E8181818163666A0C00022002B070BD0E2323600020E4
:201DA000F9E701F019F838B140F21013C2F200035888851E6842684120600020EBE740F2D2
:201DC0004013C2F200031A8AD9894FF47A7303FB01F103FB02F3A1F55F2103F57F43A1F679
:201DE0006C61FF3348F21F5201EB1343C5F2EB12A2FB0312C2F3871222600020CBE700F0FF
:201E0000EBFF002840D040F21013C2F200035B88022B08BF002637D1002240F2034301A84C
:201E200069460192ADF8043000F0DEFF01280CBF9DF902506FF07F0566BB256015F1800FC0
:201E40000CBF03200020A6E700202060A3E72023236000209FE76FF00903236000209AE7C2
:201E600040F27003C2F200031B6800201B68236091E740F21623C2F2000393F900300020E7
:201E8000236088E7012086E7FFF73CFE012804D10646C1E7FFF718FECFE76FF07F0323607A
:201EA000032078E770B582B0044600F095FF80B340F21013C2F200035B88022B08BF00263F
:201EC00027D1221DA01C40F2145340F28014C2F2000392B2C2F2000480B2110A2082E361CA
:201EE00059701A70FFF77AFD0020014601F0B2F9204601A900F078FF0125C0B9002001F0F8
:201F0000BFF900236380FFF7D9FC284656B902B070BDFFF7F7FD012808BF0646D1D00120F4
:201F200002B070BDFFF7D0FD284602B070BD00F0C7FA638803F4406333B900F0C7FC6388F2
:201F400003F44063002BF8D06588ADB2B5F5505518BF0125D2E700BF10B5B32994BF0A46A0
:201F6000B4220C460146044804F03CFE2046BDE81040FFF797BF00BF1605002030B583B0BF
:201F800001F0E2F9012825D000F026FF20B340F28013C2F200035B88022B18BF002528D0EF
:201FA000802403E09DF80640630607D10120C0F2034001A900F018FF0128F3D0B5B940F22B
:201FC0001623C2F2000393F9000064B2A042D4BF0020012003B030BDFFF794FD012808BFA2
:201FE0000546DDD0FFF770FD0120F3E7FFF76CFDE5E70120EEE700BF08B500F0EDFE70B1F2
:2020000040F21013C2F200035B88022B06D1FFF7B5FF10F1FF3018BF012008BD002008BD51
:2020200040F25C002DE9F84FC2F2000000F0AAFD02F0D2F8012803D000242046BDE8F88FFC
:2020400040F2CC54C2F2000440F2586501F098F8C2F20005204600218C224FF0000A04F0DB
:2020600037FE022700218C22D146284604F030FE67F3830A67F383094FF0840840F2105E54
:2020800040F2085340F2101040F2FC4140F2581640F24012C2F20003C2F2000040F2963C5F
:2020A000C2F20002C2F2000EC2F2000125602C6084F805A0A4F806800027C2F2000641F687
:2020C000991B85F80590A5F80680CEF8004083E890008362C162A6F820C0A2F80EC0A2F88E
:2020E00010B0FFF70FFD01280446A5D146F60870C0F2000001F0D6F840F288003946C2F223
:20210000000001F0CDFD98E710B54FF4DC74C1F20004236804205B699847236804205B6BAF
:2021200098470128F9D110BDF8B540F21821C2F2000100220023C1E900234FF4DC73C1F2DC
:2021400000031B6804205B6B9847012801D0FFF7DBFF4FF4DC73C1F200031B680020DB6937
:20216000984742F22803C6F20803012142F228021960C4F2080213689B07FCD50C23C4F2D2
:20218000010319684FF4E47221F4807121F001011960C1F2000213680024C4F201044FF43D
:2021A00004511B682046C0F20041984704233C2108221F46C4F201013126C4F2010240F202
:2021C0002125C4F22433012027600E6015601860F8BD00BF10B442F2080342F20C04C4F238
:2021E0000903C4F209041968226818688142FAD1C90140F2182001EB5262C2F2000000234C
:20220000C0E900235DF8044B03C8704710B542F2080342F20C04C4F20903C4F2090419687E
:20222000226818688142FAD1C90140F2182001EB52620023C2F20000C0E9002301F09EFB05
:2022400000B910BDBDE8104001F07EBB704700BF0146012000F058B801F0AABF2DE9F0415A
:2022600002F050F8002642F204034FF48032C4F2090301240027C4F224364FF480714FF439
:20228000C2753760C1F200051C6019601A602B6880461B683846232198472B6820461B6850
:2022A000242198472B6802201B68252198474FF40053C4F20903196842F2080241F4E02150
:2022C000C4F209021960176001F072FF42F21C024FF4287300F50070C4F22433C4F2090288
:2022E0004FF4D8711060C1F200011C6034600B6814201B699847B8F1000F01D0BDE8F08175
:20230000BDE8F04102F002B8431E042818BF012B10B42CD810F001021EBF42F21803C4F2FE
:202320000903196010F002031EBF42F21C04C4F20904216010F004001EBF42F22004C4F2AF
:20234000090421602AB14FF42072C4F22432012111602BB14FF42873C4F2243301221A603C
:2023600028B14FF43073C4F2243301221A605DF8044B704740F2E463C2F200031868704732
:2023800008B5FFF769FF40F2E463C2F200031860FFF73CFFA023C4F224331B68BBB98023DF
:2023A000C4F224331B6863BBC023C4F224331B6863B14FF4307242F20403C4F2243200209C
:2023C000C4F209034FF480311060196008BD42F20403C4F209034FF480721A6001F0E8FE16
:2023E00000F2052020F4FF7242F21C03C4F2090322F001021A608023C4F224331B68002B3F
:20240000D2D04FF4207242F20403C4F224320020C4F2090301211060196001F075FCC3E705
:20242000820741BF4FF44063C4F2080301221A60C30700D4704701F069BF00BF08B501F0F4
:2024400061FF4FF44063C4F208031A68012A03BF4EF25152C1F6CC221A60002308BF0223F5
:20246000002814BF184643F0010008BD00224FF6FF714FF44063C4F20802C0F20F01C4F215
:202480000803012011601860704700BF38B5FFF7D5FF00244FF6FF750C214FF48273C4F202
:2024A0000804C0F20F050122C4F20033C4F2080125600A601A60BDE83840FFF7B1BF00BFD4
:2024C00000224FF6FF710C23C4F20802C0F20F01C4F20803012011601860704710B44FF6E9
:2024E000C7734FF6CF74C0F20103C0F2010413F8012FFF2A12D1A342F9D141F2F022C5F2BB
:20250000000241B10A44002312F8014C013AC45401338B42F8DB5DF8044B70474FF6C872FE
:20252000C0F20102EDE700BF38B54FF4DC75C1F200052B6802205B6998472B6802205B6B47
:2025400098474FF4DC7301280446C1F20003F4D11B684FF40070DB69984742F22803C6F2AC
:20256000080342F228021C60C4F2080213689B07FCD538BD2DE9F0434FF4E87683B0C1F203
:202580000006FFF7D1FF33684FF480504FF4D878DB68C4F20000C1F200089847D8F800309B
:2025A00041F238045B691520C4F200049847236841F2440523F4FE6323F00203C4F20005C8
:2025C00040F2F2794FF4DA772360C1F20007C5F800903B680320DB6B984742F29003C4F2D8
:2025E000020308221A603A684FF0FF3300934FF48050176CC4F2000002210322B84733685E
:202600004FF480504FF4D8415E68C4F20000C0F2DC214FF4E1226023B04741F23403C4F240
:202620000003142141F22C021960C4F20002116840F2E86341F010011160C2F200031968EF
:2026400040F2013640F2011041F23002002914BF31460146C4F200021160C5F800901B68B6
:2026600043B12368152043F050032360D8F800301B69984703B0BDE8F08300BF08B54FF4B0
:20268000DC73C1F200031B6802205B6B9847012801BF42F26C03C4F20803186800F001002D
:2026A00018BF002008BD00BF38B50446FFF7E6FF30B141F21802C4F2000213681807FCD43D
:2026C000032C06D040F2E863C2F200031B6803B138BDFFF7D3FF38BB4FF4DC75C1F200058E
:2026E0002B684FF400701B6A9847032C41D042F22803C6F20803012142F228021960C4F21F
:20270000080213689907FCD5032000F05DFA022000F05AFA4FF0FF3000F056FABDE8384028
:202720004FF0FF3000F050BA4FF4E873C1F200031B684FF48050DB68C4F2000098474FF42C
:20274000D873C1F200031B6815205B69984741F23803C4F20003186841F2440220F4FE608B
:2027600020F00200C4F2000240F2F27118601160B2E72B684FF400709B6A98472B684FF478
:2027800000701B6B9847B2E710B501F0BBFD044640F27400C2F2000000F0F4F940F2E8635F
:2027A000C2F2000300221A6004B110BDBDE8104001F0ACBD10B50446FFF760FF08B9FFF7DA
:2027C000D9FE4FF4E873C1F200031B684FF480502146DB69C4F20000984710BD40F2E863AE
:2027E000C2F2000310B5186040F27403C2F2000300B302224FF4DC741A61C1F2000423685E
:202800004FF400705B6A984723684FF40070DB6A984742F22803C6F20803012142F228025D
:202820001960C4F2080213689C07FCD5BDE81040FFF7A0BE4FF4DC741861C1F200042368D9
:202840004FF400709B6A984723684FF400701B6B9847DEE708B5FFF711FF30B141F2180387
:20286000C4F200031868C0F3C00008BD70B5FFF75BFE4FF48253C4F200031A6841F24403A6
:20288000C4F2000340F2F27112F0500F196018D041F218054FF4E87640F2E864C4F20005FE
:2028A000C1F20006C2F2000406E03368C4F200001B69984723682BB92B684FF48050DB0617
:2028C000F3D570BDC0B29847F6E700BF4EF61053CEF200031A6822F004021A6030BF7047F2
:2028E00070B501F00FFD01F09DF918B1BDE8704001F00CBD40F2EC60C2F2000001F0D4FA66
:202900000225044648B1636823B19847A84228BF2846C5B22468002CF5D1FFF79DFC4FF4C9
:202920002073C4F224331B680446002B40F0B88001F024F803460146002840F0F280012D02
:2029400000F0CC80022DD1D12846002B00F00581FFF7DAFC40F2EC60C2F2000001F0A4FACE
:2029600006250446002800F0AF80A368022003B198472369246825EA0305002CF5D1FFF7C4
:202980009FFD6A0705F0060400F1A180002C40F0E98000F0D7F9002003F0F6FA4FF480527C
:2029A000C4F20902116841F2080321F003011160C4F2090319684FF4DC7241F00F0119608B
:2029C000C1F20002136839209B6998474FF482524FF484610023C4F20902C4F222311360EC
:2029E000184613600B6002F041F9062C00F0C38042F22C0542F22424C4F20804C4F20905A3
:202A00002B6823684FF4EC7623F003032360C1F2000633684FF48040C4F2030003215B6860
:202A200098474FF4DC73C1F200031B689B6B98472B6802F099FA4FF4C0730022C4F204336A
:202A40001A6033684FF48040C4F203005B6801219847216844F20C0341F003010122C4F205
:202A6000090321601A602B6802F0BEFA03F054FAFFF7CCFBFFF724FD40F2EC60C2F20000CB
:202A800001F012FA044628B1E36803B198472468002CF9D101F03AFCBDE8704001F036BC57
:202AA00042F21803C4F209031B681B1A022B52D4A3F28F23002BB8BF0123BFF639AF9D4271
:202AC00028BF1D46EDB233E7FFF7FAFC062444F20C03C4F2090300221A6057E7002B4ED0B3
:202AE0004FF6F873CFF6FF731B1BCB4248BF04F1080106D404F58034631A31EA230128BF7D
:202B000021460220FFF700FC4EF61053CEF200031A6822F004021A6030BFBDE8704001F087
:202B2000F5BB00F035FF0646FFF754FB361A002E15DDFFF71FFC4FF67153CFF6FF731B1B39
:202B400000EB4621CB424FF001037FF5F8AE9D4228BF1D46F3E60023B1E7611EF8E600237C
:202B60001946F4E74FF4DC73C1F200031B6820469B6998470DE7022001F022FC38E704F5CA
:202B80008031BEE7014640F2EC60C2F2000001F08DB900BF014640F2EC60C2F2000001F006
:202BA000D9B900BF40F2EC6008B5C2F2000001F077F94FF4C273C1F200031B6803201B681D
:202BC0002021984708BD00BF411C10B5044611D04FF4DA73C1F200031B684FF4C0421B6873
:202BE000002198474FF4D053A400C4F24423234300221A6010BD00BF38B504460D4601F0A5
:202C000081FB0121A14042F2E00240F2F063C4F20202C2F20003116043F8245000B138BD63
:202C2000BDE8384001F072BB08B5084B002103F1800243F8041F9342FBD14FF4D873C1F272
:202C400000031B6810201B69984708BDEC060020F8B542F2E003C4F202031D6840F2F067F7
:202C60001D60C2F200070024012606FA04F32B42E0B203D057F8243003B198470134202C51
:202C8000F3D1F8BD10B584B00022412302A80292039303F057F9042001F07AFB032819D087
:202CA0000420032101F036FB042001F071FB03280346F9D14FF4D272C1F2000212684FF4F2
:202CC000204000935468C4F20C0000214FF040521C23A04702A803F097F904B010BD00BFFE
:202CE00000B583B00022412368468DE80C0003F029F9012001F04CFB012803D00320012188
:202D000001F008FB684603F07FF903B05DF804FB00B583B00022412368468DE80C0003F00F
:202D200011F9012001F034FB012805D04823C1F20003986B01F022FA684603F065F903B067
:202D40005DF804FB10B582B04123684600240193009403F0F7F80320214601F0DBFA012077
:202D600001F016FB28B14823C1F20003986B01F005FA684603F048F902B010BD70B5038853
:202D80000646C3B140F21A22934219D1822921D146F61073C0F2000347F2A0251C69C0F200
:202DA0000005FFF78DFB02F0A7FA02F04FFA8021A047002808DC40F21A233380012070BDBE
:202DC00000230380032070BD80B202F039FA2B699847E6E7012070BD42F29C13C4F2080374
:202DE000186800F00100704738B510F0030305460C4626D001F086FA42F29C13C4F2080310
:202E00001B68003018BF0120DB072AD54FF48053C4F2040341F204011D60C4F204010B6870
:202E20004CF25032236003E00B68013A236018D013F0FF0FF8D050B32078421E504250415C
:202E400038BD02881005D5D56B8001F05BFA42F29C13C4F208031B68003018BF0120D907D4
:202E600002D480B1002038BD2B8813F4405FCDD003F44063B3F5006F02BF40F27073C2F205
:202E800000031D60C2E701F041FA002038BD01F03DFAD1E74AF22013C0F2070301E0013BA0
:202EA0000FD0428802F44062B2F5806FF7D1408800F44060B0F5806CDCF1000050EB0C0072
:202EC00070471846704700BF30B583B001F01AFA4FF4D874C1F20004236805461B6A192070
:202EE0009847236812201B6A9847236819205B69984723684FF4DC745B691220C1F20004A0
:202F00009847236801205B699847236801205B6B98470128F9D142F22C0142F22803C4F2C9
:202F20000801C6F2080342F228020860C4F20802186013689907FCD541F2100141F214034D
:202F40000022C6F20401C6F204034FF4D8740A60C1F200041A60236819201B6998472368F7
:202F600012201B6998477DB10023C6F20403072201201A6001A9C0F20640FFF735FF431EBB
:202F80005842584103B030BD01F0C0F9ECE700BF30B540F27873C2F2000387B01B6800248B
:202FA000012240F60A0501A8694601940494059302940394ADF804508DF81120FFF714FFA7
:202FC000012804BF4AF22010C0F2070004D0204607B030BD0138FBD0BDF8063003F4406379
:202FE000B3F5806FF6D1BDF8060000F44060B0F580646042604107B030BD00BF10B586B0FA
:203000000023012240F6090401A8694601930493029303930593ADF804408DF81120FFF74C
:20302000E3FE012806BF4AF22010C0F20700C0B203D006B010BD0138FBD0BDF8063003F4EE
:203040004063B3F5806FF6D1BDF8063003F44063B3F5806F18BF0020EBD141F26333C2F223
:2030600000031A780120002AE3D140F278720599C2F20002012011601870DAE730B587B055
:2030800001F040F94FF4D874C1F20004236805465B6919209847236812205B69984742F27A
:2030A0009C13C4F208031B68DA0720D541F2100141F214020023C6F20401C6F204020B60B1
:2030C00040F60D04136002A8012201A90293059303930493ADF808408DF81520FFF784FE46
:2030E000012804BF4AF22013C0F207033DD0FFF785FF42F22C0142F22803C4F2080100248F
:20310000C6F20803012042F228020C60C4F20802186013689B07FCD54FF4DC74C1F2000491
:20312000236801209B699847236801205B6B98470228F9D14FF4D874C1F2000423681920B1
:203140001B6A9847236812201B6A9847236819201B699847236812201B6998470DB901F0EC
:20316000D5F807B030BD013BC1D0BDF80A2002F44062B2F5806FF6D1BDF80A30B7E700BFF1
:2031800008B501F051F8052815D003281AD050B1012801BF42F2D013C4F2080305221A60AE
:2031A00018BF002008BD42F2D013C4F2080303221A60012008BD42F2D013C4F208031860A6
:2031C000012008BD42F2D013C4F2080302221A60012008BDF8B542F29C13C4F208031A68DA
:2031E0000023C8F2800300280CBF1D460025D10700D4F8BD01F086F841F2180141F214028F
:2032000041F21003C6F20401C6F204020646C6F2040300204FF000474FF4D8740F60C1F28B
:20322000000415601860236819201B6A9847236812201B6A9847236819201B6998472368A2
:2032400012201B69984706B1F8BDBDE8F84001F05DB800BF002398420CBF02200820002990
:20326000C8F2800318BF002341F2100141F214021843C6F20401C6F204020B601060704722
:203280000023984241F21402C8F2800318BF0023C6F204021360704740F27073C2F20003FD
:2032A0001868704740F27473C2F200031860704708B542F29C13C4F208031B68D80704D43D
:2032C000FFF702FE012800D008BD41F21003C6F204036FF000421A6008BD00BF08B542F2A5
:2032E0009C13C4F208031B68D9070AD447F2D410C0F2000002F09EFEFFF7E6FD012800D0EE
:2033000008BD00F0FFFF41F21003C6F204031A6812020ED441F21003C6F204031A6812F0F4
:203320000A0F1CBF6FF00A021A60BDE8084000F0EDBF6FF4000240F288001A60C2F20000DE
:2033400000F0D0FCE6E700BF41F26433C2F200031878704708B500F0A3F880B208BD00BF5F
:2033600000F038B938B54FF4DC75C1F200052B6804205B6998472B6804205B6B98474FF43A
:20338000DC7301280446C1F20003F4D11B6840F20140DB69984742F22803C6F2080342F281
:2033A00028021C60C4F2080213689B07FCD538BD40F27C73C2F20003186800280CBF022057
:2033C000012070472DE9F04103880646002B4AD0B3F5847F09D140F21723C2F200031B7877
:2033E0008B4207D00120BDE8F081002303800320BDE8F08140F27C77C2F200073B68B3B12C
:203400004FF4E673C1F200031A6848F20403C4F2020352680220D3F8008090470024221880
:2034200048F10003194610463B6898473C604FF4DC73C1F200031B6840F201409B6A98475B
:2034400042F22803C6F20803012142F228021960C4F2080213689907FCD540F29800C2F227
:203460000000FFF797FB4FF4847333800120BDE8F08100BF08B54FF4DC73C1F200031B6859
:2034800004205B6B9847012801BF42F23C03C4F208031868C0F3400018BF002008BD00BF58
:2034A00070B540F27C73C2F200031B68D3B140F28070C2F200000023C15C40F28072C2F21A
:2034C000000229B90133042BF6D10020014670BD40F220210024C2F2000101EBC301D45426
:2034E00003C970BDFFF7C6FF002842D048F20803C4F202031A680123C8F2000313409BB9D4
:2035000049F6F073C4F2020301221A6018680028FCD102464FF4807101F0AAFD4FF42A7348
:20352000C4F2502301221A6000F0ECFE48F208020646C4F202021368D807FCD54FF4E673DA
:20354000C1F200031A6848F20403C4F20203526802201C68904700222346141843F1000510
:2035600016B12046294670BD00F0D0FE2046294670BDFFF7F7FEB9E738B54FF42A75002444
:20358000C4F2502548F20C032C60C4F2020319684FF4D87221F001011960C1F200021368A6
:2035A00031205B699847204622464FF4807101F05FFD012240F217232A60C2F2000340F2C6
:2035C000AC0022461978C2F20000BDE8384000F035BB00BF10B540F21724C2F20004237851
:2035E000802B00D010BD00F099FA207040F2AC00C2F200000021BDE8104000F051BB00BF0D
:2036000010B50446006830B1002100F049FB54F8040F0028F8D110BDF8B503880646154601
:20362000EBB14A2B17D1882946D140F28470C2F2000000F039FC044648B1031D9D4202D1B5
:2036400026E09D4224D02468231D002CF9D14A2333800120F8BD002303800320F8BD40F229
:203660008470C2F2000000F01FFC044630B1201DA16800F06FF92468002CF8D141F2653382
:20368000C2F2000301221A704A2333800120F8BD40F28470C2F20000214600F05BFC40F216
:2036A00090756269A369C2F200052F682A600BB1E06998472F60CAE70120F8BD10B541F262
:2036C000653340F284700024C2F20003C2F200001C7000F0E5FB40F2BC002146C2F2000038
:2036E000BDE8104000F0DCBA70B541F26534C2F20004049D267882610446C36145614EB969
:20370000A16040F284702146C2F20000BDE8704000F0CCBB40F29075C2F200052E6840F2E3
:20372000BC03C2F2000304302B6000F013F92E60E7E700BF10B540F29074C2F200042468FE
:2037400082B00094FFF7D0FF02B010BD70B541F26533C2F200031B7804466BB140F2907588
:20376000C2F200052E6840F2BC03C2F2000304302B6000F0F9F82E6040F284702146C2F2E3
:203780000000BDE8704000F091BB00BF10B541F26533C2F200031B78044653B9C360036122
:2037A00040F284702146C2F20000BDE8104000F0D1BB043000F0F8F8F2E700BF704700BF35
:2037C00010B540F28874C2F200042368CBB1FEF701FD236859681A689B680A44121A4BB1FD
:2037E00093E812009B682144091A8A4228BF0A46002BF5D140F28C730244C2F200031A6015
:2038000010BD40F28C72C2F20002136010BD00BF2DE9F041038805467BB1592B08D18729A0
:2038200015D0822926D059232B800120BDE8F081002303800320BDE8F08140F28872C2F2E5
:203840000002136059232B800120BDE8F08140F28877C2F200073B68002BE4D0D9688A421A
:2038600003D02BE0D9688A4227D19B68002BF9D13B60D8E740F28877C2F200074FF00008E0
:203880003C68002CCFD0002604E0A3682646002BC9D01C46204600F05BFA0028F5D0E06832
:2038A0008821224600F0CAF9034640F2CC00C2F2000073B100F016FAE7E73B609968002992
:2038C000B1D0C86882420BBF89680B4699608968F5E7E360A3682EB1B360C4F80880FFF727
:2038E0006FFFCDE73B60F8E710B5044640F2CC00C2F2000000F0F6F940F28872E368C2F261
:203900000002116853B149B18C4218BF0B4602D110E09C420ED09B68002BFAD140F290738B
:20392000C2F200031B68A160E3601460BDE81040FFF746BF40F29073C2F200031B68E360F3
:20394000BDE81040FFF73CBF40F2CC00C2F2000000F0C8B910B5044600F0ECF92046BDE86F
:203960001040FFF7C1BF00BF10B5044600F0EAF92046BDE81040FFF7B7BF00BF40F288732D
:20398000C2F200031868003018BF0120704700BF40F28873C2F20003186820B140F28C73EC
:2039A000C2F200031868704710B540F28873C2F200031A680446904217D04AB19368834230
:2039C0000AD02BB19A68A24207D01346002BF9D10023A360E36010BD1346A2689A60FFF79D
:2039E000EFFE0023A360E36010BD82681A60FFF7E7FEEDE72DE9F84340F29478C2F2000846
:203A0000D8F8004040F29076221CC2F2000618BF0122844218BF002C054689463768234681
:203A200004D01B689D4218BF002BFAD163B3AB7BE3B10023AB736AB1A54220464FF0870143
:203A40002A4604D0A37BDB0701D500F029F82468002CF1D1AB683BB14D4505D0356005F1D0
:203A60000C00832100229847D8F80040A54212D04CB12368AB4209D02BB11A68AA4206D04E
:203A80001346002BF9D13760BDE8F88323462A681A603760F8E72B683760C8F80030F3E742
:203AA00070B5856804460E468DB140F29073C2F200030220A0731C6004F10C00A847023851
:203AC000012805D9832E1CBF0123A37300D070BD20462146BDE87040FFF78CBF70B540F262
:203AE0009473C2F200031C6841F26833C2F2000300261E7084B1012501E0246864B1E37B10
:203B0000002BFAD0A573E673204682210022FFF7C7FF2468002CF2D170BD00BF41F2693322
:203B2000C2F200031878421C1A70704770B441F2673040F2947140F29072002341F2693552
:203B400041F26634C2F20000C2F20001C2F20002C2F200058A26C2F2000403700B60136007
:203B60002E70237070BC70472DE9F04141F26834C2F2000423780BB1FFF7B0FF41F2673598
:203B8000C2F20005287818B341F26632C2F20002117840F2987301EB410C4FEA8C0CC2F2FC
:203BA000000303EB0C0701380131BE68C0B201F01F012870117013F80C807F68B6B1B8F146
:203BC000810F04BF0123B37306D0B37BDA0703D423781844BDE8F081304641463A46FFF70C
:203BE0005FFF287823781844BDE8F08140F29473C2F200031E6836B9EAE7B37BD9070AD498
:203C00003668002EEDD02378002BF6D0FFF766FFB37BD907F4D5304641463A46FFF740FFAB
:203C2000EEE700BF41F2683241F26733C2F20003C2F200021278187810447047F0B441F2ED
:203C40006733C2F200031D78202D08BF012315D041F26634C2F20004277840F298742F448C
:203C600007F01F0707EB4707BF00C2F20004E6190135E1551D7072600023B0601846F0BC69
:203C8000704700BF38B5837B40F29074C2F20004DB07256801D5FFF703FF256038BD00BF5F
:203CA00070B440F29475C2F200052E680446864218BF002E334604D01B689C4218BF002B8F
:203CC000FAD1A3420BD0012000232660A073A3810A4620462C60812170BCFFF7D3BF70BC94
:203CE000704700BF60B1837B013BDBB2012B9FBF41F268330122C2F200031A7098BFC2732E
:203D0000704700BFFEF7A2BA10B540F61814C2F20004236863B1184600225B6881682260B0
:203D20009847236823B11868BDE81040FEF790BA10BD00BF10B541600446FEF74BFA20609B
:203D400010BD00BF10B50446FEF744FA206010BD10B50446FEF73EFA94E80C00C2F10102CE
:203D6000104483422CBF0020012010BDF8B504880546672C0ED0792C04D064B30023038006
:203D80000320F8BD852933D140F62424C2F200040023236040F6242440F6A416C2F2000497
:203DA000C2F2000607E00A2824D022687E2ADEBF511CB054196040F69C10C2F2000000F0FD
:203DC00017F940F62423421CC2F20003EBD167232B800120F8BDFFF7A1FE41F2D24240F668
:203DE0002423C2F20002C2F2000310701C60D1E70120F8BD40F62424C2F20004276840F68A
:203E0000A41341F2D241C2F200030026C2F200011A4607F1010E09783046DE55C4F800E0E6
:203E2000FFF70CFF40F29073C2F20003324618688521FFF703FF0028AAD179232B800120F4
:203E4000F8BD00BF08B540F69C1040F61C11C2F20000C2F20001802200F0AAF8BDE8084062
:203E600040F2DC00C2F200000021FFF719BF00BF0029034611DD084413F8011B4A4052BA69
:203E800002F47F4182EA011292B282EA123202F47F41834282EA5112EED11046704700BF24
:203EA00000230360704700BF0068704710B404685CB1A14225D023680BB906E01346994269
:203EC00010D01A681C46002AF8D100230B6002680AB911E01A461368002BFBD111605DF8E7
:203EE000044B704764B10A68226000221A6000230B600268002AEED101605DF8044B70477A
:203F00000C46226823460260EFE700BF30B4056865B1A94219D02B6843B12C4600E01346F8
:203F2000994207D01A681C46002AF8D10D60016030BC704744B10A68226000221A60056895
:203F40000D60016030BC70470D462A682B460260F3E700BF10B404685CB18C4215D0236824
:203F60000BB906E01346994206D01A681C46002AF8D15DF8044B704734B11A682260002250
:203F80001A605DF8044B70470C46226823460260F5E700BF03682BB100201B680130002BC4
:203FA000FBD170471846704700B10068704700BF0023013A0160027143718371704700BF8A
:203FC00010B40346447980791A79201A104082421FBF1A68012011555A791FBF19791218E9
:203FE0000A405A7108BF00205DF8044B704700BF10B40346827940791979801A08421FBF96
:204000001868541C2140805C14BF99714FF0FF305DF8044B704700BF08B543695B6803B12E
:20402000984708BD10B5044682B01A2001F0F8F9014601A801F03AF863691B6813B12046F3
:2040400001A9984702B010BD70B5144647F258220646C0F200020D4602F062F847F25421D9
:2040600074612846C0F20001BDE8704000F040B802F066B810B541F290410446C2F2000135
:204080001A2001F0C1F92046BDE8104002F05AB840F62820C2F20000FFF702BF034640F674
:2040A00028209980C2F200001946FFF7FFBE00BF014640F62820C2F20000FFF74BBF00BFE2
:2040C00010B5044640F62820C2F20000FFF7ECFE50B18388A34203D109E08388A34205D04C
:2040E000FFF762FF0028F8D1002010BD10BD10BD38B50D46FFF7E4FF044620B1856028466A
:2041000002F052F8207338BD08B583695B6803B1984708BD38B504461B200D4601F080F9E8
:2041200041F29041C2F2000100F0C4FF28B1A3691B6813B120462946984738BD70B51446BF
:2041400047F260220646C0F200020D46FFF77CFF47F26821B4612846C0F20001BDE8704093
:20416000FFF7C6BFFFF784BF10B504461B2001F04BF92046BDE81040FFF77CBF70B506460F
:2041800000F0C0F84FF400420546C4F20C0213684FF40044C4F20C04002BF8D0B04701230D
:2041A000236005B170BDBDE8704000F0AFB800BF10B442F2080342F20C04C4F20903C4F26F
:2041C00009041A68206819688A42FAD1120442EA10405DF8044B704741F21832C5F200028D
:2041E00013684BF69A11C3F30F338B4213D04BF6BE12934208BF01200BD04BF6413293427E
:2042000008BF032005D04BF6203083420CBF0220FF2040B270471068000F0B280CBF04202B
:20422000002040B2704700BF10B541F29423C5F200031C68FFF7D0FF0128C4F3033409D153
:20424000082C08BF002003D00F2C0CBF0120FF2040B210BDFF20FBE738B541F218324FF4BD
:204260008553C5F20003C5F2000212681C68150FE4B27F2C88BF0024FFF7AEFF04280FD86F
:20428000DFE800F01108030304004DB90A34E0B240B238BDF5B1022D04BF1434E0B2F7D04E
:2042A000FF2040B238BD013D072DF9D801A353F825F000BFD5420000A1420000E3420000D3
:2042C000A1420000A1420000A1420000E7420000DB4200000A2040B238BD04F11600C0B261
:2042E000D6E71420D4E71520D2E700BF08B5FFF773FF012800D0FEE7FFF7AEFF1328FADDAD
:2043000008BD00BFEFF3108072B67047EFF3108062B6704770B50D46C10782B0044626D4D1
:20432000A20713D463070FD54FF4D273C1F200031B68ADB24FF4204000955C68C4F20C00C1
:2043400000210C220223A04702B070BD4FF4D273C1F200031B68AAB200924FF420405E680B
:20436000C4F20C00002102220123B047DAE74FF4D273C1F200031B68AAB2009200214FF447
:2043800020405E68C4F20C000B460122B047C7E710B54FF4D273C1F200031B6804284FF427
:2043A0002040DC684FF0340107BF4FF0C0421D234FF080521C23C4F20C00A04710BD00BF19
:2043C00001280FD030B14FF4C073C4F2043301221A6070470023C4F209031A6822F00502BD
:2043E0001A6070470023C4F209031A6842F005021A60704738B541F21003C4F209030121A4
:204400004FF4257205461960C4F222321368002BFCD04FF4C042C4F20C02C02143F6B0733C
:204420001160C5F200031B689B070DD443F6AC73C5F200031A6846F25623C2F3034242F0DA
:20444000F002C4F208031A704FF48252C4F20902002143F6B4731160C5F200031C682046B1
:2044600000F0E8F82846214600F0AEFA41F21433C5F200031A6840F21D2392B29A4219D8C6
:2044800041F2BC23C5F2000319681A68C1F30363C2F3034219462BBB931F012B83BF0232A0
:2044A00002F00F021201702246F202030A43C4F208031A70204600F021F94FF4D073C1F2D6
:2044C00000031B680220DB6898474FF4C04240F29443C4F20C024020C4F2602301211060D5
:2044E000196038BD013BD9B2D6E700BF38B541F21C33C5F200031C68FFF7F8FE40F284407C
:2045000046F25C0142F208230122C4F20433C4F260200025C4F20C0105600A601A6000F040
:2045200069FB4FF4C073C4F228331B68B4F1FF3F08BF2C463BB14FF48073C4F22033204660
:204540001B68FFF757FF42F28C12C4F20802002142F248031160C4F203031968042221F075
:204560007F6121F4702141F09C7141F480311960C4F209021368C3F30133012B06D00C22C2
:20458000C4F268221368002BFCD138BD136823F0407323F4403343F4003111601360EEE787
:2045A000F0B441F28833C5F20003196846F20623C4F208031B78C1F3046103F01F0315290D
:2045C000C8BF2039152BC8BF203B99422FD09822C4F22032002442F22C0046F26C2514607C
:2045E000C4F20900C4F208056FF0010C0126CA1A022AC8BF022202DC6245B8BF62461344F0
:2046000003F01F0444F4F85442F22C028B420768C4F209022C804FF001040660E7D19823D8
:204620001168C4F22033146011681C601368F0BC704700BF00F04073B3F1807F70B504463D
:204640003DD041F2B823C5F200031B68C3F30463152B51DC03EB24730133152BC8BF41F6C1
:20466000157108DC13F10A0FA6BF03F01F0343F4F85141F6167146F26E22C4F20802002350
:204680001180C4F209031B6813F0020309BF40F2944244F04064C4F22A321360C4F3C06137
:2046A0000022C4F38064082381F0010184F00104C4F22032C4F2203311601C6070BD46F2C3
:2046C000252546F2662146F215238022C4F20803C4F20801C4F208054FF6D8062A700E8031
:2046E0001A70FFF75DFF41F28833C5F200031B68C3F30423152BADDD203BABE7F8B5C0F3BF
:204700008143012B47D0022B4CD143F6B073C5F200031B684FF400711B075FBF4AF2680314
:20472000C4F20C0340221A604AF28002C4F20C0241F28C331160C5F200031A68C0F3815033
:204740004AF20813C2F3C14242F03002C4F20C0301281A7058D032D302282BD104200321D3
:20476000FFF7D8FD41F26C33C5F200031C684BF20B014BF2700204F03F04C4F20C01C4F2B6
:204780000C0247F6180042F22C030C70C4F2090310801B68F8BD41F28C33C5F200031B681E
:2047A0009A0375D54AF24003C4F20C034FF000421A60AAE704200221FFF7ACFDD2E704207F
:2047C0000121FFF7A7FD46F23C0046F2400146F24403C4F20C0043F2BD76C4F20C01862519
:2047E000C4F20C03012440F684020660C4F28C320D601C601368002BFCD046F24403C4F2A9
:204800000C0300221A60ADE7FFF7C2FD044601460420FFF77FFD0420FFF7BAFDA042FAD1FF
:2048200043F6A873C5F20003186846F23C0446F2400146F2440387B2C4F20C04C0F307467B
:20484000C4F20C01C4F20C03012540F684022760C4F28C320E601D601368002BFCD046F25E
:204860004402C4F20C0200214FF4DA731160C1F200031B684FF060221B68000E072198477A
:204880004AF24003C4F20C034FF480621A6065E74AF24001C4F20C014FF4804446F20C025C
:2048A0000C60C4F208021168C3F3033421F08F012143C3F3004441EAC41446F20B011460AC
:2048C000C4F208010A68C3F3032422F00F02144346F20A020C60C4F20802116803F0E7038A
:2048E00021F0E7010B4313600FE700BF41F25033C5F200031B688203C3F38361C3F38F23CF
:204900000DD440F30722002A0CDA5B0805D149080ABF01234FF6FF7319460132F5D143EA97
:2049200001407047FBD05B0043F00103B3F5803F4FEA410007D340F001010F2992BF012388
:204940000F214FF6FF73013AEDD143EA0140704770B441F2783343F6B072C5F20003C5F284
:2049600000021B681268C3F3035412F00102C3F3034105461CBF24050A0419D143F6AC7090
:20498000C5F20000006840F30326341948BF144605D40F2CD8BF240501DD4FF4700440F352
:2049A0000330411804D40F29D4BF0A044FF4702298B2212D40EA040040EA020084BF03F0BD
:2049C0008043184370BC704770B5044682B00846FFF78CFF02464FF42040C4F20C00182180
:2049E00001F068FC41F25033C5F2000319681A684FF4D273C1F3870102F00302C1F200037E
:204A00001B6841EA022200924FF420405D68C4F20C002C2140F2FF320023A84741F27C3364
:204A2000C5F200031A684FF42040C2F30D02C4F20C001C2101F03EFC41F27433C5F2000315
:204A40001A684FF4204002F0FC32C4F20C00142101F030FC41F27033C5F200031A684FF4A8
:204A6000204022F07F4222F440321021C4F20C0001F020FC2046FFF76BFF02464FF42040CA
:204A8000C4F20C000C2101F015FC212C73D941F28C32C5F2000211684AF24913C1F30071AC
:204AA000490041F02001C4F20C03C9B219701268C2F3407242F01002D2B21A7041F298355F
:204AC000C5F200052B684FF42040C3F30262C3F3C1619200C3F3815342EA01221A43C4F274
:204AE0000C00282101F0E6FB2A684AF24C13C2F30152520042F06002C4F20C03212C1A70D8
:204B000063D941F28C33C5F2000319684AF24112C1F3C061C90061F07F01C4F20C02C9B2EF
:204B200011701A684AF2DC13C2F34552920042F47C42C4F20C031A8041F29833C5F200035E
:204B40001B68C3F30512C3F3892112041B0342EA81529BB21A434FF42040C4F20C0008213A
:204B600001F0A8FB4AF24003C4F20C034FF480021A6002B070BD4AF24913C4F20C0322219F
:204B800011221F2C19701A7098D84FF42040C4F20C002821002201F08DFB4AF24C104AF2F7
:204BA00041114AF2DC13C4F20C006026C4F20C018025C4F20C034FF47C444FF40042067005
:204BC000C4F23F020D701C80C5E74AF241124AF2DC13C4F20C028020C4F20C034FF47C4136
:204BE0001F2C10701980A7D84FF40042C4F23F02B1E700BF10B40C22C4F268221368002B27
:204C0000FCD144F2040343F6B072C4F20303C5F200021968126821F00051520721F00701EB
:204C20001CD44FF48042C4F20302146841F0005141F00400A40708BF18600CD041F0070192
:204C40001960136803F00303032BFAD144F20403C4F2030318605DF8044B704741F0005120
:204C600041F0050119605DF8044B70472DE9F04F0023C4F209031B6883B013F00207804667
:204C800011D040F62C2341F230024FF6FD51C2F200030820C4F20902C0F2A4019871116045
:204CA00003B0BDE8F08F01F0E9FA43F6B473C5F200031C6801462517A00205F1010540F159
:204CC000D78004F04073B3F1807F00F0E08041F2B823C5F2000341F23C121B68C5F200025E
:204CE0001668C3F30463152BC6F30446C8BF203B152E00DD203E1D44152DC4BF41F6157094
:204D0000152540F3D98046F26E22C4F2080242F22423C4F2080310801A6812F0030318BF18
:204D20000123520748BF43F00203B8F1000F01D043F0040340F62C22C2F2000292F9070028
:204D4000081A042826DC9079984208BF918821D142F20803C4F209031B6840F62C201E2901
:204D60001360C2F200000B4600F2C6801F234EF208718380C8F2A40141F2300041F234025A
:204D8000C4F20900C4F2090200230160136003B0BDE8F08FB1F10F0900F1D08009EB0919B4
:204DA0004FEA2920072840F2938041F2B830C5F2000041F2B4374FF4E0688446C5F20007FA
:204DC000CDF804803F68DCF800C013F0040BC7EB0C0C18BFCCF307285FFA8CF718BF474470
:204DE00013F0020A1CBFCCF30748474413F0010840F09780DDF804C0CCEB090909FB07F779
:204E000080373F0AD0F800C05FFA8CF0BBF1000F02D0CCF307294844BAF1000F02D0CCF3E2
:204E200007494844B8F1000F01D000EB1C60751B002D07444FF03400C8BF6843E4B204FB64
:204E400000F04FF6FF7CB0FBF7F0604528BF604680B27F299080C8BF7F2105DC11F1800F5B
:204E6000A8BFC9B200DA8021D171937101466FE7C1F13E03DB10082BA8BF08239D42B8BFF9
:204E80001D4604F04073B3F1807F7FF420AF41F28833C5F2000341F288321B68C5F2000252
:204EA0001668C3F30423152BC6F30466C8BF203B152E7FF720AF1DE715F10A0FA7BF05F04C
:204EC0001F0040F4F85041F616706FF009051AE73FF46BAF00F1010841F298374FEA8808FA
:204EE000C5F2000741F29C3C00024744C5F2000C0190C444384665E7B1F5007F28BF002208
:204F000027D35B08B3F5007F02F10102F9D24FF467410F3BC8F2A4011B09114341EAC30151
:204F20002AE7DDF8048007EB1C67C8EB090909FB07F780373F0A4FF0010863E741F29C303A
:204F4000C5F2000003F0040B03F0020A03F0010858E7A1F10F031B094FF46741DB00C8F216
:204F6000A401194308E700BF10B541F23403C4F209031C68A4B204B910BD01F07FF940F68E
:204F80002C23C2F2000393F9072090421CDB9A8840F62C239442C2F2000322D342F2080129
:204FA000C4F20901086819680230411A1F2928BF1F21A41A4908CC404FF6FF7122448A4242
:204FC00028BF0A469A8010BD6FF07F029042B8BF10469A88D871944240F62C23C2F20003B7
:204FE000DCD29C8010BD00BF10B445F22803C4F209031B6853B343F6B472C5F20002116859
:2050000001F04062B2F1406F20D00022C4F20902106884071AD443F6B070C5F2000000686F
:20502000800713D443F6AC74C5F200041068246810F0050FC4F3035404F11C044FEA041462
:2050400007D0A3423CBF20F0050010605DF8044B7047A342FAD90B0158BF40F0010000238A
:205060004C0158BF40F00400C4F209031860EDE730B448F21403C4F202031D68120202F40B
:205080007062090AC0F387104FF6FF34090410432C4048F218020C4325F480650843C4F2FB
:2050A00002021D601C60106030BC70470B880380704700BF08B5022201F060FDD0F1010063
:2050C00038BF002008BD00BF08B546F61073C0F200031B68984747F2A023C0F200035B682E
:2050E000984747F2C823C0F200035B68984747F27C23C0F200035B68984747F2E423C0F235
:2051000000035B68984708BD41F2543CC2F2000CF0B4BCF80070EFB141F25233C2F20003CB
:205120001D88A5B141F26A33C2F200031E7840F6342400233744FFB21A46C2F2000401322F
:20514000E11892B2C85D13B2AB428855F7DB0023ACF80030F0BC70472DE9F04141F26A321C
:2051600041F25233C2F20002C2F2000315781E888046AC19802CC8BF002414DC40F6342774
:20518000C2F200072A46394601F02CFD41F25433C2F20003197808EB05000D44E9B23246ED
:2051A000394401F01FFD2046BDE8F081F0B441F2543341F26A36C2F20003C2F200061A78B5
:2051C000377841F25233C2F200031B883A44D2B21A4492B21318802BC8BF002014DC013AC2
:2051E00092B213B2002BA2BF40F63424C2F20004251806DBE15C013A92B2E95413B2002BCD
:20520000F8DA384430700120F0BC704710B441F25233C2F2000319888142A1BF41F254326C
:20522000C2F20002148880B2A1BFC0EB0101001910801980ACBF012000205DF8044B704794
:2052400041F25233C2F200031880704741F2543241F26A33C2F20003C2F200021878127880
:2052600040F634231044C2F20003C0B21844704740F63420C2F20000704700BF41F25233A5
:20528000C2F200031888704741F2543241F26A33C2F20003C2F200021878127841F2523338
:2052A000C2F2000310441B88C0B2184480B2704738B541F29C4241F29444C2F200020021A9
:2052C000C2F20004116051609160D160116151619161D161116251629162D162116304F1D5
:2052E000080547F270212046C0F200010234FFF7DDFEAC42F5D138BD41F2543041F25231A1
:2053000041F26A330022C2F20000C2F20001C2F2000302800A801A70FFF7CABFF8B541F286
:20532000543241F26A3341F252340026C2F20003C2F20002C2F20004802934BF0D4680257F
:20534000074616801E702680FFF7B2FF40F6342039462A46C2F2000001F044FC258028461E
:20536000F8BD00BFF0B441F29C46C2F200068C46054606F1300734460FCCBC422860696057
:20538000AA60EB60264605F11005F4D1206841F294432860C2F2000303CBCCF80000CCF855
:2053A0000410F0BC704700BFF0B441F29C4604468C4600F13007C2F2000620686168A268A5
:2053C000E36835460FC51034BC422E46F5D1206841F294432860DCF80000DCF80410C2F22D
:2053E000000303C3F0BC704741F29C43C2F2000323F810100120704741F29C43C2F20003DC
:2054000033F81000704700BF08B541F29443C2F200031A3803EB4000FFF748FE012008BDBB
:2054200041F29443C2F200031A3803EB4000704747F27021C0F200010148FFF73BBE00BF00
:205440009614002008B547F2C823C0F20003DB68984708BD08B547F2A023C0F200035B69D3
:20546000984708BD08B547F2A023C0F200039B69984708BD08B547F2A023C0F20003D869C3
:2054800000B1804708BD00BF10B5044678B1006BFEF70AFD024650B147F2A023C0F2000377
:2054A00045F251702146DB68C0F20000984710BD70B590F829300546032B9CBF01249C4011
:2054C00047F2A023C0F20003DA6994BF04F1FF340F249047002808BF012004FB00F42CB173
:2054E000FDF738FFB0FBF4F303FB140445F28942214605F108002B46C0F20002BDE87040F8
:20550000FEF718B92DE9F04106461B200F46FFF787FF41F26B33C2F200031A780546002A97
:205520004ED041F25633C2F2000319884C1CA4B209B9022401210A201C80FFF755FF40F62B
:205540002830C2F20000FEF7AFFC044628B917E02046FEF729FD044690B1201D2946FFF7CF
:20556000A9FD0028F4D0206BFEF714FD072832DD3046394604220123BDE8F04100F084BB86
:2055800040F2F800C2F2000000F07CFD04460028EED02946201DFFF789FD002304F12C0028
:2055A000206384F8283084F82930E362FEF778FC40F62830C2F200002146FEF777FCD2E747
:2055C00001221A70FDF7C6FE41F25633C2F2000318800146AAE740F20410C2F2000000F099
:2055E00051FD0546A8B340F2EC00C2F2000000F049FDA86030B300F08BFE6860D8B10920D1
:20560000D5F80880FFF7F8FE002836D1082388F8083088E8C0000D20FFF7EEFE0128294660
:20562000206B30D0FEF742FC206BFEF73DFC85422CD0BDE8F08140F2EC00C2F20000A96837
:2056400000F03EFD40F204102946C2F2000000F037FD206BFEF79EFC002889D140F6283068
:205660002146C2F20000FEF775FC40F2F8002146C2F2000000F024FD7AE70920FFF7BCFE19
:2056800088F80800C5E7FEF741FCCDE72046BDE8F041FFF70DBF00BF08B540F20410C2F27C
:2056A000000000F0DDFC40F2EC00C2F2000000F0D7FCBDE8084040F2F800C2F2000000F0D1
:2056C000CFBC00BF2DE9F0418B680D460646106B1446D3F800805F68FEF73CFC686800F0D3
:2056E00045FE40F2EC00A968C2F2000000F0E8FC40F204102946C2F2000000F0E1FC206BEF
:20570000FEF7D2FB80B1002384F8283084F829302046FFF7CDFE40463946324694F8283042
:20572000BDE8F04100F0B0BA04F10800FEF72EF840F628302146C2F20000FEF70BFC40F24A
:20574000F8002146C2F2000000F0BAFCE3E700BF2DE9F04106460F469046E0B1006BFEF758
:20576000A3FB044628B916E02046FEF71DFC044698B10A21606800F02FFE05460A20FFF7E8
:205780003BFE8542F0D1A3682BB1032F45D8DFE807F0361A0602BDE8F081BDE8F08196F842
:2057A000282000214244D2B286F8282086F829101B7A934238D93046FFF77AFE6068BDE82D
:2057C000F04100F0CDBD96F829204244D2B2052A86F8292096F8282081BF00210132D2B259
:2057E00086F8282088BF86F829101B7A9342E2D8214632460120BDE8F041FFF763BF96F845
:2058000028300020984486F8288086F8290021463246BDE8F041FFF755BF3846214632464B
:20582000BDE8F041FFF74EBF214632460220BDE8F041FFF747BF00BF40F20C23C2F20003E5
:205840001888704730B4B0B1037A022B15D00378022B1CD00379002423B9447A14F0030444
:2058600018BF0124C37913F0030318BF012301B10C6002B1136030BC7047C479457A03798D
:2058800044B1B5B1032C17D1032D29D1FBB100231C46ECE70DB9012B08D0002BF7D1023D6C
:2058A000EDB2012D1AD90024E1E76BB101230024DDE74BB1032C15D0022C11D1002DF4D102
:2058C0009BB12B462C46D2E70123002CE7D00123022CE4D0032CE6D1022DE4D10124C6E737
:2058E000022DE2D0002BF3D0D1E72B46D7E700BF00220B4630B503F8012B01334A7003F8CB
:20590000012B03F8012B03F8012B1A70437D0D46D9075CBF01232B70037E83B0012B04468C
:2059200023D904F11000694601AAFFF78BFF009B0BB10223EB70019B0BB102236B70E37DFD
:2059400003F00303022B03D0032B0CBF08230023AB70637E03F00303022B03D0032B0CBF19
:20596000082300232B7103B030BDC37D9A0709D0437E9B0706D0838BC28B9A4204BF01238C
:205980000375CED000232375CBE700BF02280CBF022008200B1803E013F8012DFF2A04D149
:2059A0005A1A002AF8DC012070470020704700BF00B583B06946FFF79BFF9DF800009DF8B6
:2059C00001309DF80220023018449DF8033010449DF8042018449DF805301044184403B0F3
:2059E0005DF804FBF0B583B007460D466946FFF77FFFBB7C797C387C03F00103FA7C1B014F
:205A000001F0010143EAC10100F007003B7D014302F0010241EA421203F0010342EA831384
:205A20002B70787D7A7EBB7DF97D00F0010040EA821003F001033A7E40EA430301F003016F
:205A400043EA810102F003029DF8003041EA0212012B6A7002BFBB7E0320AB709DF8013098
:205A600018BF0220022B34D09DF802C0BCF1000F12D000EB0C01C9B207EB0C03024600E06B
:205A80002246541C13F8016CE4B28C42AE5403F1FF33F5D16044C0B29DF80330022B22D067
:205AA0009DF804C0BCF1000F11D00CF1080100EB0C063944F6B2034600E013465A1C11F8C7
:205AC000014DD2B2B242EC54F7D16044C0B203B0F0BDBA8B431C2A54BA8BDBB2120A023040
:205AE000EA54C0B2C0E7FA8B431C2A54FA8BDBB2120A0230EA54C0B2D2E700BF2DE9F04718
:205B00000129064686B00F461446D8BF002068DD3278737802F0070AC3F38100C3F3011197
:205B2000C2F3C009C2F30018C2F3401C03F00105C2F38012C3F3400E9B098DF815308DF8D2
:205B400010208DF814108DF80CA08DF80D908DF80E808DF80FC08DF811508DF812E08DF8D0
:205B6000130003AB03CB1A88206122836161002D3AD0B51C03A801A902AAFFF763FE9DF817
:205B80001380B8F1000F43D0029B002B33D06A7815F8023B03EB0223A383B8F1020F58D095
:205BA000B8F1030F40D09DF81580B8F1000F24D0019BEBB1697815F8023B029A03EB012333
:205BC0009BB2E38372B3B8F1020F4FD0B8F1030F34D0AE1BBB1BA563E363B742ACBF30468E
:205BE000002006B0BDE8F087B378F51CA376C1E7A38BE383E7E7A383CFE747F27021C0F2FC
:205C0000000104F10800FFF751FAA4F81E80E0E747F27021C0F200012046FFF747FAA4F88E
:205C20001C80C0E7A383CEE708352A46002312F8011DE1540133082BF9D1B4E722460723BB
:205C4000E95C013B581C117202F10102F8D10835BFE747F27021C0F200012046FFF726FA31
:205C60006B78237015F8023B63709CE747F27021C0F2000104F10800FFF718FA6B78237214
:205C800015F8023B6372A4E710B5044618B1084611461A46A04710BD08B546F61073C0F29B
:205CA00000031B6A984708BD0020704708B546F61073C0F200031B6A984708BD70B592B020
:205CC000FFF7DCFA0446FFF7C1FA0546FFF7D6FA032820D047F2F023C0F200039B689847EE
:205CE000002818DB1B20FFF79BFB41F29041C2F20001FFF7DFF980B100F074FC0646002836
:205D00003AD02846214602AAFFF7F8FE9DF81830012B0FD036B112B070BDFFF789FB0028AC
:205D2000EAD1F8E747F27C23C0F20003DB68984712B070BD9DF81B30002BEBD041F2904161
:205D400002A8C2F20001FFF7B5F90028E2D09DF8220046F610730021C0F2000302228DF871
:205D600006008DF80510DB688DF8042001A803219847002ECFD1D5E700F05EFCC1E700BFB0
:205D80002DE9F047884641F2904184B0C2F2000105461A20FFF738FB01210B20FFF724FBEB
:205DA00047F2F023C0F200035B68984700282EDBFFF75EFA46F61074C0F20004666890F8F5
:205DC0000290FFF755FA0746FFF75EFA01463846B047FFF72DFBA6690746B04750B1012200
:205DE0000024284641460123FFF74EFF204604B0BDE8F0876FB1A3680193FFF745FA019B5D
:205E0000984758B102280CBF01220422E8E70522E6E7E36998470028E1D1ECE717B10246B1
:205E20000124DEE7FCF718FA8246FCF749FB4FF65D77CFF6FF77CAEB0707FCF70DFAF84229
:205E4000FBD4B04798B1D4F81CA0FCF705FA0746FCF736FB4FF6BF76CFF6FF76F61BFCF790
:205E6000FBF9F042FBD4D04750B90222B8E746F61076E769C0F20006B84770B1BA46E4E795
:205E8000236903A8032198470328A8D19DF80E304B45A4D100220124A3E773699847002898
:205EA000E3D1EBE770B506460D4612B90BE054B122465068146800F075FA30462946FFF707
:205EC0005FFF0028F3D170BDFFF75ABF08B546F61073C0F2000310B95B6A984708BD1B6A54
:205EE000984708BD704700BF08B547F2E423C0F200039B68984708BD38B505460C46142071
:205F00000121FFF771FA47F27C23C0F20003284621469B68984738BD40F6F43008B5C2F2FA
:205F20000000FDF7C1FF60B14FF40073C4F22233012141F214021960C4F2090213689B061A
:205F4000FCD508BD70B50446FEF7DCF94FF4D075064640F6F430C2F200002146C1F2000571
:205F6000FDF7A4FFFFF7D8FF2B6860681B6898472B6860689B6898471128F9D106B170BDDC
:205F8000BDE87040FEF7C2B938B5044670B940F6F430C2F20000FDF787FF034630B12046C4
:205FA0005A681B681043002BFAD110BB41F20403C4F209031D684FF4C0744FF400710020BC
:205FC000C4F2223125F4C055C4F222344FF4D0721D60C1F200022060086013680120DB6800
:205FE000984741F21402C4F2090213689906FCD438BD41F20403C4F209031A6822F4C05233
:2060000042F400621A6038BD38B50546FEF77AF9044640F6F430C2F200002946FDF79AFF85
:206020000020FFF7B1FF04B138BDBDE83840FEF76DB900BF38B50546002403E0285DFCF742
:20604000B9FB0134284600F08DFE8442F6D30A20FCF7B0FBFCF7FEFB0128FBD0204638BDDC
:2060600010B5044662880021406800F031FE23886288A06802FB03F2BDE81040002100F0AA
:2060800027BE00BF30B44588BDB141680B7863B14A1C002303E01478114601322CB101336A
:2060A000AB42F8DB002030BC704701220A700588826803FB052030BC70472846F3E700BF7C
:2060C00070B4458882686DB18A420FD006880023324402E091420AD022460133AB4202EBF0
:2060E0000604F7DBFF22104670BC704700234168CA5C002AF7D0013ACA54426870BCD25C2A
:206100001046704783688B4208D84288008800FB023399422CBF00200120704700207047C3
:2061200070B5064614460D46FDF7B8FF47F2D82134612846C0F20001BDE87040FDF7D8BFCE
:20614000FDF7B6BF00F086B808B503691B6803B1984708BD08B503695B6803B1984708BD60
:20616000FDF796BF47F20433C0F2000310B51B689847044618B10120A188FFF735F92046A3
:2061800010BD00BF38B547F20433C0F200035B6805469847A98804460120FFF725F9201C88
:2061A00018BF012038BD00BF08B547F20433C0F200039B68984708BDF8B5064640F6F83053
:2061C000C2F200000D461746FDF76EFE044648B1A368284603B198472046FDF7E5FE044625
:2061E0000028F5D1304629463A46BDE8F840FFF7B1BF00BF38B5FFF7B5FF054640F6F8300A
:20620000C2F20000FDF750FE044640B1636803B198472046FDF7C8FE04460028F6D125B1C0
:206220002846BDE83840FFF78FBF38BD10B500F05FF8FFF761F800F039FAFFF791FFBDE8F1
:20624000104002204FF400714FF4F0524FF4E12300F0EABA10B50446FFF794FF68B1FEF712
:2062600053FF47F2C823C0F2000346F2B910C0F2000021469B689847012010BD45F23001A1
:2062800041F20C3245F22803C4F20901C5F20002C4F20903086812781B6852B2A3F5407324
:2062A00003FB02F340F31000A0EB231080300012704700BF2DE9F04106460F469046FEF7FF
:2062C00021F84FF40045C4F20C052C684FF40043C4F20C03002CF8D0012246F807801A6021
:2062E00008B1BDE8F081BDE8F041FEF70FB800BF08B540F20020C2F20000FFF7B1FEBDE871
:20630000084040F2F410C2F20000FFF7A9BE00BF40F2F41038B5C2F20000FFF7B3FE054666
:20632000A0B140F20020C2F20000FFF7ABFE0446286060B1FEF710FF04F1B601A4F88000B8
:2063400004F18200FFF70EF8284638BD38BD40F2F4102946C2F20000FFF7B2FE204638BD18
:20636000016801F18200B631FEF7FCBF10B5044640F2F4102146C2F20000FFF7C3FE00B9D9
:2063800010BD40F200202168C2F20000FFF798FE40F2F4102146C2F20000BDE81040FFF7D9
:2063A0008FBE00BF10B5044640F2F4102146C2F20000FFF7A7FE00B910BD2468B4F8801088
:2063C0002046FEF7ABFF04F1820004F1B601BDE81040FEF7E9BF00BF036803EB4101B1F800
:2063E0008200704730B591B0FEF730FF0446FEF745FF6A4601462046FFF780FB0446D0B3FC
:20640000FEF704FFB8B314209DF81010FEF7ECFF9DF817308BB1BDF81C50FFF70DFA854253
:2064200005D0BDF81C204FF6FF739A4223D19DF817006946FFF7AAFA08B302A91A20FEF785
:20644000E3FF13209DF81210FEF7CEFF9DF815300A205BB14FF6FF71FEF7C6FF9DF81A1070
:206460000E20FEF7C1FF204611B030BD9DF81A10FEF7BAFFF2E74FF0FF3011B030BD694614
:206480001B20FEF7C1FFD8E730B591B00446FFF7D3F94FF6FF73984200F098804022684672
:2064A000002100F015FC41F26D33C2F200031A78002A77D01420FEF79FFF8DF8100013209E
:2064C000FEF79AFF8DF81200FEF7B2FF0546002860D000238DF813308DF815300023012550
:2064E0008DF814308DF81850002C3FD102258DF81950FFF7A1F9ADF81C00FEF799FF58B3AC
:20650000FF238DF817508DF800308DF80130FFF793F941F29041C2F20001ADF81E0002A85A
:20652000FEF7C4FDFEF792FE0E90FEF7A7FE0F906846FFF73DFA05460CB911B030BDFEF7BB
:2065400035FE002842D0FEF793FE01466846FFF749FA284611B030BD1B20FEF761FF014627
:206560006846FEF7A3FD8DF81750D0E70A20FEF743FF08BB41F26C33C2F20003197809B33B
:206580004D1CEDB20A460A201D708DF81A20FEF72BFFABE70B20FEF72FFF8DF815508DF8BF
:2065A00013009BE701221A70FCF7D4FE41F26C33C2F2000318707DE70A20FEF71DFF8DF89F
:2065C0001A0093E729462A460225DCE74FF0FF30B3E700BF0120FFF757BF00BF0020FFF795
:2065E00053BF00BFF8B5FBF7F5FD41F21C26C2F200063446074600251A20FEF711FF214678
:20660000FEF758FD0C3420B90135102DF4D10020F8BD0A20FEF7F0FE05EB450506EB850647
:20662000337A8342F3D17068381AB0F5206F8CBF00200120F8BD00BF70B541F21C26C2F278
:206640000006344600251A20FEF7EAFE2146FEF731FD0C3430BB0135102DF4D10F25013D1F
:2066600005EB450306EB830300E0013D03F10C0493E807000C3B84E80700002DF5D10A20F0
:20668000FEF7BAFE3072FBF7A5FD70601A20FEF7C7FEBDE87040014641F21C20C2F2000094
:2066A000FEF704BD002DDAD1E9E700BF41F2DC20C2F20000FDF7F4BB41F2E023C2F200034A
:2066C0001860704741F2DC20C2F20000FDF7ECBBF8B5074641F2DC20C2F200000D46164681
:2066E000FDF7E2FB18B90CE0FDF75EFC48B18488AC42F9D1846824B139462A463346A047F1
:20670000F8BDF8BD704700BF10B541F2E424C2F2000446F24D72616E04F13800C0F200023A
:206720000023FDF707F8FCF715FE636E46F26972B0FBF3F101FB1301C0F2000204F11800F9
:206740000023BDE81040FCF7F5BF00BF41F2E423C2F20003596E1A6E4900914294BF59664D
:206760005A66FFF7D1BF00BF10B5FEF7C5FDFEF76DFD002303800446FFF7A4FF60B90EE0A9
:206780002288818804EB82035980C188013299802280FDF709FC10B1037B002BF0D12388F3
:2067A0004FF6FE709B0002331840FEF749FD238803B910BD41F2E420C2F20000BDE81040AF
:2067C000FDF758BCF0B583B00F46FEF73FFD03880546ADF80030BDF80060FEF74FFDB3009F
:2067E000023383420FD802356EB1002455F8040B01340190BDF80410BDF806203846FFF704
:2068000067FFB442F2DB03B0F0BD00BF9DF80030012B00D0704741F2E423C2F200039A6DC0
:206820005A66FFF771BF00BFF8B541F2E424C2F200041546074647F2FC220E4620463946DB
:20684000C0F200021F46FDF7FFFB46F60D00A665E5652766C0F20000BDE8F840FFF72CBF96
:2068600003784BB1831C002013F8011C13F8022B0844002AF8D1704718467047072B2DE92F
:20688000F00146DDBAB9DD108C5C84540132AA42FAD113F007030BD047F21034C0F20004BF
:2068A0008D5CE15CC3F10803294041FA03F38354BDE8F00170474FEAE30808EB000C4D1EA7
:2068C000044615F8017F6E7846EA07269640C6F3072604F8016B6445F3D113F00703E7D049
:2068E00001EB080411F80850647847F2103144EA052404FA02F2C0F20001C95CC3F1080309
:2069000001EA222242FA03F300F80830BDE8F00170470D784C7847F2103144EA052404FA81
