:020000040000FA
:2000000000500020ED000000E5000000C9000000E9000000E9000000E9000000000000001A
:20002000000000000000000000000000E9000000E900000000000000E9000000E90000001C
:20004000093D0000E900000085430000E9000000E533000055390000E9000000E900000048
:20006000E9000000B1430000E9000000E9000000E9000000E9000000E9000000E90000002D
:20008000E9000000E9000000E9000000E9000000E9000000E9000000E9000000E900000018
:2000A000E9000000E9000000E9000000E9000000E9000000E9000000E9000000E9000000F8
:2000C000E90000004D4600004EF62853CEF200031A68B2F5806F03D01B689B0500D4FEE75B
:2000E000704700BFFEE700BFFEE700BF10B506F03BF840F2000140F25063C2F20001C2F2D3
:20010000000399420ED2CC431C4424F003044AF210400434C0F200000023C258CA50043393
:20012000A342FAD1064807494FF000028842B8BF40F8042BFADB01F0EBFEFFF7C5FF10BD52
:2001400050060020DB1F002008B549F2307240F24C73C2F20003C0F20002D26A197B012028
:20016000904708BD7F2002F08DB800BFF0B540F2B86340F61C05C2F20005C2F2000301276D
:2001800008248E200C2240F24C7640F230716B6085B02F706C7028726A72C2F20006C2F231
:2001A00000010023F218D289C818CA54023342F3072240F230740C2B4270C2F20004F1D1EC
:2001C00040F66C1340F28D42C2F20003C0F20002002102930192039104AF022617E907003F
:2001E000EC605D601E7002F0EDF805B0F0BD00BF2DE9F04740F28D4240F6541484B0C2F29C
:2002000000041027C0F200020021144E40F2FC7340F2B865C2F200030294019203914FF0C9
:20022000080C4FF0890E4FF00108C2F200050DEB070A4FF002091AE9070083F8008083F800
:2002400001C05D6083F808E05F72DE6084F80090636002F0B7F804B0BDE8F08768070020DF
:200260002DE9F04140F24C73C2F200031B7B41F6FF655A1ED2B2172A40F6E80440F28D42FE
:2002800084B088BFFF23C2F20004C2F20005C0F2000200212B7002940192039104AF40F23E
:2002A000EC7340F2B866C2F200034FF0080C4FF0870E17E90700C2F2000601274FF002087F
:2002C000DD6083F801C05E6083F808E01F705F7284F80080636002F075F804B0BDE8F0813C
:2002E0002DE9F04340F24C7340F2E47440F28D4285B0C2F20004C2F20003C0F200020021C0
:2003000093F80D9002940192039104AF41F6017540F65C1340F2B866C2F20003C2F2000533
:200320004FF08C0C17E907004FF008080127C2F200064FF0020EDD6083F801805E6083F8ED
:2003400008C01F705F7285F80090636084F800E002F038F805B0BDE8F08300BFF0B540F2C4
:20036000B86340F6B80440F22870C2F2000401220825C2F20003822185B0C2F20000657086
:20038000636021722270627205F0FAF941F6F865D0B9C2F20005FC232B7040F2CC6340F296
:2003A0008D42C2F20003C0F20002002102930192039104AF022617E90700E5605C601E70B5
:2003C00002F000F805B0F0BD002640F6C80040F69D22C2F200053346C2F20000C0F200021E
:2003E00010212E7004F0CAFED7E700BF70B5064640F6F0001446C2F200000A4664211D4618
:2004000001F0FAFC98B1A5B1013DEDB204F1080303EBC50501E0AC420BD040F6F00021468A
:20042000C2F20000083401F09FFC0028F3D1002070BD40F6F000C2F2000001F0BDFC00285B
:20044000F5D00220314607F05BF970B140F6F000C2F2000001F084FC014640F6F000C2F266
:20046000000001F0A3FF012070BD40F6F000C2F2000001F075FC40F6F0010246C2F200013B
:20048000304601F079FF012070BD00BF4268037801210148FFF7AABF560700202DE9F047B7
:2004A00040F64004C2F2000401274FF0020C40F2B86E41F6F66640F2B065C2F2000E224639
:2004C00039464FF08009C2F200064FF00008C2F200054FF0080A63460F4884F801A0C4F8F1
:2004E00004E02770677284F80890E66086F800806C6085F800C0FFF779FF40F6C80040F6A5
:20050000951249464346C2F20000C0F20002BDE8F04704F033BE00BF560700202DE9F0436E
:200520004B4F0246BB88386887B0ADF810300390A7F10E050023D1184C78D05CE91802336A
:2005400040EA04200C2B40F24C74C881C2F20004F1D1B4F90E30B3F5C87F03DBB4F91020CC
:20056000934245DB41F6FB660398BDF81030C2F20006FF22C5F80E003270BB8040F2A8748D
:2005800040F28D42C2F200044FF00008C0F2000240F2A06340F2B867C2F2000301250194AF
:2005A0000092CDF808804FF0080C4FF08D0EC2F200079DE80700DE6083F801C05F6083F834
:2005C00008E01D705D724FF00209636084F8009001F0F8FE41F6FD6241F60673C2F20002DB
:2005E000C2F20003157083F8008007B0BDE8F083B4F912309A42B5DAB4F914209342B1DA5A
:2006000041F288339A42ADDCB4F91630002BA9D1B4F91880B8F1000FA4D1204601F038FFEF
:2006200030B141F6FB66C2F2000686F80080A5E70398BDF8102041F6FB66C4F80E00C2F267
:200640000006F7232046BA80337001F021FF95E75A0700202DE9F0432C4C89B0054604AE32
:2006600094E80F0086E80F0028686968AA68EB6825460FC5A4F11C0001F00AFF41F6FA652C
:20068000C2F20005B0B300232B7040F2987440F28D42C2F200040027C0F2000240F2886391
:2006A00040F2B866C2F2000301924FF0010E029403974FF0880C01AA4FF00808C2F200069B
:2006C000DD6083F801805E6083F808C083F800E083F809E04FF0020907CA636084F8009037
:2006E00001F070FE41F60673C2F200031F7009B0BDE8F08396E80F00F72784E80F00A4F119
:200700001C002F7001F0C4FEBFE700BF680700202DE9F04102780121531E994042F2904343
:20072000C0F2FD0340F24C74C2F200040B40267B86B02273002B48D141F60375C2F20005FA
:20074000F92326732B7040F20C7440F28D42C2F20004C0F20002002140F2786340F2B866AC
:20076000C2F200030194009202914FF0080C4FF0860E0127C2F20006DD6083F801C05E60C9
:2007800083F808E01F705F724FF002089DE80700636084F8008001F015FE2B7863B940F20D
:2007A0004912C0F20002802104930392059106AB13E9070001F006FE41F60673C2F20003B7
:2007C00000221A7006B0BDE8F081204601F060FE41F6037520B1C2F2000500232B70B2E75C
:2007E000C2F20005F723204626732B7001F050FEA9E700BF2DE9F0434278037840F24C748E
:2008000043EA0223A3F10A0189B242F62622C2F200049142658B85B0638342D941F60576C9
:20082000C2F20006FF236583337040F6140540F28D42C2F200054FF00008C0F200020295B6
:200840000192CDF80C8004AB40F2187440F2B867C2F2000413E907004FF0080C01234FF085
:20086000810EC2F20007237063724FF00209E66084F801C0676084F808E085F800906C60F5
:2008800001F0A0FD40F6C80040F695124346C2F20000C0F20002802105B0BDE8F04304F0DC
:2008A0006DBC204601F0F4FD41F6057620B1C2F2000600233370B8E7C2F20006F7232046EB
:2008C0006583337001F0E4FDAFE700BF2DE9F0432F4C87B0034601AE94E8030086E8030083
:2008E00018685968234603C3201F01F0D1FD41F6F965002840D041F6FE63C2F2000500214B
:20090000C2F20003012229701A7040F6340440F28D42C2F200040027C0F2000204940392AB
:2009200005970DF1180E40F2887340F2B866C2F200034FF0850C1EE907004FF008084FF057
:20094000010EC2F20006DD6083F801805E6083F808C083F800E083F809E04FF002096360C8
:2009600084F8009001F02EFD41F60673C2F200031F7007B0BDE8F08396E80300C2F2000550
:20098000F72384E80300201F2B7001F081FDBCE75007002002F0D4BD40F24C73C2F2000340
:2009A00049F21C622DE9F00140F2145000244FF4C86103F11C05C0F20002588299825C62D5
:2009C00007CA9C62DC821C8341F2193603C5C0F2CC06194641F8046B13279C264FF47A7845
:2009E0004FF4FA704FF03C0C5C60A3F810804C60A3F81AC01F735E73D8812A80BDE8F001BF
:200A0000704700BF2DE9F04F40F23C7440F24C75C2F200044FF0010E4FF00209C2F200052D
:200A200040F2B86C41F6077740F62C06C2F2000C224671464B4681B0C2F200074FF00008A0
:200A4000C2F200064FF0080B4FF0840A05F10A00C4F804C084F800E084F809E084F801B04F
:200A600084F808A0E76087F80080746086F80090FFF7BCFCFFF790FF284601F009FD40F65C
:200A8000C80040F695124346C2F20000C0F20002802101B0BDE8F04F04F070BB2DE9F0471E
:200AA00040F67413C2F20003D3F800E040F2D464C2F20004022740F63C0540F2B86640F2D3
:200AC0002840C2F200054FEA2E2A4FF001094FF00808C2F200064FF0210C22463B46C2F209
:200AE0000000002185F801A085F800E0E56084F8009084F80180666084F808C06772FFF733
:200B000075FCBDE8F047102001F0C8BB2DE9F04F40F6500441F6F765C2F20004C2F2000501
:200B20008FB022462B4601F079F90128074602D00FB0BDE8F08F41F6FC66C2F2000696F82E
:200B40000090B9F1000FF3D11A2095F8008006F0A5FAB44906F0ECF8627823788DF821209A
:200B60008DF82030BDF8202040F601039A420546377006D041F60473C2F2000383F800905D
:200B8000D6E740F2B860C2F20000A11C082208F07DFB002840F08481022741F60472C2F25C
:200BA0000002B8F10A0F17705DD940F60C0740F6500341F6FE6C40F2C06040F26D11EDB2A0
:200BC000C2F2000CC2F2000741F6007941F6067AC2F20003C2F20000C0F2000106950796DD
:200BE000BB466646C2F20009C2F2000A049005910A250093944662195278605D7A70387073
:200C0000002A00F05781009BA91C1944CBF8041099F80010002940F050819AF800100029B8
:200C200040F04B8180380E2817D8DFE810F00F012101FD001600D400C900B600A400920046
:200C4000830016006A004D001F000F00317821B19CF80010022900F05A8102321544EDB2D5
:200C6000A845C8D8079E0023337061E731780029F3D09CF800100229EFD1069B002BECD088
:200C8000049B796840F21D52C0F2000200201A605960986041F6FD630193049B41F6FD6EC8
:200CA000C2F2000E93E807004FF000038EF800304FF0010ECDF80CC08AF800E001F082FB49
:200CC0007A78DDF80CC0C8E731780029C5D09CF800100229C1D1069B002BBED040F2E1227B
:200CE000C0F20002049B00211A605960996093E80700CDF80CC001F065FB7A78DDF80CC05D
:200D0000ABE731780029A8D09CF800100229A4D1069B002BA1D041F289127968C0F2000213
:200D2000049B00201A605960986093E807004FF0010EBFE7317800298FD09CF80010022953
:200D40008BD1069B002B88D040F2F112C0F20002C8E73178002980D09CF8001002297FF417
:200D60007CAF069B002B3FF478AF40F255627968C0F20002D4E7317800293FF46EAF9CF833
:200D8000001002297FF469AF069B002B3FF465AF40F26122C0F20002A4E7317800293FF481
:200DA0005CAF9CF8001002297FF457AF069B002B3FF453AF40F211727968C0F20002AFE7FF
:200DC0009CF8001002297FF448AF40F6CD027968C0F20002A4E7317800293FF43EAF9CF82F
:200DE000001002297FF439AF069B002B3FF435AF40F60522C0F20002049B00204FF4807176
:200E00001A605860996093E807004FF0010E89F800E0CDF80CC001F0D5FA7A78DDF80CC092
:200E20001BE700BF56070020317800293FF415AF9CF8001002297FF410AF069B002B3FF4AB
:200E40000CAF40F25D32C0F200024BE7317800293FF403AF9CF8001002297FF4FEAE069BEA
:200E6000002B3FF4FAAE40F29D42C0F20002C3E7317800293FF4F1AE9CF8001002297FF417
:200E8000ECAE069B002B3FF4E8AE049B40F2F5727968C0F2000200201A6059609860B2E772
:200EA0000320A11C06F02CFC4FF0030900283FF461AE72E6CBF80420AAE640F29864C2F2CE
:200EC0000004FC232371079E00F022FF40F2A073C2F200031A6801210825236058600B9200
:200EE0008DF829508DF82810037840F2D0748DF8303085780223C2F2000411480AAA8DF8F5
:200F000031500D94FFF772FA0023337010E6069B002B3FF4A2AEDDF810E0059B0022CEF8F5
:200F20000030CEF80420CEF808209EE80700CDF80CC001F047FA7A78DDF80CC08DE600BF94
:200F40005607002008B500F17803DBB23C2B49F23073C0F2000391BF0146DB6A07206FF002
:200F600063019CBFDB6A0720984708BD2DE9F041048882B00546CCB1B4F5A46F10D1882987
:200F800076D041F6D873C2F200031B788B4200F09D804FF4A46301202B8002B0BDE8F08187
:200FA00000230380032002B0BDE8F08149F23077C0F200077B6A984740F2B86641F2B130DD
:200FC000C2F20006C0F2000002F07CFC3046082102F0F8FAFFF7E0FC96E8030040F2787348
:200FE000C2F2000340F2A07241F6FE6C41F6FD6EC2F2000CC2F2000EC2F200024FF0010833
:2010000083E803008CF800808EF8008082E818001C72DA6040F24C7400F00AFAF679C2F205
:20102000000440F21473C2F20003FA6A217B06F07F0640461E609047607BFFF783FF00F0A3
:20104000E1F940F60D30C0F20000014601F062F940F2C070C2F200004FF4F05104F09CF9DB
:2010600040F22870C2F20000372104F081FB90E740F2C073C2F200039A4282D149F2307489
:20108000C0F20004236A0192984741F6FE63C2F200031B78019A002B69D10192636A98477A
:2010A00040F24C73C2F20003598B40F2C070C901C2F2000004F070F941F6D873C2F200032E
:2010C0001B78019A882B7FF464AF02E0002A3FF460AF104608F0D6F8044640F22870C2F277
:2010E000000004F04DFB30B3B4F5967F29DB41F6FD63C2F200031A7840F67413C2F20003BB
:201100001C60F2B140F24C73C2F20003B3F90E20944228DBB3F9102094422DDBB3F91220BD
:2011200094422DDBB3F914309C42B4BF2020012001F09EF805E041F6FD63C2F200031B78E2
:201140006BB940F6C80040F26512C2F20000C0F200024FF48071002304F010F819E74020A9
:2011600001F086F8EDE7022001F082F8E9E70020FFF794FC019A90E7042001F079F8E0E7CA
:20118000102001F075F8DCE72DE9F043037840F24C7403F17802D2B2C2F200043C2A667B57
:2011A00085B063733DD941F60275C2F20005FF2366732B7040F6B00440F28D42C2F200046E
:2011C0000027C0F200020294019203970DF1100E40F2B07340F2B866C2F200034FF08B0C23
:2011E0001EE907004FF008084FF0010EC2F20006DD6083F801805E6083F808C083F800E0F5
:2012000083F809E04FF00209636084F8009001F0D9F841F60673C2F200031F7005B0BDE83F
:20122000F083204601F034F941F6027540B9C2F20005F723204666732B7001F029F9B9E7B0
:20124000C2F200050023607B2B70FFF77BFEB1E72DE9F04704880746752C1BD08F2C06D0F2
:20126000002C49D0002303800320BDE8F08785294FD140F67C1440F6781640F68015C2F26D
:201280000004C2F20006C2F20005002323603360A5F8803040F67C1640F68C2540F67818DC
:2012A000C2F20006C2F20005C2F200084FF0000A4FF001090BE033687E2BE854D9BF013336
:2012C0002360C4F800A0C8F800900A2824D040F68420C2F2000004F0BDFB40F67C1440F683
:2012E0008C21431CC2F20004C2F20001E3D175233B800120BDE8F08704F02EF941F6D87295
:2013000040F67C13C2F20002C2F2000310701C60C0E70120BDE8F08740F67816C2F200063D
:2013200033685BBBD4F8008040F68015C2F2000540F68C2128464246C2F2000107F0DAFFCE
:20134000A5F8808041F6D873C2F2000340F680121978C2F20002002004F08EF941F2303377
:20136000C2F2000318688521002204F085F900288BD18F233B800120BDE8F087D4F8008082
:2013800040F68015C2F20005C8F1800941444A46284607F0AFFF40F68C2105EB09004246FB
:2013A000C2F2000107F0A6FF8023A5F88030C9E710B5014678B141F60874C2F20004237801
:2013C00053B10A2813D040F23C40C2F2000004F0A7F9012010BD10BD40F68420C2F20000B5
:2013E00004F020FB0028EED101232370EBE740F68420C2F2000004F015FB0028E3D00023DE
:201400002370E0E708B540F6842040F60421C2F20000C2F20001802204F0FCFABDE808409E
:2014200040F23C40C2F20000002104F057B900BFF0B441F69072C2F20002167841F6187383
:20144000C2F20003002E00F05B84197801291AD0751EEDB205EB45051D44184603E010F81D
:20146000034F012C0DD0A842F9D106EB46010136F6B20125581808245D54167044708EB159
:201480001978022919D041F61874C2F200041678002003E014F8035F022D0CD00130C0B27F
:2014A000B042F7D306EB4600022119541C18013661701978167006291AD041F61874C2F2C6
:2014C00000041678002003E014F8035F062D0DD00130C0B2B042F7D306EB46010620585490
:2014E00001365818012419781670447010291AD041F61874C2F200041678002003E014F81A
:20150000035F102D0DD00130C0B2B042F7D306EB46011020585401365818012419781670F9
:20152000447011291AD041F61874C2F200041678002003E014F8035F112D0DD00130C0B29B
:20154000B042F7D306EB46011120585401365818022419781670447012291AD041F618743A
:20156000C2F200041678002003E014F8035F122D0DD00130C0B2B042F7D306EB46011220CF
:20158000585401365818022419781670447014291AD041F61874C2F200041678002003E0D4
:2015A00014F8035F142D0DD00130C0B2B042F7D306EB4601142058540136581802241978CA
:2015C0001670447021291AD041F61874C2F200041678002003E014F8035F212D0DD00130C7
:2015E000C0B2B042F7D306EB460121205854013658180224197816704470AF291AD041F607
:201600001874C2F200041678002003E014F8035FAF2D0DD00130C0B2B042F7D306EB460137
:20162000AF205854013658180224197816704470A0291AD041F61874C2F2000416780020BB
:2016400003E014F8035FA02D0DD00130C0B2B042F7D306EB4601A020585401365818302491
:2016600019781670447076291BD041F61874C2F200041678002003E014F8035F762D0ED01A
:201680000130C0B2B042F7D306EB4600762119540124184401361978167044708470772999
:2016A0001CD041F61874C2F200041678002003E014F8035F772D0FD00130C0B2B042F7D3E2
:2016C00006EB4600772119540136184400250124197816704570847078291CD041F61874E1
:2016E000C2F200041678002003E014F8035F782D0FD00130C0B2B042F7D306EB4600782180
:2017000019540136184400250124197816704570847070291CD041F61874C2F20004167831
:20172000002003E014F8035F702D0FD00130C0B2B042F7D306EB4600702119540136184495
:2017400000250124197816704570847079291BD041F61874C2F200041678002003E014F8DA
:20176000035F792D0ED00130C0B2B042F7D306EB4600792119540124184401361978167017
:20178000447084707A291CD041F61874C2F200041678002003E014F8035F7A2D0FD00130E1
:2017A000C0B2B042F7D306EB46007A21195401361844002501241978167045708470802976
:2017C0001CD041F61874C2F200041678002003E014F8035F802D0FD00130C0B2B042F7D3B8
:2017E00006EB4600802119540136184400250124197816704570847081291CD041F61874AE
:20180000C2F200041678002003E014F8035F812D0FD00130C0B2B042F7D306EB460081214C
:2018200019540136184402250124197816704570847082291CD041F61874C2F200041678FC
:20184000002003E014F8035F822D0FD00130C0B2B042F7D306EB4600822119540136184450
:2018600000250124197816704570847084291CD041F61874C2F200041678002003E014F8AD
:20188000035F842D0FD00130C0B2B042F7D306EB4600842119540136184400250124197840
:2018A00016704570847085291CD041F61874C2F200041678002003E014F8035F852D0FD054
:2018C0000130C0B2B042F7D306EB46008521195401361844082501241978167045708470BA
:2018E00086291BD041F61874C2F200041678002003E014F8035F862D0ED00130C0B2B042AE
:20190000F7D306EB460086211954012418440136197816704470847087291CD041F61874DC
:20192000C2F200041678002003E014F8035F872D0FD00130C0B2B042F7D306EB460087211F
:2019400019540136184400250124197816704570847088291CD041F61874C2F200041678D7
:20196000002003E014F8035F882D0FD00130C0B2B042F7D306EB4600882119540136184423
:2019800010250124197816704570847089291CD041F61874C2F200041678002003E014F877
:2019A000035F892D0FD00130C0B2B042F7D306EB4600892119540136184400251024197806
:2019C000167045708470A1291BD041F61874C2F200041678002003E014F8035FA12D0ED0FD
:2019E0000130C0B2B042F7D306EB4600A12119540124184401361978167044708470A229E0
:201A00001CD041F61874C2F200041678002003E014F8035FA22D0FD00130C0B2B042F7D353
:201A200006EB4600A221195401361844002501241978167045708470A3291CD041F6187427
:201A4000C2F200041678002003E014F8035FA32D0FD00130C0B2B042F7D306EB4600A321C6
:201A6000195401361844002501241978167045708470A4291CD041F61874C2F2000416789A
:201A8000002003E014F8035FA42D0FD00130C0B2B042F7D306EB4600A421195401361844CA
:201AA00002250B241978167045708470A5291CD041F61874C2F200041678002003E014F83E
:201AC000035FA52D0FD00130C0B28642F7D806EB4600A521195401361844012502241978DF
:201AE0001670457084708A291CD041F61874C2F200041678002003E014F8035F8A2D0FD008
:201B00000130C0B2B042F7D306EB46008A2119540136184400252F2419781670457084704C
:201B20008B291BD041F61874C2F200041678002003E014F8035F8B2D0ED00130C0B2B04261
:201B4000F7D306EB46008B21195401241844013619781670447084708C291CD041F6187490
:201B6000C2F200041678002003E014F8035F8C2D0FD00130C0B2B042F7D306EB46008C21D3
:201B80001954013618440025012419781670457084708D291CD041F61874C2F20004167890
:201BA000002003E014F8035F8D2D0FD00130C0B2B042F7D306EB46008D21195401361844D7
:201BC0000C25012419781670457084708E291CD041F61874C2F200041678002003E014F834
:201BE000035F8E2D0FD00130C0B2B042F7D306EB46008E2119540136184400250C241978BE
:201C0000167045708470A6291CD041F61874C2F200041678002003E014F8035FA62D0FD0AE
:201C20000130C0B2B042F7D306EB4600A62119540136184402250624197816704570847036
:201C4000A8291CD041F61874C2F200041678002003E014F8035FA82D0FD00130C0B2B04204
:201C6000F7D306EB4600A821195401361844002505241978167045708470A72924D041F691
:201C80001874C2F200041678002003E014F8035FA72D17D00130C0B2B042F7D306EB4604AC
:201CA000751C1819EDB24FF0A70C0427012641F6187103F804C01570C2F200014770867019
:201CC0008DB10978A92919D041F61870C2F200001578002103E010F8034FA92C0ED0013147
:201CE000C9B2A942F7D305EB450019180135A927002601241F5415704E708C70F0BC7047E8
:201D000001210820587019701170FFF7B9BB00BF70B441F69073C2F200031D78F5B141F6F7
:201D20001876C2F200063378834211D0013DEDB201353246012303E012F8031F814208D0B1
:201D4000AB421C4603F10103F6D1002070BC7047002404EB4404A01970BC70472846F5E731
:201D600040780230C0B2704770B543784A780D46991C11446229044602DC0178402901D0EB
:201D8000002070BD591C465C08447D2EF8D103321344E6542B7863546B784370696819B1CE
:201DA00002306A7807F0A6FA6B786278023313446370012070BD00BFF8B545780446602D0E
:201DC00002DC0378402B01D00020F8BD6E1C835D87197D2BF8D1AB1C294600F8013F00228E
:201DE00003F078FDA15D0346020A03356155A3557A700120F8BD00BF042910B481BF02216F
:201E000040247D23827083BF04704170C370002088BF01205DF8044B704700BF2DE9F84F33
:201E20000F46064690469946002400F1010B00F1030A21B914E00134A4B2A74210D9355D70
:201E4000402DF8D133195D7802352C44BC421EDC741914F8013C7D2B05D00124A742EED865
:201E6000FF20BDE8F88F00225846291F03F032FD14F8022C14F8033C03EB02239842ECD1BE
:201E8000B378012B09D0AF4204D02C46D5E70020BDE8F88F0120BDE8F88FAC1F22464046CD
:201EA000514607F027FA89F80040ECE7F0B5002783B005463E463C46284600F0D9F90194CA
:201EC000019B9E4206DD00BF019B01330193019B9E42F8DC284600F0D5F90194019BC6F518
:201EE000C876B34206DA00BF019B01330193019BB342F8DB0137B7F5487F06D0B7F5C87FD4
:201F0000CCBFC7F548763E46D6E703B0F0BD00BF2DE9F0414FF4EC74C1F2000423684FF4ED
:201F2000804084B05B68C4F2030001219847236801214FF480400A461B68C4F20300984715
:201F400003F070FF01F0FAFE01F0A0FE00F05EFB01F0C6FE00F082F944F20C000821C4F21D
:201F600009010123C4F2090042F22C02C4F2090203600B6018461368FFF798FF03F056FFD5
:201F800001F09EF901F0F4F803F0DAFB01F0A0FA03F0EAFA41F2342002F04CFA01F068FC9E
:201FA00003F082FC49F25060C0F2000001F0D4FA03F09AFE49F24C6549F2486410F0040FE3
:201FC000C0F20005C0F200040CBFA846A04603F093FE012814BF2F46274603F085FE10F01D
:201FE000020F0CBF2E46264603F07EFE10F0080F08BF2C4649F25C603A463346009441465B
:20200000C0F2000002F06EFB40F2F8400021C2F2000003F063FB03F075F803F0F1F81020B7
:20202000FFF744FF49F29060C0F2000002F05AFB4AF25023C0F20003186801F08DFA49F2AC
:202040009860C0F2000002F04DFB4AF27823C0F20003186801F080FA49F2A060C0F2000038
:202060004AF29C2402F03EFBC0F2000449F2A8602168C0F2000002F035FBE469A04738B1C6
:20208000A047014649F2AC60C0F2000002F02AFB0A2001F059FA04F055FE02A8082101F089
:2020A00091FA49F230749DF80F20BDF80E109DF80E6041F69873C2F20003C0F200041980D4
:2020C00042EA0626E56A4AF6CD310220A84731460320A84701200146A847636B082202A987
:2020E0000B2098470420FFF7E1FE40F24C400021C2F2000003F0F2FA49F21460C0F200000A
:2021000002F0A2FF01F0F4F91020FFF7CFFE03F049FA044601F006FA14F0FF0FF7D101F01F
:2021200053FCF4E72DE9F04105888046772D42D07E2D36D025B1002303800320BDE8F081BF
:2021400003F00AFA40F27846C2F2000641F6D97340F60C343268C2F20003C2F20004187054
:202160002560002A62D02B4641F694751F46C2F20005EF5493688020002198472368013312
:2021800056F823202360002AF3D1DBB241F60971C2F200010B707723A8F800300120BDE89F
:2021A000F08141F6D973C2F200031B788B4223D00120BDE8F08141F60977C2F2000740F642
:2021C0000C3440F610363A78C2F20004C2F2000600239342336023600ADA41F69475C2F239
:2021E0000005E956002923DB013393422360F4DB3368002BECD1CEE740F60C3441F694752B
:2022000041F6097740F61036C2F20004C2F20005C2F20007C2F2000623683268E85C511CCF
:2022200000F07F003A78E8543160DDE71346ADE741F6D97140F27842C2F20001C2F2000227
:20224000097852F82320002003F016FA0028E3D17E23A8F800300120BDE8F08108B500F01C
:202260001DF941F60A73C2F2000300221A7008BD41F60A73C2F200031A78024310461A704A
:2022800000F03CB941F60A73C2F200031A7822EA000210461A7000F031B900BF41F60A7321
:2022A000C2F200031A78424010461A7000F026B9704700BF704700BF704700BF38B540F223
:2022C0005C43C2F200035C6804F0FEFD054604F013FE01462846A04738BD00BF38B540F236
:2022E0005C43C2F200031C6804F0EEFD054604F003FE01462846A04738BD00BF08B51B209D
:2023000004F0CCFEBDE808404AF26C21C0F2000104F00EBD38B549F2D862054640F61430B0
:20232000C2F20000C0F200020C46922103F090FC40F6303049F2E062C2F20000C0F2000236
:20234000812103F0B3FB40F25C432DB1C2F200031D6054B15C6038BD42F2B122C2F20003E3
:20236000C0F200021A60002CF4D142F2B522C0F200025A6038BD00BF38B541F69873C2F22E
:2023800000031D88038804469D420CD00846114604F002FE40F614302146C2F2000003F0E4
:2023A0006BFC012038BD002038BD00BF08B504F0F3FD40F63030C2F2000003F08BFB012047
:2023C00008BD00BF2DE9F04F85B004AB03E90700DDF80480029EDDF80CA0B8F1000F0DD03E
:2023E00040F64834C2F200040025204602F0EAFE38B901350F2D04F12004F6D105B0BDE871
:20240000F08F204651464246334616B340F6285C4FEA850BC2F2000C0BEB050906F1200315
:202420000CEBC9090093F36830687168B2684F460FC7009B10369E42B946F4D130687168F9
:202440000BEB0503A9E803000CEBC30342462046514605B0BDE8F04F02F090BE70B505465F
:202460000E46144605F0E8FC70B12846214605F07BFD48B121463246284605F01BFD0446D5
:2024800005F010FD204670BD05F00CFD002070BD01462C220020FFF7E1BF00BF38B540F62F
:2024A0008073C2F200031A6832BB01254FF4DA74C1F200041D6023680620DB6B98472368B7
:2024C0002846DB6B984723680720DB6B984723681B20DB6B984723680B20DB6B9847236841
:2024E0001C20DB6B984742F2900340F6C202C4F20203C1F600021A6038BD00BF41F60B7363
:20250000C2F2000342F2900240F6C20170B4C4F202021870C1F60001C307116008D542F2DB
:20252000A003C4F2020340214FF0006219601A60460708D542F2A003C4F2020302214FF426
:20254000006219601A60850708D542F2A003C4F2020380214FF0805219601A6004070DD599
:2025600042F2A003C4F2020302254FF4006480214FF080521D601C6019601A60C1060DD5B4
:2025800042F2A003C4F2020340254FF0006402214FF400621D601C6019601A6082060DD583
:2025A00042F2A003C4F2020340254FF0006480214FF080521D601C6019601A60430612D5B3
:2025C00042F2A003C4F2020340264FF0006502244FF4006080214FF080521E601D601C606D
:2025E000186019601A6070BC704700BF10B54FF4DC74C1F20004236804205B6998472368E2
:2026000004205B6B98470128F9D110BDF0B58BB003F008FC0746FFF7E9FF4FF4DC73C1F2EA
:2026200000031B684FF4A060DB69984742F22803C6F20803012142F228021960C4F20802D3
:2026400013689907FCD505F0DDFC49F2E86440F26440C2F20000C0F200046D4601F006FB54
:202660000FCC0FC50FCC0FC594E80300009C85E80300621C1EBF4FF4DA756E46C1F2000518
:202680000DD02B6820469B6B98472B6820469B694FF40051984756F8044F631CF1D14FF4EA
:2026A000DA74C1F20004236818209B6B984723684FF4005118209B69984723680D209B6B75
:2026C000984723680D209B694FF4804198470FB10BB0F0BD0BB0BDE8F04003F0A7BB00BFB0
:2026E00000207047B0F1810358425841704700BF813801288CBF0020012070470120704738
:202700000120704708B501F0C3FB48B140F25453C2F200035888022814BF0220012008BD07
:20272000022008BD10B582B001F020FE044601F0AFFB08B902B010BD0120C0F2014001A9C9
:2027400001F0AEFB0128F5D1638803F44063002BF0D1638803F44063002BF5D0EAE700BF7A
:2027600030B583B001F094FB40F25454C2F20004A8B900256580A37F40F254505BB2C3F507
:20278000FF6307339BB2C2F2000001A9238301F087FB012818BF284608D003B030BD638808
:2027A000022B08BF0120E4D103B030BD00F086FD4FF6C075CFF6FF752D1A03E000F07EFDF4
:2027C000C54203D563889BB2022BF7D1608880B2831E58425841E0E708B5B32994BF0A46FC
:2027E000B4220146024806F085FD002008BD00BF9E0F002070B540F69075C2F200052C68DC
:20280000002603E024682B68A3420DD02379032BF8D140F2AC40C2F2000002F081FF24686B
:202820002B680136A342F1D1304670BDF8B540F69874C2F2000425682B79032B18BF002681
:2028400001D03046F8BD2E89023E002E0CDD8E4205F10A070EDDB957042089B204F002FC4B
:2028600003207F2104F0FEFB2B68002223602A713046F8BD3946324606F03CFDEBE700BFF3
:2028800010B582B001F004FBF8B140F25454C2F2000463880120022B15D101A9C0F201405A
:2028A00001F0FEFA02E06388022B03D101F0F0FA0028F8D16088A0F55050043880B20128E1
:2028C0008CBF0020012002B010BD012002B010BD10B540F2944340F29C54C2F20004C2F2F1
:2028E00000031A680521237E84F82410928882B003F0F80343F00803204601A962832376D6
:2029000001F0CEFA012818BF002001D002B010BD204601F01BFB421E5042504102B010BD1F
:2029200000B540F2845083B0C2F2000001A901F0B7FA012818BF002002D003B05DF804FBB0
:2029400040F28450C2F2000001F000FB411E4842484103B05DF804FB08B5FFF7B9FF0128C4
:2029600001D0002008BDFFF7DBFF0128F9D1FFF7F7FEC0B208BD00BF08B501F04FFD0128DA
:202980000BD0FFF77DFF01F0E3FB01F037FA40F25453C2F2000300225A80012008BD00BFC8
:2029A0002DE9F84F01F03AFD01282AD001F0F4F901F06EFAF0B901F06BFA044620B30020FC
:2029C00001F072FC8B4A0027A2F18C0E734602F50C760225842459791A6001F0FC011046DE
:2029E0008C3265F38301B2421F71DC80597115D00346F0E740F25453C2F200035B88022BEE
:202A0000D9D10120BDE8F88F01F0BAFA0128054610D001F09DFB0020BDE8F88FCEF8A4E1A6
:202A200001F0D2F9FFF754FF012800F0D9800020BDE8F88F01F00EFC40F21C4049F61C618E
:202A4000C0F200014FF42C72C2F2001006F052FC4FF4647B40F2793840F2753CC2F2001B23
:202A6000C2F20018C2F2001C40F2773E40F2AE3740F2AB3640F2813040F24D314FF47073F0
:202A800040F2CD524FF0020A8BF80040C2F2001E88F80050C2F200178CF800A0C2F200167C
:202AA000C2F20010C2F20011C2F20013C2F200124FF003094FF0040B05244FF006080725C5
:202AC00041F21C0C8EF80090C4F2040C87F800B0347080F800800D701A60DCF8003041F2C6
:202AE0001C01C4F20401002BF7D049F26879C0F2000900204FF440434CF2A06A4A4608600F
:202B0000C2F20013C2F2001A00E00B4609EB030101F15F41A1F54041D1F80080D2F804C077
:202B2000D2F808E0D768166955699469D06903F120015145C3F8008002F12002C3F804C0B7
:202B4000C3F808E0DF601E615D619C61D861DCD14CF2806343F660104FF4815E46F61377C1
:202B600041F2116646F6543541F21C044FF4805240F20111C2F20013C0F20E41C1F6102E7D
:202B80004FF0000CC4F20402C6F25330C4F20404C6F62367C1F21266C7F200051862C3F8D1
:202BA00024E001209F62DE621D63C4F800C0116003F04AFA40F29C50C2F2000003F0AAF9A3
:202BC00021460A6841F21C03C4F20403002AF8D000221A6001F046FA01283FF4F0AE18E755
:202BE000FFF79EFE01287FF422AFBDE8F84FFFF7B7BD00BFE010002070B582B0072800F239
:202C00009480DFE800F08C04929227922A69202900F2888040F28453C2F20003188ADC89DF
:202C20004FF47A7202FB04F402FB00F2A4F55F2402F57F42A4F66C64FF3248F21F5004EB7A
:202C40001242C5F2EB10A0FB0240CAB2C0F38710824275D1002002B070BD4AF2CC05C0F203
:202C60000005AE884FF6FF70864208BFFF2209D02B46002208339C8801328442D2B2F9D1A3
:202C8000013AD2B255F832304AF2CC049942C0F2000447DB2368994244DC0191FFF742FDBA
:202CA0004FF6FF70864201997ED000230834A28801338242DBB2F9D1013BDAB205EBC2045A
:202CC0000023E058083B814266DD12F1FF32F8D2FFF742FE0020BEE740F24E63C2F20003BD
:202CE000197001F0D5F810B340F25453C2F200035B88022B08BF002519D1FFF7C1FD012877
:202D000014BF03240024FFF727FE012818BF03242046002D9FD0FFF72FFE20469BE701291C
:202D200035D071B3022002B070BD012093E7FFF737FE012808BF0546DFD0032002B070BDB7
:202D4000C82000FB01F044F6D35200F55F20C1F2620200F66C60A2FB00414FF618448909E2
:202D6000CFF6FF7404FB01000004A2FB004040F29C5289B28009C2F200021882D981118417
:202D8000AFE70191FFF7F8FD0199084663E7FFF707FE0128D1D15DE740F2944305EBC20227
:202DA000C2F200031A6093E7FF2287E72DE9F0430C4683B069B1102800F2A880DFE800F0E8
:202DC0001523A6A6A6A6949D43A6A6A6A673767A0D00022003B0BDE8F0834AF2CC03C0F2FD
:202DE00000031B6800202360F4E701F051F838B140F25453C2F200035888851E6842684146
:202E000020600020E6E740F28453C2F200031A8AD9894FF47A7303FB01F103FB02F3A1F5D6
:202E20005F2103F57F43A1F66C61FF3348F21F5201EB1343C5F2EB12A2FB0312C2F3871221
:202E400022600020C6E701F023F8002860D040F25453C2F200035B88022B08BF4FF0000910
:202E600056D1092680254FF0000840F2034701A86946CDF80480ADF8047001F011F8731E4F
:202E800030B19DF80250680602D113F0FF06EED1B9F1000F42D168B2206010F1800F0CBFA1
:202EA0000320002096E70020206093E72023236000208FE74AF2CC05C0F20005AB884FF6A0
:202EC000FF70834208BFFF2209D02B4600220833998801328142D2B2F9D1013AD2B255F8BE
:202EE00032300020236075E740F29443C2F200031B6800201B6823606CE740F24E63C2F21E
:202F0000000393F900300020236063E7012061E7FFF746FD012804D18146A2E7FFF72CFDF6
:202F2000B9E76FF07F032360032053E770B582B0044600F0ADFF80B340F25453C2F2000330
:202F40005B88022B08BF002627D1221DA01C40F69C7340F2C454C2F2000392B2C2F200043F
:202F600080B2110A2082E36159701A70FFF788FC0020014601F0D8F9204601A900F090FF99
:202F80000125C0B9002001F0E5F900236380FFF7E7FB284656B902B070BDFFF701FD01284C
:202FA00008BF0646D1D0012002B070BDFFF7E4FC284602B070BD00F0B5FA638803F4406316
:202FC00033B900F0F7FC638803F44063002BF8D06588ADB2B5F5505518BF0125D2E700BF9A
:202FE00010B5B32994BF0A46B4220C460146044806F080F92046BDE81040FFF797BF00BFFD
:203000009E0F002030B583B001F008FA012825D000F03EFF20B340F2C453C2F200035B88D7
:20302000022B18BF002528D0802403E09DF80640630607D10120C0F2034001A900F030FFED
:203040000128F3D0B5B940F24E63C2F2000393F9000064B2A042D4BF0020012003B030BD84
:20306000FFF79EFC012808BF0546DDD0FFF784FC0120F3E7FFF780FCE5E70120EEE700BF74
:2030800008B500F005FF70B140F25453C2F200035B88022B06D1FFF7B5FF10F1FF3018BF36
:2030A000012008BD002008BD40F28040F8B5C2F2000000F0DBFD02F01FFE012802D00024FC
:2030C0002046F8BD41F25404C2F20004204600214FF40C7206F084F940F6847640F6987168
:2030E00040F6907340F2545040F29C5540F28452C2F20003C2F2000040F2953EC2F2000270
:20310000C2F2000144F6CC4C0027C2F20006C2F200050C6083E890008362C662A5F820E0FD
:20312000A2F80EE0A2F810C0FFF73AFC01280446C5D149F22870C0F2000001F01DF940F2AA
:20314000AC403946C2F2000002F0C8FAB8E700BF10B54FF4DC74C1F20004236804205B69BC
:203160009847236804205B6B98470128F9D110BDF8B540F25061C2F2000100220023C1E928
:2031800000234FF4DC73C1F200031B6804205B6B9847012801D0FFF7DBFF4FF4DC73C1F269
:2031A00000031B680020DB69984742F22803C6F20803012142F228021960C4F208021368F0
:2031C0009B07FCD50C23C4F2010319684FF4E47221F4807121F001011960C1F200021368B7
:2031E0000024C4F201044FF404511B682046C0F20041984704233C2108221F46C4F20101D2
:203200003126C4F2010240F22125C4F22433012027600E6015601860F8BD00BF10B442F2AA
:20322000080342F20C04C4F20903C4F209041968226818688142FAD1C90140F2506001EB09
:203240005262C2F200000023C0E900235DF8044B03C8704710B542F2080342F20C04C4F2F3
:203260000903C4F209041968226818688142FAD1C90140F2506001EB52620023C2F2000043
:20328000C0E9002302F098F800B910BDBDE8104002F07CB810B502F0C5FD42F20803C4F2D1
:2032A00009031C6808B902F0C1FD204610BD00BF704700BF0146012000F058B802F000BD8E
:2032C0002DE9F04102F0AEFD002642F204034FF48032C4F2090301240027C4F224364FF453
:2032E00080714FF4C2753760C1F200051C6019601A602B6880461B683846232198472B6895
:2033000020461B68242198472B6802201B68252198474FF40053C4F20903196842F208022C
:2033200041F4E021C4F209021960176002F0C8FC42F21C024FF4287300F50070C4F224334E
:20334000C4F209024FF4D8711060C1F200011C6034600B6814201B699847B8F1000F01D059
:20336000BDE8F081BDE8F04102F060BD431E042818BF012B10B42CD810F001021EBF42F2E6
:203380001803C4F20903196010F002031EBF42F21C04C4F20904216010F004001EBF42F248
:2033A0002004C4F2090421602AB14FF42072C4F22432012111602BB14FF42873C4F224338F
:2033C00001221A6028B14FF43073C4F2243301221A605DF8044B704741F28423C2F20003FB
:2033E0001868704708B5FFF769FF41F28423C2F200031860FFF72EFFA023C4F224331B68FC
:20340000BBB98023C4F224331B6863BBC023C4F224331B6863B14FF4307242F20403C4F28A
:2034200024320020C4F209034FF480311060196008BD42F20403C4F209034FF480721A6006
:2034400002F03EFC00F2052020F4FF7242F21C03C4F2090322F001021A608023C4F2243350
:203460001B68002BD2D04FF4207242F20403C4F224320020C4F2090301211060196002F001
:2034800061F9C3E7820741BF4FF44063C4F2080301221A60C30700D4704702F0C7BC00BFD2
:2034A00008B502F0BFFC4FF44063C4F208031A68012A03BF4EF25152C1F6CC221A60002367
:2034C00008BF0223002814BF184643F0010008BD00224FF6FF714FF44063C4F20802C0F27F
:2034E0000F01C4F20803012011601860704700BF38B5FFF7D5FF00244FF6FF750C214FF477
:203500008273C4F20804C0F20F050122C4F20033C4F2080125600A601A60BDE83840FFF7E7
:20352000B1BF00BF00224FF6FF710C23C4F20802C0F20F01C4F20803012011601860704752
:2035400008B5FFF7D5FFFEE710B50446C0B200F0A5F9204610BD00BF38B50546002403E0BF
:20356000285D00F09BF90134284605F083FF8442F6D30A2000F092F900F0E0F90128FBD037
:20358000204638BD70B505460E46A8B10078B8B1A1B1002404E015F8010F38B1B44205D0A7
:2035A00000F07CF96B1C04F10104F4D100F0C6F90128FBD0204670BD0446F7E70C46F5E7D4
:2035C0000446F3E710B44FF6C7734FF6CF74C0F20103C0F2010413F8012FFF2A12D1A34263
:2035E000F9D141F2F022C5F2000241B10A44002312F8014C013AC45401338B42F8DB5DF8CD
:20360000044B70474FF6C872C0F20102EDE700BF38B54FF4DC75C1F200052B6802205B692B
:2036200098472B6802205B6B98474FF4DC7301280446C1F20003F4D11B684FF40070DB6957
:20364000984742F22803C6F2080342F228021C60C4F2080213689B07FCD538BD2DE9F043A3
:203660004FF4E87683B0C1F20006FFF7D1FF33684FF480504FF4D878DB68C4F20000C1F20A
:2036800000089847D8F8003041F238045B691520C4F200049847236841F2440523F4FE63C3
:2036A00023F00203C4F2000540F2F2794FF4DA772360C1F20007C5F800903B681620DB6B5D
:2036C000984742F29003C4F202034FF480021A603A684FF0FF3300934FF48050176CC4F258
:2036E000000002211622B84733684FF480504FF4D8415E68C4F20000C0F2DC214FF41642A0
:203700006023B04741F23403C4F20003142141F22C021960C4F20002116841F2882341F0BD
:2037200010011160C2F20003196840F2013640F2011041F23002002914BF31460146C4F24E
:2037400000021160C5F800901B6843B12368152043F050032360D8F800301B69984703B053
:20376000BDE8F08308B54FF4DC73C1F200031B6802205B6B9847012801BF42F26C03C4F2A0
:203780000803186800F0010018BF002008BD00BF38B50446FFF7E6FF30B141F21802C4F23C
:2037A000000213681807FCD4032C06D041F28823C2F200031B6803B138BDFFF7D3FF38BB1C
:2037C0004FF4DC75C1F200052B684FF400701B6A9847032C41D042F22803C6F2080301216F
:2037E00042F228021960C4F2080213689907FCD5162000F05DFA022000F05AFA4FF0FF30F5
:2038000000F056FABDE838404FF0FF3000F050BA4FF4E873C1F200031B684FF48050DB68B6
:20382000C4F2000098474FF4D873C1F200031B6815205B69984741F23803C4F200031868AD
:2038400041F2440220F4FE6020F00200C4F2000240F2F27118601160B2E72B684FF4007056
:203860009B6A98472B684FF400701B6B9847B2E710B502F0D7FA044640F29840C2F2000090
:2038800000F0F4F941F28823C2F2000300221A6004B110BDBDE8104002F0C8BA10B5044620
:2038A000FFF760FF08B9FFF7D9FE4FF4E873C1F200031B684FF480502146DB69C4F20000DA
:2038C000984710BD41F28823C2F2000310B5186040F29843C2F2000300B302224FF4DC743C
:2038E0001A61C1F2000423684FF400705B6A984723684FF40070DB6A984742F22803C6F23B
:203900000803012142F228021960C4F2080213689C07FCD5BDE81040FFF7A0BE4FF4DC7418
:203920001861C1F2000423684FF400709B6A984723684FF400701B6B9847DEE708B5FFF71A
:2039400011FF30B141F21803C4F200031868C0F3C00008BD70B5FFF75BFE4FF48253C4F275
:2039600000031A6841F24403C4F2000340F2F27112F0500F196018D041F218054FF4E87647
:2039800041F28824C4F20005C1F20006C2F2000406E03368C4F200001B69984723682BB913
:2039A0002B684FF48050DB06F3D570BDC0B29847F6E700BF4EF61053CEF200031A6822F0A0
:2039C00004021A6030BF704770B502F02BFA01F047FE18B1BDE8704002F028BA41F28C207E
:2039E000C2F2000001F092FF0225044648B1636823B19847A84228BF2846C5B22468002C3B
:203A0000F5D1FFF75BFC4FF42073C4F224331B680446002B40F0B88001F0CEFC0346014605
:203A2000002840F0F280012D00F0CC80022DD1D12846002B00F00581FFF798FC41F28C2009
:203A4000C2F2000001F062FF06250446002800F0AF80A368022003B198472369246825EABD
:203A60000305002CF5D1FFF75DFD6A0705F0060400F1A180002C40F0E98000F0BFF90020ED
:203A800004F012FC4FF48052C4F20902116841F2080321F003011160C4F2090319684FF48B
:203AA000DC7241F00F011960C1F20002136839209B6998474FF482524FF484610023C4F27A
:203AC0000902C4F222311360184613600B6002F00BFF062C00F0C38042F22C0542F22424E1
:203AE000C4F20804C4F209052B6823684FF4EC7623F003032360C1F2000633684FF480408A
:203B0000C4F2030003215B6898474FF4DC73C1F200031B689B6B98472B6803F063F84FF452
:203B2000C0730022C4F204331A6033684FF48040C4F203005B6801219847216844F20C03E0
:203B400041F003010122C4F2090321601A602B6803F088F804F070FBFFF77CFBFFF7E2FCAA
:203B600041F28C20C2F2000001F0D0FE044628B1E36803B198472468002CF9D102F056F92F
:203B8000BDE8704002F052B942F21803C4F209031B681B1A022B52D4A3F28F23002BB8BFCE
:203BA0000123BFF639AF9D4228BF1D46EDB233E7FFF7B8FC062444F20C03C4F20903002265
:203BC0001A6057E7002B4ED04FF6F873CFF6FF731B1BCB4248BF04F1080106D404F580342E
:203BE000631A31EA230128BF21460220FFF7BEFB4EF61053CEF200031A6822F004021A606C
:203C000030BFBDE8704002F011B901F0DFFB0646FFF704FB361A002E15DDFFF7DDFB4FF615
:203C20007153CFF6FF731B1B00EB4621CB424FF001037FF5F8AE9D4228BF1D46F3E6002372
:203C4000B1E7611EF8E600231946F4E74FF4DC73C1F200031B6820469B6998470DE70220E8
:203C600002F03EF938E704F58031BEE7014641F28C20C2F2000001F04BBE00BF014641F2A0
:203C80008C20C2F2000001F097BE00BF41F28C2008B5C2F2000001F035FE4FF4C273C1F220
:203CA00000031B6803201B682021984708BD00BF411C10B5044611D04FF4DA73C1F20003A1
:203CC0001B684FF4C0421B68002198474FF4D053A400C4F24423234300221A6010BD00BFE4
:203CE00008B5084B002103F1800243F8041F9342FBD14FF4D873C1F200031B6810201B69A3
:203D0000984708BD8C120020F8B542F2E003C4F202031D6841F290271D60C2F200070024F7
:203D2000012606FA04F32B42E0B203D057F8243003B198470134202CF3D1F8BD10B584B06A
:203D40000022412302A80292039304F08BFA042002F0AEF8032819D00420032102F06AF824
:203D6000042002F0A5F803280346F9D14FF4D272C1F2000212684FF4204000935468C4F2F4
:203D80000C0000214FF040521C23A04702A804F0CBFA04B010BD00BF00B583B000224123EE
:203DA00068468DE80C0004F05DFA012002F080F8012803D00320012102F03CF8684604F0F5
:203DC000B3FA03B05DF804FB00B583B00022412368468DE80C0004F045FA012002F068F8EC
:203DE000012805D04823C1F20003986B01F04EFF684604F099FA03B05DF804FB10B582B030
:203E00004123684600240193009404F02BFA0320214602F00FF8012002F04AF828B148230F
:203E2000C1F20003986B01F031FF684604F07CFA02B010BD70B503880646C3B140F223222A
:203E4000934219D1822921D149F23073C0F200034AF29C251C69C0F20005FFF763FB03F0F3
:203E600089F803F031F88021A047002808DC40F223233380012070BD00230380032070BDA2
:203E800080B203F01BF82B699847E6E7012070BD42F29C13C4F20803186800F00100704790
:203EA00038B510F0030305460C4626D001F0BAFF42F29C13C4F208031B68003018BF012083
:203EC000DB072AD54FF48053C4F2040341F204011D60C4F204010B684CF25032236003E025
:203EE0000B68013A236018D013F0FF0FF8D050B32078421E5042504138BD02881005D5D574
:203F00006B8001F08FFF42F29C13C4F208031B68003018BF0120D90702D480B1002038BDEC
:203F20002B8813F4405FCDD003F44063B3F5006F02BF41F21033C2F200031D60C2E701F0D5
:203F400075FF002038BD01F071FFD1E74AF22013C0F2070301E0013B0FD0428802F4406236
:203F6000B2F5806FF7D1408800F44060B0F5806CDCF1000050EB0C0070471846704700BF57
:203F800070B582B001F04EFF4FF4D874C1F20004236805461B6A19209847236812201B6A91
:203FA0009847236819205B69984723684FF4DC745B691220C1F200049847236801205B69A1
:203FC0009847236801205B6B98470128F9D142F22C0142F22803C4F20801C6F2080342F248
:203FE00028020860C4F20802186013689907FCD541F2100141F214030022C6F20401C6F2E6
:2040000004034FF4D8740A60C1F200041A60236819201B699847236812201B699847F5B182
:20402000002441F21C014FF480535122C4F20403C0F20762C6F2040440F2FF36C4F20401C9
:20404000002501202660C0F206400D601A6001A9FFF726FF431E5842584102B070BD01F08C
:20406000E5FEDDE730B541F21833C2F2000387B01B680024012240F60A0501A8694601944C
:204080000494059302940394ADF804508DF81120FFF706FF012804BF4AF22010C0F2070008
:2040A00004D0204607B030BD0138FBD0BDF8063003F44063B3F5806FF6D1BDF8060000F48C
:2040C0004060B0F580646042604107B030BD00BF10B586B00023012240F6090401A8694635
:2040E00001930493029303930593ADF804408DF81120FFF7D5FE012806BF4AF22010C0F25E
:204100000700C0B203D006B010BD0138FBD0BDF8063003F44063B3F5806FF6D1BDF80630FE
:2041200003F44063B3F5806F18BF0020EBD141F60C73C2F200031A780120002AE3D141F26A
:2041400018320599C2F20002012011601870DAE730B587B001F066FE4FF4D874C1F200042F
:20416000236805465B6919209847236812205B69984742F29C13C4F208031B68DA0720D530
:2041800041F2100141F214020023C6F20401C6F204020B6040F60D04136002A8012201A958
:2041A0000293059303930493ADF808408DF81520FFF776FE012804BF4AF22013C0F207037D
:2041C0003DD0FFF785FF42F22C0142F22803C4F208010024C6F20803012042F228020C6007
:2041E000C4F20802186013689B07FCD54FF4DC74C1F20004236801209B6998472368012014
:204200005B6B98470228F9D14FF4D874C1F20004236819201B6A9847236812201B6A984776
:20422000236819201B699847236812201B6998470DB901F0FBFD07B030BD013BC1D0BDF862
:204240000A2002F44062B2F5806FF6D1BDF80A30B7E700BF08B501F077FD052815D0032894
:204260001AD050B1012801BF42F2D013C4F2080305221A6018BF002008BD42F2D013C4F268
:20428000080303221A60012008BD42F2D013C4F208031860012008BD42F2D013C4F2080380
:2042A00002221A60012008BDF8B542F29C13C4F208031A680023C8F2800300280CBF1D46F1
:2042C0000025D10700D4F8BD01F0ACFD41F2180141F2140241F21003C6F20401C6F2040268
:2042E0000646C6F2040300204FF000474FF4D8740F60C1F2000415601860236819201B6A22
:204300009847236812201B6A9847236819201B699847236812201B69984706B1F8BDBDE845
:20432000F84001F083BD00BF002398420CBF022008200029C8F2800318BF002341F210019F
:2043400041F214021843C6F20401C6F204020B60106070470023984241F21402C8F2800329
:2043600018BF0023C6F204021360704741F21033C2F200031868704741F21433C2F20003C6
:204380001860704708B542F29C13C4F208031B68D80704D4FFF7F4FD012800D008BD41F27B
:2043A0001003C6F204036FF000421A6008BD00BF08B542F29C13C4F208031B68D9070AD4EA
:2043C0004AF25410C0F20000FFF7C6F8FFF7D8FD012800D008BD01F025FD41F21003C6F23D
:2043E00004031A6812020ED441F21003C6F204031A6812F00A0F1CBF6FF00A021A60BDE837
:20440000084001F013BD6FF4000240F2AC401A60C2F2000001F084F9E6E700BF41F60D7331
:20442000C2F200031878704708B500F0A3F880B208BD00BF00F038B938B54FF4DC75C1F26B
:2044400000052B6804205B6998472B6804205B6B98474FF4DC7301280446C1F20003F4D121
:204460001B6840F20140DB69984742F22803C6F2080342F228021C60C4F2080213689B074A
:20448000FCD538BD41F21C33C2F20003186800280CBF0220012070472DE9F0410388064692
:2044A000002B4AD0B3F5847F09D140F24F63C2F200031B788B4207D00120BDE8F081002306
:2044C00003800320BDE8F08141F21C37C2F200073B68B3B14FF4E673C1F200031A6848F2CA
:2044E0000403C4F2020352680220D3F8008090470024221848F10003194610463B6898472B
:204500003C604FF4DC73C1F200031B6840F201409B6A984742F22803C6F20803012142F265
:2045200028021960C4F2080213689907FCD540F2BC40C2F20000FFF7A1FB4FF484733380CB
:204540000120BDE8F08100BF08B54FF4DC73C1F200031B6804205B6B9847012801BF42F2F7
:204560003C03C4F208031868C0F3400018BF002008BD00BF70B541F21C33C2F200031B686C
:20458000D3B141F22030C2F200000023C15C41F22032C2F2000229B90133042BF6D10020B9
:2045A000014670BD40F258610024C2F2000101EBC301D45403C970BDFFF7C6FF002842D0FD
:2045C00048F20803C4F202031A680123C8F2000313409BB949F6F073C4F2020301221A60D7
:2045E00018680028FCD102464FF4807102F07EFB4FF42A73C4F2502301221A6001F012FCBA
:2046000048F208020646C4F202021368D807FCD54FF4E673C1F200031A6848F20403C4F25A
:204620000203526802201C68904700222346141843F1000516B12046294670BD01F0F6FBA3
:204640002046294670BDFFF7F7FEB9E738B54FF42A750024C4F2502548F20C032C60C4F224
:20466000020319684FF4D87221F001011960C1F20002136831205B699847204622464FF466
:20468000807102F033FB012240F24F632A60C2F2000340F2D04022461978C2F20000BDE82D
:2046A000384000F0E9BF00BF10B540F24F64C2F200042378802B00D010BD00F04DFF20701A
:2046C00040F2D040C2F200000021BDE8104001F005B800BF08B51AB108461146FEF752FFEE
:2046E000002008BD0FB400B583B004AB53F8041B40F2E0401A46C2F20000019300F022F80D
:2047000003B05DF804EB04B0704700BF38B50C46054609E04AF2B811C0F200012B686868EA
:204720001022103C984718B9102CF3D8204604B938BD4AF2B8112246C0F200012B686868A9
:20474000984738BD2DE9F04F4AF2102491B0C0F20004002582468946099204940295884675
:2047600098F80030002B00F0F080252B00F01983444602E0252B04D02C466378651C002B89
:20478000F8D145450FD0C8EB050641463246DAF80030DAF804009847002840F08F8263782F
:2047A000029C34440294002B00F0CF806B78002B00F0CB8001350024A3F12002AC46102A5E
:2047C0001CD8DFE802F0181B1B151B1B1B1B1B1B1B121B0F1B1B090044F0100401359CF87F
:2047E0000130E9E744F00104F8E744F00604F5E744F00804F2E744F00204EFE7A3F1310296
:20480000D2B2082A00F2E580A3F13002D2B2092A9CBF01354FF0000B00F2DE800BEB8B0B57
:2048200003EB4B0BAC4615F8013BABF1300BA3F13002D2B2092AF1D92E2B00F0D2804FF001
:20484000FF316C2B00F0EE80682B00F07B81782B00F28180DFE813F079007F007F007F005E
:204860007F007F007F007F007F007F007F007F007F007F007F007F007F007F007F007F0048
:204880007F007F007F007F007F007F007F007F007F007F007F007F007F007F007F007F0028
:2048A0007F00A2027F007F007F007F007F007F007F007F007F007F007F007F007F007F00E3
:2048C0007F007F007F007F007F007F007F007F007F007F007F007F007F009F027F007F00C6
:2048E0007F009C02990296027F007F007F007F007F007F007F007F007F007F007F007F0074
:204900007F007F007F007F0093027F007F007F007F007F007F007F007F0090027F008D026E
:204920008A028702840281027F008A027F007F007F007F007D007E027B027F007F00780260
:204940007F0075027F007F007202029811B0BDE8F08F44F4E06404F4E063B3F5806F0CF125
:20496000010800F0CF806DD9B3F5C06F00F0B281B3F5E06F00F0A781B3F5A06F7FF4F0AED8
:20498000099BBBF1010F1A6803F1040309938CBF0BF1FF3B4FF0000BE3078DF8282000F12B
:2049A0003E8350465946FFF7B1FE002840F08681029CDAF800305C44DAF804000AA9012211
:2049C00002949847002840F079810BF1010B029D95E02A2B00F0C6802E2B4FF0000B7FF453
:2049E0002EAF9CF801300CF10101A3F13002D2B2092A00F2C4800CF102024FF0000909EB26
:204A0000890903EB490913789446A3F13001C9B20929A9F1300902F10102F0D96C2B494635
:204A20007FF412AF9CF801306C2B03BF9CF8023044F080040CF1020C0CF1010C18BF44F086
:204A4000600404E7B3F5807F00F0A780B3F5407F7FF486AE099A4AF2EC1711684AF2D813B9
:204A6000C0F20003043214F4804FC0F2000718BF1F46099200230A46002900F057810DF182
:204A80003A00110902F00F0241EA0371BD5C1E090A463346014600F8015952EA0305F0D179
:204AA0000DF13B035B1A18BFDD1C00F04181782030222323AB4501F8010C01F8022C01F87D
:204AC000033CA1F103063AD84FF0000B14F0010406D150465946FFF719FE002840F0EE80B8
:204AE0003146DAF80030DAF804002A469847002840F0E48002980544002C40F0FB805D4401
:204B000002952DE6099B1E6804330993002E00F04A8233781D466BB1731C18781A46013327
:204B20000028FAD1951B8D4294BF002301230029B8BF0023002B18BF0D46AB45C4D9C5EB14
:204B40000B0BC3E79CF80130682B03BF9CF8023044F020040CF1020C0CF1010C18BF44F03D
:204B6000400474E6099B05F1010C1A680433002A0993B8BF44F0010493466B785CE62A2B6E
:204B800018BF8C467FF45BAE099A9CF80230111D09910CF1020C116853E60029ABBF24F05B
:204BA000100401250591059514F4005504F0E003039500F0A780402B00F0208200F2F38046
:204BC000002B00F0DE81202B40F00882099B1A1D099293F90020D317002A73F10000C0F20A
:204BE000DA81CDE906230025089504F4C053B3F5805F00F06481B3F5C05F00F07F81B3F5F3
:204C0000006F1CBF0DF13E054FF0000900F03281059941F60803894504EA030341F208023F
:204C2000C0F0E580934218BF002600F00A8241F60802934206EB090100F0FC8000273A46ED
:204C4000039870B1089B002B40F00E8104F00603022B00F0CD810498062B08BF012708BF20
:204C600002467B189B458CBFC3EB0B0B4FF0000B14F00103039304D1E10640F19E815E44D4
:204C80009B463FB11146DAF80030DAF804003A46984798B9102E344603D8B5E0102C40F2CE
:204CA000B3804AF2C811C0F20001DAF80030DAF804001022103C98470028EFD04FF0FF306F
:204CC00011B0BDE8F08F099B029C1A6804331460099345E54AF21C21C0F20001DAF800308C
:204CE000DAF80400012298470028E7D1029C0134029435E550465946FFF708FD00283FF4EE
:204D0000FEAEDBE7402B00F080815CD8002B00F02D81202B40F05B81099B039D18781A1D6A
:204D2000002108950992CDE906015EE70DF13B01302301F8013C04250139B8E644F4C85400
:204D400009E644F4106406E644F4806403E644F4407400E644F48854FDE544F48134FAE533
:204D600044F40074F7E544F40244F4E544F42454F1E544F4A064EEE544F4C134EBE544F48A
:204D8000B244E8E544F4A134E5E544F48444E2E544F44244DFE544F4E134DCE544F4C064C6
:204DA000D9E5454602E5602B00F0EB80802B40F01581099B073323F0070303F108020992D8
:204DC000D3E9002308E7602B00F0D080802B40F0FE80099B039D073323F0070303F1080248
:204DE000D3E9000108950992CDE90601FDE69342C9EB01067FF41BAF002E08BF012600270E
:204E00003A4606EB09011BE7002C40F0A1802946DAF80030DAF804004A46984700287FF447
:204E20004DAF029B039C4B441F443E44ACB95E44029695E4DDE9062313433FF4FFAE4AF24D
:204E400004224AF2002314F4804FC0F20002C0F2000318BF1A460227F2E650465946FFF72A
:204E600055FC0028E3D029E74AF20822C0F200020127F6E6DDE90601014300F0B480DDE9DD
:204E800006670DF13D09304639460A22002303F011FF303289F80020304639460A220023D3
:204EA00003F008FF06460F4656EA07024D4609F1FF39E8D10DF13E03C5EB0309A8E6DDE941
:204EC0000623134300F08F80DDE906230DF13D01D00840EA4370DE0802F0070733460246CD
:204EE0000D4652EA030007F13001297005F1FF31EED10DF13E03C5EB030989E64AF2EC17D0
:204F00004AF2D81314F4804FC0F20003C0F2000718BF1F46DDE90623134364D0DDE9062381
:204F20000DF13D01100902F00F0540EA03704FEA131E7E5D0246734652EA03000D460E7023
:204F400001F1FF31EED10DF13E03C5EB03095FE64AF2C8112246C0F20001DAF80030DAF82C
:204F60000400984700283FF452AFA7E6039D099B08951A680021043310460993CDE90601FB
:204F800033E6099B1A6804330993D317002A73F10000BFF626AE504263EB43010125CDE9FE
:204FA0000601089521E605294AF21426C0F200068CBF002301230625BCE5504659460192C4
:204FC000FFF7A4FB019A00283FF45BAE76E60025002000210895CDE9060106E600200021F4
:204FE000CDE90601FFE54FF000090DF13E050FE64AF20C22C0F20002012732E6099B1A1D59
:205000000992B3F90020D317E6E5099B039D18881A1D002108950992CDE90601E5E5DAF8A7
:205020000030DAF804000AA90122984700287FF445AE50465946FFF769FB00283FF4C5ACCC
:205040003CE60126DBE600BF10B50446006830B1002100F043FB54F8040F0028F8D110BDC3
:20506000F8B5038806461546EBB14A2B17D1882946D141F22430C2F2000000F047FC0446D8
:2050800048B1031D9D4202D126E09D4224D02468231D002CF9D14A2333800120F8BD002391
:2050A00003800320F8BD41F22430C2F2000000F02DFC044630B1201DA16800F06DF92468EE
:2050C000002CF8D141F60E73C2F2000301221A704A2333800120F8BD41F22430C2F200008E
:2050E000214600F069FC41F230356269A369C2F200052F682A600BB1E06998472F60CAE787
:205100000120F8BD10B541F60E7341F224300024C2F20003C2F200001C7000F0F3FB40F28A
:20512000E8402146C2F20000BDE8104000F0D6BA70B541F60E74C2F20004049D26788261FF
:205140000446C36145614EB9A16041F224302146C2F20000BDE8704000F0DABB41F230351F
:20516000C2F200052E6840F2E843C2F2000304302B6000F011F92E60E7E700BF10B541F200
:205180003034C2F20004246882B00094FFF7D0FF02B010BD10B541F60E73C2F200031B7896
:2051A000044653B9C360036141F224302146C2F20000BDE8104000F0FFBB043000F012F9A2
:2051C000F2E700BF38B541F60E73C2F200031D7804466DB941F22430C2F2000000F096FB1A
:2051E00010B90AE0006840B18442FBD1002038BD0430BDE8384000F0D9B8012038BD00BF55
:20520000704700BF10B541F22834C2F200042368CBB1FEF703F8236859681A689B680A44F6
:20522000121A4BB193E812009B682144091A8A4228BF0A46002BF5D141F22C330244C2F2AE
:2052400000031A6010BD41F22C32C2F20002136010BD00BF2DE9F041038805467BB1592BF1
:2052600008D1872915D0822926D059232B800120BDE8F081002303800320BDE8F08141F2AF
:205280002832C2F20002136059232B800120BDE8F08141F22837C2F200073B68002BE4D05E
:2052A000D9688A4203D02BE0D9688A4227D19B68002BF9D13B60D8E741F22837C2F200075F
:2052C0004FF000083C68002CCFD0002604E0A3682646002BC9D01C46204600F06BFA00288E
:2052E000F5D0E0688821224600F0C6F9034640F2F840C2F2000073B100F012FAE7E73B60F1
:2053000099680029B1D0C86882420BBF89680B4699608968F5E7E360A3682EB1B360C4F820
:205320000880FFF76FFFCDE73B60F8E710B5044640F2F840C2F2000000F0F2F941F22832BE
:20534000E368C2F20002116853B149B18C4218BF0B4602D110E09C420ED09B68002BFAD167
:2053600041F23033C2F200031B68A160E3601460BDE81040FFF746BF41F23033C2F2000368
:205380001B68E360BDE81040FFF73CBF40F2F840C2F2000000F0C4B910B5044600F002FADB
:2053A0002046BDE81040FFF7C1BF00BFC068D0F1010038BF0020704741F22833C2F2000360
:2053C0001868003018BF0120704700BF41F22833C2F20003186820B141F22C33C2F20003D0
:2053E0001868704710B541F22833C2F200031A680446904217D04AB1936883420AD02BB176
:205400009A68A24207D01346002BF9D10023A360E36010BD1346A2689A60FFF7F3FE0023E4
:20542000A360E36010BD82681A60FFF7EBFEEDE72DE9F84341F23438C2F20008D8F8004086
:2054400041F23036221CC2F2000618BF0122844218BF002C054689463768234604D01B687F
:205460009D4218BF002BFAD163B3AB7BE3B10023AB736AB1A54220464FF087012A4604D0FC
:20548000A37BDB0701D500F029F82468002CF1D1AB683BB14D4505D0356005F10C0083210A
:2054A00000229847D8F80040A54212D04CB12368AB4209D02BB11A68AA4206D01346002B20
:2054C000F9D13760BDE8F88323462A681A603760F8E72B683760C8F80030F3E770B585685A
:2054E00004460E468DB141F23033C2F200030220A0731C6004F10C00A8470238012805D9A1
:20550000832E1CBF0123A37300D070BD20462146BDE87040FFF78CBF70B541F23433C2F2F2
:2055200000031C6841F61173C2F2000300261E7084B1012501E0246864B1E37B002BFAD08E
:20554000A573E673204682210022FFF7C7FF2468002CF2D170BD00BF41F61273C2F2000319
:205560001878421C1A70704770B441F6107041F2343141F23032002341F6127541F60F7459
:20558000C2F20000C2F20001C2F20002C2F200058A26C2F2000403700B6013602E70237049
:2055A00070BC70472DE9F04141F61174C2F2000423780BB1FFF7B0FF41F61075C2F20005DC
:2055C000287818B341F60F72C2F20002117841F2383301EB410C4FEA8C0CC2F2000303EB1C
:2055E0000C0701380131BE68C0B201F01F012870117013F80C807F68B6B1B8F1810F04BF8A
:205600000123B37306D0B37BDA0703D423781844BDE8F081304641463A46FFF75FFF287806
:2056200023781844BDE8F08141F23433C2F200031E6836B9EAE7B37BD9070AD43668002E0E
:20564000EDD02378002BF6D0FFF766FFB37BD907F4D5304641463A46FFF740FFEEE700BF89
:2056600041F6117241F61073C2F20003C2F200021278187810447047F0B441F61073C2F212
:2056800000031D78202D08BF012315D041F60F74C2F20004277841F238342F4407F01F0715
:2056A00007EB4707BF00C2F20004E6190135E1551D7072600023B0601846F0BC704700BFB6
:2056C00038B5837B41F23034C2F20004DB07256801D5FFF703FF256038BD00BF70B441F2C3
:2056E0003435C2F200052E680446864218BF002E334604D01B689C4218BF002BFAD1A3427B
:205700000BD0012000232660A073A3810A4620462C60812170BCFFF7D3BF70BC704700BF73
:2057200060B1837B013BDBB2012B9FBF41F611730122C2F200031A7098BFC273704700BFE6
:20574000FDF7B6BD10B541F2B844C2F20004236863B1184600225B6881682260984723687F
:2057600023B11868BDE81040FDF7A4BD10BD00BF10B541600446FDF78DFD206010BD00BFC5
:2057800010B50446FDF786FD616822684FF6FE730A44801AC7F6FF7398428CBF00200120FD
:2057A00010BD00BF10B541600446FDF737FD206010BD00BF10B50446FDF730FD94E80C00C1
:2057C000C2F10102104483422CBF0020012010BDF8B504880546672C0ED0792C04D064B37C
:2057E000002303800320F8BD852933D141F2C454C2F200040023236041F2C45441F24456B8
:20580000C2F20004C2F2000607E00A2824D022687E2ADEBF511CB054196041F23C50C2F2DD
:20582000000000F017F941F2C453421CC2F20003EBD167232B800120F8BDFFF78DFE41F68A
:20584000DA7241F2C453C2F20002C2F2000310701C60D1E70120F8BD41F2C454C2F20004B8
:20586000276841F2445341F6DA71C2F200030026C2F200011A4607F1010E09783046DE552A
:20588000C4F800E0FFF7F8FE41F23033C2F20003324618688521FFF7EFFE0028AAD1792373
:2058A0002B800120F8BD00BF08B541F23C5041F2BC41C2F20000C2F20001802200F0AAF85F
:2058C000BDE8084040F20850C2F200000021FFF705BF00BF0029034611DD084413F8011B30
:2058E0004A4052BA02F47F4182EA011292B282EA123202F47F41834282EA5112EED110468A
:20590000704700BF00230360704700BF0068704710B404685CB1A14225D023680BB906E0AC
:205920001346994210D01A681C46002AF8D100230B6002680AB911E01A461368002BFBD1FE
:2059400011605DF8044B704764B10A68226000221A6000230B600268002AEED101605DF83F
:20596000044B70470C46226823460260EFE700BF30B4056865B1A94219D02B6843B12C46B1
:2059800000E01346994207D01A681C46002AF8D10D60016030BC704744B10A6822600022C9
:2059A0001A6005680D60016030BC70470D462A682B460260F3E700BF10B404685CB18C4233
:2059C00015D023680BB906E01346994206D01A681C46002AF8D15DF8044B704734B11A680A
:2059E000226000221A605DF8044B70470C46226823460260F5E700BF03682BB100201B6802
:205A00000130002BFBD170471846704700B10068704700BF0023013A016002714371837129
:205A2000704700BF10B40346447980791A79201A104082421FBF1A68012011555A791FBFB4
:205A4000197912180A405A7108BF00205DF8044B704700BF10B40346827940791979801A87
:205A600008421FBF1868541C2140805C14BF99714FF0FF305DF8044B704700BF08B5436903
:205A80005B6803B1984708BD10B5044682B01A2001F004FB014601A801F046F963691B6811
:205AA00013B1204601A9984702B010BD70B514464AF240220646C0F200020D4602F0AAFCAC
:205AC0004AF23C2174612846C0F20001BDE8704000F036B810B541F698710446C2F2000100
:205AE0001A2001F0CFFA2046BDE8104002F0A2BC41F2C850C2F20000FFF704BF034641F2D3
:205B0000C8509980C2F200001946FFF701BF00BF10B5044641F2C850C2F20000FFF7F6FED4
:205B200050B18388A34203D109E08388A34205D0FFF76CFF0028F8D1002010BD10BD10BD19
:205B400038B50D46FFF7E4FF044620B18560284602F07CFD207338BDF8B5064641F2CC5083
:205B6000C2F200000D461746FFF7D0FE044648B1A368284603B198472046FFF747FF0446C2
:205B80000028F5D1304629463A46BDE8F84002F059BC00BF38B502F037FD054641F2CC5062
:205BA000C2F20000FFF7B2FE044640B1636803B198472046FFF72AFF04460028F6D125B15E
:205BC0002846BDE8384002F037BC38BD10B501F077FA01F0CFF902F03BFC02F013FDBDE8B0
:205BE000104002204FF400714FF4F0524FF4E12302F0ECBC10B5044602F016FD68B101F0FB
:205C0000C1F84AF2C423C0F2000345F65930C0F2000021469B689847012010BD08B583699D
:205C20005B6803B1984708BD38B504461B200D4601F034FA41F69871C2F2000101F078F80F
:205C400028B1A3691B6813B120462946984738BD70B514464AF25C220646C0F200020D46E3
:205C6000FFF724FF4AF26421B4612846C0F20001BDE87040FFF764BF10B504461B2001F06B
:205C800001FA2046BDE81040FFF724BF70B5064600F0C8F84FF400420546C4F20C021368A5
:205CA0004FF40044C4F20C04002BF8D0B0470123236005B170BDBDE8704000F0B7B800BFB0
:205CC00010B442F2080342F20C04C4F20903C4F209041A68206819688A42FAD1120442EA94
:205CE00010405DF8044B704742F2D413C4F20803186800F00E00704741F21832C5F20002B2
:205D000013684BF69A11C3F30F338B4213D04BF6BE12934208BF01200BD04BF64132934242
:205D200008BF032005D04BF6203083420CBF0220FF2040B270471068000F0B280CBF0420F0
:205D4000002040B2704700BF10B541F29423C5F200031C68FFF7D0FF0128C4F3033409D118
:205D6000082C08BF002003D00F2C0CBF0120FF2040B210BDFF20FBE738B541F218324FF482
:205D80008553C5F20003C5F2000212681C68150FE4B27F2C88BF0024FFF7AEFF04280FD834
:205DA000DFE800F01108030304004DB90A34E0B240B238BDF5B1022D04BF1434E0B2F7D013
:205DC000FF2040B238BD013D072DF9D801A353F825F000BFF55D0000C15D0000035E0000E6
:205DE000C15D0000C15D0000C15D0000075E0000FB5D00000A2040B238BD04F11600C0B2FE
:205E0000D6E71420D4E71520D2E700BF08B5FFF773FF012800D0FEE7FFF7AEFF1328FADD71
:205E200008BD00BFEFF3108072B67047EFF3108062B6704770B50D46C10782B0044626D496
:205E4000A20713D463070FD54FF4D273C1F200031B68ADB24FF4204000955C68C4F20C0086
:205E600000210C220223A04702B070BD4FF4D273C1F200031B68AAB200924FF420405E68D0
:205E8000C4F20C00002102220123B047DAE74FF4D273C1F200031B68AAB2009200214FF40C
:205EA00020405E68C4F20C000B460122B047C7E710B54FF4D273C1F200031B6804284FF4EC
:205EC0002040DC684FF0340107BF4FF0C0421D234FF080521C23C4F20C00A04710BD00BFDE
:205EE00001280FD030B14FF4C073C4F2043301221A6070470023C4F209031A6822F0050282
:205F00001A6070470023C4F209031A6842F005021A60704770B4038843F6060293421ED0CC
:205F20000132934217D040F60202934201D070BC7047C67B4369002BF9D003F1140544F28B
:205F4000380419681A4688B2A04203F1040309D0AB42F6D1EBE790F82460C369EBE7C36978
:205F60000226E8E7C1F303400028E0D0B31E1C2B10D8DFE803F00F0F0F41390F0F0F310F8D
:205F8000290F0F210F0F0F0F0F0F0F0F0F0F0F0F0F0F49004FF49C53C5F200031B68C3F359
:205FA00083430F2B38D0834282BF21F4702141EA0343136070BC704741F20413C5F2000362
:205FC0001B68C3F38343ECE74FF48853C5F200031B68C3F38343E4E741F2FC03C5F2000361
:205FE0001B68C3F38343DCE741F2F803C5F200031B68C3F38343D4E74FF49953C5F2000354
:206000001B68C3F30323CCE741F20813C5F200031B68C3F38343C4E7053E192E08D801232E
:2060200003FA06F603F58463C0F2002333402BB921F4702141F48021116078E721F4702368
:2060400043F4E023136072E728B946F20223C4F20803187070474FF4C44246F20223C4F2A0
:2060600008020020C4F20803202110701970704738B541F21003C4F2090301214FF4257243
:2060800005461960C4F222321368002BFCD04FF4C042C4F20C02C02143F6B0731160C5F252
:2060A00000031B689B070DD443F6AC73C5F200031A6846F25623C2F3034242F0F002C4F2BE
:2060C00008031A704FF48252C4F20902002143F6B4731160C5F200031C68204600F0E8F8ED
:2060E0002846214600F0AEFA41F21433C5F200031A6840F21D2392B29A4219D841F2BC23E8
:20610000C5F2000319681A68C1F30363C2F3034219462BBB931F012B83BF023202F00F0212
:206120001201702246F202030A43C4F208031A70204600F021F94FF4D073C1F200031B68B6
:206140000220DB6898474FF4C04240F29443C4F20C024020C4F2602301211060196038BD50
:20616000013BD9B2D6E700BF38B541F21C33C5F200031C68FFF74AFE40F2844046F25C0166
:2061800042F208230122C4F20433C4F260200025C4F20C0105600A601A6000F069FB4FF492
:2061A000C073C4F228331B68B4F1FF3F08BF2C463BB14FF48073C4F2203320461B68FFF7F2
:2061C00057FF42F28C12C4F20802002142F248031160C4F203031968042221F07F6121F45D
:2061E000702141F09C7141F480311960C4F209021368C3F30133012B06D00C22C4F26822DB
:206200001368002BFCD138BD136823F0407323F4403343F4003111601360EEE7F0B441F253
:206220008833C5F20003196846F20623C4F208031B78C1F3046103F01F031529C8BF203967
:20624000152BC8BF203B99422FD09822C4F22032002442F22C0046F26C251460C4F2090000
:20626000C4F208056FF0010C0126CA1A022AC8BF022202DC6245B8BF6246134403F01F04FC
:2062800044F4F85442F22C028B420768C4F209022C804FF001040660E7D198231168C4F223
:2062A0002033146011681C601368F0BC704700BF00F04073B3F1807F70B504463DD041F290
:2062C000B823C5F200031B68C3F30463152B51DC03EB24730133152BC8BF41F6157108DCFB
:2062E00013F10A0FA6BF03F01F0343F4F85141F6167146F26E22C4F2080200231180C4F2D7
:2063000009031B6813F0020309BF40F2944244F04064C4F22A321360C4F3C0610022C4F308
:206320008064082381F0010184F00104C4F22032C4F2203311601C6070BD46F2252546F27D
:20634000662146F215238022C4F20803C4F20801C4F208054FF6D8062A700E801A70FFF796
:206360005DFF41F28833C5F200031B68C3F30423152BADDD203BABE7F8B5C0F38143012BB2
:2063800047D0022B4CD143F6B073C5F200031B684FF400711B075FBF4AF26803C4F20C03A3
:2063A00040221A604AF28002C4F20C0241F28C331160C5F200031A68C0F381504AF2081305
:2063C000C2F3C14242F03002C4F20C0301281A7058D032D302282BD104200321FFF72AFD71
:2063E00041F26C33C5F200031C684BF20B014BF2700204F03F04C4F20C01C4F20C0247F69A
:20640000180042F22C030C70C4F2090310801B68F8BD41F28C33C5F200031B689A0375D5E5
:206420004AF24003C4F20C034FF000421A60AAE704200221FFF7FEFCD2E704200121FFF760
:20644000F9FC46F23C0046F2400146F24403C4F20C0043F2BD76C4F20C018625C4F20C037E
:20646000012440F684020660C4F28C320D601C601368002BFCD046F24403C4F20C030022A0
:206480001A60ADE7FFF714FD044601460420FFF7D1FC0420FFF70CFDA042FAD143F6A8734B
:2064A000C5F20003186846F23C0446F2400146F2440387B2C4F20C04C0F30746C4F20C0170
:2064C000C4F20C03012540F684022760C4F28C320E601D601368002BFCD046F24402C4F289
:2064E0000C0200214FF4DA731160C1F200031B684FF060221B68000E072198474AF240035B
:20650000C4F20C034FF480621A6065E74AF24001C4F20C014FF4804446F20C020C60C4F21C
:2065200008021168C3F3033421F08F012143C3F3004441EAC41446F20B011460C4F2080172
:206540000A68C3F3032422F00F02144346F20A020C60C4F20802116803F0E70321F0E701B3
:206560000B4313600FE700BF41F25033C5F200031B688203C3F38361C3F38F230DD440F317
:206580000722002A0CDA5B0805D149080ABF01234FF6FF7319460132F5D143EA0140704717
:2065A000FBD05B0043F00103B3F5803F4FEA410007D340F001010F2992BF01230F214FF66F
:2065C000FF73013AEDD143EA0140704770B441F2783343F6B072C5F20003C5F200021B68D8
:2065E0001268C3F3035412F00102C3F3034105461CBF24050A0419D143F6AC70C5F20000C2
:20660000006840F30326341948BF144605D40F2CD8BF240501DD4FF4700440F303304118E0
:2066200004D40F29D4BF0A044FF4702298B2212D40EA040040EA020084BF03F0804318438E
:2066400070BC704770B5044682B00846FFF78CFF02464FF42040C4F20C00182102F01AF8FD
:2066600041F25033C5F2000319681A684FF4D273C1F3870102F00302C1F200031B6841EA88
:20668000022200924FF420405D68C4F20C002C2140F2FF320023A84741F27C33C5F20003BC
:2066A0001A684FF42040C2F30D02C4F20C001C2101F0F0FF41F27433C5F200031A684FF4B9
:2066C000204002F0FC32C4F20C00142101F0E2FF41F27033C5F200031A684FF4204022F0AA
:2066E0007F4222F440321021C4F20C0001F0D2FF2046FFF76BFF02464FF42040C4F20C0029
:206700000C2101F0C7FF212C73D941F28C32C5F2000211684AF24913C1F30071490041F0A2
:206720002001C4F20C03C9B219701268C2F3407242F01002D2B21A7041F29835C5F2000580
:206740002B684FF42040C3F30262C3F3C1619200C3F3815342EA01221A43C4F20C0028213E
:2067600001F098FF2A684AF24C13C2F30152520042F06002C4F20C03212C1A7063D941F26B
:206780008C33C5F2000319684AF24112C1F3C061C90061F07F01C4F20C02C9B211701A68BF
:2067A0004AF2DC13C2F34552920042F47C42C4F20C031A8041F29833C5F200031B68C3F38C
:2067C0000512C3F3892112041B0342EA81529BB21A434FF42040C4F20C00082101F05AFF8D
:2067E0004AF24003C4F20C034FF480021A6002B070BD4AF24913C4F20C03222111221F2C19
:2068000019701A7098D84FF42040C4F20C002821002201F03FFF4AF24C104AF241114AF294
:20682000DC13C4F20C006026C4F20C018025C4F20C034FF47C444FF400420670C4F23F02FF
:206840000D701C80C5E74AF241124AF2DC13C4F20C028020C4F20C034FF47C411F2C1070C5
:206860001980A7D84FF40042C4F23F02B1E700BF10B40C22C4F268221368002BFCD144F252
:20688000040343F6B072C4F20303C5F200021968126821F00051520721F007011CD44FF41F
:2068A0008042C4F20302146841F0005141F00400A40708BF18600CD041F007011960136835
:2068C00003F00303032BFAD144F20403C4F2030318605DF8044B704741F0005141F0050141
:2068E00019605DF8044B70472DE9F04F0023C4F209031B6883B013F00207804611D041F2EE
:20690000D05341F230024FF6FD51C2F200030820C4F20902C0F2A4019871116003B0BDE893
