:020000040000FA
:2000000000500020ED000000E5000000C9000000E9000000E9000000E9000000000000001A
:20002000000000000000000000000000E9000000E900000000000000E9000000E90000001C
:2000400045510000E9000000C1570000E9000000454B00007D4D0000E9000000E9000000F4
:20006000E9000000ED570000E9000000E9000000E9000000E9000000E9000000E9000000DD
:20008000E9000000E9000000E9000000E9000000E9000000E9000000E9000000E900000018
:2000A000E9000000E9000000E9000000E9000000E9000000E9000000E9000000E9000000F8
:2000C000E9000000895A00004EF62853CEF200031A68B2F5806F03D01B689B0500D4FEE70B
:2000E000704700BFFEE700BFFEE700BF10B507F045FB40F2000140F20923C2F20001C2F24C
:20010000000399420ED2CC431C4424F003044BF630500434C0F200000023C258CA5004335E
:20012000A342FAD1064807494FF000028842B8BF40F8042BFADB01F0BDFEFFF7C5FF10BD80
:2001400010020020634D002008B54BF2581243F22C63C2F20003C0F20002D26A197B012019
:20016000904708BD30B543F22C6383B0C2F200030022DC7B01AD815CAC540132032AD973A0
:2001800003F10103F5D143F22C64C2F20004204602F072FF70B99DF804109DF805209DF83A
:2001A00006302046E1732274637402F065FFF72003B030BD002003B030BD00BF2DE9F00F41
:2001C00043F22C63C2F2000340F2343241F62D46C2F2000293F80FC0C0F2000640F2204404
:2001E000C2F20004187C597C166043F2C45540F2B82340F29826C2F20003C2F20005002786
:200200004FF0010A4FF00809C2F200064FF0A80884F801C04FF0050C556097604FF0020B16
:20022000DC6083F800A083F801905E6083F8088083F809C0A070E17085F800B06B60277066
:2002400007CABDE8F00F02F099BE00BF2DE9F04385B0FFF787FF40F2004441F62D42C2F257
:2002600000040027C0F2000244F67E45C2F200050294019203970DF1100E43F2F05340F260
:200280009826C2F2000328704FF008091EE90700C2F200064FF0010E4FF0A7084FF0020CB0
:2002A000DD6083F801905E6083F8088083F800E083F809E0636084F800C002F05FFE44F6ED
:2002C0006F43C2F200031F7005B0BDE8F08300BF2DE9F00F43F22C62C2F2000292F80EB0C4
:2002E00043F29453C2F2000392F80C8092F80FC0177C4FF0030983F802B04FF0110B567C84
:200300004FF06C0A44F6774143F2A84440F2982583F8039083F804B04FF024094FF0FD0B36
:20032000C2F20004C2F20001C2F2000583F801A083F806904FF0900A4FF0000983F807B017
:2003400083F809804FF0010B4FF0080883F80BC01F734FF08A0C2F2783F805A05E7309788A
:200360009A461E4683F8009083F8089083F80A9083F80E9084F800B084F80180656084F883
:2003800008C0677208E01B7909F10109B9F1080FF37306F101060BD002EB09030029F2D157
:2003A00009F10109B9F1080FF17306F10106F3D12E4B44F69841C2F200012D4AD3F800804F
:2003C000D3F804C09F68D3F80C900B68DC254FF0050B24260A21CAF81780C2F804C097601A
:2003E000C2F80C908AF829508AF827B08AF828608AF82A10DDB2C3F307220BB9FF221546DF
:2004000044F69C43C2F2000319788AF82B508AF82C205B7811B90BB9FF23194640F250321A
:20042000C2F200020225546015708AF82D308AF82E10C4F80CA0007843F2DC5341F62D411E
:200440000128C2F20003C0F2000183E8060003BF43F20862C2F20002126800229A6093E870
:200460000700BDE8F00F02F089BD00BF3E360020AB3500202DE9F04F037885B0012B40785D
:2004800043D040F2CC24C2F20004FF23237040F2382340F29821FF22C2F200034FF0010E1C
:2004A0000827C2F20001A4260B25607083F800E05F7059601E725D72A270E2702271627182
:2004C000A271E27122726272A27240F2A03541F62D42C2F20005C0F20002002102950192D5
:2004E000039104AFDC60022617E907006B602E7002F044FD23782BB944F67243C2F2000389
:2005000001221A7005B0BDE8F08F44F67C43C2F200031B7833B940F2CC24C2F20004FB232E
:200520002370B4E743F22C62C2F20002937B0221013B01FA03F399B21B0744F69C4308BF69
:200540000911C2F2000392F80EA040F2CC24C2F2000408BF01F1FF3193F801900CBF89B2AD
:20056000090984F802A04FF0080A84F8099021FA0AF90025257044F69845C2F20005D5F870
:2005800000C093F800804FEA1C2B44F67A4E40F2382340F2982644F6704544F65442C2F21E
:2005A00000030127C2F2000EC2F20006C2F20005C2F20002607084F807C0A4204FF00B0CF8
:2005C00084F808B084F80A804FF0300B4FF0030861718EF8007027711F7083F801A05E6054
:2005E000187283F809C085F800B0118084F8069084F8038069E700BF2DE9F04741F62D425C
:2006000043F21C6484B0C2F200041027C0F200020021144E40F2084340F29825C2F20003A8
:200620000294019203914FF0080C4FF0890E4FF00108C2F200050DEB070A4FF002091AE97D
:20064000070083F8008083F801C05D6083F808E05F72DE6084F80090636002F08FFC04B02D
:20066000BDE8F0873E3600202DE9F04343F22C66C2F200063446054654F8120FD5F8008081
:20068000D5F804C0D5F808E0EF686168A268E36889B004ADC6F812800FC5C4F804C030469B
:2006A000C4F808E0E76002F0E7FC00283AD044F66345C2F2000500232B7043F2006441F61F
:2006C0002D42C2F200040027C0F2000243F2506340F29826C2F2000301924FF0010E029412
:2006E00003974FF0880C01AA4FF00808C2F20006DD6083F801805E6083F808C083F800E044
:2007000083F809E04FF0020907CA636084F8009002F034FC44F66F43C2F200031F7009B07E
:20072000BDE8F08304AF44F663450FCFC2F20005C6F81200F72730466160A260E3602F706C
:2007400002F09AFCB9E700BF2DE9F04143F22C63C2F200039B7B44F67B455A1ED2B20B2AAF
:2007600040F2583441F62D4284B088BFFF23C2F20004C2F20005C0F2000200212B70029401
:200780000192039104AF43F22C5340F29826C2F200034FF0080C4FF0A20E17E90700C2F227
:2007A000000601274FF00208DD6083F801C05E6083F808E01F705F7284F80080636002F017
:2007C000DDFB04B0BDE8F0812DE9F04343F22C64C2F20004037885B02046A67BA37302F072
:2007E0004BFC68B194F80EE0AEF10603DBB2062B5AD844F67345C2F2000500232B7013E02B
:20080000A37B063BDBB2062B4ED844F67345C2F20005F7232B7043F22C60C2F20000A673A7
:2008200002F02AFC94F80EE040F2903340F2982040F2B02241F62D41C2F20003C2F2000231
:2008400001274FF00809C2F200004FF0A1084FF0020CC0F2000100247645DD6083F801905C
:20086000586083F808801F705F725360029282F800C00191039409D044F67C4244F67243F3
:20088000C2F20002C2F2000314701C7004AB13E9070002F073FB44F66F43C2F20003002204
:2008A0001A7005B0BDE8F08344F67345C2F20005FF232B70AFE700BF2DE9F04143F22C6319
:2008C000C2F200031B7B44F662455A1ED2B2172A40F2A02441F62D4284B088BFFF23C2F2C0
:2008E0000004C2F20005C0F2000200212B7002940192039104AF40F2703340F29826C2F2E2
:2009000000034FF0080C4FF0870E17E90700C2F2000601274FF00208DD6083F801C05E6044
:2009200083F808E01F705F7284F80080636002F025FB04B0BDE8F0812DE9F0410278012176
:20094000531E994042F29043C0F2FD0343F22C64C2F200040B40267B86B02273002B48D11C
:2009600044F66A45C2F20005F92326732B7040F2A82441F62D42C2F20004C0F20002002154
:2009800040F2D82340F29826C2F200030194009202914FF0080C4FF0860E0127C2F20006C1
:2009A000DD6083F801C05E6083F808E01F705F724FF002089DE80700636084F8008002F0B7
:2009C000DDFA2B7863B940F24912C0F20002802104930392059106AB13E9070002F0CEFA6F
:2009E00044F66F43C2F2000300221A7006B0BDE8F081204602F040FB44F66A4520B1C2F2DB
:200A0000000500232B70B2E7C2F20005F723204626732B7002F030FBA9E700BF2DE9F04358
:200A200043F22C6340F2184441F62D4285B0C2F20004C2F20003C0F20002002193F80D901D
:200A400002940192039104AF44F6784543F20C6340F29826C2F20003C2F200054FF08C0C54
:200A600017E907004FF008080127C2F200064FF0020EDD6083F801805E6083F808C01F7026
:200A80005F7285F80090636084F800E002F076FA05B0BDE8F08300BF2DE9F0432F4C87B070
:200AA000034601AE94E8030086E8030018685968234603C3201F02F0DFFA44F664450028C9
:200AC00040D044F67743C2F200050021C2F20003012229701A7040F2482441F62D42C2F243
:200AE00000040027C0F200020494039205970DF1180E40F2403340F29826C2F200034FF09F
:200B0000850C1EE907004FF008084FF0010EC2F20006DD6083F801805E6083F808C083F82A
:200B200000E083F809E04FF00209636084F8009002F024FA44F66F43C2F200031F7007B05F
:200B4000BDE8F08396E80300C2F20005F72384E80300201F2B7002F08FFABCE7303600203C
:200B60002DE9F04143F22C63C2F200039B7B0227013B9F40BFB282B0002F6FD0002140F2F5
:200B8000A8434FF6FF7EC2F2000308460C46C0F27F0E5A781E7812029D7842EA06422A43A0
:200BA0007245C8BF02F17F4200295BD09442B8BF14469042A8BF1046013189B28F4203F187
:200BC0000303E6D1204400EBD0704716FFB2C0F34701C0F34722C0F3474301A88DF8041025
:200BE0008DF805208DF806308DF80770FFF7BAFA40F2802440F28C4241F62D41C2F20004B7
:200C0000C2F20002C0F20001002782E8920044F6654540F2603340F29826C2F200034FF0B9
:200C2000A90CC2F2000501274FF00808C2F200064FF0020E2870DD6007CA83F801805E6066
:200C400083F808C01F705F72636084F800E002F095F902F02BFC02B0BDE8F0813B463A4670
:200C60003946BAE710461446A6E700BF2DE9F04344F67646C2F20006337883B00746002B09
:200C800052D144F69C44C2F20004254601E06B7853B944F69C40C2F2000042F6104102F0DF
:200CA000BBFD2378002BF2D043F22C64C2F20004A27B4FF00208013A08FA02F244F6504313
:200CC00043F28055C2F20003C2F200052F601A8002F0B8FB2D68002D00F0B78002F03EFCB7
:200CE0000B2002F041FC1021012002F011FCE17B404602F00DFC217C032002F009FC617CD8
:200D0000042002F005FC43F2686040F66D420124C2F20000C0F2000280210023347003B032
:200D2000BDE8F04305F048BC44F65A44C2F2000402F00EFC208840F2A843C2F2000318447E
:200D400044F6504502F0F6FBC2F2000502F006FC23882A8803339BB202EB420293422380AB
:200D6000C0F2898043F28055C2F200052B6800202080002B00F0958040F2A83340F2982477
:200D800044F6754143F22462C2F20002C2F200034FF0010EC2F20001C2F200044FF0020C33
:200DA0004FF008094FF0A308536082F800C083F8088083F809E083F801905C6083F800E082
:200DC000D96008703C7843F23C5341F62D417445C2F20003C0F2000183E8060003BF43F2BA
:200DE0000862C2F200021268986004BF80329A6093E8070002F0C2F844F67C43C2F2000314
:200E000001221A7000242C60347002F0A7FB02F04DFB02F03BFD44F6984242F2A0014BF6AF
:200E2000C843C2F20002C4F202014FF08065C0F2000310605B690D60984744F66E43C2F240
:200E400000031C7003B0BDE8F08302F087FB0B2002F08AFB1021012002F05AFB2946404694
:200E600002F056FB2946032002F052FB2946042002F04EFB47E703F0D1FD2B884FF48031FA
:200E800091FBF3F10C390144002243F2886040F66D430092C0F20003C2F2000005F070FED5
:200EA000D0E744F67C4144F67242C2F20001C2F200020B701370A5E703F0F2BE2DE9F001F7
:200EC00043F22C634BF24402C2F20003C0F2000242F2054603CA1C46B2F80080C0F6DC26D0
:200EE000002244F8046B0A27BA264FF0050C5A60C3F8120062609A83DA831A84A3F81A802E
:200F0000C3F816101A745A74DA7383F80CC09F735E73BDE8F001704738B5034640F2284000
:200F20000C461546C2F200001A46642101F06CFE98B1A5B1013DEDB204F1080303EBC505DC
:200F400001E0AC420BD040F228402146C2F20000083401F011FE0028F3D1002038BD40F2C3
:200F60002840C2F2000001F02FFE0028F5D00220114907F0DDFE70B140F22840C2F200008D
:200F800001F0F6FD014640F22840C2F2000001F0E9FF012038BD40F22840C2F2000001F0AA
:200FA000E7FD40F228410246C2F20001024801F0BFFF012038BD00BF363600202DE9F04F06
:200FC00043F2CC4444F67D45C2F20004C2F200058FB022462B4601F029FE0128074602D0E7
:200FE0000FB0BDE8F08F44F66D46C2F2000696F80090B9F1000FF3D11A2095F8008007F08E
:2010000057FBAA4907F09EF9627823788DF821208DF82030BDF8202040F601039A42054697
:20102000377006D044F67143C2F2000383F80090D6E740F29820C2F20000A11C082209F048
:20104000D9FE002840F08D82022744F67143C2F20003B8F10A0F04931F7040F2878043F22E
:20106000CC4244F66F4CEDB240F2E82744F6664944F66E4A44F6674B44F67743C2F200021C
:20108000C2F2000C05950696C2F200074646C2F20009C2F2000AC2F2000BC2F200030A25F3
:2010A000E046019262195278605D7A703870002A00F06182DDF804C0A91C614440F2E82C9D
:2010C000C2F2000CCCF8041099F80010002940F058829AF80010002940F053829BF8001031
:2010E000002940F04E8298F80010002940F049828038292834D8DFE810F0F30133003300CD
:2011000033001C02E301CB01B3019B0183016B0153013B01330033003300330033003300CC
:201120003300330033003300330033003300330033003300330033003300330023010B01B5
:20114000DB00BC0098007F005B003C002A00197831B1DDF810C09CF80010022900F078824F
:2011600002321544EDB2AE429CD8069E0023337036E719780029F3D0DDF810C09CF8001092
:201180000229EDD105980028EAD040F2803240F2BD11C2F20002C0F2000100201160506059
:2011A000906007CA039301F0E9FE7A78039BD7E719780029D4D0DDF810C09CF800100229E0
:2011C000CED105980028CBD040F2803240F24D21C2F20002C0F20001116079680020516000
:2011E000906007CA4FF0010E88F800E0039301F0C5FE7A78039BB3E719780029B0D0DDF8FD
:2012000010C09CF800100229AAD105980028A7D040F2803241F66D21C2F20002C0F2000166
:201220001160796800205160BAE71978002997D0DDF810C09CF80010022991D1059800282E
:201240008ED040F2803241F2D971C2F20002C0F200011160796800205160906007CA4FF043
:20126000010E89F800E0039301F088FE7A78039B76E7197800293FF473AFDDF810C09CF8BC
:20128000001002297FF46CAF059800283FF468AF40F2803240F27541C2F20002C0F2000141
:2012A00011607968002051607AE700BF36360020197800293FF454AF059900293FF450AF76
:2012C0004BF6C8420121C0F200020393926908468AF800109047049940F28032C2F200026E
:2012E00040F66D4C42F290005160C0F2000CC4F202004FF0080E4FF08061C2F800C0C2F86B
:2013000008E0016007CA01F039FE7A78039B27E7197800293FF424AFDDF810C09CF80010E4
:2013200002297FF41DAF059800283FF419AF40F2803240F24971C2F20002C0F200012CE737
:20134000197800293FF40CAFDDF810C09CF8001002297FF405AF059800283FF401AF40F270
:20136000803240F2C971C2F20002C0F2000133E7197800293FF4F4AEDDF810C09CF80010F4
:2013800002297FF4EDAE059800283FF4E9AE40F2803240F61D21C2F20002C0F20001FCE6E2
:2013A000197800293FF4DCAEDDF810C09CF8001002297FF4D5AE059800283FF4D1AE40F2A3
:2013C000803241F68951C2F20002C0F2000103E7197800293FF4C4AE059800283FF4C0AE32
:2013E00040F2803240F2D1210498C2F20002C0F200014FF0000E50601160C2F808E0D0E61A
:20140000197800293FF4ACAEDDF810C09CF8001002297FF4A5AE059800283FF4A1AE40F2D2
:20142000803240F2F951C2F20002C0F20001B4E6197800293FF494AEDDF810C09CF8001003
:2014400002297FF48DAE059800283FF489AE40F2803240F26961C2F20002C0F20001BBE69A
:20146000197800293FF47CAEDDF810C09CF8001002297FF475AE059800283FF471AE40F202
:20148000803240F6B901C2F20002C0F2000184E6197800293FF464AEDDF810C09CF800108F
:2014A00002297FF45DAE059800283FF459AE40F2803240F63911C2F20002C0F200018BE646
:2014C000DDF810C09CF8001002297FF449AE40F2803240F69921C2F20002C0F200017BE690
:2014E000197800293FF43CAEDDF810C09CF8001002297FF435AE059800283FF431AE40F242
:20150000803241F26571C2F20002C0F200014FF0000E82E802404FF48070906007CA4FF07B
:20152000010E03938BF800E001F028FD7A78039B16E6197800293FF413AEDDF810C09CF81A
:20154000001002297FF40CAE059800283FF408AE40F2803241F2E161C2F20002C0F20001B3
:20156000D5E70320A11C07F0E3FB4FF0030900283FF458AD69E540F2E821C2F200014A6067
:20158000A2E543F28454FC23C2F200042371069E01F0C6FA397843F2E853C2F2000340F2ED
:2015A000E822A42923605860C2F2000240D0A52901BF516844F674420978C2F2000208BF1E
:2015C00011701B68012108220B938DF829208DF82810037822798DF83030837843F2B8446B
:2015E000C2F200048B428DF83130227009D9023BDBB2611C1944FF22234603F8012F8B42E6
:20160000FBD10378A42B1BD0A52B02BF44F67443C2F200031B784FF001000AA94FF00202C7
:2016200008BF63700D94FFF777FC00233370D7E4516844F674424978C2F200021170C0E73D
:2016400044F67443C2F200031B7863700378DBE7059800283FF484AD4BF6C8420121C0F2F7
:201660000002039340F2803C926908468AF80010CDF81CC09047DDF81CC040F66D42C2F247
:20168000000CC0F2000242F29001CCF800204FF0080EC4F202014FF080600022CCF808E0E6
:2016A000CCF80420CDF81CC008609CE8070001F065FCDDF81CC040F66132C0F200024FF4EB
:2016C00000710020CCF80400CCF80020CCF808109CE8070001F052FC7A78039B40E500BFB3
:2016E0002DE9F04740F28824C2F200040223012740F2982E44F6684643F28C55C2F2000E02
:2017000021461A464FF0840CC2F200064FF00008C2F200054FF0080938462B70C4F804E070
:2017200084F808C084F8019027706772E66086F800806C60FFF7F0FBFFF7C0FB43F22C6085
:20174000C2F2000001F098FC43F2686040F6B9624346C2F20000C0F200028021BDE8F04794
:2017600004F02ABF2DE9F04743F2CC54C2F200040127022340F2982E44F6694640F2E835B5
:20178000C2F2000E21464FF08009C2F200064FF00008C2F200051A464FF0080C38462B70D2
:2017A00084F801C0C4F804E02770677284F80890E66086F800806C60FFF7AEFB43F268601C
:2017C00040F6B96249464346C2F20000C0F20002BDE8F04704F0F0BE2DE9F04F44F656468F
:2017E000C2F20006348844F6584987B0C2F20009E4B944F67243C2F200031D78027844F618
:201800007943C2F200031A70002D00F0E08043F22C63C2F200039B7B0222013B02FA03F36B
:2018200044F65849C2F20009A9F8003044F6704844F65247C2F2000898F80030C2F2000743
:2018400040F2143E40F29821C2F2000E3A88C2F2000104EB030B01918EF81130A0235C4526
:201860004FEA122C4FF001054FF008008DF808208EF810304FF00202019B4FF0AF018EF89E
:2018800000508EF8092043F250550DEB0002B8BF40F2A84A8DF809C08EF801008EF8081067
:2018A000CEF80C20CEF80430BEBFC2F20005C2F2000A4FF0000C80F2D6800CF102022A44C6
:2018C00000230AEB0400C15C0133032B02F80119F9D10334A4B20CF1030C5C455FFA8CFC74
:2018E000EBDB40F21434C2F2000421460322CEF814500220FFF710FB98F800103288B9F80C
:20190000003038880A4492B203EB4301013044F6564544F652438A4232803880C2F200054F
:20192000C2F200030EDA43F2686041F2D972C2F20000C0F200020321002304F03DFE07B0F8
:20194000BDE8F08F44F6794CC2F2000C43F2606741F62D4200269CF800A0C2F20007C0F23B
:20196000000240F28C3EC2F2000E00970497059603920DF11809019F1E804FF00208009B04
:2019800019E907008EF801A04FF0010B4FF008094FF0A50A6760C4F80CE084F8098084F89E
:2019A00000B084F8019084F808A05C6083F800808EF800608CF800602E8001F0DFFA44F613
:2019C0006643C2F200031E7007B0BDE8F08F40F2143440F29821C2F200044FF002084FF099
:2019E00001094FF0080CC2F200014FF0A50E43F2606741F62D4284F801C0616084F808E0DF
:201A0000C2F2000784F8009084F80980C0F2000240F28C3E90F80090C2F2000E059504973B
:201A200003920DF1180B44F6524CC2F2000C4FF0FA0A1BE90700C4F80CE083F800903580A2
:201A40008EF801908EF800A07C6087F80080ACF8005001F093FA44F66643C2F200031D70D5
:201A600007B0BDE8F08FC2F200053AE72DE9F84F40F2C8260278C2F2000644F67043327071
:201A8000C2F2000341781B78717033B144F67A48C2F2000898F80000B0BB40F2F025C2F2D0
:201AA0000005FB232B7040F2502440F29823C2F2000401260820C2F20003A6210622267092
:201AC0006070636021726272FF236B70AB70EB702B716B7143F2485640F2083341F62D423B
:201AE000C2F20006C2F20003C0F2000283E844000021022799607460377093E80700E5608D
:201B0000BDE8F84F01F03ABA44F65440C2F20000008842EA012290427DD303FB02F290B245
:201B200040F2502400EB030BC2F200044FF0080A58454FF001014FF0AF0E40F2F02540F2AA
:201B4000982944F66B4284F801A0C2F200054FF0000CC2F20009C2F200024FF00207217070
:201B600084F808E04FF0A00140F2B83EB8BF40F2A84A85F800C0E660637467722174C4F8DA
:201B800004901370BCBFC2F2000EC2F2000A49DA0CF10202724400230AEB0007F95C0133B1
:201BA000032B02F80119F9D1033080B20CF1030C58455FFA8CFCEBDB40F25021C2F200010C
:201BC00003220220C4F814E0FFF7A6F92A7840F2F0234FF0010C0827A6200621C4F80490DA
:201BE000C2F2000384F800C0677020726172002A7FF46AAF43F22C62C2F20002977B98F8E5
:201C000000C030787178032283F803C05F70187159719A705EE740F2F025C2F20005FF237D
:201C20002B7040E7C2F2000EC6E700BF416802780120FFF771B900BF08B500F17803DBB2DB
:201C40003C2B4BF25813C0F2000391BF0146DB6A07206FF045019CBFDB6A0720984708BDAD
:201C6000F0B5832983B004467CD0238883B140F60A12934207D188297BD040F60A130120FC
:201C8000238003B0F0BD00230320238003B0F0BD42F2A003C4F202034FF0806240F298205B
:201CA00043F22C651A60C2F200000821C2F2000503F038F8284601F0D9F92A6842F20543EC
:201CC000C0F6DC239A4204D0FFF7F8F8284601F0D3F940F2982640F2F823C2F20003C2F2E6
:201CE000000696E8030043F2E85283E803004BF69441C2F200020027C0F2000121481F72E0
:201D0000DA6082E8880006F01DFB44F67743C2F2000360BB01221A7000F092FAF6794BF2EE
:201D2000581243F20863C0F20002C2F20003D26A297B06F07F0601201E609047687BFFF784
:201D40007BFF01F06BF840F6BD70C0F20000002101F0ACF840F2F030C2F20000802104F04F
:201D600039FD8AE7019101F0D3F801997DE71F70D2E740F2F030C2F200004FF4485104F052
:201D800029FD7AE7363600202DE9F043037843F22C6403F17802D2B2C2F200043C2A667BB6
:201DA00085B063733DD944F66C45C2F20005FF2366732B7040F22C3441F62D42C2F20004D8
:201DC0000027C0F200020294019203970DF1100E40F2984340F29826C2F200034FF08B0CBF
:201DE0001EE907004FF008084FF0010EC2F20006DD6083F801805E6083F808C083F800E0E9
:201E000083F809E04FF00209636084F8009001F0B5F844F66F43C2F200031F7005B0BDE81B
:201E2000F083204601F028F944F66C4540B9C2F20005F723204666732B7001F01DF9B9E77F
:201E4000C2F200050023607B2B70FFF7F5FEB1E7F0B5002783B005463E463C46284600F001
:201E6000D9F90194019B9E4206DD00BF019B01330193019B9E42F8DC284600F0D5F9019468
:201E8000019BC6F5C876B34206DA00BF019B01330193019BB342F8DB0137B7F5487F06D0D0
:201EA000B7F5C87FCCBFC7F548763E46D6E703B0F0BD00BF2DE9F0414FF4EC74C1F2000429
:201EC00023684FF4804084B05B68C4F2030001219847236801214FF480400A461B68C4F28A
:201EE0000300984705F0A4FA03F046F903F004F901F012FD03F012F900F082F944F20C00A0
:201F00000821C4F209010123C4F2090042F22C02C4F2090203600B6018461368FFF798FF9E
:201F200005F08AFA02F07CFD02F0E0FC04F026FE02F07EFE04F036FD41F2342003F098FC34
:201F400002F016FF04F0CAFE4BF26800C0F2000002F0B2FE05F0CEF94BF264054BF26004C2
:201F600010F0040FC0F20005C0F200040CBFA846A04605F0C7F9012814BF2F46274605F0BA
:201F8000B9F910F0020F0CBF2E46264605F0B2F910F0080F08BF2C464BF27C003A46334631
:201FA00000944146C0F2000003F0BAFD40F2B8000021C2F2000004F0AFFD04F0C1FA04F0A8
:201FC0003DFB1020FFF744FF4BF2B000C0F2000003F0A6FD4BF67843C0F20003186802F008
:201FE0006BFE4BF2B800C0F2000003F099FD4BF6A043C0F20003186802F05EFE4BF2C000A4
:20200000C0F200004BF6C84403F08AFDC0F200044BF2C8002168C0F2000003F081FDE46993
:20202000A04738B1A04701464BF2CC00C0F2000003F076FD0A2002F037FE06F08DF902A80A
:20204000082102F06FFE4BF258149DF80F20BDF80E109DF80E6044F62053C2F20003C0F29F
:202060000004198042EA0626E56A4AF6CD310220A84731460320A84700210120A847636B45
:20208000082202A90B2098470420FFF7E1FE40F210000021C2F2000004F03EFD4BF23C00A9
:2020A000C0F2000004F0EEF902F0D2FD1020FFF7CFFE04F095FC044602F0E4FD14F0FF0F2B
:2020C000F7D102F0B7FEF4E72DE9F04105888046772D42D07E2D36D025B100230380032016
:2020E000BDE8F08104F056FC40F23806C2F2000644F6605343F294643268C2F20003C2F23B
:20210000000418702560002A62D02B4644F61C551F46C2F20005EF5493688020002198473A
:202120002368013356F823202360002AF3D1DBB244F67F41C2F200010B707723A8F80030BD
:202140000120BDE8F08144F66053C2F200031B788B4223D00120BDE8F08144F67F47C2F266
:20216000000743F2946443F298663A78C2F20004C2F2000600239342336023600ADA44F6A8
:202180001C55C2F20005E956002923DB013393422360F4DB3368002BECD1CEE743F29464EF
:2021A00044F61C5544F67F4743F29866C2F20004C2F20005C2F20007C2F200062368326836
:2021C000E85C511C00F07F003A78E8543160DDE71346ADE744F6605140F23802C2F20001A3
:2021E000C2F20002097852F82320002004F062FC0028E3D17E23A8F800300120BDE8F08125
:2022000008B501F0B9FD44F68043C2F2000300221A7008BD44F68043C2F200031A780243AA
:2022200010461A7001F0C8BD44F68043C2F200031A7822EA000210461A7001F0BDBD00BFEA
:20224000F0B444F61852C2F20002167844F6A043C2F20003002E00F05B84197801291AD07C
:20226000751EEDB205EB45051D44184603E010F8034F012C0DD0A842F9D106EB46010136C9
:20228000F6B20125581808245D54167044708EB11978022919D044F6A044C2F200041678A1
:2022A000002003E014F8035F022D0CD00130C0B2B042F7D306EB4600022119541C18013611
:2022C00061701978167006291AD044F6A044C2F200041678002003E014F8035F062D0DD018
:2022E0000130C0B2B042F7D306EB46010620585401365818012419781670447010291AD0BB
:2023000044F6A044C2F200041678002003E014F8035F102D0DD00130C0B2B042F7D306EB7E
:2023200046011020585401365818012419781670447011291AD044F6A044C2F2000416785B
:20234000002003E014F8035F112D0DD00130C0B2B042F7D306EB46011120585401365818D6
:20236000022419781670447012291AD044F6A044C2F200041678002003E014F8035F122D33
:202380000DD00130C0B2B042F7D306EB460112205854013658180224197816704470142916
:2023A0001AD044F6A044C2F200041678002003E014F8035F142D0DD00130C0B2B042F7D3E1
:2023C00006EB46011420585401365818022419781670447021291AD044F6A044C2F2000443
:2023E0001678002003E014F8035F212D0DD00130C0B2B042F7D306EB4601212058540136F8
:2024000058180224197816704470AF291AD044F6A044C2F200041678002003E014F8035FC4
:20242000AF2D0DD00130C0B2B042F7D306EB4601AF20585401365818022419781670447039
:20244000A0291AD044F6A044C2F200041678002003E014F8035FA02D0DD00130C0B2B042B5
:20246000F7D306EB4601A020585401365818302419781670447076291BD044F6A044C2F2CC
:2024800000041678002003E014F8035F762D0ED00130C0B2B042F7D306EB4600762119541E
:2024A000012418440136197816704470847077291CD044F6A044C2F200041678002003E0B2
:2024C00014F8035F772D0FD00130C0B2B042F7D306EB460077211954013618440025012493
:2024E000197816704570847078291CD044F6A044C2F200041678002003E014F8035F782D15
:202500000FD00130C0B2B042F7D306EB460078211954013618440025012419781670457097
:20252000847070291CD044F6A044C2F200041678002003E014F8035F702D0FD00130C0B22E
:20254000B042F7D306EB4600702119540136184400250124197816704570847079291BD060
:2025600044F6A044C2F200041678002003E014F8035F792D0ED00130C0B2B042F7D306EBB2
:2025800046007921195401241844013619781670447084707A291CD044F6A044C2F2000412
:2025A0001678002003E014F8035F7A2D0FD00130C0B2B042F7D306EB46007A2119540136C1
:2025C000184400250124197816704570847080291CD044F6A044C2F200041678002003E099
:2025E00014F8035F802D0FD00130C0B2B042F7D306EB460080211954013618440025012460
:20260000197816704570847081291CD044F6A044C2F200041678002003E014F8035F812DE1
:202620000FD00130C0B2B042F7D306EB46008121195401361844022501241978167045706B
:20264000847082291CD044F6A044C2F200041678002003E014F8035F822D0FD00130C0B2E9
:20266000B042F7D306EB4600822119540136184400250124197816704570847084291CD021
:2026800044F6A044C2F200041678002003E014F8035F842D0FD00130C0B2B042F7D306EB85
:2026A0004600842119540136184400250124197816704570847085291CD044F6A044C2F2B9
:2026C00000041678002003E014F8035F852D0FD00130C0B2B042F7D306EB460085211954BD
:2026E0000136184408250124197816704570847086291BD044F6A044C2F200041678002017
:2027000003E014F8035F862D0ED00130C0B2B042F7D306EB46008621195401241844013675
:20272000197816704470847087291CD044F6A044C2F200041678002003E014F8035F872DB5
:202740000FD00130C0B2B042F7D306EB460087211954013618440025012419781670457046
:20276000847088291CD044F6A044C2F200041678002003E014F8035F882D0FD00130C0B2BC
:20278000B042F7D306EB4600882119540136184410250124197816704570847089291CD0E5
:2027A00044F6A044C2F200041678002003E014F8035F892D0FD00130C0B2B042F7D306EB5F
:2027C00046008921195401361844002510241978167045708470A1291BD044F6A044C2F269
:2027E00000041678002003E014F8035FA12D0ED00130C0B2B042F7D306EB4600A121195465
:202800000124184401361978167044708470A2291CD044F6A044C2F200041678002003E023
:2028200014F8035FA22D0FD00130C0B2B042F7D306EB4600A22119540136184400250124D9
:202840001978167045708470A3291CD044F6A044C2F200041678002003E014F8035FA32D5B
:202860000FD00130C0B2B042F7D306EB4600A3211954013618440025012419781670457009
:202880008470A4291CD044F6A044C2F200041678002003E014F8035FA42D0FD00130C0B263
:2028A000B042F7D306EB4600A42119540136184402250B241978167045708470A5291CD090
:2028C00044F6A044C2F200041678002003E014F8035FA52D0FD00130C0B28642F7D806EB47
:2028E0004600A5211954013618440125022419781670457084708A291CD044F6A044C2F24F
:2029000000041678002003E014F8035F8A2D0FD00130C0B2B042F7D306EB46008A21195470
:202920000136184400252F2419781670457084708B291BD044F6A044C2F2000416780020A9
:2029400003E014F8035F8B2D0ED00130C0B2B042F7D306EB46008B21195401241844013629
:2029600019781670447084708C291CD044F6A044C2F200041678002003E014F8035F8C2D69
:202980000FD00130C0B2B042F7D306EB46008C2119540136184400250124197816704570FF
:2029A00084708D291CD044F6A044C2F200041678002003E014F8035F8D2D0FD00130C0B270
:2029C000B042F7D306EB46008D211954013618440C25012419781670457084708E291CD09D
:2029E00044F6A044C2F200041678002003E014F8035F8E2D0FD00130C0B2B042F7D306EB18
:202A000046008E2119540136184400250C241978167045708470A6291CD044F6A044C2F21F
:202A200000041678002003E014F8035FA62D0FD00130C0B2B042F7D306EB4600A621195417
:202A400001361844022506241978167045708470A8291CD044F6A044C2F200041678002091
:202A600003E014F8035FA82D0FD00130C0B2B042F7D306EB4600A8211954013618440025CD
:202A800005241978167045708470A72924D044F6A044C2F200041678002003E014F8035FB4
:202AA000A72D17D00130C0B2B042F7D306EB4604751C1819EDB24FF0A70C0427012644F6E2
:202AC000A04103F804C01570C2F20001477086708DB10978A92919D044F6A040C2F2000027
:202AE0001578002103E010F8034FA92C0ED00131C9B2A942F7D305EB450019180135A9276A
:202B0000002601241F5415704E708C70F0BC704701210820587019701170FFF7B9BB00BF10
:202B200070B444F61853C2F200031D78F5B144F6A046C2F200063378834211D0013DEDB2D2
:202B400001353246012303E012F8031F814208D0AB421C4603F10103F6D1002070BC7047E8
:202B6000002404EB4404A01970BC70472846F5E740780230C0B2704770B543784A780D460C
:202B8000991C11446229044602DC0178402901D0002070BD591C465C08447D2EF8D103326C
:202BA0001344E6542B7863546B784370696819B102306A7808F052F96B7862780233134459
:202BC0006370012070BD00BFF8B545780446602D02DC0378402B01D00020F8BD6E1C835D00
:202BE00087197D2BF8D1AB1C294600F8013F002204F08AF8A15D0346020A03356155A35585
:202C00007A700120F8BD00BF042910B481BF022140247D23827083BF04704170C370002031
:202C200088BF01205DF8044B704700BF2DE9F84F0F46064690469946002400F1010B00F14D
:202C4000030A21B914E00134A4B2A74210D9355D402DF8D133195D7802352C44BC421EDCB4
:202C6000741914F8013C7D2B05D00124A742EED8FF20BDE8F88F00225846291F04F044F8AA
:202C800014F8022C14F8033C03EB02239842ECD1B378012B09D0AF4204D02C46D5E70020C2
:202CA000BDE8F88F0120BDE8F88FAC1F22464046514608F0D3F889F80040ECE72DE9F047A7
:202CC00004880746752C1BD08F2C06D0002C49D0002303800320BDE8F08785294FD143F2D1
:202CE000A06443F29C6643F2A465C2F20004C2F20006C2F20005002323603360A5F88030AA
:202D000043F2A06643F2B07543F29C68C2F20006C2F20005C2F200084FF0000A4FF0010924
:202D20000BE033687E2BE854D9BF01332360C4F800A0C8F800907D2824D043F2A870C2F293
:202D4000000004F089F843F2A06443F2B071431CC2F20004C2F20001E3D175233B8001207B
:202D6000BDE8F08703F016FE44F6615243F2A063C2F20002C2F2000310701C60C0E70120DA
:202D8000BDE8F08743F29C66C2F2000633685BBBD4F8008043F2A465C2F2000543F2B071DC
:202DA00028464246C2F2000108F058F8A5F8808044F66153C2F2000343F2A4621978C2F25E
:202DC0000002002003F076FE44F25403C2F2000318688521002203F06DFE00288BD18F234A
:202DE0003B800120BDE8F087D4F8008043F2A465C2F20005C8F1800941444A46284608F0DB
:202E00002DF843F2B07105EB09004246C2F2000108F024F88023A5F88030C9E708B543F25B
:202E2000A87043F22871C2F20000C2F20001802204F00AF8BDE8084040F22000C2F20000B8
:202E4000002103F069BE00BF704700BF704700BF704700BF38B540F23003C2F200035C6849
:202E600005F03CFB054605F051FB01462846A04738BD00BF38B540F23003C2F200031C68BD
:202E800005F02CFB054605F041FB01462846A04738BD00BF08B51B2005F00AFCBDE808406A
:202EA0004BF69441C0F2000105F04CBA38B54BF20812054643F63000C2F20000C0F20002EE
:202EC0000C46922104F0D0F843F64C004BF21012C2F20000C0F20002812103F0E9FF40F236
:202EE00030032DB1C2F200031D6054B15C6038BD42F64962C2F20003C0F200021A60002CE3
:202F0000F4D142F64D62C0F200025A6038BD00BF08B543F63000C2F2000004F0B9F8BDE8BF
:202F2000084043F64C00C2F2000003F0D5BF00BF38B544F62053C2F200031D8803880446FF
:202F40009D420CD00846114605F030FB43F630002146C2F2000004F09DF8012038BD0020AE
:202F600038BD00BF08B505F021FB43F64C00C2F2000003F0B3FF012008BD00BF2DE9F04FF7
:202F800085B004AB03E90700DDF80480029EDDF80CA0B8F1000F0DD043F66404C2F20004F2
:202FA0000025204603F02CFB38B901350F2D04F12004F6D105B0BDE8F08F204651464246CB
:202FC000334616B343F6442C4FEA850BC2F2000C0BEB050906F120030CEBC9090093F368A8
:202FE00030687168B2684F460FC7009B10369E42B946F4D1306871680BEB0503A9E8030053
:203000000CEBC30342462046514605B0BDE8F04F03F0D2BAF8B506460D46174600F0F6F8CF
:20302000044628B1304639462A4600F02DF9044600F022F92046F8BD70B505460E46144664
:2030400000F0E4F870B12846214600F0A3F948B121463246284600F043F9044600F00CF971
:20306000204670BD00F008F9002070BD014624220020FFF7CFBF00BF014624220020FFF7EC
:20308000DBBF00BF10B542F2A00382B0062202A8C4F202034FF4801400F8042D01211C60DE
:2030A00006F070FC42F29003C4F202031C6002B010BD00BF30B54BF21813C0F200031868F0
:2030C00042F2A00383B00024C4F202034FF4801501908DF800408DF8014001A81D600421C8
:2030E00006F050FC38B942F29003C4F202031D60FF2003B030BD6846022106F063FC42F285
:203100009003C4F202031D6010B9FF2003B030BD9DF80030C22B18BFEF2B18BF2046E8D1C3
:203120009DF80130A3F11400113BC0B2DBB2012888BF012B94BF0020012080F00100D8E776
:2031400030B542F2A00383B0C4F20203052202AC4FF4801504F8042D1D6006F059FC2046BD
:20316000012106F00FFC20B913E09DF80730DB0716D50DF10700012106F024FC0028F4D19D
:2031800042F29003C4F202034FF480121A6003B030BD42F29003C4F202031D6003B030BD1F
:2031A00042F29003C4F202034FF4801201201A6003B030BD10B582B0FFF7C2FF08B902B05C
:2031C00010BD42F2A003C4F202034FF48014B92202A800F8012D01211C6006F0D3FB42F278
:2031E0009003C4F202031C600A24FFF763FF631E0028E4D013F0FF04F7D142F29003C4F2D7
:2032000002034FF480121A6002B010BD10B54FF4106082B00A21C0F23D0006F00DFC4FF4D5
:20322000DA73C1F200031B681420DB6B984742F2900142F2A003C4F202014FF48012AB24B6
:2032400002A8C4F202030A6000F8014D01211A6006F098FB08B1FFF773FF42F29003C4F296
:2032600002034FF480121A60FFF724FF421E5042504102B010BD00BF08B5FFF79BFFBDE82E
:20328000084006F03FBC00BFF0B583B004460E461746FFF755FF08B903B0F0BD42F2A00321
:2032A0000320210CC4F20203220A4FF480158DF804008DF805108DF807408DF8062001A8BC
:2032C0001D60042106F05EFB18B13846314606F079FB42F29003C4F202031D6003B0F0BD76
:2032E0002DE9F04F0D4683B00446164600294BD042F2A00842F29009C4F20208C4F20209DF
:203300004FF0020A4FF480172AE0FFF7BBFEE3B2C3F580734FEA144C220A0421AB4234BFC5
:203320009B46AB4600B38DF806208DF807408DF804A08DF805C00DEB0100C8F8007006F0FF
:2033400021FB0246594630465C44CBEB050582B106F018FB024660B1C9F800705E449DB1DE
:20336000FFF7EEFE0028D0D10022104603B0BDE8F08F42F29003C4F202034FF480111046A7
:20338000196003B0BDE8F08F0122104603B0BDE8F08F00BF2DE9F04701F6FE71040B01EB20
:2033A000000A2403C4EB0A0A82B020235FEA1A3A8DF804302FD0002542F2A00742F2900883
:2033C000A946C4F20207C4F202084FF4801619E0FFF758FE220C230A042104F58054B0B1B3
:2033E0008DF806308DF805208DF807900DEB01003E6006F0C7FA4FF4801380B15545C8F89D
:20340000006008D00135FFF79BFE0028E0D1002002B0BDE8F087012002B0BDE8F08742F2C5
:203420009002C4F20202136002B0BDE8F08700BF08B5FFF7EBFEFFF7BDFEBDE8084006F010
:2034400061BB00BF38B500F047F94FF4DA73C1F200031B680C20DB6B42F2A0049847C4F2CC
:2034600002044FF480554FF4DA73256065F31F431B680D20DB6B98474FF400524FF4DA7365
:20348000226065F31F431B680E20DB6B98474FF480424FF4DA73226065F31F431B680F2097
:2034A000DB6B98474FF40043236038BD10B54FF4DA74C1F2000423680C209B6B98472368B5
:2034C0004FF400510C209B69984723680D209B6B984723684FF400510D209B6998472368F2
:2034E0000E209B6B984723684FF400510E209B69984723680F209B6B984723680F209B692C
:203500004FF400519847BDE8104000F013B900BF00B583B002AA02F8011D01230146402051
:2035200000F03CF900280CBFFF20012003B05DF804FB00BF4FF403530246C4F20203196850
:2035400011F00071FBD11220042300F0F5B800BF00210A460B46092000F020B900210A4653
:203560000B460B2000F01AB930B40B281BD8DFE800F06273889D061C324D061C324842F2E0
:20358000900242F2A003C4F20203C4F202024FF480554FF400544FF480404FF400411560A2
:2035A0001C601860196030BC704742F2900242F2A003C4F202024FF48055C4F202034FF48E
:2035C00000544FF480404FF4004115601C601060196030BC704742F2900342F2A002C4F240
:2035E00002034FF48055C4F202024FF400544FF480404FF400411D6014601060196030BC10
:20360000704742F2A00242F29003BCE742F2900342F2A002C4F202034FF48055C4F2020289
:203620004FF400544FF480404FF400411D60146018601960B7E742F2A003C4F202034FF417
:2036400080544FF400504FF480414FF400421C60186019601A60A6E742F2A00342F2900269
:20366000C4F202034FF480554FF40054C4F202024FF480404FF400411D601C6010601960BD
:2036800091E742F2A00342F29002C4F202034FF480554FF400544FF48040C4F202024FF4AB
:2036A00000411D601C60186011607CE742F2A00242F29003C4F20202C4F202034FF480555A
:2036C0004FF400544FF480404FF40041156014601860196067E700BF10B54FF4DA74C1F2DC
:2036E000000423681E20DB6B984723681D20DB6B984723681C209B6B984723684FF48041B0
:203700001C209B69984723681B20DB6B9847236819209B6B9847236819209B694FF480412A
:2037200098474FF41060C0F23D001E2106F088FA012010BD06F0F2BA70B501F00F011C4639
:2037400042F2A00582B00143C4F202054FF00063002C18BF12288DF8041016462B6011D11C
:2037600001A8012106F01EFAA8B13046214606F03DFA42F29003C4F202034FF000621A6070
:2037800002B070BD631E01A802218DF8053006F009FA0028E9D1002002B070BD70B5052B14
:2037A00084B026D801F00F0142F2A0040843C4F202044FF000658DF804002560E3B1591E3A
:2037C0008DF805100020461C04AC044412F8015BF0B2834204F80A5CF5D8991C01A806F085
:2037E000E1F930B142F29003C4F202034FF000621A60002004B070BD01A8022106F0D2F9E3
:203800000028EFD1F5E700BF08B5FFF765FFBDE8084006F083BA00BF70B543F6A0440B0AD8
:20382000C2F200040D4606464A2100202370657000F024FA2046022100F038F928B1A5F513
:203840003055063DADB20A2D05D90020014600F015FAFF2070BD012404FA05F540F2814367
:203860002B40002BF1D043F69C45C2F200052846032100F095F90028E7D02B880020014615
:20388000338000F0FBF9204670BD00BF4FF40073C4F22233012141F2140210B5C4F209028D
:2038A000196013689B06FCD54FF4D074C1F20004236891201B689847236891209B689847A8
:2038C0001128F9D14823C1F20003586C092103F005FC00200921024603F084FC49F21C0383
:2038E000C4F20C0300221A6003F0F6FC044603F025FC204610BD00BF10B54FF4DC74C1F227
:203900000004236804205B699847236804205B6B98470128F9D110BDF0B589B003F088FDE7
:203920000746FFF7E9FF4FF4DC73C1F200031B684FF4A060DB69984742F22803C6F2080309
:20394000012142F228021960C4F2080213689907FCD54BF21C14C0F2000401AD0FCC0FC542
:2039600094E80700019C85E80700621C1EBF4FF4DA7501AEC1F200050DD02B6820469B6B83
:2039800098472B6820469B694FF40051984756F8044F631CF1D14FF4DA73C1F200031B682D
:2039A0001A20DB6B984742F2A003C4F202034FF080621A60FFF728FFFFF73AFD40F24000BF
:2039C000C2F2000001F088FB0FB109B0F0BD09B0BDE8F04003F030BD10B54FF4D673C1F227
:2039E00000031B684FF400505B68C4F20000984710F00C0F044608D042F60403C4F2000321
:203A000004221A60022003F01BFDD4F1010038BF002010BD08B54FF4DC73C1F200031B68A7
:203A200002205B6B9847012801BF42F26003C4F20803186800F0010018BF002008BD00BF92
:203A400038B54FF4DC75C1F200052B6802205B6998472B6802205B6B98474FF4DC730128C0
:203A60000446C1F20003F4D11B684FF44070DB69984742F22803C6F2080342F228021C60EC
:203A8000C4F2080213689B07FCD54FF4D673C1F200031B684FF400504FF4D8411B68C4F28B
:203AA0000000C0F2DC210122984738BD2DE9F84F44F68143C2F200031A784FF420535200B4
:203AC000C4F200031A60064642F608020078C4F2000242F6040388461060C4F200031A683D
:203AE00042F604045106C4F20004F8D403232360022003F0A5FC2368DA07FCD4FFF76CFFAD
:203B0000B8F1010F034631D968B3344614F8012F42F6080708F1FF3AA31B42F6040BC4F294
:203B200000075345C4F2000B4FF002054FF001093A6008D345451BD214F8012F0135A31B7A
:203B400053453A60F6D2CBF80090022003F078FCDBF80030DB07FBD4FFF73EFF45450346D5
:203B600004D20028E8D10020BDE8F88F002BFAD042F60404C4F2000405232360022003F093
:203B80005FFC2368DD07FCD4FFF726FF42F60402C4F2000213685C06FCD4BDE8F88F00BFE2
:203BA0002DE9F04F44F68143C2F200031C784FF42052640044F00104C4F2000242F604031E
:203BC00083B0824689461460C4F200031D6842F6040615F04005C4F20006F7D10B23336098
:203BE000022042F6080803F02BFCC4F2000809F1FF3701234FF0090BAF421BDD53B3336852
:203C000042F60404DB07C4F20004F8D4FFF7E4FE03460028F0D0D8F8002002200AF80520BA
:203C20000135C4F800B0EDB2019303F009FCAF42019BE3DC73B142F60404C4F20004052325
:203C40002360022003F0FCFB2368D807FCD4FFF7C3FE18B9002003B0BDE8F08F42F60803D9
:203C6000C4F200031B68D14442F6040209F8013CC4F2000213685906EDD5FBE744F6814343
:203C800010B5C2F2000304461970FFF7C3FE38B340F20623C2F200031A78A2421FD042F684
:203CA00004004FF482620021C4F20000C4F205221C70016011601B78ABB1012B37D04FF462
:203CC000D673C1F200031B684FF400504FF4D8411B68C4F20000C0F2DC210122984710BDBC
:203CE000FFF7AEFED4E74FF4DA74C1F20004236803209B694FF4C0419847236802209B6999
:203D00004FF4C041984723684FF4005003210222DB6CC4F20000984723684FF0FF309B6B3F
:203D2000984723684FF0FF309B6B9847C7E74FF4DA74C1F2000423684FF0FF309B694FF490
:203D4000C041984723684FF0FF309B694FF4C041984723684FF0FF314FF400500A46DB6C3F
:203D6000C4F200009847236803209B6B9847236802209B6B9847A2E738B543F6A443C2F23F
:203D800000031A68BAB901254FF4DA74C1F200041D6023680620DB6B984723682846DB6B2B
:203DA000984723680720DB6B984742F2A003C4F20203C2221A6038BD44F68243C2F20003B2
:203DC000187042F2A002C30748BF42F29003C4F202024FF0C20148BFC4F20203116044BFFB
:203DE00040221A60410741BF42F29003C4F2020302221A60820741BF42F29003C4F2020374
:203E000080221A60030707D542F29003C4F202030221802219601A60C10607D542F29003FC
:203E2000C4F202034021022219601A60820607D542F29003C4F202034021802219601A6073
:203E4000430609D542F29003C4F20203402002218022186019601A60704700BF00207047DC
:203E6000B0F1810358425841704700BF813801288CBF00200120704701207047012070479F
:203E800008B501F023FA48B140F21413C2F200035888022814BF0220012008BD022008BD82
:203EA00010B582B001F080FC044601F00FFA08B902B010BD0120C0F2014001A901F00EFA63
:203EC0000128F5D1638803F44063002BF0D1638803F44063002BF5D0EAE700BF30B583B065
:203EE00001F0F4F940F21414C2F20004A8B900256580A37F40F214105BB2C3F5FF6307338E
:203F00009BB2C2F2000001A9238301F0E7F9012818BF284608D003B030BD6388022B08BFBA
:203F20000120E4D103B030BD00F078FD4FF6C075CFF6FF752D1A03E000F070FDC54203D58D
:203F400063889BB2022BF7D1608880B2831E58425841E0E708B5B32994BF0A46B422014626
:203F6000024806F07BFF002008BD00BFC23C002070B543F6B445C2F200052C68002603E018
:203F800024682B68A3420DD02379032BF8D140F26C00C2F2000002F0E1FD24682B68013635
:203FA000A342F1D1304670BDF8B543F6BC44C2F2000425682B79032B18BF002601D0304676
:203FC000F8BD2E89023E002E0CDD8E4205F10A070EDDB957042089B204F04EFB03207F21ED
:203FE00004F04AFB2B68002223602A713046F8BD3946324606F032FFEBE700BF10B582B0E4
:2040000001F064F9F8B140F21414C2F2000463880120022B15D101A9C0F2014001F05EF993
:2040200002E06388022B03D101F050F90028F8D16088A0F55050043880B201288CBF002068
:20404000012002B010BD012002B010BD10B540F2680340F25C14C2F20004C2F200031A682B
:204060000521237E84F82410928882B003F0F80343F00803204601A96283237601F02EF9AB
:20408000012818BF002001D002B010BD204601F07BF9421E5042504102B010BD00B540F2FC
:2040A000441083B0C2F2000001A901F017F9012818BF002002D003B05DF804FB40F244109B
:2040C000C2F2000001F060F9411E4842484103B05DF804FB08B5FFF7B9FF012801D00020E4
:2040E00008BDFFF7DBFF0128F9D1FFF7F7FEC0B208BD00BF08B501F0AFFB01280BD0FFF705
:204100007DFF01F043FA01F097F840F21413C2F2000300225A80012008BD00BF2DE9F84F67
:2041200001F09AFB01282AD001F054F801F0CEF8F0B901F0CBF8044620B3002001F0D2FA8B
:204140008B4A0027A2F18C0E734602F50C760225842459791A6001F0FC0110468C3265F38F
:204160008301B2421F71DC80597115D00346F0E740F21413C2F200035B88022BD9D1012021
:20418000BDE8F88F01F01AF90128054610D001F0FDF90020BDE8F88FCEF8A4E101F032F802
:2041A000FFF754FF012800F0D9800020BDE8F88F01F06EFA40F21C404BF64401C0F20001D8
:2041C0004FF42C72C2F2001006F048FE4FF4647B40F2793840F2753CC2F2001BC2F200187B
:2041E000C2F2001C40F2773E40F2AE3740F2AB3640F2813040F24D314FF4707340F2CD52D4
:204200004FF0020A8BF80040C2F2001E88F80050C2F200178CF800A0C2F20016C2F2001071
:20422000C2F20011C2F20013C2F200124FF003094FF0040B05244FF00608072541F21C0C96
:204240008EF80090C4F2040C87F800B0347080F800800D701A60DCF8003041F21C01C4F2B6
:204260000401002BF7D04BF29019C0F2000900204FF440434CF2A06A4A460860C2F20013B9
:20428000C2F2001A00E00B4609EB030101F15F41A1F54041D1F80080D2F804C0D2F808E0F5
:2042A000D768166955699469D06903F120015145C3F8008002F12002C3F804C0C3F808E02F
:2042C000DF601E615D619C61D861DCD14CF2806343F660104FF4815E46F6137741F2116623
:2042E00046F6543541F21C044FF4805240F20111C2F20013C0F20E41C1F6102E4FF0000C45
:20430000C4F20402C6F25330C4F20404C6F62367C1F21266C7F200051862C3F824E001205F
:204320009F62DE621D63C4F800C0116003F096F940F25C10C2F2000003F0F6F821460A6841
:2043400041F21C03C4F20403002AF8D000221A6001F0A6F801283FF4F0AE18E7FFF79EFEA6
:2043600001287FF422AFBDE8F84FFFF7B7BD00BF043E002070B582B0072800F29480DFE806
:2043800000F08C04929227922A69202900F2888040F24413C2F20003188ADC894FF47A7274
:2043A00002FB04F402FB00F2A4F55F2402F57F42A4F66C64FF3248F21F5004EB1242C5F207
:2043C000EB10A0FB0240CAB2C0F38710824275D1002002B070BD4BF6F425C0F20005AE88EF
:2043E0004FF6FF70864208BFFF2209D02B46002208339C8801328442D2B2F9D1013AD2B288
:2044000055F832304BF6F4249942C0F2000447DB2368994244DC0191FFF742FD4FF6FF70E0
:20442000864201997ED000230834A28801338242DBB2F9D1013BDAB205EBC2040023E0581B
:20444000083B814266DD12F1FF32F8D2FFF742FE0020BEE740F20723C2F20003197000F08E
:2044600035FF10B340F21413C2F200035B88022B08BF002519D1FFF7C1FD012814BF032478
:204480000024FFF727FE012818BF03242046002D9FD0FFF72FFE20469BE7012935D071B356
:2044A000022002B070BD012093E7FFF737FE012808BF0546DFD0032002B070BDC82000FB66
:2044C00001F044F6D35200F55F20C1F2620200F66C60A2FB00414FF618448909CFF6FF74F6
:2044E00004FB01000004A2FB004040F25C1289B28009C2F200021882D9811184AFE7019110
:20450000FFF7F8FD0199084663E7FFF707FE0128D1D15DE740F2680305EBC202C2F200036C
:204520001A6093E7FF2287E72DE9F0430C4683B069B1102800F2A880DFE800F01523A6A683
:20454000A6A6949D43A6A6A6A673767A0D00022003B0BDE8F0834BF6F423C0F200031B6816
:2045600000202360F4E700F0B1FE38B140F21413C2F200035888851E6842684120600020AF
:20458000E6E740F24413C2F200031A8AD9894FF47A7303FB01F103FB02F3A1F55F2103F5E7
:2045A0007F43A1F66C61FF3348F21F5201EB1343C5F2EB12A2FB0312C2F387122260002060
:2045C000C6E700F083FE002860D040F21413C2F200035B88022B08BF4FF0000956D10926E0
:2045E00080254FF0000840F2034701A86946CDF80480ADF8047000F071FE731E30B19DF833
:204600000250680602D113F0FF06EED1B9F1000F42D168B2206010F1800F0CBF032000203C
:2046200096E70020206093E72023236000208FE74BF6F425C0F20005AB884FF6FF708342CA
:2046400008BFFF2209D02B4600220833998801328142D2B2F9D1013AD2B255F832300020D8
:20466000236075E740F26803C2F200031B6800201B6823606CE740F20723C2F2000393F96C
:2046800000300020236063E7012061E7FFF746FD012804D18146A2E7FFF72CFDB9E76FF0EF
:2046A0007F032360032053E770B582B0044600F00DFE80B340F21413C2F200035B88022BA9
:2046C00008BF002627D1221DA01C43F6C04340F28414C2F2000392B2C2F2000480B2110AF4
:2046E0002082E36159701A70FFF788FC0020014601F038F8204601A900F0F0FD0125C0B9F3
:20470000002001F045F800236380FFF7E7FB284656B902B070BDFFF701FD012808BF0646E1
:20472000D1D0012002B070BDFFF7E4FC284602B070BD00F0A7FA638803F4406333B900F0C3
:204740006FFB638803F44063002BF8D06588ADB2B5F5505518BF0125D2E700BF10B5B329C6
:2047600094BF0A46B4220C460146044806F076FB2046BDE81040FFF797BF00BFC23C0020F0
:2047800030B583B001F068F8012825D000F09EFD20B340F28413C2F200035B88022B18BFCD
:2047A000002528D0802403E09DF80640630607D10120C0F2034001A900F090FD0128F3D010
:2047C000B5B940F20723C2F2000393F9000064B2A042D4BF0020012003B030BDFFF79EFCD0
:2047E000012808BF0546DDD0FFF784FC0120F3E7FFF780FCE5E70120EEE700BF08B500F0C0
:2048000065FD70B140F21413C2F200035B88022B06D1FFF7B5FF10F1FF3018BF012008BD87
:20482000002008BD40F25400F8B5C2F2000000F053FC02F067FD012802D000242046F8BDDD
:2048400043F67854C2F20004204600214FF40C7206F07AFB43F6A84643F6BC4143F6B4435B
:2048600040F2141040F25C1540F24412C2F20003C2F2000040F2953EC2F20002C2F20001DC
:2048800041F6991C0027C2F20006C2F200050C6083E890008362C662A5F820E0A2F80EE0F9
:2048A000A2F810C0FFF73AFC01280446C5D14BF25010C0F2000000F07DFF40F26C00394681
:2048C000C2F2000002F028F9B8E700BF10B54FF4DC74C1F20004236804205B6998472368C7
:2048E00004205B6B98470128F9D110BDF8B540F21021C2F2000100220023C1E900234FF415
:20490000DC73C1F200031B6804205B6B9847012801D0FFF7DBFF4FF4DC73C1F200031B68B1
:204920000020DB69984742F22803C6F20803012142F228021960C4F2080213689B07FCD56B
:204940000C23C4F2010319684FF4E47221F4807121F001011960C1F2000213680024C4F2B8
:2049600001044FF404511B682046C0F20041984704233C2108221F46C4F201013126C4F207
:20498000010240F22125C4F22433012027600E6015601860F8BD00BF10B442F2080342F2E1
:2049A0000C04C4F20903C4F209041968226818688142FAD1C90140F2102001EB5262C2F2C9
:2049C00000000023C0E900235DF8044B03C8704710B542F2080342F20C04C4F20903C4F202
:2049E00009041968226818688142FAD1C90140F2102001EB52620023C2F20000C0E9002322
:204A000001F0F8FE00B910BDBDE8104001F0DCBE704700BF0146012000F058B802F07ABBA4
:204A20002DE9F04102F004FD002642F204034FF48032C4F2090301240027C4F224364FF485
:204A400080714FF4C2753760C1F200051C6019601A602B6880461B683846232198472B681D
:204A600020461B68242198472B6802201B68252198474FF40053C4F20903196842F20802B5
:204A800041F4E021C4F209021960176002F042FB42F21C024FF4287300F50070C4F224335E
:204AA000C4F209024FF4D8711060C1F200011C6034600B6814201B699847B8F1000F01D0E2
:204AC000BDE8F081BDE8F04102F0B6BC431E042818BF012B10B42CD810F001021EBF42F21A
:204AE0001803C4F20903196010F002031EBF42F21C04C4F20904216010F004001EBF42F2D1
:204B00002004C4F2090421602AB14FF42072C4F22432012111602BB14FF42873C4F2243317
:204B200001221A6028B14FF43073C4F2243301221A605DF8044B704743F6A873C2F2000309
:204B40001868704708B5FFF769FF43F6A873C2F200031860FFF73CFFA023C4F224331B68FC
:204B6000BBB98023C4F224331B6863BBC023C4F224331B6863B14FF4307242F20403C4F213
:204B800024320020C4F209034FF480311060196008BD42F20403C4F209034FF480721A608F
:204BA00002F0B8FA00F2052020F4FF7242F21C03C4F2090322F001021A608023C4F2243361
:204BC0001B68002BD2D04FF4207242F20403C4F224320020C4F2090301211060196001F08B
:204BE000E5FFC3E7820741BF4FF44063C4F2080301221A60C30700D4704702F01DBC00BF7B
:204C000008B502F015FC4FF44063C4F208031A68012A03BF4EF25152C1F6CC221A60002399
:204C200008BF0223002814BF184643F0010008BD00224FF6FF714FF44063C4F20802C0F207
:204C40000F01C4F20803012011601860704700BF38B5FFF7D5FF00244FF6FF750C214FF4FF
:204C60008273C4F20804C0F20F050122C4F20033C4F2080125600A601A60BDE83840FFF770
:204C8000B1BF00BF00224FF6FF710C23C4F20802C0F20F01C4F208030120116018607047DB
:204CA00008B5FFF7D5FFFEE710B50446C0B200F061F8204610BD00BF38B50546002403E08D
:204CC000285D00F057F80134284606F087F98442F6D30A2000F04EF800F04EF80128FBD0DE
:204CE000204638BD70B505460E46A8B10078B8B1A1B1002404E015F8010F38B1B44205D030
:204D000000F038F86B1C04F10104F4D100F034F80128FBD0204670BD0446F7E70C46F5E734
:204D20000446F3E710B44FF6C7734FF6CF74C0F20103C0F2010413F8012FFF2A12D1A342EB
:204D4000F9D141F2F022C5F2000241B10A44002312F8014C013AC45401338B42F8DB5DF855
:204D6000044B70474FF6C872C0F20102EDE700BF704700BF704700BF0020704770B54FF43B
:204D8000DC75C1F200052B6802205B6998472B6802205B6B98474FF4DC7301280446C1F2A0
:204DA0000003F4D11B684FF40070DB69984742F22803C6F2080342F228021C60C4F2080216
:204DC00013689907FCD54FF48253C4F200031A6841F24403C4F2000340F2F27112F0500F6B
:204DE000196018D041F218054FF4E87643F6AC74C4F20005C1F20006C2F2000406E033685B
:204E0000C4F200001B69984723682BB92B684FF48050DB06F3D570BDC0B29847F6E700BFA1
:204E20004EF61053CEF200031A6822F004021A6030BF704770B502F0FBFA01F02FFE18B15B
:204E4000BDE8704002F0F8BA43F6B070C2F2000001F076FF0225044648B1636823B19847FE
:204E6000A84228BF2846C5B22468002CF5D1FFF7D5FD4FF42073C4F224331B680446002B5B
:204E800040F0B88001F0B6FC03460146002840F0F280012D00F0CC80022DD1D12846002BD9
:204EA00000F00581FFF712FE43F6B070C2F2000001F046FF06250446002800F0AF80A3686C
:204EC000022003B198472369246825EA0305002CF5D1FFF7D7FE6A0705F0060400F1A180AF
:204EE000002C40F0E98000F0A7F9002004F092FF4FF48052C4F20902116841F2080321F01A
:204F000003011160C4F2090319684FF4DC7241F00F011960C1F20002136839209B69984722
:204F20004FF482524FF484610023C4F20902C4F222311360184613600B6002F0DFFF062C94
:204F400000F0C38042F22C0542F22424C4F20804C4F209052B6823684FF4EC7623F00303DB
:204F60002360C1F2000633684FF48040C4F2030003215B6898474FF4DC73C1F200031B680D
:204F80009B6B98472B6803F037F94FF4C0730022C4F204331A6033684FF48040C4F2030020
:204FA0005B6801219847216844F20C0341F003010122C4F2090321601A602B6803F05CF96F
:204FC00004F0F0FEFFF704FDFFF75CFE43F6B070C2F2000001F0B4FE044628B1E36803B1D6
:204FE00098472468002CF9D102F026FABDE8704002F022BA42F21803C4F209031B681B1A52
:20500000022B52D4A3F28F23002BB8BF0123BFF639AF9D4228BF1D46EDB233E7FFF732FE8B
:20502000062444F20C03C4F2090300221A6057E7002B4ED04FF6F873CFF6FF731B1BCB42F2
:2050400048BF04F1080106D404F58034631A31EA230128BF21460220FFF738FD4EF61053C6
:20506000CEF200031A6822F004021A6030BFBDE8704002F0E1B901F0C7FB0646FFF78CFC0C
:20508000361A002E15DDFFF757FD4FF67153CFF6FF731B1B00EB4621CB424FF001037FF5CA
:2050A000F8AE9D4228BF1D46F3E60023B1E7611EF8E600231946F4E74FF4DC73C1F200038B
:2050C0001B6820469B6998470DE7022002F012FA38E704F58031BEE7014643F6B070C2F22E
:2050E000000001F02FBE00BF014643F6B070C2F2000001F07BBE00BF43F6B07008B5C2F20C
:20510000000001F019FE4FF4C273C1F200031B6803201B682021984708BD00BF08B5084B7C
:20512000002103F1800243F8041F9342FBD14FF4D873C1F200031B6810201B69984708BDBA
:20514000B03F0020F8B542F2E003C4F202031D6843F6B4771D60C2F200070024012606FA55
:2051600004F32B42E0B203D057F8243003B198470134202CF3D1F8BD10B584B000224123B7
:2051800002A80292039304F023FE042002F09AF9032819D00420032102F056F9042002F0CA
:2051A00091F903280346F9D14FF4D272C1F2000212684FF4204000935468C4F20C0000219C
:2051C0004FF040521C23A04702A804F063FE04B010BD00BF00B583B00022412368468DE808
:2051E0000C0004F0F5FD012002F06CF9012803D00320012102F028F9684604F04BFE03B053
:205200005DF804FB00B583B00022412368468DE80C0004F0DDFD012002F054F9012805D071
:205220004823C1F20003986B01F03EFF684604F031FE03B05DF804FB10B582B0412368463B
:2052400000240193009404F0C3FD0320214602F0FBF8012002F036F928B14823C1F20003A3
:20526000986B01F021FF684604F014FE02B010BD70B503880646C3B140F22322934219D141
:20528000822921D14BF25813C0F200034BF6C8451C69C0F20005FFF7F5FC03F075F903F04F
:2052A0001DF98021A047002808DC40F223233380012070BD00230380032070BD80B203F0B0
:2052C00007F92B699847E6E7012070BD42F29C13C4F20803186800F00100704738B510F087
:2052E000030305460C4626D002F0A2F842F29C13C4F208031B68003018BF0120DB072AD559
:205300004FF48053C4F2040341F204011D60C4F204010B684CF25032236003E00B68013A03
:20532000236018D013F0FF0FF8D050B32078421E5042504138BD02881005D5D56B8002F0F0
:2053400077F842F29C13C4F208031B68003018BF0120D90702D480B1002038BD2B8813F4D9
:20536000405FCDD003F44063B3F5006F02BF44F23403C2F200031D60C2E702F05DF80020CE
:2053800038BD02F059F8D1E74AF22013C0F2070301E0013B0FD0428802F44062B2F5806FFE
:2053A000F7D1408800F44060B0F5806CDCF1000050EB0C0070471846704700BF70B582B042
:2053C00002F036F84FF4D874C1F20004236805461B6A19209847236812201B6A9847236848
:2053E00019205B69984723684FF4DC745B691220C1F200049847236801205B69984723684D
:2054000001205B6B98470128F9D142F22C0142F22803C4F20801C6F2080342F228020860CB
:20542000C4F20802186013689907FCD541F2100141F214030022C6F20401C6F204034FF4D9
:20544000D8740A60C1F200041A60236819201B699847236812201B699847F5B1002441F221
:205460001C014FF480535122C4F20403C0F20762C6F2040440F2FF36C4F204010025012086
:205480002660C0F206400D601A6001A9FFF726FF431E5842584102B070BD01F0CDFFDDE7EE
:2054A00030B544F23C03C2F2000387B01B680024012240F60A0501A8694601940494059378
:2054C00002940394ADF804508DF81120FFF706FF012804BF4AF22010C0F2070004D02046AA
:2054E00007B030BD0138FBD0BDF8063003F44063B3F5806FF6D1BDF8060000F44060B0F52D
:2055000080646042604107B030BD00BF10B586B00023012240F6090401A8694601930493FA
:20552000029303930593ADF804408DF81120FFF7D5FE012806BF4AF22010C0F20700C0B2BB
:2055400003D006B010BD0138FBD0BDF8063003F44063B3F5806FF6D1BDF8063003F4406389
:20556000B3F5806F18BF0020EBD144F68343C2F200031A780120002AE3D144F23C02059987
:20558000C2F20002012011601870DAE730B587B001F04EFF4FF4D874C1F200042368054604
:2055A0005B6919209847236812205B69984742F29C13C4F208031B68DA0720D541F210016E
:2055C00041F214020023C6F20401C6F204020B6040F60D04136002A8012201A9029305931B
:2055E00003930493ADF808408DF81520FFF776FE012804BF4AF22013C0F207033DD0FFF753
:2056000085FF42F22C0142F22803C4F208010024C6F20803012042F228020C60C4F20802F5
:20562000186013689B07FCD54FF4DC74C1F20004236801209B699847236801205B6B9847DA
:205640000228F9D14FF4D874C1F20004236819201B6A9847236812201B6A98472368192003
:205660001B699847236812201B6998470DB901F0E3FE07B030BD013BC1D0BDF80A2002F4C9
:205680004062B2F5806FF6D1BDF80A30B7E700BF08B501F05FFE052815D003281AD050B18C
:2056A000012801BF42F2D013C4F2080305221A6018BF002008BD42F2D013C4F208030322CF
:2056C0001A60012008BD42F2D013C4F208031860012008BD42F2D013C4F2080302221A60BE
:2056E000012008BDF8B542F29C13C4F208031A680023C8F2800300280CBF1D460025D1073E
:2057000000D4F8BD01F094FE41F2180141F2140241F21003C6F20401C6F204020646C6F223
:20572000040300204FF000474FF4D8740F60C1F2000415601860236819201B6A9847236867
:2057400012201B6A9847236819201B699847236812201B69984706B1F8BDBDE8F84001F032
:205760006BBE00BF002398420CBF022008200029C8F2800318BF002341F2100141F2140242
:205780001843C6F20401C6F204020B60106070470023984241F21402C8F2800318BF002324
:2057A000C6F204021360704744F23403C2F200031868704744F23803C2F20003186070474F
:2057C00008B542F29C13C4F208031B68D80704D4FFF7F4FD012800D008BD41F21003C6F28B
:2057E00004036FF000421A6008BD00BF08B542F29C13C4F208031B68D9070AD44BF67C3074
:20580000C0F20000FFF758FAFFF7D8FD012800D008BD01F00DFE41F21003C6F204031A6882
:2058200012020ED441F21003C6F204031A6812F00A0F1CBF6FF00A021A60BDE8084001F032
:20584000FBBD6FF4000240F26C001A60C2F2000001F084F9E6E700BF44F68443C2F20003AD
:205860001878704708B500F0A3F880B208BD00BF00F038B938B54FF4DC75C1F200052B6836
:2058800004205B6998472B6804205B6B98474FF4DC7301280446C1F20003F4D11B6840F2B0
:2058A0000140DB69984742F22803C6F2080342F228021C60C4F2080213689B07FCD538BDE5
:2058C00044F24003C2F20003186800280CBF0220012070472DE9F04103880646002B4AD0C8
:2058E000B3F5847F09D140F20823C2F200031B788B4207D00120BDE8F081002303800320D8
:20590000BDE8F08144F24007C2F200073B68B3B14FF4E673C1F200031A6848F20403C4F267
:20592000020352680220D3F8008090470024221848F10003194610463B6898473C604FF4B4
:20594000DC73C1F200031B6840F201409B6A984742F22803C6F20803012142F2280219604D
:20596000C4F2080213689907FCD540F27C00C2F20000FFF7B9FB4FF4847333800120BDE8BC
:20598000F08100BF08B54FF4DC73C1F200031B6804205B6B9847012801BF42F23C03C4F274
:2059A00008031868C0F3400018BF002008BD00BF70B544F24003C2F200031B68D3B144F25C
:2059C0004400C2F200000023C15C44F24402C2F2000229B90133042BF6D10020014670BDBD
:2059E00040F218210024C2F2000101EBC301D45403C970BDFFF7C6FF002842D048F2080358
:205A0000C4F202031A680123C8F2000313409BB949F6F073C4F2020301221A60186800281F
:205A2000FCD102464FF4807102F06AFC4FF42A73C4F2502301221A6001F0FAFC48F20802F4
:205A40000646C4F202021368D807FCD54FF4E673C1F200031A6848F20403C4F2020352688B
:205A600002201C68904700222346141843F1000516B12046294670BD01F0DEFC2046294650
:205A800070BDFFF7F7FEB9E738B54FF42A750024C4F2502548F20C032C60C4F2020319681F
:205AA0004FF4D87221F001011960C1F20002136831205B699847204622464FF4807102F0B5
:205AC0001FFC012240F208232A60C2F2000340F2900022461978C2F20000BDE8384000F06E
:205AE000E9BF00BF10B540F20824C2F200042378802B00D010BD00F04DFF207040F29000F3
:205B0000C2F200000021BDE8104001F005B800BF08B51AB108461146FFF7E4F8002008BD6A
:205B20000FB400B583B004AB53F8041B40F2A0001A46C2F20000019300F022F803B05DF815
:205B400004EB04B0704700BF38B50C46054609E04BF6E031C0F200012B6868681022103CD3
:205B6000984718B9102CF3D8204604B938BD4BF6E0312246C0F200012B686868984738BDB2
:205B80002DE9F04F4BF6384491B0C0F20004002582468946099204940295884698F80030E8
:205BA000002B00F0F080252B00F01983444602E0252B04D02C466378651C002BF8D14545A2
:205BC0000FD0C8EB050641463246DAF80030DAF804009847002840F08F826378029C344418
:205BE0000294002B00F0CF806B78002B00F0CB8001350024A3F12002AC46102A1CD8DFE865
:205C000002F0181B1B151B1B1B1B1B1B1B121B0F1B1B090044F0100401359CF80130E9E7E4
:205C200044F00104F8E744F00604F5E744F00804F2E744F00204EFE7A3F13102D2B2082A8C
:205C400000F2E580A3F13002D2B2092A9CBF01354FF0000B00F2DE800BEB8B0B03EB4B0B75
:205C6000AC4615F8013BABF1300BA3F13002D2B2092AF1D92E2B00F0D2804FF0FF316C2B2A
:205C800000F0EE80682B00F07B81782B00F28180DFE813F079007F007F007F007F007F00D3
:205CA0007F007F007F007F007F007F007F007F007F007F007F007F007F007F007F007F00F4
:205CC0007F007F007F007F007F007F007F007F007F007F007F007F007F007F007F00A202AF
:205CE0007F007F007F007F007F007F007F007F007F007F007F007F007F007F007F007F00B4
:205D00007F007F007F007F007F007F007F007F007F007F007F009F027F007F007F009C0252
:205D2000990296027F007F007F007F007F007F007F007F007F007F007F007F007F007F003E
:205D40007F007F0093027F007F007F007F007F007F007F007F0090027F008D028A02870203
:205D6000840281027F008A027F007F007F007F007D007E027B027F007F0078027F0075022B
:205D80007F007F007202029811B0BDE8F08F44F4E06404F4E063B3F5806F0CF1010800F0CE
:205DA000CF806DD9B3F5C06F00F0B281B3F5E06F00F0A781B3F5A06F7FF4F0AE099BBBF12D
:205DC000010F1A6803F1040309938CBF0BF1FF3B4FF0000BE3078DF8282000F13E835046D0
:205DE0005946FFF7B1FE002840F08681029CDAF800305C44DAF804000AA90122029498479F
:205E0000002840F079810BF1010B029D95E02A2B00F0C6802E2B4FF0000B7FF42EAF9CF802
:205E200001300CF10101A3F13002D2B2092A00F2C4800CF102024FF0000909EB890903EBC2
:205E4000490913789446A3F13001C9B20929A9F1300902F10102F0D96C2B49467FF412AF2D
:205E60009CF801306C2B03BF9CF8023044F080040CF1020C0CF1010C18BF44F0600404E717
:205E8000B3F5807F00F0A780B3F5407F7FF486AE099A4BF6144711684BF60043C0F2000345
:205EA000043214F4804FC0F2000718BF1F46099200230A46002900F057810DF13A0011098F
:205EC00002F00F0241EA0371BD5C1E090A463346014600F8015952EA0305F0D10DF13B033D
:205EE0005B1A18BFDD1C00F04181782030222323AB4501F8010C01F8022C01F8033CA1F194
:205F000003063AD84FF0000B14F0010406D150465946FFF719FE002840F0EE803146DAF8EB
:205F20000030DAF804002A469847002840F0E48002980544002C40F0FB805D4402952DE64B
:205F4000099B1E6804330993002E00F04A8233781D466BB1731C18781A4601330028FAD18A
:205F6000951B8D4294BF002301230029B8BF0023002B18BF0D46AB45C4D9C5EB0B0BC3E7F3
:205F80009CF80130682B03BF9CF8023044F020040CF1020C0CF1010C18BF44F0400474E60B
:205FA000099B05F1010C1A680433002A0993B8BF44F0010493466B785CE62A2B18BF8C460F
:205FC0007FF45BAE099A9CF80230111D09910CF1020C116853E60029ABBF24F01004012576
:205FE0000591059514F4005504F0E003039500F0A780402B00F0208200F2F380002B00F011
:20600000DE81202B40F00882099B1A1D099293F90020D317002A73F10000C0F2DA81CDE9BF
:2060200006230025089504F4C053B3F5805F00F06481B3F5C05F00F07F81B3F5006F1CBF65
:206040000DF13E054FF0000900F03281059941F60803894504EA030341F20802C0F0E58020
:20606000934218BF002600F00A8241F60802934206EB090100F0FC8000273A46039870B1F2
:20608000089B002B40F00E8104F00603022B00F0CD810498062B08BF012708BF02467B18AD
:2060A0009B458CBFC3EB0B0B4FF0000B14F00103039304D1E10640F19E815E449B463FB18A
:2060C0001146DAF80030DAF804003A46984798B9102E344603D8B5E0102C40F2B3804BF6D7
:2060E000F031C0F20001DAF80030DAF804001022103C98470028EFD04FF0FF3011B0BDE8DC
:20610000F08F099B029C1A6804331460099345E54BF64441C0F20001DAF80030DAF804007A
:20612000012298470028E7D1029C0134029435E550465946FFF708FD00283FF4FEAEDBE701
:20614000402B00F080815CD8002B00F02D81202B40F05B81099B039D18781A1D00210895C6
:206160000992CDE906015EE70DF13B01302301F8013C04250139B8E644F4C85409E644F443
:20618000106406E644F4806403E644F4407400E644F48854FDE544F48134FAE544F400745A
:2061A000F7E544F40244F4E544F42454F1E544F4A064EEE544F4C134EBE544F4B244E8E51F
:2061C00044F4A134E5E544F48444E2E544F44244DFE544F4E134DCE544F4C064D9E54546EC
:2061E00002E5602B00F0EB80802B40F01581099B073323F0070303F108020992D3E90023EE
:2062000008E7602B00F0D080802B40F0FE80099B039D073323F0070303F10802D3E9000115
:2062200008950992CDE90601FDE69342C9EB01067FF41BAF002E08BF012600273A4606EB05
:2062400009011BE7002C40F0A1802946DAF80030DAF804004A46984700287FF44DAF029BCB
:20626000039C4B441F443E44ACB95E44029695E4DDE9062313433FF4FFAE4BF62C424BF6DE
:20628000284314F4804FC0F20002C0F2000318BF1A460227F2E650465946FFF755FC002877
:2062A000E3D029E74BF63042C0F200020127F6E6DDE90601014300F0B480DDE906670DF14A
:2062C0003D09304639460A22002304F0ABFA303289F80020304639460A22002304F0A2FAC4
:2062E00006460F4656EA07024D4609F1FF39E8D10DF13E03C5EB0309A8E6DDE90623134368
:2063000000F08F80DDE906230DF13D01D00840EA4370DE0802F00707334602460D4652EA68
:20632000030007F13001297005F1FF31EED10DF13E03C5EB030989E64BF614474BF6004329
:2063400014F4804FC0F20003C0F2000718BF1F46DDE90623134364D0DDE906230DF13D0118
:20636000100902F00F0540EA03704FEA131E7E5D0246734652EA03000D460E7001F1FF31E9
:20638000EED10DF13E03C5EB03095FE64BF6F0312246C0F20001DAF80030DAF804009847CA
:2063A00000283FF452AFA7E6039D099B08951A680021043310460993CDE9060133E6099BCD
:2063C0001A6804330993D317002A73F10000BFF626AE504263EB43010125CDE906010895C3
:2063E00021E605294BF63C46C0F200068CBF002301230625BCE5504659460192FFF7A4FB32
:20640000019A00283FF45BAE76E60025002000210895CDE9060106E600200021CDE9060177
:20642000FFE54FF000090DF13E050FE64BF63442C0F20002012732E6099B1A1D0992B3F92D
:206440000020D317E6E5099B039D18881A1D002108950992CDE90601E5E5DAF80030DAF898
:2064600004000AA90122984700287FF445AE50465946FFF769FB00283FF4C5AC3CE6012631
:20648000DBE600BF10B50446006830B1002100F043FB54F8040F0028F8D110BDF8B5038880
:2064A00006461546EBB14A2B17D1882946D144F24800C2F2000000F043FC044648B1031DB0
:2064C0009D4202D126E09D4224D02468231D002CF9D14A2333800120F8BD002303800320B0
:2064E000F8BD44F24800C2F2000000F029FC044630B1201DA16800F06DF92468002CF8D158
:2065000044F68543C2F2000301221A704A2333800120F8BD44F24800C2F20000214600F096
:2065200065FC44F254056269A369C2F200052F682A600BB1E06998472F60CAE70120F8BDC0
:2065400010B544F6854344F248000024C2F20003C2F200001C7000F0EFFB40F2A8002146C0
:20656000C2F20000BDE8104000F0D6BA70B544F68544C2F20004049D267882610446C36182
:2065800045614EB9A16044F248002146C2F20000BDE8704000F0D6BB44F25405C2F2000596
:2065A0002E6840F2A803C2F2000304302B6000F011F92E60E7E700BF10B544F25404C2F2D6
:2065C0000004246882B00094FFF7D0FF02B010BD10B544F68543C2F200031B78044653B9BA
:2065E000C360036144F248002146C2F20000BDE8104000F0FBBB043000F012F9F2E700BF19
:2066000038B544F68543C2F200031D7804466DB944F24800C2F2000000F092FB10B90AE06D
:20662000006840B18442FBD1002038BD0430BDE8384000F0D9B8012038BD00BF704700BF3D
:2066400010B544F24C04C2F200042368CBB1FEF7A3F9236859681A689B680A44121A4BB158
:2066600093E812009B682144091A8A4228BF0A46002BF5D144F250030244C2F200031A600E
:2066800010BD44F25002C2F20002136010BD00BF2DE9F041038805467BB1592B08D187299A
:2066A00015D0822926D059232B800120BDE8F081002303800320BDE8F08144F24C02C2F2DF
:2066C0000002136059232B800120BDE8F08144F24C07C2F200073B68002BE4D0D9688A4214
:2066E00003D02BE0D9688A4227D19B68002BF9D13B60D8E744F24C07C2F200074FF00008DA
:206700003C68002CCFD0002604E0A3682646002BC9D01C46204600F067FA0028F5D0E06877
:206720008821224600F0C6F9034640F2B800C2F2000073B100F012FAE7E73B6099680029FF
:20674000B1D0C86882420BBF89680B4699608968F5E7E360A3682EB1B360C4F80880FFF778
:206760006FFFCDE73B60F8E710B5044640F2B800C2F2000000F0F2F944F24C02E368C2F272
:206780000002116853B149B18C4218BF0B4602D110E09C420ED09B68002BFAD144F2540385
:2067A000C2F200031B68A160E3601460BDE81040FFF746BF44F25403C2F200031B68E360ED
:2067C000BDE81040FFF73CBF40F2B800C2F2000000F0C4B910B5044600F0FEF92046BDE8C7
:2067E0001040FFF7C1BF00BFC068D0F1010038BF0020704744F24C03C2F200031868003070
:2068000018BF0120704700BF44F24C03C2F20003186820B144F25003C2F200031868704706
:2068200010B544F24C03C2F200031A680446904217D04AB1936883420AD02BB19A68A2427B
:2068400007D01346002BF9D10023A360E36010BD1346A2689A60FFF7F3FE0023A360E36030
:2068600010BD82681A60FFF7EBFEEDE72DE9F84344F25808C2F20008D8F8004044F25406F1
:20688000221CC2F2000618BF0122844218BF002C054689463768234604D01B689D4218BF0E
:2068A000002BFAD163B3AB7BE3B10023AB736AB1A54220464FF087012A4604D0A37BDB075E
:2068C00001D500F029F82468002CF1D1AB683BB14D4505D0356005F10C00832100229847B5
:2068E000D8F80040A54212D04CB12368AB4209D02BB11A68AA4206D01346002BF9D137606C
:20690000BDE8F88323462A681A603760F8E72B683760C8F80030F3E770B5856804460E46C8
