:020000040000FA
:2000000000500020850100007D010000610100008101000081010000810100000000000084
:200020000000000000000000000000008101000081010000000000008101000081010000B8
:200040005942000081010000D5480000810100007D390000753E0000810100008101000077
:200060008101000001490000810100008101000081010000810100008101000081010000A8
:20008000810100008101000081010000810100008101000081010000810100008101000050
:2000A000810100008101000081010000810100008101000081010000810100008101000030
:2000C000810100009D4B000008B540F66433C2F200031B68032B3CD1431E012B39D841F6E2
:2000E000083241F60A33C2F20002C2F20003012812881B8818D0184609F006FB00230022FA
:20010000C3F6F06309F076FB00230022C4F2590309F070FB09F080FD0021C4F2C82109F07F
:20012000CBFD09F019FF08BD104609F0EDFA00230022C3F6F06309F05DFB07A3D3E90023C0
:2001400009F058FB00230022C4F2440309F09EF9E0E74FF0004008BD0000000000A0644032
:200160004EF62853CEF200031A68B2F5806F03D01B689B0500D4FEE7704700BFFEE700BF1C
:20018000FEE700BF10B506F07BFB40F2000140F22523C2F20001C2F2000399420ED2CC43A7
:2001A0001C4424F003044BF2E8400434C0F200000023C258CA500433A342FAD10648074999
:2001C0004FF000028842B8BF40F8042BFADB01F0E5FDFFF7C5FF10BD28020020F71B00208B
:2001E00008B54AF6141240F2D423C2F20003C0F20002D26A197B0120904708BD08B54AF6BE
:20020000D403C0F200039B6801218120984708BD2DE9F04740F2856240F26C3484B0C2F2C8
:2002200000041027C0F200020021144E40F2902340F28025C2F200030294019203914FF0DD
:20024000080C4FF0890E4FF00108C2F200050DEB070A4FF002091AE9070083F8008083F8E0
:2002600001C05D6083F808E05F72DE6084F80090636002F00DF804B0BDE8F087E4020020F2
:200280002DE9F0432C4C89B0054604AE94E80F0086E80F0028686968AA68EB6825460FC55A
:2002A000A4F1100002F072F841F62335C2F20005B0B300232B7040F2CC4440F28562C2F2C5
:2002C00000040027C0F2000240F2943340F28026C2F2000301924FF0010E029403974FF067
:2002E000880C01AA4FF00808C2F20006DD6083F801805E6083F808C083F800E083F809E0BD
:200300004FF0020907CA636084F8009001F0C0FF41F61F33C2F200031F7009B0BDE8F083A3
:2003200096E80F00F72784E80F00A4F110002F7002F02CF8BFE700BFE40200202DE9F0418B
:2003400040F2D423C2F200031B7B41F613355A1ED2B2172A40F22C3440F2856284B088BF45
:20036000FF23C2F20004C2F20005C0F2000200212B7002940192039104AF40F2304340F233
:200380008026C2F200034FF0080C4FF0870E17E90700C2F2000601274FF00208DD6083F8EF
:2003A00001C05E6083F808E01F705F7284F80080636001F06DFF04B0BDE8F0812DE9F041CE
:2003C00002780121531E994042F29043C0F2FD0340F2D424C2F200040B40267B86B02273E5
:2003E000002B48D141F61835C2F20005F92326732B7040F2B44440F28562C2F20004C0F27F
:200400000002002140F2843340F28026C2F200030194009202914FF0080C4FF0860E012739
:20042000C2F20006DD6083F801C05E6083F808E01F705F724FF002089DE80700636084F8F4
:20044000008001F025FF2B7863B940F2E112C0F20002802104930392059106AB13E9070058
:2004600001F016FF41F61F33C2F2000300221A7006B0BDE8F081204601F088FF41F618355C
:2004800020B1C2F2000500232B70B2E7C2F20005F723204626732B7001F078FFA9E700BF57
:2004A0002DE9F04340F2D42340F2904440F2856285B0C2F20004C2F20003C0F20002002132
:2004C00093F80D9002940192039104AF41F6163540F2743340F28026C2F20003C2F20005E1
:2004E0004FF08C0C17E907004FF008080127C2F200064FF0020EDD6083F801805E6083F82C
:2005000008C01F705F7285F80090636084F800E001F0BEFE05B0BDE8F08300BF2DE9F04305
:200520002F4C87B0034601AE94E8030086E8030018685968234603C3201F01F027FF41F624
:200540002135002840D041F61A33C2F200050021C2F20003012229701A7040F2043440F216
:200560008562C2F200040027C0F200020494039205970DF1180E40F2502340F28026C2F2E3
:2005800000034FF0850C1EE907004FF008084FF0010EC2F20006DD6083F801805E6083F8B1
:2005A00008C083F800E083F809E04FF00209636084F8009001F06CFE41F61F33C2F2000300
:2005C0001F7007B0BDE8F08396E80300C2F20005F72384E80300201F2B7001F0D7FEBCE7B7
:2005E000D802002070B5064640F2D4401446C2F200000A4664211D4601F044FB98B1A5B135
:20060000013DEDB204F1080303EBC50501E0AC420BD040F2D4402146C2F20000083401F00D
:20062000E9FA0028F3D1002070BD40F2D440C2F2000001F007FB0028F5D00220314607F034
:20064000EBFB70B140F2D440C2F2000001F0CEFA014640F2D440C2F2000001F00DFE012082
:2006600070BD40F2D440C2F2000001F0BFFA40F2D4410246C2F20001304601F0E3FD0120FD
:2006800070BD00BF4268037801210148FFF7AABFDE0200202DE9F0434278037840F2D424D7
:2006A00043EA0223A3F10A0189B242F62622C2F200049142E58985B0E38142D941F6143660
:2006C000C2F20006FF23E581337040F2244540F28562C2F200054FF00008C0F20002029536
:2006E0000192CDF80C8004AB40F2604440F28027C2F2000413E907004FF0080C01234FF047
:20070000810EC2F20007237063724FF00209E66084F801C0676084F808E085F800906C6056
:2007200001F0B6FD40F2404040F2ED724346C2F20000C0F20002802105B0BDE8F04304F0BF
:20074000C5BF204601F022FE41F6143620B1C2F2000600233370B8E7C2F20006F7232046F3
:20076000E581337001F012FEAFE700BF2DE9F04740F2C424C2F2000401274FF0020C40F254
:20078000802E41F61D3640F2AC35C2F2000E224639464FF08009C2F200064FF00008C2F2E8
:2007A00000054FF0080A63460F4884F801A0C4F804E02770677284F80890E66086F800805E
:2007C0006C6085F800C0FFF70DFF40F2404040F2ED7249464346C2F20000C0F20002BDE8A6
:2007E000F04704F073BF00BFDE02002003F074B9F0B540F2802340F21C3440F2B420C2F207
:20080000000401220825C2F20003822185B0C2F200006570636021722270627205F058FA69
:2008200041F61E35D0B9C2F20005FC232B7040F21C4340F28562C2F20003C0F200020021FC
:2008400002930192039104AF022617E90700E5605C601E7001F01CFD05B0F0BD002640F2A7
:20086000404040F65D12C2F200053346C2F20000C0F2000210212E7004F028FFD7E700BF52
:2008800040F2D423C2F200034AF2C472F0B4C0F20002002503F1100407CA9D61DD6141F241
:2008A000110603C4CCF61346194641F8046B0B27BA2601205D6022804D601F735E73D8813D
:2008C000F0BC70472DE9F04F40F2BC4440F2D425C2F200044FF0010E4FF00209C2F20005FA
:2008E00040F2802C41F6203740F2BC26C2F2000C224671464B4681B0C2F200074FF00008D5
:20090000C2F200064FF0080B4FF0840A05F10A00C4F804C084F800E084F809E084F801B090
:2009200084F808A0E76087F80080746086F80090FFF758FEFFF7A4FF284601F027FD40F2D1
:20094000404040F2ED724346C2F20000C0F20002802101B0BDE8F04F04F0B8BE2DE9F04FA0
:2009600040F2B02240F2A823C2F20002C2F20003D3F800C0D2F8009040F2AC26C2F2000666
:200980004FF0080E86F800904FEA292A4CFA0EF941F62230C2F2000040F2343440F2802270
:2009A000C2F2000490F80080C2F20002112740F2A42341F6153542F29001C2F2000386F815
:2009C00001A0E66084F801E062604FF0010E02222772C2F20005C4F2020100264FF0806748
:2009E0004FF0120B4FF0100A83F8019083F800C0636185F80080E5616272627484F820208E
:200A000084F8212084F810B084F818A0067084F800E084F819E081B00F6002F063F840F243
:200A2000A02342F2A002C2F20003C4F20202186017601F6840F2602540F21000C2F2000584
:200A4000314622463E12C2F2000005236E702F70656201B0BDE8F04FFFF7C4BD2DE9F04FE6
:200A600040F2B43441F61235C2F20004C2F200058DB022462B4601F017F90128074602D00E
:200A80000DB0BDE8F08F41F61936C2F2000696F80090B9F1000FF3D11A2095F8008006F05D
:200AA00089FEBF4906F0D0FC627823788DF819208DF81830BDF8182040F601039A42054697
:200AC000377006D041F61B33C2F2000383F80090D6E740F28020C2F20000A11C082209F02F
:200AE00049FD002840F04E81022741F61B3CC2F2000CB8F10A0F8CF8007059D940F214479D
:200B000040F2B43241F61A3340F2A84040F21121EDB2C2F20003C2F2000741F61C3941F6E7
:200B20001F3AC2F20002C2F20000C0F2000104950596BB461E46C2F20009C2F2000A029099
:200B400003910A25134662195278605D7A703870002A00F02181A91C1944CBF8041099F89F
:200B60000010002940F01E819AF80010002940F0198180380C2815D8DFE810F0D000E20086
:200B8000BE0014009B009000800068005800430014001D000D00317821B19CF8001002294D
:200BA00000F02A8102321544EDB2A845CBD8059E0023337064E731780029F3D09CF80010F1
:200BC0000229EFD104980028ECD041F269027968C0F20002DDF808E00020CEF80020CEF8EE
:200BE0000410CEF808009EE807004FF0010E8AF800E08DE8081001F04BFB9DE808107A7883
:200C0000D0E731780029CDD09CF800100229C9D104980028C6D0DDF808E0039900228EE8FA
:200C20000600CEF808209EE80700E2E731780029B8D09CF800100229B4D104980028B1D077
:200C400040F281227968C0F20002C3E731780029A8D09CF800100229A4D104980028A1D0BD
:200C600040F23D32C0F20002DDF808E00021CEF80020CEF80410CEF80810D4E73178002916
:200C800090D09CF8001002298CD10498002889D040F2BD327968C0F200029BE79CF80010CF
:200CA00002297FF47FAF40F21D527968C0F2000290E7317800293FF475AF9CF800100229C3
:200CC0007FF470AF049800283FF46CAF40F6C502C0F20002DDF808E000204FF48071CEF8E8
:200CE0000020CEF80400CEF808109EE807004FF0010E89F800E07CE7317800293FF452AF87
:200D00009CF8001002297FF44DAF049800283FF449AF40F2F172C0F20002A5E731780029FF
:200D20003FF440AF9CF8001002297FF43BAF049800283FF437AF40F26D72C0F20002C9E713
:200D4000317800293FF42EAF9CF8001002297FF429AF049800283FF425AFDDF808E079682E
:200D600040F29562C0F200020020CEF80020CEF80410CEF808009EE807004FF0010E89F88C
:200D800000E036E70320A11C07F046F84FF0030900283FF497AEA8E6CBF80420DFE600BF5D
:200DA000DE02002040F27824C2F20004FC232371059E00F0F3FE40F28823C2F200031A6860
:200DC000012108252360586009928DF821508DF82010037840F264248DF82830857802230F
:200DE000C2F20004094808AA8DF829500B94FFF7F9FB0023337043E6049800283FF4D2AE4B
:200E000040F2A142C0F200022EE700BFDE02002008B500F17803DBB23C2B4AF61413C0F2FF
:200E2000000391BF0146DB6A07206FF045019CBFDB6A0720984708BD2DE9F041038882B098
:200E400004460D46DBB140F2CE418B4211D1882D00F0918041F6F533C2F200031B78AB422D
:200E600000F0B08040F2CE430120238002B0BDE8F08100230380032002B0BDE8F0814AF6B2
:200E80001416C0F20006736A984740F2D42540F28020C2F200000821C2F2000502F05EFED3
:200EA000284601F06DFA2A6841F21103CCF613439A4204D0FFF7E4FC284601F067FA40F203
:200EC000802740F2F423C2F20003C2F2000740F2882241F61A3E4FF0000CC2F2000EC2F284
:200EE00000024FF0010897E8030083E8030083F808C0C2F804C08EF80080DA60136000F054
:200F0000DDF9FF7940F22C43F26AC2F20003297B07F07F0740461F609047687BFFF778FF82
:200F200000F0B6F940F65D20C0F20000014601F057F94AF6D403C0F2000341469B6881202E
:200F400098474AF6EC03C0F200039B6841468120984740F29840C2F200004FF4706104F0FE
:200F6000C3FC40F2B4201921C2F2000004F0A8FE336A984776E740F29843C2F200039A42AB
:200F80007FF468AF4AF61416C0F20006336A0192984741F61A33C2F200031B78019A002B02
:200FA0005CD10192736A984740F2D423C2F20003D98940F29840C901C2F2000004F094FC67
:200FC000019A47E74AF6D403C0F200039A420DD04AF6EC03C0F200039A427FF443AF41F667
:200FE0002233C2F2000301221A703BE7019203F0C3FC40F2D423C2F20003DB89019A9B0156
:2010000090FBF3F707FB1307566801201F44B04740F2B025C2F2000528600220B04740F273
:20102000A82242F21073C2F200029842106006D82A6844F2720302F69F729A4201D902F063
:201040004BFD40F2704040F2FD123946C2F20000C0F20002002304F039FB03E70020FFF7F3
:201060007DFC019A9DE700BF2DE9F043037840F2D42403F17802D2B2C2F200043C2A667B3A
:2010800085B063733DD941F61735C2F20005FF2366732B7040F2A43440F28562C2F2000482
:2010A0000027C0F200020294019203970DF1100E40F20C3340F28026C2F200034FF08B0CA0
:2010C0001EE907004FF008084FF0010EC2F20006DD6083F801805E6083F808C083F800E016
:2010E00083F809E04FF00209636084F8009001F0CFF841F61F33C2F200031F7005B0BDE892
:20110000F083204601F042F941F6173540B9C2F20005F723204666732B7001F037F9B9E7E0
:20112000C2F200050023607B2B70FFF771FEB1E72DE9F04704880746752C1BD08F2C06D01D
:20114000002C49D0002303800320BDE8F08785294FD140F23C5440F2385640F24055C2F29A
:201160000004C2F20006C2F20005002323603360A5F8803040F23C5640F24C6540F2385809
:20118000C2F20006C2F20005C2F200084FF0000A4FF001090BE033687E2BE854D9BF013357
:2011A0002360C4F800A0C8F800907D2824D040F24460C2F2000004F0DDFE40F23C5440F21A
:2011C0004C61431CC2F20004C2F20001E3D175233B800120BDE8F08704F066FC41F6F4329F
:2011E00040F23C53C2F20002C2F2000310701C60C0E70120BDE8F08740F23856C2F2000667
:2012000033685BBBD4F8008040F24055C2F2000540F24C6128464246C2F2000109F0DEF9F7
:20122000A5F8808041F6F433C2F2000340F240521978C2F20002002004F0C6FC40F628734A
:20124000C2F2000318688521002204F0BDFC00288BD18F233B800120BDE8F087D4F8008068
:2012600040F24055C2F20005C8F1800941444A46284609F0B3F940F24C6105EB0900424624
:20128000C2F2000109F0AAF98023A5F88030C9E708B540F2446040F2C451C2F20000C2F21B
:2012A0000001802204F05EFEBDE8084040F21400C2F20000002104F0B9BC00BFF0B441F630
:2012C000AC32C2F20002167841F63433C2F20003002E00F05B84197801291AD0751EEDB2C3
:2012E00005EB45051D44184603E010F8034F012C0DD0A842F9D106EB46010136F6B20125BD
:20130000581808245D54167044708EB11978022919D041F63434C2F200041678002003E07A
:2013200014F8035F022D0CD00130C0B2B042F7D306EB4600022119541C1801366170197841
:20134000167006291AD041F63434C2F200041678002003E014F8035F062D0DD00130C0B2E5
:20136000B042F7D306EB46010620585401365818012419781670447010291AD041F634344E
:20138000C2F200041678002003E014F8035F102D0DD00130C0B2B042F7D306EB46011020B5
:2013A000585401365818012419781670447011291AD041F63434C2F200041678002003E0DE
:2013C00014F8035F112D0DD00130C0B2B042F7D306EB4601112058540136581802241978B2
:2013E0001670447012291AD041F63434C2F200041678002003E014F8035F122D0DD00130EB
:20140000C0B2B042F7D306EB46011220585401365818022419781670447014291AD041F692
:201420003434C2F200041678002003E014F8035F142D0DD00130C0B2B042F7D306EB4601D8
:201440001420585401365818022419781670447021291AD041F63434C2F2000416780020DB
:2014600003E014F8035F212D0DD00130C0B2B042F7D306EB4601212058540136581802249F
:20148000197816704470AF291AD041F63434C2F200041678002003E014F8035FAF2D0DD0B0
:2014A0000130C0B2B042F7D306EB4601AF205854013658180224197816704470A0291AD0CF
:2014C00041F63434C2F200041678002003E014F8035FA02D0DD00130C0B2B042F7D306EBBC
:2014E0004601A020585401365818302419781670447076291BD041F63434C2F20004167804
:20150000002003E014F8035F762D0ED00130C0B2B042F7D306EB46007621195401241844BE
:201520000136197816704470847077291CD041F63434C2F200041678002003E014F8035FD3
:20154000772D0FD00130C0B2B042F7D306EB46007721195401361844002501241978167079
:201560004570847078291CD041F63434C2F200041678002003E014F8035F782D0FD001302A
:20158000C0B2B042F7D306EB460078211954013618440025012419781670457084707029AA
:2015A0001CD041F63434C2F200041678002003E014F8035F702D0FD00130C0B2B042F7D30E
:2015C00006EB4600702119540136184400250124197816704570847079291BD041F634340D
:2015E000C2F200041678002003E014F8035F792D0ED00130C0B2B042F7D306EB4600792180
:20160000195401241844013619781670447084707A291CD041F63434C2F200041678002052
:2016200003E014F8035F7A2D0FD00130C0B2B042F7D306EB46007A2119540136184400257D
:201640000124197816704570847080291CD041F63434C2F200041678002003E014F8035FBA
:20166000802D0FD00130C0B2B042F7D306EB46008021195401361844002501241978167046
:201680004570847081291CD041F63434C2F200041678002003E014F8035F812D0FD00130F7
:2016A000C0B2B042F7D306EB4600812119540136184402250124197816704570847082296C
:2016C0001CD041F63434C2F200041678002003E014F8035F822D0FD00130C0B2B042F7D3DB
:2016E00006EB4600822119540136184400250124197816704570847084291CD041F63434CE
:20170000C2F200041678002003E014F8035F842D0FD00130C0B2B042F7D306EB4600842147
:2017200019540136184400250124197816704570847085291CD041F63434C2F20004167820
:20174000002003E014F8035F852D0FD00130C0B2B042F7D306EB460085211954013618444B
:2017600008250124197816704570847086291BD041F63434C2F200041678002003E014F8C9
:20178000035F862D0ED00130C0B2B042F7D306EB46008621195401241844013619781670DD
:2017A0004470847087291CD041F63434C2F200041678002003E014F8035F872D0FD00130CB
:2017C000C0B2B042F7D306EB46008721195401361844002501241978167045708470882941
:2017E0001CD041F63434C2F200041678002003E014F8035F882D0FD00130C0B2B042F7D3B4
:2018000006EB4600882119540136184410250124197816704570847089291CD041F6343491
:20182000C2F200041678002003E014F8035F892D0FD00130C0B2B042F7D306EB460089211C
:20184000195401361844002510241978167045708470A1291BD041F63434C2F200041678D5
:20186000002003E014F8035FA12D0ED00130C0B2B042F7D306EB4600A12119540124184405
:2018800001361978167044708470A2291CD041F63434C2F200041678002003E014F8035F45
:2018A000A22D0FD00130C0B2B042F7D306EB4600A2211954013618440025012419781670C0
:2018C00045708470A3291CD041F63434C2F200041678002003E014F8035FA32D0FD0013071
:2018E000C0B2B042F7D306EB4600A321195401361844002501241978167045708470A429E8
:201900001CD041F63434C2F200041678002003E014F8035FA42D0FD00130C0B2B042F7D376
:2019200006EB4600A42119540136184402250B241978167045708470A5291CD041F634343C
:20194000C2F200041678002003E014F8035FA52D0FD00130C0B28642F7D806EB4600A521E8
:201960001954013618440125022419781670457084708A291CD041F63434C2F200041678D7
:20198000002003E014F8035F8A2D0FD00130C0B2B042F7D306EB46008A21195401361844FF
:2019A00000252F2419781670457084708B291BD041F63434C2F200041678002003E014F85C
:2019C000035F8B2D0ED00130C0B2B042F7D306EB46008B2119540124184401361978167091
:2019E000447084708C291CD041F63434C2F200041678002003E014F8035F8C2D0FD001307F
:201A0000C0B2B042F7D306EB46008C211954013618440025012419781670457084708D29F4
:201A20001CD041F63434C2F200041678002003E014F8035F8D2D0FD00130C0B2B042F7D36C
:201A400006EB46008D211954013618440C25012419781670457084708E291CD041F6343449
:201A6000C2F200041678002003E014F8035F8E2D0FD00130C0B2B042F7D306EB46008E21D0
:201A800019540136184400250C241978167045708470A6291CD041F63434C2F20004167891
:201AA000002003E014F8035FA62D0FD00130C0B2B042F7D306EB4600A621195401361844A6
:201AC000022506241978167045708470A8291CD041F63434C2F200041678002003E014F844
:201AE000035FA82D0FD00130C0B2B042F7D306EB4600A82119540136184400250524197892
:201B0000167045708470A72924D041F63434C2F200041678002003E014F8035FA72D17D0C1
:201B20000130C0B2B042F7D306EB4604751C1819EDB24FF0A70C0427012641F6343103F8CF
:201B400004C01570C2F20001477086708DB10978A92919D041F63430C2F200001578002163
:201B600003E010F8034FA92C0ED00131C9B2A942F7D305EB450019180135A927002601245C
:201B80001F5415704E708C70F0BC704701210820587019701170FFF7B9BB00BF70B441F690
:201BA000AC33C2F200031D78F5B141F63436C2F200063378834211D0013DEDB2013532461D
:201BC000012303E012F8031F814208D0AB421C4603F10103F6D1002070BC7047002404EB13
:201BE0004404A01970BC70472846F5E740780230C0B2704770B543784A780D46991C1144A5
:201C00006229044602DC0178402901D0002070BD591C465C08447D2EF8D103321344E65474
:201C20002B7863546B784370696819B102306A7808F0D4FC6B786278023313446370012000
:201C400070BD00BFF8B545780446602D02DC0378402B01D00020F8BD6E1C835D87197D2B3B
:201C6000F8D1AB1C294600F8013F002204F0DAF8A15D0346020A03356155A3557A70012001
:201C8000F8BD00BF042910B481BF022140247D23827083BF04704170C370002088BF012064
:201CA0005DF8044B704700BF2DE9F84F0F46064690469946002400F1010B00F1030A21B95E
:201CC00014E00134A4B2A74210D9355D402DF8D133195D7802352C44BC421EDC741914F892
:201CE000013C7D2B05D00124A742EED8FF20BDE8F88F00225846291F04F094F814F8022C49
:201D000014F8033C03EB02239842ECD1B378012B09D0AF4204D02C46D5E70020BDE8F88F5F
:201D20000120BDE8F88FAC1F22464046514608F055FC89F80040ECE7F0B5002783B00546DF
:201D40003E463C46284600F003FA0194019B9E4206DD00BF019B01330193019B9E42F8DCBB
:201D6000284600F0FFF90194019BC6F5C876B34206DA00BF019B01330193019BB342F8DB87
:201D80000137B7F5487F06D0B7F5C87FCCBFC7F548763E46D6E703B0F0BD00BF2DE9F04123
:201DA0004FF4EC74C1F2000423684FF4804084B05B68C4F2030001219847236801214FF49A
:201DC00080400A461B68C4F20300984704F0B2FB02F05CFA02F0EAF900F04EFD02F028FACB
:201DE00000F0ACF944F20C000821C4F209010123C4F2090042F22C02C4F2090203600B604F
:201E000018461368FFF798FF04F098FB01F024FD01F07AFC03F03CFF01F026FE03F04CFEDC
:201E200041F2342002F0AEFD01F0EEFF03F0E4FF4AF2F870C0F2000001F05AFE04F0DCFA61
:201E40004AF2F4754AF2F07410F0040FC0F20005C0F200040CBFA846A04604F0D5FA012832
:201E600014BF2F46274604F0C7FA10F0020F0CBF2E46264604F0C0FA10F0080F08BF2C463E
:201E80004AF610003A46334600944146C0F2000002F0D0FE40F2D4000021C2F2000003F09E
:201EA000C5FE03F0D7FB03F053FC1020FFF744FF4AF64400C0F2000002F0BCFE4BF2344359
:201EC000C0F20003186801F013FE4AF64C00C0F2000002F0AFFE4BF25C43C0F200031868DD
:201EE00001F006FE4AF65400C0F200004BF2804402F0A0FEC0F200044AF65C002168C0F289
:201F0000000002F097FEE469A04738B1A04701464AF66000C0F2000002F08CFE0A2001F006
:201F2000DFFD05F09BFA02A8082101F017FE4AF614149DF80F20BDF80E109DF80E6041F629
:201F4000B433C2F20003C0F20004198042EA0626E56A4AF6CD310220A84731460320A84715
:201F600001200146A847636B082202A90B2098470420FFF7E1FE40F224000021C2F2000039
:201F800003F054FE4AF2BC70C0F2000003F004FB01F07AFD1020FFF7CFFE03F0ABFD0446B0
:201FA00001F08CFD14F0FF0FF7D101F09DFFF4E72DE9F04105888046772D42D07E2D36D064
:201FC00025B1002303800320BDE8F08103F06CFD40F25006C2F2000641F6F53340F2CC64ED
:201FE0003268C2F20003C2F2000418702560002A62D02B4641F6B0351F46C2F20005EF5481
:2020000093688020002198472368013356F823202360002AF3D1DBB241F62431C2F2000196
:202020000B707723A8F800300120BDE8F08141F6F533C2F200031B788B4223D00120BDE855
:20204000F08141F62437C2F2000740F2CC6440F2D0663A78C2F20004C2F2000600239342DC
:20206000336023600ADA41F6B035C2F20005E956002923DB013393422360F4DB3368002B0A
:20208000ECD1CEE740F2CC6441F6B03541F6243740F2D066C2F20004C2F20005C2F200072A
:2020A000C2F2000623683268E85C511C00F07F003A78E8543160DDE71346ADE741F6F53194
:2020C00040F25002C2F20001C2F20002097852F82320002003F078FD0028E3D17E23A8F85E
:2020E00000300120BDE8F08110B441F62433C2F200031C7804B340F25002C2F20002136870
:2021000098424FF0000304D106E052F8041F884202D00133A342F8DB41F6B032C2F2000224
:20212000D15C40F2240061F07F01D154C2F200005DF8044B03F09CBD2346EDE708B500F098
:202140000BFB41F62533C2F2000300221A7008BD41F62533C2F200031A78024310461A70C5
:2021600000F01ABB41F62533C2F200031A7822EA000210461A7000F00FBB00BF704700BFE5
:20218000704700BF704700BF38B540F23403C2F200035C6805F024FA054605F039FA0146B5
:2021A0002846A04738BD00BF38B540F23403C2F200031C6805F014FA054605F029FA0146D8
:2021C0002846A04738BD00BF08B51B2005F0F2FABDE808404BF25041C0F2000105F034B9CD
:2021E00038B54AF68C02054640F2D460C2F20000C0F200020C46922103F0BAFF40F2F060D8
:202200004AF69402C2F20000C0F20002812103F0DDFE40F234032DB1C2F200031D6054B190
:202220005C6038BD42F27D12C2F20003C0F200021A60002CF4D142F28112C0F200025A601F
:2022400038BD00BF38B541F6B433C2F200031D88038804469D420CD00846114605F028FA17
:2022600040F2D4602146C2F2000003F095FF012038BD002038BD00BF08B505F019FA40F275
:20228000F060C2F2000003F0B5FE012008BD00BF2DE9F04F85B004AB03E90700DDF804806A
:2022A000029EDDF80CA0B8F1000F0DD040F20874C2F200040025204603F02CFA38B9013537
:2022C0000F2D04F12004F6D105B0BDE8F08F204651464246334616B340F6E80C4FEA850B4F
:2022E000C2F2000C0BEB050906F120030CEBC9090093F36830687168B2684F460FC7009BB8
:2023000010369E42B946F4D1306871680BEB0503A9E803000CEBC30342462046514605B0D9
:20232000BDE8F04F03F0D2B9F8B506460D46174600F0F6F8044628B1304639462A4600F03C
:202340002DF9044600F022F92046F8BD70B505460E46144600F0E4F870B12846214600F017
:20236000A3F948B121463246284600F043F9044600F00CF9204670BD00F008F9002070BD3F
:20238000014620220020FFF7CFBF00BF014620220020FFF7DBBF00BF10B542F2A00382B08B
:2023A000062202A8C4F202034FF4801400F8042D01211C6006F01EF842F29003C4F2020364
:2023C0001C6002B010BD00BF30B54AF69C03C0F20003186842F2A00383B00024C4F2020361
:2023E0004FF4801501908DF800408DF8014001A81D60042105F0FEFF38B942F29003C4F23E
:2024000002031D60FF2003B030BD6846022106F011F842F29003C4F202031D6010B9FF20C4
:2024200003B030BD9DF80030C22B18BFEF2B18BF2046E8D19DF80130A3F11400113BC0B237
:20244000DBB2012888BF012B94BF0020012080F00100D8E730B542F2A00383B0C4F20203E5
:20246000052202AC4FF4801504F8042D1D6006F007F82046012105F0BDFF20B913E09DF876
:202480000730DB0716D50DF10700012105F0D2FF0028F4D142F29003C4F202034FF4801207
:2024A0001A6003B030BD42F29003C4F202031D6003B030BD42F29003C4F202034FF480120C
:2024C00001201A6003B030BD10B582B0FFF7C2FF08B902B010BD42F2A003C4F202034FF4FE
:2024E0008014B92202A800F8012D01211C6005F081FF42F29003C4F202031C600A24FFF768
:2025000063FF631E0028E4D013F0FF04F7D142F29003C4F202034FF480121A6002B010BDDE
:2025200010B54FF4106082B00A21C0F23D0005F0BBFF4FF4DA73C1F200031B681420DB6BE5
:20254000984742F2900142F2A003C4F202014FF48012AB2402A8C4F202030A6000F8014D8E
:2025600001211A6005F046FF08B1FFF773FF42F29003C4F202034FF480121A60FFF724FF7A
:20258000421E5042504102B010BD00BF08B5FFF79BFFBDE8084005F0EDBF00BFF0B583B008
:2025A00004460E461746FFF755FF08B903B0F0BD42F2A0030320210CC4F20203220A4FF464
:2025C00080158DF804008DF805108DF807408DF8062001A81D60042105F00CFF18B138463A
:2025E000314605F027FF42F29003C4F202031D6003B0F0BD2DE9F04F0D4683B00446164669
:2026000000294BD042F2A00842F29009C4F20208C4F202094FF0020A4FF480172AE0FFF727
:20262000BBFEE3B2C3F580734FEA144C220A0421AB4234BF9B46AB4600B38DF806208DF822
:2026400007408DF804A08DF805C00DEB0100C8F8007005F0CFFE0246594630465C44CBEB22
:20266000050582B105F0C6FE024660B1C9F800705E449DB1FFF7EEFE0028D0D100221046C7
:2026800003B0BDE8F08F42F29003C4F202034FF480111046196003B0BDE8F08F01221046EE
:2026A00003B0BDE8F08F00BF2DE9F04701F6FE71040B01EB000A2403C4EB0A0A82B020236D
:2026C0005FEA1A3A8DF804302FD0002542F2A00742F29008A946C4F20207C4F202084FF428
:2026E000801619E0FFF758FE220C230A042104F58054B0B18DF806308DF805208DF80790D0
:202700000DEB01003E6005F075FE4FF4801380B15545C8F8006008D00135FFF79BFE002834
:20272000E0D1002002B0BDE8F087012002B0BDE8F08742F29002C4F20202136002B0BDE8C1
:20274000F08700BF08B5FFF7EBFEFFF7BDFEBDE8084005F00FBF00BF38B540F64033C2F23D
:2027600000031A68BAB901254FF4DA74C1F200041D6023680620DB6B984723682846DB6B61
:20278000984723680720DB6B984742F29003C4F20203C2221A6038BD41F62633C2F2000367
:2027A000187042F29002C30748BF42F2A003C4F202024FF0C20148BFC4F20203116044BF31
:2027C00040221A60410741BF42F2A003C4F2020302221A60820741BF42F2A003C4F202038A
:2027E00080221A60030707D542F2A003C4F202030221802219601A60C10607D542F2A00313
:20280000C4F202034021022219601A60820607D542F2A003C4F202034021802219601A6099
:20282000430609D542F2A003C4F20203402002218022186019601A60704700BF10B54FF4D1
:20284000DC74C1F20004236804205B699847236804205B6B98470128F9D110BD032808B523
:2028600000D008BD4AF6D403C0F200039B6800218120984708BD00BFF0B58FB003F05AFEA0
:202880000746FFF7DBFF4FF4DC73C1F200031B684FF4A060DB69984742F22803C6F20803C8
:2028A000012142F228021960C4F2080213689907FCD5FFF747FF4AF6A00440F23C00C2F231
:2028C0000000C0F2000401AD01F060FC0FCC0FC50FCC0FC50FCC0FC52368019C2B60621C09
:2028E0001EBF4FF4DA7501AEC1F200050DD02B6820469B6B98472B6820469B694FF40051B6
:20290000984756F8044F631CF1D14FF4DA74C1F20004236818209B6B984723684FF4804177
:2029200018209B699847236819209B6B984723684FF4005119209B69984723681A20DB6B8D
:20294000984742F2A0034FF08062C4F202031A6023680D209B6B984723684FF480410D2012
:202960009B69984723680E209B6B984723680E209B694FF4804198470FB10FB0F0BD0FB04B
:20298000BDE8F04003F0DABD813801289DBF40F66433C2F2000318680020704738B541F69B
:2029A0002734C2F2000440F664332278C2F2000303211960F2B140F66835C2F200050020FA
:2029C000402105F0A3FF0421284605F031FF20700020014605F09AFF2888698841F60832B0
:2029E00041F60A3340BA49BAC2F20002C2F200031080198001234AF6D4002370C0F2000053
:202A0000BDE83840FFF770BB30B5802883B032D0812829D140F66434C2F20004206840B312
:202A2000002955D041F62735C2F200052B785BB14021002005F06AFF002005F0D1FE2870F2
:202A40000020014605F062FF40F6443042F69D12C2F20000C0F200020321002302F036FE53
:202A60000220206003B030BD40F66433C2F20003186803B030BD40F668330024C2F20003C4
:202A800041F6083541F60A32C2F2000220461C60C2F20005402114802C8005F037FF02A987
:202AA0001023022021F8023D024605F09DFD41F62733C2F2000318702146204605F026FFDB
:202AC00040F664330120C2F20003186003B030BD40F64430C2F2000002F004FE0120206046
:202AE00003B030BD4FF40073C4F22233012141F2140210B5C4F20902196013689B06FCD51E
:202B00004FF4D074C1F20004236891201B689847236891209B6898471128F9D14823C1F29A
:202B20000003586C092103F05BFB00200921024603F0DAFB49F21C03C4F20C0300221A6046
:202B400003F04CFC044603F07BFB204610BD00BF8138012808B501D9002008BD4FF4DA73A7
:202B6000C1F200031B6818205B689847C0F3804008BD00BF40B1012803BF40F66C33C2F2E6
:202B80000003D868002070474FF40353C4F202031868C0F3006080F001007047182838B5DF
:202BA00000D038BD40F66C34C2F20004204603F0A9F80028F5D02046042103F09BF84FF487
:202BC0000353C4F202031D68C5F3006565B100F0F1FDA368C31AE3604AF6EC00C0F2000045
:202BE000BDE83840FFF780BA00F0E4FDE560A06038BD00BF802810B50CD0812808D151BBE7
:202C00004FF4DA73C1F200031B6818205B6B9847012010BD42F2E0034FF08072C4F202031D
:202C20004FF4DA741A60C1F20004236818209B6B984723684FF480421B68C2F20702182022
:202C40000021984742F69D31C0F20001182001F0D7FA012010BD42F2E0034FF08072C4F2D5
:202C600002034FF4DA74C1F200041A60236818209B6B984723684FF48042C2F20702002177
:202C80001B6818209847236818201B6B9847012010BD00BF012070470120704708B501F067
:202CA0009FFB48B140F23013C2F200035888022814BF0220012008BD022008BD10B582B092
:202CC00001F0FCFD044601F08BFB08B902B010BD0120C0F2014001A901F08AFB0128F5D1E6
:202CE000638803F44063002BF0D1638803F44063002BF5D0EAE700BF30B583B001F070FBEA
:202D000040F23014C2F20004A8B900256580A37F40F230105BB2C3F5FF6307339BB2C2F224
:202D2000000001A9238301F063FB012818BF284608D003B030BD6388022B08BF0120E4D159
:202D400003B030BD00F086FD4FF6C075CFF6FF752D1A03E000F07EFDC54203D563889BB201
:202D6000022BF7D1608880B2831E58425841E0E708B5B32994BF0A46B4220146024807F00F
:202D80002DFC002008BD00BF960B002070B540F68835C2F200052C68002603E024682B6818
:202DA000A3420DD02379032BF8D140F28800C2F2000002F05DFF24682B680136A342F1D105
:202DC000304670BDF8B540F69034C2F2000425682B79032B18BF002601D03046F8BD2E89E2
:202DE000023E002E0CDD8E4205F10A070EDDB957042089B204F0C2FC03207F2104F0BEFC28
:202E00002B68002223602A713046F8BD3946324607F0E4FBEBE700BF10B582B001F0E0FA94
:202E2000F8B140F23014C2F2000463880120022B15D101A9C0F2014001F0DAFA02E063886D
:202E4000022B03D101F0CCFA0028F8D16088A0F55050043880B201288CBF0020012002B0D7
:202E600010BD012002B010BD10B540F2700340F27814C2F20004C2F200031A680521237E05
:202E800084F82410928882B003F0F80343F00803204601A96283237601F0AAFA012818BFE7
:202EA000002001D002B010BD204601F0F7FA421E5042504102B010BD00B540F2601083B0CE
:202EC000C2F2000001A901F093FA012818BF002002D003B05DF804FB40F26010C2F20000C7
:202EE00001F0DCFA411E4842484103B05DF804FB08B5FFF7B9FF012801D0002008BDFFF752
:202F0000DBFF0128F9D1FFF7F7FEC0B208BD00BF08B501F02BFD01280BD0FFF77DFF01F0C6
:202F2000BFFB01F013FA40F23013C2F2000300225A80012008BD00BF2DE9F84F01F016FDAB
:202F400001282AD001F0D0F901F04AFAF0B901F047FA044620B3002001F04EFC8B4A002710
:202F6000A2F18C0E734602F50C760225842459791A6001F0FC0110468C3265F38301B24205
:202F80001F71DC80597115D00346F0E740F23013C2F200035B88022BD9D10120BDE8F88F43
:202FA00001F096FA0128054610D001F079FB0020BDE8F88FCEF8A4E101F0AEF9FFF754FF5F
:202FC000012800F0D9800020BDE8F88F01F0EAFB40F21C404BF20001C0F200014FF42C72FD
:202FE000C2F2001007F0FAFA4FF4647B40F2793840F2753CC2F2001BC2F20018C2F2001CCF
:2030000040F2773E40F2AE3740F2AB3640F2813040F24D314FF4707340F2CD524FF0020A4A
:203020008BF80040C2F2001E88F80050C2F200178CF800A0C2F20016C2F20010C2F20011E9
:20304000C2F20013C2F200124FF003094FF0040B05244FF00608072541F21C0C8EF8009037
:20306000C4F2040C87F800B0347080F800800D701A60DCF8003041F21C01C4F20401002B8E
:20308000F7D04AF64C19C0F2000900204FF440434CF2A06A4A460860C2F20013C2F2001A4E
:2030A00000E00B4609EB030101F15F41A1F54041D1F80080D2F804C0D2F808E0D7681669F7
:2030C00055699469D06903F120015145C3F8008002F12002C3F804C0C3F808E0DF601E6121
:2030E0005D619C61D861DCD14CF2806343F660104FF4815E46F6137741F2116646F654350E
:2031000041F21C044FF4805240F20111C2F20013C0F20E41C1F6102E4FF0000CC4F204023F
:20312000C6F25330C4F20404C6F62367C1F21266C7F200051862C3F824E001209F62DE62CC
:203140001D63C4F800C0116003F00AFB40F27810C2F2000003F06AFA21460A6841F21C031A
:20316000C4F20403002AF8D000221A6001F022FA01283FF4F0AE18E7FFF79EFE01287FF4D0
:2031800022AFBDE8F84FFFF7B7BD00BFD80C002070B582B0072800F29480DFE800F08C0472
:2031A000929227922A69202900F2888040F26013C2F20003188ADC894FF47A7202FB04F4D5
:2031C00002FB00F2A4F55F2402F57F42A4F66C64FF3248F21F5004EB1242C5F2EB10A0FB58
:2031E0000240CAB2C0F38710824275D1002002B070BD4BF2B025C0F20005AE884FF6FF700B
:20320000864208BFFF2209D02B46002208339C8801328442D2B2F9D1013AD2B255F832307E
:203220004BF2B0249942C0F2000447DB2368994244DC0191FFF742FD4FF6FF708642019967
:203240007ED000230834A28801338242DBB2F9D1013BDAB205EBC2040023E058083B814269
:2032600066DD12F1FF32F8D2FFF742FE0020BEE740F22223C2F20003197001F0B1F810B3FE
:2032800040F23013C2F200035B88022B08BF002519D1FFF7C1FD012814BF03240024FFF72B
:2032A00027FE012818BF03242046002D9FD0FFF72FFE20469BE7012935D071B3022002B08E
:2032C00070BD012093E7FFF737FE012808BF0546DFD0032002B070BDC82000FB01F044F601
:2032E000D35200F55F20C1F2620200F66C60A2FB00414FF618448909CFF6FF7404FB010013
:203300000004A2FB004040F2781289B28009C2F200021882D9811184AFE70191FFF7F8FDFA
:203320000199084663E7FFF707FE0128D1D15DE740F2700305EBC202C2F200031A6093E74D
:20334000FF2287E72DE9F0430C4683B069B1102800F2A880DFE800F01523A6A6A6A6949DEC
:2033600043A6A6A6A673767A0D00022003B0BDE8F0834BF2B023C0F200031B68002023602A
:20338000F4E701F02DF838B140F23013C2F200035888851E6842684120600020E6E740F2B2
:2033A0006013C2F200031A8AD9894FF47A7303FB01F103FB02F3A1F55F2103F57F43A1F663
:2033C0006C61FF3348F21F5201EB1343C5F2EB12A2FB0312C2F3871222600020C6E700F00E
:2033E000FFFF002860D040F23013C2F200035B88022B08BF4FF0000956D1092680254FF0F2
:20340000000840F2034701A86946CDF80480ADF8047000F0EDFF731E30B19DF802506806CB
:2034200002D113F0FF06EED1B9F1000F42D168B2206010F1800F0CBF0320002096E7002051
:20344000206093E72023236000208FE74BF2B025C0F20005AB884FF6FF70834208BFFF22B9
:2034600009D02B4600220833998801328142D2B2F9D1013AD2B255F832300020236075E7D3
:2034800040F27003C2F200031B6800201B6823606CE740F22223C2F2000393F900300020CA
:2034A000236063E7012061E7FFF746FD012804D18146A2E7FFF72CFDB9E76FF07F0323602C
:2034C000032053E770B582B0044600F089FF80B340F23013C2F200035B88022B08BF00261A
:2034E00027D1221DA01C40F6943340F2A014C2F2000392B2C2F2000480B2110A2082E36110
:2035000059701A70FFF788FC0020014601F0B4F9204601A900F06CFF0125C0B9002001F0BE
:20352000C1F900236380FFF7E7FB284656B902B070BDFFF701FD012808BF0646D1D00120A5
:2035400002B070BDFFF7E4FC284602B070BD00F0B5FA638803F4406333B900F0BBFC6388C7
:2035600003F44063002BF8D06588ADB2B5F5505518BF0125D2E700BF10B5B32994BF0A466A
:20358000B4220C460146044807F028F82046BDE81040FFF797BF00BF960B002030B583B01A
:2035A00001F0E4F9012825D000F01AFF20B340F2A013C2F200035B88022B18BF002528D0A3
:2035C000802403E09DF80640630607D10120C0F2034001A900F00CFF0128F3D0B5B940F201
:2035E0002223C2F2000393F9000064B2A042D4BF0020012003B030BDFFF79EFC012808BF57
:203600000546DDD0FFF784FC0120F3E7FFF780FCE5E70120EEE700BF08B500F0E1FE70B1A1
:2036200040F23013C2F200035B88022B06D1FFF7B5FF10F1FF3018BF012008BD002008BDFB
:2036400040F25C00F8B5C2F2000000F09FFD02F0DBFE012802D000242046F8BD40F64C4424
:20366000C2F20004204600214FF40C7207F02CF840F67C3640F6903140F6883340F23010ED
:2036800040F2781540F26012C2F20003C2F2000040F2953EC2F20002C2F2000144F6CC4C9A
:2036A0000027C2F20006C2F200050C6083E890008362C662A5F820E0A2F80EE0A2F810C06D
:2036C000FFF73AFC01280446C5D14AF60C10C0F2000001F0F9F840F288003946C2F20000D8
:2036E00002F0A4FAB8E700BF10B54FF4DC74C1F20004236804205B699847236804205B6B06
:2037000098470128F9D110BDF8B540F22821C2F2000100220023C1E900234FF4DC73C1F2D6
:2037200000031B6804205B6B9847012801D0FFF7DBFF4FF4DC73C1F200031B680020DB6941
:20374000984742F22803C6F20803012142F228021960C4F2080213689B07FCD50C23C4F2DC
:20376000010319684FF4E47221F4807121F001011960C1F2000213680024C4F201044FF447
:2037800004511B682046C0F20041984704233C2108221F46C4F201013126C4F2010240F20C
:2037A0002125C4F22433012027600E6015601860F8BD00BF10B442F2080342F20C04C4F242
:2037C0000903C4F209041968226818688142FAD1C90140F2282001EB5262C2F20000002346
:2037E000C0E900235DF8044B03C8704710B542F2080342F20C04C4F20903C4F20904196889
:20380000226818688142FAD1C90140F2282001EB52620023C2F20000C0E9002302F074F82B
:2038200000B910BDBDE8104002F058B810B502F081FE42F20803C4F209031C6808B902F09D
:203840007DFE204610BD00BF704700BF0146012000F058B802F0E0BC2DE9F04102F06AFEEE
:20386000002642F204034FF48032C4F2090301240027C4F224364FF480714FF4C27537608F
:20388000C1F200051C6019601A602B6880461B683846232198472B6820461B6824219847E4
:2038A0002B6802201B68252198474FF40053C4F20903196842F2080241F4E021C4F209029D
:2038C0001960176002F0A8FC42F21C024FF4287300F50070C4F22433C4F209024FF4D87173
:2038E0001060C1F200011C6034600B6814201B699847B8F1000F01D0BDE8F081BDE8F04115
:2039000002F01CBE431E042818BF012B10B42CD810F001021EBF42F21803C4F20903196019
:2039200010F002031EBF42F21C04C4F20904216010F004001EBF42F22004C4F20904216090
:203940002AB14FF42072C4F22432012111602BB14FF42873C4F2243301221A6028B14FF498
:203960003073C4F2243301221A605DF8044B704740F67C63C2F200031868704708B5FFF7E9
:2039800069FF40F67C63C2F200031860FFF72EFFA023C4F224331B68BBB98023C4F22433E1
:2039A0001B6863BBC023C4F224331B6863B14FF4307242F20403C4F224320020C4F20903D1
:2039C0004FF480311060196008BD42F20403C4F209034FF480721A6002F01EFC00F2052076
:2039E00020F4FF7242F21C03C4F2090322F001021A608023C4F224331B68002BD2D04FF45B
:203A0000207242F20403C4F224320020C4F2090301211060196002F03DF9C3E7820741BF85
:203A20004FF44063C4F2080301221A60C30700D4704702F083BD00BF08B502F07BFD4FF492
:203A40004063C4F208031A68012A03BF4EF25152C1F6CC221A60002308BF0223002814BF87
:203A6000184643F0010008BD00224FF6FF714FF44063C4F20802C0F20F01C4F208030120CE
:203A800011601860704700BF38B5FFF7D5FF00244FF6FF750C214FF48273C4F20804C0F25A
:203AA0000F050122C4F20033C4F2080125600A601A60BDE83840FFF7B1BF00BF00224FF615
:203AC000FF710C23C4F20802C0F20F01C4F20803012011601860704708B5FFF7D5FFFEE7D7
:203AE00010B50446C0B200F0A5F9204610BD00BF38B50546002403E0285D00F09BF9013448
:203B0000284606F02BFE8442F6D30A2000F092F900F0A4F90128FBD0204638BD70B5054698
:203B20000E46A8B10078B8B1A1B1002404E015F8010F38B1B44205D000F07CF96B1C04F1EB
:203B40000104F4D100F08AF90128FBD0204670BD0446F7E70C46F5E70446F3E710B44FF61E
:203B6000C7734FF6CF74C0F20103C0F2010413F8012FFF2A12D1A342F9D141F2F022C5F224
:203B8000000241B10A44002312F8014C013AC45401338B42F8DB5DF8044B70474FF6C87268
:203BA000C0F20102EDE700BF38B54FF4DC75C1F200052B6802205B6998472B6802205B6BB1
:203BC00098474FF4DC7301280446C1F20003F4D11B684FF40070DB69984742F22803C6F216
:203BE000080342F228021C60C4F2080213689B07FCD538BD2DE9F0434FF4E87683B0C1F26D
:203C00000006FFF7D1FF33684FF480504FF4D878DB68C4F20000C1F200089847D8F8003004
:203C200041F238045B691520C4F200049847236841F2440523F4FE6323F00203C4F2000531
:203C400040F2F2794FF4DA772360C1F20007C5F800903B680320DB6B984742F29003C4F241
:203C6000020308221A603A684FF0FF3300934FF48050176CC4F2000002210322B8473368C7
:203C80004FF480504FF4D8415E68C4F20000C0F2DC214FF4E1326023B04741F23403C4F29A
:203CA0000003142141F22C021960C4F20002116840F6806341F010011160C2F200031968BD
:203CC00040F2013640F2011041F23002002914BF31460146C4F200021160C5F800901B6820
:203CE00043B12368152043F050032360D8F800301B69984703B0BDE8F08300BF08B54FF41A
:203D0000DC73C1F200031B6802205B6B9847012801BF42F26C03C4F20803186800F0010096
:203D200018BF002008BD00BF38B50446FFF7E6FF30B141F21802C4F2000213681807FCD4A6
:203D4000032C06D040F68063C2F200031B6803B138BDFFF7D3FF38BB4FF4DC75C1F200055B
:203D60002B684FF400701B6A9847032C41D042F22803C6F20803012142F228021960C4F288
:203D8000080213689907FCD5032000F021FA022000F01EFA4FF0FF3000F01AFABDE8384046
:203DA0004FF0FF3000F014BA4FF4E873C1F200031B684FF48050DB68C4F2000098474FF4D2
:203DC000D873C1F200031B6815205B69984741F23803C4F20003186841F2440220F4FE60F5
:203DE00020F00200C4F2000240F2F27118601160B2E72B684FF400709B6A98472B684FF4E2
:203E000000701B6B9847B2E710B502F093FB044640F27400C2F2000000F0B8F940F6806391
:203E2000C2F2000300221A6004B110BDBDE8104002F084BB10B50446FFF760FF08B9FFF76C
:203E4000D9FE4FF4E873C1F200031B684FF480502146DB69C4F20000984710BD08B5FFF7E1
:203E60004DFF30B141F21803C4F200031868C0F3C00008BD70B5FFF797FE4FF48253C4F2D8
:203E800000031A6841F24403C4F2000340F2F27112F0500F196018D041F218054FF4E87622
:203EA00040F68064C4F20005C1F20006C2F2000406E03368C4F200001B69984723682BB9B3
:203EC0002B684FF48050DB06F3D570BDC0B29847F6E700BF4EF61053CEF200031A6822F07B
:203EE00004021A6030BF704770B502F023FB01F05FFE18B1BDE8704002F020BB40F6846014
:203F0000C2F2000001F0AAFF0225044648B1636823B19847A84228BF2846C5B22468002CFD
:203F2000F5D1FFF797FC4FF42073C4F224331B680446002B40F0B88001F0E6FC034601468C
:203F4000002840F0F280012D00F0CC80022DD1D12846002B00F00581FFF7D4FC40F684606D
:203F6000C2F2000001F07AFF06250446002800F0AF80A368022003B198472369246825EA80
:203F80000305002CF5D1FFF799FD6A0705F0060400F1A180002C40F0E98000F0D7F9002074
:203FA00004F06AFD4FF48052C4F20902116841F2080321F003011160C4F2090319684FF40D
:203FC000DC7241F00F011960C1F20002136839209B6998474FF482524FF484610023C4F255
:203FE0000902C4F222311360184613600B6003F007F8062C00F0C38042F22C0542F22424C6
:20400000C4F20804C4F209052B6823684FF4EC7623F003032360C1F2000633684FF4804064
:20402000C4F2030003215B6898474FF4DC73C1F200031B689B6B98472B6803F05FF94FF430
:20404000C0730022C4F204331A6033684FF48040C4F203005B6801219847216844F20C03BB
:2040600041F003010122C4F2090321601A602B6803F084F904F0C8FCFFF7B8FBFFF71EFDB6
:2040800040F68460C2F2000001F0E8FE044628B1E36803B198472468002CF9D102F04EFABE
:2040A000BDE8704002F04ABA42F21803C4F209031B681B1A022B52D4A3F28F23002BB8BFB0
:2040C0000123BFF639AF9D4228BF1D46EDB233E7FFF7F4FC062444F20C03C4F20903002204
:2040E0001A6057E7002B4ED04FF6F873CFF6FF731B1BCB4248BF04F1080106D404F5803409
:20410000631A31EA230128BF21460220FFF7FAFB4EF61053CEF200031A6822F004021A600A
:2041200030BFBDE8704002F009BA01F0F7FB0646FFF740FB361A002E15DDFFF719FC4FF666
:204140007153CFF6FF731B1B00EB4621CB424FF001037FF5F8AE9D4228BF1D46F3E600234D
:20416000B1E7611EF8E600231946F4E74FF4DC73C1F200031B6820469B6998470DE70220C3
:2041800002F03AFA38E704F58031BEE7014640F68460C2F2000001F063BE00BF014640F628
:2041A0008460C2F2000001F0AFBE00BF40F6846008B5C2F2000001F04DFE4FF4C273C1F258
:2041C00000031B6803201B682021984708BD00BF411C10B5044611D04FF4DA73C1F200037C
:2041E0001B684FF4C0421B68002198474FF4D053A400C4F24423234300221A6010BD00BFBF
:2042000038B504460D4602F095F90121A14042F2E00240F68863C4F20202C2F20003116078
:2042200043F8245000B138BDBDE8384002F086B908B5084B002103F1800243F8041F934201
:20424000FBD14FF4D873C1F200031B6810201B69984708BD840E0020F8B542F2E003C4F247
:2042600002031D6840F688671D60C2F200070024012606FA04F32B42E0B203D057F82430A0
:2042800003B198470134202CF3D1F8BD10B584B00022412302A80292039304F0CBFB042060
:2042A00002F092F9032819D00420032102F04EF9042002F089F903280346F9D14FF4D2728F
:2042C000C1F2000212684FF4204000935468C4F20C0000214FF040521C23A04702A804F045
:2042E0000BFC04B010BD00BF00B583B00022412368468DE80C0004F09DFB012002F064F9DE
:20430000012803D00320012102F020F9684604F0F3FB03B05DF804FB00B583B0002241234C
:2043200068468DE80C0004F085FB012002F04CF9012805D04823C1F20003986B01F036FF3A
:20434000684604F0D9FB03B05DF804FB10B582B04123684600240193009404F06BFB03200E
:20436000214602F0F3F8012002F02EF928B14823C1F20003986B01F019FF684604F0BCFB60
:2043800002B010BD70B503880646C3B140F22322934219D1822921D14AF61413C0F200033F
:2043A0004BF280451C69C0F20005FFF787FB03F06DF903F015F98021A047002808DC40F227
:2043C00023233380012070BD00230380032070BD80B203F0FFF82B699847E6E7012070BDF6
:2043E00042F29C13C4F20803186800F00100704738B510F0030305460C4626D002F09AF8E7
:2044000042F29C13C4F208031B68003018BF0120DB072AD54FF48053C4F2040341F2040161
:204420001D60C4F204010B684CF25032236003E00B68013A236018D013F0FF0FF8D050B3B6
:204440002078421E5042504138BD02881005D5D56B8002F06FF842F29C13C4F208031B6898
:20446000003018BF0120D90702D480B1002038BD2B8813F4405FCDD003F44063B3F5006F71
:2044800002BF40F60873C2F200031D60C2E702F055F8002038BD02F051F8D1E74AF2201317
:2044A000C0F2070301E0013B0FD0428802F44062B2F5806FF7D1408800F44060B0F5806C97
:2044C000DCF1000050EB0C0070471846704700BF70B582B002F02EF84FF4D874C1F2000488
:2044E000236805461B6A19209847236812201B6A9847236819205B69984723684FF4DC74A3
:204500005B691220C1F200049847236801205B699847236801205B6B98470128F9D142F248
:204520002C0142F22803C4F20801C6F2080342F228020860C4F20802186013689907FCD583
:2045400041F2100141F214030022C6F20401C6F204034FF4D8740A60C1F200041A6023687A
:2045600019201B699847236812201B699847F5B1002441F21C014FF480535122C4F204031F
:20458000C0F20762C6F2040440F2FF36C4F20401002501202660C0F206400D601A6001A9C9
:2045A000FFF726FF431E5842584102B070BD01F0C5FFDDE730B540F61073C2F2000387B068
:2045C0001B680024012240F60A0501A8694601940494059302940394ADF804508DF81120D3
:2045E000FFF706FF012804BF4AF22010C0F2070004D0204607B030BD0138FBD0BDF80630E2
:2046000003F44063B3F5806FF6D1BDF8060000F44060B0F580646042604107B030BD00BF24
:2046200010B586B00023012240F6090401A8694601930493029303930593ADF804408DF842
:204640001120FFF7D5FE012806BF4AF22010C0F20700C0B203D006B010BD0138FBD0BDF8CC
:20466000063003F44063B3F5806FF6D1BDF8063003F44063B3F5806F18BF0020EBD141F606
:204680002833C2F200031A780120002AE3D140F610720599C2F20002012011601870DAE790
:2046A00030B587B001F046FF4FF4D874C1F20004236805465B6919209847236812205B692F
:2046C000984742F29C13C4F208031B68DA0720D541F2100141F214020023C6F20401C6F2D9
:2046E00004020B6040F60D04136002A8012201A90293059303930493ADF808408DF8152017
:20470000FFF776FE012804BF4AF22013C0F207033DD0FFF785FF42F22C0142F22803C4F21B
:2047200008010024C6F20803012042F228020C60C4F20802186013689B07FCD54FF4DC74E5
:20474000C1F20004236801209B699847236801205B6B98470228F9D14FF4D874C1F2000488
:20476000236819201B6A9847236812201B6A9847236819201B699847236812201B699847A9
:204780000DB901F0DBFE07B030BD013BC1D0BDF80A2002F44062B2F5806FF6D1BDF80A3055
:2047A000B7E700BF08B501F057FE052815D003281AD050B1012801BF42F2D013C4F20803B0
:2047C00005221A6018BF002008BD42F2D013C4F2080303221A60012008BD42F2D013C4F252
:2047E00008031860012008BD42F2D013C4F2080302221A60012008BDF8B542F29C13C4F2AE
:2048000008031A680023C8F2800300280CBF1D460025D10700D4F8BD01F08CFE41F2180108
:2048200041F2140241F21003C6F20401C6F204020646C6F2040300204FF000474FF4D8742E
:204840000F60C1F2000415601860236819201B6A9847236812201B6A9847236819201B69B4
:204860009847236812201B69984706B1F8BDBDE8F84001F063BE00BF002398420CBF022035
:2048800008200029C8F2800318BF002341F2100141F214021843C6F20401C6F204020B60C2
:2048A000106070470023984241F21402C8F2800318BF0023C6F204021360704740F60873BB
:2048C000C2F200031868704740F60C73C2F200031860704708B542F29C13C4F208031B686B
:2048E000D80704D4FFF7F4FD012800D008BD41F21003C6F204036FF000421A6008BD00BFB8
:2049000008B542F29C13C4F208031B68D9070AD44BF23830C0F20000FFF7EAF8FFF7D8FDFB
:20492000012800D008BD01F005FE41F21003C6F204031A6812020ED441F21003C6F2040343
:204940001A6812F00A0F1CBF6FF00A021A60BDE8084001F0F3BD6FF4000240F288001A60D3
:20496000C2F2000001F084F9E6E700BF41F62933C2F200031878704708B500F0A3F880B27E
:2049800008BD00BF00F038B938B54FF4DC75C1F200052B6804205B6998472B6804205B6BA2
:2049A00098474FF4DC7301280446C1F20003F4D11B6840F20140DB69984742F22803C6F268
:2049C000080342F228021C60C4F2080213689B07FCD538BD40F61473C2F200031868002833
:2049E0000CBF0220012070472DE9F04103880646002B4AD0B3F5847F09D140F22323C2F2DE
:204A000000031B788B4207D00120BDE8F081002303800320BDE8F08140F61477C2F20007CA
:204A20003B68B3B14FF4E673C1F200031A6848F20403C4F2020352680220D3F800809047A1
:204A40000024221848F10003194610463B6898473C604FF4DC73C1F200031B6840F20140AB
:204A60009B6A984742F22803C6F20803012142F228021960C4F2080213689907FCD540F259
:204A80009800C2F20000FFF789FB4FF4847333800120BDE8F08100BF08B54FF4DC73C1F26B
:204AA00000031B6804205B6B9847012801BF42F23C03C4F208031868C0F3400018BF002020
:204AC00008BD00BF70B540F61473C2F200031B68D3B140F61870C2F200000023C15C40F6CA
:204AE0001872C2F2000229B90133042BF6D10020014670BD40F230210024C2F2000101EB8E
:204B0000C301D45403C970BDFFF7C6FF002842D048F20803C4F202031A680123C8F2000358
:204B200013409BB949F6F073C4F2020301221A6018680028FCD102464FF4807102F062FC93
:204B40004FF42A73C4F2502301221A6001F0F2FC48F208020646C4F202021368D807FCD55B
:204B60004FF4E673C1F200031A6848F20403C4F20203526802201C68904700222346141877
:204B800043F1000516B12046294670BD01F0D6FC2046294670BDFFF7F7FEB9E738B54FF493
:204BA0002A750024C4F2502548F20C032C60C4F2020319684FF4D87221F001011960C1F22A
:204BC0000002136831205B699847204622464FF4807102F017FC012240F223232A60C2F284
:204BE000000340F2AC0022461978C2F20000BDE8384000F0E9BF00BF10B540F22324C2F2C1
:204C000000042378802B00D010BD00F04DFF207040F2AC00C2F200000021BDE8104001F048
:204C200005B800BF08B51AB108461146FEF776FF002008BD0FB400B583B004AB53F8041BB8
:204C400040F2BC001A46C2F20000019300F022F803B05DF804EB04B0704700BF38B50C4654
:204C6000054609E04BF29C31C0F200012B6868681022103C984718B9102CF3D8204604B988
:204C800038BD4BF29C312246C0F200012B686868984738BD2DE9F04F4BF2F43491B0C0F216
:204CA0000004002582468946099204940295884698F80030002B00F0F080252B00F0198375
:204CC000444602E0252B04D02C466378651C002BF8D145450FD0C8EB050641463246DAF88A
:204CE0000030DAF804009847002840F08F826378029C34440294002B00F0CF806B78002B67
:204D000000F0CB8001350024A3F12002AC46102A1CD8DFE802F0181B1B151B1B1B1B1B1B6A
:204D20001B121B0F1B1B090044F0100401359CF80130E9E744F00104F8E744F00604F5E798
:204D400044F00804F2E744F00204EFE7A3F13102D2B2082A00F2E580A3F13002D2B2092AD9
:204D60009CBF01354FF0000B00F2DE800BEB8B0B03EB4B0BAC4615F8013BABF1300BA3F192
:204D80003002D2B2092AF1D92E2B00F0D2804FF0FF316C2B00F0EE80682B00F07B81782B3F
:204DA00000F28180DFE813F079007F007F007F007F007F007F007F007F007F007F007F0048
:204DC0007F007F007F007F007F007F007F007F007F007F007F007F007F007F007F007F00E3
:204DE0007F007F007F007F007F007F007F007F007F00A2027F007F007F007F007F007F009E
:204E00007F007F007F007F007F007F007F007F007F007F007F007F007F007F007F007F00A2
:204E20007F007F007F007F007F009F027F007F007F009C02990296027F007F007F007F000C
:204E40007F007F007F007F007F007F007F007F007F007F007F007F0093027F007F007F004C
:204E60007F007F007F007F007F0090027F008D028A028702840281027F008A027F007F00F0
:204E80007F007F007D007E027B027F007F0078027F0075027F007F007202029811B0BDE8BA
:204EA000F08F44F4E06404F4E063B3F5806F0CF1010800F0CF806DD9B3F5C06F00F0B281A0
:204EC000B3F5E06F00F0A781B3F5A06F7FF4F0AE099BBBF1010F1A6803F1040309938CBF37
:204EE0000BF1FF3B4FF0000BE3078DF8282000F13E8350465946FFF7B1FE002840F0868190
:204F0000029CDAF800305C44DAF804000AA9012202949847002840F079810BF1010B029D37
:204F200095E02A2B00F0C6802E2B4FF0000B7FF42EAF9CF801300CF10101A3F13002D2B270
:204F4000092A00F2C4800CF102024FF0000909EB890903EB490913789446A3F13001C9B234
:204F60000929A9F1300902F10102F0D96C2B49467FF412AF9CF801306C2B03BF9CF802302F
:204F800044F080040CF1020C0CF1010C18BF44F0600404E7B3F5807F00F0A780B3F5407FC5
:204FA0007FF486AE099A4BF2D03711684BF2BC33C0F20003043214F4804FC0F2000718BF6C
:204FC0001F46099200230A46002900F057810DF13A00110902F00F0241EA0371BD5C1E0939
:204FE0000A463346014600F8015952EA0305F0D10DF13B035B1A18BFDD1C00F0418178207F
:2050000030222323AB4501F8010C01F8022C01F8033CA1F103063AD84FF0000B14F00104A3
:2050200006D150465946FFF719FE002840F0EE803146DAF80030DAF804002A4698470028CB
:2050400040F0E48002980544002C40F0FB805D4402952DE6099B1E6804330993002E00F09C
:205060004A8233781D466BB1731C18781A4601330028FAD1951B8D4294BF00230123002952
:20508000B8BF0023002B18BF0D46AB45C4D9C5EB0B0BC3E79CF80130682B03BF9CF8023044
:2050A00044F020040CF1020C0CF1010C18BF44F0400474E6099B05F1010C1A680433002A50
:2050C0000993B8BF44F0010493466B785CE62A2B18BF8C467FF45BAE099A9CF80230111D75
:2050E00009910CF1020C116853E60029ABBF24F0100401250591059514F4005504F0E00314
:20510000039500F0A780402B00F0208200F2F380002B00F0DE81202B40F00882099B1A1D24
:20512000099293F90020D317002A73F10000C0F2DA81CDE906230025089504F4C053B3F54F
:20514000805F00F06481B3F5C05F00F07F81B3F5006F1CBF0DF13E054FF0000900F03281C6
:20516000059941F60803894504EA030341F20802C0F0E580934218BF002600F00A8241F6B6
:205180000802934206EB090100F0FC8000273A46039870B1089B002B40F00E8104F00603DC
:2051A000022B00F0CD810498062B08BF012708BF02467B189B458CBFC3EB0B0B4FF0000BED
:2051C00014F00103039304D1E10640F19E815E449B463FB11146DAF80030DAF804003A4603
:2051E000984798B9102E344603D8B5E0102C40F2B3804BF2AC31C0F20001DAF80030DAF815
:2052000004001022103C98470028EFD04FF0FF3011B0BDE8F08F099B029C1A680433146084
:20522000099345E54BF20041C0F20001DAF80030DAF80400012298470028E7D1029C0134EA
:20524000029435E550465946FFF708FD00283FF4FEAEDBE7402B00F080815CD8002B00F0FA
:205260002D81202B40F05B81099B039D18781A1D002108950992CDE906015EE70DF13B0189
:20528000302301F8013C04250139B8E644F4C85409E644F4106406E644F4806403E644F46C
:2052A000407400E644F48854FDE544F48134FAE544F40074F7E544F40244F4E544F4245403
:2052C000F1E544F4A064EEE544F4C134EBE544F4B244E8E544F4A134E5E544F48444E2E553
:2052E00044F44244DFE544F4E134DCE544F4C064D9E5454602E5602B00F0EB80802B40F0D1
:205300001581099B073323F0070303F108020992D3E9002308E7602B00F0D080802B40F0EF
:20532000FE80099B039D073323F0070303F10802D3E9000108950992CDE90601FDE69342EC
:20534000C9EB01067FF41BAF002E08BF012600273A4606EB09011BE7002C40F0A1802946A9
:20536000DAF80030DAF804004A46984700287FF44DAF029B039C4B441F443E44ACB95E4498
:20538000029695E4DDE9062313433FF4FFAE4BF2E8324BF2E43314F4804FC0F20002C0F2EF
:2053A000000318BF1A460227F2E650465946FFF755FC0028E3D029E74BF2EC32C0F200023C
:2053C0000127F6E6DDE90601014300F0B480DDE906670DF13D09304639460A22002304F0E5
:2053E000E1FD303289F80020304639460A22002304F0D8FD06460F4656EA07024D4609F148
:20540000FF39E8D10DF13E03C5EB0309A8E6DDE90623134300F08F80DDE906230DF13D01A3
:20542000D00840EA4370DE0802F00707334602460D4652EA030007F13001297005F1FF3196
:20544000EED10DF13E03C5EB030989E64BF2D0374BF2BC3314F4804FC0F20003C0F200076E
:2054600018BF1F46DDE90623134364D0DDE906230DF13D01100902F00F0540EA03704FEA57
:20548000131E7E5D0246734652EA03000D460E7001F1FF31EED10DF13E03C5EB03095FE6CE
:2054A0004BF2AC312246C0F20001DAF80030DAF80400984700283FF452AFA7E6039D099BD3
:2054C00008951A680021043310460993CDE9060133E6099B1A6804330993D317002A73F11C
:2054E0000000BFF626AE504263EB43010125CDE90601089521E605294BF2F836C0F2000627
:205500008CBF002301230625BCE5504659460192FFF7A4FB019A00283FF45BAE76E6002550
:20552000002000210895CDE9060106E600200021CDE90601FFE54FF000090DF13E050FE684
:205540004BF2F032C0F20002012732E6099B1A1D0992B3F90020D317E6E5099B039D18881D
:205560001A1D002108950992CDE90601E5E5DAF80030DAF804000AA90122984700287FF4EC
:2055800045AE50465946FFF769FB00283FF4C5AC3CE60126DBE600BF10B50446006830B19C
:2055A000002100F043FB54F8040F0028F8D110BDF8B5038806461546EBB14A2B17D18829F6
:2055C00046D140F61C70C2F2000000F047FC044648B1031D9D4202D126E09D4224D0246891
:2055E000231D002CF9D14A2333800120F8BD002303800320F8BD40F61C70C2F2000000F09B
:205600002DFC044630B1201DA16800F06DF92468002CF8D141F62A33C2F2000301221A7021
:205620004A2333800120F8BD40F61C70C2F20000214600F069FC40F628756269A369C2F2E4
:2056400000052F682A600BB1E06998472F60CAE70120F8BD10B541F62A3340F61C700024EB
:20566000C2F20003C2F200001C7000F0F3FB40F2C4002146C2F20000BDE8104000F0D6BACF
:2056800070B541F62A34C2F20004049D267882610446C36145614EB9A16040F61C70214631
:2056A000C2F20000BDE8704000F0DABB40F62875C2F200052E6840F2C403C2F20003043056
:2056C0002B6000F011F92E60E7E700BF10B540F62874C2F20004246882B00094FFF7D0FFC4
:2056E00002B010BD10B541F62A33C2F200031B78044653B9C360036140F61C702146C2F2CE
:205700000000BDE8104000F0FFBB043000F012F9F2E700BF38B541F62A33C2F200031D7856
:2057200004466DB940F61C70C2F2000000F096FB10B90AE0006840B18442FBD1002038BD4F
:205740000430BDE8384000F0D9B8012038BD00BF704700BF10B540F62074C2F2000423685A
:20576000CBB1FEF727F8236859681A689B680A44121A4BB193E812009B682144091A8A426E
:2057800028BF0A46002BF5D140F624730244C2F200031A6010BD40F62472C2F200021360DB
:2057A00010BD00BF2DE9F041038805467BB1592B08D1872915D0822926D059232B80012039
:2057C000BDE8F081002303800320BDE8F08140F62072C2F20002136059232B800120BDE8F6
:2057E000F08140F62077C2F200073B68002BE4D0D9688A4203D02BE0D9688A4227D19B683B
:20580000002BF9D13B60D8E740F62077C2F200074FF000083C68002CCFD0002604E0A368E6
:205820002646002BC9D01C46204600F06BFA0028F5D0E0688821224600F0C6F9034640F2AB
:20584000D400C2F2000073B100F012FAE7E73B6099680029B1D0C86882420BBF89680B468C
:2058600099608968F5E7E360A3682EB1B360C4F80880FFF76FFFCDE73B60F8E710B504463D
:2058800040F2D400C2F2000000F0F2F940F62072E368C2F20002116853B149B18C4218BF8E
:2058A0000B4602D110E09C420ED09B68002BFAD140F62873C2F200031B68A160E36014605C
:2058C000BDE81040FFF746BF40F62873C2F200031B68E360BDE81040FFF73CBF40F2D4009E
:2058E000C2F2000000F0C4B910B5044600F002FA2046BDE81040FFF7C1BF00BFC068D0F113
:20590000010038BF0020704740F62073C2F200031868003018BF0120704700BF40F6207351
:20592000C2F20003186820B140F62473C2F200031868704710B540F62073C2F200031A68DD
:205940000446904217D04AB1936883420AD02BB19A68A24207D01346002BF9D10023A360A2
:20596000E36010BD1346A2689A60FFF7F3FE0023A360E36010BD82681A60FFF7EBFEEDE786
:205980002DE9F84340F62C78C2F20008D8F8004040F62876221CC2F2000618BF0122844284
:2059A00018BF002C054689463768234604D01B689D4218BF002BFAD163B3AB7BE3B10023CC
:2059C000AB736AB1A54220464FF087012A4604D0A37BDB0701D500F029F82468002CF1D1D5
:2059E000AB683BB14D4505D0356005F10C00832100229847D8F80040A54212D04CB12368A4
:205A0000AB4209D02BB11A68AA4206D01346002BF9D13760BDE8F88323462A681A6037608F
:205A2000F8E72B683760C8F80030F3E770B5856804460E468DB140F62873C2F200030220FB
:205A4000A0731C6004F10C00A8470238012805D9832E1CBF0123A37300D070BD20462146F6
:205A6000BDE87040FFF78CBF70B540F62C73C2F200031C6841F62D33C2F2000300261E7059
:205A800084B1012501E0246864B1E37B002BFAD0A573E673204682210022FFF7C7FF2468F2
:205AA000002CF2D170BD00BF41F62E33C2F200031878421C1A70704770B441F62C3040F6A0
:205AC0002C7140F62872002341F62E3541F62B34C2F20000C2F20001C2F20002C2F200052E
:205AE0008A26C2F2000403700B6013602E70237070BC70472DE9F04141F62D34C2F2000442
:205B000023780BB1FFF7B0FF41F62C35C2F20005287818B341F62B32C2F20002117840F6C4
:205B2000307301EB410C4FEA8C0CC2F2000303EB0C0701380131BE68C0B201F01F01287054
:205B4000117013F80C807F68B6B1B8F1810F04BF0123B37306D0B37BDA0703D423781844E6
:205B6000BDE8F081304641463A46FFF75FFF287823781844BDE8F08140F62C73C2F2000305
:205B80001E6836B9EAE7B37BD9070AD43668002EEDD02378002BF6D0FFF766FFB37BD90755
:205BA000F4D5304641463A46FFF740FFEEE700BF41F62D3241F62C33C2F20003C2F200023D
:205BC0001278187810447047F0B441F62C33C2F200031D78202D08BF012315D041F62B3467
:205BE000C2F20004277840F630742F4407F01F0707EB4707BF00C2F20004E6190135E155C2
:205C00001D7072600023B0601846F0BC704700BF38B5837B40F62874C2F20004DB0725688E
:205C200001D5FFF703FF256038BD00BF70B440F62C75C2F200052E680446864218BF002EFC
:205C4000334604D01B689C4218BF002BFAD1A3420BD0012000232660A073A3810A46204652
:205C60002C60812170BCFFF7D3BF70BC704700BF60B1837B013BDBB2012B9FBF41F62D33A7
:205C80000122C2F200031A7098BFC273704700BFFDF7DABD10B541F2B004C2F20004236824
:205CA00063B1184600225B68816822609847236823B11868BDE81040FDF7C8BD10BD00BF6A
:205CC00010B541600446FDF7B1FD206010BD00BF10B50446FDF7AAFD616822684FF6FE73B3
:205CE0000A44801AC7F6FF7398428CBF0020012010BD00BF10B541600446FDF75BFD20601F
:205D000010BD00BF10B50446FDF754FD94E80C00C2F10102104483422CBF0020012010BD53
:205D2000F8B504880546672C0ED0792C04D064B3002303800320F8BD852933D141F2BC14AB
:205D4000C2F200040023236041F2BC1441F23C16C2F20004C2F2000607E00A2824D0226854
:205D60007E2ADEBF511CB054196041F23410C2F2000000F0FFF841F2BC13421CC2F20003CB
:205D8000EBD167232B800120F8BDFFF78DFE41F6F63241F2BC13C2F20002C2F2000310706D
:205DA0001C60D1E70120F8BD41F2BC14C2F20004276841F23C1341F6F631C2F200030026D2
:205DC000C2F200011A4607F1010E09783046DE55C4F800E0FFF7F8FE40F62873C2F200036D
:205DE000324618688521FFF7EFFE0028AAD179232B800120F8BD00BF08B541F2341041F23C
:205E0000B401C2F20000C2F20001802200F0AAF8BDE8084040F2E400C2F200000021FFF762
:205E200005BF00BF0029034611DD084413F8011B4A4052BA02F47F4182EA011292B282EA91
:205E4000123202F47F41834282EA5112EED11046704700BF00230360704700BF006870470E
:205E600010B404685CB1A14225D023680BB906E01346994210D01A681C46002AF8D10023CA
:205E80000B6002680AB911E01A461368002BFBD111605DF8044B704764B10A6822600022B0
:205EA0001A6000230B600268002AEED101605DF8044B70470C46226823460260EFE700BF8F
:205EC00030B4056865B1A94219D02B6843B12C4600E01346994207D01A681C46002AF8D1CC
:205EE0000D60016030BC704744B10A68226000221A6005680D60016030BC70470D462A68E9
:205F00002B460260F3E700BF10B404685CB18C4215D023680BB906E01346994206D01A6864
:205F20001C46002AF8D15DF8044B704734B11A68226000221A605DF8044B70470C462268F5
:205F400023460260F5E700BF03682BB100201B680130002BFBD170471846704700B10068E4
:205F6000704700BF0023013A0160027143718371704700BF10B40346827940791979801A6E
:205F800008421FBF1868541C2140805C14BF99714FF0FF305DF8044B704700BF08B54369DE
:205FA0005B6803B1984708BD10B5044682B01A2001F000FC014601A801F042FA63691B68F2
:205FC00013B1204601A9984702B010BD70B514464BF224420646C0F200020D4602F002FE28
:205FE0004BF2204174612846C0F20001BDE8704000F036B810B541F6B4310446C2F20001FA
:206000001A2001F0CBFB2046BDE8104002F0FABD41F2C010C2F20000FFF71CBF034641F287
:20602000C0109980C2F200001946FFF719BF00BF10B5044641F2C010C2F20000FFF70EFF0E
:2060400050B18388A34203D109E08388A34205D0FFF784FF0028F8D1002010BD10BD10BDDC
:2060600038B50D46FFF7E4FF044620B18560284602F0D4FE207338BDF8B5064641F2C4104D
:20608000C2F200000D461746FFF7E8FE044648B1A368284603B198472046FFF75FFF04466D
:2060A0000028F5D1304629463A46BDE8F84002F0B1BD00BF38B502F08FFE054641F2C410D3
:2060C000C2F20000FFF7CAFE044640B1636803B198472046FFF742FF04460028F6D125B109
:2060E0002846BDE8384002F08FBD38BD10B501F073FB01F0CBFA02F093FD02F06BFEBDE886
:20610000104002204FF400714FF4F0524FF4E12302F044BE10B5044602F06EFE68B101F022
:20612000BDF94BF2A843C0F2000346F27900C0F2000021469B689847012010BD08B5836989
:206140005B6803B1984708BD38B504461B200D4601F030FB41F6B431C2F2000101F074F914
:2061600028B1A3691B6813B120462946984738BD70B514464BF240420646C0F200020D46B9
:20618000FFF724FF4BF24841B4612846C0F20001BDE87040FFF764BF10B504461B2001F041
:2061A000FDFA2046BDE81040FFF724BF70B5064600F0C0F94FF400420546C4F20C0213688B
:2061C0004FF40044C4F20C04002BF8D0B0470123236005B170BDBDE8704000F0AFB900BF92
:2061E000F8B506460F4600F0A5F94FF400420546C4F20C0213684FF40044C4F20C04002B3C
:20620000F8D03846B0470123236005B1F8BDBDE8F84000F093B900BF10B442F2080342F220
:206220000C04C4F20903C4F209041A68206819688A42FAD1120442EA10405DF8044B7047BA
:2062400010B500F077F94FF40041C4F20C010A684FF40043C4F20C03002AF8D04BF22A02BA
:20626000C4F20C02492401211470196008B900F065F900F05FF94FF40041C4F20C010A68BE
:206280004FF40043C4F20C03002AF8D04BF22802C4F20C02FB2401211470196008B900F0A7
:2062A0004DF900F047F94FF40041C4F20C010A684FF40043C4F20C03002AF8D04BF229010B
:2062C0000122C4F20C010A701A6008B900F036F946F2300149F210030022C4F20C01C4F2B2
:2062E0000C030A601A6010BD2DE9F041052998BF00285FFA80F80E46174614BF48F0010854
:2063000048F0410800F016F94FF40045C4F20C052C684FF40043C4F20C03002CF8D04BF29E
:206320001A02C4F20C02012182F80080196008B900F004F946F23000C4F20C000123036089
:2063400003689A07FCD5002F3CD04FF45C5249F21003C4F20802C4F20C0341F60161176051
:206360001960F60000F0E6F84FF40041F6B2C4F20C010A684FF40043C4F20C03002AF8D042
:206380004BF21802C4F20C0201211670196008B900F0D4F800F0CEF84FF40041C4F20C0147
:2063A0000A684FF40043C4F20C03002AF8D04BF21802C4F20C02032401211470196048B1D4
:2063C000BDE8F08149F21003C4F20C0340F601121A60C6E7BDE8F04100F0B0B849F21402A5
:2063E000C4F20C021368D907FCD449F21803C4F20C031868704700BF42F2D413C4F20803C1
:20640000186800F00E00704741F21832C5F2000213684BF69A11C3F30F338B4213D04BF6C1
:20642000BE12934208BF01200BD04BF64132934208BF032005D04BF6203083420CBF022069
:20644000FF2040B270471068000F0B280CBF0420002040B2704700BF10B541F29423C5F2DD
:2064600000031C68FFF7D0FF0128C4F3033409D1082C08BF002003D00F2C0CBF0120FF20AB
:2064800040B210BDFF20FBE738B541F218324FF48553C5F20003C5F2000212681C68150F22
:2064A000E4B27F2C88BF0024FFF7AEFF04280FD8DFE800F01108030304004DB90A34E0B2CA
:2064C00040B238BDF5B1022D04BF1434E0B2F7D0FF2040B238BD013D072DF9D801A353F864
:2064E00025F000BF05650000D164000013650000D1640000D1640000D16400001765000096
:206500000B6500000A2040B238BD04F11600C0B2D6E71420D4E71520D2E700BF08B5FFF771
:2065200073FF012800D0FEE7FFF7AEFF1328FADD08BD00BFEFF3108072B67047EFF310800F
:2065400062B6704701387FF4FDAF704770B50D46C10782B0044626D4A20713D463070FD5C9
:206560004FF4D273C1F200031B68ADB24FF4204000955C68C4F20C0000210C220223A047E2
:2065800002B070BD4FF4D273C1F200031B68AAB200924FF420405E68C4F20C0000210222FD
:2065A0000123B047DAE74FF4D273C1F200031B68AAB2009200214FF420405E68C4F20C0004
:2065C0000B460122B047C7E710B54FF4D273C1F200031B6804284FF42040DC684FF0340195
:2065E00007BF4FF0C0421D234FF080521C23C4F20C00A04710BD00BF01280FD030B14FF4A3
:20660000C073C4F2043301221A6070470023C4F209031A6822F005021A6070470023C4F27C
:2066200009031A6842F005021A60704770B4038843F6060293421ED00132934217D040F68A
:206640000202934201D070BC7047C67B4369002BF9D003F1140544F2380419681A4688B232
:20666000A04203F1040309D0AB42F6D1EBE790F82460C369EBE7C3690226E8E7C1F30340BA
:206680000028E0D0B31E1C2B10D8DFE803F00F0F0F41390F0F0F310F290F0F210F0F0F0FB0
:2066A0000F0F0F0F0F0F0F0F0F0F49004FF49C53C5F200031B68C3F383430F2B38D0834209
:2066C00082BF21F4702141EA0343136070BC704741F20413C5F200031B68C3F38343ECE736
:2066E0004FF48853C5F200031B68C3F38343E4E741F2FC03C5F200031B68C3F38343DCE74A
:2067000041F2F803C5F200031B68C3F38343D4E74FF49953C5F200031B68C3F30323CCE7DC
:2067200041F20813C5F200031B68C3F38343C4E7053E192E08D8012303FA06F603F5846341
:20674000C0F2002333402BB921F4702141F48021116078E721F4702343F4E023136072E713
:2067600028B946F20223C4F20803187070474FF4C44246F20223C4F208020020C4F2080394
:20678000202110701970704738B541F21003C4F2090301214FF4257205461960C4F2223239
:2067A0001368002BFCD04FF4C042C4F20C02C02143F6B0731160C5F200031B689B070DD4F0
:2067C00043F6AC73C5F200031A6846F25623C2F3034242F0F002C4F208031A704FF48252F4
:2067E000C4F20902002143F6B4731160C5F200031C68204600F0E8F82846214600F0AEFA05
:2068000041F21433C5F200031A6840F21D2392B29A4219D841F2BC23C5F2000319681A6870
:20682000C1F30363C2F3034219462BBB931F012B83BF023202F00F021201702246F20203C6
:206840000A43C4F208031A70204600F021F94FF4D073C1F200031B680220DB6898474FF4EA
:20686000C04240F29443C4F20C024020C4F2602301211060196038BD013BD9B2D6E700BF6D
:2068800038B541F21C33C5F200031C68FFF746FE40F2844046F25C0142F208230122C4F24E
:2068A0000433C4F260200025C4F20C0105600A601A6000F069FB4FF4C073C4F228331B68DC
:2068C000B4F1FF3F08BF2C463BB14FF48073C4F2203320461B68FFF757FF42F28C12C4F2B4
:2068E0000802002142F248031160C4F203031968042221F07F6121F4702141F09C7141F410
:2069000080311960C4F209021368C3F30133012B06D00C22C4F268221368002BFCD138BD4F
