:020000040000FA
:2000000000500020ED000000E5000000C9000000E9000000E9000000E9000000000000001A
:20002000000000000000000000000000E9000000E900000000000000E9000000E90000001C
:20004000FD280000E90000005D2F0000E90000009D20000019250000E9000000E900000050
:20006000E9000000892F0000E9000000E9000000E9000000E9000000E9000000E900000069
:20008000E9000000E9000000E9000000E9000000E9000000E9000000E9000000E900000018
:2000A000E9000000E9000000E9000000E9000000E9000000E9000000E9000000E9000000F8
:2000C000E9000000253200004EF62853CEF200031A68B2F5806F03D01B689B0500D4FEE797
:2000E000704700BFFEE700BFFEE700BF10B503F0EFFF40F2000140F2FE13C2F20001C2F2BD
:20010000000399420ED2CC431C4424F0030447F234700434C0F200000023C258CA50043342
:20012000A342FAD1064807494FF000028842B8BF40F8042BFADB00F0B9FBFFF7C5FF10BD88
:2001400000020020422B0020704700BF02F054B87F2000F023BD00BF08B57F2000F01EFDE7
:2001600042F6F923C2F2000300221A7008BD00BF10B542F6F9230446C2F2000301227F2068
:200180001A7000F00BFD2078BDE8104000F0FCBC70B54FF40064054640F224302246002182
:2001A000C2F2000006F0D6FF40F6A43022460021C2F2000006F0CEFF41F2B4302246002116
:2001C000C2F2000006F0C6FF41F6B43040F2252240F2F813C2F20000C0F20002C2F20003C0
:2001E000002103F0FDF840F2043040F2711240F2F713C2F20000C0F20002C2F2000304215B
:2002000003F0EEF840F6243040F2E9422B46C2F20000C0F200024FF48071BDE8704003F0C9
:20022000DFB800BF70B502780446022A3DD0032A24D0012A00D070BD42F67625C2F2000571
:20024000298840F22433C2F200034A1C142003EB41012A8000F020FF2B88B3F5806F4BD0C5
:2002600041F6B43040F225222346C2F20000C0F200020021BDE8704003F0B2B842F6762573
:20028000C2F20005298841F2B433C2F200034A1C182003EB41012A8000F0FEFE2B88B3F564
:2002A000806FDDD100232B80C5E742F67625C2F20005298840F6A433C2F200034A1C16208A
:2002C00003EB41012A8000F0E7FE2B88B3F5806FC6D1002441F6B43040F2252240F2FA1397
:2002E0002C802146C2F20000C0F20002C2F20003BDE8704003F074B8002441F6B43040F2E7
:20030000252240F2F9132C802146C2F20000C0F20002C2F20003BDE8704003F061B800BF06
:2003200010B540F2043040F2711240F2F613C0F20002C2F200030121C2F2000003F050F826
:2003400000F004FFBDE8104040F2842040F25912C2F20000C0F200028021002303F040B82B
:2003600030B5832985B0054650D02C88BCB140F265139C420ED188296CD042F64033C2F278
:2003800000031B788B424CD040F2651301202B8005B030BD002303202B8005B030BD41F6FC
:2003A000D430C2F20000082101F02AFF40F2EC2047F25022C0F200028121C2F2000003F05C
:2003C0006BFC00F05FFE21462246234620460094019400F0A5FE00F085FE052000F07CFE0D
:2003E000022220230C21012000F06EFE41F2A430C2F200004FF4207103F0E2F840F27C20C2
:20040000C2F20000052103F0C1FABDE740F2EC20C2F200000391029203F052FC029A03991D
:20042000A3E747F27023C0F200039A42ACD1536801209847B0F5C07FA6DD40F6443040F25A
:200440004D12C2F20000C0F200021021002302F0C7FF99E740F27C20C2F2000003F09EFA3C
:2004600070B942F6F923C2F200031C785CB341F2A430C2F200004FF4207103F0A1F883E720
:2004800040F6843040F22132C2F20000C0F200020121002302F0A4FF40F6643040F291120C
:2004A00040F20003C2F20000C0F20002C2F20003C02102F095FF40F27C20C2F200000821D6
:2004C00003F064FAD3E7082000F05EFB40F25C2040F251122346C2F20000C0F200024FF449
:2004E000C07102F07DFFC2E72DE9F04F42F67424C2F2000442F681252688C2F200052B78EF
:20050000721C228083B0804607781A46002B56D0022F72D0032F00F0A280012F36D07F0016
:20052000FFB2D319DBB242F67E22C2F2000242F68126B3EBC70F2B701770C2F2000600F0E4
:20054000C380238842F67424B3F5806FC2F2000400F0EE8042F67F24C2F20004237840F6CC
:20056000243003F0070340F2E942072BC2F200004346C0F200026AD0002102F031FF237892
:200580000133DBB2237003B0BDE8F08F41F2B433C2F2000303EB460040F22C2190F801C063
:2005A00013F81660C2F2000142F682231144C2F20003A12081F804C04E711870AFE742F609
:2005C000802E40F2282940F2A420C6F3C70CC2F20009C2F2000EC2F20000462102228EF824
:2005E00000C089F800C089F8013000F01BF9002840F0AF80022F2A788CD140F2243040F6D1
:20060000A431C2F200004FEA460CC2F2000100EB0C0940F22C238C4410F816A0C2F200034B
:2006200011F8166099F801909CF801C042F682209918C2F200004FF0A20B03F8029080F894
:2006400000B081F801A081F802C0CE7067E7012102F0C6FE0123237003B0BDE8F08F40F271
:20066000243A7000C2F2000A40F6A43C41F2B431C2F200010AEB000BC2F2000C0CEB00094B
:200680009BF801B0084440F22C231AF816A0C2F200031CF816C099F8019011F81660407887
:2006A00042F6822103F802B0C2F2000113444FF0A30B83F801A083F8029083F803C01871C9
:2006C0005E7181F800B02AE742F6822240F22C21C2F20001C2F2000240F2A4201278C2F217
:2006E00000000091462100F055F800283FF429AF40F2A420C2F20000462100F073F80028FE
:200700003FF41FAF40F2A420C2F2000000F03EF8014640F2A420C2F2000004F0F1FB40F205
:20072000EC20C2F2000003F0CDFA0023337008E7002540F2842040F259122B46C2F20000CD
:20074000C0F200028021258003B0BDE8F04F02F047BE41F6D433C2F2000340F2A420009393
:20076000C2F2000046210122082300F013F800283FF440AF40F2A420CDF800904621AF2248
:200780000223C2F2000000F005F833E740780230C0B27047F0B545780446281D184488424F
:2007A00083B002DC2178402902D0002003B0F0BD691C665C60187D2EF7D1DF1C3D4466556B
:2007C0006254089A437032B1114602301A46019306F04AFC019B627802331344637001207C
:2007E000E4E700BFF8B543780446DD1C8D4202DA0278402A01D00020F8BD5E1C825D871996
:200800007D2AF8D19A1C194600F8012F002203F06FF9A15D0346020A6155A3557A700120A2
:20082000F8BD00BF042910B481BF022140247D23827083BF04704170C370002088BF0120D8
:200840005DF8044B704700BFF0B5002783B005463E463C46284600F097F90194019B9E422F
:2008600006DD00BF019B01330193019B9E42F8DC284600F093F90194019BC6F5C876B34219
:2008800006DA00BF019B01330193019BB342F8DB0137B7F5487F06D0B7F5C87FCCBFC7F536
:2008A00048763E46D6E703B0F0BD00BFF0B54FF4EC74C1F2000423684FF4804083B05B6897
:2008C000C4F2030001219847236801214FF480400A461B68C4F20300984703F001FB02F062
:2008E00027F801F0B5FF00F057FB01F0F3FF00F041F944F20C010822C4F20902C4F20901F7
:20090000012542F22C030D6028461560C4F209031B68FFF799FF03F0E7FA01F02DFB01F04D
:2009200031FA03F01BF801F02FFC02F02BFF41F2342002F06BFB01F0B9FD03F0C3F840F2E8
:20094000B4000021C2F2000002F0D6FF02F00CFD02F06AFD1020FFF777FF04F0A7F9684615
:20096000082101F04DFC47F224349DF80720BDF806109DF8067042F60033C2F20003C0F21D
:200980000004198042EA0727E66A4AF6CD310220B04739460320B04711212846B047636BBB
:2009A000082269460B2098470420FFF74DFF40F214000021C2F2000002F09EFF47F24820A3
:2009C000C0F2000002F072FC01F0EEFB1020FFF73BFF02F0F5FE044601F000FC14F0FF0F9D
:2009E000F7D101F0D3FDF4E72DE9F04105888046772D42D07E2D36D025B1002303800320F3
:200A0000BDE8F08102F0B6FE40F22406C2F2000642F6403341F6DC343268C2F20003C2F20D
:200A2000000418702560002A62D02B4642F6FC251F46C2F20005EF54936880200021984783
:200A40002368013356F823202360002AF3D1DBB242F68321C2F200010B707723A8F80030D2
:200A60000120BDE8F08142F64033C2F200031B788B4223D00120BDE8F08142F68327C2F2BD
:200A8000000741F6DC3441F6E0363A78C2F20004C2F2000600239342336023600ADA42F66D
:200AA000FC25C2F20005E956002923DB013393422360F4DB3368002BECD1CEE741F6DC341C
:200AC00042F6FC2542F6832741F6E036C2F20004C2F20005C2F20007C2F200062368326883
:200AE000E85C511C00F07F003A78E8543160DDE71346ADE742F6403140F22402C2F20001F0
:200B0000C2F20002097852F82320002002F0C2FE0028E3D17E23A8F800300120BDE8F081BB
:200B200010B442F68323C2F200031C7804B340F22402C2F20002136898424FF0000304D197
:200B400006E052F8041F884202D00133A342F8DB42F6FC22C2F20002D15C40F2140061F0EA
:200B60007F01D154C2F200005DF8044B02F0E6BE2346EDE708B500F087F942F68423C2F2E5
:200B8000000300221A7008BD42F68423C2F200031A78024310461A7000F098B942F6842374
:200BA000C2F200031A7822EA000210461A7000F08DB900BF40B1012803BF41F6E433C2F22B
:200BC0000003D868002070474FF40353C4F202031868C0F3403080F00100704781380128FA
:200BE00008B501D9002008BD4FF4DA73C1F200031B680D205B689847C0F3804008BD00BFEA
:200C00000D2838B500D038BD41F6E434C2F20004204602F0DDFE0028F5D02046042102F049
:200C2000CFFE4FF40353C4F202031D68C5F3403565B101F0FDF8A368C31AE36047F27020F1
:200C4000C0F20000BDE83840FFF76ABF01F0F0F8E560A06038BD00BF802810B50CD08128E2
:200C600008D151BB4FF4DA73C1F200031B680D205B6B9847012010BD42F2E0034FF400525A
:200C8000C4F202034FF4DA741A60C1F2000423680D209B6B984723684FF480421B68C2F273
:200CA00007020D200021984740F60141C0F200010D2001F0F7FD012010BD42F2E0034FF479
:200CC0000052C4F202034FF4DA74C1F200041A6023680D209B6B984723684FF48042C2F264
:200CE000070200211B680D20984723680D201B6B9847012010BD00BF813801289DBF41F6FC
:200D0000F433C2F2000318680020704730B520F08004012C83B00D4623D0022827D125F048
:200D20008003012B23D842F68523C2F200031A7802AC02F07E021543EDB204F8045D00204C
:200D400040211D7005F05EF821460122E62005F0E5F800280CBF4FF0FF340124204603B055
:200D600030BD0228DBD0812806D0012805D04FF0FF34204603B030BD89B90020402105F004
:200D800041F800210A46FE2005F0C8F80028EED043F6982001F096F8204603B030BD00205A
:200DA000402105F02FF842F68521C2F20001E720224605F0A5F80028DFD041F6F433C2F239
:200DC00000031D60D5E700BF10B541F6F433C2F200031B6882B00446002B47D0E52818BF19
:200DE000E3280CBF0020012014D0012C3ED10020402105F007F842F68524C2F20004214647
:200E0000E720012205F07CF880B32078C0F3801002B010BD402104F0F5FF012CEBD0E4B2EB
:200E2000E52C18BFE32C21D1204601A9022205F067F8D8B19DF804109DF805204FF6FC73A1
:200E400002EB0122E32C02EA030313D043F2D40000FB03F0000CA0F5167042F210729042F8
:200E6000A8BF104680B280B202B010BD4FF0FF3002B010BD44F2A44000FB03F0000CA0F53C
:200E800092500D3880B2EEE710B541F6F833C2F200031A68C2B901224FF4DA741A60C1F268
:200EA000000423680520DB6B984723680420DB6B984723680E20DB6B984742F2A003C4F21A
:200EC000020344F230021A6010BD00BF42F68623C2F20003187042F2A002C30748BF42F2A4
:200EE0009003C4F2020244F2300148BFC4F20203116044BF20221A60410741BF42F290033D
:200F0000C4F2020310221A60820741BF42F29003C4F202034FF480421A60030708D542F2C5
:200F20009003C4F2020310214FF4804219601A60C10607D542F29003C4F2020320211022A2
:200F400019601A60820608D542F29003C4F2020320214FF4804219601A6043060AD542F222
:200F60009003C4F20203202010214FF48042186019601A60704700BF10B54FF4DC74C1F2C1
:200F80000004236804205B699847236804205B6B98470128F9D110BD38B502F0A1FF05461D
:200FA000FFF7EAFF4FF4DC73C1F200031B684FF4A060DB69984742F22803C6F208030121DD
:200FC00042F228021960C4F2080213689B07FCD500F03AF94FF4DA7404F04AFC40F230003C
:200FE000C1F20004C2F2000001F022FC23680F20DB6B984723684FF480410F209B699847F7
:2010000023680B209B6B984723684FF400510B209B69984723680C20DB6B984723684FF45E
:2010200000510C209B69984723681920DB6B984723684FF4804119209B69984723681E20F3
:201040009B6B984723684FF400511E209B69984723681D20DB6B984723681D209B694FF46F
:201060000051984705B138BDBDE8384002F03CBF013008B5C0B200F0C3F800280CBFFF206E
:20108000012008BD08B500F065F841F6FC33C2F2000301221A6008BD022200F06DB800BFE9
:2010A00008B541B1012904D1BDE808401146FFF7DFBFFF2008BD114600F0A2F800280CBFF2
:2010C000FF20012008BD00BF1A43114340EA010236200021FFF7E4BF024600213820FFF7A7
:2010E000DFBF00BF002108B50A460220FFF7D8FF00210220FFF7BCFF00210A460420FFF7F7
:20110000CFFF00210420FFF7B3FF00210A460620FFF7C6FFBDE8084006200021FFF7A8BF31
:2011200038B59DF810409DF8145023431A43114340EA01021C200021FFF7B2FF00B938BDEE
:2011400029461C20BDE83840FFF792BF3E200821FFF78EBF08B54AF66060C0F20A000F210D
:2011600000F000F942F29003C4F202034FF000721A60012008BD00BF70B5002382B00E4666
:2011800015468DF804008DF8053000F0D5F84FF40354C4F2020423685900FCD442F2A00313
:2011A000C4F202034FF000741C6001A8022100F075F830B942F29003C4F202031C6002B083
:2011C00070BD00F0B9F84FF40354C4F2020423685A00FCD400F0B0F84FF40354C4F2020448
:2011E00023685B00FCD43046294600F07BF842F29003C4F202034FF000721A6002B070BD65
:2012000010B560F07F0082B08DF804008DF8051000F092F84FF40352C4F202021368580046
:20122000FCD442F2A003C4F202034FF000741C6001A8022100F032F842F29003C4F20203B5
:2012400000201C6002B010BD08B54AF66060C0F20A000F2100F086F842F29003C4F20203DA
:201260004FF000721A60BDE8084000F0E9B800BF08B54FF4DC73C1F200031B6802205B6B96
:201280009847012801BF42F27803C4F208031868C0F3400018BF002008BD00BFF0B583B050
:2012A00006460C46FFF7E4FF0746B8B1B4B14FF4E275C1F200052B684FF400405B68C4F2BB
:2012C000000016F8011B98472B684FF40040DB68C4F2000001A99847013CECD1384603B042
:2012E000F0BD00BFF0B583B006460C46FFF7C0FF0746F0B1ECB14FF4E275C1F2000507E093
:201300002B68DB689847019B013C06F8013B10D02B684FF400409B680021C4F20000984756
:2013200003464FF40040C4F2000001A9002BE7D11F46384603B0F0BD10B582B0FFF798FFD7
:2013400068B14FF4E274C1F2000423684FF400401B69C4F2000001A998470028F5D102B0B3
:2013600010BD00BFF0B54FF4DC77C1F200073B68064685B05B6902200D4698473B680220EB
:201380005B6B98474FF4DC7301280446C1F20003F4D11B6840F20110DB69984742F22803E0
:2013A000C6F2080342F228021C60C4F2080213689B07FCD548F21403C4F20003186848F21E
:2013C0002001032220F00F00C4F200014FF4E2741860C1F200040A602368082101910096E3
:2013E0004FF400404FF4D8411E68C4F20000C0F2DC210023B0474FF4DA73C1F200031B6840
:201400004FF4004000955D6C0C224FF0FF33C4F200000B21A84748F20403C4F200031A68FF
:2014200042F002021A6023684FF400401B69C4F2000003A998470028F5D105B0F0BD00BF1A
:2014400010B54FF4DC73C1F200031B6840F201101B6A984742F22803C6F20803012142F2DD
:2014600028021960C4F2080213689907FCD54FF4DA74C1F2000423680B209B6B98472368AF
:201480004FF400510B209B69984723680C209B6B984723684FF400510C209B699847236855
:2014A0000F209B6B984723680F209B694FF40051984710BD012070470120704708B501F0BC
:2014C000E1FA48B140F2F803C2F200035888022814BF0220012008BD022008BD10B582B091
:2014E00001F030FD044601F0CDFA08B902B010BD0120C0F2014001A901F0CCFA0128F5D128
:20150000638803F44063002BF0D1638803F44063002BF5D0EAE700BF30B583B001F0B2FAA0
:2015200040F2F804C2F20004A8B900256580A37F40F2F8005BB2C3F5FF6307339BB2C2F2AC
:20154000000001A9238301F0A5FA012818BF284608D003B030BD6388022B08BF0120E4D110
:2015600003B030BD00F006FD4FF6C075CFF6FF752D1A03E000F0FEFCC54203D563889BB2FA
:20158000022BF7D1608880B2831E58425841E0E708B5B32994BF0A46B4220146024805F009
:2015A00063FD002008BD00BF1A1C002070B541F60C45C2F200052C68002603E024682B68AF
:2015C000A3420DD02379032BF8D140F27000C2F2000002F0B3F924682B680136A342F1D1C5
:2015E000304670BDF8B541F61444C2F2000425682B79032B18BF002601D03046F8BD2E8945
:20160000023E002E0CDD8E4205F10A070EDDB957042089B203F0DAFC03207F2103F0D6FCF1
:201620002B68002223602A713046F8BD3946324605F01AFDEBE700BF10B582B001F022FA14
:20164000F8B140F2F804C2F2000463880120022B15D101A9C0F2014001F01CFA02E063886B
:20166000022B03D101F00EFA0028F8D16088A0F55050043880B201288CBF0020012002B08D
:2016800010BD012002B010BD10B540F25803C2F2000340F24014C2F200041B68052284F870
:2016A000242082B09B88204601A9638301F0F2F9012818BF002001D002B010BD204601F0F8
:2016C0003FFA421E5042504102B010BD00B540F2281083B0C2F2000001A901F0DBF9012831
:2016E00018BF002002D003B05DF804FB40F22810C2F2000001F024FA411E4842484103B0C8
:201700005DF804FB08B5FFF7BFFF012801D0002008BDFFF7DBFF0128F9D1FFF7FDFEC0B2FF
:2017200008BD00BF08B501F065FC012815D0FFF783FF01F0F9FA01F05BF940F2F80041F606
:20174000D04141F65C530022C2F20000C2F20001C2F2000342800A711A71012008BD00BFE3
:201760002DE9F84F01F046FC01281AD001F00EF901F088F970B901F085F9044600285ED123
:2017800001F0F8F9012805460ED001F0CDFA0020BDE8F88F40F2F803C2F200035B88022B1D
:2017A000E9D10120BDE8F88F40F21C4047F25C31C0F200014FF42372C2F200104FF4647860
:2017C00005F052FCC2F2001840F2793C40F2753E40F2773740F2AE3640F2AB3040F2813147
:2017E0004FF4707340F2BD5288F80040C2F2001CC2F2001EC2F20010C2F20011C2F20013D0
:20180000C2F200124FF0020BC2F200174FF0030AC2F200164FF004094FF0050806248CF88F
:2018200000508EF800B087F800A086F8009080F800800C701A6001F001FA0128A5D100205C
:2018400001F01EFB01F0BAF8FFF71EFF012802D00020BDE8F88FFFF739FF0128F8D1BDE8BC
:20186000F84FFFF759BE00BF30B583B007286ED8DFE800F04D046D6D266D542920294AD86B
:2018800040F22813C2F20003188ADC894FF47A7202FB04F402FB00F2A4F55F2402F57F4236
:2018A000A4F66C64FF3248F21F5004EB1242C5F2EB10A0FB0240CAB2C0F38710824251D166
:2018C000002003B030BD40F2FB13C2F20003197001F0D8F800283CD040F2F803C2F20003EF
:2018E0005B88022B08BF002533D1FFF7A5FE012814BF03240024FFF705FF012818BF0324E7
:201900002046002DDDD0FFF70DFF2046D9E701294FD0002947D0022003B030BD01F10A0315
:20192000182BF8D847F29C240191C0F20004FFF7D5FD019923460F22986F083B81423DDD30
:2019400012F1FF32F8D2FFF7DDFE0020B9E70120B7E7FFF705FF012808BF0546C5D003204C
:2019600003B030BDC82000FB01F044F6D35200F55F20C1F2620200F66C60A2FB00414FF624
:2019800018448909CFF6FF7404FB01000004A2FB004040F2401289B28009C2F200021882A8
:2019A000D981118494E70191FFF7BCFE0199084687E7FFF7D5FE0128D1D181E740F258039C
:2019C00004EBC202C2F200031A60BCE770B50C4682B069B1102800F28380DFE800F0101EAB
:2019E000818181816F783E8181818163666A0C00022002B070BD0E2323600020F9E701F0D5
:201A000041F838B140F2F803C2F200035888851E6842684120600020EBE740F22813C2F257
:201A200000031A8AD9894FF47A7303FB01F103FB02F3A1F55F2103F57F43A1F66C61FF3324
:201A400048F21F5201EB1343C5F2EB12A2FB0312C2F3871222600020CBE701F013F800286D
:201A600040D040F2F803C2F200035B88022B08BF002637D1002240F2034301A869460192E8
:201A8000ADF8043001F006F801280CBF9DF902506FF07F0566BB256015F1800F0CBF032096
:201AA0000020A6E700202060A3E72023236000209FE76FF00903236000209AE740F25803C7
:201AC000C2F200031B6800201B68236091E740F2FB13C2F2000393F900300020236088E769
:201AE000012086E7FFF73CFE012804D10646C1E7FFF718FECFE76FF07F032360032078E78E
:201B000070B582B0044600F0BDFF80B340F2F803C2F200035B88022B08BF002627D1221D2D
:201B2000A01C41F6184340F26814C2F2000392B2C2F2000480B2110A2082E36159701A7070
:201B4000FFF77AFD0020014601F0DAF9204601A900F0A0FF0125C0B9002001F0E7F900239B
:201B60006380FFF7D9FC284656B902B070BDFFF7F7FD012808BF0646D1D0012002B070BD94
:201B8000FFF7D0FD284602B070BD00F027FB638803F4406333B900F0EFFC638803F4406352
:201BA000002BF8D06588ADB2B5F5505518BF0125D2E700BF10B5B32994BF0A46B4220C46B6
:201BC0000146044805F050FA2046BDE81040FFF797BF00BF1A1C002030B583B001F00AFA6A
:201BE000012825D000F04EFF20B340F26813C2F200035B88022B18BF002528D0802403E0C8
:201C00009DF80640630607D10120C0F2034001A900F040FF0128F3D0B5B940F2FB13C2F26B
:201C2000000393F9000064B2A042D4BF0020012003B030BDFFF794FD012808BF0546DDD03A
:201C4000FFF770FD0120F3E7FFF76CFDE5E70120EEE700BF08B500F015FF70B140F2F80337
:201C6000C2F200035B88022B06D1FFF7B5FF10F1FF3018BF012008BD002008BD40F24400D4
:201C80002DE9F84FC2F2000000F0D2FD02F092F8012803D000242046BDE8F88F41F6D044FB
:201CA000C2F2000441F65C5501F0C0F8C2F20005204600218C224FF0000A05F04BFA022741
:201CC00000218C22D146284605F044FA67F3830A67F383094FF0840841F6144E41F60C43C6
:201CE00040F2F80041F6004140F2401640F22812C2F20003C2F200004FF4667CC2F2000208
:201D0000C2F2000EC2F2000125602C6084F805A0A4F806800027C2F200064FF4004B85F80C
:201D20000590A5F80680CEF8004083E890008362C162A6F820C0A2F80EC0A2F810B0FFF7AC
:201D40000FFD01280446A5D147F21C30C0F2000001F0FEF840F270003946C2F2000001F0AA
:201D6000CBFD98E710B54FF4DC74C1F20004236804205B699847236804205B6B984701283E
:201D8000F9D110BDF8B540F20021C2F2000100220023C1E900234FF4DC73C1F200031B681A
:201DA00004205B6B9847012801D0FFF7DBFF4FF4DC73C1F200031B680020DB69984742F24E
:201DC0002803C6F20803012142F228021960C4F2080213689B07FCD50C23C4F20103196804
:201DE0004FF4E47221F4807121F001011960C1F2000213680024C4F201044FF404511B688E
:201E00002046C0F20041984704233C2108221F46C4F201013126C4F2010240F22125C4F281
:201E20002433012027600E6015601860F8BD00BF10B442F2080342F20C04C4F20903C4F215
:201E400009041968226818688142FAD1C90140F2002001EB5262C2F200000023C0E90023FD
:201E60005DF8044B03C8704710B542F2080342F20C04C4F20903C4F20904196822681868E4
:201E80008142FAD1C90140F2002001EB52620023C2F20000C0E9002301F09CFB00B910BD47
:201EA000BDE8104001F086BB10B502F019F842F20803C4F209031C6808B902F015F8204688
:201EC00010BD00BF38B54FF4DC73C1F200031B6804465B6B04209847012801D0FFF742FF7A
:201EE0004FF4DC72C1F20002126842F25403C4F208031D680020D369984742F22803C6F2FF
:201F00000803012142F2280205F001051960C4F2080213689B07FCD52C22C4F201020C23DE
:201F20001460C4F2010319681A4641F4807119601368D805FCD405B138BD4FF4DC73C1F2DB
:201F400000031B6828461B6A984742F22803C6F20803012142F228021960C4F208021368D3
:201F60009907FCD538BD00BF704700BF0146012000F058B801F00ABF2DE9F04101F0B0FFBD
:201F8000002642F204034FF48032C4F2090301240027C4F224364FF480714FF4C275376088
:201FA000C1F200051C6019601A602B6880461B683846232198472B6820461B6824219847DD
:201FC0002B6802201B68252198474FF40053C4F20903196842F2080241F4E021C4F2090296
:201FE0001960176001F0D2FE42F21C024FF4287300F50070C4F22433C4F209024FF4D87141
:202000001060C1F200011C6034600B6814201B699847B8F1000F01D0BDE8F081BDE8F0410D
:2020200001F062BF431E042818BF012B10B42CD810F001021EBF42F21803C4F209031960CC
:2020400010F002031EBF42F21C04C4F20904216010F004001EBF42F22004C4F20904216089
:202060002AB14FF42072C4F22432012111602BB14FF42873C4F2243301221A6028B14FF491
:202080003073C4F2243301221A605DF8044B704741F6E853C2F200031868704708B5FFF785
:2020A00069FF41F6E853C2F200031860FFF7DCFEA023C4F224331B68BBB98023C4F22433D0
:2020C0001B6863BBC023C4F224331B6863B14FF4307242F20403C4F224320020C4F20903CA
:2020E0004FF480311060196008BD42F20403C4F209034FF480721A6001F048FE00F2052044
:2021000020F4FF7242F21C03C4F2090322F001021A608023C4F224331B68002BD2D04FF453
:20212000207242F20403C4F224320020C4F2090301211060196001F013FCC3E7820741BFA6
:202140004FF44063C4F2080301221A60C30700D4704701F0C9BE00BF08B501F0C1FE4FF4FF
:202160004063C4F208031A68012A03BF4EF25152C1F6CC221A60002308BF0223002814BF80
:20218000184643F0010008BD00224FF6FF714FF44063C4F20802C0F20F01C4F208030120C7
:2021A00011601860704700BF38B5FFF7D5FF00244FF6FF750C214FF48273C4F20804C0F253
:2021C0000F050122C4F20033C4F2080125600A601A60BDE83840FFF7B1BF00BF00224FF60E
:2021E000FF710C23C4F20802C0F20F01C4F20803012011601860704708B5FFF7D5FFFEE7D0
:2022000010B44FF6C7734FF6CF74C0F20103C0F2010413F8012FFF2A12D1A342F9D141F25D
:20222000F022C5F2000241B10A44002312F8014C013AC45401338B42F8DB5DF8044B704797
:202240004FF6C872C0F20102EDE700BF38B54FF4DC75C1F200052B6802205B6998472B6893
:2022600002205B6B98474FF4DC7301280446C1F20003F4D11B684FF40070DB69984742F28A
:202280002803C6F2080342F228021C60C4F2080213689B07FCD538BD2DE9F0434FF4E876E9
:2022A00083B0C1F20006FFF7D1FF33684FF480504FF4D878DB68C4F20000C1F20008984798
:2022C000D8F8003041F238045B691520C4F200049847236841F2440523F4FE6323F0020366
:2022E000C4F2000540F2F2794FF4DA772360C1F20007C5F800903B680320DB6B984742F249
:202300009003C4F2020308221A603A684FF0FF3300934FF48050176CC4F200001D21032276
:20232000B84733684FF480504FF4D8415E68C4F20000C0F2DC214FF4E1226023B04741F276
:202340003403C4F20003142141F22C021960C4F20002116841F6EC5341F010011160C2F270
:202360000003196840F2013640F2011041F23002002914BF31460146C4F200021160C5F828
:2023800000901B6843B12368152043F050032360D8F800301B69984703B0BDE8F08300BF80
:2023A00008B54FF4DC73C1F200031B6802205B6B9847012801BF42F26C03C4F20803186801
:2023C00000F0010018BF002008BD00BF38B50446FFF7E6FF30B141F21802C4F2000213681E
:2023E0001807FCD4032C06D041F6EC53C2F200031B6803B138BDFFF7D3FF38BB4FF4DC7541
:20240000C1F200052B684FF400701B6A9847032C41D042F22803C6F20803012142F2280278
:202420001960C4F2080213689907FCD5032000F021FA1D2000F01EFA4FF0FF3000F01AFA92
:20244000BDE838404FF0FF3000F014BA4FF4E873C1F200031B684FF48050DB68C4F2000050
:2024600098474FF4D873C1F200031B6815205B69984741F23803C4F20003186841F24402BE
:2024800020F4FE6020F00200C4F2000240F2F27118601160B2E72B684FF400709B6A9847BF
:2024A0002B684FF400701B6B9847B2E710B501F017FD044640F25C00C2F2000000F0B8F9E1
:2024C00041F6EC53C2F2000300221A6004B110BDBDE8104001F008BD10B50446FFF760FFA2
:2024E00008B9FFF7D9FE4FF4E873C1F200031B684FF480502146DB69C4F20000984710BD57
:2025000008B5FFF74DFF30B141F21803C4F200031868C0F3C00008BD70B5FFF797FE4FF429
:202520008253C4F200031A6841F24403C4F2000340F2F27112F0500F196018D041F21805B1
:202540004FF4E87641F6EC54C4F20005C1F20006C2F2000406E03368C4F200001B6998479D
:2025600023682BB92B684FF48050DB06F3D570BDC0B29847F6E700BF4EF61053CEF2000319
:202580001A6822F004021A6030BF704770B501F0A7FC01F073F918B1BDE8704001F0A4BCFC
:2025A00041F6F050C2F2000001F0BEFA0225044648B1636823B19847A84228BF2846C5B2A9
:2025C0002468002CF5D1FFF7D5FC4FF42073C4F224331B680446002B40F0B88000F0FAFF8A
:2025E00003460146002840F0F280012D00F0CC80022DD1D12846002B00F00581FFF712FD32
:2026000041F6F050C2F2000001F08EFA06250446002800F0AF80A368022003B1984723690E
:20262000246825EA0305002CF5D1FFF7D7FD6A0705F0060400F1A180002C40F0E98000F004
:20264000D7F9002003F0BAFC4FF48052C4F20902116841F2080321F003011160C4F209030C
:2026600019684FF4DC7241F00F011960C1F20002136839209B6998474FF482524FF48461E3
:202680000023C4F20902C4F222311360184613600B6002F0DDF8062C00F0C38042F22C050D
:2026A00042F22424C4F20804C4F209052B6823684FF4EC7623F003032360C1F20006336865
:2026C0004FF48040C4F2030003215B6898474FF4DC73C1F200031B689B6B98472B6802F043
:2026E00035FA4FF4C0730022C4F204331A6033684FF48040C4F203005B6801219847216808
:2027000044F20C0341F003010122C4F2090321601A602B6802F05AFA03F018FCFFF7A4FBEA
:20272000FFF75CFD41F6F050C2F2000001F0FCF9044628B1E36803B198472468002CF9D1B6
:2027400001F0D2FBBDE8704001F0CEBB42F21803C4F209031B681B1A022B52D4A3F28F2389
:20276000002BB8BF0123BFF639AF9D4228BF1D46EDB233E7FFF732FD062444F20C03C4F2CA
:20278000090300221A6057E7002B4ED04FF6F873CFF6FF731B1BCB4248BF04F1080106D401
:2027A00004F58034631A31EA230128BF21460220FFF738FC4EF61053CEF200031A6822F018
:2027C00004021A6030BFBDE8704001F08DBB00F00BFF0646FFF72CFB361A002E15DDFFF733
:2027E00057FC4FF67153CFF6FF731B1B00EB4621CB424FF001037FF5F8AE9D4228BF1D462B
:20280000F3E60023B1E7611EF8E600231946F4E74FF4DC73C1F200031B6820469B69984756
:202820000DE7022001F0BEFB38E704F58031BEE7014641F6F050C2F2000001F077B900BF18
:20284000014641F6F050C2F2000001F0C3B900BF41F6F05008B5C2F2000001F061F94FF464
:20286000C273C1F200031B6803201B682021984708BD00BF411C10B5044611D04FF4DA73C3
:20288000C1F200031B684FF4C0421B68002198474FF4D053A400C4F24423234300221A600E
:2028A00010BD00BF38B504460D4601F019FB0121A14042F2E00241F6F453C4F20202C2F2F8
:2028C0000003116043F8245000B138BDBDE8384001F00ABB08B5084B002103F1800243F87A
:2028E000041F9342FBD14FF4D873C1F200031B6810201B69984708BDF01D0020F8B542F2E7
:20290000E003C4F202031D6841F6F4571D60C2F200070024012606FA04F32B42E0B203D0C6
:2029200057F8243003B198470134202CF3D1F8BD10B584B00022412302A80292039303F021
:202940001BFB042001F016FB032819D00420032101F0D2FA042001F00DFB03280346F9D1C7
:202960004FF4D272C1F2000212684FF4204000935468C4F20C0000214FF040521C23A047D5
:2029800002A803F05BFB04B010BD00BF00B583B00022412368468DE80C0003F0EDFA01206C
:2029A00001F0E8FA012803D00320012101F0A4FA684603F043FB03B05DF804FB00B583B0A6
:2029C0000022412368468DE80C0003F0D5FA012001F0D0FA012805D04823C1F20003986B82
:2029E00001F0BAF9684603F029FB03B05DF804FB10B582B04123684600240193009403F01F
:202A0000BBFA0320214601F077FA012001F0B2FA28B14823C1F20003986B01F09DF9684625
:202A200003F00CFB02B010BD70B503880646C3B140F21A22934219D1822921D147F2243353
:202A4000C0F2000347F2B4651C69C0F20005FFF7C5FB02F043FA02F0EBF98021A0470028C8
:202A600008DC40F21A233380012070BD00230380032070BD80B202F0D5F92B699847E6E7DA
:202A8000012070BD42F29C13C4F20803186800F00100704738B510F0030305460C4626D096
:202AA00001F01EFA42F29C13C4F208031B68003018BF0120DB072AD54FF48053C4F204030A
:202AC00041F204011D60C4F204010B684CF25032236003E00B68013A236018D013F0FF0FC3
:202AE000F8D050B32078421E5042504138BD02881005D5D56B8001F0F3F942F29C13C4F251
:202B000008031B68003018BF0120D90702D480B1002038BD2B8813F4405FCDD003F4406373
:202B2000B3F5006F02BF41F67463C2F200031D60C2E701F0D9F9002038BD01F0D5F9D1E783
:202B40004AF22013C0F2070301E0013B0FD0428802F44062B2F5806FF7D1408800F4406032
:202B6000B0F5806CDCF1000050EB0C0070471846704700BF30B583B001F0B2F94FF4D874E2
:202B8000C1F20004236805461B6A19209847236812201B6A9847236819205B6998472368F8
:202BA0004FF4DC745B691220C1F200049847236801205B699847236801205B6B984701282D
:202BC000F9D142F22C0142F22803C4F20801C6F2080342F228020860C4F208021860136870
:202BE0009907FCD541F2100141F214030022C6F20401C6F204034FF4D8740A60C1F2000488
:202C00001A60236819201B699847236812201B6998477DB10023C6F20403072201201A601F
:202C200001A9C0F20640FFF735FF431E5842584103B030BD01F058F9ECE700BF30B541F6A4
:202C40007C63C2F2000387B01B680024012240F60A0501A86946019404940593029403944E
:202C6000ADF804508DF81120FFF714FF012804BF4AF22010C0F2070004D0204607B030BDAD
:202C80000138FBD0BDF8063003F44063B3F5806FF6D1BDF8060000F44060B0F580646042D3
:202CA000604107B030BD00BF10B586B00023012240F6090401A869460193049302930393DE
:202CC0000593ADF804408DF81120FFF7E3FE012806BF4AF22010C0F20700C0B203D006B0D8
:202CE00010BD0138FBD0BDF8063003F44063B3F5806FF6D1BDF8063003F44063B3F5806F04
:202D000018BF0020EBD142F68723C2F200031A780120002AE3D141F67C620599C2F200026D
:202D2000012011601870DAE730B587B001F0D8F84FF4D874C1F20004236805465B691920C2
:202D40009847236812205B69984742F29C13C4F208031B68DA0720D541F2100141F21402AA
:202D60000023C6F20401C6F204020B6040F60D04136002A8012201A90293059303930493BF
:202D8000ADF808408DF81520FFF784FE012804BF4AF22013C0F207033DD0FFF785FF42F242
:202DA0002C0142F22803C4F208010024C6F20803012042F228020C60C4F208021860136843
:202DC0009B07FCD54FF4DC74C1F20004236801209B699847236801205B6B98470228F9D162
:202DE0004FF4D874C1F20004236819201B6A9847236812201B6A9847236819201B6998471D
:202E0000236812201B6998470DB901F06DF807B030BD013BC1D0BDF80A2002F44062B2F5E7
:202E2000806FF6D1BDF80A30B7E700BF08B500F0E9FF052815D003281AD050B1012801BFEA
:202E400042F2D013C4F2080305221A6018BF002008BD42F2D013C4F2080303221A600120A5
:202E600008BD42F2D013C4F208031860012008BD42F2D013C4F2080302221A60012008BDFB
:202E8000F8B542F29C13C4F208031A680023C8F2800300280CBF1D460025D10700D4F8BD23
:202EA00001F01EF841F2180141F2140241F21003C6F20401C6F204020646C6F2040300208A
:202EC0004FF000474FF4D8740F60C1F2000415601860236819201B6A9847236812201B6A60
:202EE0009847236819201B699847236812201B69984706B1F8BDBDE8F84000F0F5BF00BF00
:202F0000002398420CBF022008200029C8F2800318BF002341F2100141F214021843C6F29F
:202F20000401C6F204020B60106070470023984241F21402C8F2800318BF0023C6F2040201
:202F40001360704741F67463C2F200031868704741F67863C2F200031860704708B542F262
:202F60009C13C4F208031B68D80704D4FFF702FE012800D008BD41F21003C6F204036FF08F
:202F800000421A6008BD00BF08B542F29C13C4F208031B68D9070AD447F2E850C0F200002C
:202FA00003F062F8FFF7E6FD012800D008BD00F097FF41F21003C6F204031A6812020ED42A
:202FC00041F21003C6F204031A6812F00A0F1CBF6FF00A021A60BDE8084000F085BF6FF40B
:202FE000000240F270001A60C2F2000000F0A6FCE6E700BF42F68823C2F200031878704700
:2030000008B500F0A3F880B208BD00BF00F038B938B54FF4DC75C1F200052B6804205B691D
:2030200098472B6804205B6B98474FF4DC7301280446C1F20003F4D11B6840F20140DB699B
:20304000984742F22803C6F2080342F228021C60C4F2080213689B07FCD538BD41F68063D8
:20306000C2F20003186800280CBF0220012070472DE9F04103880646002B4AD0B3F5847F1E
:2030800009D140F2FC13C2F200031B788B4207D00120BDE8F081002303800320BDE8F08111
:2030A00041F68067C2F200073B68B3B14FF4E673C1F200031A6848F20403C4F202035268A6
:2030C0000220D3F8008090470024221848F10003194610463B6898473C604FF4DC73C1F2FA
:2030E00000031B6840F201409B6A984742F22803C6F20803012142F228021960C4F2080218
:2031000013689907FCD540F28000C2F20000FFF797FB4FF4847333800120BDE8F08100BFF2
:2031200008B54FF4DC73C1F200031B6804205B6B9847012801BF42F23C03C4F208031868A1
:20314000C0F3400018BF002008BD00BF70B541F68063C2F200031B68D3B141F68460C2F235
:2031600000000023C15C41F68462C2F2000229B90133042BF6D10020014670BD40F2082141
:203180000024C2F2000101EBC301D45403C970BDFFF7C6FF002842D048F20803C4F2020390
:2031A0001A680123C8F2000313409BB949F6F073C4F2020301221A6018680028FCD102464E
:2031C0004FF4807101F046FD4FF42A73C4F2502301221A6000F084FE48F208020646C4F229
:2031E00002021368D807FCD54FF4E673C1F200031A6848F20403C4F20203526802201C6870
:20320000904700222346141843F1000516B12046294670BD00F068FE2046294670BDFFF7D0
:20322000F7FEB9E738B54FF42A750024C4F2502548F20C032C60C4F2020319684FF4D8723D
:2032400021F001011960C1F20002136831205B699847204622464FF4807101F0FBFC0122B1
:2032600040F2FC132A60C2F2000340F2940022461978C2F20000BDE8384000F00BBB00BFC7
:2032800010B540F2FC14C2F200042378802B00D010BD00F06FFA207040F29400C2F2000029
:2032A0000021BDE8104000F027BB00BF10B50446006830B1002100F01FFB54F8040F00285D
:2032C000F8D110BDF8B5038806461546EBB14A2B17D1882946D141F68860C2F2000000F0F5
:2032E00023FC044648B1031D9D4202D126E09D4224D02468231D002CF9D14A2333800120BE
:20330000F8BD002303800320F8BD41F68860C2F2000000F009FC044630B1201DA16800F051
:203320004FF92468002CF8D142F68923C2F2000301221A704A2333800120F8BD41F6886067
:20334000C2F20000214600F045FC41F694656269A369C2F200052F682A600BB1E06998475C
:203360002F60CAE70120F8BD10B542F6892341F688600024C2F20003C2F200001C7000F064
:20338000CFFB40F2A4002146C2F20000BDE8104000F0B2BA70B542F68924C2F20004049DBE
:2033A000267882610446C36145614EB9A16041F688602146C2F20000BDE8704000F0B6BB80
:2033C00041F69465C2F200052E6840F2A403C2F2000304302B6000F0F3F82E60E7E700BF29
:2033E00010B541F69464C2F20004246882B00094FFF7D0FF02B010BD10B542F68923C2F22E
:2034000000031B78044653B9C360036141F688602146C2F20000BDE8104000F0DBBB043050
:2034200000F0EEF8F2E700BF704700BF10B541F68C64C2F200042368CBB1FEF7F9FC236888
:2034400059681A689B680A44121A4BB193E812009B682144091A8A4228BF0A46002BF5D1A4
:2034600041F690630244C2F200031A6010BD41F69062C2F20002136010BD00BF2DE9F041B9
:20348000038805467BB1592B08D1872915D0822926D059232B800120BDE8F0810023038093
:2034A0000320BDE8F08141F68C62C2F20002136059232B800120BDE8F08141F68C67C2F249
:2034C00000073B68002BE4D0D9688A4203D02BE0D9688A4227D19B68002BF9D13B60D8E721
:2034E00041F68C67C2F200074FF000083C68002CCFD0002604E0A3682646002BC9D01C468A
:20350000204600F065FA0028F5D0E0688821224600F0C0F9034640F2B400C2F2000073B100
:2035200000F00CFAE7E73B6099680029B1D0C86882420BBF89680B4699608968F5E7E36078
:20354000A3682EB1B360C4F80880FFF76FFFCDE73B60F8E710B5044640F2B400C2F20000EF
:2035600000F0ECF941F68C62E368C2F20002116853B149B18C4218BF0B4602D110E09C4242
:203580000ED09B68002BFAD141F69463C2F200031B68A160E3601460BDE81040FFF746BF44
:2035A00041F69463C2F200031B68E360BDE81040FFF73CBF40F2B400C2F2000000F0BEB979
:2035C00010B5044600F0FCF92046BDE81040FFF7C1BF00BF41F68C63C2F2000318680030DA
:2035E00018BF0120704700BF41F68C63C2F20003186820B141F69063C2F200031868704717
:2036000010B541F68C63C2F200031A680446904217D04AB1936883420AD02BB19A68A2422C
:2036200007D01346002BF9D10023A360E36010BD1346A2689A60FFF7F9FE0023A360E3607C
:2036400010BD82681A60FFF7F1FEEDE72DE9F84341F69868C2F20008D8F8004041F69466FB
:20366000221CC2F2000618BF0122844218BF002C054689463768234604D01B689D4218BF60
:20368000002BFAD163B3AB7BE3B10023AB736AB1A54220464FF087012A4604D0A37BDB07B0
:2036A00001D500F029F82468002CF1D1AB683BB14D4505D0356005F10C0083210022984707
:2036C000D8F80040A54212D04CB12368AB4209D02BB11A68AA4206D01346002BF9D13760BE
:2036E000BDE8F88323462A681A603760F8E72B683760C8F80030F3E770B5856804460E461B
:203700008DB141F69463C2F200030220A0731C6004F10C00A8470238012805D9832E1CBF18
:203720000123A37300D070BD20462146BDE87040FFF78CBF70B541F69863C2F200031C685D
:2037400042F68C23C2F2000300261E7084B1012501E0246864B1E37B002BFAD0A573E67376
:20376000204682210022FFF7C7FF2468002CF2D170BD00BF42F68D23C2F200031878421C6E
:203780001A70704770B442F68B2041F6986141F69462002342F68D2542F68A24C2F20000DD
:2037A000C2F20001C2F20002C2F200058A26C2F2000403700B6013602E70237070BC704718
:2037C0002DE9F04142F68C24C2F2000423780BB1FFF7B0FF42F68B25C2F20005287818B3FA
:2037E00042F68A22C2F20002117841F69C6301EB410C4FEA8C0CC2F2000303EB0C07013875
:203800000131BE68C0B201F01F012870117013F80C807F68B6B1B8F1810F04BF0123B37389
:2038200006D0B37BDA0703D423781844BDE8F081304641463A46FFF75FFF28782378184457
:20384000BDE8F08141F69863C2F200031E6836B9EAE7B37BD9070AD43668002EEDD0237813
:20386000002BF6D0FFF766FFB37BD907F4D5304641463A46FFF740FFEEE700BF42F68C22F9
:2038800042F68B23C2F20003C2F200021278187810447047F0B442F68B23C2F200031D78DA
:2038A000202D08BF012315D042F68A24C2F20004277841F69C642F4407F01F0707EB4707A7
:2038C000BF00C2F20004E6190135E1551D7072600023B0601846F0BC704700BF38B5837B09
:2038E00041F69464C2F20004DB07256801D5FFF703FF256038BD00BF70B441F69865C2F25F
:2039000000052E680446864218BF002E334604D01B689C4218BF002BFAD1A3420BD0012099
:2039200000232660A073A3810A4620462C60812170BCFFF7D3BF70BC704700BF60B1837B5E
:20394000013BDBB2012B9FBF42F68C230122C2F200031A7098BFC273704700BFFEF704BB13
:2039600010B542F21C04C2F20004236863B1184600225B68816822609847236823B118686B
:20398000BDE81040FEF7F2BA10BD00BF10B541600446FEF789FA206010BD00BF10B50446C2
:2039A000FEF782FA616822684FF6FE730A44801AC7F6FF7398428CBF0020012010BD00BF84
:2039C00010B541600446FEF733FA206010BD00BF10B50446FEF72CFA94E80C00C2F10102A1
:2039E000104483422CBF0020012010BDF8B504880546672C0ED0792C04D064B3002303808A
:203A00000320F8BD852933D142F22814C2F200040023236042F2281442F2A806C2F2000444
:203A2000C2F2000607E00A2824D022687E2ADEBF511CB054196042F2A000C2F2000000F08E
:203A4000FFF842F22813421CC2F20003EBD167232B800120F8BDFFF78DFE42F6413242F2C4
:203A60002813C2F20002C2F2000310701C60D1E70120F8BD42F22814C2F20004276842F229
:203A8000A80342F64131C2F200030026C2F200011A4607F1010E09783046DE55C4F800E012
:203AA000FFF7F8FE41F69463C2F20003324618688521FFF7EFFE0028AAD179232B800120A9
:203AC000F8BD00BF08B542F2A00042F22001C2F20000C2F20001802200F0AAF8BDE8084002
:203AE00040F2C400C2F200000021FFF705BF00BF0029034611DD084413F8011B4A4052BA19
:203B000002F47F4182EA011292B282EA123202F47F41834282EA5112EED11046704700BFA7
:203B200000230360704700BF0068704710B404685CB1A14225D023680BB906E013469942EC
:203B400010D01A681C46002AF8D100230B6002680AB911E01A461368002BFBD111605DF86A
:203B6000044B704764B10A68226000221A6000230B600268002AEED101605DF8044B7047FD
:203B80000C46226823460260EFE700BF30B4056865B1A94219D02B6843B12C4600E013467C
:203BA000994207D01A681C46002AF8D10D60016030BC704744B10A68226000221A60056819
:203BC0000D60016030BC70470D462A682B460260F3E700BF10B404685CB18C4215D02368A8
:203BE0000BB906E01346994206D01A681C46002AF8D15DF8044B704734B11A6822600022D4
:203C00001A605DF8044B70470C46226823460260F5E700BF03682BB100201B680130002B47
:203C2000FBD170471846704700B10068704700BF0023013A0160027143718371704700BF0D
:203C400010B40346827940791979801A08421FBF1868541C2140805C14BF99714FF0FF30D7
:203C60005DF8044B704700BF08B543695B6803B1984708BD10B5044682B01A2001F0C2F97F
:203C8000014601A801F004F863691B6813B1204601A9984702B010BD70B5144647F27C6230
:203CA0000646C0F200020D4602F054FA47F2786174612846C0F20001BDE8704000F040B82C
:203CC00002F058BA10B542F600310446C2F200011A2001F08BF92046BDE8104002F04CBAB1
:203CE00042F22C10C2F20000FFF71ABF034642F22C109980C2F200001946FFF717BF00BF61
:203D0000014642F22C10C2F20000FFF763BF00BF10B5044642F22C10C2F20000FFF704FF35
:203D200050B18388A34203D109E08388A34205D0FFF77AFF0028F8D1002010BD10BD10BD29
:203D400038B50D46FFF7E4FF044620B18560284602F044FA207338BD70B5064600F0C0F80B
:203D60004FF400420546C4F20C0213684FF40044C4F20C04002BF8D0B0470123236005B1A0
:203D800070BDBDE8704000F0AFB800BF10B442F2080342F20C04C4F20903C4F209041A683D
:203DA000206819688A42FAD1120442EA10405DF8044B704741F21832C5F2000213684BF684
:203DC0009A11C3F30F338B4213D04BF6BE12934208BF01200BD04BF64132934208BF032074
:203DE00005D04BF6203083420CBF0220FF2040B270471068000F0B280CBF0420002040B228
:203E0000704700BF10B541F29423C5F200031C68FFF7D0FF0128C4F3033409D1082C08BF8E
:203E2000002003D00F2C0CBF0120FF2040B210BDFF20FBE738B541F218324FF48553C5F24D
:203E40000003C5F2000212681C68150FE4B27F2C88BF0024FFF7AEFF04280FD8DFE800F06B
:203E60001108030304004DB90A34E0B240B238BDF5B1022D04BF1434E0B2F7D0FF2040B218
:203E800038BD013D072DF9D801A353F825F000BFB13E00007D3E0000BF3E00007D3E0000C5
:203EA0007D3E00007D3E0000C33E0000B73E00000A2040B238BD04F11600C0B2D6E7142017
:203EC000D4E71520D2E700BF08B5FFF773FF012800D0FEE7FFF7AEFF1328FADD08BD00BF3E
:203EE000EFF3108072B67047EFF3108062B6704701387FF4FDAF704770B50D46C10782B0AF
:203F0000044626D4A20713D463070FD54FF4D273C1F200031B68ADB24FF4204000955C6863
:203F2000C4F20C0000210C220223A04702B070BD4FF4D273C1F200031B68AAB200924FF493
:203F400020405E68C4F20C00002102220123B047DAE74FF4D273C1F200031B68AAB20092A9
:203F600000214FF420405E68C4F20C000B460122B047C7E710B54FF4D273C1F200031B6856
:203F800004284FF42040DC684FF0340107BF4FF0C0421D234FF080521C23C4F20C00A0475A
:203FA00010BD00BF01280FD030B14FF4C073C4F2043301221A6070470023C4F209031A686E
:203FC00022F005021A6070470023C4F209031A6842F005021A60704738B541F21003C4F2DD
:203FE000090301214FF4257205461960C4F222321368002BFCD04FF4C042C4F20C02C0218F
:2040000043F6B0731160C5F200031B689B070DD443F6AC73C5F200031A6846F25623C2F319
:20402000034242F0F002C4F208031A704FF48252C4F20902002143F6B4731160C5F2000348
:204040001C68204600F0E8F82846214600F0AEFA41F21433C5F200031A6840F21D2392B2CD
:204060009A4219D841F2BC23C5F2000319681A68C1F30363C2F3034219462BBB931F012B6D
:2040800083BF023202F00F021201702246F202030A43C4F208031A70204600F021F94FF47A
:2040A000D073C1F200031B680220DB6898474FF4C04240F29443C4F20C024020C4F2602395
:2040C00001211060196038BD013BD9B2D6E700BF38B541F21C33C5F200031C68FFF7F4FE08
:2040E00040F2844046F25C0142F208230122C4F20433C4F260200025C4F20C0105600A60D9
:204100001A6000F069FB4FF4C073C4F228331B68B4F1FF3F08BF2C463BB14FF48073C4F2D3
:20412000203320461B68FFF757FF42F28C12C4F20802002142F248031160C4F20303196817
:20414000042221F07F6121F4702141F09C7141F480311960C4F209021368C3F30133012BB3
:2041600006D00C22C4F268221368002BFCD138BD136823F0407323F4403343F400311160EF
:204180001360EEE7F0B441F28833C5F20003196846F20623C4F208031B78C1F3046103F049
:2041A0001F031529C8BF2039152BC8BF203B99422FD09822C4F22032002442F22C0046F245
:2041C0006C251460C4F20900C4F208056FF0010C0126CA1A022AC8BF022202DC6245B8BF0E
:2041E0006246134403F01F0444F4F85442F22C028B420768C4F209022C804FF00104066071
:20420000E7D198231168C4F22033146011681C601368F0BC704700BF00F04073B3F1807F5D
:2042200070B504463DD041F2B823C5F200031B68C3F30463152B51DC03EB24730133152B34
:20424000C8BF41F6157108DC13F10A0FA6BF03F01F0343F4F85141F6167146F26E22C4F2E3
:20426000080200231180C4F209031B6813F0020309BF40F2944244F04064C4F22A32136006
:20428000C4F3C0610022C4F38064082381F0010184F00104C4F22032C4F2203311601C6074
:2042A00070BD46F2252546F2662146F215238022C4F20803C4F20801C4F208054FF6D80618
:2042C0002A700E801A70FFF75DFF41F28833C5F200031B68C3F30423152BADDD203BABE71B
:2042E000F8B5C0F38143012B47D0022B4CD143F6B073C5F200031B684FF400711B075FBF80
:204300004AF26803C4F20C0340221A604AF28002C4F20C0241F28C331160C5F200031A6834
:20432000C0F381504AF20813C2F3C14242F03002C4F20C0301281A7058D032D302282BD1BB
:2043400004200321FFF7D8FD41F26C33C5F200031C684BF20B014BF2700204F03F04C4F255
:204360000C01C4F20C0247F6180042F22C030C70C4F2090310801B68F8BD41F28C33C5F205
:2043800000031B689A0375D54AF24003C4F20C034FF000421A60AAE704200221FFF7ACFDFA
:2043A000D2E704200121FFF7A7FD46F23C0046F2400146F24403C4F20C0043F2BD76C4F218
:2043C0000C018625C4F20C03012440F684020660C4F28C320D601C601368002BFCD046F212
:2043E0004403C4F20C0300221A60ADE7FFF7C2FD044601460420FFF77FFD0420FFF7BAFDD4
:20440000A042FAD143F6A873C5F20003186846F23C0446F2400146F2440387B2C4F20C04F2
:20442000C0F30746C4F20C01C4F20C03012540F684022760C4F28C320E601D601368002B86
:20444000FCD046F24402C4F20C0200214FF4DA731160C1F200031B684FF060221B68000EA1
:20446000072198474AF24003C4F20C034FF480621A6065E74AF24001C4F20C014FF48044BF
:2044800046F20C020C60C4F208021168C3F3033421F08F012143C3F3004441EAC41446F20A
:2044A0000B011460C4F208010A68C3F3032422F00F02144346F20A020C60C4F2080211680B
:2044C00003F0E70321F0E7010B4313600FE700BF41F25033C5F200031B688203C3F383617E
:2044E000C3F38F230DD440F30722002A0CDA5B0805D149080ABF01234FF6FF731946013247
:20450000F5D143EA01407047FBD05B0043F00103B3F5803F4FEA410007D340F001010F292E
:2045200092BF01230F214FF6FF73013AEDD143EA0140704770B441F2783343F6B072C5F2ED
:204540000003C5F200021B681268C3F3035412F00102C3F3034105461CBF24050A0419D14F
:2045600043F6AC70C5F20000006840F30326341948BF144605D40F2CD8BF240501DD4FF4C8
:20458000700440F30330411804D40F29D4BF0A044FF4702298B2212D40EA040040EA020070
:2045A00084BF03F08043184370BC704770B5044682B00846FFF78CFF02464FF42040C4F2B3
:2045C0000C00182101F090FE41F25033C5F2000319681A684FF4D273C1F3870102F00302E9
:2045E000C1F200031B6841EA022200924FF420405D68C4F20C002C2140F2FF320023A847B5
:2046000041F27C33C5F200031A684FF42040C2F30D02C4F20C001C2101F066FE41F27433E7
:20462000C5F200031A684FF4204002F0FC32C4F20C00142101F058FE41F27033C5F20003AD
:204640001A684FF4204022F07F4222F440321021C4F20C0001F048FE2046FFF76BFF0246A2
:204660004FF42040C4F20C000C2101F03DFE212C73D941F28C32C5F2000211684AF2491328
:20468000C1F30071490041F02001C4F20C03C9B219701268C2F3407242F01002D2B21A705E
:2046A00041F29835C5F200052B684FF42040C3F30262C3F3C1619200C3F3815342EA0122AB
:2046C0001A43C4F20C00282101F00EFE2A684AF24C13C2F30152520042F06002C4F20C0395
:2046E000212C1A7063D941F28C33C5F2000319684AF24112C1F3C061C90061F07F01C4F2C6
:204700000C02C9B211701A684AF2DC13C2F34552920042F47C42C4F20C031A8041F29833B3
:20472000C5F200031B68C3F30512C3F3892112041B0342EA81529BB21A434FF42040C4F2D9
:204740000C00082101F0D0FD4AF24003C4F20C034FF480021A6002B070BD4AF24913C4F2B6
:204760000C03222111221F2C19701A7098D84FF42040C4F20C002821002201F0B5FD4AF237
:204780004C104AF241114AF2DC13C4F20C006026C4F20C018025C4F20C034FF47C444FF449
:2047A00000420670C4F23F020D701C80C5E74AF241124AF2DC13C4F20C028020C4F20C03A2
:2047C0004FF47C411F2C10701980A7D84FF40042C4F23F02B1E700BF10B40C22C4F26822F1
:2047E0001368002BFCD144F2040343F6B072C4F20303C5F200021968126821F00051520783
:2048000021F007011CD44FF48042C4F20302146841F0005141F00400A40708BF18600CD0D6
:2048200041F007011960136803F00303032BFAD144F20403C4F2030318605DF8044B70478D
:2048400041F0005141F0050119605DF8044B70472DE9F04F0023C4F209031B6883B013F0D8
:204860000207804611D042F2301341F230024FF6FD51C2F200030820C4F20902C0F2A40122
:204880009871116003B0BDE8F08F01F011FD43F6B473C5F200031C6801462517A00205F10F
:2048A000010540F1D78004F04073B3F1807F00F0E08041F2B823C5F2000341F23C121B6804
:2048C000C5F200021668C3F30463152BC6F30446C8BF203B152E00DD203E1D44152DC4BFBB
:2048E00041F61570152540F3D98046F26E22C4F2080242F22423C4F2080310801A6812F05E
:20490000030318BF0123520748BF43F00203B8F1000F01D043F0040342F23012C2F200020F
:2049200092F90700081A042826DC9079984208BF918821D142F20803C4F209031B6842F228
:2049400030101E291360C2F200000B4600F2C6801F234EF208718380C8F2A40141F2300060
:2049600041F23402C4F20900C4F2090200230160136003B0BDE8F08FB1F10F0900F1D08085
:2049800009EB09194FEA2920072840F2938041F2B830C5F2000041F2B4374FF4E0688446C6
:2049A000C5F20007CDF804803F68DCF800C013F0040BC7EB0C0C18BFCCF307285FFA8CF738
:2049C00018BF474413F0020A1CBFCCF30748474413F0010840F09780DDF804C0CCEB09093D
:2049E00009FB07F780373F0AD0F800C05FFA8CF0BBF1000F02D0CCF307294844BAF1000F96
:204A000002D0CCF307494844B8F1000F01D000EB1C60751B002D07444FF03400C8BF68438C
:204A2000E4B204FB00F04FF6FF7CB0FBF7F0604528BF604680B27F299080C8BF7F2105DC7B
:204A400011F1800FA8BFC9B200DA8021D171937101466FE7C1F13E03DB10082BA8BF0823E2
:204A60009D42B8BF1D4604F04073B3F1807F7FF420AF41F28833C5F2000341F288321B68D9
:204A8000C5F200021668C3F30423152BC6F30466C8BF203B152E7FF720AF1DE715F10A0F12
:204AA000A7BF05F01F0040F4F85041F616706FF009051AE73FF46BAF00F1010841F298378C
:204AC0004FEA8808C5F2000741F29C3C00024744C5F2000C0190C444384665E7B1F5007F6C
:204AE00028BF002227D35B08B3F5007F02F10102F9D24FF467410F3BC8F2A4011B0911435C
:204B000041EAC3012AE7DDF8048007EB1C67C8EB090909FB07F780373F0A4FF0010863E76E
:204B200041F29C30C5F2000003F0040B03F0020A03F0010858E7A1F10F031B094FF46741D0
:204B4000DB00C8F2A401194308E700BF10B541F23403C4F209031C68A4B204B910BD01F0CB
:204B6000A7FB42F23013C2F2000393F9072090421CDB9A8842F230139442C2F2000322D3CE
:204B800042F20801C4F20901086819680230411A1F2928BF1F21A41A4908CC404FF6FF715B
:204BA00022448A4228BF0A469A8010BD6FF07F029042B8BF10469A88D871944242F230136E
:204BC000C2F20003DCD29C8010BD00BF10B445F22803C4F209031B6853B343F6B472C5F241
:204BE0000002116801F04062B2F1406F20D00022C4F20902106884071AD443F6B070C5F281
:204C000000000068800713D443F6AC74C5F200041068246810F0050FC4F3035404F11C046F
:204C20004FEA041407D0A3423CBF20F0050010605DF8044B7047A342FAD90B0158BF40F081
:204C4000010000234C0158BF40F00400C4F209031860EDE730B448F21403C4F202031D6815
:204C6000120202F47062090AC0F387104FF6FF34090410432C4048F218020C4325F4806516
:204C80000843C4F202021D601C60106030BC70470B880380704700BF08B5022202F0B0F9FB
:204CA000D0F1010038BF002008BD00BF08B547F22433C0F200031B68984747F2B463C0F231
:204CC00000035B68984747F2DC63C0F200035B68984747F29063C0F200035B68984747F2A4
:204CE000FC63C0F200035B68984708BD42F67A2CC2F2000CF0B4BCF80070EFB142F6782360
:204D0000C2F200031D88A5B142F68E23C2F200031E7842F2381400233744FFB21A46C2F2C8
:204D200000040132E11892B2C85D13B2AB428855F7DB0023ACF80030F0BC70472DE9F041D8
:204D400042F68E2242F67823C2F20002C2F2000315781E888046AC19802CC8BF002414DC26
:204D600042F23817C2F200072A46394602F07CF942F67A23C2F20003197808EB05000D4439
:204D8000E9B23246394402F06FF92046BDE8F081F0B442F67A2342F68E26C2F20003C2F2DD
:204DA00000061A78377842F67823C2F200031B883A44D2B21A4492B21318802BC8BF00205E
:204DC00014DC013A92B213B2002BA2BF42F23814C2F20004251806DBE15C013A92B2E954C4
:204DE00013B2002BF8DA384430700120F0BC704710B442F67823C2F2000319888142A1BF3F
:204E000042F67A22C2F20002148880B2A1BFC0EB0101001910801980ACBF012000205DF8EA
:204E2000044B704742F67823C2F200031880704742F67A2242F68E23C2F20003C2F2000269
:204E40001878127842F238131044C2F20003C0B21844704742F23810C2F20000704700BF83
:204E600042F67823C2F200031888704742F67A2242F68E23C2F20003C2F20002187812780D
:204E800042F67823C2F2000310441B88C0B2184480B2704738B542F60C3242F60434C2F253
:204EA00000020021C2F20004116051609160D160116151619161D161116251629162D1623F
:204EC000116304F1080547F284612046C0F200010234FFF7DDFEAC42F5D138BD42F67A20A3
:204EE00042F6782142F68E230022C2F20000C2F20001C2F2000302800A801A70FFF7CABFA1
:204F0000F8B542F67A2242F68E2342F678240026C2F20003C2F20002C2F20004802934BF6C
:204F20000D468025074616801E702680FFF7B2FF42F2381039462A46C2F2000002F094F81E
:204F400025802846F8BD00BFF0B442F60C36C2F200068C46054606F1300734460FCCBC4254
:204F600028606960AA60EB60264605F11005F4D1206842F604332860C2F2000303CBCCF887
:204F80000000CCF80410F0BC704700BFF0B442F60C3604468C4600F13007C2F20006206873
:204FA0006168A268E36835460FC51034BC422E46F5D1206842F604332860DCF80000DCF8E1
:204FC0000410C2F2000303C3F0BC704742F60C33C2F2000323F810100120704742F60C3325
:204FE000C2F2000333F81000704700BF08B542F60433C2F200031A3803EB4000FFF748FEAA
:20500000012008BD42F60433C2F200031A3803EB4000704747F28461C0F200010148FFF73D
:205020003BBE00BF062B002008B547F2DC63C0F20003DB68984708BD08B547F2B463C0F2D7
:2050400000035B69984708BD08B547F2B463C0F200039B69984708BD08B547F2B463C0F2BC
:205060000003D86900B1804708BD00BF10B5044678B1006BFEF758FD024650B147F2B4636A
:20508000C0F2000345F235302146DB68C0F20000984710BD70B590F829300546032B9CBFDD
:2050A00001249C4047F2B463C0F20003DA6994BF04F1FF340F249047002808BF012004FB13
:2050C00000F42CB1FDF79CFFB0FBF4F303FB140445F26D02214605F108002B46C0F2000298
:2050E000BDE87040FEF77CB92DE9F04106461B200F46FFF787FF42F68F23C2F200031A785F
:205100000546002A4ED042F67C23C2F2000319884C1CA4B209B9022401210A201C80FFF749
:2051200055FF42F22C20C2F20000FEF7FDFC044628B917E02046FEF777FD044690B1201D40
:205140002946FFF7A9FD0028F4D0206BFEF762FD072832DD3046394604220123BDE8F04126
:2051600000F05CB940F2E000C2F2000000F0A4FF04460028EED02946201DFFF789FD002356
:2051800004F12C00206384F8283084F82930E362FEF7C6FC42F22C20C2F200002146FEF736
:2051A000C5FCD2E701221A70FDF72AFF42F67C23C2F2000318800146AAE740F2EC00C2F2DB
:2051C000000000F079FF0546A8B340F2D400C2F2000000F071FFA86030B301F0B3F8686058
:2051E000D8B10920D5F80880FFF7F8FE002836D1082388F8083088E8C0000D20FFF7EEFE6B
:2052000001282946206B30D0FEF790FC206BFEF78BFC85422CD0BDE8F08140F2D400C2F250
:205220000000A96800F066FF40F2EC002946C2F2000000F05FFF206BFEF7ECFC002889D18F
:2052400042F22C202146C2F20000FEF7C3FC40F2E0002146C2F2000000F04CFF7AE709200D
:20526000FFF7BCFE88F80800C5E7FEF78FFCCDE72046BDE8F041FFF70DBF00BF08B540F26A
:20528000EC00C2F2000000F005FF40F2D400C2F2000000F0FFFEBDE8084040F2E000C2F220
:2052A000000000F0F7BE00BF2DE9F0418B680D460646106B1446D3F800805F68FEF78AFC4F
:2052C000686801F06DF840F2D400A968C2F2000000F010FF40F2EC002946C2F2000000F0AD
:2052E00009FF206BFEF720FC80B1002384F8283084F829302046FFF7CDFE40463946324669
:2053000094F82830BDE8F04100F088B804F10800FEF772F842F22C202146C2F20000FEF7B7
:2053200059FC40F2E0002146C2F2000000F0E2FEE3E700BF2DE9F04106460F469046E0B143
:20534000006BFEF7F1FB044628B916E02046FEF76BFC044698B10A21606801F057F805460D
:205360000A20FFF73BFE8542F0D1A3682BB1032F45D8DFE807F0361A0602BDE8F081BDE845
:20538000F08196F8282000214244D2B286F8282086F829101B7A934238D93046FFF77AFEBF
:2053A0006068BDE8F04100F0F5BF96F829204244D2B2052A86F8292096F8282081BF00219D
:2053C0000132D2B286F8282088BF86F829101B7A9342E2D8214632460120BDE8F041FFF762
:2053E00063BF96F828300020984486F8288086F8290021463246BDE8F041FFF755BF38469F
:2054000021463246BDE8F041FFF74EBF214632460220BDE8F041FFF747BF00BF10B5044633
:2054200018B1084611461A46A04710BD08B547F22433C0F200031B6A984708BD00207047E8
:2054400008B547F22433C0F200031B6A984708BD70B592B0FFF704FD0446FFF7E9FC054653
:20546000FFF7FEFC032820D047F20873C0F200039B689847002818DB1B20FFF7C3FD42F692
:205480000031C2F20001FFF707FC80B101F0ECFA064600283AD02846214602AA01F01EF91E
:2054A0009DF81830012B0FD036B112B070BDFFF7B1FD0028EAD1F8E747F29063C0F20003E7
:2054C000DB68984712B070BD9DF81B30002BEBD042F6003102A8C2F20001FFF7DDFB002837
:2054E000E2D09DF8220047F224330021C0F2000302228DF806008DF80510DB688DF80420A8
:2055000001A803219847002ECFD1D5E701F0D6FAC1E700BF2DE9F047884642F6003184B075
:20552000C2F2000105461A20FFF760FD01210B20FFF74CFD47F20873C0F200035B68984747
:2055400000282EDBFFF786FC47F22434C0F20004666890F80290FFF77DFC0746FFF786FC3F
:2055600001463846B047FFF755FDA6690746B04750B101220024284641460123FFF74EFF30
:20558000204604B0BDE8F0876FB1A3680193FFF76DFC019B984758B102280CBF01220422F5
:2055A000E8E70522E6E7E36998470028E1D1ECE717B102460124DEE7FCF7DCFC8246FCF7D0
:2055C0000DFE4FF65D77CFF6FF77CAEB0707FCF7D1FCF842FBD4B04798B1D4F81CA0FCF725
:2055E000C9FC0746FCF7FAFD4FF6BF76CFF6FF76F61BFCF7BFFCF042FBD4D04750B90222F7
:20560000B8E747F22436E769C0F20006B84770B1BA46E4E7236903A8032198470328A8D187
:205620009DF80E304B45A4D100220124A3E7736998470028E3D1EBE770B506460D4612B9C9
:205640000BE054B122465068146800F0C5FE30462946FFF75FFF0028F3D170BDFFF75ABFAA
:2056600008B547F22433C0F2000310B95B6A984708BD1B6A984708BD704700BF08B547F261
:20568000FC63C0F200039B68984708BD38B505460C4614200121FFF799FC47F29063C0F206
:2056A0000003284621469B68984738BD30B547F2EC63C0F20003186842F2A00383B000246B
:2056C000C4F202034FF4801501908DF800408DF8014001A81D60042100F0EAF838B942F2D9
:2056E0009003C4F202031D60FF2003B030BD6846022100F0FDF842F29003C4F202031D606B
:2057000010B9FF2003B030BD9DF80030C22B18BFEF2B18BF2046E8D19DF80130A3F11400FA
:20572000113BC0B2DBB2012888BF012B94BF0020012080F00100D8E730B542F2A00383B0CF
:20574000C4F20203052202AC4FF4801504F8042D1D6000F0F3F82046012100F0A9F820B96A
:2057600013E09DF80730DB0716D50DF10700012100F0BEF80028F4D142F29003C4F2020361
:205780004FF480121A6003B030BD42F29003C4F202031D6003B030BD42F29003C4F20203F9
:2057A0004FF4801201201A6003B030BD10B582B0FFF7C2FF08B902B010BD42F2A003C4F25E
:2057C00002034FF48014B92202A800F8012D01211C6000F06DF842F29003C4F202031C6051
:2057E0000A24FFF763FF631E0028E4D013F0FF04F7D142F29003C4F202034FF480121A6027
:2058000002B010BD10B54FF4106082B00A21C0F23D0000F0A7F84FF4DA73C1F200031B68ED
:205820001420DB6B984742F2900142F2A003C4F202014FF48012AB2402A8C4F202030A6047
:2058400000F8014D01211A6000F032F808B1FFF773FF42F29003C4F202034FF480121A605A
:20586000FFF724FF421E5042504102B010BD00BF08B5FFF7C7FFFFF799FFBDE8084000F06A
:20588000D7B800BF08B54FF4DC73C1F200031B6802205B6B9847012801BF42F27803C4F21D
:2058A0000803186800F0010018BF002008BD00BFF0B583B006460C46FFF7E4FF074698B10C
:2058C00094B14FF4E275C1F200052B684FF080405B6816F8011B98472B684FF08040DB68FE
:2058E00001A99847013CF0D1384603B0F0BD00BFF0B583B006460C46FFF7C4FF0746D0B187
:20590000CCB14FF4E275C1F2000507E02B68DB689847019B013C06F8013B0CD02B68002179
:205920009B684FF080409847034601A94FF08040002BEBD11F46384603B0F0BD10B582B073
:20594000FFF7A0FF58B14FF4E274C1F2000423684FF080401B6901A998470028F7D102B020
:2059600010BD00BFF0B54FF4DC77C1F200073B68064685B05B6902200D4698473B680220A5
:205980005B6B98474FF4DC7301280446C1F20003F4D11B684FF48070DB69984742F22803AA
:2059A000C6F2080342F228021C60C4F2080213689B07FCD51423C4F200031868202220F0DA
:2059C0000F00C4F2000203214FF4E274186008271160C1F2000423688DE8C00000224FF44F
:2059E000D8411E68C0F2DC2113464FF08040B0474FF4DA73C1F200031B6800955D6C0922B8
:205A00004FF0FF3339464FF08040A8470423C4F200031A6842F002021A6023684FF080400C
:205A20001B6903A998470028F7D105B0F0BD00BF10B54FF4DC73C1F200031B684FF4807083
:205A40001B6A984742F22803C6F20803012142F228021960C4F2080213689907FCD54FF4D8
:205A6000DA74C1F20004236808209B6B984723684FF4005108209B699847236809209B6BA5
:205A8000984723684FF4005109209B69984723680A209B6B984723680A209B694FF4005115
:205AA000984710BD10B54FF4D673C1F200031B684FF400505B68C4F20000984710F00C0FAA
:205AC000044608D042F60403C4F2000304221A600220FEF70DFAD4F1010038BF002010BD44
:205AE00008B54FF4DC73C1F200031B6802205B6B9847012801BF42F26003C4F20803186896
:205B000000F0010018BF002008BD00BF38B54FF4DC75C1F200052B6802205B6998472B68F5
:205B200002205B6B98474FF4DC7301280446C1F20003F4D11B684FF44070DB69984742F251
:205B40002803C6F2080342F228021C60C4F2080213689B07FCD54FF4D673C1F200031B680A
:205B60004FF400504FF4D8411B68C4F20000C0F2DC210122984738BD2DE9F84F42F690230F
:205B8000C2F200031A784FF420535200C4F200031A60064642F608020078C4F2000242F68B
:205BA000040388461060C4F200031A6842F604045106C4F20004F8D4032323600220FEF788
:205BC00097F92368DA07FCD4FFF76CFFB8F1010F034631D968B3344614F8012F42F6080774
:205BE00008F1FF3AA31B42F6040BC4F200075345C4F2000B4FF002054FF001093A6008D354
:205C000045451BD214F8012F0135A31B53453A60F6D2CBF800900220FEF76AF9DBF8003013
:205C2000DB07FBD4FFF73EFF4545034604D20028E8D10020BDE8F88F002BFAD042F6040475
:205C4000C4F20004052323600220FEF751F92368DD07FCD4FFF726FF42F60402C4F200022E
:205C600013685C06FCD4BDE8F88F00BF2DE9F04F42F69027C2F200073D784FF420546D00B4
:205C8000C4F200042560057842F6080485B08346C4F2000442F60400039202938846256093
:205CA000C4F20000036842F604045A06C4F20004F8D4032323600220FEF71AF92368DB075D
:205CC000FCD4FFF7EFFEB8F1010F064637D990B35C4614F8010F42F6080308F1FF3ACBEBD0
:205CE000040642F60409C4F200035645C4F200094FF00205186009D3454522D214F8010F0E
:205D00000135CBEB040656451860F5D20122C9F8002002200193FEF7EBF8019BD9F80000B4
:205D2000C607FBD40193FFF7BDFE45450646019B05D20028E2D1002005B0BDE8F08F002E37
:205D4000F9D039784FF42053490042F60406C4F2000341F001010B22C4F200061960022018
:205D60003260FEF7C5F8029B42F60808C4F200085F1E01254FF0000A4FF00909BA451AD214
:205D8000002DD8D0336842F60404D807C4F20004F8D4FFF787FE05460028EFD0D8F8003041
:205DA000039A022002F80A30C4F80090FEF7A0F80AF1010AE2E7002DBDD042F60404C4F298
:205DC0000004052323600220FEF792F82368D907FCD4FFF767FE0028ADD042F60803C4F23F
:205DE00000031A68DDF80CA0029B9A4442F604030AF8012CC4F200031A685206FCD4012030
:205E00009AE700BF38B542F69023C2F2000304461970FFF765FE38B340F2FD13C2F20003A3
:205E20001A78A2421FD042F604004FF482620021C4F20000C4F205221C70016011601C78F4
:205E4000ACB1012C37D04FF4D673C1F200031B684FF400504FF4D8411B68C4F20000C0F212
:205E6000DC210122984738BDFFF750FED4E74FF4DA74C1F20004236806209B694FF4C041EE
:205E80009847236801209B694FF4C041984723684FF4005006210122DB6CC4F2000098470C
:205EA00023684FF0FF309B6B984723684FF0FF309B6B9847C7E74FF4DA75C1F200052B689B
:205EC0004FF0FF309B694FF4C04198472B684FF0FF309B694FF4C04198472B684FF0FF3103
:205EE0004FF400500A46DB6CC4F2000098472B6806209B6B98472B6820469B6B9847A2E7DE
:205F000010B582B002AC04F8010D134620460A460121FFF7ABFE02B010BD00BF30B442F2AC
:205F2000F825C2F200052870002332B1013311F8014BD8B29042EC54F8D3511C42F2F82044
:205F4000C9B2C2F2000030BCFFF716BE42F2183008B5C2F20000FDF7E7FD60B14FF40073D0
:205F6000C4F22233012141F214021960C4F2090213689B06FCD508BD70B50446FDF7B0FFAD
:205F80004FF4D075064642F21830C2F200002146C1F20005FDF7CAFDFFF7D8FF2B686068FB
:205FA0001B6898472B6860689B6898471128F9D106B170BDBDE87040FDF796BF38B5044686
:205FC00070B942F21830C2F20000FDF7ADFD034630B120465A681B681043002BFAD110BBE1
:205FE00041F20403C4F209031D684FF4C0744FF400710020C4F2223125F4C055C4F2223492
:206000004FF4D0721D60C1F200022060086013680120DB68984741F21402C4F2090213689E
:206020009906FCD438BD41F20403C4F209031A6822F4C05242F400621A6038BD38B5054617
:20604000FDF74EFF044642F21830C2F200002946FDF7C0FD0020FFF7B1FF04B138BDBDE850
:206060003840FDF741BF00BF38B50546002403E0285DFCF731FA0134284601F0B5F884420C
:20608000F6D30A20FCF728FAFCF73AFA0128FBD0204638BD10B5044662880021406801F0CF
:2060A00059F823886288A06802FB03F2BDE81040002101F04FB800BF30B44588BDB141686B
:2060C0000B7863B14A1C002303E01478114601322CB10133AB42F8DB002030BC70470122F0
:2060E0000A700588826803FB052030BC70472846F3E700BF70B4458882686DB18A420FD03E
:2061000006880023324402E091420AD022460133AB4202EB0604F7DBFF22104670BC70471D
:2061200000234168CA5C002AF7D0013ACA54426870BCD25C1046704783688B4208D84288B0
:20614000008800FB023399422CBF0020012070470020704770B5064614460D46FDF7C6FD1D
:2061600047F2F06134612846C0F20001BDE87040FDF7E6BDFDF7C4BD00F086B808B5036927
:206180001B6803B1984708BD08B503695B6803B1984708BDFDF7A4BD47F21C73C0F200030E
:2061A00010B51B689847044618B10120A188FEF70DFF204610BD00BF38B547F21C73C0F201
:2061C00000035B6805469847A98804460120FEF7FDFE201C18BF012038BD00BF08B547F265
:2061E0001C73C0F200039B68984708BDF8B5064642F21C30C2F200000D461746FDF794FC53
:20620000044648B1A368284603B198472046FDF70BFD04460028F5D1304629463A46BDE88B
:20622000F840FFF7B1BF00BF38B5FFF7B5FF054642F21C30C2F20000FDF776FC044640B14A
:20624000636803B198472046FDF7EEFC04460028F6D125B12846BDE83840FFF78FBF38BDC9
:2062600010B500F05FF8FEF739FE00F061FCFFF791FFBDE8104002204FF400714FF4F052C3
:206280004FF4E12300F012BD10B50446FFF794FF68B1FEF72BFD47F2DC63C0F2000346F2C5
:2062A000ED10C0F2000021469B689847012010BD45F2300141F20C3245F22803C4F20901FD
:2062C000C5F20002C4F20903086812781B6852B2A3F5407303FB02F340F31000A0EB231083
:2062E00080300012704700BF2DE9F04106460F469046FDF7F5FD4FF40045C4F20C052C68DF
:206300004FF40043C4F20C03002CF8D0012246F807801A6008B1BDE8F081BDE8F041FDF743
:20632000E3BD00BF08B540F2E810C2F20000FFF7B1FEBDE8084040F2DC10C2F20000FFF709
:20634000A9BE00BF40F2DC1038B5C2F20000FFF7B3FE0546A0B140F2E810C2F20000FFF741
:20636000ABFE0446286060B1FEF7E8FC04F1B601A4F8800004F18200FEF7E6FD284638BD3E
:2063800038BD40F2DC102946C2F20000FFF7B2FE204638BD016801F18200B631FEF7D4BD7C
:2063A00010B5044640F2DC102146C2F20000FFF7C3FE00B910BD40F2E8102168C2F20000F1
:2063C000FFF798FE40F2DC102146C2F20000BDE81040FFF78FBE00BF10B5044640F2DC10D4
:2063E0002146C2F20000FFF7A7FE00B910BD2468B4F880102046FEF783FD04F1820004F152
:20640000B601BDE81040FEF7C1BD00BF036803EB4101B1F88200704740F2F413C2F2000331
:206420001888704730B4B0B1037A022B15D00378022B1CD00379002423B9447A14F0030458
:2064400018BF0124C37913F0030318BF012301B10C6002B1136030BC7047C479457A0379A1
:2064600044B1B5B1032C17D1032D29D1FBB100231C46ECE70DB9012B08D0002BF7D1023D80
:20648000EDB2012D1AD90024E1E76BB101230024DDE74BB1032C15D0022C11D1002DF4D116
:2064A0009BB12B462C46D2E70123002CE7D00123022CE4D0032CE6D1022DE4D10124C6E74B
:2064C000022DE2D0002BF3D0D1E72B46D7E700BF00220B4630B503F8012B01334A7003F8DF
:2064E000012B03F8012B03F8012B1A70437D0D46D9075CBF01232B70037E83B0012B0446A1
:2065000023D904F11000694601AAFFF78BFF009B0BB10223EB70019B0BB102236B70E37D11
:2065200003F00303022B03D0032B0CBF08230023AB70637E03F00303022B03D0032B0CBF2D
:20654000082300232B7103B030BDC37D9A0709D0437E9B0706D0838BC28B9A4204BF0123A0
:206560000375CED000232375CBE700BF02280CBF022008200B1803E013F8012DFF2A04D15D
:206580005A1A002AF8DC012070470020704700BF00B583B06946FFF79BFF9DF800009DF8CA
:2065A00001309DF80220023018449DF8033010449DF8042018449DF805301044184403B007
:2065C0005DF804FBF0B583B007460D466946FFF77FFFBB7C797C387C03F00103FA7C1B0163
:2065E00001F0010143EAC10100F007003B7D014302F0010241EA421203F0010342EA831399
:206600002B70787D7A7EBB7DF97D00F0010040EA821003F001033A7E40EA430301F0030183
:2066200043EA810102F003029DF8003041EA0212012B6A7002BFBB7E0320AB709DF80130AC
:2066400018BF0220022B34D09DF802C0BCF1000F12D000EB0C01C9B207EB0C03024600E07F
:206660002246541C13F8016CE4B28C42AE5403F1FF33F5D16044C0B29DF80330022B22D07B
:206680009DF804C0BCF1000F11D00CF1080100EB0C063944F6B2034600E013465A1C11F8DB
:2066A000014DD2B2B242EC54F7D16044C0B203B0F0BDBA8B431C2A54BA8BDBB2120A023054
:2066C000EA54C0B2C0E7FA8B431C2A54FA8BDBB2120A0230EA54C0B2D2E700BF2DE9F0472C
:2066E0000129064686B00F461446D8BF002068DD3278737802F0070AC3F38100C3F30111AC
:20670000C2F3C009C2F30018C2F3401C03F00105C2F38012C3F3400E9B098DF815308DF8E6
:2067200010208DF814108DF80CA08DF80D908DF80E808DF80FC08DF811508DF812E08DF8E4
:20674000130003AB03CB1A88206122836161002D3AD0B51C03A801A902AAFFF763FE9DF82B
:206760001380B8F1000F43D0029B002B33D06A7815F8023B03EB0223A383B8F1020F58D0A9
:20678000B8F1030F40D09DF81580B8F1000F24D0019BEBB1697815F8023B029A03EB012347
:2067A0009BB2E38372B3B8F1020F4FD0B8F1030F34D0AE1BBB1BA563E363B742ACBF3046A2
:2067C000002006B0BDE8F087B378F51CA376C1E7A38BE383E7E7A383CFE747F28461C0F2BC
:2067E000000104F10800FEF753FAA4F81E80E0E747F28461C0F200012046FEF749FAA4F84D
:206800001C80C0E7A383CEE708352A46002312F8011DE1540133082BF9D1B4E722460723CF
:20682000E95C013B581C117202F10102F8D10835BFE747F28461C0F200012046FEF728FAF0
:206840006B78237015F8023B63709CE747F28461C0F2000104F10800FEF71AFA6B782372D3
:2068600015F8023B6372A4E730B591B0FEF7E0FA0446FEF7F5FA6A4601462046FFF72EFFCB
:206880000446D0B3FEF7B4FAB8B314209DF81010FEF79CFB9DF817308BB1BDF81C50FFF779
:2068A000BBFD854205D0BDF81C204FF6FF739A4223D19DF817006946FFF758FE08B302A9FF
:2068C0001A20FEF793FB13209DF81210FEF77EFB9DF815300A205BB14FF6FF71FEF776FB78
:2068E0009DF81A100E20FEF771FB204611B030BD9DF81A10FEF76AFBF2E74FF0FF3011B015
:2069000030BD69461B20FEF771FBD8E730B591B00446FFF781FD4FF6FF73984200F0988003
