:020000040000FA
:2000000000500020ED000000E5000000C9000000E9000000E9000000E9000000000000001A
:20002000000000000000000000000000E9000000E900000000000000E9000000E90000001C
:200040006D450000E9000000E94B0000E90000004D3C0000B9410000E9000000E900000093
:20006000E9000000154C0000E9000000E9000000E9000000E9000000E9000000E9000000C0
:20008000E9000000E9000000E9000000E9000000E9000000E9000000E9000000E900000018
:2000A000E9000000E9000000E9000000E9000000E9000000E9000000E9000000E9000000F8
:2000C000E9000000B14E00004EF62853CEF200031A68B2F5806F03D01B689B0500D4FEE7EF
:2000E000704700BFFEE700BFFEE700BF10B506F05FFC40F2000140F22C23C2F20001C2F20F
:20010000000399420ED2CC431C4424F003044AF6C8000434C0F200000023C258CA50043317
:20012000A342FAD1064807494FF000028842B8BF40F8042BFADB01F0A9FAFFF7C5FF10BD98
:20014000300200207340002008B549F6F44240F65073C2F20003C0F20002D26A197B0120F3
:20016000904708BD2DE9F00140F6507349F6D832C2F20003C0F2000242F2050603CA1C46C1
:20018000B2F80080C0F6DC26002244F8046B0827BA264FF0050C5A60C3F8120062609A83EB
:2001A000DA831A84A3F81A80C3F816101A745A74DA7383F80CC09F735E73BDE8F00170470E
:2001C0002DE9F04F074685B000284FD0037841785A1ED2B2022A4BD940F2F024C2F2000483
:2001E000FF23237041F6785541F6E043FF22C2F200054FF0010C4FF0080EC2F20003A426F0
:200200000B20617085F800C085F801E06B602E726872A270E27022716271A271E27122723E
:200220006272A27240F60C7640F6ED63C2F20006C0F2000300220193029603920DF1100E2A
:2002400002231EE90700EC603370756002F084FA23782BB943F65473C2F2000301221A7054
:20026000002F00F0858005B0BDE8F08F0146032343F65F72C2F20002127832B940F2F02499
:20028000C2F20004FB232370ACE740F65070C2F20000827B0224013A04FA02F24FF0100811
:2002A00098FBF3F892B292FBF8F608FB162240F2F024C2F2000400255FFA88F82570002A0B
:2002C00053D0B6B203EB430E43F678750EFB08F8C2F2000543F67C72D5F800C0C2F2000202
:2002E00090F80EA092F8019092F800B043F6557EC2F2000E43F65B7043F6387241F67855BA
:2003000084F802A0617041F6E04A4FEA1C21C2F200058EF80080C2F20000C2F20002C2F23A
:20032000000A84F807C021724FEA162C012184F8099084F80AB04FF008094FF0A40B4FF078
:200340000B084FF0030E237166710370168084F806C0297085F80190C5F804A085F808B047
:2003600085F8098084F803E05CE7013EB6B2A9E741F6285040F6C1323B46C2F20000C0F2DF
:200380000002032105B0BDE8F04F05F029BB00BF2DE9F00F40F65072C2F2000292F80EB0FB
:2003A00041F64853C2F2000392F80C8092F80FC0177C4FF0030983F802B04FF0130B567C0B
:2003C0004FF06A0A43F65A7141F6404441F6E04583F8039083F804B04FF024094FF0FD0B5F
:2003E000C2F20004C2F20001C2F2000583F801A083F806904FF0900A4FF0000983F807B057
:2004000083F809804FF0010B4FF0080883F80BC01F734FF08A0C2F2783F805A05E730978C9
:200420009A461E4683F8009083F8089083F80A9083F80E9084F800B084F80180656084F8C2
:2004400008C0677208E01B7909F10109B9F1080FF37306F101060BD002EB09030029F2D196
:2004600009F10109B9F1080FF17306F10106F3D12E4B43F67871C2F200012D4AD3F800807F
:20048000D3F804C09F68D3F80C900B68DC254FF0050B20260A21CAF81780C2F804C097605D
:2004A000C2F80C908AF829508AF827B08AF828608AF82A10DDB2C3F307220BB9FF2215461E
:2004C00043F67C73C2F2000319788AF82B508AF82C205B7811B90BB9FF23194641F69852DE
:2004E000C2F200020225546015708AF82D308AF82E10C4F80CA0007841F6045340F6ED6155
:200500000128C2F20003C0F2000183E8060003BF40F2DC22C2F20002126800229A6093E81E
:200520000700BDE8F00F02F017B900BF620F00205F1D00202DE9F04740F6ED6241F6D43451
:2005400084B0C2F200041027C0F200020021144E40F6147341F6E045C2F200030294019248
:2005600003914FF0080C4FF0890E4FF00108C2F200050DEB070A4FF002091AE9070083F8E5
:20058000008083F801C05D6083F808E05F72DE6084F80090636002F0DFF804B0BDE8F08708
:2005A000620F00202DE9F04340F65076C2F200063446054654F8120FD5F80080D5F804C09B
:2005C000D5F808E0EF686168A268E36889B004ADC6F812800FC5C4F804C03046C4F808E049
:2005E000E76002F037F900283AD043F66275C2F2000500232B7040F2C42440F6ED62C2F286
:2006000000040027C0F2000241F6D04341F6E046C2F2000301924FF0010E029403974FF04D
:20062000880C01AA4FF00808C2F20006DD6083F801805E6083F808C083F800E083F809E079
:200640004FF0020907CA636084F8009002F084F843F66373C2F200031F7009B0BDE8F0831C
:2006600004AF43F662750FCFC2F20005C6F81200F72730466160A260E3602F7002F0EAF843
:20068000B9E700BF2DE9F04140F65073C2F200039B7B43F664755A1ED2B2092A41F6BC3486
:2006A00040F6ED6284B088BFFF23C2F20004C2F20005C0F2000200212B700294019203917A
:2006C00004AF40F2FC2341F6E046C2F200034FF0080C4FF0A20E17E90700C2F200060127D7
:2006E0004FF00208DD6083F801C05E6083F808E01F705F7284F80080636002F02DF804B02D
:20070000BDE8F0812DE9F04340F65074C2F20004037885B02046A67BA37302F09BF868B1DD
:2007200094F80EE0AEF10603DBB2042B5AD843F65975C2F2000500232B7013E0A37B063BD9
:20074000DBB2042B4ED843F65975C2F20005F7232B7040F65070C2F20000A67302F07AF81B
:2007600094F80EE040F2E02341F6E04040F2582240F6ED61C2F20003C2F2000201274FF06F
:200780000809C2F200004FF0A1084FF0020CC0F2000100247645DD6083F80190586083F851
:2007A00008801F705F725360029282F800C00191039409D043F65F7243F65473C2F200020E
:2007C000C2F2000314701C7004AB13E9070001F0C3FF43F66373C2F2000300221A7005B0C6
:2007E000BDE8F08343F65975C2F20005FF232B70AFE700BF2DE9F04140F65073C2F2000318
:200800001B7B43F661755A1ED2B2172A40F67C7440F6ED6284B088BFFF23C2F20004C2F242
:200820000005C0F2000200212B7002940192039104AF40F2CC2341F6E046C2F200034FF05F
:20084000080C4FF0870E17E90700C2F2000601274FF00208DD6083F801C05E6083F808E0E4
:200860001F705F7284F80080636001F075FF04B0BDE8F0812DE9F04102780121531E9940FD
:2008800042F29043C0F2FD0340F65074C2F200040B40267B86B02273002B48D143F65275F2
:2008A000C2F20005F92326732B7041F6905440F6ED62C2F20004C0F20002002141F6C433D4
:2008C00041F6E046C2F200030194009202914FF0080C4FF0860E0127C2F20006DD6083F88A
:2008E00001C05E6083F808E01F705F724FF002089DE80700636084F8008001F02DFF2B7862
:2009000063B940F24912C0F20002802104930392059106AB13E9070001F01EFF43F6637346
:20092000C2F2000300221A7006B0BDE8F081204601F090FF43F6527520B1C2F200050023F5
:200940002B70B2E7C2F20005F723204626732B7001F080FFA9E700BF2DE9F04340F65073F5
:2009600041F6205440F6ED6285B0C2F20004C2F20003C0F20002002193F80D90029401927D
:20098000039104AF43F64C7541F6943341F6E046C2F20003C2F200054FF08C0C17E907006D
:2009A0004FF008080127C2F200064FF0020EDD6083F801805E6083F808C01F705F7285F8A0
:2009C0000090636084F800E001F0C6FE05B0BDE8F08300BF03F0E8B92DE9F04F43F6507441
:2009E000C2F20004217883B0002900F0898049F6CC43C0F200035D680620A847804600208E
:200A0000A84781460320A84743F64476C2F20006338841F6A055C2F200054FEA194B43F6EB
:200A2000427740F20C3140F6847205F803B0C2F20001C2F200024FEA104E4FEA184BC2F260
:200A4000000701F803E002F803B003F1010E03F1030C4FEA192BB7F800A01FFA8CFC05F896
:200A60000EB04FEA102B023301F80EB0E2454FEA182B02F80EB005F80390A6F800C0C854F3
:200A800002F803801BD903F04DF843F64073C2F200031B884FF4803191FBF3F10D39014478
:200AA000002241F6E84040F6D9130092C0F20003C2F2000005F078FA03B0BDE8F08F002535
:200AC00043F65F7C43F6517E41F6285040F2C112C2F2000CC2F2000E4FF0010829462B469C
:200AE000C2F20000C0F200028CF800808EF80050358004F075FF3D80257003B0BDE8F08F6E
:200B000040F65073C2F200039F7B4FF0010C0CFA07F743F64076BFB243F6427541F62850BC
:200B200040F6D912C2F2000607EB4708C2F200050B46C2F20000C0F2000284F800C0378034
:200B4000A5F8008003B0BDE8F04F04F049BF00BF034640F2602070B5C2F200000E461546A3
:200B600064211A4601F03CFC80B1002415B90FE0AC420DD240F2602006EBC401C2F200006C
:200B800001F0E6FB0134E4B20028F1D1002070BD40F26020C2F2000001F002FC0028F5D03F
:200BA00040F26020C2F2000001F0CEFB014640F26020C2F2000001F045FD002070BD00BF29
:200BC0002DE9F04F43F63C73C2F200031C888BB00193002C00F0C28043F63A75C2F20005AF
:200BE0002888039543F6557243F65B73C2F20002C2F2000392F800901A7843F63E75C2F2ED
:200C00000005B9FBF2F32988E318059341F6E0430E0AC2F2000341F6A43EC2F2000E049357
:200C20008DF81960DDF814A002260823029500EB400001258EF80960049E8DF818108EF82E
:200C40000050AF218EF8013006ADA02382458EF80810CEF80C508EF81030CEF80460214669
:200C600000F398808EF81190A1444C4543F6807580F2388141F6A05840F20C3C40F6847799
:200C8000C2F20005C2F20008C2F2000CC2F2000703260620821FD2B202322A44002308EB38
:200CA000010B1BF803A00133032B02F801A9F8D1B21C2A4400230CEB010B1BF803A0013357
:200CC000032B02F801A9F8D1821C07EB010A2A4400231AF803100133032B02F80119F8D1E9
:200CE0000334A4B2093009364C45C0B2F6B22146D0DB41F6A434019E059BC2F200042146C5
:200D00000322CEF8145002203380FFF721FFDDF80CA0029DBAF800302988328803EB4303F8
:200D2000DDF808A0013143F63C7643F63E759A42AAF80010C2F20006C2F2000534DA41F6E7
:200D4000285040F6C132C2F20000C0F200020521002304F045FE0BB0BDE8F08F43F654732B
:200D6000C2F200031D78027843F64F73C2F200031A70002D6AD040F65073C2F200039B7B44
:200D80000120984043F63A73C2F2000380B20393188027E7001B00FB02F95FFA89F9B9FBAF
:200DA000F2F3E31805935DE743F64F7CC2F2000C42F6A81340F6ED629CF80090C2F2000360
:200DC000C0F20002062140F62C7E0027C2F2000E019308930792049B09910DF1280A1AE93B
:200DE00007008EF801902F804FF00208019D4FF0010A4FF0080B4FF0A509C4F80CE063604B
:200E000084F8098084F800A084F801B084F808908EF800708CF800706C60378085F8008006
:200E200043F6587401F098FC41F6285040F6D912C2F200043B46C2F20000C0F200020A218C
:200E4000277004F0CDFD0BB0BDE8F08F41F6A43441F6E04142F6A81640F6ED62C2F20004C4
:200E60004FF0020CC2F200064FF001084FF0080EC2F20001A527C0F2000284F801E061607B
:200E8000277284F8008084F809C00995089607920DF1280A40F62C7790F80080C2F20007D7
:200EA0001AE9070043F63E7EDDF804A0C2F2000E4FF0FA09E76083F80080AAF8005087F803
:200EC000018087F80090746086F800C0AEF8005001F042FC43F65873C2F200031D700BB048
:200EE000BDE8F08FC2F2000503E700BF416802780120FFF72DBE00BF2DE9F04741F684344C
:200F0000C2F200040223012741F6E04E43F65D7641F68855C2F2000E21461A464FF0840CEF
:200F2000C2F200064FF00008C2F200054FF0080938462B70C4F804E084F808C084F801909D
:200F400027706772E66086F800806C60FFF700FEFFF708F940F65070C2F2000001F07AFC15
:200F600041F6285040F6D5124346C2F20000C0F200028021BDE8F04704F032BD2DE9F04707
:200F800041F61054C2F200040127022341F6E04E43F64E7640F67475C2F2000E21464FF0C8
:200FA0008009C2F200064FF00008C2F200051A464FF0080C38462B7084F801C0C4F804E045
:200FC0002770677284F80890E66086F800806C60FFF7BEFD41F6285040F6D51249464346E8
:200FE000C2F20000C0F20002BDE8F04704F0F8BC2DE9F04F03888DB004461646A3B140F2BC
:201000001D7293420AD144F27103C2F200031B788B4216D001200DB0BDE8F08F0023038042
:2010200003200DB0BDE8F08F42F2F550C0F2000003F07AF840F21D73012023800DB0BDE834
:20104000F08F002EE6D043F64D75C2F200052B78B6F8807041F6DC3003EB0708B8F1640FDC
:20106000C2F200003ADC184431463A465FFA88F808F0C2FC85F80080B8F10D0FDAD941F618
:20108000584543F65378C2F20005C2F20008304639462A46434601F0B5F901280646C9D19E
:2010A00043F6577BC2F2000B9BF80030002BC1D169782A788DF819108DF81820BDF818101B
:2010C00040F60102914298F800C08BF800000ED043F65C72C2F200021370ABE731463A468A
:2010E0005FFA87F808F088FC85F80080C4E741F6E040C2F20000A91C0822CDF800C008F07D
:2011000047FCDDF800C0002840F07781022643F65C73C2F20003BCF10A0F01931E706ED991
:2011200041F65842C2F2000243F65873039243F6517241F6C84A43F6567943F6637840F6F8
:201140004476C2F20003C2F200020494CDF814B0C2F2000A0292C2F20009C2F20008C2F2C8
:2011600000060A27E3461C46EA195278E85D8AF801208AF80000002A00F0CF80039BBA1C99
:201180001A4441F6C843C2F200035A602278002A40F0C980029B1A78002A40F0C48099F8A3
:2011A0000020002A40F0BF8098F80020002A40F0BA808038222818D8DFE800F08E171717B6
:2011C000A517837A6F66584D3C17171717171717171717171717171717171717172512009D
:2011E000019B1A78022A00F013819AF8012002321744FFB2BB45B7D8049CDDF814B0002333
:201200008BF8003016E7019B1A78022AEDD140F20572DAF80410C0F2000200203260716040
:20122000B0604FF0010E96E8070088F800E001F093FADAE7019B1A78022AD6D140F659128A
:20124000C0F20002002132607160B16096E8070001F082FAC9E7019B1A78022AC5D141F280
:201260006152DAF80410C0F20002D6E7019B40F29132C0F2000286E80C000021B16096E8F5
:20128000070001F069FAB0E7019B1A78022AACD140F23552C0F20002D4E7019B1A78022A03
:2012A000A3D140F2A552DAF80410C0F20002B4E7019B1A78022A98D140F2F572C0F200024C
:2012C000C0E7019B1A78022A8FD140F67502DAF80410C0F20002A0E7019B1A78022A84D130
:2012E00040F67D72C0F2000200204FF4807132607060B1604FF0010E96E8070089F800E01A
:2013000001F02AFA71E7019B1A78022A7FF46DAF40F6F962C0F20002E6E741F6C843C2F26F
:2013200000035A6032E741F65045FC22C2F200052A71049CDDF814B000F0DEFF9AF80010F1
:2013400040F62473C2F2000341F6C842A4292B605860C2F2000248D0A52901BF516843F66A
:2013600060720978C2F2000208BF11701B680121082209938DF821208DF8201003782A7918
:201380008DF82830837840F63075C2F200058B428DF829302A7009D9023BDBB2691C19440E
:2013A000FF222B4603F8012F8B42FBD10378A42B06D143F66073C2F200031B786B7003780A
:2013C000A52B02BF43F66073C2F200031B784FF0010008A94FF0020208BF6B700B95FFF7BA
:2013E000B7FB00238BF8003024E6516843F660724978C2F200021170B8E70320A91C06F022
:20140000A3FDDDF800C000287FF481AE03235FE640F28562C0F2000214E700BF08B500F12D
:201420007803DBB23C2B49F6F443C0F2000391BF0146DB6A07206FF045019CBFDB6A0720A3
:20144000984708BDF8B503880446BBB140F2047293420FD141F6F440C2F2000004F0D8FBB7
:20146000002876D00020FFF7B7FA40F2047323800120F8BD002303800320F8BD41F6E04040
:2014800040F65075C2F200000821C2F2000502F0CDFC284601F0D8F92A6842F20503C0F64C
:2014A000DC239A4204D0FEF75DFE284601F0D2F941F6E04641F6B843C2F20003C2F2000603
:2014C00096E8030040F6247283E803004AF63001C2F200020027C0F2000120481F72DA601D
:2014E00082E8880006F048F843F65A73C2F2000388BB01221A7000F08FFAF67949F6F442BA
:2015000040F2DC23C0F20002D26AC2F20003297B06F07F0601201E609047687BFFF77EFF08
:2015200001F0A0F80020014601F0E4F849F6CC43C0F200039D6801218120A84703212C20C4
:20154000A84741F6F440C2F20000802104F056FB88E70120F8BD1F70CDE700BF5A0F0020C7
:201560002DE9F043037840F6507403F17802D2B2C2F200043C2A667B85B063733DD943F662
:201580005E75C2F20005FF2366732B7042F6A01440F6ED62C2F200040027C0F2000202948F
:2015A000019203970DF1100E42F6B01341F6E046C2F200034FF08B0C1EE907004FF00808A0
:2015C0004FF0010EC2F20006DD6083F801805E6083F808C083F800E083F809E04FF00209C0
:2015E000636084F8009001F0B7F843F66373C2F200031F7005B0BDE8F083204601F02AF9E0
:2016000043F65E7540B9C2F20005F723204666732B7001F01FF9B9E7C2F200050023607BB8
:201620002B70FFF7FBFEB1E7F0B5002783B005463E463C46284600F0D9F90194019B9E42F7
:2016400006DD00BF019B01330193019B9E42F8DC284600F0D5F90194019BC6F5C876B342E9
:2016600006DA00BF019B01330193019BB342F8DB0137B7F5487F06D0B7F5C87FCCBFC7F548
:2016800048763E46D6E703B0F0BD00BF2DE9F0414FF4EC74C1F2000423684FF4804084B0C9
:2016A0005B68C4F2030001219847236801214FF480400A461B68C4F20300984704F0D6FFC9
:2016C00002F06EFF02F014FF01F02CFB02F03AFF00F082F944F20C000821C4F209010123A9
:2016E000C4F2090042F22C02C4F2090203600B6018461368FFF798FF04F0BCFF02F014FA25
:2017000002F078F904F04EFC02F016FB04F05EFB41F2342003F0C0FA02F0DCFC04F0F2FCF8
:2017200049F61840C0F2000002F04AFB04F000FF49F6144549F6104410F0040FC0F2000541
:20174000C0F200040CBFA846A04604F0F9FE012814BF2F46274604F0EBFE10F0020F0CBFB2
:201760002E46264604F0E4FE10F0080F08BF2C4649F62C403A46334600944146C0F20000F2
:2017800003F0E2FB40F2DC000021C2F2000004F0D7FB04F0E9F804F065F91020FFF744FF40
:2017A00049F66040C0F2000003F0CEFB4AF61403C0F20003186802F003FB49F66840C0F2C7
:2017C000000003F0C1FB4AF63C03C0F20003186802F0F6FA49F67040C0F200004AF660047F
:2017E00003F0B2FBC0F2000449F678402168C0F2000003F0A9FBE469A04738B1A04701467F
:2018000049F67C40C0F2000003F09EFB0A2002F0CFFA05F0BBFE02A8082102F007FB49F6F6
:20182000F4449DF80F20BDF80E109DF80E6044F23003C2F20003C0F20004198042EA06260F
:20184000E56A4AF6CD310220A84731460320A84700210120A847636B082202A90B20984783
:201860000420FFF7E1FE40F220000021C2F2000004F066FB49F60440C0F2000004F016F8BC
:2018800002F06AFA1020FFF7CFFE04F0BDFA044602F07CFA14F0FF0FF7D102F0C7FCF4E738
:2018A0002DE9F04105888046772D42D07E2D36D025B1002303800320BDE8F08104F07EFA06
:2018C00040F25C06C2F2000644F2700342F6C0143268C2F20003C2F2000418702560002AC5
:2018E00062D02B4644F22C051F46C2F20005EF5493688020002198472368013356F8232092
:201900002360002AF3D1DBB243F66571C2F200010B707723A8F800300120BDE8F08144F2B3
:201920007003C2F200031B788B4223D00120BDE8F08143F66577C2F2000742F6C01442F6DF
:20194000C4163A78C2F20004C2F2000600239342336023600ADA44F22C05C2F20005E95638
:20196000002923DB013393422360F4DB3368002BECD1CEE742F6C01444F22C0543F6657725
:2019800042F6C416C2F20004C2F20005C2F20007C2F2000623683268E85C511C00F07F000A
:2019A0003A78E8543160DDE71346ADE744F2700140F25C02C2F20001C2F20002097852F88A
:2019C0002320002004F08AFA0028E3D17E23A8F800300120BDE8F08108B501F021F943F6A7
:2019E0006673C2F2000300221A7008BD43F66673C2F200031A78024310461A7001F030B98C
:201A000043F66673C2F200031A7822EA000210461A7001F025B900BFF0B444F22802C2F237
:201A20000002167843F6B073C2F20003002E00F05B84197801291AD0751EEDB205EB4505F5
:201A40001D44184603E010F8034F012C0DD0A842F9D106EB46010136F6B2012558180824F3
:201A60005D54167044708EB11978022919D043F6B074C2F200041678002003E014F8035F83
:201A8000022D0CD00130C0B2B042F7D306EB4600022119541C180136617019781670062993
:201AA0001AD043F6B074C2F200041678002003E014F8035F062D0DD00130C0B2B042F7D3B9
:201AC00006EB46010620585401365818012419781670447010291AD043F6B074C2F200042D
:201AE0001678002003E014F8035F102D0DD00130C0B2B042F7D306EB460110205854013623
:201B00005818012419781670447011291AD043F6B074C2F200041678002003E014F8035F2D
:201B2000112D0DD00130C0B2B042F7D306EB4601112058540136581802241978167044707E
:201B400012291AD043F6B074C2F200041678002003E014F8035F122D0DD00130C0B2B0429B
:201B6000F7D306EB46011220585401365818022419781670447014291AD043F6B074C2F2B5
:201B800000041678002003E014F8035F142D0DD00130C0B2B042F7D306EB460114205854AD
:201BA00001365818022419781670447021291AD043F6B074C2F200041678002003E014F8A7
:201BC000035F212D0DD00130C0B2B042F7D306EB4601212058540136581802241978167010
:201BE0004470AF291AD043F6B074C2F200041678002003E014F8035FAF2D0DD00130C0B2FF
:201C0000B042F7D306EB4601AF205854013658180224197816704470A0291AD043F6B074AD
:201C2000C2F200041678002003E014F8035FA02D0DD00130C0B2B042F7D306EB4601A020EC
:201C4000585401365818302419781670447076291BD043F6B074C2F200041678002003E0E2
:201C600014F8035F762D0ED00130C0B2B042F7D306EB460076211954012418440136197892
:201C800016704470847077291CD043F6B074C2F200041678002003E014F8035F772D0FD0F3
:201CA0000130C0B2B042F7D306EB46007721195401361844002501241978167045708470EC
:201CC00078291CD043F6B074C2F200041678002003E014F8035F782D0FD00130C0B2B0424A
:201CE000F7D306EB4600782119540136184400250124197816704570847070291CD043F682
:201D0000B074C2F200041678002003E014F8035F702D0FD00130C0B2B042F7D306EB4600D6
:201D2000702119540136184400250124197816704570847079291BD043F6B074C2F2000466
:201D40001678002003E014F8035F792D0ED00130C0B2B042F7D306EB46007921195401243E
:201D60001844013619781670447084707A291CD043F6B074C2F200041678002003E014F8D0
:201D8000035F7A2D0FD00130C0B2B042F7D306EB46007A211954013618440025012419784F
:201DA00016704570847080291CD043F6B074C2F200041678002003E014F8035F802D0FD0BF
:201DC0000130C0B2B042F7D306EB46008021195401361844002501241978167045708470C2
:201DE00081291CD043F6B074C2F200041678002003E014F8035F812D0FD00130C0B2B04217
:201E0000F7D306EB4600812119540136184402250124197816704570847082291CD043F643
:201E2000B074C2F200041678002003E014F8035F822D0FD00130C0B2B042F7D306EB4600A3
:201E4000822119540136184400250124197816704570847084291CD043F6B074C2F2000427
:201E60001678002003E014F8035F842D0FD00130C0B2B042F7D306EB4600842119540136F4
:201E8000184400250124197816704570847085291CD043F6B074C2F200041678002003E09C
:201EA00014F8035F852D0FD00130C0B2B042F7D306EB460085211954013618440825012495
:201EC000197816704570847086291BD043F6B074C2F200041678002003E014F8035F862DE1
:201EE0000ED00130C0B2B042F7D306EB4600862119540124184401361978167044708470E3
:201F000087291CD043F6B074C2F200041678002003E014F8035F872D0FD00130C0B2B042E9
:201F2000F7D306EB4600872119540136184400250124197816704570847088291CD043F618
:201F4000B074C2F200041678002003E014F8035F882D0FD00130C0B2B042F7D306EB46007C
:201F6000882119540136184410250124197816704570847089291CD043F6B074C2F20004EB
:201F80001678002003E014F8035F892D0FD00130C0B2B042F7D306EB4600892119540136C9
:201FA0001844002510241978167045708470A1291BD043F6B074C2F200041678002003E051
:201FC00014F8035FA12D0ED00130C0B2B042F7D306EB4600A12119540124184401361978D9
:201FE000167044708470A2291CD043F6B074C2F200041678002003E014F8035FA22D0FD03A
:202000000130C0B2B042F7D306EB4600A2211954013618440025012419781670457084705D
:20202000A3291CD043F6B074C2F200041678002003E014F8035FA32D0FD00130C0B2B04290
:20204000F7D306EB4600A321195401361844002501241978167045708470A4291CD043F6BF
:20206000B074C2F200041678002003E014F8035FA42D0FD00130C0B2B042F7D306EB46003F
:20208000A42119540136184402250B241978167045708470A5291CD043F6B074C2F2000496
:2020A0001678002003E014F8035FA52D0FD00130C0B28642F7D806EB4600A5211954013695
:2020C00018440125022419781670457084708A291CD043F6B074C2F200041678002003E053
:2020E00014F8035F8A2D0FD00130C0B2B042F7D306EB46008A2119540136184400252F2423
:2021000019781670457084708B291BD043F6B074C2F200041678002003E014F8035F8B2D94
:202120000ED00130C0B2B042F7D306EB46008B21195401241844013619781670447084709B
:202140008C291CD043F6B074C2F200041678002003E014F8035F8C2D0FD00130C0B2B0429D
:20216000F7D306EB46008C211954013618440025012419781670457084708D291CD043F6CC
:20218000B074C2F200041678002003E014F8035F8D2D0FD00130C0B2B042F7D306EB460035
:2021A0008D211954013618440C25012419781670457084708E291CD043F6B074C2F20004A3
:2021C0001678002003E014F8035F8E2D0FD00130C0B2B042F7D306EB46008E21195401367D
:2021E000184400250C241978167045708470A6291CD043F6B074C2F200041678002003E00D
:2022000014F8035FA62D0FD00130C0B2B042F7D306EB4600A62119540136184402250624F0
:202220001978167045708470A8291CD043F6B074C2F200041678002003E014F8035FA82D38
:202240000FD00130C0B2B042F7D306EB4600A8211954013618440025052419781670457026
:202260008470A72924D043F6B074C2F200041678002003E014F8035FA72D17D00130C0B234
:20228000B042F7D306EB4604751C1819EDB24FF0A70C0427012643F6B07103F804C0157004
:2022A000C2F20001477086708DB10978A92919D043F6B070C2F200001578002103E010F89C
:2022C000034FA92C0ED00131C9B2A942F7D305EB450019180135A927002601241F541570E8
:2022E0004E708C70F0BC704701210820587019701170FFF7B9BB00BF70B444F22803C2F243
:2023000000031D78F5B143F6B076C2F200063378834211D0013DEDB201353246012303E083
:2023200012F8031F814208D0AB421C4603F10103F6D1002070BC7047002404EB4404A019B1
:2023400070BC70472846F5E740780230C0B2704770B543784A780D46991C11446229044669
:2023600002DC0178402901D0002070BD591C465C08447D2EF8D103321344E6542B78635488
:202380006B784370696819B102306A7807F034FB6B786278023313446370012070BD00BFA9
:2023A000F8B545780446602D02DC0378402B01D00020F8BD6E1C835D87197D2BF8D1AB1C30
:2023C000294600F8013F002203F0B2FEA15D0346020A03356155A3557A700120F8BD00BFD9
:2023E000042910B481BF022140247D23827083BF04704170C370002088BF01205DF8044BCD
:20240000704700BF2DE9F84F0F46064690469946002400F1010B00F1030A21B914E0013471
:20242000A4B2A74210D9355D402DF8D133195D7802352C44BC421EDC741914F8013C7D2B6E
:2024400005D00124A742EED8FF20BDE8F88F00225846291F03F06CFE14F8022C14F8033C9E
:2024600003EB02239842ECD1B378012B09D0AF4204D02C46D5E70020BDE8F88F0120BDE87D
:20248000F88FAC1F22464046514607F0B5FA89F80040ECE72DE9F04704880746752C1BD079
:2024A0008F2C06D0002C49D0002303800320BDE8F08785294FD142F6CC1442F6C81642F62D
:2024C000D015C2F20004C2F20006C2F20005002323603360A5F8803042F6CC1642F6DC2513
:2024E00042F6C818C2F20006C2F20005C2F200084FF0000A4FF001090BE033687E2BE85498
:20250000D9BF01332360C4F800A0C8F800907D2824D042F6D420C2F2000003F0C9FE42F655
:20252000CC1442F6DC21431CC2F20004C2F20001E3D175233B800120BDE8F08703F03EFC49
:2025400044F2710242F6CC13C2F20002C2F2000310701C60C0E70120BDE8F08742F6C81658
:20256000C2F2000633685BBBD4F8008042F6D015C2F2000542F6DC2128464246C2F20001EE
:2025800007F03AFAA5F8808044F27103C2F2000342F6D0121978C2F20002002003F09EFC04
:2025A00043F27833C2F2000318688521002203F095FC00288BD18F233B800120BDE8F0878A
:2025C000D4F8008042F6D015C2F20005C8F1800941444A46284607F00FFA42F6DC2105EBEF
:2025E00009004246C2F2000107F006FA8023A5F88030C9E710B543F66774C2F200042378D2
:2026000001464BB17D2812D040F23000C2F2000003F0B8FC012010BD42F6D420C2F2000065
:2026200003F02EFE0028EFD101232370ECE742F6D420C2F2000003F023FE0028E4D0002316
:202640002370E1E770B50E4658B149B14D1EEDB20544441E14F8010F01F052FDAC42F9D1DA
:20266000304670BD08B542F6D42042F65421C2F20000C2F20001802203F0FAFDBDE808403F
:2026800040F23000C2F20000002103F059BC00BF704700BF704700BF704700BF38B540F2BB
:2026A0004003C2F200035C6805F032F8054605F047F801462846A04738BD00BF38B540F24F
:2026C0004003C2F200031C6805F022F8054605F037F801462846A04738BD00BF08B51B20B6
:2026E00005F000F9BDE808404AF63001C0F2000104F042BF38B549F6B842054642F65C30B1
:20270000C2F20000C0F200020C46922103F0CEFE42F6783049F6C042C2F20000C0F2000204
:20272000812103F0F1FD40F240032DB1C2F200031D6054B15C6038BD42F29162C2F20003FB
:20274000C0F200021A60002CF4D142F29562C0F200025A6038BD00BF2DE9F04F85B004ABD4
:2027600003E90700DDF80480029EDDF80CA0B8F1000F0DD042F69034C2F200040025204618
:2027800003F052F938B901350F2D04F12004F6D105B0BDE8F08F204651464246334616B318
:2027A00042F6705C4FEA850BC2F2000C0BEB050906F120030CEBC9090093F3683068716846
:2027C000B2684F460FC7009B10369E42B946F4D1306871680BEB0503A9E803000CEBC3032F
:2027E00042462046514605B0BDE8F04F03F0F8B8F8B506460D46174600F0F6F8044628B16E
:20280000304639462A4600F02DF9044600F022F92046F8BD70B505460E46144600F0E4F8E3
:2028200070B12846214600F0A3F948B121463246284600F043F9044600F00CF9204670BDD2
:2028400000F008F9002070BD014624220020FFF7CFBF00BF014624220020FFF7DBBF00BF4E
:2028600010B542F2A00382B0062202A8C4F202034FF4801400F8042D01211C6005F052FE1A
:2028800042F29003C4F202031C6002B010BD00BF30B549F6C843C0F20003186842F2A003C1
:2028A00083B00024C4F202034FF4801501908DF800408DF8014001A81D60042105F032FEA2
:2028C00038B942F29003C4F202031D60FF2003B030BD6846022105F045FE42F29003C4F2C3
:2028E00002031D6010B9FF2003B030BD9DF80030C22B18BFEF2B18BF2046E8D19DF801306F
:20290000A3F11400113BC0B2DBB2012888BF012B94BF0020012080F00100D8E730B542F24B
:20292000A00383B0C4F20203052202AC4FF4801504F8042D1D6005F03BFE2046012105F004
:20294000F1FD20B913E09DF80730DB0716D50DF10700012105F006FE0028F4D142F2900350
:20296000C4F202034FF480121A6003B030BD42F29003C4F202031D6003B030BD42F2900347
:20298000C4F202034FF4801201201A6003B030BD10B582B0FFF7C2FF08B902B010BD42F24A
:2029A000A003C4F202034FF48014B92202A800F8012D01211C6005F0B5FD42F29003C4F275
:2029C00002031C600A24FFF763FF631E0028E4D013F0FF04F7D142F29003C4F202034FF400
:2029E00080121A6002B010BD10B54FF4106082B00A21C0F23D0005F0EFFD4FF4DA73C1F264
:202A000000031B681420DB6B984742F2900142F2A003C4F202014FF48012AB2402A8C4F27E
:202A200002030A6000F8014D01211A6005F07AFD08B1FFF773FF42F29003C4F202034FF4F3
:202A400080121A60FFF724FF421E5042504102B010BD00BF08B5FFF79BFFBDE8084005F061
:202A600021BE00BFF0B583B004460E461746FFF755FF08B903B0F0BD42F2A0030320210C53
:202A8000C4F20203220A4FF480158DF804008DF805108DF807408DF8062001A81D60042192
:202AA00005F040FD18B13846314605F05BFD42F29003C4F202031D6003B0F0BD2DE9F04F25
:202AC0000D4683B00446164600294BD042F2A00842F29009C4F20208C4F202094FF0020A11
:202AE0004FF480172AE0FFF7BBFEE3B2C3F580734FEA144C220A0421AB4234BF9B46AB4667
:202B000000B38DF806208DF807408DF804A08DF805C00DEB0100C8F8007005F003FD0246B2
:202B2000594630465C44CBEB050582B105F0FAFC024660B1C9F800705E449DB1FFF7EEFEA6
:202B40000028D0D10022104603B0BDE8F08F42F29003C4F202034FF480111046196003B085
:202B6000BDE8F08F0122104603B0BDE8F08F00BF2DE9F04701F6FE71040B01EB000A240343
:202B8000C4EB0A0A82B020235FEA1A3A8DF804302FD0002542F2A00742F29008A946C4F237
:202BA0000207C4F202084FF4801619E0FFF758FE220C230A042104F58054B0B18DF80630C5
:202BC0008DF805208DF807900DEB01003E6005F0A9FC4FF4801380B15545C8F8006008D065
:202BE0000135FFF79BFE0028E0D1002002B0BDE8F087012002B0BDE8F08742F29002C4F2DE
:202C00000202136002B0BDE8F08700BF08B5FFF7EBFEFFF7BDFEBDE8084005F043BD00BFC2
:202C200038B542F6C873C2F200031A68BAB901254FF4DA74C1F200041D6023680620DB6BA6
:202C4000984723682846DB6B984723680720DB6B984742F2A003C4F20203C2221A6038BDBB
:202C600043F66873C2F20003187042F2A002C30748BF42F29003C4F202024FF0C20148BFD0
:202C8000C4F20203116044BF40221A60410741BF42F29003C4F2020302221A60820741BF38
:202CA00042F29003C4F2020380221A60030707D542F29003C4F202030221802219601A6056
:202CC000C10607D542F29003C4F202034021022219601A60820607D542F29003C4F2020371
:202CE0004021802219601A60430609D542F29003C4F20203402002218022186019601A60A5
:202D0000704700BF10B54FF4DC74C1F20004236804205B699847236804205B6B984701285F
:202D2000F9D110BD10B503F0A1FC0446FFF7EAFF4FF4DC73C1F200031B684FF4A060DB692C
:202D4000984742F22803C6F20803012142F228021960C4F2080213689B07FCD500F008F9DA
:202D6000FFF754FF40F24800C2F2000001F0B0FB04B110BDBDE8104003F07CBC81380128BC
:202D80009DBF43F66973C2F2000318780020704710B582B0002302AC04F8013D00F090F82A
:202DA00001202146024600F0ABF800F0A7F89DF80700B0F1AD035842584102B010BD00BFC3
:202DC00070B5064682B076000D46144600F078F846F0010001A901226D00C0B200F090F872
:202DE00045F001000DF1050101226400C0B200F087F844F001000DF106010122C0B200F072
:202E00007FF800F07BF89DF804309DF805209DF806001B0343EA021343EA101002B070BD2E
:202E200043F66973C2F200031B7873B140B103280ED0062809D10E200F211022FFF7C0BF08
:202E4000082009210A22FFF7BBBF4FF0FF3070470B200C210D22FFF7B3BF00BF812810B543
:202E60000C4612D02C2802D1FFF792FF10B94FF0FF3010BD00F024F8E1B2582000F05EF80F
:202E800000F03CF84FF0FF3010BDFFF781FF78B100F016F800215A2000F050F800F02EF84D
:202EA00043F66973C2F2000301221A70002010BD43F66973C2F2000318704FF0FF3010BD1D
:202EC00010B54FF4DA74C1F2000423681920DB6B984723681A20DB6B984723681B209B6B46
:202EE000984723681820DB6B98474FF41060C0F23D00192105F074FC012010BD05F0DEBC4D
:202F000070B582B002AB42F2A00403F8010DC4F202044FF080750E46256018460121144629
:202F200005F010FC18B13046214605F02FFC42F29003C4F202031D6002B070BD10B542F2F3
:202F4000A00382B0C4F202034FF080748DF804008DF8051001A81C60022105F0F3FB42F22C
:202F60009003C4F2020300201C6002B010BD00BF08B5FFF7A5FFBDE8084005F09FBC00BFD6
:202F8000012070470120704708B501F0B3FB48B140F23813C2F200035888022814BF0220F9
:202FA000012008BD022008BD10B582B001F010FE044601F09FFB08B902B010BD0120C0F266
:202FC000014001A901F09EFB0128F5D1638803F44063002BF0D1638803F44063002BF5D0A7
:202FE000EAE700BF30B583B001F084FB40F23814C2F20004A8B900256580A37F40F238107C
:203000005BB2C3F5FF6307339BB2C2F2000001A9238301F077FB012818BF284608D003B0A2
:2030200030BD6388022B08BF0120E4D103B030BD00F078FD4FF6C075CFF6FF752D1A03E00C
:2030400000F070FDC54203D563889BB2022BF7D1608880B2831E58425841E0E708B5B329B9
:2030600094BF0A46B4220146024806F0C5FC002008BD00BFE62F002070B542F6D875C2F258
:2030800000052C68002603E024682B68A3420DD02379032BF8D140F29000C2F2000002F0B2
:2030A00071FF24682B680136A342F1D1304670BDF8B542F6E074C2F2000425682B79032BB0
:2030C00018BF002601D03046F8BD2E89023E002E0CDD8E4205F10A070EDDB957042089B2B8
:2030E00004F0E4FB03207F2104F0E0FB2B68002223602A713046F8BD3946324606F07CFC08
:20310000EBE700BF10B582B001F0F4FAF8B140F23814C2F2000463880120022B15D101A9A0
:20312000C0F2014001F0EEFA02E06388022B03D101F0E0FA0028F8D16088A0F550500438E0
:2031400080B201288CBF0020012002B010BD012002B010BD10B540F2780340F28014C2F27D
:203160000004C2F200031A680521237E84F82410928882B003F0F80343F00803204601A913
:203180006283237601F0BEFA012818BF002001D002B010BD204601F00BFB421E50425041B8
:2031A00002B010BD00B540F2681083B0C2F2000001A901F0A7FA012818BF002002D003B069
:2031C0005DF804FB40F26810C2F2000001F0F0FA411E4842484103B05DF804FB08B5FFF736
:2031E000B9FF012801D0002008BDFFF7DBFF0128F9D1FFF7F7FEC0B208BD00BF08B501F0E6
:203200003FFD01280BD0FFF77DFF01F0D3FB01F027FA40F23813C2F2000300225A800120DA
:2032200008BD00BF2DE9F84F01F02AFD01282AD001F0E4F901F05EFAF0B901F05BFA044622
:2032400020B3002001F062FC8B4A0027A2F18C0E734602F50C760225842459791A6001F0C5
:20326000FC0110468C3265F38301B2421F71DC80597115D00346F0E740F23813C2F200037E
:203280005B88022BD9D10120BDE8F88F01F0AAFA0128054610D001F08DFB0020BDE8F88F79
:2032A000CEF8A4E101F0C2F9FFF754FF012800F0D9800020BDE8F88F01F0FEFB40F21C4098
:2032C0004AF2E031C0F200014FF42C72C2F2001006F092FB4FF4647B40F2793840F2753CDE
:2032E000C2F2001BC2F20018C2F2001C40F2773E40F2AE3740F2AB3640F2813040F24D31BF
:203300004FF4707340F2CD524FF0020A8BF80040C2F2001E88F80050C2F200178CF800A097
:20332000C2F20016C2F20010C2F20011C2F20013C2F200124FF003094FF0040B05244FF0AC
:203340000608072541F21C0C8EF80090C4F2040C87F800B0347080F800800D701A60DCF866
:20336000003041F21C01C4F20401002BF7D049F62C59C0F2000900204FF440434CF2A06A73
:203380004A460860C2F20013C2F2001A00E00B4609EB030101F15F41A1F54041D1F8008085
:2033A000D2F804C0D2F808E0D768166955699469D06903F120015145C3F8008002F1200220
:2033C000C3F804C0C3F808E0DF601E615D619C61D861DCD14CF2806343F660104FF4815E80
:2033E00046F6137741F2116646F6543541F21C044FF4805240F20111C2F20013C0F20E4124
:20340000C1F6102E4FF0000CC4F20402C6F25330C4F20404C6F62367C1F21266C7F2000588
:203420001862C3F824E001209F62DE621D63C4F800C0116003F02CFA40F28010C2F20000F5
:2034400003F08CF921460A6841F21C03C4F20403002AF8D000221A6001F036FA01283FF401
:20346000F0AE18E7FFF79EFE01287FF422AFBDE8F84FFFF7B7BD00BF2831002070B582B0CB
:20348000072800F29480DFE800F08C04929227922A69202900F2888040F26813C2F2000399
:2034A000188ADC894FF47A7202FB04F402FB00F2A4F55F2402F57F42A4F66C64FF3248F249
:2034C0001F5004EB1242C5F2EB10A0FB0240CAB2C0F38710824275D1002002B070BD4AF2A0
:2034E0009065C0F20005AE884FF6FF70864208BFFF2209D02B46002208339C8801328442C2
:20350000D2B2F9D1013AD2B255F832304AF290649942C0F2000447DB2368994244DC0191F4
:20352000FFF742FD4FF6FF70864201997ED000230834A28801338242DBB2F9D1013BDAB252
:2035400005EBC2040023E058083B814266DD12F1FF32F8D2FFF742FE0020BEE740F22A2399
:20356000C2F20003197001F0C5F810B340F23813C2F200035B88022B08BF002519D1FFF78A
:20358000C1FD012814BF03240024FFF727FE012818BF03242046002D9FD0FFF72FFE204659
:2035A0009BE7012935D071B3022002B070BD012093E7FFF737FE012808BF0546DFD0032062
:2035C00002B070BDC82000FB01F044F6D35200F55F20C1F2620200F66C60A2FB00414FF669
:2035E00018448909CFF6FF7404FB01000004A2FB004040F2801289B28009C2F200021882EC
:20360000D9811184AFE70191FFF7F8FD0199084663E7FFF707FE0128D1D15DE740F27803BF
:2036200005EBC202C2F200031A6093E7FF2287E72DE9F0430C4683B069B1102800F2A88062
:20364000DFE800F01523A6A6A6A6949D43A6A6A6A673767A0D00022003B0BDE8F0834AF23E
:203660009063C0F200031B6800202360F4E701F041F838B140F23813C2F200035888851ED7
:203680006842684120600020E6E740F26813C2F200031A8AD9894FF47A7303FB01F103FBE2
:2036A00002F3A1F55F2103F57F43A1F66C61FF3348F21F5201EB1343C5F2EB12A2FB03125C
:2036C000C2F3871222600020C6E701F013F8002860D040F23813C2F200035B88022B08BFEE
:2036E0004FF0000956D1092680254FF0000840F2034701A86946CDF80480ADF8047001F019
:2037000001F8731E30B19DF80250680602D113F0FF06EED1B9F1000F42D168B2206010F1E8
:20372000800F0CBF0320002096E70020206093E72023236000208FE74AF29065C0F2000511
:20374000AB884FF6FF70834208BFFF2209D02B4600220833998801328142D2B2F9D1013A8E
:20376000D2B255F832300020236075E740F27803C2F200031B6800201B6823606CE740F285
:203780002A23C2F2000393F900300020236063E7012061E7FFF746FD012804D18146A2E78C
:2037A000FFF72CFDB9E76FF07F032360032053E770B582B0044600F09DFF80B340F23813AC
:2037C000C2F200035B88022B08BF002627D1221DA01C42F6E47340F2A814C2F2000392B2CA
:2037E000C2F2000480B2110A2082E36159701A70FFF788FC0020014601F0C8F9204601A9E8
:2038000000F080FF0125C0B9002001F0D5F900236380FFF7E7FB284656B902B070BDFFF78B
:2038200001FD012808BF0646D1D0012002B070BDFFF7E4FC284602B070BD00F0A7FA63880E
:2038400003F4406333B900F0E7FC638803F44063002BF8D06588ADB2B5F5505518BF0125FF
:20386000D2E700BF10B5B32994BF0A46B4220C460146044806F0C0F82046BDE81040FFF7D2
:2038800097BF00BFE62F002030B583B001F0F8F9012825D000F02EFF20B340F2A813C2F235
:2038A00000035B88022B18BF002528D0802403E09DF80640630607D10120C0F2034001A99E
:2038C00000F020FF0128F3D0B5B940F22A23C2F2000393F9000064B2A042D4BF00200120F1
:2038E00003B030BDFFF79EFC012808BF0546DDD0FFF784FC0120F3E7FFF780FCE5E70120E0
:20390000EEE700BF08B500F0F5FE70B140F23813C2F200035B88022B06D1FFF7B5FF10F18C
:20392000FF3018BF012008BD002008BD40F26400F8B5C2F2000000F0CBFD02F001FE0128ED
:2039400002D000242046F8BD43F29C04C2F20004204600214FF40C7206F0C4F842F6CC7655
:2039600042F6E07142F6D87340F2381040F2801540F26812C2F20003C2F2000040F2953EDE
:20398000C2F20002C2F2000141F6991C0027C2F20006C2F200050C6083E890008362C662C2
:2039A000A5F820E0A2F80EE0A2F810C0FFF73AFC01280446C5D149F6EC40C0F2000001F035
:2039C0000DF940F290003946C2F2000002F0B8FAB8E700BF10B54FF4DC74C1F20004236850
:2039E00004205B699847236804205B6B98470128F9D110BDF8B540F23021C2F200010022E5
:203A00000023C1E900234FF4DC73C1F200031B6804205B6B9847012801D0FFF7DBFF4FF415
:203A2000DC73C1F200031B680020DB69984742F22803C6F20803012142F228021960C4F2EA
:203A4000080213689B07FCD50C23C4F2010319684FF4E47221F4807121F001011960C1F226
:203A6000000213680024C4F201044FF404511B682046C0F20041984704233C2108221F4684
:203A8000C4F201013126C4F2010240F22125C4F22433012027600E6015601860F8BD00BF62
:203AA00010B442F2080342F20C04C4F20903C4F209041968226818688142FAD1C90140F225
:203AC000302001EB5262C2F200000023C0E900235DF8044B03C8704710B542F2080342F2F5
:203AE0000C04C4F20903C4F209041968226818688142FAD1C90140F2302001EB5262002309
:203B0000C2F20000C0E9002302F088F800B910BDBDE8104002F06CB8704700BF0146012044
:203B200000F058B802F0F0BC2DE9F04102F09EFD002642F204034FF48032C4F209030124D6
:203B40000027C4F224364FF480714FF4C2753760C1F200051C6019601A602B6880461B68E6
:203B60003846232198472B6820461B68242198472B6802201B68252198474FF40053C4F25B
:203B80000903196842F2080241F4E021C4F209021960176002F0B8FC42F21C024FF428739D
:203BA00000F50070C4F22433C4F209024FF4D8711060C1F200011C6034600B6814201B69E7
:203BC0009847B8F1000F01D0BDE8F081BDE8F04102F050BD431E042818BF012B10B42CD83A
:203BE00010F001021EBF42F21803C4F20903196010F002031EBF42F21C04C4F209042160E1
:203C000010F004001EBF42F22004C4F2090421602AB14FF42072C4F22432012111602BB1FC
:203C20004FF42873C4F2243301221A6028B14FF43073C4F2243301221A605DF8044B704738
:203C400043F2CC23C2F200031868704708B5FFF769FF43F2CC23C2F200031860FFF73CFFB3
:203C6000A023C4F224331B68BBB98023C4F224331B6863BBC023C4F224331B6863B14FF462
:203C8000307242F20403C4F224320020C4F209034FF480311060196008BD42F20403C4F2C6
:203CA00009034FF480721A6002F02EFC00F2052020F4FF7242F21C03C4F2090322F0010267
:203CC0001A608023C4F224331B68002BD2D04FF4207242F20403C4F224320020C4F209036C
:203CE00001211060196002F075F9C3E7820741BF4FF44063C4F2080301221A60C30700D444
:203D0000704702F0B7BC00BF08B502F0AFFC4FF44063C4F208031A68012A03BF4EF2515275
:203D2000C1F6CC221A60002308BF0223002814BF184643F0010008BD00224FF6FF714FF4E9
:203D40004063C4F20802C0F20F01C4F20803012011601860704700BF38B5FFF7D5FF002422
:203D60004FF6FF750C214FF48273C4F20804C0F20F050122C4F20033C4F2080125600A60E3
:203D80001A60BDE83840FFF7B1BF00BF00224FF6FF710C23C4F20802C0F20F01C4F208031E
:203DA000012011601860704708B5FFF7D5FFFEE710B50446C0B200F0A3F9204610BD00BFD7
:203DC00038B50546002403E0285D00F099F90134284605F0D1FE8442F6D30A2000F090F904
:203DE00000F0DEF90128FBD0204638BD70B505460E46A8B10078B8B1A1B1002404E015F848
:203E0000010F38B1B44205D000F07AF96B1C04F10104F4D100F0C4F90128FBD0204670BD01
:203E20000446F7E70C46F5E70446F3E710B44FF6C7734FF6CF74C0F20103C0F2010413F8C5
:203E4000012FFF2A12D1A342F9D141F2F022C5F2000241B10A44002312F8014C013AC4546C
:203E600001338B42F8DB5DF8044B70474FF6C872C0F20102EDE700BF38B54FF4DC75C1F218
:203E800000052B6802205B6998472B6802205B6B98474FF4DC7301280446C1F20003F4D1EB
:203EA0001B684FF40070DB69984742F22803C6F2080342F228021C60C4F2080213689B07D0
:203EC000FCD538BD2DE9F0434FF4E87683B0C1F20006FFF7D1FF33684FF480504FF4D8783F
:203EE000DB68C4F20000C1F200089847D8F8003041F238045B691520C4F2000498472368A3
:203F000041F2440523F4FE6323F00203C4F2000540F2F2794FF4DA772360C1F20007C5F8AF
:203F200000903B680520DB6B984742F29003C4F2020320221A603B68072200924FF4805055
:203F40001F6CC4F20000042105220623B84733684FF480504FF4D8415E68C4F20000C0F274
:203F6000DC214FF4E1326023B04741F23403C4F20003142141F22C021960C4F20002116811
:203F800043F2D02341F010011160C2F20003196840F2013640F2011041F23002002914BF01
:203FA00031460146C4F200021160C5F800901B6843B12368152043F050032360D8F800308D
:203FC0001B69984703B0BDE8F08300BF08B54FF4DC73C1F200031B6802205B6B984701287C
:203FE00001BF42F26C03C4F20803186800F0010018BF002008BD00BF38B50446FFF7E6FF9F
:2040000030B141F21802C4F2000213681807FCD4032C06D043F2D023C2F200031B6803B135
:2040200038BDFFF7D3FF28BB4FF4DC75C1F200052B684FF400701B6A9847032C3FD042F278
:204040002803C6F20803012142F228021960C4F2080213689907FCD5052000F05BFA04203F
:2040600000F058FA062000F055FABDE83840072000F050BA4FF4E873C1F200031B684FF441
:204080008050DB68C4F2000098474FF4D873C1F200031B6815205B69984741F23803C4F2B5
:2040A0000003186841F2440220F4FE6020F00200C4F2000240F2F27118601160B4E72B681C
:2040C0004FF400709B6A98472B684FF400701B6B9847B4E710B502F0C9FA044640F27C0091
:2040E000C2F2000000F0F4F943F2D023C2F2000300221A6004B110BDBDE8104002F0BABAD7
:2041000010B50446FFF762FF08B9FFF7DBFE4FF4E873C1F200031B684FF480502146DB6914
:20412000C4F20000984710BD43F2D023C2F2000310B5186040F27C03C2F2000300B30222C2
:204140004FF4DC741A61C1F2000423684FF400705B6A984723684FF40070DB6A984742F222
:204160002803C6F20803012142F228021960C4F2080213689C07FCD5BDE81040FFF7A2BE5E
:204180004FF4DC741861C1F2000423684FF400709B6A984723684FF400701B6B9847DEE7D2
:2041A00008B5FFF713FF30B141F21803C4F200031868C0F3C00008BD70B5FFF75DFE4FF4E1
:2041C0008253C4F200031A6841F24403C4F2000340F2F27112F0500F196018D041F21805F5
:2041E0004FF4E87643F2D024C4F20005C1F20006C2F2000406E03368C4F200001B6998472F
:2042000023682BB92B684FF48050DB06F3D570BDC0B29847F6E700BF4EF61053CEF200035C
:204220001A6822F004021A6030BF704770B502F01DFA01F047FE18B1BDE8704002F01ABA7C
:2042400043F2D420C2F2000001F08EFF0225044648B1636823B19847A84228BF2846C5B265
:204260002468002CF5D1FFF75DFC4FF42073C4F224331B680446002B40F0B88001F0CEFC73
:2042800003460146002840F0F280012D00F0CC80022DD1D12846002B00F00581FFF79AFCEE
:2042A00043F2D420C2F2000001F05EFF06250446002800F0AF80A368022003B198472369CB
:2042C000246825EA0305002CF5D1FFF75FFD6A0705F0060400F1A180002C40F0E98000F0C0
:2042E000BFF9002004F066FB4FF48052C4F20902116841F2080321F003011160C4F20903BC
:2043000019684FF4DC7241F00F011960C1F20002136839209B6998474FF482524FF4846126
:204320000023C4F20902C4F222311360184613600B6002F0FDFE062C00F0C38042F22C052A
:2043400042F22424C4F20804C4F209052B6823684FF4EC7623F003032360C1F200063368A8
:204360004FF48040C4F2030003215B6898474FF4DC73C1F200031B689B6B98472B6803F085
:2043800055F84FF4C0730022C4F204331A6033684FF48040C4F203005B680121984721682D
:2043A00044F20C0341F003010122C4F2090321601A602B6803F07AF804F0C4FAFFF78CFB7C
:2043C000FFF7E4FC43F2D420C2F2000001F0CCFE044628B1E36803B198472468002CF9D1EC
:2043E00002F048F9BDE8704002F044B942F21803C4F209031B681B1A022B52D4A3F28F23E3
:20440000002BB8BF0123BFF639AF9D4228BF1D46EDB233E7FFF7BAFC062444F20C03C4F286
:20442000090300221A6057E7002B4ED04FF6F873CFF6FF731B1BCB4248BF04F1080106D444
:2044400004F58034631A31EA230128BF21460220FFF7C0FB4EF61053CEF200031A6822F0D4
:2044600004021A6030BFBDE8704002F003B901F0DFFB0646FFF714FB361A002E15DDFFF748
:20448000DFFB4FF67153CFF6FF731B1B00EB4621CB424FF001037FF5F8AE9D4228BF1D46E7
:2044A000F3E60023B1E7611EF8E600231946F4E74FF4DC73C1F200031B6820469B6998479A
:2044C0000DE7022002F030F938E704F58031BEE7014643F2D420C2F2000001F047BE00BF64
:2044E000014643F2D420C2F2000001F093BE00BF43F2D42008B5C2F2000001F031FE4FF49A
:20450000C273C1F200031B6803201B682021984708BD00BF411C10B5044611D04FF4DA7306
:20452000C1F200031B684FF4C0421B68002198474FF4D053A400C4F24423234300221A6051
:2045400010BD00BF08B5084B002103F1800243F8041F9342FBD14FF4D873C1F200031B6862
:2045600010201B69984708BDD4320020F8B542F2E003C4F202031D6843F2D8271D60C2F254
:2045800000070024012606FA04F32B42E0B203D057F8243003B198470134202CF3D1F8BDD0
:2045A00010B584B00022412302A80292039304F0DFF9042002F0A0F8032819D004200321D2
:2045C00002F05CF8042002F097F803280346F9D14FF4D272C1F2000212684FF420400093C6
:2045E0005468C4F20C0000214FF040521C23A04702A804F01FFA04B010BD00BF00B583B046
:204600000022412368468DE80C0004F0B1F9012002F072F8012803D00320012102F02EF871
:20462000684604F007FA03B05DF804FB00B583B00022412368468DE80C0004F099F901208C
:2046400002F05AF8012805D04823C1F20003986B01F040FF684604F0EDF903B05DF804FB35
:2046600010B582B04123684600240193009404F07FF90320214602F001F8012002F03CF8BD
:2046800028B14823C1F20003986B01F023FF684604F0D0F902B010BD70B503880646C3B1B0
:2046A00040F22322934219D1822921D149F6F443C0F200034AF660051C69C0F20005FFF725
:2046C00065FB03F07BF803F023F88021A047002808DC40F223233380012070BD0023038053
:2046E000032070BD80B203F00DF82B699847E6E7012070BD42F29C13C4F20803186800F09E
:204700000100704738B510F0030305460C4626D001F0ACFF42F29C13C4F208031B68003068
:2047200018BF0120DB072AD54FF48053C4F2040341F204011D60C4F204010B684CF250322A
:20474000236003E00B68013A236018D013F0FF0FF8D050B32078421E5042504138BD028864
:204760001005D5D56B8001F081FF42F29C13C4F208031B68003018BF0120D90702D480B1E8
:20478000002038BD2B8813F4405FCDD003F44063B3F5006F02BF43F25833C2F200031D60A8
:2047A000C2E701F067FF002038BD01F063FFD1E74AF22013C0F2070301E0013B0FD04288E8
:2047C00002F44062B2F5806FF7D1408800F44060B0F5806CDCF1000050EB0C0070471846CD
:2047E000704700BF70B582B001F040FF4FF4D874C1F20004236805461B6A19209847236878
:2048000012201B6A9847236819205B69984723684FF4DC745B691220C1F200049847236866
:2048200001205B699847236801205B6B98470128F9D142F22C0142F22803C4F20801C6F239
:20484000080342F228020860C4F20802186013689907FCD541F2100141F214030022C6F2FB
:204860000401C6F204034FF4D8740A60C1F200041A60236819201B699847236812201B69E2
:204880009847F5B1002441F21C014FF480535122C4F20403C0F20762C6F2040440F2FF3697
:2048A000C4F20401002501202660C0F206400D601A6001A9FFF726FF431E5842584102B087
:2048C00070BD01F0D7FEDDE730B543F26033C2F2000387B01B680024012240F60A0501A8CE
:2048E000694601940494059302940394ADF804508DF81120FFF706FF012804BF4AF2201015
:20490000C0F2070004D0204607B030BD0138FBD0BDF8063003F44063B3F5806FF6D1BDF864
:20492000060000F44060B0F580646042604107B030BD00BF10B586B00023012240F609042A
:2049400001A8694601930493029303930593ADF804408DF81120FFF7D5FE012806BF4AF27F
:204960002010C0F20700C0B203D006B010BD0138FBD0BDF8063003F44063B3F5806FF6D19F
:20498000BDF8063003F44063B3F5806F18BF0020EBD143F66A73C2F200031A780120002A9E
:2049A000E3D143F260320599C2F20002012011601870DAE730B587B001F058FE4FF4D8745B
:2049C000C1F20004236805465B6919209847236812205B69984742F29C13C4F208031B68E7
:2049E000DA0720D541F2100141F214020023C6F20401C6F204020B6040F60D04136002A8E7
:204A0000012201A90293059303930493ADF808408DF81520FFF776FE012804BF4AF2201303
:204A2000C0F207033DD0FFF785FF42F22C0142F22803C4F208010024C6F20803012042F278
:204A400028020C60C4F20802186013689B07FCD54FF4DC74C1F20004236801209B699847C1
:204A6000236801205B6B98470228F9D14FF4D874C1F20004236819201B6A984723681220C6
:204A80001B6A9847236819201B699847236812201B6998470DB901F0EDFD07B030BD013BEA
:204AA000C1D0BDF80A2002F44062B2F5806FF6D1BDF80A30B7E700BF08B501F069FD052804
:204AC00015D003281AD050B1012801BF42F2D013C4F2080305221A6018BF002008BD42F289
:204AE000D013C4F2080303221A60012008BD42F2D013C4F208031860012008BD42F2D01340
:204B0000C4F2080302221A60012008BDF8B542F29C13C4F208031A680023C8F280030028F5
:204B20000CBF1D460025D10700D4F8BD01F09EFD41F2180141F2140241F21003C6F204019D
:204B4000C6F204020646C6F2040300204FF000474FF4D8740F60C1F20004156018602368B9
:204B600019201B6A9847236812201B6A9847236819201B699847236812201B69984706B179
:204B8000F8BDBDE8F84001F075BD00BF002398420CBF022008200029C8F2800318BF00232F
:204BA00041F2100141F214021843C6F20401C6F204020B60106070470023984241F21402BA
:204BC000C8F2800318BF0023C6F204021360704743F25833C2F200031868704743F25C3344
:204BE000C2F200031860704708B542F29C13C4F208031B68D80704D4FFF7F4FD012800D054
:204C000008BD41F21003C6F204036FF000421A6008BD00BF08B542F29C13C4F208031B6847
:204C2000D9070AD44AF21870C0F20000FFF7C8F8FFF7D8FD012800D008BD01F017FD41F2C9
:204C40001003C6F204031A6812020ED441F21003C6F204031A6812F00A0F1CBF6FF00A0222
:204C60001A60BDE8084001F005BD6FF4000240F290001A60C2F2000001F084F9E6E700BFCB
:204C800043F66B73C2F200031878704708B500F0A3F880B208BD00BF00F038B938B54FF4F0
:204CA000DC75C1F200052B6804205B6998472B6804205B6B98474FF4DC7301280446C1F27D
:204CC0000003F4D11B6840F20140DB69984742F22803C6F2080342F228021C60C4F2080237
:204CE00013689B07FCD538BD43F26433C2F20003186800280CBF0220012070472DE9F0419A
:204D000003880646002B4AD0B3F5847F09D140F22B23C2F200031B788B4207D00120BDE8BE
:204D2000F081002303800320BDE8F08143F26437C2F200073B68B3B14FF4E673C1F200033F
:204D40001A6848F20403C4F2020352680220D3F8008090470024221848F100031946104688
:204D60003B6898473C604FF4DC73C1F200031B6840F201409B6A984742F22803C6F20803D1
:204D8000012142F228021960C4F2080213689907FCD540F2A000C2F20000FFF7A1FB4FF413
:204DA000847333800120BDE8F08100BF08B54FF4DC73C1F200031B6804205B6B98470128D9
:204DC00001BF42F23C03C4F208031868C0F3400018BF002008BD00BF70B543F26433C2F24C
:204DE00000031B68D3B143F26830C2F200000023C15C43F26832C2F2000229B90133042B1E
:204E0000F6D10020014670BD40F238210024C2F2000101EBC301D45403C970BDFFF7C6FF47
:204E2000002842D048F20803C4F202031A680123C8F2000313409BB949F6F073C4F20203D1
:204E400001221A6018680028FCD102464FF4807102F070FB4FF42A73C4F2502301221A60C1
:204E600001F004FC48F208020646C4F202021368D807FCD54FF4E673C1F200031A6848F2BE
:204E80000403C4F20203526802201C68904700222346141843F1000516B12046294670BD60
:204EA00001F0E8FB2046294670BDFFF7F7FEB9E738B54FF42A750024C4F2502548F20C032A
:204EC0002C60C4F2020319684FF4D87221F001011960C1F20002136831205B699847204667
:204EE00022464FF4807102F025FB012240F22B232A60C2F2000340F2B40022461978C2F28D
:204F00000000BDE8384000F0E9BF00BF10B540F22B24C2F200042378802B00D010BD00F04C
:204F20004DFF207040F2B400C2F200000021BDE8104001F005B800BF08B51AB1084611464B
:204F4000FEF754FF002008BD0FB400B583B004AB53F8041B40F2C4001A46C2F200000193C2
:204F600000F022F803B05DF804EB04B0704700BF38B50C46054609E04AF27C71C0F20001B7
:204F80002B6868681022103C984718B9102CF3D8204604B938BD4AF27C712246C0F200011D
:204FA0002B686868984738BD2DE9F04F4AF2D47491B0C0F2000400258246894609920494FB
:204FC0000295884698F80030002B00F0F080252B00F01983444602E0252B04D02C46637868
:204FE000651C002BF8D145450FD0C8EB050641463246DAF80030DAF804009847002840F007
:205000008F826378029C34440294002B00F0CF806B78002B00F0CB8001350024A3F1200235
:20502000AC46102A1CD8DFE802F0181B1B151B1B1B1B1B1B1B121B0F1B1B090044F01004B4
:2050400001359CF80130E9E744F00104F8E744F00604F5E744F00804F2E744F00204EFE72A
:20506000A3F13102D2B2082A00F2E580A3F13002D2B2092A9CBF01354FF0000B00F2DE80B4
:205080000BEB8B0B03EB4B0BAC4615F8013BABF1300BA3F13002D2B2092AF1D92E2B00F09E
:2050A000D2804FF0FF316C2B00F0EE80682B00F07B81782B00F28180DFE813F079007F0063
:2050C0007F007F007F007F007F007F007F007F007F007F007F007F007F007F007F007F00E0
:2050E0007F007F007F007F007F007F007F007F007F007F007F007F007F007F007F007F00C0
:205100007F007F007F00A2027F007F007F007F007F007F007F007F007F007F007F007F007A
:205120007F007F007F007F007F007F007F007F007F007F007F007F007F007F007F009F025D
:205140007F007F007F009C02990296027F007F007F007F007F007F007F007F007F007F000B
:205160007F007F007F007F007F007F0093027F007F007F007F007F007F007F007F00900216
:205180007F008D028A028702840281027F008A027F007F007F007F007D007E027B027F00E3
:2051A0007F0078027F0075027F007F007202029811B0BDE8F08F44F4E06404F4E063B3F5B0
:2051C000806F0CF1010800F0CF806DD9B3F5C06F00F0B281B3F5E06F00F0A781B3F5A06F95
:2051E0007FF4F0AE099BBBF1010F1A6803F1040309938CBF0BF1FF3B4FF0000BE3078DF8EB
:20520000282000F13E8350465946FFF7B1FE002840F08681029CDAF800305C44DAF8040045
:205220000AA9012202949847002840F079810BF1010B029D95E02A2B00F0C6802E2B4FF092
:20524000000B7FF42EAF9CF801300CF10101A3F13002D2B2092A00F2C4800CF102024FF03C
:20526000000909EB890903EB490913789446A3F13001C9B20929A9F1300902F10102F0D9F6
:205280006C2B49467FF412AF9CF801306C2B03BF9CF8023044F080040CF1020C0CF1010C03
:2052A00018BF44F0600404E7B3F5807F00F0A780B3F5407F7FF486AE099A4AF2B077116849
:2052C0004AF29C73C0F20003043214F4804FC0F2000718BF1F46099200230A46002900F0A5
:2052E00057810DF13A00110902F00F0241EA0371BD5C1E090A463346014600F8015952EA04
:205300000305F0D10DF13B035B1A18BFDD1C00F04181782030222323AB4501F8010C01F872
:20532000022C01F8033CA1F103063AD84FF0000B14F0010406D150465946FFF719FE0028C6
:2053400040F0EE803146DAF80030DAF804002A469847002840F0E48002980544002C40F016
:20536000FB805D4402952DE6099B1E6804330993002E00F04A8233781D466BB1731C187837
:205380001A4601330028FAD1951B8D4294BF002301230029B8BF0023002B18BF0D46AB4565
:2053A000C4D9C5EB0B0BC3E79CF80130682B03BF9CF8023044F020040CF1020C0CF1010C93
:2053C00018BF44F0400474E6099B05F1010C1A680433002A0993B8BF44F0010493466B7892
:2053E0005CE62A2B18BF8C467FF45BAE099A9CF80230111D09910CF1020C116853E60029DA
:20540000ABBF24F0100401250591059514F4005504F0E003039500F0A780402B00F02082C4
:2054200000F2F380002B00F0DE81202B40F00882099B1A1D099293F90020D317002A73F1EE
:205440000000C0F2DA81CDE906230025089504F4C053B3F5805F00F06481B3F5C05F00F080
:205460007F81B3F5006F1CBF0DF13E054FF0000900F03281059941F60803894504EA03036C
:2054800041F20802C0F0E580934218BF002600F00A8241F60802934206EB090100F0FC80EF
:2054A00000273A46039870B1089B002B40F00E8104F00603022B00F0CD810498062B08BF00
:2054C000012708BF02467B189B458CBFC3EB0B0B4FF0000B14F00103039304D1E10640F13E
:2054E0009E815E449B463FB11146DAF80030DAF804003A46984798B9102E344603D8B5E013
:20550000102C40F2B3804AF28C71C0F20001DAF80030DAF804001022103C98470028EFD0E2
:205520004FF0FF3011B0BDE8F08F099B029C1A6804331460099345E54AF2E071C0F20001A3
:20554000DAF80030DAF80400012298470028E7D1029C0134029435E550465946FFF708FDDE
:2055600000283FF4FEAEDBE7402B00F080815CD8002B00F02D81202B40F05B81099B039D6E
:2055800018781A1D002108950992CDE906015EE70DF13B01302301F8013C04250139B8E625
:2055A00044F4C85409E644F4106406E644F4806403E644F4407400E644F48854FDE544F40B
:2055C0008134FAE544F40074F7E544F40244F4E544F42454F1E544F4A064EEE544F4C13496
:2055E000EBE544F4B244E8E544F4A134E5E544F48444E2E544F44244DFE544F4E134DCE5B2
:2056000044F4C064D9E5454602E5602B00F0EB80802B40F01581099B073323F0070303F1B8
:2056200008020992D3E9002308E7602B00F0D080802B40F0FE80099B039D073323F0070338
:2056400003F10802D3E9000108950992CDE90601FDE69342C9EB01067FF41BAF002E08BFF5
:20566000012600273A4606EB09011BE7002C40F0A1802946DAF80030DAF804004A4698472C
:2056800000287FF44DAF029B039C4B441F443E44ACB95E44029695E4DDE9062313433FF433
:2056A000FFAE4AF2C8724AF2C47314F4804FC0F20002C0F2000318BF1A460227F2E6504646
:2056C0005946FFF755FC0028E3D029E74AF2CC72C0F200020127F6E6DDE90601014300F0C6
:2056E000B480DDE906670DF13D09304639460A22002303F065FE303289F80020304639466D
:205700000A22002303F05CFE06460F4656EA07024D4609F1FF39E8D10DF13E03C5EB03098A
:20572000A8E6DDE90623134300F08F80DDE906230DF13D01D00840EA4370DE0802F00707D1
:20574000334602460D4652EA030007F13001297005F1FF31EED10DF13E03C5EB030989E6E5
:205760004AF2B0774AF29C7314F4804FC0F20003C0F2000718BF1F46DDE90623134364D081
:20578000DDE906230DF13D01100902F00F0540EA03704FEA131E7E5D0246734652EA03009D
:2057A0000D460E7001F1FF31EED10DF13E03C5EB03095FE64AF28C712246C0F20001DAF8D1
:2057C0000030DAF80400984700283FF452AFA7E6039D099B08951A6800210433104609934E
:2057E000CDE9060133E6099B1A6804330993D317002A73F10000BFF626AE504263EB4301B5
:205800000125CDE90601089521E605294AF2D876C0F200068CBF002301230625BCE550469D
:2058200059460192FFF7A4FB019A00283FF45BAE76E60025002000210895CDE9060106E69A
:2058400000200021CDE90601FFE54FF000090DF13E050FE64AF2D072C0F20002012732E676
:20586000099B1A1D0992B3F90020D317E6E5099B039D18881A1D002108950992CDE9060100
:20588000E5E5DAF80030DAF804000AA90122984700287FF445AE50465946FFF769FB00286C
:2058A0003FF4C5AC3CE60126DBE600BF10B50446006830B1002100F043FB54F8040F00284D
:2058C000F8D110BDF8B5038806461546EBB14A2B17D1882946D143F26C30C2F2000000F01D
:2058E00043FC044648B1031D9D4202D126E09D4224D02468231D002CF9D14A233380012078
:20590000F8BD002303800320F8BD43F26C30C2F2000000F029FC044630B1201DA16800F059
:205920006DF92468002CF8D143F66C73C2F2000301221A704A2333800120F8BD43F26C303D
:20594000C2F20000214600F065FC43F278356269A369C2F200052F682A600BB1E069984764
:205960002F60CAE70120F8BD10B543F66C7343F26C300024C2F20003C2F200001C7000F058
:20598000EFFB40F2CC002146C2F20000BDE8104000F0D6BA70B543F66C74C2F20004049DF8
:2059A000267882610446C36145614EB9A16043F26C302146C2F20000BDE8704000F0D6BB88
:2059C00043F27835C2F200052E6840F2CC03C2F2000304302B6000F011F92E60E7E700BF0A
:2059E00010B543F27834C2F20004246882B00094FFF7D0FF02B010BD10B543F66C73C2F222
:205A000000031B78044653B9C360036143F26C302146C2F20000BDE8104000F0FBBB043058
:205A200000F012F9F2E700BF38B543F66C73C2F200031D7804466DB943F26C30C2F200008D
:205A400000F092FB10B90AE0006840B18442FBD1002038BD0430BDE8384000F0D9B8012023
:205A600038BD00BF704700BF10B543F27034C2F200042368CBB1FEF713F8236859681A68D1
:205A80009B680A44121A4BB193E812009B682144091A8A4228BF0A46002BF5D143F27433A5
:205AA0000244C2F200031A6010BD43F27432C2F20002136010BD00BF2DE9F04103880546F5
:205AC0007BB1592B08D1872915D0822926D059232B800120BDE8F081002303800320BDE83B
:205AE000F08143F27032C2F20002136059232B800120BDE8F08143F27037C2F200073B689D
:205B0000002BE4D0D9688A4203D02BE0D9688A4227D19B68002BF9D13B60D8E743F2703788
:205B2000C2F200074FF000083C68002CCFD0002604E0A3682646002BC9D01C46204600F0F7
:205B400067FA0028F5D0E0688821224600F0C6F9034640F2DC00C2F2000073B100F012FAC4
:205B6000E7E73B6099680029B1D0C86882420BBF89680B4699608968F5E7E360A3682EB11E
:205B8000B360C4F80880FFF76FFFCDE73B60F8E710B5044640F2DC00C2F2000000F0F2F970
:205BA00043F27032E368C2F20002116853B149B18C4218BF0B4602D110E09C420ED09B681E
:205BC000002BFAD143F27833C2F200031B68A160E3601460BDE81040FFF746BF43F278332D
:205BE000C2F200031B68E360BDE81040FFF73CBF40F2DC00C2F2000000F0C4B910B5044604
:205C000000F0FEF92046BDE81040FFF7C1BF00BFC068D0F1010038BF0020704743F270337D
:205C2000C2F200031868003018BF0120704700BF43F27033C2F20003186820B143F27433D3
:205C4000C2F200031868704710B543F27033C2F200031A680446904217D04AB193688342C2
:205C60000AD02BB19A68A24207D01346002BF9D10023A360E36010BD1346A2689A60FFF7DA
:205C8000F3FE0023A360E36010BD82681A60FFF7EBFEEDE72DE9F84343F27C38C2F20008D0
:205CA000D8F8004043F27836221CC2F2000618BF0122844218BF002C054689463768234614
:205CC00004D01B689D4218BF002BFAD163B3AB7BE3B10023AB736AB1A54220464FF0870181
:205CE0002A4604D0A37BDB0701D500F029F82468002CF1D1AB683BB14D4505D0356005F10E
:205D00000C00832100229847D8F80040A54212D04CB12368AB4209D02BB11A68AA4206D08B
:205D20001346002BF9D13760BDE8F88323462A681A603760F8E72B683760C8F80030F3E77F
:205D400070B5856804460E468DB143F27833C2F200030220A0731C6004F10C00A8470238E3
:205D6000012805D9832E1CBF0123A37300D070BD20462146BDE87040FFF78CBF70B543F29C
:205D80007C33C2F200031C6843F66F73C2F2000300261E7084B1012501E0246864B1E37B58
:205DA000002BFAD0A573E673204682210022FFF7C7FF2468002CF2D170BD00BF43F6707313
:205DC000C2F200031878421C1A70704770B443F66E7043F27C3143F27832002343F67075A0
:205DE00043F66D74C2F20000C2F20001C2F20002C2F200058A26C2F2000403700B601360F8
:205E00002E70237070BC70472DE9F04143F66F74C2F2000423780BB1FFF7B0FF43F66E753B
:205E2000C2F20005287818B343F66D72C2F20002117843F2803301EB410C4FEA8C0CC2F241
:205E4000000303EB0C0701380131BE68C0B201F01F012870117013F80C807F68B6B1B8F183
:205E6000810F04BF0123B37306D0B37BDA0703D423781844BDE8F081304641463A46FFF749
:205E80005FFF287823781844BDE8F08143F27C33C2F200031E6836B9EAE7B37BD9070AD42A
:205EA0003668002EEDD02378002BF6D0FFF766FFB37BD907F4D5304641463A46FFF740FFE9
:205EC000EEE700BF43F66F7243F66E73C2F20003C2F200021278187810447047F0B443F68B
:205EE0006E73C2F200031D78202D08BF012315D043F66D74C2F20004277843F280342F448B
:205F000007F01F0707EB4707BF00C2F20004E6190135E1551D7072600023B0601846F0BCA6
:205F2000704700BF38B5837B43F27834C2F20004DB07256801D5FFF703FF256038BD00BFF1
:205F400070B443F27C35C2F200052E680446864218BF002E334604D01B689C4218BF002B21
:205F6000FAD1A3420BD0012000232660A073A3810A4620462C60812170BCFFF7D3BF70BCD1
:205F8000704700BF60B1837B013BDBB2012B9FBF43F66F730122C2F200031A7098BFC2731E
:205FA000704700BFFDF7B8BD38B543F20052C2F200020446156804986360A060216015B16B
:205FC0001460002038BD08461460FDF7A7FD002038BD00BF10B543F20054C2F20004236879
:205FE00063B1184600225B68816822609847236823B11868BDE81040FDF790BD10BD00BF5F
:2060000010B541600446FDF74BFD206010BD00BF10B50446FDF744FD94E80C00C2F1010206
:20602000104483422CBF0020012010BDF8B504880546672C0ED0792C04D064B30023038023
:206040000320F8BD852933D143F20C64C2F200040023236043F20C6443F28C56C2F200043F
:20606000C2F2000607E00A2824D022687E2ADEBF511CB054196043F28450C2F2000000F0F3
:2060800017F943F20C63421CC2F20003EBD167232B800120F8BDFFF791FE44F2720243F20C
:2060A0000C63C2F20002C2F2000310701C60D1E70120F8BD43F20C64C2F20004276843F259
:2060C0008C5344F27201C2F200030026C2F200011A4607F1010E09783046DE55C4F800E079
:2060E000FFF7FCFE43F27833C2F20003324618688521FFF7F3FE0028AAD179232B80012089
:20610000F8BD00BF08B543F2845043F20451C2F20000C2F20001802200F0AAF8BDE8084031
:2061200040F2EC00C2F200000021FFF709BF00BF0029034611DD084413F8011B4A4052BA86
:2061400002F47F4182EA011292B282EA123202F47F41834282EA5112EED11046704700BF41
:2061600000230360704700BF0068704710B404685CB1A14225D023680BB906E01346994286
:2061800010D01A681C46002AF8D100230B6002680AB911E01A461368002BFBD111605DF804
:2061A000044B704764B10A68226000221A6000230B600268002AEED101605DF8044B704797
:2061C0000C46226823460260EFE700BF30B4056865B1A94219D02B6843B12C4600E0134616
:2061E000994207D01A681C46002AF8D10D60016030BC704744B10A68226000221A600568B3
:206200000D60016030BC70470D462A682B460260F3E700BF10B404685CB18C4215D0236841
:206220000BB906E01346994206D01A681C46002AF8D15DF8044B704734B11A68226000226D
:206240001A605DF8044B70470C46226823460260F5E700BF03682BB100201B680130002BE1
:20626000FBD170471846704700B10068704700BF0023013A0160027143718371704700BFA7
:2062800010B40346447980791A79201A104082421FBF1A68012011555A791FBF1979121806
:2062A0000A405A7108BF00205DF8044B704700BF10B40346827940791979801A08421FBFB3
:2062C0001868541C2140805C14BF99714FF0FF305DF8044B704700BF08B543695B6803B14C
:2062E000984708BD10B5044682B01A2001F0FAFA014601A801F03CF963691B6813B120460B
:2063000001A9984702B010BD70B514464AF604020646C0F200020D4602F002FC4AF600012C
:2063200074612846C0F20001BDE8704000F036B810B544F230010446C2F200011A2001F0DE
:20634000C5FA2046BDE8104002F0FABB43F21060C2F20000FFF704BF034643F21060998063
:20636000C2F200001946FFF701BF00BF10B5044643F21060C2F20000FFF7F6FE50B1838837
:20638000A34203D109E08388A34205D0FFF76CFF0028F8D1002010BD10BD10BD38B50D467D
:2063A000FFF7E4FF044620B18560284602F0D4FC207338BDF8B5064643F21460C2F20000F6
:2063C0000D461746FFF7D0FE044648B1A368284603B198472046FFF747FF04460028F5D120
:2063E000304629463A46BDE8F84002F0B1BB00BF38B502F08FFC054643F21460C2F200002C
:20640000FFF7B2FE044640B1636803B198472046FFF72AFF04460028F6D125B12846BDE896
:20642000384002F08FBB38BD10B501F06DFA01F0C5F902F093FB02F06BFCBDE810400220F7
:206440004FF400714FF4F0524FF4E12302F044BC10B5044602F06EFC68B101F0B7F84AF666
:206460008803C0F2000346F2B530C0F2000021469B689847012010BD08B583695B6803B1B6
:20648000984708BD38B504461B200D4601F02AFA44F23001C2F2000101F06EF828B1A36926
:2064A0001B6813B120462946984738BD70B514464AF620020646C0F200020D46FFF724FF9F
:2064C0004AF62801B4612846C0F20001BDE87040FFF764BF70B5064600F0C8F84FF4004209
:2064E0000546C4F20C0213684FF40044C4F20C04002BF8D0B0470123236005B170BDBDE8AC
:20650000704000F0B7B800BF10B442F2080342F20C04C4F20903C4F209041A682068196856
:206520008A42FAD1120442EA10405DF8044B704742F2D413C4F20803186800F00E007047C6
:2065400041F21832C5F2000213684BF69A11C3F30F338B4213D04BF6BE12934208BF012028
:206560000BD04BF64132934208BF032005D04BF6203083420CBF0220FF2040B27047106875
:20658000000F0B280CBF0420002040B2704700BF10B541F29423C5F200031C68FFF7D0FF90
:2065A0000128C4F3033409D1082C08BF002003D00F2C0CBF0120FF2040B210BDFF20FBE7F6
:2065C00038B541F218324FF48553C5F20003C5F2000212681C68150FE4B27F2C88BF0024F5
:2065E000FFF7AEFF04280FD8DFE800F01108030304004DB90A34E0B240B238BDF5B1022D79
:2066000004BF1434E0B2F7D0FF2040B238BD013D072DF9D801A353F825F000BF3D66000067
:20662000096600004B6600000966000009660000096600004F660000436600000A2040B273
:2066400038BD04F11600C0B2D6E71420D4E71520D2E700BF08B5FFF773FF012800D0FEE76C
:20666000FFF7AEFF1328FADD08BD00BFEFF3108072B67047EFF3108062B6704770B50D46D7
:20668000C10782B0044626D4A20713D463070FD54FF4D273C1F200031B68ADB24FF420401B
:2066A00000955C68C4F20C0000210C220223A04702B070BD4FF4D273C1F200031B68AAB268
:2066C00000924FF420405E68C4F20C00002102220123B047DAE74FF4D273C1F200031B681B
:2066E000AAB2009200214FF420405E68C4F20C000B460122B047C7E710B54FF4D273C1F247
:2067000000031B6804284FF42040DC684FF0340107BF4FF0C0421D234FF080521C23C4F21F
:206720000C00A04710BD00BF01280FD030B14FF4C073C4F2043301221A6070470023C4F261
:2067400009031A6822F005021A6070470023C4F209031A6842F005021A60704770B40388E1
:2067600043F6060293421ED00132934217D040F60202934201D070BC7047C67B4369002B4B
:20678000F9D003F1140544F2380419681A4688B2A04203F1040309D0AB42F6D1EBE790F8D2
:2067A0002460C369EBE7C3690226E8E7C1F303400028E0D0B31E1C2B10D8DFE803F00F0F8D
:2067C0000F41390F0F0F310F290F0F210F0F0F0F0F0F0F0F0F0F0F0F0F0F49004FF49C530E
:2067E000C5F200031B68C3F383430F2B38D0834282BF21F4702141EA0343136070BC70472B
:2068000041F20413C5F200031B68C3F38343ECE74FF48853C5F200031B68C3F38343E4E700
:2068200041F2FC03C5F200031B68C3F38343DCE741F2F803C5F200031B68C3F38343D4E708
:206840004FF49953C5F200031B68C3F30323CCE741F20813C5F200031B68C3F38343C4E78B
:20686000053E192E08D8012303FA06F603F58463C0F2002333402BB921F4702141F480210A
:20688000116078E721F4702343F4E023136072E728B946F20223C4F20803187070474FF4F9
:2068A000C44246F20223C4F208020020C4F20803202110701970704738B541F21003C4F2EA
:2068C000090301214FF4257205461960C4F222321368002BFCD04FF4C042C4F20C02C02186
:2068E00043F6B0731160C5F200031B689B070DD443F6AC73C5F200031A6846F25623C2F311
:20690000034242F0F002C4F208031A704FF48252C4F20902002143F6B4731160C5F200033F
