:020000040000FA
:2000000000500020ED000000E5000000C9000000E9000000E9000000E9000000000000001A
:20002000000000000000000000000000E9000000E900000000000000E9000000E90000001C
:200040002D500000E9000000A9560000E90000002D4A0000654C0000E9000000E900000058
:20006000E9000000D5560000E9000000E9000000E9000000E9000000E9000000E9000000F6
:20008000E9000000E9000000E9000000E9000000E9000000E9000000E9000000E900000018
:2000A000E9000000E9000000E9000000E9000000E9000000E9000000E9000000E9000000F8
:2000C000E9000000715900004EF62853CEF200031A68B2F5806F03D01B689B0500D4FEE724
:2000E000704700BFFEE700BFFEE700BF10B507F0B9FA40F2000140F20A23C2F20001C2F2D8
:20010000000399420ED2CC431C4424F003044BF280500434C0F200000023C258CA50043312
:20012000A342FAD1064807494FF000028842B8BF40F8042BFADB01F031FEFFF7C5FF10BD0C
:2001400010020020134D002008B54AF6AC1243F22063C2F20003C0F20002D26A197B01201E
:20016000904708BD2DE9F00F43F22063C2F2000340F2F83241F6F526C2F2000293F80FC0A1
:20018000C0F2000643F27454C2F20004187C597C166040F2602540F27C3340F27826C2F2F7
:2001A0000003C2F2000500274FF0010A4FF00809C2F200064FF0A80884F801C04FF0050C8C
:2001C000556097604FF0020BDC6083F800A083F801905E6083F8088083F809C0A070E1705E
:2001E00085F800B06B60277007CABDE8F00F02F039BE00BF2DE9F00F43F22062C2F20002D1
:2002000092F80EB043F23453C2F2000392F80C8092F80FC0177C4FF0030983F802B04FF06A
:20022000110B567C4FF06C0A44F62F4143F2984440F2782583F8039083F804B04FF02409E8
:200240004FF0FD0BC2F20004C2F20001C2F2000583F801A083F806904FF0900A4FF00009E3
:2002600083F807B083F809804FF0010B4FF0080883F80BC01F734FF08A0C2F2783F805A08B
:200280005E7309789A461E4683F8009083F8089083F80A9083F80E9084F800B084F8018053
:2002A000656084F808C0677208E01B7909F10109B9F1080FF37306F101060BD002EB0903E3
:2002C0000029F2D109F10109B9F1080FF17306F10106F3D12E4B44F64841C2F200012D4ADF
:2002E000D3F80080D3F804C09F68D3F80C900B68DC254FF0050B24260A21CAF81780C2F86B
:2003000004C09760C2F80C908AF829508AF827B08AF828608AF82A10DDB2C3F307220BB980
:20032000FF22154644F64C43C2F2000319788AF82B508AF82C205B7811B90BB9FF23194683
:2003400040F27432C2F200020225546015708AF82D308AF82E10C4F80CA0007843F27C532C
:2003600041F6F5210128C2F20003C0F2000183E8060003BF43F2A452C2F2000212680022ED
:200380009A6093E80700BDE8F00F02F06BBD00BF323600204B3500202DE9F04741F6F522A1
:2003A00043F2B85484B0C2F200041027C0F200020021144E40F2F02340F27825C2F20003D7
:2003C0000294019203914FF0080C4FF0890E4FF00108C2F200050DEB070A4FF002091AE9E0
:2003E000070083F8008083F801C05D6083F808E05F72DE6084F80090636002F033FD04B0EB
:20040000BDE8F087323600202DE9F04143F22063C2F200039B7B44F634455A1ED2B20B2A88
:2004200040F28C3441F6F52284B088BFFF23C2F20004C2F20005C0F2000200212B70029468
:200440000192039104AF43F2AC4340F27826C2F200034FF0080C4FF0A20E17E90700C2F21A
:20046000000601274FF00208DD6083F801C05E6083F808E01F705F7284F80080636002F05A
:20048000F1FC04B0BDE8F0812DE9F04143F22063C2F200031B7B44F623455A1ED2B2172A7A
:2004A00040F2802441F6F52284B088BFFF23C2F20004C2F20005C0F2000200212B70029404
:2004C0000192039104AF40F2943340F27826C2F200034FF0080C4FF0870E17E90700C2F2E0
:2004E000000601274FF00208DD6083F801C05E6083F808E01F705F7284F80080636002F0DA
:20050000B1FC04B0BDE8F0812DE9F04343F2206340F2E83441F6F52285B0C2F20004C2F226
:200520000003C0F20002002193F80D9002940192039104AF44F6304543F2A85340F278269C
:20054000C2F20003C2F200054FF08C0C17E907004FF008080127C2F200064FF0020EDD6090
:2005600083F801805E6083F808C01F705F7285F80090636084F800E002F074FC05B0BDE836
:20058000F08300BF30B543F2206383B0C2F200030022DC7B01AD815CAC540132032AD973F2
:2005A00003F10103F5D143F22064C2F20004204602F0D6FC70B99DF804109DF805209DF8C1
:2005C00006302046E1732274637402F0C9FCF72003B030BD002003B030BD00BF2DE9F0418A
:2005E00043F22063C2F200039B7B0227013B9F40BFB282B0002F6FD0002140F298434FF6AE
:20060000FF7EC2F2000308460C46C0F27F0E5A781E7812029D7842EA06422A437245C8BF17
:2006200002F17F4200295BD09442B8BF14469042A8BF1046013189B28F4203F10303E6D18D
:20064000204400EBD0704716FFB2C0F34701C0F34722C0F3474301A88DF804108DF80520BD
:200660008DF806308DF80770FFF78CFF40F25C3443F2985241F6F521C2F20004C2F20002A6
:20068000C0F20001002782E8920044F6314540F2884340F27826C2F200034FF0A90CC2F2A8
:2006A000000501274FF00808C2F200064FF0020E2870DD6007CA83F801805E6083F808C012
:2006C0001F705F72636084F800E002F0CBFB02F061FE02B0BDE8F0813B463A463946BAE7A9
:2006E00010461446A6E700BF2DE9F04385B0FFF749FF43F2645441F6F522C2F20004002728
:20070000C0F2000244F62045C2F200050294019203970DF1100E40F2882340F27826C2F28D
:20072000000328704FF008091EE90700C2F200064FF0010E4FF0A7084FF0020CDD6083F8C5
:2007400001905E6083F8088083F800E083F809E0636084F800C002F085FB44F62643C2F2C0
:2007600000031F7005B0BDE8F08300BF2DE9F04343F22066C2F200063446054654F8120F6B
:20078000D5F80080D5F804C0D5F808E0EF686168A268E36889B004ADC6F812800FC5C4F887
:2007A00004C03046C4F808E0E76002F0D9FB00283AD044F61A45C2F2000500232B7043F2D7
:2007C000905441F6F522C2F200040027C0F2000243F2446340F27826C2F2000301924FF01F
:2007E000010E029403974FF0880C01AA4FF00808C2F20006DD6083F801805E6083F808C0F9
:2008000083F800E083F809E04FF0020907CA636084F8009002F026FB44F62643C2F20003C2
:200820001F7009B0BDE8F08304AF44F61A450FCFC2F20005C6F81200F72730466160A2604E
:20084000E3602F7002F08CFBB9E700BF2DE9F04343F22064C2F20004037885B02046A67BED
:20086000A37302F07DFB68B194F80EE0AEF10603DBB2062B5AD844F62B45C2F20005002347
:200880002B7013E0A37B063BDBB2062B4ED844F62B45C2F20005F7232B7043F22060C2F206
:2008A0000000A67302F05CFB94F80EE040F2AC3340F2782040F2982241F6F521C2F2000391
:2008C000C2F2000201274FF00809C2F200004FF0A1084FF0020CC0F2000100247645DD6032
:2008E00083F80190586083F808801F705F725360029282F800C00191039409D044F635429D
:2009000044F62943C2F20002C2F2000314701C7004AB13E9070002F0A5FA44F62643C2F21A
:20092000000300221A7005B0BDE8F08344F62B45C2F20005FF232B70AFE700BF2DE9F0417F
:2009400002780121531E994042F29043C0F2FD0343F22064C2F200040B40267B86B02273D0
:20096000002B48D144F62145C2F20005F92326732B7043F26C5441F6F522C2F20004C0F2DD
:200980000002002140F2A42340F27826C2F200030194009202914FF0080C4FF0860E0127AC
:2009A000C2F20006DD6083F801C05E6083F808E01F705F724FF002089DE80700636084F86F
:2009C000008002F04FFA2B7863B940F24912C0F20002802104930392059106AB13E9070045
:2009E00002F040FA44F62643C2F2000300221A7006B0BDE8F081204602F0B2FA44F6214555
:200A000020B1C2F2000500232B70B2E7C2F20005F723204626732B7002F0A2FAA9E700BFAB
:200A20002DE9F0432F4C87B0034601AE94E8030086E8030018685968234603C3201F02F032
:200A40008FFA44F61B45002840D044F62F43C2F200050021C2F20003012229701A7040F286
:200A6000482441F6F522C2F200040027C0F200020494039205970DF1180E40F2643340F241
:200A80007826C2F200034FF0850C1EE907004FF008084FF0010EC2F20006DD6083F8018093
:200AA0005E6083F808C083F800E083F809E04FF00209636084F8009002F0D4F944F62643FB
:200AC000C2F200031F7007B0BDE8F08396E80300C2F20005F72384E80300201F2B7002F072
:200AE0003FFABCE72436002004F04EB82DE9F00143F220634AF69802C2F20003C0F20002A2
:200B000042F2054603CA1C46B2F80080C0F6DC26002244F8046B0C279C264FF0050C5A6079
:200B2000C3F8120062609A83DA831A84A3F81A80C3F816101A745A74DA7383F80CC09F73F6
:200B40005E73BDE8F001704738B5034640F204400C461546C2F200001A46642101F0C8FFCD
:200B600098B1A5B1013DEDB204F1080303EBC50501E0AC420BD040F204402146C2F2000006
:200B8000083401F06DFF0028F3D1002038BD40F20440C2F2000001F08BFF0028F5D0022007
:200BA000114908F02BF870B140F20440C2F2000001F052FF014640F20440C2F2000002F0D0
:200BC00045F9012038BD40F20440C2F2000001F043FF40F204410246C2F20001024802F0B4
:200BE0001BF9012038BD00BF2A3600202DE9F04F43F2C05444F61E45C2F20004C2F20005E0
:200C00008FB022462B4601F085FF0128074602D00FB0BDE8F08F44F62446C2F2000696F830
:200C20000090B9F1000FF3D11A2095F8008007F0B3FCAC4907F0FAFA627823788DF821209F
:200C40008DF82030BDF8202040F601039A420546377006D044F62A43C2F2000383F8009083
:200C6000D6E740F27820C2F20000A11C082209F0EBFC002840F01982022744F62A43C2F2FB
:200C80000003B8F10A0F04931F7040F2878043F2C05244F6264CEDB240F2382744F62C495E
:200CA00044F6254A44F61D4B44F62F43C2F20002C2F2000C05950696C2F200074646C2F296
:200CC0000009C2F2000AC2F2000BC2F200030A25E046019262195278605D7A703870002A31
:200CE00000F0ED81DDF804C0A91C614440F2382CC2F2000CCCF8041099F80010002940F06B
:200D0000E4819AF80010002940F0DF819BF80010002940F0DA8198F80010002940F0D5816D
:200D20008038292834D8DFE810F07F01330033003300A8016F0157013F0127010F01F700DE
:200D4000DF00C4003300330033003300330033003300330033003300330033003300330026
:200D6000330033003300330033003300AD0098003300330033007F005B003C002A00197892
:200D800031B1DDF810C09CF80010022900F0048202321544EDB2AE429CD8069E002333708D
:200DA00036E719780029F3D0DDF810C09CF800100229EDD105980028EAD040F2B42240F2AE
:200DC0006511C2F20002C0F20001002011605060906007CA039302F045F87A78039BD7E71F
:200DE00019780029D4D0DDF810C09CF800100229CED105980028CBD040F2B42240F2E9619E
:200E0000C2F20002C0F200011160796800205160906007CA4FF0010E88F800E0039302F04F
:200E200021F87A78039BB3E719780029B0D0DDF810C09CF800100229AAD105980028A7D00A
:200E400040F2B42241F2AD21C2F20002C0F200011160796800205160BAE71978002997D03B
:200E6000DDF810C09CF80010022991D1059800288ED040F2B42240F20941C2F20002C0F28D
:200E80000001A2E71978002982D0DDF810C09CF8001002297FF47CAF059800283FF478AF8B
:200EA00040F2B42240F64D01C2F20002C0F20001AAE7197800293FF46BAFDDF810C09CF86C
:200EC000001002297FF464AF059800283FF460AF40F2B42240F20951C2F20002C0F200014D
:200EE00073E700BF2A360020197800293FF450AFDDF810C09CF8001002297FF449AF0598F1
:200F000000283FF445AF40F2B42241F67141C2F20002C0F2000177E7197800293FF438AFF6
:200F2000059900293FF434AF40F2B42240F2F5110498C2F20002C0F200014FF0000E506092
:200F40001160C2F808E044E7197800293FF420AFDDF810C09CF8001002297FF419AF05984B
:200F600000283FF415AF40F2B42240F29931C2F20002C0F2000128E7197800293FF408AF32
:200F8000DDF810C09CF8001002297FF401AF059800283FF4FDAE40F2B42240F26D71C2F24B
:200FA0000002C0F200012FE7197800293FF4F0AEDDF810C09CF8001002297FF4E9AE0598C0
:200FC00000283FF4E5AE40F2B42240F28941C2F20002C0F20001F8E6197800293FF4D8AE65
:200FE000DDF810C09CF8001002297FF4D1AE059800283FF4CDAE40F2B42240F63D11C2F2D8
:201000000002C0F20001FFE6DDF810C09CF8001002297FF4BDAE40F2B42240F62121C2F2B0
:201020000002C0F20001EFE6197800293FF4B0AEDDF810C09CF8001002297FF4A9AE059800
:2010400000283FF4A5AE40F2B42241F68121C2F20002C0F200014FF0000E82E802404FF45C
:201060008070906007CA4FF0010E03938BF800E001F0F8FE7A78039B8AE6197800293FF4A4
:2010800087AEDDF810C09CF8001002297FF480AE059800283FF47CAE40F2B42241F229215F
:2010A000C2F20002C0F20001D5E70320A11C07F0A5FD4FF0030900283FF4CCADDDE540F27F
:2010C0003821C2F200014A6016E640F24024FC23C2F200042371069E01F096FC397843F24E
:2010E0008853C2F2000340F23822A42923605860C2F2000240D0A52901BF516844F62D4214
:201100000978C2F2000208BF11701B68012108220B938DF829208DF82810037822798DF8BD
:201120003030837840F2DC24C2F200048B428DF83130227009D9023BDBB2611C1944FF227E
:20114000234603F8012F8B42FBD10378A42B1BD0A52B02BF44F62D43C2F200031B784FF069
:2011600001000AA94FF0020208BF63700D94FFF7EBFC002333704BE5516844F62D42497847
:20118000C2F200021170C0E744F62D43C2F200031B7863700378DBE7059800283FF4F8ADD0
:2011A0004BF218520121C0F20002039340F2B42C926908468AF80010CDF81CC09047DDF8E2
:2011C0001CC041F2F962C2F2000CC0F2000242F29001CCF800204FF0080EC4F202014FF03B
:2011E00080600022CCF808E0CCF80420CDF81CC008609CE8070001F035FEDDF81CC040F2BE
:20120000DD52C0F200024FF400710020CCF80400CCF80020CCF808109CE8070001F022FEF3
:201220007A78039BB4E500BF2DE9F04740F26824C2F200040223012740F2782E44F61F463F
:2012400043F22C55C2F2000E21461A464FF0840CC2F200064FF00008C2F200054FF0080976
:2012600038462B70C4F804E084F808C084F8019027706772E66086F800806C60FFF764FC8E
:20128000FFF734FC43F22060C2F2000001F068FE43F25C6040F6E9224346C2F20000C0F247
:2012A00000028021BDE8F04705F0FAB82DE9F84F40F2A0260278C2F2000644F62843327038
:2012C000C2F2000341781B78717033B144F63248C2F2000898F80000B0BB40F2A435C2F21C
:2012E0000005FB232B7040F2243440F27823C2F2000401260820C2F20003A6210622267096
:201300006070636021726272FF236B70AB70EB702B716B7143F2F44640F2183341F6F522AE
:20132000C2F20006C2F20003C0F2000283E844000021022799607460377093E80700E56054
:20134000BDE8F84F01F08EBD44F61040C2F20000008842EA012290427DD303FB02F290B2FA
:2013600040F2243400EB030BC2F200044FF0080A58454FF001014FF0AF0E40F2A43540F2CA
:20138000782944F6224284F801A0C2F200054FF0000CC2F20009C2F200024FF002072170A1
:2013A00084F808E04FF0A00143F2C44EB8BF40F2984A85F800C0E660637467722174C4F893
:2013C00004901370BCBFC2F2000EC2F2000A49DA0CF10202724400230AEB0007F95C013379
:2013E000032B02F80119F9D1033080B20CF1030C58455FFA8CFCEBDB40F22431C2F20001F0
:2014000003220220C4F814E0FFF79EFB2A7840F2A4334FF0010C0827A6200621C4F80490E3
:20142000C2F2000384F800C0677020726172002A7FF46AAF43F22062C2F20002977B98F8B8
:2014400000C030787178032283F803C05F70187159719A705EE740F2A435C2F20005FF2381
:201460002B7040E7C2F2000EC6E700BF2DE9F04F44F61246C2F20006348844F60C4987B059
:20148000C2F20009E4B944F62943C2F200031D78027844F63643C2F200031A70002D00F075
:2014A000DC8043F22063C2F200039B7B0222013B02FA03F344F60C49C2F20009A9F80030DC
:2014C00044F6284844F60847C2F2000898F80030C2F2000740F2003E40F27821C2F2000EA5
:2014E0003A88C2F2000104EB030B01918EF81130A0235C454FEA122C4FF001058EF8103039
:20150000019B4FF008004FF0AF018DF80C208DF80DC04FF002020DF10C0C8EF80050B8BF50
:2015200040F2984A43F2FC45CEF80CC08EF801008EF808108EF80920CEF80430BEBFC2F290
:201540000005C2F2000A4FF0000C80F2D2800CF102022A4400230AEB0400C15C0133032BAF
:2015600002F80119F9D10334A4B20CF1030C5C455FFA8CFCEBDB40F20034C2F20004214627
:201580000322CEF814500220FFF7DEFA98F800003388B9F80020398803449BB202EB42026A
:2015A000013144F6124844F60845934233803980C2F20008C2F200050EDA43F25C6041F21C
:2015C0006D42C2F20000C0F200020321002304F067FF07B0BDE8F08F44F63647C2F2000706
:2015E00097F800B00199CDF800B0616043F2A84300994FF0020CC2F200034FF0010A4FF096
:20160000080B4FF0A50940F2F03E0026C2F2000E62465970E360214684F809C0504684F810
:2016200000A084F801B084F808901E70CEF804408EF800C0FFF788FA06A844F62C43C2F268
:20164000000300F80DAD3E70A8F800602E801E7000F052F807B0BDE8F08F40F2003440F23E
:201660007821C2F200044FF002084FF001094FF0080CC2F200014FF0A50E40F2F03741F6FD
:20168000F52284F801C0616084F808E0C2F2000784F8009084F80980C0F2000243F2A84E26
:2016A00090F80090C2F2000E0595049703920DF1180B44F6084CC2F2000C4FF0FA0A1BE9D0
:2016C0000700C4F80CE083F8009035808EF801908EF800A07C6087F80080ACF8005001F09E
:2016E000C1FB44F62C43C2F200031D7007B0BDE8F08FC2F200053EE72DE9F04F44F627468C
:20170000C2F20006337883B00746002B52D144F64C44C2F20004254601E06B7853B944F69F
:201720004C40C2F2000042F6104101F0E9FF2378002BF2D043F22064C2F20004A27B4FF0B2
:201740000208013A08FA02F244F60E4340F2BC35C2F20003C2F200052F601A8001F0E6FD33
:201760002D68002D00F0F08001F06CFE0B2001F06FFE1021012001F03FFEE17B404601F010
:201780003BFE217C032001F037FE617C042001F033FE43F25C6041F2F9620124C2F20000AF
:2017A000C0F2000280210023347003B0BDE8F04F04F076BE44F60A44C2F2000401F03CFEE3
:2017C000208840F29843C2F20003184401F026FE01F038FE44F60E432188C2F200031A8878
:2017E000CB1C9BB202EB420293422380C0F2C28040F2BC35C2F200052B684FF00009A4F8C5
:201800000090002B00F0918040F2C03340F2782844F62E4CC2F200030127C2F2000C4FF083
:20182000020A082043F2546E44F635444FF0A30BC2F20008C2F2000E58701946C2F2000480
:201840005246384683F808B01F705F72C3F80480C3F80CC08CF80090CEF804308EF800A0E5
:20186000FFF772F92770002737702F6001F0EAFD01F090FD01F07EFF44F6484342F2A002B4
:20188000C4F202024FF08061C2F2000318601160217844F62542C2F20002177000297BD1E2
:2018A00040F2C02440F25025C2F20004FF23C2F200054FF0FB0E01270826A4200B22617078
:2018C00084F800E0A370E37023716371A371E37123726372A372C5F804802F706E7028729F
:2018E0006A72022643F2BC4340F25021C2F200033246C2F200010120EC605D601E70FFF77B
:2019000023F923782BB944F62943C2F2000301221A7044F62C43C2F20003012200201A70F5
:2019200003B0BDE8F04FFFF7A1BD44F6354444F62942C2F20004C2F2000240F27828237091
:201940001370C2F200088EE701F07CFD0B2001F07FFD1021012001F04FFD2946404601F05C
:201960004BFD2946032001F047FD2946042001F043FD0EE702F0C6FF0022014641F2F963F0
:2019800043F27C600092C0F20003C2F2000005F06BF803B0BDE8F08F43F22061C2F20001A1
:2019A0008A7B0220013A00FA02F296B2120744F64C4208BF3611C2F2000208BF06F1FF36F7
:2019C00092F8019040F2C024C2F200040CBFB6B236094FF0080E84F8099026FA0EF9277084
:2019E0001F6892F800C091F80EA044F632404FEA172B0121C2F2000040F2502544F6284297
:201A000044F61043C2F20005C2F20002C2F20003E77184F808B0A4274FF00B0B84F802A049
:201A200084F80AC04FF0300A4FF0000C01700320667121712970C5F8048085F801E02F72C6
:201A400085F809B082F800A01E8084F8069084F801C0E07045E700BF42F29002C4F202028E
:201A60004FF0806144F6254340F206201160C2F200030122C2F200001A70FFF73DBE00BF13
:201A80002DE9F04740F27844C2F200040127022340F2782E44F61C4640F2D035C2F2000E99
:201AA00021464FF08009C2F200064FF00008C2F200051A464FF0080C38462B7084F801C034
:201AC000C4F804E02770677284F80890E66086F800806C60FFF738F843F25C6040F6E9227A
:201AE00049464346C2F20000C0F20002BDE8F04704F0D6BC416802780120FFF725B800BF2E
:201B000008B500F17803DBB23C2B4AF6AC13C0F2000391BF0146DB6A07206FF063019CBFD3
:201B2000DB6A0720984708BDF0B5832983B0044600F08B8023888BB140F62312934208D1CC
:201B4000882900F0898040F623130120238003B0F0BD00230320238003B0F0BD42F2A0032B
:201B6000C4F202034FF0806240F2782043F220651A60C2F200000821C2F2000503F046F8C4
:201B8000284601F0E7F92A6842F20543C0F6DC239A4204D0FEF7AAFF284601F0E1F940F28A
:201BA000782640F2CC23C2F20003C2F2000696E8030043F2885283E803004BF2E841C2F2DD
:201BC00000020027C0F2000128481F72DA6082E8880006F02BFB44F62F43C2F20003002855
:201BE00038D101221A7000F09FFAF6794AF6AC1243F2A453C0F20002C2F20003D26A297BC2
:201C000006F07F0601201E609047687BFFF778FF01F078F840F6ED30C0F20000002101F00B
:201C2000B9F840F2D830C2F20000802104F046FD43F25C6041F65922C2F20000C0F2000222
:201C40008021002304F02CFC7DE7019101F0D4F801996FE71F70C6E740F2D830C2F20000D7
:201C60004FF4485104F02AFD6DE700BF2A3600202DE9F043037843F2206403F17802D2B26B
:201C8000C2F200043C2A667B85B063733DD944F63345C2F20005FF2366732B7040F2543469
:201CA00041F6F522C2F200040027C0F200020294019203970DF1100E40F2684340F27826B7
:201CC000C2F200034FF08B0C1EE907004FF008084FF0010EC2F20006DD6083F801805E601B
:201CE00083F808C083F800E083F809E04FF00209636084F8009001F0B5F844F62643C2F2D4
:201D000000031F7005B0BDE8F083204601F028F944F6334540B9C2F20005F723204666732F
:201D20002B7001F01DF9B9E7C2F200050023607B2B70FFF7E5FEB1E7F0B5002783B0054654
:201D40003E463C46284600F0D9F90194019B9E4206DD00BF019B01330193019B9E42F8DCE6
:201D6000284600F0D5F90194019BC6F5C876B34206DA00BF019B01330193019BB342F8DBB1
:201D80000137B7F5487F06D0B7F5C87FCCBFC7F548763E46D6E703B0F0BD00BF2DE9F04123
:201DA0004FF4EC74C1F2000423684FF4804084B05B68C4F2030001219847236801214FF49A
:201DC00080400A461B68C4F20300984705F0A4FA03F046F903F004F901F012FD03F012F925
:201DE00000F082F944F20C000821C4F209010123C4F2090042F22C02C4F2090203600B6079
:201E000018461368FFF798FF05F08AFA02F07CFD02F0E0FC04F026FE02F07EFE04F036FDFD
:201E200041F2342003F098FC02F016FF04F0CAFE4AF6BC00C0F2000002F0B2FE05F0CEF9C5
:201E40004AF6B8054AF6B40410F0040FC0F20005C0F200040CBFA846A04605F0C7F9012890
:201E600014BF2F46274605F0B9F910F0020F0CBF2E46264605F0B2F910F0080F08BF2C465A
:201E80004AF6D0003A46334600944146C0F2000003F0BAFD40F2B8000021C2F2000004F00F
:201EA000AFFD04F0C1FA04F03DFB1020FFF744FF4AF60410C0F2000003F0A6FD4BF2CC434A
:201EC000C0F20003186802F06BFE4AF60C10C0F2000003F099FD4BF2F443C0F20003186832
:201EE00002F05EFE4AF61410C0F200004BF2185403F08AFDC0F200044AF61C102168C0F2FE
:201F0000000003F081FDE469A04738B1A04701464AF62010C0F2000003F076FD0A2002F061
:201F200037FE06F08DF902A8082102F06FFE4AF6AC149DF80F20BDF80E109DF80E6044F6EA
:201F4000D043C2F20003C0F20004198042EA0626E56A4AF6CD310220A84731460320A847E9
:201F600000210120A847636B082202A90B2098470420FFF7E1FE40F210000021C2F2000073
:201F800004F03EFD4AF69000C0F2000004F0EEF902F0D2FD1020FFF7CFFE04F095FC044632
:201FA00002F0E4FD14F0FF0FF7D102F0B7FEF4E72DE9F04105888046772D42D07E2D36D0F1
:201FC00025B1002303800320BDE8F08104F056FC40F23806C2F2000644F6105343F288641E
:201FE0003268C2F20003C2F2000418702560002A62D02B4644F6CC451F46C2F20005EF5452
:2020000093688020002198472368013356F823202360002AF3D1DBB244F63741C2F2000170
:202020000B707723A8F800300120BDE8F08144F61053C2F200031B788B4223D00120BDE817
:20204000F08144F63747C2F2000743F2886443F28C663A78C2F20004C2F200060023934238
:20206000336023600ADA44F6CC45C2F20005E956002923DB013393422360F4DB3368002BDB
:20208000ECD1CEE743F2886444F6CC4544F6374743F28C66C2F20004C2F20005C2F2000757
:2020A000C2F2000623683268E85C511C00F07F003A78E8543160DDE71346ADE744F6105156
:2020C00040F23802C2F20001C2F20002097852F82320002004F062FC0028E3D17E23A8F88C
:2020E00000300120BDE8F08108B501F0B9FD44F63843C2F2000300221A7008BD44F6384383
:20210000C2F200031A78024310461A7001F0C8BD44F63843C2F200031A7822EA0002104679
:202120001A7001F0BDBD00BFF0B444F6C842C2F20002167844F65043C2F20003002E00F01D
:202140005B84197801291AD0751EEDB205EB45051D44184603E010F8034F012C0DD0A8429F
:20216000F9D106EB46010136F6B20125581808245D54167044708EB11978022919D044F6B3
:202180005044C2F200041678002003E014F8035F022D0CD00130C0B2B042F7D306EB460053
:2021A000022119541C18013661701978167006291AD044F65044C2F200041678002003E00C
:2021C00014F8035F062D0DD00130C0B2B042F7D306EB4601062058540136581801241978BB
:2021E0001670447010291AD044F65044C2F200041678002003E014F8035F102D0DD00130B2
:20220000C0B2B042F7D306EB46011020585401365818012419781670447011291AD044F687
:202220005044C2F200041678002003E014F8035F112D0DD00130C0B2B042F7D306EB4601A1
:202240001120585401365818022419781670447012291AD044F65044C2F2000416780020B0
:2022600003E014F8035F122D0DD00130C0B2B042F7D306EB460112205854013658180224AF
:2022800019781670447014291AD044F65044C2F200041678002003E014F8035F142D0DD0A9
:2022A0000130C0B2B042F7D306EB46011420585401365818022419781670447021291AD0DB
:2022C00044F65044C2F200041678002003E014F8035F212D0DD00130C0B2B042F7D306EBFE
:2022E000460121205854013658180224197816704470AF291AD044F65044C2F2000416783C
:20230000002003E014F8035FAF2D0DD00130C0B2B042F7D306EB4601AF20585401365818DA
:202320000224197816704470A0291AD044F65044C2F200041678002003E014F8035FA02DA7
:202340000DD00130C0B2B042F7D306EB4601A0205854013658183024197816704470762938
:202360001BD044F65044C2F200041678002003E014F8035F762D0ED00130C0B2B042F7D30D
:2023800006EB460076211954012418440136197816704470847077291CD044F65044C2F27D
:2023A00000041678002003E014F8035F772D0FD00130C0B2B042F7D306EB460077211954FC
:2023C0000136184400250124197816704570847078291CD044F65044C2F20004167800209F
:2023E00003E014F8035F782D0FD00130C0B2B042F7D306EB460078211954013618440025B4
:202400000124197816704570847070291CD044F65044C2F200041678002003E014F8035FCD
:20242000702D0FD00130C0B2B042F7D306EB46007021195401361844002501241978167098
:202440004570847079291BD044F65044C2F200041678002003E014F8035F792D0ED001300C
:20246000C0B2B042F7D306EB46007921195401241844013619781670447084707A291CD0EA
:2024800044F65044C2F200041678002003E014F8035F7A2D0FD00130C0B2B042F7D306EBE1
:2024A00046007A2119540136184400250124197816704570847080291CD044F65044C2F21A
:2024C00000041678002003E014F8035F802D0FD00130C0B2B042F7D306EB460080211954C9
:2024E0000136184400250124197816704570847081291CD044F65044C2F200041678002075
:2025000003E014F8035F812D0FD00130C0B2B042F7D306EB4600812119540136184402257E
:202520000124197816704570847082291CD044F65044C2F200041678002003E014F8035F9A
:20254000822D0FD00130C0B2B042F7D306EB46008221195401361844002501241978167053
:202560004570847084291CD044F65044C2F200041678002003E014F8035F842D0FD00130D3
:20258000C0B2B042F7D306EB46008421195401361844002501241978167045708470852979
:2025A0001CD044F65044C2F200041678002003E014F8035F852D0FD00130C0B2B042F7D3BA
:2025C00006EB4600852119540136184408250124197816704570847086291BD044F65044A4
:2025E000C2F200041678002003E014F8035F862D0ED00130C0B2B042F7D306EB4600862156
:202600001954012418440136197816704470847087291CD044F65044C2F200041678002006
:2026200003E014F8035F872D0FD00130C0B2B042F7D306EB46008721195401361844002553
:202640000124197816704570847088291CD044F65044C2F200041678002003E014F8035F73
:20266000882D0FD00130C0B2B042F7D306EB46008821195401361844102501241978167016
:202680004570847089291CD044F65044C2F200041678002003E014F8035F892D0FD00130A8
:2026A000C0B2B042F7D306EB46008921195401361844002510241978167045708470A12928
:2026C0001BD044F65044C2F200041678002003E014F8035FA12D0ED00130C0B2B042F7D37F
:2026E00006EB4600A12119540124184401361978167044708470A2291CD044F65044C2F2C4
:2027000000041678002003E014F8035FA22D0FD00130C0B2B042F7D306EB4600A221195442
:2027200001361844002501241978167045708470A3291CD044F65044C2F200041678002010
:2027400003E014F8035FA32D0FD00130C0B2B042F7D306EB4600A3211954013618440025FA
:2027600001241978167045708470A4291CD044F65044C2F200041678002003E014F8035F36
:20278000A42D0FD00130C0B2B042F7D306EB4600A42119540136184402250B2419781670C1
:2027A00045708470A5291CD044F65044C2F200041678002003E014F8035FA52D0FD001304F
:2027C000C0B28642F7D806EB4600A5211954013618440125022419781670457084708A2934
:2027E0001CD044F65044C2F200041678002003E014F8035F8A2D0FD00130C0B2B042F7D373
:2028000006EB46008A2119540136184400252F2419781670457084708B291BD044F6504431
:20282000C2F200041678002003E014F8035F8B2D0ED00130C0B2B042F7D306EB46008B2109
:20284000195401241844013619781670447084708C291CD044F65044C2F2000416780020BF
:2028600003E014F8035F8C2D0FD00130C0B2B042F7D306EB46008C21195401361844002507
:20288000012419781670457084708D291CD044F65044C2F200041678002003E014F8035F2C
:2028A0008D2D0FD00130C0B2B042F7D306EB46008D211954013618440C25012419781670CE
:2028C000457084708E291CD044F65044C2F200041678002003E014F8035F8E2D0FD001305C
:2028E000C0B2B042F7D306EB46008E2119540136184400250C241978167045708470A629E0
:202900001CD044F65044C2F200041678002003E014F8035FA62D0FD00130C0B2B042F7D335
:2029200006EB4600A621195401361844022506241978167045708470A8291CD044F65044FD
:20294000C2F200041678002003E014F8035FA82D0FD00130C0B2B042F7D306EB4600A821AD
:20296000195401361844002505241978167045708470A72924D044F65044C2F20004167871
:20298000002003E014F8035FA72D17D00130C0B2B042F7D306EB4604751C1819EDB24FF0D1
:2029A000A70C0427012644F6504103F804C01570C2F20001477086708DB10978A92919D027
:2029C00044F65040C2F200001578002103E010F8034FA92C0ED00131C9B2A942F7D305EB89
:2029E000450019180135A927002601241F5415704E708C70F0BC7047012108205870197060
:202A00001170FFF7B9BB00BF70B444F6C843C2F200031D78F5B144F65046C2F2000633787C
:202A2000834211D0013DEDB201353246012303E012F8031F814208D0AB421C4603F1010350
:202A4000F6D1002070BC7047002404EB4404A01970BC70472846F5E740780230C0B2704758
:202A600070B543784A780D46991C11446229044602DC0178402901D0002070BD591C465C8D
:202A800008447D2EF8D103321344E6542B7863546B784370696819B102306A7807F008FE14
:202AA0006B786278023313446370012070BD00BFF8B545780446602D02DC0378402B01D017
:202AC0000020F8BD6E1C835D87197D2BF8D1AB1C294600F8013F002204F08AF8A15D034659
:202AE000020A03356155A3557A700120F8BD00BF042910B481BF022140247D23827083BFD9
:202B000004704170C370002088BF01205DF8044B704700BF2DE9F84F0F4606469046994608
:202B2000002400F1010B00F1030A21B914E00134A4B2A74210D9355D402DF8D133195D7862
:202B400002352C44BC421EDC741914F8013C7D2B05D00124A742EED8FF20BDE8F88F002242
:202B60005846291F04F044F814F8022C14F8033C03EB02239842ECD1B378012B09D0AF42EF
:202B800004D02C46D5E70020BDE8F88F0120BDE8F88FAC1F22464046514607F089FD89F84C
:202BA0000040ECE72DE9F04704880746752C1BD08F2C06D0002C49D0002303800320BDE80C
:202BC000F08785294FD143F2946443F2906643F29865C2F20004C2F20006C2F200050023D8
:202BE00023603360A5F8803043F2946643F2A47543F29068C2F20006C2F20005C2F2000899
:202C00004FF0000A4FF001090BE033687E2BE854D9BF01332360C4F800A0C8F800907D2817
:202C200024D043F29C70C2F2000004F089F843F2946443F2A471431CC2F20004C2F20001F3
:202C4000E3D175233B800120BDE8F08703F016FE44F6115243F29463C2F20002C2F20003F3
:202C600010701C60C0E70120BDE8F08743F29066C2F2000633685BBBD4F8008043F2986560
:202C8000C2F2000543F2A47128464246C2F2000107F00EFDA5F8808044F61153C2F2000392
:202CA00043F298621978C2F20002002003F076FE44F24803C2F2000318688521002203F0A4
:202CC0006DFE00288BD18F233B800120BDE8F087D4F8008043F29865C2F20005C8F18009E2
:202CE00041444A46284607F0E3FC43F2A47105EB09004246C2F2000107F0DAFC8023A5F8EE
:202D00008030C9E708B543F29C7043F21C71C2F20000C2F20001802204F00AF8BDE80840A5
:202D200040F22000C2F20000002103F069BE00BF704700BF704700BF704700BF38B540F212
:202D40003003C2F200035C6805F03CFB054605F051FB01462846A04738BD00BF38B540F29E
:202D60003003C2F200031C6805F02CFB054605F041FB01462846A04738BD00BF08B51B2005
:202D800005F00AFCBDE808404BF2E841C0F2000105F04CBA38B54AF65C12054643F62400F4
:202DA000C2F20000C0F200020C46922104F0D0F843F640004AF66412C2F20000C0F2000253
:202DC000812103F0E9FF40F230032DB1C2F200031D6054B15C6038BD42F63152C2F20003D7
:202DE000C0F200021A60002CF4D142F63552C0F200025A6038BD00BF08B543F62400C2F205
:202E0000000004F0B9F8BDE8084043F64000C2F2000003F0D5BF00BF38B544F6D043C2F2BF
:202E200000031D88038804469D420CD00846114605F030FB43F624002146C2F2000004F029
:202E40009DF8012038BD002038BD00BF08B505F021FB43F64000C2F2000003F0B3FF012032
:202E600008BD00BF2DE9F04F85B004AB03E90700DDF80480029EDDF80CA0B8F1000F0DD093
:202E800043F65804C2F200040025204603F02CFB38B901350F2D04F12004F6D105B0BDE8A3
:202EA000F08F204651464246334616B343F6382C4FEA850BC2F2000C0BEB050906F1200388
:202EC0000CEBC9090093F36830687168B2684F460FC7009B10369E42B946F4D1306871684F
:202EE0000BEB0503A9E803000CEBC30342462046514605B0BDE8F04F03F0D2BAF8B50646ED
:202F00000D46174600F0F6F8044628B1304639462A4600F02DF9044600F022F92046F8BD15
:202F200070B505460E46144600F0E4F870B12846214600F0A3F948B121463246284600F0EF
:202F400043F9044600F00CF9204670BD00F008F9002070BD014624220020FFF7CFBF00BF35
:202F6000014624220020FFF7DBBF00BF10B542F2A00382B0062202A8C4F202034FF4801423
:202F800000F8042D01211C6006F026F942F29003C4F202031C6002B010BD00BF30B54AF6F4
:202FA0006C13C0F20003186842F2A00383B00024C4F202034FF4801501908DF800408DF8C1
:202FC000014001A81D60042106F006F938B942F29003C4F202031D60FF2003B030BD684613
:202FE000022106F019F942F29003C4F202031D6010B9FF2003B030BD9DF80030C22B18BF96
:20300000EF2B18BF2046E8D19DF80130A3F11400113BC0B2DBB2012888BF012B94BF0020D8
:20302000012080F00100D8E730B542F2A00383B0C4F20203052202AC4FF4801504F8042DBB
:203040001D6006F00FF92046012106F0C5F820B913E09DF80730DB0716D50DF1070001212E
:2030600006F0DAF80028F4D142F29003C4F202034FF480121A6003B030BD42F29003C4F2AD
:2030800002031D6003B030BD42F29003C4F202034FF4801201201A6003B030BD10B582B085
:2030A000FFF7C2FF08B902B010BD42F2A003C4F202034FF48014B92202A800F8012D0121E3
:2030C0001C6006F089F842F29003C4F202031C600A24FFF763FF631E0028E4D013F0FF0416
:2030E000F7D142F29003C4F202034FF480121A6002B010BD10B54FF4106082B00A21C0F231
:203100003D0006F0C3F84FF4DA73C1F200031B681420DB6B984742F2900142F2A003C4F24D
:2031200002014FF48012AB2402A8C4F202030A6000F8014D01211A6006F04EF808B1FFF74C
:2031400073FF42F29003C4F202034FF480121A60FFF724FF421E5042504102B010BD00BF52
:2031600008B5FFF79BFFBDE8084006F0F5B800BFF0B583B004460E461746FFF755FF08B9D5
:2031800003B0F0BD42F2A0030320210CC4F20203220A4FF480158DF804008DF805108DF841
:2031A00007408DF8062001A81D60042106F014F818B13846314606F02FF842F29003C4F278
:2031C00002031D6003B0F0BD2DE9F04F0D4683B00446164600294BD042F2A00842F290099F
:2031E000C4F20208C4F202094FF0020A4FF480172AE0FFF7BBFEE3B2C3F580734FEA144C97
:20320000220A0421AB4234BF9B46AB4600B38DF806208DF807408DF804A08DF805C00DEB16
:203220000100C8F8007005F0D7FF0246594630465C44CBEB050582B105F0CEFF024660B187
:20324000C9F800705E449DB1FFF7EEFE0028D0D10022104603B0BDE8F08F42F29003C4F2D6
:2032600002034FF480111046196003B0BDE8F08F0122104603B0BDE8F08F00BF2DE9F04773
:2032800001F6FE71040B01EB000A2403C4EB0A0A82B020235FEA1A3A8DF804302FD00025EA
:2032A00042F2A00742F29008A946C4F20207C4F202084FF4801619E0FFF758FE220C230A80
:2032C000042104F58054B0B18DF806308DF805208DF807900DEB01003E6005F07DFF4FF4CF
:2032E000801380B15545C8F8006008D00135FFF79BFE0028E0D1002002B0BDE8F0870120CB
:2033000002B0BDE8F08742F29002C4F20202136002B0BDE8F08700BF08B5FFF7EBFEFFF7CD
:20332000BDFEBDE8084006F017B800BF38B500F047F94FF4DA73C1F200031B680C20DB6B09
:2033400042F2A0049847C4F202044FF480554FF4DA73256065F31F431B680D20DB6B98473E
:203360004FF400524FF4DA73226065F31F431B680E20DB6B98474FF480424FF4DA732260FF
:2033800065F31F431B680F20DB6B98474FF40043236038BD10B54FF4DA74C1F20004236806
:2033A0000C209B6B984723684FF400510C209B69984723680D209B6B984723684FF4005112
:2033C0000D209B69984723680E209B6B984723684FF400510E209B69984723680F209B6B4F
:2033E000984723680F209B694FF400519847BDE8104000F013B900BF00B583B002AA02F8BF
:20340000011D01230146402000F03CF900280CBFFF20012003B05DF804FB00BF4FF403530C
:203420000246C4F20203196811F00071FBD11220042300F0F5B800BF00210A460B4609202A
:2034400000F020B900210A460B460B2000F01AB930B40B281BD8DFE800F06273889D061C16
:20346000324D061C324842F2900242F2A003C4F20203C4F202024FF480554FF400544FF42D
:2034800080404FF4004115601C601860196030BC704742F2900242F2A003C4F202024FF4C9
:2034A0008055C4F202034FF400544FF480404FF4004115601C601060196030BC704742F2AD
:2034C000900342F2A002C4F202034FF48055C4F202024FF400544FF480404FF400411D605B
:2034E00014601060196030BC704742F2A00242F29003BCE742F2900342F2A002C4F2020334
:203500004FF48055C4F202024FF400544FF480404FF400411D60146018601960B7E742F207
:20352000A003C4F202034FF480544FF400504FF480414FF400421C60186019601A60A6E786
:2035400042F2A00342F29002C4F202034FF480554FF40054C4F202024FF480404FF4004123
:203560001D601C601060196091E742F2A00342F29002C4F202034FF480554FF400544FF4A7
:203580008040C4F202024FF400411D601C60186011607CE742F2A00242F29003C4F2020291
:2035A000C4F202034FF480554FF400544FF480404FF40041156014601860196067E700BF33
:2035C00010B54FF4DA74C1F2000423681E20DB6B984723681D20DB6B984723681C209B6B36
:2035E000984723684FF480411C209B69984723681B20DB6B9847236819209B6B984723681F
:2036000019209B694FF4804198474FF41060C0F23D001E2105F03EFF012010BD05F0A8BF2D
:2036200070B501F00F011C4642F2A00582B00143C4F202054FF00063002C18BF12288DF892
:20364000041016462B6011D101A8012105F0D4FEA8B13046214605F0F3FE42F29003C4F262
:2036600002034FF000621A6002B070BD631E01A802218DF8053005F0BFFE0028E9D1002090
:2036800002B070BD70B5052B84B026D801F00F0142F2A0040843C4F202044FF000658DF8BB
:2036A00004002560E3B1591E8DF805100020461C04AC044412F8015BF0B2834204F80A5C33
:2036C000F5D8991C01A805F097FE30B142F29003C4F202034FF000621A60002004B070BDB6
:2036E00001A8022105F088FE0028EFD1F5E700BF08B5FFF765FFBDE8084005F039BF00BF50
:2037000070B543F694440B0AC2F200040D4606464A2100202370657000F024FA204602217D
:2037200000F038F928B1A5F53055063DADB20A2D05D90020014600F015FAFF2070BD0124E2
:2037400004FA05F540F281432B40002BF1D043F69045C2F200052846032100F095F9002825
:20376000E7D02B8800200146338000F0FBF9204670BD00BF4FF40073C4F22233012141F279
:20378000140210B5C4F20902196013689B06FCD54FF4D074C1F20004236891201B6898474B
:2037A000236891209B6898471128F9D14823C1F20003586C092103F005FC00200921024653
:2037C00003F084FC49F21C03C4F20C0300221A6003F0F6FC044603F025FC204610BD00BF86
:2037E00010B54FF4DC74C1F20004236804205B699847236804205B6B98470128F9D110BD54
:20380000F0B589B003F088FD0746FFF7E9FF4FF4DC73C1F200031B684FF4A060DB699847F6
:2038200042F22803C6F20803012142F228021960C4F2080213689907FCD54AF67014C0F24B
:20384000000401AD0FCC0FC594E80700019C85E80700621C1EBF4FF4DA7501AEC1F200051F
:203860000DD02B6820469B6B98472B6820469B694FF40051984756F8044F631CF1D14FF4F8
:20388000DA73C1F200031B681A20DB6B984742F2A003C4F202034FF080621A60FFF728FFF9
:2038A000FFF73AFD40F24000C2F2000001F088FB0FB109B0F0BD09B0BDE8F04003F030BDAD
:2038C00010B54FF4D673C1F200031B684FF400505B68C4F20000984710F00C0F044608D036
:2038E00042F60403C4F2000304221A60022003F01BFDD4F1010038BF002010BD08B54FF459
:20390000DC73C1F200031B6802205B6B9847012801BF42F26003C4F20803186800F00100A6
:2039200018BF002008BD00BF38B54FF4DC75C1F200052B6802205B6998472B6802205B6B00
:2039400098474FF4DC7301280446C1F20003F4D11B684FF44070DB69984742F22803C6F258
:20396000080342F228021C60C4F2080213689B07FCD54FF4D673C1F200031B684FF400505C
:203980004FF4D8411B68C4F20000C0F2DC210122984738BD2DE9F84F44F63943C2F2000322
:2039A0001A784FF420535200C4F200031A60064642F608020078C4F2000242F6040388466F
:2039C0001060C4F200031A6842F604045106C4F20004F8D403232360022003F0A5FC236835
:2039E000DA07FCD4FFF76CFFB8F1010F034631D968B3344614F8012F42F6080708F1FF3A5F
:203A0000A31B42F6040BC4F200075345C4F2000B4FF002054FF001093A6008D345451BD210
:203A200014F8012F0135A31B53453A60F6D2CBF80090022003F078FCDBF80030DB07FBD4CC
:203A4000FFF73EFF4545034604D20028E8D10020BDE8F88F002BFAD042F60404C4F200046E
:203A600005232360022003F05FFC2368DD07FCD4FFF726FF42F60402C4F2000213685C06FE
:203A8000FCD4BDE8F88F00BF2DE9F04F44F63943C2F200031C784FF42052640044F00104C3
:203AA000C4F2000242F6040383B0824689461460C4F200031D6842F6040615F04005C4F251
:203AC0000006F7D10B233360022042F6080803F02BFCC4F2000809F1FF3701234FF0090B6E
:203AE000AF421BDD53B3336842F60404DB07C4F20004F8D4FFF7E4FE03460028F0D0D8F8BB
:203B0000002002200AF805200135C4F800B0EDB2019303F009FCAF42019BE3DC73B142F6C7
:203B20000404C4F2000405232360022003F0FCFB2368D807FCD4FFF7C3FE18B9002003B077
:203B4000BDE8F08F42F60803C4F200031B68D14442F6040209F8013CC4F20002136859069F
:203B6000EDD5FBE744F6394310B5C2F2000304461970FFF7C3FE38B340F20723C2F20003E7
:203B80001A78A2421FD042F604004FF482620021C4F20000C4F205221C70016011601B78B8
:203BA000ABB1012B37D04FF4D673C1F200031B684FF400504FF4D8411B68C4F20000C0F2D7
:203BC000DC210122984710BDFFF7AEFED4E74FF4DA74C1F20004236803209B694FF4C0417E
:203BE0009847236802209B694FF4C041984723684FF4005003210222DB6CC4F200009847D0
:203C000023684FF0FF309B6B984723684FF0FF309B6B9847C7E74FF4DA74C1F20004236867
:203C20004FF0FF309B694FF4C041984723684FF0FF309B694FF4C041984723684FF0FF31D5
:203C40004FF400500A46DB6CC4F200009847236803209B6B9847236802209B6B9847A2E7F7
:203C600038B543F69843C2F200031A68BAB901254FF4DA74C1F200041D6023680620DB6BB5
:203C8000984723682846DB6B984723680720DB6B984742F2A003C4F20203C2221A6038BD6B
:203CA00044F63A43C2F20003187042F2A002C30748BF42F29003C4F202024FF0C20148BFDD
:203CC000C4F20203116044BF40221A60410741BF42F29003C4F2020302221A60820741BFE8
:203CE00042F29003C4F2020380221A60030707D542F29003C4F202030221802219601A6006
:203D0000C10607D542F29003C4F202034021022219601A60820607D542F29003C4F2020320
:203D20004021802219601A60430609D542F29003C4F20203402002218022186019601A6054
:203D4000704700BF00207047B0F1810358425841704700BF813801288CBF00200120704723
:203D6000012070470120704708B501F023FA48B140F21413C2F200035888022814BF0220C0
:203D8000012008BD022008BD10B582B001F080FC044601F00FFA08B902B010BD0120C0F29B
:203DA000014001A901F00EFA0128F5D1638803F44063002BF0D1638803F44063002BF5D04A
:203DC000EAE700BF30B583B001F0F4F940F21414C2F20004A8B900256580A37F40F2141068
:203DE0005BB2C3F5FF6307339BB2C2F2000001A9238301F0E7F9012818BF284608D003B047
:203E000030BD6388022B08BF0120E4D103B030BD00F078FD4FF6C075CFF6FF752D1A03E01E
:203E200000F070FDC54203D563889BB2022BF7D1608880B2831E58425841E0E708B5B329CB
:203E400094BF0A46B4220146024806F031FC002008BD00BFB63C002070B543F6A845C2F280
:203E600000052C68002603E024682B68A3420DD02379032BF8D140F26C00C2F2000002F0E8
:203E8000E1FD24682B680136A342F1D1304670BDF8B543F6B044C2F2000425682B79032BB3
:203EA00018BF002601D03046F8BD2E89023E002E0CDD8E4205F10A070EDDB957042089B2CA
:203EC00004F04EFB03207F2104F04AFB2B68002223602A713046F8BD3946324606F0E8FBDB
:203EE000EBE700BF10B582B001F064F9F8B140F21414C2F2000463880120022B15D101A968
:203F0000C0F2014001F05EF902E06388022B03D101F050F90028F8D16088A0F55050043814
:203F200080B201288CBF0020012002B010BD012002B010BD10B540F2680340F25C14C2F2C3
:203F40000004C2F200031A680521237E84F82410928882B003F0F80343F00803204601A925
:203F60006283237601F02EF9012818BF002001D002B010BD204601F07BF9421E50425041ED
:203F800002B010BD00B540F2441083B0C2F2000001A901F017F9012818BF002002D003B030
:203FA0005DF804FB40F24410C2F2000001F060F9411E4842484103B05DF804FB08B5FFF7FD
:203FC000B9FF012801D0002008BDFFF7DBFF0128F9D1FFF7F7FEC0B208BD00BF08B501F0F8
:203FE000AFFB01280BD0FFF77DFF01F043FA01F097F840F21413C2F2000300225A800120C6
:2040000008BD00BF2DE9F84F01F09AFB01282AD001F054F801F0CEF8F0B901F0CBF804467B
:2040200020B3002001F0D2FA8B4A0027A2F18C0E734602F50C760225842459791A6001F069
:20404000FC0110468C3265F38301B2421F71DC80597115D00346F0E740F21413C2F20003B4
:204060005B88022BD9D10120BDE8F88F01F01AF90128054610D001F0FDF90020BDE8F88FAE
:20408000CEF8A4E101F032F8FFF754FF012800F0D9800020BDE8F88F01F06EFA40F21C40CC
:2040A0004BF29801C0F200014FF42C72C2F2001006F0FEFA4FF4647B40F2793840F2753CFC
:2040C000C2F2001BC2F20018C2F2001C40F2773E40F2AE3740F2AB3640F2813040F24D31D1
:2040E0004FF4707340F2CD524FF0020A8BF80040C2F2001E88F80050C2F200178CF800A0AA
:20410000C2F20016C2F20010C2F20011C2F20013C2F200124FF003094FF0040B05244FF0BE
:204120000608072541F21C0C8EF80090C4F2040C87F800B0347080F800800D701A60DCF878
:20414000003041F21C01C4F20401002BF7D04AF6E419C0F2000900204FF440434CF2A06A0C
:204160004A460860C2F20013C2F2001A00E00B4609EB030101F15F41A1F54041D1F8008097
:20418000D2F804C0D2F808E0D768166955699469D06903F120015145C3F8008002F1200232
:2041A000C3F804C0C3F808E0DF601E615D619C61D861DCD14CF2806343F660104FF4815E92
:2041C00046F6137741F2116646F6543541F21C044FF4805240F20111C2F20013C0F20E4136
:2041E000C1F6102E4FF0000CC4F20402C6F25330C4F20404C6F62367C1F21266C7F200059B
:204200001862C3F824E001209F62DE621D63C4F800C0116003F096F940F25C10C2F20000C2
:2042200003F0F6F821460A6841F21C03C4F20403002AF8D000221A6001F0A6F801283FF43C
:20424000F0AE18E7FFF79EFE01287FF422AFBDE8F84FFFF7B7BD00BFF83D002070B582B001
:20426000072800F29480DFE800F08C04929227922A69202900F2888040F24413C2F20003CF
:20428000188ADC894FF47A7202FB04F402FB00F2A4F55F2402F57F42A4F66C64FF3248F25B
:2042A0001F5004EB1242C5F2EB10A0FB0240CAB2C0F38710824275D1002002B070BD4BF2B1
:2042C0004835C0F20005AE884FF6FF70864208BFFF2209D02B46002208339C88013284424C
:2042E000D2B2F9D1013AD2B255F832304BF248349942C0F2000447DB2368994244DC01917E
:20430000FFF742FD4FF6FF70864201997ED000230834A28801338242DBB2F9D1013BDAB264
:2043200005EBC2040023E058083B814266DD12F1FF32F8D2FFF742FE0020BEE740F20823CD
:20434000C2F20003197000F035FF10B340F21413C2F200035B88022B08BF002519D1FFF74A
:20436000C1FD012814BF03240024FFF727FE012818BF03242046002D9FD0FFF72FFE20466B
:204380009BE7012935D071B3022002B070BD012093E7FFF737FE012808BF0546DFD0032074
:2043A00002B070BDC82000FB01F044F6D35200F55F20C1F2620200F66C60A2FB00414FF67B
:2043C00018448909CFF6FF7404FB01000004A2FB004040F25C1289B28009C2F20002188222
:2043E000D9811184AFE70191FFF7F8FD0199084663E7FFF707FE0128D1D15DE740F26803E2
:2044000005EBC202C2F200031A6093E7FF2287E72DE9F0430C4683B069B1102800F2A88074
:20442000DFE800F01523A6A6A6A6949D43A6A6A6A673767A0D00022003B0BDE8F0834BF24F
:204440004833C0F200031B6800202360F4E700F0B1FE38B140F21413C2F200035888851E10
:204460006842684120600020E6E740F24413C2F200031A8AD9894FF47A7303FB01F103FB18
:2044800002F3A1F55F2103F57F43A1F66C61FF3348F21F5201EB1343C5F2EB12A2FB03126E
:2044A000C2F3871222600020C6E700F083FE002860D040F21413C2F200035B88022B08BFAF
:2044C0004FF0000956D1092680254FF0000840F2034701A86946CDF80480ADF8047000F02C
:2044E00071FE731E30B19DF80250680602D113F0FF06EED1B9F1000F42D168B2206010F185
:20450000800F0CBF0320002096E70020206093E72023236000208FE74BF24835C0F200059A
:20452000AB884FF6FF70834208BFFF2209D02B4600220833998801328142D2B2F9D1013AA0
:20454000D2B255F832300020236075E740F26803C2F200031B6800201B6823606CE740F2A7
:204560000823C2F2000393F900300020236063E7012061E7FFF746FD012804D18146A2E7C0
:20458000FFF72CFDB9E76FF07F032360032053E770B582B0044600F00DFE80B340F2141373
:2045A000C2F200035B88022B08BF002627D1221DA01C43F6B44340F28414C2F2000392B25F
:2045C000C2F2000480B2110A2082E36159701A70FFF788FC0020014601F038F8204601A98B
:2045E00000F0F0FD0125C0B9002001F045F800236380FFF7E7FB284656B902B070BDFFF7C1
:2046000001FD012808BF0646D1D0012002B070BDFFF7E4FC284602B070BD00F0A7FA638820
:2046200003F4406333B900F06FFB638803F44063002BF8D06588ADB2B5F5505518BF01258A
:20464000D2E700BF10B5B32994BF0A46B4220C460146044806F02CF82046BDE81040FFF778
:2046600097BF00BFB63C002030B583B001F068F8012825D000F09EFD20B340F28413C2F2B1
:2046800000035B88022B18BF002528D0802403E09DF80640630607D10120C0F2034001A9B0
:2046A00000F090FD0128F3D0B5B940F20823C2F2000393F9000064B2A042D4BF00200120B7
:2046C00003B030BDFFF79EFC012808BF0546DDD0FFF784FC0120F3E7FFF780FCE5E70120F2
:2046E000EEE700BF08B500F065FD70B140F21413C2F200035B88022B06D1FFF7B5FF10F154
:20470000FF3018BF012008BD002008BD40F25400F8B5C2F2000000F053FC02F067FD012823
:2047200002D000242046F8BD43F66C54C2F20004204600214FF40C7206F030F843F69C4636
:2047400043F6B04143F6A84340F2141040F25C1540F24412C2F20003C2F2000040F2953E1A
:20476000C2F20002C2F2000141F6991C0027C2F20006C2F200050C6083E890008362C662D4
:20478000A5F820E0A2F80EE0A2F810C0FFF73AFC01280446C5D14AF6A410C0F2000000F0BF
:2047A0007DFF40F26C003946C2F2000002F028F9B8E700BF10B54FF4DC74C1F200042368A1
:2047C00004205B699847236804205B6B98470128F9D110BDF8B540F21021C2F20001002217
:2047E0000023C1E900234FF4DC73C1F200031B6804205B6B9847012801D0FFF7DBFF4FF428
:20480000DC73C1F200031B680020DB69984742F22803C6F20803012142F228021960C4F2FC
:20482000080213689B07FCD50C23C4F2010319684FF4E47221F4807121F001011960C1F238
:20484000000213680024C4F201044FF404511B682046C0F20041984704233C2108221F4696
:20486000C4F201013126C4F2010240F22125C4F22433012027600E6015601860F8BD00BF74
:2048800010B442F2080342F20C04C4F20903C4F209041968226818688142FAD1C90140F237
:2048A000102001EB5262C2F200000023C0E900235DF8044B03C8704710B542F2080342F227
:2048C0000C04C4F20903C4F209041968226818688142FAD1C90140F2102001EB526200233B
:2048E000C2F20000C0E9002301F0F8FE00B910BDBDE8104001F0DCBE704700BF014601206D
:2049000000F058B802F07ABB2DE9F04102F004FD002642F204034FF48032C4F209030124F9
:204920000027C4F224364FF480714FF4C2753760C1F200051C6019601A602B6880461B68F8
:204940003846232198472B6820461B68242198472B6802201B68252198474FF40053C4F26D
:204960000903196842F2080241F4E021C4F209021960176002F042FB42F21C024FF4287326
:2049800000F50070C4F22433C4F209024FF4D8711060C1F200011C6034600B6814201B69F9
:2049A0009847B8F1000F01D0BDE8F081BDE8F04102F0B6BC431E042818BF012B10B42CD8E7
:2049C00010F001021EBF42F21803C4F20903196010F002031EBF42F21C04C4F209042160F3
:2049E00010F004001EBF42F22004C4F2090421602AB14FF42072C4F22432012111602BB10F
:204A00004FF42873C4F2243301221A6028B14FF43073C4F2243301221A605DF8044B70474A
:204A200043F69C73C2F200031868704708B5FFF769FF43F69C73C2F200031860FFF73CFF7D
:204A4000A023C4F224331B68BBB98023C4F224331B6863BBC023C4F224331B6863B14FF474
:204A6000307242F20403C4F224320020C4F209034FF480311060196008BD42F20403C4F2D8
:204A800009034FF480721A6002F0B8FA00F2052020F4FF7242F21C03C4F2090322F00102F1
:204AA0001A608023C4F224331B68002BD2D04FF4207242F20403C4F224320020C4F209037E
:204AC00001211060196001F0E5FFC3E7820741BF4FF44063C4F2080301221A60C30700D4E1
:204AE000704702F01DBC00BF08B502F015FC4FF44063C4F208031A68012A03BF4EF25152BC
:204B0000C1F6CC221A60002308BF0223002814BF184643F0010008BD00224FF6FF714FF4FB
:204B20004063C4F20802C0F20F01C4F20803012011601860704700BF38B5FFF7D5FF002434
:204B40004FF6FF750C214FF48273C4F20804C0F20F050122C4F20033C4F2080125600A60F5
:204B60001A60BDE83840FFF7B1BF00BF00224FF6FF710C23C4F20802C0F20F01C4F2080330
:204B8000012011601860704708B5FFF7D5FFFEE710B50446C0B200F061F8204610BD00BF2C
:204BA00038B50546002403E0285D00F057F80134284605F03DFE8442F6D30A2000F04EF830
:204BC00000F04EF80128FBD0204638BD70B505460E46A8B10078B8B1A1B1002404E015F8EB
:204BE000010F38B1B44205D000F038F86B1C04F10104F4D100F034F80128FBD0204670BDE8
:204C00000446F7E70C46F5E70446F3E710B44FF6C7734FF6CF74C0F20103C0F2010413F8D7
:204C2000012FFF2A12D1A342F9D141F2F022C5F2000241B10A44002312F8014C013AC4547E
:204C400001338B42F8DB5DF8044B70474FF6C872C0F20102EDE700BF704700BF704700BF72
:204C60000020704770B54FF4DC75C1F200052B6802205B6998472B6802205B6B98474FF4F7
:204C8000DC7301280446C1F20003F4D11B684FF40070DB69984742F22803C6F2080342F228
:204CA00028021C60C4F2080213689907FCD54FF48253C4F200031A6841F24403C4F200031C
:204CC00040F2F27112F0500F196018D041F218054FF4E87643F6A074C4F20005C1F20006CB
:204CE000C2F2000406E03368C4F200001B69984723682BB92B684FF48050DB06F3D570BD77
:204D0000C0B29847F6E700BF4EF61053CEF200031A6822F004021A6030BF704770B502F06B
:204D2000FBFA01F02FFE18B1BDE8704002F0F8BA43F6A470C2F2000001F076FF02250446C6
:204D400048B1636823B19847A84228BF2846C5B22468002CF5D1FFF7D5FD4FF42073C4F254
:204D600024331B680446002B40F0B88001F0B6FC03460146002840F0F280012D00F0CC8015
:204D8000022DD1D12846002B00F00581FFF712FE43F6A470C2F2000001F046FF0625044681
:204DA000002800F0AF80A368022003B198472369246825EA0305002CF5D1FFF7D7FE6A078F
:204DC00005F0060400F1A180002C40F0E98000F0A7F9002004F048FC4FF48052C4F209023F
:204DE000116841F2080321F003011160C4F2090319684FF4DC7241F00F011960C1F2000233
:204E0000136839209B6998474FF482524FF484610023C4F20902C4F222311360184613606B
:204E20000B6002F0DFFF062C00F0C38042F22C0542F22424C4F20804C4F209052B6823684D
:204E40004FF4EC7623F003032360C1F2000633684FF48040C4F2030003215B6898474FF4F8
:204E6000DC73C1F200031B689B6B98472B6803F037F94FF4C0730022C4F204331A60336875
:204E80004FF48040C4F203005B6801219847216844F20C0341F003010122C4F20903216029
:204EA0001A602B6803F05CF904F0A6FBFFF704FDFFF75CFE43F6A470C2F2000001F0B4FE1D
:204EC000044628B1E36803B198472468002CF9D102F026FABDE8704002F022BA42F21803CB
:204EE000C4F209031B681B1A022B52D4A3F28F23002BB8BF0123BFF639AF9D4228BF1D4612
:204F0000EDB233E7FFF732FE062444F20C03C4F2090300221A6057E7002B4ED04FF6F873AE
:204F2000CFF6FF731B1BCB4248BF04F1080106D404F58034631A31EA230128BF214602203F
:204F4000FFF738FD4EF61053CEF200031A6822F004021A6030BFBDE8704002F0E1B901F0E7
:204F6000C7FB0646FFF78CFC361A002E15DDFFF757FD4FF67153CFF6FF731B1B00EB462123
:204F8000CB424FF001037FF5F8AE9D4228BF1D46F3E60023B1E7611EF8E600231946F4E730
:204FA0004FF4DC73C1F200031B6820469B6998470DE7022002F012FA38E704F58031BEE75B
:204FC000014643F6A470C2F2000001F02FBE00BF014643F6A470C2F2000001F07BBE00BFBB
:204FE00043F6A47008B5C2F2000001F019FE4FF4C273C1F200031B6803201B682021984774
:2050000008BD00BF08B5084B002103F1800243F8041F9342FBD14FF4D873C1F200031B689F
:2050200010201B69984708BDA43F0020F8B542F2E003C4F202031D6843F6A8771D60C2F288
:2050400000070024012606FA04F32B42E0B203D057F8243003B198470134202CF3D1F8BD05
:2050600010B584B00022412302A80292039304F0D9FA042002F09AF9032819D00420032111
:2050800002F056F9042002F091F903280346F9D14FF4D272C1F2000212684FF42040009305
:2050A0005468C4F20C0000214FF040521C23A04702A804F019FB04B010BD00BF00B583B080
:2050C0000022412368468DE80C0004F0ABFA012002F06CF9012803D00320012102F028F9B6
:2050E000684604F001FB03B05DF804FB00B583B00022412368468DE80C0004F093FA0120CC
:2051000002F054F9012805D04823C1F20003986B01F03EFF684604F0E7FA03B05DF804FB76
:2051200010B582B04123684600240193009404F079FA0320214602F0FBF8012002F036F902
:2051400028B14823C1F20003986B01F021FF684604F0CAFA02B010BD70B503880646C3B1EC
:2051600040F22322934219D1822921D14AF6AC13C0F200034BF218551C69C0F20005FFF7CC
:20518000F5FC03F075F903F01DF98021A047002808DC40F223233380012070BD0023038001
:2051A000032070BD80B203F007F92B699847E6E7012070BD42F29C13C4F20803186800F0D8
:2051C0000100704738B510F0030305460C4626D002F0A2F842F29C13C4F208031B680030AE
:2051E00018BF0120DB072AD54FF48053C4F2040341F204011D60C4F204010B684CF2503260
:20520000236003E00B68013A236018D013F0FF0FF8D050B32078421E5042504138BD028899
:205220001005D5D56B8002F077F842F29C13C4F208031B68003018BF0120D90702D480B12D
:20524000002038BD2B8813F4405FCDD003F44063B3F5006F02BF44F22803C2F200031D603C
:20526000C2E702F05DF8002038BD02F059F8D1E74AF22013C0F2070301E0013B0FD042883D
:2052800002F44062B2F5806FF7D1408800F44060B0F5806CDCF1000050EB0C007047184602
:2052A000704700BF70B582B002F036F84FF4D874C1F20004236805461B6A192098472368BD
:2052C00012201B6A9847236819205B69984723684FF4DC745B691220C1F20004984723689C
:2052E00001205B699847236801205B6B98470128F9D142F22C0142F22803C4F20801C6F26F
:20530000080342F228020860C4F20802186013689907FCD541F2100141F214030022C6F230
:205320000401C6F204034FF4D8740A60C1F200041A60236819201B699847236812201B6917
:205340009847F5B1002441F21C014FF480535122C4F20403C0F20762C6F2040440F2FF36CC
:20536000C4F20401002501202660C0F206400D601A6001A9FFF726FF431E5842584102B0BC
:2053800070BD01F0CDFFDDE730B544F23003C2F2000387B01B680024012240F60A0501A86B
:2053A000694601940494059302940394ADF804508DF81120FFF706FF012804BF4AF220104A
:2053C000C0F2070004D0204607B030BD0138FBD0BDF8063003F44063B3F5806FF6D1BDF89A
:2053E000060000F44060B0F580646042604107B030BD00BF10B586B00023012240F6090460
:2054000001A8694601930493029303930593ADF804408DF81120FFF7D5FE012806BF4AF2B4
:205420002010C0F20700C0B203D006B010BD0138FBD0BDF8063003F44063B3F5806FF6D1D4
:20544000BDF8063003F44063B3F5806F18BF0020EBD144F63B43C2F200031A780120002A31
:20546000E3D144F230020599C2F20002012011601870DAE730B587B001F04EFF4FF4D874F8
:20548000C1F20004236805465B6919209847236812205B69984742F29C13C4F208031B681C
:2054A000DA0720D541F2100141F214020023C6F20401C6F204020B6040F60D04136002A81C
:2054C000012201A90293059303930493ADF808408DF81520FFF776FE012804BF4AF2201339
:2054E000C0F207033DD0FFF785FF42F22C0142F22803C4F208010024C6F20803012042F2AE
:2055000028020C60C4F20802186013689B07FCD54FF4DC74C1F20004236801209B699847F6
:20552000236801205B6B98470228F9D14FF4D874C1F20004236819201B6A984723681220FB
:205540001B6A9847236819201B699847236812201B6998470DB901F0E3FE07B030BD013B28
:20556000C1D0BDF80A2002F44062B2F5806FF6D1BDF80A30B7E700BF08B501F05FFE052842
:2055800015D003281AD050B1012801BF42F2D013C4F2080305221A6018BF002008BD42F2BE
:2055A000D013C4F2080303221A60012008BD42F2D013C4F208031860012008BD42F2D01375
:2055C000C4F2080302221A60012008BDF8B542F29C13C4F208031A680023C8F2800300282B
:2055E0000CBF1D460025D10700D4F8BD01F094FE41F2180141F2140241F21003C6F20401DC
:20560000C6F204020646C6F2040300204FF000474FF4D8740F60C1F20004156018602368EE
:2056200019201B6A9847236812201B6A9847236819201B699847236812201B69984706B1AE
:20564000F8BDBDE8F84001F06BBE00BF002398420CBF022008200029C8F2800318BF00236D
:2056600041F2100141F214021843C6F20401C6F204020B60106070470023984241F21402EF
:20568000C8F2800318BF0023C6F204021360704744F22803C2F200031868704744F22C0337
:2056A000C2F200031860704708B542F29C13C4F208031B68D80704D4FFF7F4FD012800D089
:2056C00008BD41F21003C6F204036FF000421A6008BD00BF08B542F29C13C4F208031B687D
:2056E000D9070AD44BF2D030C0F20000FFF758FAFFF7D8FD012800D008BD01F00DFE41F2FD
:205700001003C6F204031A6812020ED441F21003C6F204031A6812F00A0F1CBF6FF00A0257
:205720001A60BDE8084001F0FBBD6FF4000240F26C001A60C2F2000001F084F9E6E700BF2E
:2057400044F63C43C2F200031878704708B500F0A3F880B208BD00BF00F038B938B54FF483
:20576000DC75C1F200052B6804205B6998472B6804205B6B98474FF4DC7301280446C1F2B2
:205780000003F4D11B6840F20140DB69984742F22803C6F2080342F228021C60C4F208026C
:2057A00013689B07FCD538BD44F23403C2F20003186800280CBF0220012070472DE9F0412E
:2057C00003880646002B4AD0B3F5847F09D140F20923C2F200031B788B4207D00120BDE816
:2057E000F081002303800320BDE8F08144F23407C2F200073B68B3B14FF4E673C1F20003D4
:205800001A6848F20403C4F2020352680220D3F8008090470024221848F1000319461046BD
:205820003B6898473C604FF4DC73C1F200031B6840F201409B6A984742F22803C6F2080306
:20584000012142F228021960C4F2080213689907FCD540F27C00C2F20000FFF7B9FB4FF454
:20586000847333800120BDE8F08100BF08B54FF4DC73C1F200031B6804205B6B984701280E
:2058800001BF42F23C03C4F208031868C0F3400018BF002008BD00BF70B544F23403C2F2E0
:2058A00000031B68D3B144F23800C2F200000023C15C44F23802C2F2000229B90133042B11
:2058C000F6D10020014670BD40F218210024C2F2000101EBC301D45403C970BDFFF7C6FF9D
:2058E000002842D048F20803C4F202031A680123C8F2000313409BB949F6F073C4F2020307
:2059000001221A6018680028FCD102464FF4807102F06AFC4FF42A73C4F2502301221A60FB
:2059200001F0FAFC48F208020646C4F202021368D807FCD54FF4E673C1F200031A6848F2FD
:205940000403C4F20203526802201C68904700222346141843F1000516B12046294670BD95
:2059600001F0DEFC2046294670BDFFF7F7FEB9E738B54FF42A750024C4F2502548F20C0368
:205980002C60C4F2020319684FF4D87221F001011960C1F20002136831205B69984720469C
:2059A00022464FF4807102F01FFC012240F209232A60C2F2000340F2900022461978C2F20D
:2059C0000000BDE8384000F0E9BF00BF10B540F20924C2F200042378802B00D010BD00F0A4
:2059E0004DFF207040F29000C2F200000021BDE8104001F005B800BF08B51AB108461146A5
:205A0000FFF7E4F8002008BD0FB400B583B004AB53F8041B40F2A0001A46C2F20000019391
:205A200000F022F803B05DF804EB04B0704700BF38B50C46054609E04BF23441C0F2000163
:205A40002B6868681022103C984718B9102CF3D8204604B938BD4BF234412246C0F20001C9
:205A60002B686868984738BD2DE9F04F4BF28C4491B0C0F2000400258246894609920494A7
:205A80000295884698F80030002B00F0F080252B00F01983444602E0252B04D02C4663789D
:205AA000651C002BF8D145450FD0C8EB050641463246DAF80030DAF804009847002840F03C
:205AC0008F826378029C34440294002B00F0CF806B78002B00F0CB8001350024A3F120026B
:205AE000AC46102A1CD8DFE802F0181B1B151B1B1B1B1B1B1B121B0F1B1B090044F01004EA
:205B000001359CF80130E9E744F00104F8E744F00604F5E744F00804F2E744F00204EFE75F
:205B2000A3F13102D2B2082A00F2E580A3F13002D2B2092A9CBF01354FF0000B00F2DE80E9
:205B40000BEB8B0B03EB4B0BAC4615F8013BABF1300BA3F13002D2B2092AF1D92E2B00F0D3
:205B6000D2804FF0FF316C2B00F0EE80682B00F07B81782B00F28180DFE813F079007F0098
:205B80007F007F007F007F007F007F007F007F007F007F007F007F007F007F007F007F0015
:205BA0007F007F007F007F007F007F007F007F007F007F007F007F007F007F007F007F00F5
:205BC0007F007F007F00A2027F007F007F007F007F007F007F007F007F007F007F007F00B0
:205BE0007F007F007F007F007F007F007F007F007F007F007F007F007F007F007F009F0293
:205C00007F007F007F009C02990296027F007F007F007F007F007F007F007F007F007F0040
:205C20007F007F007F007F007F007F0093027F007F007F007F007F007F007F007F0090024B
:205C40007F008D028A028702840281027F008A027F007F007F007F007D007E027B027F0018
:205C60007F0078027F0075027F007F007202029811B0BDE8F08F44F4E06404F4E063B3F5E5
:205C8000806F0CF1010800F0CF806DD9B3F5C06F00F0B281B3F5E06F00F0A781B3F5A06FCA
:205CA0007FF4F0AE099BBBF1010F1A6803F1040309938CBF0BF1FF3B4FF0000BE3078DF820
:205CC000282000F13E8350465946FFF7B1FE002840F08681029CDAF800305C44DAF804007B
:205CE0000AA9012202949847002840F079810BF1010B029D95E02A2B00F0C6802E2B4FF0C8
:205D0000000B7FF42EAF9CF801300CF10101A3F13002D2B2092A00F2C4800CF102024FF071
:205D2000000909EB890903EB490913789446A3F13001C9B20929A9F1300902F10102F0D92B
:205D40006C2B49467FF412AF9CF801306C2B03BF9CF8023044F080040CF1020C0CF1010C38
:205D600018BF44F0600404E7B3F5807F00F0A780B3F5407F7FF486AE099A4BF268471168F5
:205D80004BF25443C0F20003043214F4804FC0F2000718BF1F46099200230A46002900F051
:205DA00057810DF13A00110902F00F0241EA0371BD5C1E090A463346014600F8015952EA39
:205DC0000305F0D10DF13B035B1A18BFDD1C00F04181782030222323AB4501F8010C01F8A8
:205DE000022C01F8033CA1F103063AD84FF0000B14F0010406D150465946FFF719FE0028FC
:205E000040F0EE803146DAF80030DAF804002A469847002840F0E48002980544002C40F04B
:205E2000FB805D4402952DE6099B1E6804330993002E00F04A8233781D466BB1731C18786C
:205E40001A4601330028FAD1951B8D4294BF002301230029B8BF0023002B18BF0D46AB459A
:205E6000C4D9C5EB0B0BC3E79CF80130682B03BF9CF8023044F020040CF1020C0CF1010CC8
:205E800018BF44F0400474E6099B05F1010C1A680433002A0993B8BF44F0010493466B78C7
:205EA0005CE62A2B18BF8C467FF45BAE099A9CF80230111D09910CF1020C116853E600290F
:205EC000ABBF24F0100401250591059514F4005504F0E003039500F0A780402B00F02082FA
:205EE00000F2F380002B00F0DE81202B40F00882099B1A1D099293F90020D317002A73F124
:205F00000000C0F2DA81CDE906230025089504F4C053B3F5805F00F06481B3F5C05F00F0B5
:205F20007F81B3F5006F1CBF0DF13E054FF0000900F03281059941F60803894504EA0303A1
:205F400041F20802C0F0E580934218BF002600F00A8241F60802934206EB090100F0FC8024
:205F600000273A46039870B1089B002B40F00E8104F00603022B00F0CD810498062B08BF35
:205F8000012708BF02467B189B458CBFC3EB0B0B4FF0000B14F00103039304D1E10640F173
:205FA0009E815E449B463FB11146DAF80030DAF804003A46984798B9102E344603D8B5E048
:205FC000102C40F2B3804BF24441C0F20001DAF80030DAF804001022103C98470028EFD08F
:205FE0004FF0FF3011B0BDE8F08F099B029C1A6804331460099345E54BF29841C0F2000150
:20600000DAF80030DAF80400012298470028E7D1029C0134029435E550465946FFF708FD13
:2060200000283FF4FEAEDBE7402B00F080815CD8002B00F02D81202B40F05B81099B039DA3
:2060400018781A1D002108950992CDE906015EE70DF13B01302301F8013C04250139B8E65A
:2060600044F4C85409E644F4106406E644F4806403E644F4407400E644F48854FDE544F440
:206080008134FAE544F40074F7E544F40244F4E544F42454F1E544F4A064EEE544F4C134CB
:2060A000EBE544F4B244E8E544F4A134E5E544F48444E2E544F44244DFE544F4E134DCE5E7
:2060C00044F4C064D9E5454602E5602B00F0EB80802B40F01581099B073323F0070303F1EE
:2060E00008020992D3E9002308E7602B00F0D080802B40F0FE80099B039D073323F007036E
:2061000003F10802D3E9000108950992CDE90601FDE69342C9EB01067FF41BAF002E08BF2A
:20612000012600273A4606EB09011BE7002C40F0A1802946DAF80030DAF804004A46984761
:2061400000287FF44DAF029B039C4B441F443E44ACB95E44029695E4DDE9062313433FF468
:20616000FFAE4BF280424BF27C4314F4804FC0F20002C0F2000318BF1A460227F2E6504669
:206180005946FFF755FC0028E3D029E74BF28442C0F200020127F6E6DDE90601014300F072
:2061A000B480DDE906670DF13D09304639460A22002303F061FF303289F8002030463946A5
:2061C0000A22002303F058FF06460F4656EA07024D4609F1FF39E8D10DF13E03C5EB0309C3
:2061E000A8E6DDE90623134300F08F80DDE906230DF13D01D00840EA4370DE0802F0070707
:20620000334602460D4652EA030007F13001297005F1FF31EED10DF13E03C5EB030989E61A
:206220004BF268474BF2544314F4804FC0F20003C0F2000718BF1F46DDE90623134364D0A4
:20624000DDE906230DF13D01100902F00F0540EA03704FEA131E7E5D0246734652EA0300D2
:206260000D460E7001F1FF31EED10DF13E03C5EB03095FE64BF244412246C0F20001DAF87D
:206280000030DAF80400984700283FF452AFA7E6039D099B08951A68002104331046099383
:2062A000CDE9060133E6099B1A6804330993D317002A73F10000BFF626AE504263EB4301EA
:2062C0000125CDE90601089521E605294BF29046C0F200068CBF002301230625BCE550464A
:2062E00059460192FFF7A4FB019A00283FF45BAE76E60025002000210895CDE9060106E6D0
:2063000000200021CDE90601FFE54FF000090DF13E050FE64BF28842C0F20002012732E622
:20632000099B1A1D0992B3F90020D317E6E5099B039D18881A1D002108950992CDE9060135
:20634000E5E5DAF80030DAF804000AA90122984700287FF445AE50465946FFF769FB0028A1
:206360003FF4C5AC3CE60126DBE600BF10B50446006830B1002100F043FB54F8040F002882
:20638000F8D110BDF8B5038806461546EBB14A2B17D1882946D144F23C00C2F2000000F0B1
:2063A00043FC044648B1031D9D4202D126E09D4224D02468231D002CF9D14A2333800120AD
:2063C000F8BD002303800320F8BD44F23C00C2F2000000F029FC044630B1201DA16800F0EE
:2063E0006DF92468002CF8D144F63D43C2F2000301221A704A2333800120F8BD44F23C0030
:20640000C2F20000214600F065FC44F248056269A369C2F200052F682A600BB1E0699847F8
:206420002F60CAE70120F8BD10B544F63D4344F23C000024C2F20003C2F200001C7000F04A
:20644000EFFB40F2A8002146C2F20000BDE8104000F0D6BA70B544F63D44C2F20004049DAF
:20646000267882610446C36145614EB9A16044F23C002146C2F20000BDE8704000F0D6BB1C
:2064800044F24805C2F200052E6840F2A803C2F2000304302B6000F011F92E60E7E700BFC2
:2064A00010B544F24804C2F20004246882B00094FFF7D0FF02B010BD10B544F63D43C2F214
:2064C00000031B78044653B9C360036144F23C002146C2F20000BDE8104000F0FBBB0430ED
:2064E00000F012F9F2E700BF38B544F63D43C2F200031D7804466DB944F23C00C2F2000080
:2065000000F092FB10B90AE0006840B18442FBD1002038BD0430BDE8384000F0D9B8012058
:2065200038BD00BF704700BF10B544F24004C2F200042368CBB1FEF7A3F9236859681A68D4
:206540009B680A44121A4BB193E812009B682144091A8A4228BF0A46002BF5D144F2440339
:206560000244C2F200031A6010BD44F24402C2F20002136010BD00BF2DE9F0410388054689
:206580007BB1592B08D1872915D0822926D059232B800120BDE8F081002303800320BDE870
:2065A000F08144F24002C2F20002136059232B800120BDE8F08144F24007C2F200073B6890
:2065C000002BE4D0D9688A4203D02BE0D9688A4227D19B68002BF9D13B60D8E744F240071D
:2065E000C2F200074FF000083C68002CCFD0002604E0A3682646002BC9D01C46204600F02D
:2066000067FA0028F5D0E0688821224600F0C6F9034640F2B800C2F2000073B100F012FA1D
:20662000E7E73B6099680029B1D0C86882420BBF89680B4699608968F5E7E360A3682EB153
:20664000B360C4F80880FFF76FFFCDE73B60F8E710B5044640F2B800C2F2000000F0F2F9C9
:2066600044F24002E368C2F20002116853B149B18C4218BF0B4602D110E09C420ED09B68B2
:20668000002BFAD144F24803C2F200031B68A160E3601460BDE81040FFF746BF44F2480320
:2066A000C2F200031B68E360BDE81040FFF73CBF40F2B800C2F2000000F0C4B910B504465D
:2066C00000F0FEF92046BDE81040FFF7C1BF00BFC068D0F1010038BF0020704744F2400312
:2066E000C2F200031868003018BF0120704700BF44F24003C2F20003186820B144F24403C7
:20670000C2F200031868704710B544F24003C2F200031A680446904217D04AB19368834256
:206720000AD02BB19A68A24207D01346002BF9D10023A360E36010BD1346A2689A60FFF70F
:20674000F3FE0023A360E36010BD82681A60FFF7EBFEEDE72DE9F84344F24C08C2F2000864
:20676000D8F8004044F24806221CC2F2000618BF0122844218BF002C0546894637682346A8
:2067800004D01B689D4218BF002BFAD163B3AB7BE3B10023AB736AB1A54220464FF08701B6
:2067A0002A4604D0A37BDB0701D500F029F82468002CF1D1AB683BB14D4505D0356005F143
:2067C0000C00832100229847D8F80040A54212D04CB12368AB4209D02BB11A68AA4206D0C1
:2067E0001346002BF9D13760BDE8F88323462A681A603760F8E72B683760C8F80030F3E7B5
:2068000070B5856804460E468DB144F24803C2F200030220A0731C6004F10C00A847023877
:20682000012805D9832E1CBF0123A37300D070BD20462146BDE87040FFF78CBF70B544F2D0
:206840004C03C2F200031C6844F64043C2F2000300261E7084B1012501E0246864B1E37B4B
:20686000002BFAD0A573E673204682210022FFF7C7FF2468002CF2D170BD00BF44F64143A6
:20688000C2F200031878421C1A70704770B444F63F4044F24C0144F24802002344F641454F
:2068A00044F63E44C2F20000C2F20001C2F20002C2F200058A26C2F2000403700B6013608B
:2068C0002E70237070BC70472DE9F04144F64044C2F2000423780BB1FFF7B0FF44F63F452D
:2068E000C2F20005287818B344F63E42C2F20002117844F2500301EB410C4FEA8C0CC2F234
:20690000000303EB0C0701380131BE68C0B201F01F012870117013F80C807F68B6B1B8F1B8
