:020000040000FA
:2000000000500020ED000000E5000000C9000000E9000000E9000000E9000000000000001A
:20002000000000000000000000000000E9000000E900000000000000E9000000E90000001C
:2000400081350000E9000000FD3B0000E90000005D2C0000CD310000E9000000E900000087
:20006000E9000000293C0000E9000000E9000000E9000000E9000000E9000000E9000000BC
:20008000E9000000E9000000E9000000E9000000E9000000E9000000E9000000E900000018
:2000A000E9000000E9000000E9000000E9000000E9000000E9000000E9000000E9000000F8
:2000C000E9000000C53E00004EF62853CEF200031A68B2F5806F03D01B689B0500D4FEE7EB
:2000E000704700BFFEE700BFFEE700BF10B505F069FC40F2000140F23023C2F20001C2F202
:20010000000399420ED2CC431C4424F0030449F684200434C0F200000023C258CA5004333C
:20012000A342FAD1064807494FF000028842B8BF40F8042BFADB01F0CBFBFFF7C5FF10BD75
:20014000300200200F1B002008B548F6946240F2D423C2F20003C0F20002D26A197B01208D
:20016000904708BD2DE9F04740F2D16240F2CC2484B0C2F200041027C0F200020021144EB5
:2001800040F2A04340F20435C2F200030294019203914FF0080C4FF0890E4FF00108C2F246
:2001A00000050DEB070A4FF002091AE9070083F8008083F801C05D6083F808E05F72DE6077
:2001C00084F80090636001F0EDFD04B0BDE8F087E20200202DE9F04340F2D426C2F2000672
:2001E0003446054654F80E0FD5F80080D5F804C0D5F808E0EF686168A268E36889B004ADDF
:20020000C6F80E800FC5C4F804C03046C4F808E0E76001F045FE00283AD041F63925C2F22E
:20022000000500232B7040F2803440F2D162C2F200040027C0F2000240F2703340F20436DC
:20024000C2F2000301924FF0010E029403974FF0880C01AA4FF00808C2F20006DD6083F897
:2002600001805E6083F808C083F800E083F809E04FF0020907CA636084F8009001F092FDD3
:2002800041F63B23C2F200031F7009B0BDE8F08304AF41F639250FCFC2F20005C6F80E0007
:2002A000F72730466160A260E3602F7001F0F8FDB9E700BF2DE9F04140F2D423C2F2000399
:2002C0001B7B41F632255A1ED2B2172A40F26C4440F2D16284B088BFFF23C2F20004C2F26D
:2002E0000005C0F2000200212B7002940192039104AF40F2744340F20436C2F200034FF0CE
:20030000080C4FF0870E17E90700C2F2000601274FF00208DD6083F801C05E6083F808E029
:200320001F705F7284F80080636001F03BFD04B0BDE8F0812DE9F04102780121531E99407E
:2003400042F29043C0F2FD0340F2D424C2F200040B40267B86B02273002B48D141F630257B
:20036000C2F20005F92326732B7040F2084440F2D162C2F20004C0F20002002140F23C4353
:2003800040F20436C2F200030194009202914FF0080C4FF0860E0127C2F20006DD6083F8C0
:2003A00001C05E6083F808E01F705F724FF002089DE80700636084F8008001F0F3FC2B78E4
:2003C00063B940F24912C0F20002802104930392059106AB13E9070001F0E4FC41F63B2343
:2003E000C2F2000300221A7006B0BDE8F081204601F056FD41F6302520B1C2F200050023EB
:200400002B70B2E7C2F20005F723204626732B7001F046FDA9E700BF2DE9F04340F2D42346
:2004200040F2F83440F2D16285B0C2F20004C2F20003C0F20002002193F80D90029401922F
:20044000039104AF41F62E2540F2BC2340F20436C2F20003C2F200054FF08C0C17E9070000
:200460004FF008080127C2F200064FF0020EDD6083F801805E6083F808C01F705F7285F8E5
:200480000090636084F800E001F08CFC05B0BDE8F08300BF2DE9F0432F4C87B0034601AEB5
:2004A00094E8030086E8030018685968234603C3201F01F0F5FC41F63625002840D041F6BA
:2004C0003323C2F200050021C2F20003012229701A7040F2702440F2D162C2F200040027E5
:2004E000C0F200020494039205970DF1180E40F2AC2340F20436C2F200034FF0850C1EE960
:2005000007004FF008084FF0010EC2F20006DD6083F801805E6083F808C083F800E083F86D
:2005200009E04FF00209636084F8009001F03AFC41F63B23C2F200031F7007B0BDE8F083E8
:2005400096E80300C2F20005F72384E80300201F2B7001F0A5FCBCE7D80200202DE9F04386
:20056000037840F2D424A3F17E02D2B2C2F20004712A667B85B063733DD941F62F25C2F2AA
:200580000005FF2366732B7040F2004440F2D162C2F200040027C0F200020294019203978F
:2005A0000DF1100E40F22C4340F20436C2F200034FF08B0C1EE907004FF008084FF0010EDA
:2005C000C2F20006DD6083F801805E6083F808C083F800E083F809E04FF00209636084F8DF
:2005E000009001F0DFFB41F63B23C2F200031F7005B0BDE8F083204601F052FC41F62F25C8
:2006000060B148F69463C2F200050022C0F20003617B2A70DB6A07209847B5E7C2F20005EE
:20062000F723204666732B7001F03AFCACE700BF70B5064640F20C301446C2F200000A4610
:2006400064211D4601F0B8F898B1A5B1013DEDB204F1080303EBC50501E0AC420BD040F201
:200660000C302146C2F20000083401F05DF80028F3D1002070BD40F20C30C2F2000001F055
:200680007BF80028F5D00220314606F067FC70B140F20C30C2F2000001F042F8014640F221
:2006A0000C30C2F2000001F071FB012070BD40F20C30C2F2000001F033F840F20C310246AA
:2006C000C2F20001304601F047FB012070BD00BF4268037801210148FFF7AABFDE020020C0
:2006E0002DE9F04740F29C24C2F2000401274FF0020C40F2043E41F6352640F2E835C2F285
:20070000000E224639464FF08009C2F200064FF00008C2F200054FF0080A63460F4884F895
:2007200001A0C4F804E02770677284F80890E66086F800806C6085F800C0FFF779FF40F207
:200740004C4040F2617249464346C2F20000C0F20002BDE8F04704F04DB900BFDE020020F3
:2007600002F02ABBF0B440F2D42348F6AC52C2F2000341F20505C0F2000203CA1C46178823
:20078000CCF61345002244F8045BBA264FF0050C5A601A8362605A839A83C3F80E0083F8FB
:2007A0000CC0DF82C3F812105E73F0BC704700BF2DE9F04F40F2104440F2D425C2F200047E
:2007C0004FF0010E4FF00209C2F2000540F2043C41F6342740F25826C2F2000C2246714635
:2007E0004B4681B0C2F200074FF00008C2F200064FF0080B4FF0840A05F10A00C4F804C0DC
:2008000084F800E084F809E084F801B084F808A0E76087F80080746086F80090FFF708FFA1
:20082000FFF7A0FF284601F03BFB40F24C4040F261724346C2F20000C0F20002802101B088
:20084000BDE8F04F04F0D6B810B5832982B004462BD023888BB1B3F5717F09D141F60C337B
:20086000C2F200031B788B421CD0012002B010BD00230320238002B010BD40F61170C0F204
:20088000000002F05BFC00F06BFB40F64120C0F20000014601F01EFA4FF471730120238035
:2008A00002B010BD002AF7D1DFE70191009201F043FA009A0199CCE72DE9F04703888A4620
:2008C000144623B1002303800320BDE8F08740F2043040F2D425C2F200000821C2F20005DE
:2008E00002F0ACFA284601F0D5FA2A6841F20503CCF613439A4204D0FFF734FF284601F015
:20090000CFFA40F2043740F2F423C2F20003C2F2000797E8030040F2782283E8030049F6EB
:20092000D011C2F200020026C0F2000132481E72DA6082E8480005F029FE41F63323C2F2F4
:200940000003002855D101221A7000F01FFB97F807E048F69462C0F2000240F298230EF046
:200960007F0EC2F20003D66A297B0120C3F800E0B047697B0720B04700F0F2FA40F6412027
:20098000C0F20000014601F0A5F940F28820C2F20000802140F2882540F2602604F038F9E4
:2009A000BAF1880FC2F20005C2F200064FF001094FF0080818D0FEE740F2200040F2602217
:2009C0000021C2F200020123C2F2000086F8009086F801807760FFF72BFE102001F03EF90D
:2009E0002046802104F014F9AC42E5D0AC42FBD1E2E71E70A9E700BFDE02002030B50121E5
:200A000085B0036808228DF800108DF801201A6840F28C4401925A68C2F200041278074867
:200A20008DF808205B686A469D7802238DF809500394FFF7FDFD05B030BD00BFDE02002096
:200A40002DE9F04F40F2883441F63A25C2F20004C2F200058BB022462B4600F0BFFE012862
:200A6000074602D00BB0BDE8F08F41F63826C2F2000696F80090B9F1000FF3D11A2095F8C7
:200A8000008005F039FFC44905F080FD627823788DF821208DF82030BDF8202040F60103EB
:200AA0009A420546377006D041F63123C2F2000383F80090D6E740F20430C2F20000A11CB1
:200AC000082208F049F8002840F05381022741F6312CC2F2000CB8F10A0F8CF800705ED91D
:200AE00040F2F03740F2883240F2204040F26511EDB2C2F2000741F6372941F63B2A41F6B3
:200B0000332BC2F20002C2F20000C0F20001079506963B46C2F20009C2F2000AC2F2000B67
:200B2000049005910A25CDF804C0164662195278605D7A703870002A00F02581A91C3144E9
:200B4000596099F80010002940F01F819AF80010002940F01A81A0F180010C2900F2F680FD
:200B6000DFE811F0DF00F400F400F400B400A7009200770064004700F40020000D009BF82F
:200B8000001031B1DDF804C09CF80010022900F0058102321544EDB2A845C7D8069E002306
:200BA00033705FE79BF800100029F2D0DDF804C09CF800100229ECD107980028E9D040F2E7
:200BC0005D527968C0F20002DDF810C00020CCF80020CCF80410CCF808009CE807004FF0BA
:200BE000010E03938AF800E001F0DCF87A78039BCFE79BF800100029CBD0DDF804C09CF84F
:200C000000100229C5D107980028C2D0DDF810C0059900228CE80600CCF808209CE8070054
:200C2000039301F0BFF87A78039BB2E79BF800100029AED0DDF804C09CF800100229A8D122
:200C400007980028A5D040F2D5127968C0F20002BAE79BF8001000299BD0DDF804C09CF8A5
:200C60000010022995D10798002892D040F2B522C0F20002DDF810C00021CCF80020CCF87F
:200C80000410CCF80810C9E79BF80010002980D0DDF804C09CF8001002297FF47AAF0798F5
:200CA00000283FF476AF40F235327968C0F200028AE7DDF804C09CF8001002297FF469AF22
:200CC00040F295427968C0F200027DE79BF8001000293FF45EAFDDF804C09CF8001002299E
:200CE0007FF457AF079800283FF453AF40F2B172C0F20002DDF810C000204FF48071CCF8B9
:200D00000020CCF80400CCF808109CE807004FF0010E89F800E0039301F044F87A78039B82
:200D200037E79BF8001000293FF433AFDDF804C09CF8001002297FF42CAF079800283FF404
:200D400028AF40F2E162C0F20002D3E740F28444069EC2F20004F823237100F0B9FC40F2FD
:200D60007823C2F20003586020462360FFF746FE15E70320A11C06F0F1F84FF00309002818
:200D80003FF492AEA3E65A60DBE640F28024069EC2F20004FC23DFE7DE02002007980028FE
:200DA0003FF4F7AE40F21942C0F2000262E700BF2DE9F047048807466D2C1BD0872C06D0DF
:200DC000002C49D0002303800320BDE8F08785294FD140F2B44440F2B04640F2B845C2F2E6
:200DE0000004C2F20006C2F20005002323603360A5F8803040F2B44640F2C45540F2B04855
:200E0000C2F20006C2F20005C2F200084FF0000A4FF001090BE033687E2BE854D9BF0133DA
:200E20002360C4F800A0C8F800907D2824D040F2BC50C2F2000004F02FFA40F2B44440F27F
:200E4000C451431CC2F20004C2F20001E3D16D233B800120BDE8F08703F0BAFF41F60C3254
:200E600040F2B443C2F20002C2F2000310701C60C0E70120BDE8F08740F2B046C2F200061A
:200E800033685BBBD4F8008040F2B845C2F2000540F2C45128464246C2F2000107F090FEF6
:200EA000A5F8808041F60C33C2F2000340F2B8421978C2F20002002004F01AF840F66863CE
:200EC000C2F2000318688521002204F011F800288BD187233B800120BDE8F087D4F80080A4
:200EE00040F2B845C2F20005C8F1800941444A46284607F065FE40F2C45105EB0900424623
:200F0000C2F2000107F05CFE8023A5F88030C9E710B541F63C24C2F20004237801464BB139
:200F20007D2812D040F22400C2F2000004F034F8012010BD40F2BC50C2F2000004F094F99F
:200F40000028EFD101232370ECE740F2BC50C2F2000004F089F90028E4D000232370E1E75D
:200F600008B540F2BC5040F23C51C2F20000C2F20001802204F070F9BDE8084040F224000C
:200F8000C2F20000002103F0E5BF00BFF0B441F6C422C2F20002167841F64C23C2F20003C4
:200FA000002E00F08F83197801291AD0751EEDB205EB45051D44184603E010F8034F012CC7
:200FC0000DD0A842F9D106EB46010136F6B20125581808245D54167044708EB119780629BD
:200FE0001AD041F64C24C2F200041678002003E014F8035F062D0DD00130C0B2B042F7D33A
:2010000006EB46010620585419440120013648701978167011291AD041F64C24C2F20004BF
:201020001678002003E014F8035F112D0DD00130C0B2B042F7D306EB4601112058540136EB
:201040005818022419781670447012291AD041F64C24C2F200041678002003E014F8035FAC
:20106000122D0DD00130C0B2B042F7D306EB46011220585401365818022419781670447047
:2010800014291AD041F64C24C2F200041678002003E014F8035F142D0DD00130C0B2B04218
:2010A000F7D306EB460114205854013658180224197816704470AF291AD041F64C24C2F299
:2010C00000041678002003E014F8035FAF2D0DD00130C0B2B042F7D306EB4601AF20585442
:2010E000013658180224197816704470A0291AD041F64C24C2F200041678002003E014F8A9
:20110000035FA02D0DD00130C0B2B042F7D306EB4601A020585401365818302419781670AE
:20112000447076291BD041F64C24C2F200041678002003E014F8035F762D0ED00130C0B2EF
:20114000B042F7D306EB460076211954012418440136197816704470847077291CD041F65E
:201160004C24C2F200041678002003E014F8035F772D0FD00130C0B2B042F7D306EB46002F
:20118000772119540136184400250124197816704570847078291CD041F64C24C2F20004C1
:2011A0001678002003E014F8035F782D0FD00130C0B2B042F7D306EB4600782119540136D9
:2011C000184400250124197816704570847070291CD041F64C24C2F200041678002003E034
:2011E00014F8035F702D0FD00130C0B2B042F7D306EB460070211954013618440025012494
:20120000197816704570847079291BD041F64C24C2F200041678002003E014F8035F792D7D
:201220000ED00130C0B2B042F7D306EB4600792119540124184401361978167044708470BC
:201240007A291CD041F64C24C2F200041678002003E014F8035F7A2D0FD00130C0B2B04286
:20126000F7D306EB46007A2119540136184400250124197816704570847080291CD041F6FC
:201280004C24C2F200041678002003E014F8035F802D0FD00130C0B2B042F7D306EB460005
:2012A000802119540136184400250124197816704570847084291CD041F64C24C2F200048B
:2012C0001678002003E014F8035F842D0FD00130C0B2B042F7D306EB4600842119540136A0
:2012E000184400250124197816704570847085291CD041F64C24C2F200041678002003E0FE
:2013000014F8035F852D0FD00130C0B2B042F7D306EB460085211954013618440825012440
:20132000197816704570847086291BD041F64C24C2F200041678002003E014F8035F862D42
:201340000ED00130C0B2B042F7D306EB46008621195401241844013619781670447084708E
:2013600087291CD041F64C24C2F200041678002003E014F8035F872D0FD00130C0B2B0424B
:20138000F7D306EB4600872119540136184400250124197816704570847088291CD041F6C6
:2013A0004C24C2F200041678002003E014F8035F882D0FD00130C0B2B042F7D306EB4600DC
:2013C000882119540136184410250124197816704570847089291CD041F64C24C2F200044D
:2013E0001678002003E014F8035F892D0FD00130C0B28642F7D806EB46008921195401369A
:201400001844002510241978167045708470A1291BD041F64C24C2F200041678002003E0B2
:2014200014F8035FA12D0ED00130C0B2B042F7D306EB4600A1211954012418440136197884
:20144000167044708470A2291CD041F64C24C2F200041678002003E014F8035FA22D0FD09B
:201460000130C0B2B042F7D306EB4600A22119540136184400250124197816704570847009
:20148000A3291CD041F64C24C2F200041678002003E014F8035FA32D0FD00130C0B2B042F2
:2014A000F7D306EB4600A321195401361844002501241978167045708470A4291CD041F66D
:2014C0004C24C2F200041678002003E014F8035FA42D0FD00130C0B2B042F7D306EB46009F
:2014E000A42119540136184402250B241978167045708470A5291CD041F64C24C2F20004F8
:201500001678002003E014F8035FA52D0FD00130C0B28642F7D806EB4600A5211954013640
:2015200018440125022419781670457084708A291CD041F64C24C2F200041678002003E0B4
:2015400014F8035F8A2D0FD00130C0B2B042F7D306EB46008A2119540136184400252F24CE
:2015600019781670457084708B291BD041F64C24C2F200041678002003E014F8035F8B2DF6
:201580000ED00130C0B2B042F7D306EB46008B211954012418440136197816704470847047
:2015A0008C291CD041F64C24C2F200041678002003E014F8035F8C2D0FD00130C0B2B042FF
:2015C000F7D306EB46008C21195401361844002501241978167045708470A6291CD041F661
:2015E0004C24C2F200041678002003E014F8035FA62D0FD00130C0B2B042F7D306EB46007C
:20160000A621195401361844022506241978167045708470A8291CD041F64C24C2F20004D6
:201620001678002003E014F8035FA82D0FD00130C0B2B042F7D306EB4600A82119540136F4
:201640001844002505241978167045708470A7291CD041F64C24C2F200041678002003E074
:2016600014F8035FA72D0FD00130C0B2B042F7D306EB4600A721195401361844042501249D
:201680001978167045708470A92919D041F64C20C2F200001578002103E010F8034FA92CB8
:2016A0000ED00131C9B2A942F7D305EB450019180135A927002601241F5415704E708C7081
:2016C000F0BC70470121082058701970117085E470B441F6C423C2F200031D78F5B141F6B7
:2016E0004C26C2F200063378834211D0013DEDB201353246012303E012F8031F814208D014
:20170000AB421C4603F10103F6D1002070BC7047002404EB4404A01970BC70472846F5E777
:2017200040780230C0B2704770B543784A780D46991C11446229044602DC0178402901D031
:20174000002070BD591C465C08447D2EF8D103321344E6542B7863546B784370696819B114
:2017600002306A7807F02CFA6B786278023313446370012070BD00BFF8B545780446602DCE
:2017800002DC0378402B01D00020F8BD6E1C835D87197D2BF8D1AB1C294600F8013F0022D4
:2017A00003F0BAFCA15D0346020A03356155A3557A700120F8BD00BF042910B481BF022174
:2017C00040247D23827083BF04704170C370002088BF01205DF8044B704700BF2DE9F84F7A
:2017E0000F46064690469946002400F1010B00F1030A21B914E00134A4B2A74210D9355DB7
:20180000402DF8D133195D7802352C44BC421EDC741914F8013C7D2B05D00124A742EED8AB
:20182000FF20BDE8F88F00225846291F03F074FC14F8022C14F8033C03EB02239842ECD1C3
:20184000B378012B09D0AF4204D02C46D5E70020BDE8F88F0120BDE8F88FAC1F2246404613
:20186000514607F0ADF989F80040ECE7F0B5002783B005463E463C46284600F0D9F901948B
:20188000019B9E4206DD00BF019B01330193019B9E42F8DC284600F0D5F90194019BC6F55E
:2018A000C876B34206DA00BF019B01330193019BB342F8DB0137B7F5487F06D0B7F5C87F1A
:2018C000CCBFC7F548763E46D6E703B0F0BD00BF2DE9F0414FF4EC74C1F2000423684FF434
:2018E000804084B05B68C4F2030001219847236801214FF480400A461B68C4F2030098475C
:2019000003F0BEFE01F056FE01F0FCFD00F016FB01F022FE00F082F944F20C000821C4F24B
:2019200009010123C4F2090042F22C02C4F2090203600B6018461368FFF798FF03F0A4FECE
:2019400001F0FAF801F05EF803F036FB01F0FCF903F046FA41F2342002F0A8F901F0C4FB56
:2019600003F0C4FB48F6F050C0F2000001F030FA03F0E8FD48F6EC5548F6E85410F0040F86
:20198000C0F20005C0F200040CBFA846A04603F0E1FD012814BF2F46274603F0D3FD10F0C9
:2019A000020F0CBF2E46264603F0CCFD10F0080F08BF2C4648F600603A46334600944146AD
:2019C000C0F2000002F0CAFA40F2E0000021C2F2000003F0BFFA02F0D1FF03F04DF81020E2
:2019E000FFF744FF48F63460C0F2000002F0B6FA49F6B413C0F20003186801F0E9F948F63C
:201A00003C60C0F2000002F0A9FA49F6DC13C0F20003186801F0DCF948F64460C0F2000026
:201A200049F6002402F09AFAC0F2000448F64C602168C0F2000002F091FAE469A04738B148
:201A4000A047014648F65060C0F2000002F086FA0A2001F0B5F904F0A3FD02A8082101F025
:201A6000EDF948F694649DF80F20BDF80E109DF80E6041F6CC23C2F20003C0F20004198084
:201A800042EA0626E56A4AF6CD310220A84731460320A84701200146A847636B082202A9CD
:201AA0000B2098470420FFF7E1FE40F234000021C2F2000003F04EFA48F6A050C0F20000CD
:201AC00002F0FEFE01F050F91020FFF7CFFE03F0A5F9044601F062F914F0FF0FF7D101F0F9
:201AE000AFFBF4E72DE9F04105888046772D42D07E2D36D025B1002303800320BDE8F081AB
:201B000003F066F940F26006C2F2000641F60D3340F244643268C2F20003C2F2000418703F
:201B20002560002A62D02B4641F6C8251F46C2F20005EF5493688020002198472368013374
:201B400056F823202360002AF3D1DBB241F63D21C2F200010B707723A8F800300120BDE801
:201B6000F08141F60D33C2F200031B788B4223D00120BDE8F08141F63D27C2F2000740F2B4
:201B8000446440F248663A78C2F20004C2F2000600239342336023600ADA41F6C825C2F2CF
:201BA0000005E956002923DB013393422360F4DB3368002BECD1CEE740F2446441F6C82529
:201BC00041F63D2740F24866C2F20004C2F20005C2F20007C2F2000623683268E85C511CCE
:201BE00000F07F003A78E8543160DDE71346ADE741F60D3140F26002C2F20001C2F20002D2
:201C0000097852F82320002003F072F90028E3D17E23A8F800300120BDE8F08108B500F007
:201C200045F941F63E23C2F2000300221A7008BD41F63E23C2F200031A78024310461A70A0
:201C400000F050B941F63E23C2F200031A7822EA000210461A7000F045B900BF41F63E2377
:201C6000C2F200031A78424010461A7000F03AB9704700BF704700BF704700BF38B540F255
:201C80004403C2F200035C6804F04CFD054604F061FD01462846A04738BD00BF38B540F239
:201CA0004403C2F200031C6804F03CFD054604F051FD01462846A04738BD00BF08B51B20A0
:201CC00004F01AFEBDE8084049F6D011C0F2000104F05CBC38B548F67C62054640F24C60FA
:201CE000C2F20000C0F200020C46922103F0DCFB40F2686048F68462C2F20000C0F2000227
:201D0000812103F0F5FA40F244032DB1C2F200031D6054B15C6038BD41F67142C2F200035D
:201D2000C0F200021A60002CF4D141F67542C0F200025A6038BD00BF08B540F24C60C2F225
:201D4000000003F0C5FBBDE8084040F26860C2F2000003F0E1BA00BF38B541F6CC23C2F221
:201D600000031D88038804469D420CD00846114604F040FD40F24C602146C2F2000003F069
:201D8000A9FB012038BD002038BD00BF08B504F031FD40F26860C2F2000003F0BFFA01205B
:201DA00008BD00BF2DE9F04F85B004AB03E90700DDF80480029EDDF80CA0B8F1000F0DD064
:201DC00040F28064C2F200040025204602F036FE38B901350F2D04F12004F6D105B0BDE8E7
:201DE000F08F204651464246334616B340F6600C4FEA850BC2F2000C0BEB050906F1200354
:201E00000CEBC9090093F36830687168B2684F460FC7009B10369E42B946F4D1306871681F
:201E20000BEB0503A9E803000CEBC30342462046514605B0BDE8F04F02F0DCBDF8B50646B1
:201E40000D46174605F026FC044628B1304639462A4605F05DFC044605F052FC2046F8BD3D
:201E600070B505460E46144605F014FC70B12846214605F0D3FC48B121463246284605F04A
:201E800073FC044605F03CFC204670BD05F038FC002070BD014620220020FFF7CFBF00BF67
:201EA000014620220020FFF7DBBF00BF38B540F6B823C2F200031A689AB901254FF4DA74E9
:201EC0001D60C1F2000423680620DB6B984723682846DB6B984742F2A003C4F20203C22264
:201EE0001A6038BD41F63F2342F2A002C2F20003C4F20202C22118701160C20741BF42F2BA
:201F00009003C4F2020340221A60C30641BF42F29003C4F2020302221A60704710B54FF4EF
:201F2000DC74C1F20004236804205B699847236804205B6B98470128F9D110BD10B503F07C
:201F40009FFB0446FFF7EAFF4FF4DC73C1F200031B684FF4A060DB69984742F22803C6F276
:201F60000803012142F228021960C4F2080213689B07FCD505F0A0FC40F24C00C2F20000EC
:201F800001F0B0FA04B110BDBDE8104003F07CBB012070470120704708B501F0B5FB48B1FE
:201FA00040F23C13C2F200035888022814BF0220012008BD022008BD10B582B001F012FE25
:201FC000044601F0A1FB08B902B010BD0120C0F2014001A901F0A0FB0128F5D1638803F4CF
:201FE0004063002BF0D1638803F44063002BF5D0EAE700BF30B583B001F086FB40F23C1441
:20200000C2F20004A8B900256580A37F40F23C105BB2C3F5FF6307339BB2C2F2000001A9F1
:20202000238301F079FB012818BF284608D003B030BD6388022B08BF0120E4D103B030BD5A
:2020400000F078FD4FF6C075CFF6FF752D1A03E000F070FDC54203D563889BB2022BF7D1D5
:20206000608880B2831E58425841E0E708B5B32994BF0A46B4220146024806F0A1FD002054
:2020800008BD00BFD60A002070B540F6C825C2F200052C68002603E024682B68A3420DD03D
:2020A0002379032BF8D140F29400C2F2000002F073FF24682B680136A342F1D1304670BD0F
:2020C000F8B540F6D024C2F2000425682B79032B18BF002601D03046F8BD2E89023E002EF4
:2020E0000CDD8E4205F10A070EDDB957042089B204F0E6FB03207F2104F0E2FB2B680022A8
:2021000023602A713046F8BD3946324606F058FDEBE700BF10B582B001F0F6FAF8B140F2F0
:202120003C14C2F2000463880120022B15D101A9C0F2014001F0F0FA02E06388022B03D132
:2021400001F0E2FA0028F8D16088A0F55050043880B201288CBF0020012002B010BD0120E1
:2021600002B010BD10B540F27C0340F28414C2F20004C2F200031A680521237E84F8241038
:20218000928882B003F0F80343F00803204601A96283237601F0C0FA012818BF002001D09D
:2021A00002B010BD204601F00DFB421E5042504102B010BD00B540F26C1083B0C2F20000F5
:2021C00001A901F0A9FA012818BF002002D003B05DF804FB40F26C10C2F2000001F0F2FA89
:2021E000411E4842484103B05DF804FB08B5FFF7B9FF012801D0002008BDFFF7DBFF012823
:20220000F9D1FFF7F7FEC0B208BD00BF08B501F041FD01280BD0FFF77DFF01F0D5FB01F0FF
:2022200029FA40F23C13C2F2000300225A80012008BD00BF2DE9F84F01F02CFD01282AD008
:2022400001F0E6F901F060FAF0B901F05DFA044620B3002001F064FC8B4A0027A2F18C0EBB
:20226000734602F50C760225842459791A6001F0FC0110468C3265F38301B2421F71DC8053
:20228000597115D00346F0E740F23C13C2F200035B88022BD9D10120BDE8F88F01F0ACFA99
:2022A0000128054610D001F08FFB0020BDE8F88FCEF8A4E101F0C4F9FFF754FF012800F0A8
:2022C000D9800020BDE8F88F01F000FC40F21C4049F28051C0F200014FF42C72C2F200107A
:2022E00006F06EFC4FF4647B40F2793840F2753CC2F2001BC2F20018C2F2001C40F2773E44
:2023000040F2AE3740F2AB3640F2813040F24D314FF4707340F2CD524FF0020A8BF800407B
:20232000C2F2001E88F80050C2F200178CF800A0C2F20016C2F20010C2F20011C2F20013F2
:20234000C2F200124FF003094FF0040B05244FF00608072541F21C0C8EF80090C4F2040C45
:2023600087F800B0347080F800800D701A60DCF8003041F21C01C4F20401002BF7D048F65C
:20238000CC69C0F2000900204FF440434CF2A06A4A460860C2F20013C2F2001A00E00B4661
:2023A00009EB030101F15F41A1F54041D1F80080D2F804C0D2F808E0D7681669556994697A
:2023C000D06903F120015145C3F8008002F12002C3F804C0C3F808E0DF601E615D619C612E
:2023E000D861DCD14CF2806343F660104FF4815E46F6137741F2116646F6543541F21C0483
:202400004FF4805240F20111C2F20013C0F20E41C1F6102E4FF0000CC4F20402C6F2533064
:20242000C4F20404C6F62367C1F21266C7F200051862C3F824E001209F62DE621D63C4F8D8
:2024400000C0116003F02EFA40F28410C2F2000003F08EF921460A6841F21C03C4F2040354
:20246000002AF8D000221A6001F038FA01283FF4F0AE18E7FFF79EFE01287FF422AFBDE80E
:20248000F84FFFF7B7BD00BF180C002070B582B0072800F29480DFE800F08C0492922792D8
:2024A0002A69202900F2888040F26C13C2F20003188ADC894FF47A7202FB04F402FB00F2C4
:2024C000A4F55F2402F57F42A4F66C64FF3248F21F5004EB1242C5F2EB10A0FB0240CAB296
:2024E000C0F38710824275D1002002B070BD49F63005C0F20005AE884FF6FF70864208BFE5
:20250000FF2209D02B46002208339C8801328442D2B2F9D1013AD2B255F8323049F63004A7
:202520009942C0F2000447DB2368994244DC0191FFF742FD4FF6FF70864201997ED0002314
:202540000834A28801338242DBB2F9D1013BDAB205EBC2040023E058083B814266DD12F1A1
:20256000FF32F8D2FFF742FE0020BEE740F22E23C2F20003197001F0C7F810B340F23C13AE
:20258000C2F200035B88022B08BF002519D1FFF7C1FD012814BF03240024FFF727FE01285F
:2025A00018BF03242046002D9FD0FFF72FFE20469BE7012935D071B3022002B070BD01209B
:2025C00093E7FFF737FE012808BF0546DFD0032002B070BDC82000FB01F044F6D35200F542
:2025E0005F20C1F2620200F66C60A2FB00414FF618448909CFF6FF7404FB01000004A2FB99
:20260000004040F2841289B28009C2F200021882D9811184AFE70191FFF7F8FD01990846B4
:2026200063E7FFF707FE0128D1D15DE740F27C0305EBC202C2F200031A6093E7FF2287E7A7
:202640002DE9F0430C4683B069B1102800F2A880DFE800F01523A6A6A6A6949D43A6A6A653
:20266000A673767A0D00022003B0BDE8F08349F63003C0F200031B6800202360F4E701F03E
:2026800043F838B140F23C13C2F200035888851E6842684120600020E6E740F26C13C2F236
:2026A00000031A8AD9894FF47A7303FB01F103FB02F3A1F55F2103F57F43A1F66C61FF3398
:2026C00048F21F5201EB1343C5F2EB12A2FB0312C2F3871222600020C6E701F015F80028E4
:2026E00060D040F23C13C2F200035B88022B08BF4FF0000956D1092680254FF0000840F2DF
:20270000034701A86946CDF80480ADF8047001F003F8731E30B19DF80250680602D113F02C
:20272000FF06EED1B9F1000F42D168B2206010F1800F0CBF0320002096E70020206093E73A
:202740002023236000208FE749F63005C0F20005AB884FF6FF70834208BFFF2209D02B4614
:2027600000220833998801328142D2B2F9D1013AD2B255F832300020236075E740F27C0379
:20278000C2F200031B6800201B6823606CE740F22E23C2F2000393F900300020236063E7A3
:2027A000012061E7FFF746FD012804D18146A2E7FFF72CFDB9E76FF07F032360032053E7A9
:2027C00070B582B0044600F09FFF80B340F23C13C2F200035B88022B08BF002627D1221D2B
:2027E000A01C40F6D42340F2AC14C2F2000392B2C2F2000480B2110A2082E36159701A70C5
:20280000FFF788FC0020014601F0CAF9204601A900F082FF0125C0B9002001F0D7F90023FF
:202820006380FFF7E7FB284656B902B070BDFFF701FD012808BF0646D1D0012002B070BDB0
:20284000FFF7E4FC284602B070BD00F0A7FA638803F4406333B900F0E9FC638803F44063F9
:20286000002BF8D06588ADB2B5F5505518BF0125D2E700BF10B5B32994BF0A46B4220C46E9
:202880000146044806F09CF92046BDE81040FFF797BF00BFD60A002030B583B001F0FAF9B8
:2028A000012825D000F030FF20B340F2AC13C2F200035B88022B18BF002528D0802403E0D5
:2028C0009DF80640630607D10120C0F2034001A900F022FF0128F3D0B5B940F22E23C2F27A
:2028E000000393F9000064B2A042D4BF0020012003B030BDFFF79EFC012808BF0546DDD065
:20290000FFF784FC0120F3E7FFF780FCE5E70120EEE700BF08B500F0F7FE70B140F23C130F
:20292000C2F200035B88022B06D1FFF7B5FF10F1FF3018BF012008BD002008BD40F26800E3
:20294000F8B5C2F2000000F0CDFD02F003FE012802D000242046F8BD40F68C34C2F2000481
:20296000204600214FF40C7206F0A0F940F6BC2640F6D02140F6C82340F23C1040F28415D7
:2029800040F26C12C2F20003C2F2000040F2953EC2F20002C2F2000144F6CC4C0027C2F27F
:2029A0000006C2F200050C6083E890008362C662A5F820E0A2F80EE0A2F810C0FFF73AFC29
:2029C00001280446C5D148F68C60C0F2000001F00FF940F294003946C2F2000002F0BAFA7A
:2029E000B8E700BF10B54FF4DC74C1F20004236804205B699847236804205B6B984701289B
:202A0000F9D110BDF8B540F23021C2F2000100220023C1E900234FF4DC73C1F200031B685D
:202A200004205B6B9847012801D0FFF7DBFF4FF4DC73C1F200031B680020DB69984742F2C1
:202A40002803C6F20803012142F228021960C4F2080213689B07FCD50C23C4F20103196877
:202A60004FF4E47221F4807121F001011960C1F2000213680024C4F201044FF404511B6801
:202A80002046C0F20041984704233C2108221F46C4F201013126C4F2010240F22125C4F2F5
:202AA0002433012027600E6015601860F8BD00BF10B442F2080342F20C04C4F20903C4F289
:202AC00009041968226818688142FAD1C90140F2302001EB5262C2F200000023C0E9002341
:202AE0005DF8044B03C8704710B542F2080342F20C04C4F20903C4F2090419682268186858
:202B00008142FAD1C90140F2302001EB52620023C2F20000C0E9002302F08AF800B910BD9E
:202B2000BDE8104002F06EB8704700BF0146012000F058B802F0F2BC2DE9F04102F0A0FD34
:202B4000002642F204034FF48032C4F2090301240027C4F224364FF480714FF4C2753760BC
:202B6000C1F200051C6019601A602B6880461B683846232198472B6820461B682421984711
:202B80002B6802201B68252198474FF40053C4F20903196842F2080241F4E021C4F20902CA
:202BA0001960176002F0BAFC42F21C024FF4287300F50070C4F22433C4F209024FF4D8718E
:202BC0001060C1F200011C6034600B6814201B699847B8F1000F01D0BDE8F081BDE8F04142
:202BE00002F052BD431E042818BF012B10B42CD810F001021EBF42F21803C4F20903196012
:202C000010F002031EBF42F21C04C4F20904216010F004001EBF42F22004C4F209042160BD
:202C20002AB14FF42072C4F22432012111602BB14FF42873C4F2243301221A6028B14FF4C5
:202C40003073C4F2243301221A605DF8044B704740F6BC53C2F200031868704708B5FFF7E6
:202C600069FF40F6BC53C2F200031860FFF73CFFA023C4F224331B68BBB98023C4F22433D0
:202C80001B6863BBC023C4F224331B6863B14FF4307242F20403C4F224320020C4F20903FE
:202CA0004FF480311060196008BD42F20403C4F209034FF480721A6002F030FC00F2052091
:202CC00020F4FF7242F21C03C4F2090322F001021A608023C4F224331B68002BD2D04FF488
:202CE000207242F20403C4F224320020C4F2090301211060196002F061F9C3E7820741BF8F
:202D00004FF44063C4F2080301221A60C30700D4704702F0B9BC00BF08B502F0B1FC4FF455
:202D20004063C4F208031A68012A03BF4EF25152C1F6CC221A60002308BF0223002814BFB4
:202D4000184643F0010008BD00224FF6FF714FF44063C4F20802C0F20F01C4F208030120FB
:202D600011601860704700BF38B5FFF7D5FF00244FF6FF750C214FF48273C4F20804C0F287
:202D80000F050122C4F20033C4F2080125600A601A60BDE83840FFF7B1BF00BF00224FF642
:202DA000FF710C23C4F20802C0F20F01C4F20803012011601860704708B5FFF7D5FFFEE704
:202DC00010B50446C0B200F0A5F9204610BD00BF38B50546002403E0285D00F09BF9013475
:202DE000284605F0ADFF8442F6D30A2000F092F900F0E0F90128FBD0204638BD70B5054608
:202E00000E46A8B10078B8B1A1B1002404E015F8010F38B1B44205D000F07CF96B1C04F118
:202E20000104F4D100F0C6F90128FBD0204670BD0446F7E70C46F5E70446F3E710B44FF60F
:202E4000C7734FF6CF74C0F20103C0F2010413F8012FFF2A12D1A342F9D141F2F022C5F251
:202E6000000241B10A44002312F8014C013AC45401338B42F8DB5DF8044B70474FF6C87295
:202E8000C0F20102EDE700BF38B54FF4DC75C1F200052B6802205B6998472B6802205B6BDE
:202EA00098474FF4DC7301280446C1F20003F4D11B684FF40070DB69984742F22803C6F243
:202EC000080342F228021C60C4F2080213689B07FCD538BD2DE9F0434FF4E87683B0C1F29A
:202EE0000006FFF7D1FF33684FF480504FF4D878DB68C4F20000C1F200089847D8F8003032
:202F000041F238045B691520C4F200049847236841F2440523F4FE6323F00203C4F200055E
:202F200040F2F2794FF4DA772360C1F20007C5F800903B680320DB6B984742F29003C4F26E
:202F4000020308221A603A684FF0FF3300934FF48050176CC4F200001D210322B8473368D9
:202F60004FF480504FF4D8415E68C4F20000C0F2DC214FF4E1326023B04741F23403C4F2C7
:202F80000003142141F22C021960C4F20002116840F6C05341F010011160C2F200031968BA
:202FA00040F2013640F2011041F23002002914BF31460146C4F200021160C5F800901B684D
:202FC00043B12368152043F050032360D8F800301B69984703B0BDE8F08300BF08B54FF447
:202FE000DC73C1F200031B6802205B6B9847012801BF42F26C03C4F20803186800F00100C4
:2030000018BF002008BD00BF38B50446FFF7E6FF30B141F21802C4F2000213681807FCD4D3
:20302000032C06D040F6C053C2F200031B6803B138BDFFF7D3FF38BB4FF4DC75C1F2000558
:203040002B684FF400701B6A9847032C41D042F22803C6F20803012142F228021960C4F2B5
:20306000080213689907FCD5032000F05DFA1D2000F05AFA4FF0FF3000F056FABDE83840A4
:203080004FF0FF3000F050BA4FF4E873C1F200031B684FF48050DB68C4F2000098474FF4C3
:2030A000D873C1F200031B6815205B69984741F23803C4F20003186841F2440220F4FE6022
:2030C00020F00200C4F2000240F2F27118601160B2E72B684FF400709B6A98472B684FF40F
:2030E00000701B6B9847B2E710B502F0C9FA044640F28000C2F2000000F0F4F940F6C05312
:20310000C2F2000300221A6004B110BDBDE8104002F0BABA10B50446FFF760FF08B9FFF764
:20312000D9FE4FF4E873C1F200031B684FF480502146DB69C4F20000984710BD40F6C05378
:20314000C2F2000310B5186040F28003C2F2000300B302224FF4DC741A61C1F200042368E8
:203160004FF400705B6A984723684FF40070DB6A984742F22803C6F20803012142F22802F4
:203180001960C4F2080213689C07FCD5BDE81040FFF7A0BE4FF4DC741861C1F20004236870
:2031A0004FF400709B6A984723684FF400701B6B9847DEE708B5FFF711FF30B141F218031E
:2031C000C4F200031868C0F3C00008BD70B5FFF75BFE4FF48253C4F200031A6841F244033D
:2031E000C4F2000340F2F27112F0500F196018D041F218054FF4E87640F6C054C4F20005C9
:20320000C1F20006C2F2000406E03368C4F200001B69984723682BB92B684FF48050DB06AD
:20322000F3D570BDC0B29847F6E700BF4EF61053CEF200031A6822F004021A6030BF704788
:2032400070B502F01DFA01F047FE18B1BDE8704002F01ABA40F6C450C2F2000001F078FFC0
:203260000225044648B1636823B19847A84228BF2846C5B22468002CF5D1FFF75BFC4FF4A2
:203280002073C4F224331B680446002B40F0B88001F0CEFC03460146002840F0F280012DEB
:2032A00000F0CC80022DD1D12846002B00F00581FFF798FC40F6C450C2F2000001F048FF32
:2032C00006250446002800F0AF80A368022003B198472369246825EA0305002CF5D1FFF75B
:2032E0005DFD6A0705F0060400F1A180002C40F0E98000F0BFF9002004F03EFC4FF4805222
:20330000C4F20902116841F2080321F003011160C4F2090319684FF4DC7241F00F01196021
:20332000C1F20002136839209B6998474FF482524FF484610023C4F20902C4F22231136082
:20334000184613600B6002F0FDFE062C00F0C38042F22C0542F22424C4F20804C4F2090578
:203360002B6823684FF4EC7623F003032360C1F2000633684FF48040C4F2030003215B68F7
:2033800098474FF4DC73C1F200031B689B6B98472B6803F055F84FF4C0730022C4F2043346
:2033A0001A6033684FF48040C4F203005B6801219847216844F20C0341F003010122C4F29C
:2033C000090321601A602B6803F07AF804F09CFBFFF78AFBFFF7E2FC40F6C450C2F2000016
:2033E00001F0B6FE044628B1E36803B198472468002CF9D102F048F9BDE8704002F044B92E
:2034000042F21803C4F209031B681B1A022B52D4A3F28F23002BB8BF0123BFF639AF9D4207
:2034200028BF1D46EDB233E7FFF7B8FC062444F20C03C4F2090300221A6057E7002B4ED08B
:203440004FF6F873CFF6FF731B1BCB4248BF04F1080106D404F58034631A31EA230128BF13
:2034600021460220FFF7BEFB4EF61053CEF200031A6822F004021A6030BFBDE8704002F060
:2034800003B901F0DFFB0646FFF712FB361A002E15DDFFF7DDFB4FF67153CFF6FF731B1BA2
:2034A00000EB4621CB424FF001037FF5F8AE9D4228BF1D46F3E60023B1E7611EF8E6002313
:2034C0001946F4E74FF4DC73C1F200031B6820469B6998470DE7022002F030F938E704F555
:2034E0008031BEE7014640F6C450C2F2000001F031BE00BF014640F6C450C2F2000001F05C
:203500007DBE00BF40F6C45008B5C2F2000001F01BFE4FF4C273C1F200031B6803201B6895
:203520002021984708BD00BF411C10B5044611D04FF4DA73C1F200031B684FF4C0421B6809
:20354000002198474FF4D053A400C4F24423234300221A6010BD00BF08B5084B002103F191
:20356000800243F8041F9342FBD14FF4D873C1F200031B6810201B69984708BDC40D0020BA
:20358000F8B542F2E003C4F202031D6840F6C8571D60C2F200070024012606FA04F32B42EB
:2035A000E0B203D057F8243003B198470134202CF3D1F8BD10B584B00022412302A80292B9
:2035C000039304F0B7FA042002F0A0F8032819D00420032102F05CF8042002F097F8032890
:2035E0000346F9D14FF4D272C1F2000212684FF4204000935468C4F20C0000214FF040525C
:203600001C23A04702A804F0F7FA04B010BD00BF00B583B00022412368468DE80C0004F024
:2036200089FA012002F072F8012803D00320012102F02EF8684604F0DFFA03B05DF804FBAF
:2036400000B583B00022412368468DE80C0004F071FA012002F05AF8012805D04823C1F2ED
:203660000003986B01F040FF684604F0C5FA03B05DF804FB10B582B04123684600240193EB
:20368000009404F057FA0320214602F001F8012002F03CF828B14823C1F20003986B01F0A7
:2036A00023FF684604F0A8FA02B010BD70B503880646C3B140F22322934219D1822921D1E2
:2036C00048F69463C0F2000349F600251C69C0F20005FFF763FB03F07BF803F023F88021F7
:2036E000A047002808DC40F223233380012070BD00230380032070BD80B203F00DF82B69AA
:203700009847E6E7012070BD42F29C13C4F20803186800F00100704738B510F003030546A5
:203720000C4626D001F0ACFF42F29C13C4F208031B68003018BF0120DB072AD54FF480535F
:20374000C4F2040341F204011D60C4F204010B684CF25032236003E00B68013A236018D08A
:2037600013F0FF0FF8D050B32078421E5042504138BD02881005D5D56B8001F081FF42F284
:203780009C13C4F208031B68003018BF0120D90702D480B1002038BD2B8813F4405FCDD01C
:2037A00003F44063B3F5006F02BF40F64863C2F200031D60C2E701F067FF002038BD01F07C
:2037C00063FFD1E74AF22013C0F2070301E0013B0FD0428802F44062B2F5806FF7D1408820
:2037E00000F44060B0F5806CDCF1000050EB0C0070471846704700BF70B582B001F040FF7E
:203800004FF4D874C1F20004236805461B6A19209847236812201B6A9847236819205B6946
:20382000984723684FF4DC745B691220C1F200049847236801205B699847236801205B6B3E
:2038400098470128F9D142F22C0142F22803C4F20801C6F2080342F228020860C4F20802CE
:20386000186013689907FCD541F2100141F214030022C6F20401C6F204034FF4D8740A60BF
:20388000C1F200041A60236819201B699847236812201B699847F5B1002441F21C014FF453
:2038A00080535122C4F20403C0F20762C6F2040440F2FF36C4F20401002501202660C0F28A
:2038C00006400D601A6001A9FFF726FF431E5842584102B070BD01F0D7FEDDE730B540F6DE
:2038E0005063C2F2000387B01B680024012240F60A0501A8694601940494059302940394CE
:20390000ADF804508DF81120FFF706FF012804BF4AF22010C0F2070004D0204607B030BD0E
:203920000138FBD0BDF8063003F44063B3F5806FF6D1BDF8060000F44060B0F58064604226
:20394000604107B030BD00BF10B586B00023012240F6090401A86946019304930293039331
:203960000593ADF804408DF81120FFF7D5FE012806BF4AF22010C0F20700C0B203D006B039
:2039800010BD0138FBD0BDF8063003F44063B3F5806FF6D1BDF8063003F44063B3F5806F57
:2039A00018BF0020EBD141F64023C2F200031A780120002AE3D140F650620599C2F2000236
:2039C000012011601870DAE730B587B001F058FE4FF4D874C1F20004236805465B69192090
:2039E0009847236812205B69984742F29C13C4F208031B68DA0720D541F2100141F21402FE
:203A00000023C6F20401C6F204020B6040F60D04136002A8012201A9029305930393049312
:203A2000ADF808408DF81520FFF776FE012804BF4AF22013C0F207033DD0FFF785FF42F2A3
:203A40002C0142F22803C4F208010024C6F20803012042F228020C60C4F208021860136896
:203A60009B07FCD54FF4DC74C1F20004236801209B699847236801205B6B98470228F9D1B5
:203A80004FF4D874C1F20004236819201B6A9847236812201B6A9847236819201B69984770
:203AA000236812201B6998470DB901F0EDFD07B030BD013BC1D0BDF80A2002F44062B2F5B6
:203AC000806FF6D1BDF80A30B7E700BF08B501F069FD052815D003281AD050B1012801BFBF
:203AE00042F2D013C4F2080305221A6018BF002008BD42F2D013C4F2080303221A600120F9
:203B000008BD42F2D013C4F208031860012008BD42F2D013C4F2080302221A60012008BD4E
:203B2000F8B542F29C13C4F208031A680023C8F2800300280CBF1D460025D10700D4F8BD76
:203B400001F09EFD41F2180141F2140241F21003C6F20401C6F204020646C6F20403002058
:203B60004FF000474FF4D8740F60C1F2000415601860236819201B6A9847236812201B6AB3
:203B80009847236819201B699847236812201B69984706B1F8BDBDE8F84001F075BD00BFD4
:203BA000002398420CBF022008200029C8F2800318BF002341F2100141F214021843C6F2F3
:203BC0000401C6F204020B60106070470023984241F21402C8F2800318BF0023C6F2040255
:203BE0001360704740F64863C2F200031868704740F64C63C2F200031860704708B542F210
:203C00009C13C4F208031B68D80704D4FFF7F4FD012800D008BD41F21003C6F204036FF0F1
:203C200000421A6008BD00BF08B542F29C13C4F208031B68D9070AD449F6B800C0F20000F9
:203C4000FFF7C6F8FFF7D8FD012800D008BD01F017FD41F21003C6F204031A6812020ED4A5
:203C600041F21003C6F204031A6812F00A0F1CBF6FF00A021A60BDE8084001F005BD6FF4DF
:203C8000000240F294001A60C2F2000001F084F9E6E700BF41F64123C2F20003187870479B
:203CA00008B500F0A3F880B208BD00BF00F038B938B54FF4DC75C1F200052B6804205B6971
:203CC00098472B6804205B6B98474FF4DC7301280446C1F20003F4D11B6840F20140DB69EF
:203CE000984742F22803C6F2080342F228021C60C4F2080213689B07FCD538BD40F6546359
:203D0000C2F20003186800280CBF0220012070472DE9F04103880646002B4AD0B3F5847F71
:203D200009D140F22F23C2F200031B788B4207D00120BDE8F081002303800320BDE8F08121
:203D400040F65467C2F200073B68B3B14FF4E673C1F200031A6848F20403C4F20203526826
:203D60000220D3F8008090470024221848F10003194610463B6898473C604FF4DC73C1F24D
:203D800000031B6840F201409B6A984742F22803C6F20803012142F228021960C4F208026B
:203DA00013689907FCD540F2A400C2F20000FFF7A1FB4FF4847333800120BDE8F08100BF18
:203DC00008B54FF4DC73C1F200031B6804205B6B9847012801BF42F23C03C4F208031868F5
:203DE000C0F3400018BF002008BD00BF70B540F65463C2F200031B68D3B140F65860C2F2E3
:203E000000000023C15C40F65862C2F2000229B90133042BF6D10020014670BD40F2382191
:203E20000024C2F2000101EBC301D45403C970BDFFF7C6FF002842D048F20803C4F20203E3
:203E40001A680123C8F2000313409BB949F6F073C4F2020301221A6018680028FCD10246A1
:203E60004FF4807102F070FB4FF42A73C4F2502301221A6001F004FC48F208020646C4F2D4
:203E800002021368D807FCD54FF4E673C1F200031A6848F20403C4F20203526802201C68C3
:203EA000904700222346141843F1000516B12046294670BD01F0E8FB2046294670BDFFF7A6
:203EC000F7FEB9E738B54FF42A750024C4F2502548F20C032C60C4F2020319684FF4D87291
:203EE00021F001011960C1F20002136831205B699847204622464FF4807102F025FB0122DB
:203F000040F22F232A60C2F2000340F2B80022461978C2F20000BDE8384000F0E9BF00BFD1
:203F200010B540F22F24C2F200042378802B00D010BD00F04DFF207040F2B800C2F2000032
:203F40000021BDE8104001F005B800BF08B51AB108461146FEF752FF002008BD0FB400B50E
:203F600083B004AB53F8041B40F2C8001A46C2F20000019300F022F803B05DF804EB04B09E
:203F8000704700BF38B50C46054609E049F61C11C0F200012B6868681022103C984718B988
:203FA000102CF3D8204604B938BD49F61C112246C0F200012B686868984738BD2DE9F04FCF
:203FC00049F6741491B0C0F20004002582468946099204940295884698F80030002B00F0F4
:203FE000F080252B00F01983444602E0252B04D02C466378651C002BF8D145450FD0C8EB07
:20400000050641463246DAF80030DAF804009847002840F08F826378029C34440294002BC4
:2040200000F0CF806B78002B00F0CB8001350024A3F12002AC46102A1CD8DFE802F0181BDC
:204040001B151B1B1B1B1B1B1B121B0F1B1B090044F0100401359CF80130E9E744F00104AC
:20406000F8E744F00604F5E744F00804F2E744F00204EFE7A3F13102D2B2082A00F2E5804A
:20408000A3F13002D2B2092A9CBF01354FF0000B00F2DE800BEB8B0B03EB4B0BAC4615F8A9
:2040A000013BABF1300BA3F13002D2B2092AF1D92E2B00F0D2804FF0FF316C2B00F0EE80A7
:2040C000682B00F07B81782B00F28180DFE813F079007F007F007F007F007F007F007F000F
:2040E0007F007F007F007F007F007F007F007F007F007F007F007F007F007F007F007F00D0
:204100007F007F007F007F007F007F007F007F007F007F007F007F007F00A2027F007F008A
:204120007F007F007F007F007F007F007F007F007F007F007F007F007F007F007F007F008F
:204140007F007F007F007F007F007F007F007F007F009F027F007F007F009C0299029602F9
:204160007F007F007F007F007F007F007F007F007F007F007F007F007F007F007F007F004F
:2041800093027F007F007F007F007F007F007F007F0090027F008D028A02870284028102D4
:2041A0007F008A027F007F007F007F007D007E027B027F007F0078027F0075027F007F0012
:2041C0007202029811B0BDE8F08F44F4E06404F4E063B3F5806F0CF1010800F0CF806DD913
:2041E000B3F5C06F00F0B281B3F5E06F00F0A781B3F5A06F7FF4F0AE099BBBF1010F1A680C
:2042000003F1040309938CBF0BF1FF3B4FF0000BE3078DF8282000F13E8350465946FFF7A8
:20422000B1FE002840F08681029CDAF800305C44DAF804000AA9012202949847002840F0B7
:2042400079810BF1010B029D95E02A2B00F0C6802E2B4FF0000B7FF42EAF9CF801300CF108
:204260000101A3F13002D2B2092A00F2C4800CF102024FF0000909EB890903EB49091378EF
:204280009446A3F13001C9B20929A9F1300902F10102F0D96C2B49467FF412AF9CF8013021
:2042A0006C2B03BF9CF8023044F080040CF1020C0CF1010C18BF44F0600404E7B3F5807F11
:2042C00000F0A780B3F5407F7FF486AE099A49F65017116849F63C13C0F20003043214F476
:2042E000804FC0F2000718BF1F46099200230A46002900F057810DF13A00110902F00F02A6
:2043000041EA0371BD5C1E090A463346014600F8015952EA0305F0D10DF13B035B1A18BFCF
:20432000DD1C00F04181782030222323AB4501F8010C01F8022C01F8033CA1F103063AD8A0
:204340004FF0000B14F0010406D150465946FFF719FE002840F0EE803146DAF80030DAF8E0
:2043600004002A469847002840F0E48002980544002C40F0FB805D4402952DE6099B1E68FF
:2043800004330993002E00F04A8233781D466BB1731C18781A4601330028FAD1951B8D4211
:2043A00094BF002301230029B8BF0023002B18BF0D46AB45C4D9C5EB0B0BC3E79CF8013089
:2043C000682B03BF9CF8023044F020040CF1020C0CF1010C18BF44F0400474E6099B05F112
:2043E000010C1A680433002A0993B8BF44F0010493466B785CE62A2B18BF8C467FF45BAE09
:20440000099A9CF80230111D09910CF1020C116853E60029ABBF24F010040125059105959D
:2044200014F4005504F0E003039500F0A780402B00F0208200F2F380002B00F0DE81202B72
:2044400040F00882099B1A1D099293F90020D317002A73F10000C0F2DA81CDE906230025F7
:20446000089504F4C053B3F5805F00F06481B3F5C05F00F07F81B3F5006F1CBF0DF13E054E
:204480004FF0000900F03281059941F60803894504EA030341F20802C0F0E580934218BF91
:2044A000002600F00A8241F60802934206EB090100F0FC8000273A46039870B1089B002BAC
:2044C00040F00E8104F00603022B00F0CD810498062B08BF012708BF02467B189B458CBF2C
:2044E000C3EB0B0B4FF0000B14F00103039304D1E10640F19E815E449B463FB11146DAF868
:204500000030DAF804003A46984798B9102E344603D8B5E0102C40F2B38049F62C11C0F2EE
:204520000001DAF80030DAF804001022103C98470028EFD04FF0FF3011B0BDE8F08F099B67
:20454000029C1A6804331460099345E549F68011C0F20001DAF80030DAF80400012298476D
:204560000028E7D1029C0134029435E550465946FFF708FD00283FF4FEAEDBE7402B00F084
:2045800080815CD8002B00F02D81202B40F05B81099B039D18781A1D002108950992CDE9AC
:2045A00006015EE70DF13B01302301F8013C04250139B8E644F4C85409E644F4106406E610
:2045C00044F4806403E644F4407400E644F48854FDE544F48134FAE544F40074F7E544F482
:2045E0000244F4E544F42454F1E544F4A064EEE544F4C134EBE544F4B244E8E544F4A13402
:20460000E5E544F48444E2E544F44244DFE544F4E134DCE544F4C064D9E5454602E5602B62
:2046200000F0EB80802B40F01581099B073323F0070303F108020992D3E9002308E7602BC1
:2046400000F0D080802B40F0FE80099B039D073323F0070303F10802D3E900010895099233
:20466000CDE90601FDE69342C9EB01067FF41BAF002E08BF012600273A4606EB09011BE70D
:20468000002C40F0A1802946DAF80030DAF804004A46984700287FF44DAF029B039C4B4485
:2046A0001F443E44ACB95E44029695E4DDE9062313433FF4FFAE49F6681249F6641314F461
:2046C000804FC0F20002C0F2000318BF1A460227F2E650465946FFF755FC0028E3D029E703
:2046E00049F66C12C0F200020127F6E6DDE90601014300F0B480DDE906670DF13D09304623
:2047000039460A22002303F03FFF303289F80020304639460A22002303F036FF06460F468A
:2047200056EA07024D4609F1FF39E8D10DF13E03C5EB0309A8E6DDE90623134300F08F80E5
:20474000DDE906230DF13D01D00840EA4370DE0802F00707334602460D4652EA030007F148
:204760003001297005F1FF31EED10DF13E03C5EB030989E649F6501749F63C1314F4804F15
:20478000C0F20003C0F2000718BF1F46DDE90623134364D0DDE906230DF13D01100902F0C0
:2047A0000F0540EA03704FEA131E7E5D0246734652EA03000D460E7001F1FF31EED10DF113
:2047C0003E03C5EB03095FE649F62C112246C0F20001DAF80030DAF80400984700283FF4EE
:2047E00052AFA7E6039D099B08951A680021043310460993CDE9060133E6099B1A6804334B
:204800000993D317002A73F10000BFF626AE504263EB43010125CDE90601089521E6052922
:2048200049F67816C0F200068CBF002301230625BCE5504659460192FFF7A4FB019A002875
:204840003FF45BAE76E60025002000210895CDE9060106E600200021CDE90601FFE54FF0F3
:2048600000090DF13E050FE649F67012C0F20002012732E6099B1A1D0992B3F90020D31718
:20488000E6E5099B039D18881A1D002108950992CDE90601E5E5DAF80030DAF804000AA9C7
:2048A0000122984700287FF445AE50465946FFF769FB00283FF4C5AC3CE60126DBE600BF44
:2048C00010B50446006830B1002100F043FB54F8040F0028F8D110BDF8B503880646154635
:2048E000EBB14A2B17D1882946D140F65C60C2F2000000F02DFC044648B1031D9D4202D123
:2049000026E09D4224D02468231D002CF9D14A2333800120F8BD002303800320F8BD40F652
:204920005C60C2F2000000F013FC044630B1201DA16800F06DF92468002CF8D141F6422324
:20494000C2F2000301221A704A2333800120F8BD40F65C60C2F20000214600F04FFC40F67F
:2049600068656269A369C2F200052F682A600BB1E06998472F60CAE70120F8BD10B541F6C3
:20498000422340F65C600024C2F20003C2F200001C7000F0D9FB40F2D0002146C2F20000C4
:2049A000BDE8104000F0D6BA70B541F64224C2F20004049D267882610446C36145614EB9CB
:2049C000A16040F65C602146C2F20000BDE8704000F0C0BB40F66865C2F200052E6840F285
:2049E000D003C2F2000304302B6000F011F92E60E7E700BF10B540F66864C2F2000424684E
:204A000082B00094FFF7D0FF02B010BD10B541F64223C2F200031B78044653B9C360036104
:204A200040F65C602146C2F20000BDE8104000F0E5BB043000F012F9F2E700BF38B541F6F9
:204A40004223C2F200031D7804466DB940F65C60C2F2000000F07CFB10B90AE0006840B11C
:204A60008442FBD1002038BD0430BDE8384000F0D9B8012038BD00BF704700BF10B540F677
:204A80006064C2F200042368CBB1FEF711F8236859681A689B680A44121A4BB193E81200C1
:204AA0009B682144091A8A4228BF0A46002BF5D140F664630244C2F200031A6010BD40F600
:204AC0006462C2F20002136010BD00BF2DE9F041038805467BB1592B08D1872915D0822975
:204AE00026D059232B800120BDE8F081002303800320BDE8F08140F66062C2F20002136062
:204B000059232B800120BDE8F08140F66067C2F200073B68002BE4D0D9688A4203D02BE012
:204B2000D9688A4227D19B68002BF9D13B60D8E740F66067C2F200074FF000083C68002C4F
:204B4000CFD0002604E0A3682646002BC9D01C46204600F051FA0028F5D0E0688821224628
:204B600000F0C6F9034640F2E000C2F2000073B100F012FAE7E73B6099680029B1D0C86813
:204B800082420BBF89680B4699608968F5E7E360A3682EB1B360C4F80880FFF76FFFCDE7E3
:204BA0003B60F8E710B5044640F2E000C2F2000000F0F2F940F66062E368C2F20002116859
:204BC00053B149B18C4218BF0B4602D110E09C420ED09B68002BFAD140F66863C2F20003B1
:204BE0001B68A160E3601460BDE81040FFF746BF40F66863C2F200031B68E360BDE8104017
:204C0000FFF73CBF40F2E000C2F2000000F0C4B910B5044600F0E8F92046BDE81040FFF73F
:204C2000C1BF00BFC068D0F1010038BF0020704740F66063C2F200031868003018BF012025
:204C4000704700BF40F66063C2F20003186820B140F66463C2F200031868704710B540F6F7
:204C60006063C2F200031A680446904217D04AB1936883420AD02BB19A68A24207D01346AE
:204C8000002BF9D10023A360E36010BD1346A2689A60FFF7F3FE0023A360E36010BD826885
:204CA0001A60FFF7EBFEEDE72DE9F84340F66C68C2F20008D8F8004040F66866221CC2F2AA
:204CC000000618BF0122844218BF002C054689463768234604D01B689D4218BF002BFAD1E6
:204CE00063B3AB7BE3B10023AB736AB1A54220464FF087012A4604D0A37BDB0701D500F06A
:204D000029F82468002CF1D1AB683BB14D4505D0356005F10C00832100229847D8F8004046
:204D2000A54212D04CB12368AB4209D02BB11A68AA4206D01346002BF9D13760BDE8F88337
:204D400023462A681A603760F8E72B683760C8F80030F3E770B5856804460E468DB140F650
:204D60006863C2F200030220A0731C6004F10C00A8470238012805D9832E1CBF0123A37309
:204D800000D070BD20462146BDE87040FFF78CBF70B540F66C63C2F200031C6841F64523AF
:204DA000C2F2000300261E7084B1012501E0246864B1E37B002BFAD0A573E67320468221DE
:204DC0000022FFF7C7FF2468002CF2D170BD00BF41F64623C2F200031878421C1A70704708
:204DE00070B441F6442040F66C6140F66862002341F6462541F64324C2F20000C2F2000125
:204E0000C2F20002C2F200058A26C2F2000403700B6013602E70237070BC70472DE9F0410F
:204E200041F64524C2F2000423780BB1FFF7B0FF41F64425C2F20005287818B341F64322BE
:204E4000C2F20002117840F6706301EB410C4FEA8C0CC2F2000303EB0C0701380131BE68B7
:204E6000C0B201F01F012870117013F80C807F68B6B1B8F1810F04BF0123B37306D0B37B67
:204E8000DA0703D423781844BDE8F081304641463A46FFF75FFF287823781844BDE8F081CF
:204EA00040F66C63C2F200031E6836B9EAE7B37BD9070AD43668002EEDD02378002BF6D0EF
:204EC000FFF766FFB37BD907F4D5304641463A46FFF740FFEEE700BF41F6452241F644231E
:204EE000C2F20003C2F200021278187810447047F0B441F64423C2F200031D78202D08BF7E
:204F0000012315D041F64324C2F20004277840F670642F4407F01F0707EB4707BF00C2F246
:204F20000004E6190135E1551D7072600023B0601846F0BC704700BF38B5837B40F6686403
:204F4000C2F20004DB07256801D5FFF703FF256038BD00BF70B440F66C65C2F200052E68A9
:204F60000446864218BF002E334604D01B689C4218BF002BFAD1A3420BD001200023266015
:204F8000A073A3810A4620462C60812170BCFFF7D3BF70BC704700BF60B1837B013BDBB2C8
:204FA000012B9FBF41F645230122C2F200031A7098BFC273704700BFFDF7B6BD10B540F600
:204FC000F074C2F20004236863B1184600225B68816822609847236823B11868BDE81040B5
:204FE000FDF7A4BD10BD00BF10B541600446FDF75FFD206010BD00BF10B50446FDF758FD6C
:2050000094E80C00C2F10102104483422CBF0020012010BDF8B504880546672C0ED0792CA6
:2050200004D064B3002303800320F8BD852933D141F2FC04C2F200040023236041F2FC0491
:2050400041F27C06C2F20004C2F2000607E00A2824D022687E2ADEBF511CB054196041F230
:205060007400C2F2000000F017F941F2FC03421CC2F20003EBD167232B800120F8BDFFF704
:20508000A7FE41F60E3241F2FC03C2F20002C2F2000310701C60D1E70120F8BD41F2FC0498
:2050A000C2F20004276841F27C0341F60E31C2F200030026C2F200011A4607F1010E097807
:2050C0003046DE55C4F800E0FFF712FF40F66863C2F20003324618688521FFF709FF002808
:2050E000AAD179232B800120F8BD00BF08B541F2740040F6F471C2F20000C2F2000180224F
:2051000000F0AAF8BDE8084040F2F000C2F200000021FFF71FBF00BF0029034611DD0844DA
:2051200013F8011B4A4052BA02F47F4182EA011292B282EA123202F47F41834282EA51123F
:20514000EED11046704700BF00230360704700BF0068704710B404685CB1A14225D0236809
:205160000BB906E01346994210D01A681C46002AF8D100230B6002680AB911E01A46136813
:20518000002BFBD111605DF8044B704764B10A68226000221A6000230B600268002AEED1C6
:2051A00001605DF8044B70470C46226823460260EFE700BF30B4056865B1A94219D02B6829
:2051C00043B12C4600E01346994207D01A681C46002AF8D10D60016030BC704744B10A68CF
:2051E000226000221A6005680D60016030BC70470D462A682B460260F3E700BF10B4046832
:205200005CB18C4215D023680BB906E01346994206D01A681C46002AF8D15DF8044B70475D
:2052200034B11A68226000221A605DF8044B70470C46226823460260F5E700BF03682BB105
:2052400000201B680130002BFBD170471846704700B10068704700BF0023013A01600271F6
:2052600043718371704700BF10B40346447980791A79201A104082421FBF1A680120115585
:205280005A791FBF197912180A405A7108BF00205DF8044B704700BF10B4034682794079CA
:2052A0001979801A08421FBF1868541C2140805C14BF99714FF0FF305DF8044B704700BF08
:2052C00008B543695B6803B1984708BD10B5044682B01A2001F010FB014601A801F052F9A7
:2052E00063691B6813B1204601A9984702B010BD70B5144649F6A4120646C0F200020D4666
:2053000002F0F0FC49F6A01174612846C0F20001BDE8704000F040B802F0F4BC10B541F6EE
:20532000CC210446C2F200011A2001F0D9FA2046BDE8104002F0E8BC41F20010C2F200009B
:20534000FFF702BF034641F200109980C2F200001946FFF7FFBE00BF014641F20010C2F22E
:205360000000FFF74BBF00BF10B5044641F20010C2F20000FFF7ECFE50B18388A34203D1C3
:2053800009E08388A34205D0FFF762FF0028F8D1002010BD10BD10BD38B50D46FFF7E4FF77
:2053A000044620B18560284602F0BAFD207338BDF8B5064641F20410C2F200000D461746AA
:2053C000FFF7C6FE044648B1A368284603B198472046FFF73DFF04460028F5D1304629460F
:2053E0003A46BDE8F84002F097BC00BF38B502F075FD054641F20410C2F20000FFF7A8FE19
:20540000044640B1636803B198472046FFF720FF04460028F6D125B12846BDE8384002F0EC
:2054200075BC38BD10B501F079FA01F0D1F902F079FC02F051FDBDE8104002204FF40071F0
:205440004FF4F0524FF4E12302F02ABD10B5044602F054FD68B101F0C3F849F62823C0F254
:20546000000345F2B130C0F2000021469B689847012010BD08B583695B6803B1984708BD64
:2054800038B504461B200D4601F036FA41F6CC21C2F2000101F07AF828B1A3691B6813B1BE
:2054A00020462946984738BD70B5144649F6C0120646C0F200020D46FFF71AFF49F6C81139
:2054C000B4612846C0F20001BDE87040FFF764BFFFF722BF10B504461B2001F001FA2046B5
:2054E000BDE81040FFF71ABF70B5064600F0C8F84FF400420546C4F20C0213684FF4004431
:20550000C4F20C04002BF8D0B0470123236005B170BDBDE8704000F0B7B800BF10B442F2E6
:20552000080342F20C04C4F20903C4F209041A68206819688A42FAD1120442EA10405DF88E
:20554000044B704742F2D413C4F20803186800F00E00704741F21832C5F2000213684BF642
:205560009A11C3F30F338B4213D04BF6BE12934208BF01200BD04BF64132934208BF0320BC
:2055800005D04BF6203083420CBF0220FF2040B270471068000F0B280CBF0420002040B270
:2055A000704700BF10B541F29423C5F200031C68FFF7D0FF0128C4F3033409D1082C08BFD7
:2055C000002003D00F2C0CBF0120FF2040B210BDFF20FBE738B541F218324FF48553C5F296
:2055E0000003C5F2000212681C68150FE4B27F2C88BF0024FFF7AEFF04280FD8DFE800F0B4
:205600001108030304004DB90A34E0B240B238BDF5B1022D04BF1434E0B2F7D0FF2040B260
:2056200038BD013D072DF9D801A353F825F000BF515600001D5600005F5600001D5600002D
:205640001D5600001D56000063560000575600000A2040B238BD04F11600C0B2D6E714207F
:20566000D4E71520D2E700BF08B5FFF773FF012800D0FEE7FFF7AEFF1328FADD08BD00BF86
:20568000EFF3108072B67047EFF3108062B6704770B50D46C10782B0044626D4A20713D432
:2056A00063070FD54FF4D273C1F200031B68ADB24FF4204000955C68C4F20C0000210C226F
:2056C0000223A04702B070BD4FF4D273C1F200031B68AAB200924FF420405E68C4F20C0005
:2056E000002102220123B047DAE74FF4D273C1F200031B68AAB2009200214FF420405E6850
:20570000C4F20C000B460122B047C7E710B54FF4D273C1F200031B6804284FF42040DC6815
:205720004FF0340107BF4FF0C0421D234FF080521C23C4F20C00A04710BD00BF01280FD021
:2057400030B14FF4C073C4F2043301221A6070470023C4F209031A6822F005021A60704700
:205760000023C4F209031A6842F005021A60704770B4038843F6060293421ED0013293429D
:2057800017D040F60202934201D070BC7047C67B4369002BF9D003F1140544F2380419687E
:2057A0001A4688B2A04203F1040309D0AB42F6D1EBE790F82460C369EBE7C3690226E8E7E6
:2057C000C1F303400028E0D0B31E1C2B10D8DFE803F00F0F0F41390F0F0F310F290F0F21C4
:2057E0000F0F0F0F0F0F0F0F0F0F0F0F0F0F49004FF49C53C5F200031B68C3F383430F2B69
:2058000038D0834282BF21F4702141EA0343136070BC704741F20413C5F200031B68C3F3D0
:205820008343ECE74FF48853C5F200031B68C3F38343E4E741F2FC03C5F200031B68C3F308
:205840008343DCE741F2F803C5F200031B68C3F38343D4E74FF49953C5F200031B68C3F3FB
:205860000323CCE741F20813C5F200031B68C3F38343C4E7053E192E08D8012303FA06F616
:2058800003F58463C0F2002333402BB921F4702141F48021116078E721F4702343F4E023CF
:2058A000136072E728B946F20223C4F20803187070474FF4C44246F20223C4F20802002058
:2058C000C4F20803202110701970704738B541F21003C4F2090301214FF425720546196051
:2058E000C4F222321368002BFCD04FF4C042C4F20C02C02143F6B0731160C5F200031B6838
:205900009B070DD443F6AC73C5F200031A6846F25623C2F3034242F0F002C4F208031A7056
:205920004FF48252C4F20902002143F6B4731160C5F200031C68204600F0E8F82846214654
:2059400000F0AEFA41F21433C5F200031A6840F21D2392B29A4219D841F2BC23C5F20003AA
:2059600019681A68C1F30363C2F3034219462BBB931F012B83BF023202F00F0212017022CF
:2059800046F202030A43C4F208031A70204600F021F94FF4D073C1F200031B680220DB689E
:2059A00098474FF4C04240F29443C4F20C024020C4F2602301211060196038BD013BD9B296
:2059C000D6E700BF38B541F21C33C5F200031C68FFF74AFE40F2844046F25C0142F2082376
:2059E0000122C4F20433C4F260200025C4F20C0105600A601A6000F069FB4FF4C073C4F2B0
:205A000028331B68B4F1FF3F08BF2C463BB14FF48073C4F2203320461B68FFF757FF42F2F8
:205A20008C12C4F20802002142F248031160C4F203031968042221F07F6121F4702141F0CC
:205A40009C7141F480311960C4F209021368C3F30133012B06D00C22C4F268221368002B9E
:205A6000FCD138BD136823F0407323F4403343F4003111601360EEE7F0B441F28833C5F22F
:205A80000003196846F20623C4F208031B78C1F3046103F01F031529C8BF2039152BC8BFBA
:205AA000203B99422FD09822C4F22032002442F22C0046F26C251460C4F20900C4F20805AC
:205AC0006FF0010C0126CA1A022AC8BF022202DC6245B8BF6246134403F01F0444F4F854E3
:205AE00042F22C028B420768C4F209022C804FF001040660E7D198231168C4F22033146088
:205B000011681C601368F0BC704700BF00F04073B3F1807F70B504463DD041F2B823C5F26C
:205B200000031B68C3F30463152B51DC03EB24730133152BC8BF41F6157108DC13F10A0F17
:205B4000A6BF03F01F0343F4F85141F6167146F26E22C4F2080200231180C4F209031B680C
:205B600013F0020309BF40F2944244F04064C4F22A321360C4F3C0610022C4F38064082330
:205B800081F0010184F00104C4F22032C4F2203311601C6070BD46F2252546F2662146F275
:205BA00015238022C4F20803C4F20801C4F208054FF6D8062A700E801A70FFF75DFF41F26E
:205BC0008833C5F200031B68C3F30423152BADDD203BABE7F8B5C0F38143012B47D0022BA5
:205BE0004CD143F6B073C5F200031B684FF400711B075FBF4AF26803C4F20C0340221A60B3
:205C00004AF28002C4F20C0241F28C331160C5F200031A68C0F381504AF20813C2F3C142D0
:205C200042F03002C4F20C0301281A7058D032D302282BD104200321FFF72AFD41F26C33FE
:205C4000C5F200031C684BF20B014BF2700204F03F04C4F20C01C4F20C0247F6180042F2C7
:205C60002C030C70C4F2090310801B68F8BD41F28C33C5F200031B689A0375D54AF240035A
:205C8000C4F20C034FF000421A60AAE704200221FFF7FEFCD2E704200121FFF7F9FC46F25A
:205CA0003C0046F2400146F24403C4F20C0043F2BD76C4F20C018625C4F20C03012440F6F8
:205CC00084020660C4F28C320D601C601368002BFCD046F24403C4F20C0300221A60ADE795
:205CE000FFF714FD044601460420FFF7D1FC0420FFF70CFDA042FAD143F6A873C5F2000347
:205D0000186846F23C0446F2400146F2440387B2C4F20C04C0F30746C4F20C01C4F20C030C
:205D2000012540F684022760C4F28C320E601D601368002BFCD046F24402C4F20C020021C6
:205D40004FF4DA731160C1F200031B684FF060221B68000E072198474AF24003C4F20C036C
:205D60004FF480621A6065E74AF24001C4F20C014FF4804446F20C020C60C4F20802116806
:205D8000C3F3033421F08F012143C3F3004441EAC41446F20B011460C4F208010A68C3F375
:205DA000032422F00F02144346F20A020C60C4F20802116803F0E70321F0E7010B431360C2
:205DC0000FE700BF41F25033C5F200031B688203C3F38361C3F38F230DD440F30722002A2D
:205DE0000CDA5B0805D149080ABF01234FF6FF7319460132F5D143EA01407047FBD05B00EC
:205E000043F00103B3F5803F4FEA410007D340F001010F2992BF01230F214FF6FF73013A8F
:205E2000EDD143EA0140704770B441F2783343F6B072C5F20003C5F200021B681268C3F3FC
:205E4000035412F00102C3F3034105461CBF24050A0419D143F6AC70C5F20000006840F3FE
:205E60000326341948BF144605D40F2CD8BF240501DD4FF4700440F30330411804D40F2913
:205E8000D4BF0A044FF4702298B2212D40EA040040EA020084BF03F08043184370BC704763
:205EA00070B5044682B00846FFF78CFF02464FF42040C4F20C00182102F056F841F2503396
:205EC000C5F2000319681A684FF4D273C1F3870102F00302C1F200031B6841EA0222009230
:205EE0004FF420405D68C4F20C002C2140F2FF320023A84741F27C33C5F200031A684FF455
:205F00002040C2F30D02C4F20C001C2102F02CF841F27433C5F200031A684FF4204002F09D
:205F2000FC32C4F20C00142102F01EF841F27033C5F200031A684FF4204022F07F4222F496
:205F400040321021C4F20C0002F00EF82046FFF76BFF02464FF42040C4F20C000C2102F052
:205F600003F8212C73D941F28C32C5F2000211684AF24913C1F30071490041F02001C4F25C
:205F80000C03C9B219701268C2F3407242F01002D2B21A7041F29835C5F200052B684FF429
:205FA0002040C3F30262C3F3C1619200C3F3815342EA01221A43C4F20C00282101F0D4FFF8
:205FC0002A684AF24C13C2F30152520042F06002C4F20C03212C1A7063D941F28C33C5F225
:205FE000000319684AF24112C1F3C061C90061F07F01C4F20C02C9B211701A684AF2DC13B2
:20600000C2F34552920042F47C42C4F20C031A8041F29833C5F200031B68C3F30512C3F391
:20602000892112041B0342EA81529BB21A434FF42040C4F20C00082101F096FF4AF2400346
:20604000C4F20C034FF480021A6002B070BD4AF24913C4F20C03222111221F2C19701A702C
:2060600098D84FF42040C4F20C002821002201F07BFF4AF24C104AF241114AF2DC13C4F26E
:206080000C006026C4F20C018025C4F20C034FF47C444FF400420670C4F23F020D701C8033
:2060A000C5E74AF241124AF2DC13C4F20C028020C4F20C034FF47C411F2C10701980A7D86E
:2060C0004FF40042C4F23F02B1E700BF10B40C22C4F268221368002BFCD144F2040343F6D2
:2060E000B072C4F20303C5F200021968126821F00051520721F007011CD44FF48042C4F28F
:206100000302146841F0005141F00400A40708BF18600CD041F007011960136803F003035B
:20612000032BFAD144F20403C4F2030318605DF8044B704741F0005141F0050119605DF813
:20614000044B70472DE9F04F0023C4F209031B6883B013F00207804611D041F2081341F215
:2061600030024FF6FD51C2F200030820C4F20902C0F2A4019871116003B0BDE8F08F01F021
:20618000D7FE43F6B473C5F200031C6801462517A00205F1010540F1D78004F04073B3F198
:2061A000807F00F0E08041F2B823C5F2000341F23C121B68C5F200021668C3F30463152B30
:2061C000C6F30446C8BF203B152E00DD203E1D44152DC4BF41F61570152540F3D98046F27C
:2061E0006E22C4F2080242F22423C4F2080310801A6812F0030318BF0123520748BF43F06B
:206200000203B8F1000F01D043F0040341F20812C2F2000292F90700081A042826DC9079C8
:20622000984208BF918821D142F20803C4F209031B6841F208101E291360C2F200000B4624
:2062400000F2C6801F234EF208718380C8F2A40141F2300041F23402C4F20900C4F209025D
:2062600000230160136003B0BDE8F08FB1F10F0900F1D08009EB09194FEA2920072840F25C
:20628000938041F2B830C5F2000041F2B4374FF4E0688446C5F20007CDF804803F68DCF824
:2062A00000C013F0040BC7EB0C0C18BFCCF307285FFA8CF718BF474413F0020A1CBFCCF396
:2062C0000748474413F0010840F09780DDF804C0CCEB090909FB07F780373F0AD0F800C0A5
:2062E0005FFA8CF0BBF1000F02D0CCF307294844BAF1000F02D0CCF307494844B8F1000FE2
:2063000001D000EB1C60751B002D07444FF03400C8BF6843E4B204FB00F04FF6FF7CB0FBA8
:20632000F7F0604528BF604680B27F299080C8BF7F2105DC11F1800FA8BFC9B200DA802164
:20634000D171937101466FE7C1F13E03DB10082BA8BF08239D42B8BF1D4604F04073B3F1B3
:20636000807F7FF420AF41F28833C5F2000341F288321B68C5F200021668C3F30423152B70
:20638000C6F30466C8BF203B152E7FF720AF1DE715F10A0FA7BF05F01F0040F4F85041F620
:2063A00016706FF009051AE73FF46BAF00F1010841F298374FEA8808C5F2000741F29C3C0E
:2063C00000024744C5F2000C0190C444384665E7B1F5007F28BF002227D35B08B3F5007F58
:2063E00002F10102F9D24FF467410F3BC8F2A4011B09114341EAC3012AE7DDF8048007EB85
:206400001C67C8EB090909FB07F780373F0A4FF0010863E741F29C30C5F2000003F0040BE8
:2064200003F0020A03F0010858E7A1F10F031B094FF46741DB00C8F2A401194308E700BF2B
:2064400010B541F23403C4F209031C68A4B204B910BD01F06DFD41F20813C2F2000393F9FB
:20646000072090421CDB9A8841F208139442C2F2000322D342F20801C4F20901086819684C
:206480000230411A1F2928BF1F21A41A4908CC404FF6FF7122448A4228BF0A469A8010BDE0
:2064A0006FF07F029042B8BF10469A88D871944241F20813C2F20003DCD29C8010BD00BFC1
:2064C00010B445F22803C4F209031B6853B343F6B472C5F20002116801F04062B2F1406FD5
:2064E00020D00022C4F20902106884071AD443F6B070C5F200000068800713D443F6AC7499
:20650000C5F200041068246810F0050FC4F3035404F11C044FEA041407D0A3423CBF20F06D
:20652000050010605DF8044B7047A342FAD90B0158BF40F0010000234C0158BF40F00400C4
:20654000C4F209031860EDE730B448F21403C4F202031D68120202F47062090AC0F387107F
:206560004FF6FF34090410432C4048F218020C4325F480650843C4F202021D601C601060C8
:2065800030BC70470B880380704700BF08B5022202F0E2FAD0F1010038BF002008BD00BFC0
:2065A00008B548F69463C0F200031B68984749F60023C0F200035B68984749F62823C0F2DD
:2065C00000035B68984749F6DC13C0F200035B68984749F6B413C0F200035B68984708BD6F
:2065E00041F62A2CC2F2000CF0B4BCF80070EFB141F62823C2F200031D88A5B141F6472311
:20660000C2F200031E7841F2101400233744FFB21A46C2F200040132E11892B2C85D13B215
:20662000AB428855F7DB0023ACF80030F0BC70472DE9F04141F6472241F62823C2F2000245
:20664000C2F2000315781E888046AC19802CC8BF002414DC41F21017C2F200072A4639467A
:2066600002F0AEFA41F62A23C2F20003197808EB05000D44E9B23246394402F0A1FA2046E8
:20668000BDE8F081F0B441F62A2341F64726C2F20003C2F200061A78377841F62823C2F230
:2066A00000031B883A44D2B21A4492B21318802BC8BF002014DC013A92B213B2002BA2BF53
:2066C00041F21014C2F20004251806DBE15C013A92B2E95413B2002BF8DA38443070012095
:2066E000F0BC704710B441F62823C2F2000319888142A1BF41F62A22C2F20002148880B26F
:20670000A1BFC0EB0101001910801980ACBF012000205DF8044B704741F62823C2F20003EA
:206720001880704741F62A2241F64723C2F20003C2F200021878127841F210131044C2F201
:206740000003C0B21844704741F21010C2F20000704700BF41F62823C2F2000318887047A4
:2067600041F62A2241F64723C2F20003C2F200021878127841F62823C2F2000310441B883E
:20678000C0B2184480B2704738B541F6D82241F6D024C2F200020021C2F200041160516048
:2067A0009160D160116151619161D161116251629162D162116304F1080549F6D011204627
:2067C000C0F200010234FFF7DDFEAC42F5D138BD41F62A2041F6282141F647230022C2F2DE
:2067E0000000C2F20001C2F2000302800A801A70FFF7CABFF8B541F62A2241F6472341F610
:2068000028240026C2F20003C2F20002C2F20004802934BF0D468025074616801E70268036
:20682000FFF7B2FF41F2101039462A46C2F2000002F0C6F925802846F8BD00BFF0B441F6A8
:20684000D826C2F200068C46054606F1300734460FCCBC4228606960AA60EB60264605F1DA
:206860001005F4D1206841F6D0232860C2F2000303CBCCF80000CCF80410F0BC704700BFC1
:20688000F0B441F6D82604468C4600F13007C2F2000620686168A268E36835460FC51034E8
:2068A000BC422E46F5D1206841F6D0232860DCF80000DCF80410C2F2000303C3F0BC7047CA
:2068C00041F6D823C2F2000323F810100120704741F6D823C2F2000333F81000704700BF22
:2068E00008B541F6D023C2F200031A3803EB4000FFF748FE012008BD41F6D023C2F2000377
:206900001A3803EB4000704749F6D011C0F200010148FFF73BBE00BFD21A002008B540F27B
