:020000040000FA
:2000000000500020ED000000E5000000C9000000E9000000E9000000E9000000000000001A
:20002000000000000000000000000000E9000000E900000000000000E9000000E90000001C
:2000400041440000E9000000BD4A0000E9000000213B00008D400000E9000000E900000047
:20006000E9000000E94A0000E9000000E9000000E9000000E9000000E9000000E9000000EE
:20008000E9000000E9000000E9000000E9000000E9000000E9000000E9000000E900000018
:2000A000E9000000E9000000E9000000E9000000E9000000E9000000E9000000E9000000F8
:2000C000E9000000854D00004EF62853CEF200031A68B2F5806F03D01B689B0500D4FEE71C
:2000E000704700BFFEE700BFFEE700BF10B506F0C9FB40F2000140F22C23C2F20001C2F2A6
:20010000000399420ED2CC431C4424F003044AF29C700434C0F200000023C258CA500433D7
:20012000A342FAD1064807494FF000028842B8BF40F8042BFADB01F013FAFFF7C5FF10BD2E
:20014000300200207340002008B549F6C83240F6B873C2F20003C0F20002D26A197B0120C7
:20016000904708BD2DE9F00140F6B87349F6AC22C2F20003C0F2000242F2050603CA1C4695
:20018000B2F80080C0F6DC26002244F8046B0A27BA264FF0050C5A60C3F8120062609A83E9
:2001A000DA831A84A3F81A80C3F816101A745A74DA7383F80CC09F735E73BDE8F00170470E
:2001C0002DE9F00F40F6B872C2F2000292F80EB041F63C53C2F2000392F80C8092F80FC0C0
:2001E000177C4FF0030983F802B04FF0130B567C4FF06A0A43F6597141F6544440F2603579
:2002000083F8039083F804B04FF024094FF0FD0BC2F20004C2F20001C2F2000583F801A0AC
:2002200083F806904FF0900A4FF0000983F807B083F809804FF0010B4FF0080883F80BC076
:200240001F734FF08A0C2F2783F805A05E7309789A461E4683F8009083F8089083F80A90F8
:2002600083F80E9084F800B084F80180656084F808C0677208E01B7909F10109B9F1080F19
:20028000F37306F101060BD002EB09030029F2D109F10109B9F1080FF17306F10106F3D14F
:2002A0002E4B43F67871C2F200012D4AD3F80080D3F804C09F68D3F80C900B68DC254FF07C
:2002C000050B20260A21CAF81780C2F804C09760C2F80C908AF829508AF827B08AF828601B
:2002E0008AF82A10DDB2C3F307220BB9FF22154643F67C73C2F2000319788AF82B508AF8A5
:200300002C205B7811B90BB9FF23194641F6A052C2F200020225546015708AF82D308AF80F
:200320002E10C4F80CA0007841F6945340F679010128C2F20003C0F2000183E8060003BF0B
:2003400040F24032C2F20002126800229A6093E80700BDE8F00F02F069B900BFCA0F0020BB
:20036000531D00202DE9F04740F6790241F64C4484B0C2F200041027C0F200020021144ECE
:2003800040F6907340F26035C2F200030294019203914FF0080C4FF0890E4FF00108C2F2C4
:2003A00000050DEB070A4FF002091AE9070083F8008083F801C05D6083F808E05F72DE6075
:2003C00084F80090636002F031F904B0BDE8F087CA0F00202DE9F04340F6B876C2F2000602
:2003E0003446054654F8120FD5F80080D5F804C0D5F808E0EF686168A268E36889B004ADD9
:20040000C6F812800FC5C4F804C03046C4F808E0E76002F089F900283AD043F66475C2F26B
:20042000000500232B7040F2C42440F67902C2F200040027C0F2000241F6E04340F2603679
:20044000C2F2000301924FF0010E029403974FF0880C01AA4FF00808C2F20006DD6083F895
:2004600001805E6083F808C083F800E083F809E04FF0020907CA636084F8009002F0D6F891
:2004800043F66573C2F200031F7009B0BDE8F08304AF43F664750FCFC2F20005C6F8120008
:2004A000F72730466160A260E3602F7002F03CF9B9E700BF2DE9F04140F6B873C2F200031E
:2004C0009B7B43F666755A1ED2B2092A41F6344440F6790284B088BFFF23C2F20004C2F25A
:2004E0000005C0F2000200212B7002940192039104AF40F2783340F26036C2F200034FF07C
:20050000080C4FF0A20E17E90700C2F2000601274FF00208DD6083F801C05E6083F808E00C
:200520001F705F7284F80080636002F07FF804B0BDE8F0812DE9F04340F6B874C2F2000406
:20054000037885B02046A67BA37302F0EDF868B194F80EE0AEF10603DBB2042B5AD843F615
:200560005875C2F2000500232B7013E0A37B063BDBB2042B4ED843F65875C2F20005F7232A
:200580002B7040F6B870C2F20000A67302F0CCF894F80EE040F2503340F2603040F2582242
:2005A00040F67901C2F20003C2F2000201274FF00809C2F200004FF0A1084FF0020CC0F20B
:2005C000000100247645DD6083F80190586083F808801F705F725360029282F800C00191C4
:2005E000039409D043F6637243F65473C2F20002C2F2000314701C7004AB13E9070002F05C
:2006000015F843F66573C2F2000300221A7005B0BDE8F08343F65875C2F20005FF232B7010
:20062000AFE700BF2DE9F04140F6B873C2F200031B7B43F662755A1ED2B2172A40F6F47485
:2006400040F6790284B088BFFF23C2F20004C2F20005C0F2000200212B70029401920391AE
:2006600004AF40F2CC2340F26036C2F200034FF0080C4FF0870E17E90700C2F20006012717
:200680004FF00208DD6083F801C05E6083F808E01F705F7284F80080636001F0C7FF04B0ED
:2006A000BDE8F0812DE9F04102780121531E994042F29043C0F2FD0340F6B874C2F2000424
:2006C0000B40267B86B02273002B48D143F65375C2F20005F92326732B7041F68C5440F6C8
:2006E0007902C2F20004C0F20002002141F63C4340F26036C2F200030194009202914FF0C4
:20070000080C4FF0860E0127C2F20006DD6083F801C05E6083F808E01F705F724FF00208CD
:200720009DE80700636084F8008001F07FFF2B7863B940F24912C0F2000280210493039232
:20074000059106AB13E9070001F070FF43F66573C2F2000300221A7006B0BDE8F081204649
:2007600001F0E2FF43F6537520B1C2F2000500232B70B2E7C2F20005F723204626732B7058
:2007800001F0D2FFA9E700BF2DE9F04340F6B87341F6145440F6790285B0C2F20004C2F2AD
:2007A0000003C0F20002002193F80D9002940192039104AF43F64E7541F60C4340F260367F
:2007C000C2F20003C2F200054FF08C0C17E907004FF008080127C2F200064FF0020EDD600E
:2007E00083F801805E6083F808C01F705F7285F80090636084F800E001F018FF05B0BDE80E
:20080000F08300BF03F03ABA034640F2602070B5C2F200000E46154664211A4601F04AFD1F
:2008200080B1002415B90FE0AC420DD240F2602006EBC401C2F2000001F0F4FC0134E4B211
:200840000028F1D1002070BD40F26020C2F2000001F010FD0028F5D040F26020C2F20000AA
:2008600001F0DCFC014640F26020C2F2000001F053FE002070BD00BF416802780120FFF77A
:20088000C3BF00BF2DE9F04740F6FC74C2F200040223012740F2603E43F6607641F60C55A8
:2008A000C2F2000E21461A464FF0840CC2F200064FF00008C2F200054FF0080938462B70BD
:2008C000C4F804E084F808C084F8019027706772E66086F800806C60FFF796FFFFF742FCE8
:2008E00040F6B870C2F2000001F01EFF41F61C5040F605024346C2F20000C0F20002802166
:20090000BDE8F04704F0D6BF2DE9F04741F67C54C2F200040127022340F2603E43F650764A
:2009200040F6A075C2F2000E21464FF08009C2F200064FF00008C2F200051A464FF0080C0E
:2009400038462B7084F801C0C4F804E02770677284F80890E66086F800806C60FFF754FFC4
:2009600041F61C5040F6050249464346C2F20000C0F20002BDE8F04704F09CBF2DE9F04F97
:2009800003888DB004461646A3B140F2247293420AD144F27103C2F200031B788B4216D076
:2009A00001200DB0BDE8F08F0023038003200DB0BDE8F08F42F2C940C0F2000003F01EFB90
:2009C00040F22473012023800DB0BDE8F08F002EE6D043F65A75C2F200052B78B6F88070C3
:2009E00040F2DC2003EB0708B8F1640FC2F200003ADC184431463A465FFA88F808F066FF5D
:200A000085F80080B8F10D0FDAD941F6784543F65E78C2F20005C2F20008304639462A4684
:200A2000434601F059FC01280646C9D143F65F7BC2F2000B9BF80030002BC1D169782A7803
:200A40008DF819108DF81820BDF8181040F60102914298F800C08BF800000ED043F65D7289
:200A6000C2F200021370ABE731463A465FFA87F808F02CFF85F80080C4E740F26030C2F29B
:200A80000000A91C0822CDF800C008F0EBFEDDF800C0002840F07781022643F65D73C2F237
:200AA0000003BCF10A0F01931E706ED941F67842C2F2000243F65773039243F6527241F691
:200AC000D84A43F6567943F6657840F26C36C2F20003C2F200020494CDF814B0C2F2000AB6
:200AE0000292C2F20009C2F20008C2F200060A27E3461C46EA195278E85D8AF801208AF83C
:200B00000000002A00F0CF80039BBA1C1A4441F6D843C2F200035A602278002A40F0C9809A
:200B2000029B1A78002A40F0C48099F80020002A40F0BF8098F80020002A40F0BA808038A2
:200B4000222818D8DFE800F08E171717A517837A6F66584D3C171717171717171717171765
:200B6000171717171717171717251200019B1A78022A00F013819AF8012002321744FFB29E
:200B8000BB45B7D8049CDDF814B000238BF8003016E7019B1A78022AEDD140F23552DAF817
:200BA0000410C0F20002002032607160B0604FF0010E96E8070088F800E001F037FDDAE7C1
:200BC000019B1A78022AD6D140F28972C0F20002002132607160B16096E8070001F026FD05
:200BE000C9E7019B1A78022AC5D141F23542DAF80410C0F20002D6E7019B40F2C112C0F201
:200C0000000286E80C000021B16096E8070001F00DFDB0E7019B1A78022AACD140F265326F
:200C2000C0F20002D4E7019B1A78022AA3D140F2D532DAF80410C0F20002B4E7019B1A78DB
:200C4000022A98D140F22562C0F20002C0E7019B1A78022A8FD140F2A562DAF80410C0F260
:200C60000002A0E7019B1A78022A84D140F60912C0F2000200204FF4807132607060B16070
:200C80004FF0010E96E8070089F800E001F0CEFC71E7019B1A78022A7FF46DAF40F6850267
:200CA000C0F20002E6E741F6D843C2F200035A6032E740F6EC75FC22C2F200052A71049C2E
:200CC000DDF814B001F082FA9AF8001040F6A873C2F2000341F6D842A4292B605860C2F24F
:200CE000000248D0A52901BF516843F65B720978C2F2000208BF11701B68012108220993A3
:200D00008DF821208DF8201003782A798DF82830837841F66445C2F200058B428DF829301E
:200D20002A7009D9023BDBB2691C1944FF222B4603F8012F8B42FBD10378A42B06D143F6DB
:200D40005B73C2F200031B786B700378A52B02BF43F65B73C2F200031B784FF0010008A952
:200D60004FF0020208BF6B700B95FFF74DFD00238BF8003024E6516843F65B724978C2F29A
:200D800000021170B8E70320A91C07F047F8DDF800C000287FF481AE03235FE640F2B54220
:200DA000C0F2000214E700BF2DE9F04F43F64F74C2F20004217883B0002900F0048149F613
:200DC000A033C0F200035D680620A84780460020A84781460320A84743F64677C2F2000752
:200DE0003B8841F6A855C2F200054FEA194B43F6447640F2883141F20C0205F803B0C2F223
:200E00000001C2F200024FEA104E4FEA184BC2F2000601F803E002F803B003F1010E03F1AE
:200E2000030C4FEA192BB6F800A01FFA8CFC05F80EB04FEA102B023301F80EB0E2454FEABC
:200E4000182B02F80EB005F80390A7F800C0C85402F803801BD902F0CFFD43F64273C2F2BB
:200E600000031B884FF4803191FBF3F10D390144002241F6F04040F6A9530092C0F20003DB
:200E8000C2F2000004F0FAFF03B0BDE8F08F40F6B873C2F2000393F80EC002200CF1FF3318
:200EA000984043F6527240F24435C2F200050023C2F2000213703B802B7043F66371030730
:200EC00043F6787243F67C73C2F20003C2F200014FF0010EC2F200021FFA80F993F801B089
:200EE00081F800E0D2F800E008BF4FEA29191A7841F66C5AC2F2000A08BF09F1FF3985F8EA
:200F000007E085F809B04FEA1E2E4FF0080B40F2603140F6887343F65C780CBF1FFA89F976
:200F20004FEA191901270220C2F200038AF801B0C2F20001C2F2000885F802C085F808E0FD
:200F4000AA724FF00B0BA42243F6557C43F63A7ECAF804108AF808208AF809B0C3F804A045
:200F60001870C2F2000C0023C2F2000ECAF80C50514602468AF8007088F800704FF0300BEB
:200F80004FEA192A38464FF003086B7085F805902F718CF800B0AEF8009085F806A085F876
:200FA0000380FFF731FC2B7823B943F65473C2F200031F70002000F02DF800233380237028
:200FC00003B0BDE8F08F40F6B873C2F200039F7B4FF0010C0CFA07F743F64276BFB243F61D
:200FE000447541F61C5040F6A952C2F2000607EB4708C2F200050B46C2F20000C0F20002F7
:2010000084F800C03780A5F8008003B0BDE8F04F04F050BC2DE9F04F43F64076C2F200062B
:20102000338887B0002B00F0928043F63878C2F20008B8F8000043F6557143F65C72C2F282
:201040000001C2F2000291F800B0117843F63E77BBFBF1F29A1841F61C4EC2F2000E0192E8
:20106000C2F2000708223C888EF80120A0228EF81020019A4FEA142C012540F26039C2F2EF
:2010800000098DF80C408DF80DC0AF244FF0020C8EF80050824203AD8EF808408EF809C09D
:2010A000CEF80C50CEF804901C4674DC8EF811B09B445B4543F6807580F2FF8041F20C0AD4
:2010C0001846C2F20005C2F2000A4FF0000C0CF1020254442A440023E15C0133032B02F82D
:2010E0000119F9D1033080B20CF1030C58455FFA8CFC0446EBDB41F61C44019BC2F2000422
:2011000021460322CEF8145002203380FFF77CFB39883288B8F80030013143F6407643F622
:201120003E759A423980C2F20006C2F200053CD241F61C5041F21502C2F20000C0F2000291
:201140000321002304F0B6FB07B0BDE8F08F43F65472C2F20002157843F651740278C2F25A
:2011600000042270002D5CD040F6B872C2F20002927B0121914089B243F63C7201EB41001B
:2011800043F63878C2F2000280B2C2F200081180A8F800004FE7C01A00FB01FB5FFA8BFBAB
:2011A000BBFBF1F29A18019280E743F65178C2F2000898F8001040F268334FF0020CC2F2BE
:2011C00000034FF0010AC4F804904FF0080B4FF0A50942F6A81E0027C2F2000E62465970DB
:2011E000E360214684F809C0504684F800A084F801B084F808901F70CEF804408EF800C02E
:20120000FFF702FB43F65773C2F20003384688F8007037802F801F70FFF7C6FD07B0BDE8A9
:20122000F08F41F61C4340F26031C2F200034FF002084FF001094FF0080CC2F200014FF046
:20124000A50E42F6A81740F6790283F801C0596083F808E083F80980C2F2000783F8009011
:20126000C0F2000240F2683E90F80090C2F2000E0595049703920DF1180B43F63E7CC2F276
:20128000000CC3F80CE04FF0FA0A1BE907007B60358084F800908EF801908EF800A087F8F5
:2012A0000080ACF8005001F0C1F943F65773C2F200031D7007B0BDE8F08FC2F200051AE733
:2012C00008B500F17803DBB23C2B49F6C833C0F2000391BF0146DB6A07206FF045019CBFFF
:2012E000DB6A0720984708BDF8B503880446FBB140F20B72934217D141F6FC40C2F200001D
:2013000004F0F0FB002800F08F8042F29003C4F202034FF400121A600020FFF745FD40F2EC
:201320000B7323800120F8BD002303800320F8BD40F2603040F6B875C2F200000821C2F282
:20134000000502F0DDFC284601F0E8F92A6842F20503C0F6DC239A4204D0FEF703FF2846E5
:2013600001F0E2F940F2603640F6DC73C2F20003C2F2000696E8030040F6A87283E80300A4
:201380004AF20471C2F200020027C0F2000128481F72DA6082E8880006F058F843F6597394
:2013A000C2F20003002841D101221A7000F09EFAF67949F6C83240F24033C0F20002D26ACA
:2013C000C2F20003297B06F07F0601201E609047687BFFF775FF01F0AFF80020014601F084
:2013E000F3F849F6A033C0F200039D6801218120A84703212C20A8474FF4DA73C1F20003DF
:201400001B681520DB6B984742F2A003C4F202034FF4001241F6FC401A60C2F200004FF424
:20142000C07104F055FB70E70120F8BD1F70BDE7C20F00202DE9F043037840F6B87403F1CC
:201440007802D2B2C2F200043C2A667B85B063733DD943F66175C2F20005FF2366732B7010
:2014600040F6B07440F67902C2F200040027C0F200020294019203970DF1100E42F6B013F4
:2014800040F26036C2F200034FF08B0C1EE907004FF008084FF0010EC2F20006DD6083F8DA
:2014A00001805E6083F808C083F800E083F809E04FF00209636084F8009001F0B7F843F6F9
:2014C0006573C2F200031F7005B0BDE8F083204601F02AF943F6617540B9C2F20005F723CC
:2014E000204666732B7001F01FF9B9E7C2F200050023607B2B70FFF7E3FEB1E7F0B50027DC
:2015000083B005463E463C46284600F0D9F90194019B9E4206DD00BF019B01330193019B64
:201520009E42F8DC284600F0D5F90194019BC6F5C876B34206DA00BF019B01330193019B0D
:20154000B342F8DB0137B7F5487F06D0B7F5C87FCCBFC7F548763E46D6E703B0F0BD00BFEA
:201560002DE9F0414FF4EC74C1F2000423684FF4804084B05B68C4F2030001219847236800
:2015800001214FF480400A461B68C4F20300984704F0D6FF02F06EFF02F014FF01F02CFB76
:2015A00002F03AFF00F082F944F20C000821C4F209010123C4F2090042F22C02C4F2090264
:2015C00003600B6018461368FFF798FF04F0BCFF02F014FA02F078F904F04EFC02F016FB84
:2015E00004F05EFB41F2342003F0C0FA02F0DCFC04F0F2FC49F6EC20C0F2000002F04AFB8A
:2016000004F000FF49F6E82549F6E42410F0040FC0F20005C0F200040CBFA846A04604F031
:20162000F9FE012814BF2F46274604F0EBFE10F0020F0CBF2E46264604F0E4FE10F0080F4F
:2016400008BF2C4649F600303A46334600944146C0F2000003F0E2FB40F2DC000021C2F269
:20166000000004F0D7FB04F0E9F804F065F91020FFF744FF49F63430C0F2000003F0CEFB03
:201680004AF2E863C0F20003186802F003FB49F63C30C0F2000003F0C1FB4AF21073C0F221
:2016A0000003186802F0F6FA49F64430C0F200004AF2347403F0B2FBC0F2000449F64C306B
:2016C0002168C0F2000003F0A9FBE469A04738B1A047014649F65030C0F2000003F09EFBF0
:2016E0000A2002F0CFFA05F0BBFE02A8082102F007FB49F6C8349DF80F20BDF80E109DF829
:201700000E6044F23003C2F20003C0F20004198042EA0626E56A4AF6CD310220A84731467F
:201720000320A84700210120A847636B082202A90B2098470420FFF7E1FE40F2200000214D
:20174000C2F2000004F066FB49F6D820C0F2000004F016F802F06AFA1020FFF7CFFE04F058
:20176000BDFA044602F07CFA14F0FF0FF7D102F0C7FCF4E72DE9F04105888046772D42D046
:201780007E2D36D025B1002303800320BDE8F08104F07EFA40F25C06C2F2000644F2700380
:2017A00042F6C0143268C2F20003C2F2000418702560002A62D02B4644F22C051F46C2F2BA
:2017C0000005EF5493688020002198472368013356F823202360002AF3D1DBB243F66771C7
:2017E000C2F200010B707723A8F800300120BDE8F08144F27003C2F200031B788B4223D065
:201800000120BDE8F08143F66777C2F2000742F6C01442F6C4163A78C2F20004C2F200067D
:2018200000239342336023600ADA44F22C05C2F20005E956002923DB013393422360F4DBD5
:201840003368002BECD1CEE742F6C01444F22C0543F6677742F6C416C2F20004C2F2000543
:20186000C2F20007C2F2000623683268E85C511C00F07F003A78E8543160DDE71346ADE77E
:2018800044F2700140F25C02C2F20001C2F20002097852F82320002004F08AFA0028E3D124
:2018A0007E23A8F800300120BDE8F08108B501F021F943F66873C2F2000300221A7008BD7C
:2018C00043F66873C2F200031A78024310461A7001F030B943F66873C2F200031A7822EA43
:2018E000000210461A7001F025B900BFF0B444F22802C2F20002167843F6B073C2F200031D
:20190000002E00F05B84197801291AD0751EEDB205EB45051D44184603E010F8034F012C90
:201920000DD0A842F9D106EB46010136F6B20125581808245D54167044708EB11978022957
:2019400019D043F6B074C2F200041678002003E014F8035F022D0CD00130C0B2B042F7D320
:2019600006EB4600022119541C18013661701978167006291AD043F6B074C2F20004167891
:20198000002003E014F8035F062D0DD00130C0B2B042F7D306EB46010620585401365818B6
:2019A000012419781670447010291AD043F6B074C2F200041678002003E014F8035F102DC3
:2019C0000DD00130C0B2B042F7D306EB4601102058540136581801241978167044701129E6
:2019E0001AD043F6B074C2F200041678002003E014F8035F112D0DD00130C0B2B042F7D36F
:201A000006EB46011120585401365818022419781670447012291AD043F6B074C2F20004DF
:201A20001678002003E014F8035F122D0DD00130C0B2B042F7D306EB4601122058540136DF
:201A40005818022419781670447014291AD043F6B074C2F200041678002003E014F8035FEA
:201A6000142D0DD00130C0B2B042F7D306EB46011420585401365818022419781670447039
:201A800021291AD043F6B074C2F200041678002003E014F8035F212D0DD00130C0B2B0423E
:201AA000F7D306EB460121205854013658180224197816704470AF291AD043F6B074C2F2CC
:201AC00000041678002003E014F8035FAF2D0DD00130C0B2B042F7D306EB4601AF20585438
:201AE000013658180224197816704470A0291AD043F6B074C2F200041678002003E014F8E9
:201B0000035FA02D0DD00130C0B2B042F7D306EB4601A020585401365818302419781670A4
:201B2000447076291BD043F6B074C2F200041678002003E014F8035F762D0ED00130C0B22F
:201B4000B042F7D306EB460076211954012418440136197816704470847077291CD043F652
:201B6000B074C2F200041678002003E014F8035F772D0FD00130C0B2B042F7D306EB460071
:201B8000772119540136184400250124197816704570847078291CD043F6B074C2F2000401
:201BA0001678002003E014F8035F782D0FD00130C0B2B042F7D306EB4600782119540136CF
:201BC000184400250124197816704570847070291CD043F6B074C2F200041678002003E074
:201BE00014F8035F702D0FD00130C0B2B042F7D306EB46007021195401361844002501248A
:201C0000197816704570847079291BD043F6B074C2F200041678002003E014F8035F792DBD
:201C20000ED00130C0B2B042F7D306EB4600792119540124184401361978167044708470B2
:201C40007A291CD043F6B074C2F200041678002003E014F8035F7A2D0FD00130C0B2B042C6
:201C6000F7D306EB46007A2119540136184400250124197816704570847080291CD043F6F0
:201C8000B074C2F200041678002003E014F8035F802D0FD00130C0B2B042F7D306EB460047
:201CA000802119540136184400250124197816704570847081291CD043F6B074C2F20004CE
:201CC0001678002003E014F8035F812D0FD00130C0B2B042F7D306EB46008121195401369C
:201CE000184402250124197816704570847082291CD043F6B074C2F200041678002003E03F
:201D000014F8035F822D0FD00130C0B2B042F7D306EB460082211954013618440025012444
:201D2000197816704570847084291CD043F6B074C2F200041678002003E014F8035F842D85
:201D40000FD00130C0B2B042F7D306EB460084211954013618440025012419781670457053
:201D6000847085291CD043F6B074C2F200041678002003E014F8035F852D0FD00130C0B28D
:201D8000B042F7D306EB4600852119540136184408250124197816704570847086291BD0FE
:201DA00043F6B074C2F200041678002003E014F8035F862D0ED00130C0B2B042F7D306EB2E
:201DC000460086211954012418440136197816704470847087291CD043F6B074C2F2000481
:201DE0001678002003E014F8035F872D0FD00130C0B2B042F7D306EB46008721195401366F
:201E0000184400250124197816704570847088291CD043F6B074C2F200041678002003E019
:201E200014F8035F882D0FD00130C0B2B042F7D306EB460088211954013618441025012407
:201E4000197816704570847089291CD043F6B074C2F200041678002003E014F8035F892D5A
:201E60000FD00130C0B2B042F7D306EB46008921195401361844002510241978167045701E
:201E80008470A1291BD043F6B074C2F200041678002003E014F8035FA12D0ED00130C0B236
:201EA000B042F7D306EB4600A12119540124184401361978167044708470A2291CD043F699
:201EC000B074C2F200041678002003E014F8035FA22D0FD00130C0B2B042F7D306EB4600E3
:201EE000A221195401361844002501241978167045708470A3291CD043F6B074C2F2000448
:201F00001678002003E014F8035FA32D0FD00130C0B2B042F7D306EB4600A3211954013615
:201F20001844002501241978167045708470A4291CD043F6B074C2F200041678002003E0DC
:201F400014F8035FA42D0FD00130C0B2B042F7D306EB4600A42119540136184402250B24B2
:201F60001978167045708470A5291CD043F6B074C2F200041678002003E014F8035FA52D01
:201F80000FD00130C0B28642F7D806EB4600A5211954013618440125022419781670457013
:201FA00084708A291CD043F6B074C2F200041678002003E014F8035F8A2D0FD00130C0B241
:201FC000B042F7D306EB46008A2119540136184400252F2419781670457084708B291BD08C
:201FE00043F6B074C2F200041678002003E014F8035F8B2D0ED00130C0B2B042F7D306EBE7
:2020000046008B21195401241844013619781670447084708C291CD043F6B074C2F2000434
:202020001678002003E014F8035F8C2D0FD00130C0B2B042F7D306EB46008C211954013622
:2020400018440025012419781670457084708D291CD043F6B074C2F200041678002003E0D2
:2020600014F8035F8D2D0FD00130C0B2B042F7D306EB46008D211954013618440C250124BF
:2020800019781670457084708E291CD043F6B074C2F200041678002003E014F8035F8E2D0E
:2020A0000FD00130C0B2B042F7D306EB46008E2119540136184400250C24197816704570DB
:2020C0008470A6291CD043F6B074C2F200041678002003E014F8035FA62D0FD00130C0B2E8
:2020E000B042F7D306EB4600A621195401361844022506241978167045708470A8291CD058
:2021000043F6B074C2F200041678002003E014F8035FA82D0FD00130C0B2B042F7D306EBA7
:202120004600A821195401361844002505241978167045708470A72924D043F6B074C2F2AD
:2021400000041678002003E014F8035FA72D17D00130C0B2B042F7D306EB4604751C181965
:20216000EDB24FF0A70C0427012643F6B07103F804C01570C2F20001477086708DB10978BD
:20218000A92919D043F6B070C2F200001578002103E010F8034FA92C0ED00131C9B2A94241
:2021A000F7D305EB450019180135A927002601241F5415704E708C70F0BC7047012108203F
:2021C000587019701170FFF7B9BB00BF70B444F22803C2F200031D78F5B143F6B076C2F27A
:2021E00000063378834211D0013DEDB201353246012303E012F8031F814208D0AB421C46E0
:2022000003F10103F6D1002070BC7047002404EB4404A01970BC70472846F5E740780230D1
:20222000C0B2704770B543784A780D46991C11446229044602DC0178402901D0002070BDC3
:20224000591C465C08447D2EF8D103321344E6542B7863546B784370696819B102306A7842
:2022600007F034FB6B786278023313446370012070BD00BFF8B545780446602D02DC037875
:20228000402B01D00020F8BD6E1C835D87197D2BF8D1AB1C294600F8013F002203F0B2FE7F
:2022A000A15D0346020A03356155A3557A700120F8BD00BF042910B481BF022140247D230E
:2022C000827083BF04704170C370002088BF01205DF8044B704700BF2DE9F84F0F460646D2
:2022E00090469946002400F1010B00F1030A21B914E00134A4B2A74210D9355D402DF8D117
:2023000033195D7802352C44BC421EDC741914F8013C7D2B05D00124A742EED8FF20BDE812
:20232000F88F00225846291F03F06CFE14F8022C14F8033C03EB02239842ECD1B378012B2B
:2023400009D0AF4204D02C46D5E70020BDE8F88F0120BDE8F88FAC1F22464046514607F0D1
:20236000B5FA89F80040ECE72DE9F04704880746752C1BD08F2C06D0002C49D000230380EC
:202380000320BDE8F08785294FD142F6CC1442F6C81642F6D015C2F20004C2F20006C2F2BF
:2023A0000005002323603360A5F8803042F6CC1642F6DC2542F6C818C2F20006C2F20005B4
:2023C000C2F200084FF0000A4FF001090BE033687E2BE854D9BF01332360C4F800A0C8F8D9
:2023E00000907D2824D042F6D420C2F2000003F0C9FE42F6CC1442F6DC21431CC2F20004B6
:20240000C2F20001E3D175233B800120BDE8F08703F03EFC44F2710242F6CC13C2F2000220
:20242000C2F2000310701C60C0E70120BDE8F08742F6C816C2F2000633685BBBD4F8008038
:2024400042F6D015C2F2000542F6DC2128464246C2F2000107F03AFAA5F8808044F2710354
:20246000C2F2000342F6D0121978C2F20002002003F09EFC43F27833C2F2000318688521DA
:20248000002203F095FC00288BD18F233B800120BDE8F087D4F8008042F6D015C2F2000546
:2024A000C8F1800941444A46284607F00FFA42F6DC2105EB09004246C2F2000107F006FAF5
:2024C0008023A5F88030C9E710B543F66974C2F20004237801464BB17D2812D040F2300002
:2024E000C2F2000003F0B8FC012010BD42F6D420C2F2000003F02EFE0028EFD101232370F5
:20250000ECE742F6D420C2F2000003F023FE0028E4D000232370E1E770B50E4658B149B11E
:202520004D1EEDB20544441E14F8010F01F052FDAC42F9D1304670BD08B542F6D42042F60E
:202540005421C2F20000C2F20001802203F0FAFDBDE8084040F23000C2F20000002103F0FA
:2025600059BC00BF704700BF704700BF704700BF38B540F24003C2F200035C6805F032F829
:20258000054605F047F801462846A04738BD00BF38B540F24003C2F200031C6805F022F8C0
:2025A000054605F037F801462846A04738BD00BF08B51B2005F000F9BDE808404AF20471D8
:2025C000C0F2000104F042BF38B549F68C32054642F65C30C2F20000C0F200020C469221ED
:2025E00003F0CEFE42F6783049F69432C2F20000C0F20002812103F0F1FD40F240032DB1F9
:20260000C2F200031D6054B15C6038BD42F26552C2F20003C0F200021A60002CF4D142F2DB
:202620006952C0F200025A6038BD00BF2DE9F04F85B004AB03E90700DDF80480029EDDF8C3
:202640000CA0B8F1000F0DD042F69034C2F200040025204603F052F938B901350F2D04F164
:202660002004F6D105B0BDE8F08F204651464246334616B342F6705C4FEA850BC2F2000C42
:202680000BEB050906F120030CEBC9090093F36830687168B2684F460FC7009B10369E42AE
:2026A000B946F4D1306871680BEB0503A9E803000CEBC30342462046514605B0BDE8F04F78
:2026C00003F0F8B8F8B506460D46174600F0F6F8044628B1304639462A4600F02DF90446E8
:2026E00000F022F92046F8BD70B505460E46144600F0E4F870B12846214600F0A3F948B14F
:2027000021463246284600F043F9044600F00CF9204670BD00F008F9002070BD01462422A3
:202720000020FFF7CFBF00BF014624220020FFF7DBBF00BF10B542F2A00382B0062202A89A
:20274000C4F202034FF4801400F8042D01211C6005F052FE42F29003C4F202031C6002B02B
:2027600010BD00BF30B549F69C33C0F20003186842F2A00383B00024C4F202034FF48015E4
:2027800001908DF800408DF8014001A81D60042105F032FE38B942F29003C4F202031D60BD
:2027A000FF2003B030BD6846022105F045FE42F29003C4F202031D6010B9FF2003B030BDCA
:2027C0009DF80030C22B18BFEF2B18BF2046E8D19DF80130A3F11400113BC0B2DBB201287E
:2027E00088BF012B94BF0020012080F00100D8E730B542F2A00383B0C4F20203052202AC23
:202800004FF4801504F8042D1D6005F03BFE2046012105F0F1FD20B913E09DF80730DB0723
:2028200016D50DF10700012105F006FE0028F4D142F29003C4F202034FF480121A6003B01C
:2028400030BD42F29003C4F202031D6003B030BD42F29003C4F202034FF4801201201A60FA
:2028600003B030BD10B582B0FFF7C2FF08B902B010BD42F2A003C4F202034FF48014B92286
:2028800002A800F8012D01211C6005F0B5FD42F29003C4F202031C600A24FFF763FF631E1E
:2028A0000028E4D013F0FF04F7D142F29003C4F202034FF480121A6002B010BD10B54FF416
:2028C000106082B00A21C0F23D0005F0EFFD4FF4DA73C1F200031B681420DB6B984742F205
:2028E000900142F2A003C4F202014FF48012AB2402A8C4F202030A6000F8014D01211A6062
:2029000005F07AFD08B1FFF773FF42F29003C4F202034FF480121A60FFF724FF421E50424E
:20292000504102B010BD00BF08B5FFF79BFFBDE8084005F021BE00BFF0B583B004460E4685
:202940001746FFF755FF08B903B0F0BD42F2A0030320210CC4F20203220A4FF480158DF844
:2029600004008DF805108DF807408DF8062001A81D60042105F040FD18B13846314605F012
:202980005BFD42F29003C4F202031D6003B0F0BD2DE9F04F0D4683B00446164600294BD0BB
:2029A00042F2A00842F29009C4F20208C4F202094FF0020A4FF480172AE0FFF7BBFEE3B27A
:2029C000C3F580734FEA144C220A0421AB4234BF9B46AB4600B38DF806208DF807408DF801
:2029E00004A08DF805C00DEB0100C8F8007005F003FD0246594630465C44CBEB050582B1DB
:202A000005F0FAFC024660B1C9F800705E449DB1FFF7EEFE0028D0D10022104603B0BDE8D6
:202A2000F08F42F29003C4F202034FF480111046196003B0BDE8F08F0122104603B0BDE84A
:202A4000F08F00BF2DE9F04701F6FE71040B01EB000A2403C4EB0A0A82B020235FEA1A3A84
:202A60008DF804302FD0002542F2A00742F29008A946C4F20207C4F202084FF4801619E092
:202A8000FFF758FE220C230A042104F58054B0B18DF806308DF805208DF807900DEB0100C2
:202AA0003E6005F0A9FC4FF4801380B15545C8F8006008D00135FFF79BFE0028E0D1002087
:202AC00002B0BDE8F087012002B0BDE8F08742F29002C4F20202136002B0BDE8F08700BFB9
:202AE00008B5FFF7EBFEFFF7BDFEBDE8084005F043BD00BF38B542F6C873C2F200031A684F
:202B0000BAB901254FF4DA74C1F200041D6023680620DB6B984723682846DB6B98472368D8
:202B20000720DB6B984742F2A003C4F20203C2221A6038BD43F66A73C2F20003187042F2DB
:202B4000A002C30748BF42F29003C4F202024FF0C20148BFC4F20203116044BF40221A606D
:202B6000410741BF42F29003C4F2020302221A60820741BF42F29003C4F2020380221A60C6
:202B8000030707D542F29003C4F202030221802219601A60C10607D542F29003C4F20203F0
:202BA0004021022219601A60820607D542F29003C4F202034021802219601A60430609D59A
:202BC00042F29003C4F20203402002218022186019601A60704700BF10B54FF4DC74C1F262
:202BE0000004236804205B699847236804205B6B98470128F9D110BD10B503F0A1FC0446CC
:202C0000FFF7EAFF4FF4DC73C1F200031B684FF4A060DB69984742F22803C6F20803012160
:202C200042F228021960C4F2080213689B07FCD500F008F9FFF754FF40F24800C2F20000A7
:202C400001F0B0FB04B110BDBDE8104003F07CBC813801289DBF43F66B73C2F2000318789A
:202C60000020704710B582B0002302AC04F8013D00F090F801202146024600F0ABF800F0B0
:202C8000A7F89DF80700B0F1AD035842584102B010BD00BF70B5064682B076000D46144671
:202CA00000F078F846F0010001A901226D00C0B200F090F845F001000DF105010122640098
:202CC000C0B200F087F844F001000DF106010122C0B200F07FF800F07BF89DF804309DF81C
:202CE00005209DF806001B0343EA021343EA101002B070BD43F66B73C2F200031B7873B103
:202D000040B103280ED0062809D10E200F211022FFF7C0BF082009210A22FFF7BBBF4FF07F
:202D2000FF3070470B200C210D22FFF7B3BF00BF812810B50C4612D02C2802D1FFF792FFAF
:202D400010B94FF0FF3010BD00F024F8E1B2582000F05EF800F03CF84FF0FF3010BDFFF7BD
:202D600081FF78B100F016F800215A2000F050F800F02EF843F66B73C2F2000301221A7048
:202D8000002010BD43F66B73C2F2000318704FF0FF3010BD10B54FF4DA74C1F2000423681D
:202DA0001920DB6B984723681A20DB6B984723681B209B6B984723681820DB6B98474FF4F5
:202DC0001060C0F23D00192105F074FC012010BD05F0DEBC70B582B002AB42F2A00403F8A1
:202DE000010DC4F202044FF080750E46256018460121144605F010FC18B13046214605F086
:202E00002FFC42F29003C4F202031D6002B070BD10B542F2A00382B0C4F202034FF08074ED
:202E20008DF804008DF8051001A81C60022105F0F3FB42F29003C4F2020300201C6002B074
:202E400010BD00BF08B5FFF7A5FFBDE8084005F09FBC00BF012070470120704708B501F035
:202E6000B3FB48B140F23813C2F200035888022814BF0220012008BD022008BD10B582B0B4
:202E800001F010FE044601F09FFB08B902B010BD0120C0F2014001A901F09EFB0128F5D1E7
:202EA000638803F44063002BF0D1638803F44063002BF5D0EAE700BF30B583B001F084FB14
:202EC00040F23814C2F20004A8B900256580A37F40F238105BB2C3F5FF6307339BB2C2F253
:202EE000000001A9238301F077FB012818BF284608D003B030BD6388022B08BF0120E4D184
:202F000003B030BD00F078FD4FF6C075CFF6FF752D1A03E000F070FDC54203D563889BB25B
:202F2000022BF7D1608880B2831E58425841E0E708B5B32994BF0A46B4220146024806F04E
:202F4000C5FC002008BD00BFE62F002070B542F6D875C2F200052C68002603E024682B68B8
:202F6000A3420DD02379032BF8D140F29000C2F2000002F071FF24682B680136A342F1D127
:202F8000304670BDF8B542F6E074C2F2000425682B79032B18BF002601D03046F8BD2E898E
:202FA000023E002E0CDD8E4205F10A070EDDB957042089B204F0E4FB03207F2104F0E0FB24
:202FC0002B68002223602A713046F8BD3946324606F07CFCEBE700BF10B582B001F0F4FA27
:202FE000F8B140F23814C2F2000463880120022B15D101A9C0F2014001F0EEFA02E0638890
:20300000022B03D101F0E0FA0028F8D16088A0F55050043880B201288CBF0020012002B001
:2030200010BD012002B010BD10B540F2780340F28014C2F20004C2F200031A680521237E33
:2030400084F82410928882B003F0F80343F00803204601A96283237601F0BEFA012818BF11
:20306000002001D002B010BD204601F00BFB421E5042504102B010BD00B540F2681083B0EF
:20308000C2F2000001A901F0A7FA012818BF002002D003B05DF804FB40F26810C2F20000E9
:2030A00001F0F0FA411E4842484103B05DF804FB08B5FFF7B9FF012801D0002008BDFFF77C
:2030C000DBFF0128F9D1FFF7F7FEC0B208BD00BF08B501F03FFD01280BD0FFF77DFF01F0F1
:2030E000D3FB01F027FA40F23813C2F2000300225A80012008BD00BF2DE9F84F01F02AFDA6
:2031000001282AD001F0E4F901F05EFAF0B901F05BFA044620B3002001F062FC8B4A0027FE
:20312000A2F18C0E734602F50C760225842459791A6001F0FC0110468C3265F38301B24243
:203140001F71DC80597115D00346F0E740F23813C2F200035B88022BD9D10120BDE8F88F79
:2031600001F0AAFA0128054610D001F08DFB0020BDE8F88FCEF8A4E101F0C2F9FFF754FF61
:20318000012800F0D9800020BDE8F88F01F0FEFB40F21C404AF2B421C0F200014FF42C7254
:2031A000C2F2001006F092FB4FF4647B40F2793840F2753CC2F2001BC2F20018C2F2001C75
:2031C00040F2773E40F2AE3740F2AB3640F2813040F24D314FF4707340F2CD524FF0020A89
:2031E0008BF80040C2F2001E88F80050C2F200178CF800A0C2F20016C2F20010C2F2001128
:20320000C2F20013C2F200124FF003094FF0040B05244FF00608072541F21C0C8EF8009075
:20322000C4F2040C87F800B0347080F800800D701A60DCF8003041F21C01C4F20401002BCC
:20324000F7D049F60049C0F2000900204FF440434CF2A06A4A460860C2F20013C2F2001AA9
:2032600000E00B4609EB030101F15F41A1F54041D1F80080D2F804C0D2F808E0D768166935
:2032800055699469D06903F120015145C3F8008002F12002C3F804C0C3F808E0DF601E615F
:2032A0005D619C61D861DCD14CF2806343F660104FF4815E46F6137741F2116646F654354C
:2032C00041F21C044FF4805240F20111C2F20013C0F20E41C1F6102E4FF0000CC4F204027E
:2032E000C6F25330C4F20404C6F62367C1F21266C7F200051862C3F824E001209F62DE620B
:203300001D63C4F800C0116003F02CFA40F28010C2F2000003F08CF921460A6841F21C030E
:20332000C4F20403002AF8D000221A6001F036FA01283FF4F0AE18E7FFF79EFE01287FF4FA
:2033400022AFBDE8F84FFFF7B7BD00BF2831002070B582B0072800F29480DFE800F08C043B
:20336000929227922A69202900F2888040F26813C2F20003188ADC894FF47A7202FB04F40B
:2033800002FB00F2A4F55F2402F57F42A4F66C64FF3248F21F5004EB1242C5F2EB10A0FB96
:2033A0000240CAB2C0F38710824275D1002002B070BD4AF26455C0F20005AE884FF6FF7066
:2033C000864208BFFF2209D02B46002208339C8801328442D2B2F9D1013AD2B255F83230BD
:2033E0004AF264549942C0F2000447DB2368994244DC0191FFF742FD4FF6FF7086420199C3
:203400007ED000230834A28801338242DBB2F9D1013BDAB205EBC2040023E058083B8142A7
:2034200066DD12F1FF32F8D2FFF742FE0020BEE740F22A23C2F20003197001F0C5F810B320
:2034400040F23813C2F200035B88022B08BF002519D1FFF7C1FD012814BF03240024FFF761
:2034600027FE012818BF03242046002D9FD0FFF72FFE20469BE7012935D071B3022002B0CC
:2034800070BD012093E7FFF737FE012808BF0546DFD0032002B070BDC82000FB01F044F63F
:2034A000D35200F55F20C1F2620200F66C60A2FB00414FF618448909CFF6FF7404FB010051
:2034C0000004A2FB004040F2801289B28009C2F200021882D9811184AFE70191FFF7F8FD31
:2034E0000199084663E7FFF707FE0128D1D15DE740F2780305EBC202C2F200031A6093E784
:20350000FF2287E72DE9F0430C4683B069B1102800F2A880DFE800F01523A6A6A6A6949D2A
:2035200043A6A6A6A673767A0D00022003B0BDE8F0834AF26453C0F200031B680020236085
:20354000F4E701F041F838B140F23813C2F200035888851E6842684120600020E6E740F2D4
:203560006813C2F200031A8AD9894FF47A7303FB01F103FB02F3A1F55F2103F57F43A1F699
:203580006C61FF3348F21F5201EB1343C5F2EB12A2FB0312C2F3871222600020C6E701F04B
:2035A00013F8002860D040F23813C2F200035B88022B08BF4FF0000956D1092680254FF01B
:2035C000000840F2034701A86946CDF80480ADF8047001F001F8731E30B19DF802506806FC
:2035E00002D113F0FF06EED1B9F1000F42D168B2206010F1800F0CBF0320002096E7002090
:20360000206093E72023236000208FE74AF26455C0F20005AB884FF6FF70834208BFFF2214
:2036200009D02B4600220833998801328142D2B2F9D1013AD2B255F832300020236075E711
:2036400040F27803C2F200031B6800201B6823606CE740F22A23C2F2000393F900300020F8
:20366000236063E7012061E7FFF746FD012804D18146A2E7FFF72CFDB9E76FF07F0323606A
:20368000032053E770B582B0044600F09DFF80B340F23813C2F200035B88022B08BF00263C
:2036A00027D1221DA01C42F6E47340F2A814C2F2000392B2C2F2000480B2110A2082E361B4
:2036C00059701A70FFF788FC0020014601F0C8F9204601A900F080FF0125C0B9002001F0D5
:2036E000D5F900236380FFF7E7FB284656B902B070BDFFF701FD012808BF0646D1D00120D0
:2037000002B070BDFFF7E4FC284602B070BD00F0A7FA638803F4406333B900F0E7FC6388E7
:2037200003F44063002BF8D06588ADB2B5F5505518BF0125D2E700BF10B5B32994BF0A46A8
:20374000B4220C460146044806F0C0F82046BDE81040FFF797BF00BFE62F002030B583B04D
:2037600001F0F8F9012825D000F02EFF20B340F2A813C2F200035B88022B18BF002528D0B1
:20378000802403E09DF80640630607D10120C0F2034001A900F020FF0128F3D0B5B940F22B
:2037A0002A23C2F2000393F9000064B2A042D4BF0020012003B030BDFFF79EFC012808BF8D
:2037C0000546DDD0FFF784FC0120F3E7FFF780FCE5E70120EEE700BF08B500F0F5FE70B1CC
:2037E00040F23813C2F200035B88022B06D1FFF7B5FF10F1FF3018BF012008BD002008BD32
:2038000040F26400F8B5C2F2000000F0CBFD02F001FE012802D000242046F8BD43F29C04F9
:20382000C2F20004204600214FF40C7206F0C4F842F6CC7642F6E07142F6D87340F23810D6
:2038400040F2801540F26812C2F20003C2F2000040F2953EC2F20002C2F2000141F6991C2E
:203860000027C2F20006C2F200050C6083E890008362C662A5F820E0A2F80EE0A2F810C0AB
:20388000FFF73AFC01280446C5D149F6C030C0F2000001F00DF940F290003946C2F2000026
:2038A00002F0B8FAB8E700BF10B54FF4DC74C1F20004236804205B699847236804205B6B30
:2038C00098470128F9D110BDF8B540F23021C2F2000100220023C1E900234FF4DC73C1F20D
:2038E00000031B6804205B6B9847012801D0FFF7DBFF4FF4DC73C1F200031B680020DB6980
:20390000984742F22803C6F20803012142F228021960C4F2080213689B07FCD50C23C4F21A
:20392000010319684FF4E47221F4807121F001011960C1F2000213680024C4F201044FF485
:2039400004511B682046C0F20041984704233C2108221F46C4F201013126C4F2010240F24A
:203960002125C4F22433012027600E6015601860F8BD00BF10B442F2080342F20C04C4F280
:203980000903C4F209041968226818688142FAD1C90140F2302001EB5262C2F2000000237C
:2039A000C0E900235DF8044B03C8704710B542F2080342F20C04C4F20903C4F209041968C7
:2039C000226818688142FAD1C90140F2302001EB52620023C2F20000C0E9002302F088F84E
:2039E00000B910BDBDE8104002F06CB8704700BF0146012000F058B802F0F0BC2DE9F04173
:203A000002F09EFD002642F204034FF48032C4F2090301240027C4F224364FF480714FF42E
:203A2000C2753760C1F200051C6019601A602B6880461B683846232198472B6820461B6898
:203A4000242198472B6802201B68252198474FF40053C4F20903196842F2080241F4E02198
:203A6000C4F209021960176002F0B8FC42F21C024FF4287300F50070C4F22433C4F209028C
:203A80004FF4D8711060C1F200011C6034600B6814201B699847B8F1000F01D0BDE8F081BD
:203AA000BDE8F04102F050BD431E042818BF012B10B42CD810F001021EBF42F21803C4F2F4
:203AC0000903196010F002031EBF42F21C04C4F20904216010F004001EBF42F22004C4F2F8
:203AE000090421602AB14FF42072C4F22432012111602BB14FF42873C4F2243301221A6085
:203B000028B14FF43073C4F2243301221A605DF8044B704743F2CC23C2F2000318687047CF
:203B200008B5FFF769FF43F2CC23C2F200031860FFF73CFFA023C4F224331B68BBB980237C
:203B4000C4F224331B6863BBC023C4F224331B6863B14FF4307242F20403C4F224320020E4
:203B6000C4F209034FF480311060196008BD42F20403C4F209034FF480721A6002F02EFC19
:203B800000F2052020F4FF7242F21C03C4F2090322F001021A608023C4F224331B68002B87
:203BA000D2D04FF4207242F20403C4F224320020C4F2090301211060196002F075F9C3E750
:203BC000820741BF4FF44063C4F2080301221A60C30700D4704702F0B7BC00BF08B502F0F0
:203BE000AFFC4FF44063C4F208031A68012A03BF4EF25152C1F6CC221A60002308BF0223F3
:203C0000002814BF184643F0010008BD00224FF6FF714FF44063C4F20802C0F20F01C4F25D
:203C20000803012011601860704700BF38B5FFF7D5FF00244FF6FF750C214FF48273C4F24A
:203C40000804C0F20F050122C4F20033C4F2080125600A601A60BDE83840FFF7B1BF00BF1C
:203C600000224FF6FF710C23C4F20802C0F20F01C4F20803012011601860704708B5FFF787
:203C8000D5FFFEE710B50446C0B200F0A3F9204610BD00BF38B50546002403E0285D00F0B8
:203CA00099F90134284605F0D1FE8442F6D30A2000F090F900F0DEF90128FBD0204638BDC3
:203CC00070B505460E46A8B10078B8B1A1B1002404E015F8010F38B1B44205D000F07AF958
:203CE0006B1C04F10104F4D100F0C4F90128FBD0204670BD0446F7E70C46F5E70446F3E7D0
:203D000010B44FF6C7734FF6CF74C0F20103C0F2010413F8012FFF2A12D1A342F9D141F242
:203D2000F022C5F2000241B10A44002312F8014C013AC45401338B42F8DB5DF8044B70477C
:203D40004FF6C872C0F20102EDE700BF38B54FF4DC75C1F200052B6802205B6998472B6878
:203D600002205B6B98474FF4DC7301280446C1F20003F4D11B684FF40070DB69984742F26F
:203D80002803C6F2080342F228021C60C4F2080213689B07FCD538BD2DE9F0434FF4E876CE
:203DA00083B0C1F20006FFF7D1FF33684FF480504FF4D878DB68C4F20000C1F2000898477D
:203DC000D8F8003041F238045B691520C4F200049847236841F2440523F4FE6323F002034B
:203DE000C4F2000540F2F2794FF4DA772360C1F20007C5F800903B680520DB6B984742F22C
:203E00009003C4F2020320221A603B68072200924FF480501F6CC4F2000004210522062371
:203E2000B84733684FF480504FF4D8415E68C4F20000C0F2DC214FF4E1226023B04741F25B
:203E40003403C4F20003142141F22C021960C4F20002116843F2D02341F010011160C2F2A3
:203E60000003196840F2013640F2011041F23002002914BF31460146C4F200021160C5F80D
:203E800000901B6843B12368152043F050032360D8F800301B69984703B0BDE8F08300BF65
:203EA00008B54FF4DC73C1F200031B6802205B6B9847012801BF42F26C03C4F208031868E6
:203EC00000F0010018BF002008BD00BF38B50446FFF7E6FF30B141F21802C4F20002136803
:203EE0001807FCD4032C06D043F2D023C2F200031B6803B138BDFFF7D3FF28BB4FF4DC7584
:203F0000C1F200052B684FF400701B6A9847032C3FD042F22803C6F20803012142F228025F
:203F20001960C4F2080213689907FCD5052000F05BFA042000F058FA062000F055FABDE882
:203F40003840072000F050BA4FF4E873C1F200031B684FF48050DB68C4F2000098474FF4C3
:203F6000D873C1F200031B6815205B69984741F23803C4F20003186841F2440220F4FE6053
:203F800020F00200C4F2000240F2F27118601160B4E72B684FF400709B6A98472B684FF43E
:203FA00000701B6B9847B4E710B502F0C9FA044640F27C00C2F2000000F0F4F943F2D02366
:203FC000C2F2000300221A6004B110BDBDE8104002F0BABA10B50446FFF762FF08B9FFF794
:203FE000DBFE4FF4E873C1F200031B684FF480502146DB69C4F20000984710BD43F2D023C9
:20400000C2F2000310B5186040F27C03C2F2000300B302224FF4DC741A61C1F2000423681D
:204020004FF400705B6A984723684FF40070DB6A984742F22803C6F20803012142F2280225
:204040001960C4F2080213689C07FCD5BDE81040FFF7A2BE4FF4DC741861C1F2000423689F
:204060004FF400709B6A984723684FF400701B6B9847DEE708B5FFF713FF30B141F218034D
:20408000C4F200031868C0F3C00008BD70B5FFF75DFE4FF48253C4F200031A6841F244036C
:2040A000C4F2000340F2F27112F0500F196018D041F218054FF4E87643F2D024C4F200051B
:2040C000C1F20006C2F2000406E03368C4F200001B69984723682BB92B684FF48050DB06DF
:2040E000F3D570BDC0B29847F6E700BF4EF61053CEF200031A6822F004021A6030BF7047BA
:2041000070B502F01DFA01F047FE18B1BDE8704002F01ABA43F2D420C2F2000001F08EFFFC
:204120000225044648B1636823B19847A84228BF2846C5B22468002CF5D1FFF75DFC4FF4D1
:204140002073C4F224331B680446002B40F0B88001F0CEFC03460146002840F0F280012D1C
:2041600000F0CC80022DD1D12846002B00F00581FFF79AFC43F2D420C2F2000001F05EFF6C
:2041800006250446002800F0AF80A368022003B198472369246825EA0305002CF5D1FFF78C
:2041A0005FFD6A0705F0060400F1A180002C40F0E98000F0BFF9002004F066FB4FF480522A
:2041C000C4F20902116841F2080321F003011160C4F2090319684FF4DC7241F00F01196053
:2041E000C1F20002136839209B6998474FF482524FF484610023C4F20902C4F222311360B4
:20420000184613600B6002F0FDFE062C00F0C38042F22C0542F22424C4F20804C4F20905A9
:204220002B6823684FF4EC7623F003032360C1F2000633684FF48040C4F2030003215B6828
:2042400098474FF4DC73C1F200031B689B6B98472B6803F055F84FF4C0730022C4F2043377
:204260001A6033684FF48040C4F203005B6801219847216844F20C0341F003010122C4F2CD
:20428000090321601A602B6803F07AF804F0C4FAFFF78CFBFFF7E4FC43F2D420C2F200003D
:2042A00001F0CCFE044628B1E36803B198472468002CF9D102F048F9BDE8704002F044B949
:2042C00042F21803C4F209031B681B1A022B52D4A3F28F23002BB8BF0123BFF639AF9D4239
:2042E00028BF1D46EDB233E7FFF7BAFC062444F20C03C4F2090300221A6057E7002B4ED0BB
:204300004FF6F873CFF6FF731B1BCB4248BF04F1080106D404F58034631A31EA230128BF44
:2043200021460220FFF7C0FB4EF61053CEF200031A6822F004021A6030BFBDE8704002F08F
:2043400003B901F0DFFB0646FFF714FB361A002E15DDFFF7DFFB4FF67153CFF6FF731B1BCF
:2043600000EB4621CB424FF001037FF5F8AE9D4228BF1D46F3E60023B1E7611EF8E6002344
:204380001946F4E74FF4DC73C1F200031B6820469B6998470DE7022002F030F938E704F586
:2043A0008031BEE7014643F2D420C2F2000001F047BE00BF014643F2D420C2F2000001F0B9
:2043C00093BE00BF43F2D42008B5C2F2000001F031FE4FF4C273C1F200031B6803201B68BC
:2043E0002021984708BD00BF411C10B5044611D04FF4DA73C1F200031B684FF4C0421B683B
:20440000002198474FF4D053A400C4F24423234300221A6010BD00BF08B5084B002103F1C2
:20442000800243F8041F9342FBD14FF4D873C1F200031B6810201B69984708BDD4320020B6
:20444000F8B542F2E003C4F202031D6843F2D8271D60C2F200070024012606FA04F32B423D
:20446000E0B203D057F8243003B198470134202CF3D1F8BD10B584B00022412302A80292EA
:20448000039304F0DFF9042002F0A0F8032819D00420032102F05CF8042002F097F803289A
:2044A0000346F9D14FF4D272C1F2000212684FF4204000935468C4F20C0000214FF040528D
:2044C0001C23A04702A804F01FFA04B010BD00BF00B583B00022412368468DE80C0004F02E
:2044E000B1F9012002F072F8012803D00320012102F02EF8684604F007FA03B05DF804FB92
:2045000000B583B00022412368468DE80C0004F099F9012002F05AF8012805D04823C1F2F7
:204520000003986B01F040FF684604F0EDF903B05DF804FB10B582B04123684600240193F5
:20454000009404F07FF90320214602F001F8012002F03CF828B14823C1F20003986B01F0B1
:2045600023FF684604F0D0F902B010BD70B503880646C3B140F22322934219D1822921D1EC
:2045800049F6C833C0F200034AF234751C69C0F20005FFF765FB03F07BF803F023F88021A0
:2045A000A047002808DC40F223233380012070BD00230380032070BD80B203F00DF82B69DB
:2045C0009847E6E7012070BD42F29C13C4F20803186800F00100704738B510F003030546D7
:2045E0000C4626D001F0ACFF42F29C13C4F208031B68003018BF0120DB072AD54FF4805391
:20460000C4F2040341F204011D60C4F204010B684CF25032236003E00B68013A236018D0BB
:2046200013F0FF0FF8D050B32078421E5042504138BD02881005D5D56B8001F081FF42F2B5
:204640009C13C4F208031B68003018BF0120D90702D480B1002038BD2B8813F4405FCDD04D
:2046600003F44063B3F5006F02BF43F25833C2F200031D60C2E701F067FF002038BD01F0CE
:2046800063FFD1E74AF22013C0F2070301E0013B0FD0428802F44062B2F5806FF7D1408851
:2046A00000F44060B0F5806CDCF1000050EB0C0070471846704700BF70B582B001F040FFAF
:2046C0004FF4D874C1F20004236805461B6A19209847236812201B6A9847236819205B6978
:2046E000984723684FF4DC745B691220C1F200049847236801205B699847236801205B6B70
:2047000098470128F9D142F22C0142F22803C4F20801C6F2080342F228020860C4F20802FF
:20472000186013689907FCD541F2100141F214030022C6F20401C6F204034FF4D8740A60F0
:20474000C1F200041A60236819201B699847236812201B699847F5B1002441F21C014FF484
:2047600080535122C4F20403C0F20762C6F2040440F2FF36C4F20401002501202660C0F2BB
:2047800006400D601A6001A9FFF726FF431E5842584102B070BD01F0D7FEDDE730B543F210
:2047A0006033C2F2000387B01B680024012240F60A0501A86946019404940593029403941F
:2047C000ADF804508DF81120FFF706FF012804BF4AF22010C0F2070004D0204607B030BD40
:2047E0000138FBD0BDF8063003F44063B3F5806FF6D1BDF8060000F44060B0F58064604258
:20480000604107B030BD00BF10B586B00023012240F6090401A86946019304930293039362
:204820000593ADF804408DF81120FFF7D5FE012806BF4AF22010C0F20700C0B203D006B06A
:2048400010BD0138FBD0BDF8063003F44063B3F5806FF6D1BDF8063003F44063B3F5806F88
:2048600018BF0020EBD143F66C73C2F200031A780120002AE3D143F260320599C2F200020A
:20488000012011601870DAE730B587B001F058FE4FF4D874C1F20004236805465B691920C1
:2048A0009847236812205B69984742F29C13C4F208031B68DA0720D541F2100141F214022F
:2048C0000023C6F20401C6F204020B6040F60D04136002A8012201A9029305930393049344
:2048E000ADF808408DF81520FFF776FE012804BF4AF22013C0F207033DD0FFF785FF42F2D5
:204900002C0142F22803C4F208010024C6F20803012042F228020C60C4F2080218601368C7
:204920009B07FCD54FF4DC74C1F20004236801209B699847236801205B6B98470228F9D1E6
:204940004FF4D874C1F20004236819201B6A9847236812201B6A9847236819201B699847A1
:20496000236812201B6998470DB901F0EDFD07B030BD013BC1D0BDF80A2002F44062B2F5E7
:20498000806FF6D1BDF80A30B7E700BF08B501F069FD052815D003281AD050B1012801BFF0
:2049A00042F2D013C4F2080305221A6018BF002008BD42F2D013C4F2080303221A6001202A
:2049C00008BD42F2D013C4F208031860012008BD42F2D013C4F2080302221A60012008BD80
:2049E000F8B542F29C13C4F208031A680023C8F2800300280CBF1D460025D10700D4F8BDA8
:204A000001F09EFD41F2180141F2140241F21003C6F20401C6F204020646C6F20403002089
:204A20004FF000474FF4D8740F60C1F2000415601860236819201B6A9847236812201B6AE4
:204A40009847236819201B699847236812201B69984706B1F8BDBDE8F84001F075BD00BF05
:204A6000002398420CBF022008200029C8F2800318BF002341F2100141F214021843C6F224
:204A80000401C6F204020B60106070470023984241F21402C8F2800318BF0023C6F2040286
:204AA0001360704743F25833C2F200031868704743F25C33C2F200031860704708B542F283
:204AC0009C13C4F208031B68D80704D4FFF7F4FD012800D008BD41F21003C6F204036FF023
:204AE00000421A6008BD00BF08B542F29C13C4F208031B68D9070AD44AF2EC50C0F20000AA
:204B0000FFF7C8F8FFF7D8FD012800D008BD01F017FD41F21003C6F204031A6812020ED4D4
:204B200041F21003C6F204031A6812F00A0F1CBF6FF00A021A60BDE8084001F005BD6FF410
:204B4000000240F290001A60C2F2000001F084F9E6E700BF43F66D73C2F200031878704752
:204B600008B500F0A3F880B208BD00BF00F038B938B54FF4DC75C1F200052B6804205B69A2
:204B800098472B6804205B6B98474FF4DC7301280446C1F20003F4D11B6840F20140DB6920
:204BA000984742F22803C6F2080342F228021C60C4F2080213689B07FCD538BD43F26433AB
:204BC000C2F20003186800280CBF0220012070472DE9F04103880646002B4AD0B3F5847FA3
:204BE00009D140F22B23C2F200031B788B4207D00120BDE8F081002303800320BDE8F08157
:204C000043F26437C2F200073B68B3B14FF4E673C1F200031A6848F20403C4F20203526878
:204C20000220D3F8008090470024221848F10003194610463B6898473C604FF4DC73C1F27E
:204C400000031B6840F201409B6A984742F22803C6F20803012142F228021960C4F208029C
:204C600013689907FCD540F2A000C2F20000FFF7A1FB4FF4847333800120BDE8F08100BF4D
:204C800008B54FF4DC73C1F200031B6804205B6B9847012801BF42F23C03C4F20803186826
:204CA000C0F3400018BF002008BD00BF70B543F26433C2F200031B68D3B143F26830C2F256
:204CC00000000023C15C43F26832C2F2000229B90133042BF6D10020014670BD40F23821E4
:204CE0000024C2F2000101EBC301D45403C970BDFFF7C6FF002842D048F20803C4F2020315
:204D00001A680123C8F2000313409BB949F6F073C4F2020301221A6018680028FCD10246D2
:204D20004FF4807102F070FB4FF42A73C4F2502301221A6001F004FC48F208020646C4F205
:204D400002021368D807FCD54FF4E673C1F200031A6848F20403C4F20203526802201C68F4
:204D6000904700222346141843F1000516B12046294670BD01F0E8FB2046294670BDFFF7D7
:204D8000F7FEB9E738B54FF42A750024C4F2502548F20C032C60C4F2020319684FF4D872C2
:204DA00021F001011960C1F20002136831205B699847204622464FF4807102F025FB01220C
:204DC00040F22B232A60C2F2000340F2B40022461978C2F20000BDE8384000F0E9BF00BF0B
:204DE00010B540F22B24C2F200042378802B00D010BD00F04DFF207040F2B400C2F200006C
:204E00000021BDE8104001F005B800BF08B51AB108461146FEF754FF002008BD0FB400B53D
:204E200083B004AB53F8041B40F2C4001A46C2F20000019300F022F803B05DF804EB04B0D3
:204E4000704700BF38B50C46054609E04AF25061C0F200012B6868681022103C984718B938
:204E6000102CF3D8204604B938BD4AF250612246C0F200012B686868984738BD2DE9F04F7F
:204E80004AF2A86491B0C0F20004002582468946099204940295884698F80030002B00F0A4
:204EA000F080252B00F01983444602E0252B04D02C466378651C002BF8D145450FD0C8EB38
:204EC000050641463246DAF80030DAF804009847002840F08F826378029C34440294002BF6
:204EE00000F0CF806B78002B00F0CB8001350024A3F12002AC46102A1CD8DFE802F0181B0E
:204F00001B151B1B1B1B1B1B1B121B0F1B1B090044F0100401359CF80130E9E744F00104DD
:204F2000F8E744F00604F5E744F00804F2E744F00204EFE7A3F13102D2B2082A00F2E5807B
:204F4000A3F13002D2B2092A9CBF01354FF0000B00F2DE800BEB8B0B03EB4B0BAC4615F8DA
:204F6000013BABF1300BA3F13002D2B2092AF1D92E2B00F0D2804FF0FF316C2B00F0EE80D8
:204F8000682B00F07B81782B00F28180DFE813F079007F007F007F007F007F007F007F0040
:204FA0007F007F007F007F007F007F007F007F007F007F007F007F007F007F007F007F0001
:204FC0007F007F007F007F007F007F007F007F007F007F007F007F007F00A2027F007F00BC
:204FE0007F007F007F007F007F007F007F007F007F007F007F007F007F007F007F007F00C1
:205000007F007F007F007F007F007F007F007F007F009F027F007F007F009C02990296022A
:205020007F007F007F007F007F007F007F007F007F007F007F007F007F007F007F007F0080
:2050400093027F007F007F007F007F007F007F007F0090027F008D028A0287028402810205
:205060007F008A027F007F007F007F007D007E027B027F007F0078027F0075027F007F0043
:205080007202029811B0BDE8F08F44F4E06404F4E063B3F5806F0CF1010800F0CF806DD944
:2050A000B3F5C06F00F0B281B3F5E06F00F0A781B3F5A06F7FF4F0AE099BBBF1010F1A683D
:2050C00003F1040309938CBF0BF1FF3B4FF0000BE3078DF8282000F13E8350465946FFF7DA
:2050E000B1FE002840F08681029CDAF800305C44DAF804000AA9012202949847002840F0E9
:2051000079810BF1010B029D95E02A2B00F0C6802E2B4FF0000B7FF42EAF9CF801300CF139
:205120000101A3F13002D2B2092A00F2C4800CF102024FF0000909EB890903EB4909137820
:205140009446A3F13001C9B20929A9F1300902F10102F0D96C2B49467FF412AF9CF8013052
:205160006C2B03BF9CF8023044F080040CF1020C0CF1010C18BF44F0600404E7B3F5807F42
:2051800000F0A780B3F5407F7FF486AE099A4AF2846711684AF27063C0F20003043214F4A5
:2051A000804FC0F2000718BF1F46099200230A46002900F057810DF13A00110902F00F02D7
:2051C00041EA0371BD5C1E090A463346014600F8015952EA0305F0D10DF13B035B1A18BF01
:2051E000DD1C00F04181782030222323AB4501F8010C01F8022C01F8033CA1F103063AD8D2
:205200004FF0000B14F0010406D150465946FFF719FE002840F0EE803146DAF80030DAF811
:2052200004002A469847002840F0E48002980544002C40F0FB805D4402952DE6099B1E6830
:2052400004330993002E00F04A8233781D466BB1731C18781A4601330028FAD1951B8D4242
:2052600094BF002301230029B8BF0023002B18BF0D46AB45C4D9C5EB0B0BC3E79CF80130BA
:20528000682B03BF9CF8023044F020040CF1020C0CF1010C18BF44F0400474E6099B05F143
:2052A000010C1A680433002A0993B8BF44F0010493466B785CE62A2B18BF8C467FF45BAE3A
:2052C000099A9CF80230111D09910CF1020C116853E60029ABBF24F01004012505910595CF
:2052E00014F4005504F0E003039500F0A780402B00F0208200F2F380002B00F0DE81202BA4
:2053000040F00882099B1A1D099293F90020D317002A73F10000C0F2DA81CDE90623002528
:20532000089504F4C053B3F5805F00F06481B3F5C05F00F07F81B3F5006F1CBF0DF13E057F
:205340004FF0000900F03281059941F60803894504EA030341F20802C0F0E580934218BFC2
:20536000002600F00A8241F60802934206EB090100F0FC8000273A46039870B1089B002BDD
:2053800040F00E8104F00603022B00F0CD810498062B08BF012708BF02467B189B458CBF5D
:2053A000C3EB0B0B4FF0000B14F00103039304D1E10640F19E815E449B463FB11146DAF899
:2053C0000030DAF804003A46984798B9102E344603D8B5E0102C40F2B3804AF26061C0F29F
:2053E0000001DAF80030DAF804001022103C98470028EFD04FF0FF3011B0BDE8F08F099B99
:20540000029C1A6804331460099345E54AF2B461C0F20001DAF80030DAF80400012298471D
:205420000028E7D1029C0134029435E550465946FFF708FD00283FF4FEAEDBE7402B00F0B5
:2054400080815CD8002B00F02D81202B40F05B81099B039D18781A1D002108950992CDE9DD
:2054600006015EE70DF13B01302301F8013C04250139B8E644F4C85409E644F4106406E641
:2054800044F4806403E644F4407400E644F48854FDE544F48134FAE544F40074F7E544F4B3
:2054A0000244F4E544F42454F1E544F4A064EEE544F4C134EBE544F4B244E8E544F4A13433
:2054C000E5E544F48444E2E544F44244DFE544F4E134DCE544F4C064D9E5454602E5602B94
:2054E00000F0EB80802B40F01581099B073323F0070303F108020992D3E9002308E7602BF3
:2055000000F0D080802B40F0FE80099B039D073323F0070303F10802D3E900010895099264
:20552000CDE90601FDE69342C9EB01067FF41BAF002E08BF012600273A4606EB09011BE73E
:20554000002C40F0A1802946DAF80030DAF804004A46984700287FF44DAF029B039C4B44B6
:205560001F443E44ACB95E44029695E4DDE9062313433FF4FFAE4AF29C624AF2986314F490
:20558000804FC0F20002C0F2000318BF1A460227F2E650465946FFF755FC0028E3D029E734
:2055A0004AF2A062C0F200020127F6E6DDE90601014300F0B480DDE906670DF13D093046D3
:2055C00039460A22002303F065FE303289F80020304639460A22002303F05CFE06460F4672
:2055E00056EA07024D4609F1FF39E8D10DF13E03C5EB0309A8E6DDE90623134300F08F8017
:20560000DDE906230DF13D01D00840EA4370DE0802F00707334602460D4652EA030007F179
:205620003001297005F1FF31EED10DF13E03C5EB030989E64AF284674AF2706314F4804F44
:20564000C0F20003C0F2000718BF1F46DDE90623134364D0DDE906230DF13D01100902F0F1
:205660000F0540EA03704FEA131E7E5D0246734652EA03000D460E7001F1FF31EED10DF144
:205680003E03C5EB03095FE64AF260612246C0F20001DAF80030DAF80400984700283FF49E
:2056A00052AFA7E6039D099B08951A680021043310460993CDE9060133E6099B1A6804337C
:2056C0000993D317002A73F10000BFF626AE504263EB43010125CDE90601089521E6052954
:2056E0004AF2AC66C0F200068CBF002301230625BCE5504659460192FFF7A4FB019A002826
:205700003FF45BAE76E60025002000210895CDE9060106E600200021CDE90601FFE54FF024
:2057200000090DF13E050FE64AF2A462C0F20002012732E6099B1A1D0992B3F90020D317C8
:20574000E6E5099B039D18881A1D002108950992CDE90601E5E5DAF80030DAF804000AA9F8
:205760000122984700287FF445AE50465946FFF769FB00283FF4C5AC3CE60126DBE600BF75
:2057800010B50446006830B1002100F043FB54F8040F0028F8D110BDF8B503880646154666
:2057A000EBB14A2B17D1882946D143F26C30C2F2000000F043FC044648B1031D9D4202D15F
:2057C00026E09D4224D02468231D002CF9D14A2333800120F8BD002303800320F8BD43F285
:2057E0006C30C2F2000000F029FC044630B1201DA16800F06DF92468002CF8D143F66E73E2
:20580000C2F2000301221A704A2333800120F8BD43F26C30C2F20000214600F065FC43F2BC
:2058200078356269A369C2F200052F682A600BB1E06998472F60CAE70120F8BD10B543F612
:205840006E7343F26C300024C2F20003C2F200001C7000F0EFFB40F2CC002146C2F2000088
:20586000BDE8104000F0D6BA70B543F66E74C2F20004049D267882610446C36145614EB97E
:20588000A16043F26C302146C2F20000BDE8704000F0D6BB43F27835C2F200052E6840F2E2
:2058A000CC03C2F2000304302B6000F011F92E60E7E700BF10B543F27834C2F200042468A4
:2058C00082B00094FFF7D0FF02B010BD10B543F66E73C2F200031B78044653B9C3600361B8
:2058E00043F26C302146C2F20000BDE8104000F0FBBB043000F012F9F2E700BF38B543F634
:205900006E73C2F200031D7804466DB943F26C30C2F2000000F092FB10B90AE0006840B1DC
:205920008442FBD1002038BD0430BDE8384000F0D9B8012038BD00BF704700BF10B543F2A9
:205940007034C2F200042368CBB1FEF713F8236859681A689B680A44121A4BB193E8120010
:205960009B682144091A8A4228BF0A46002BF5D143F274330244C2F200031A6010BD43F253
:205980007432C2F20002136010BD00BF2DE9F041038805467BB1592B08D1872915D08229C6
:2059A00026D059232B800120BDE8F081002303800320BDE8F08143F27032C2F200021360B4
:2059C00059232B800120BDE8F08143F27037C2F200073B68002BE4D0D9688A4203D02BE065
:2059E000D9688A4227D19B68002BF9D13B60D8E743F27037C2F200074FF000083C68002CA2
:205A0000CFD0002604E0A3682646002BC9D01C46204600F067FA0028F5D0E0688821224643
:205A200000F0C6F9034640F2DC00C2F2000073B100F012FAE7E73B6099680029B1D0C86848
:205A400082420BBF89680B4699608968F5E7E360A3682EB1B360C4F80880FFF76FFFCDE714
:205A60003B60F8E710B5044640F2DC00C2F2000000F0F2F943F27032E368C2F200021168AF
:205A800053B149B18C4218BF0B4602D110E09C420ED09B68002BFAD143F27833C2F2000303
:205AA0001B68A160E3601460BDE81040FFF746BF43F27833C2F200031B68E360BDE8104069
:205AC000FFF73CBF40F2DC00C2F2000000F0C4B910B5044600F0FEF92046BDE81040FFF75F
:205AE000C1BF00BFC068D0F1010038BF0020704743F27033C2F200031868003018BF012078
:205B0000704700BF43F27033C2F20003186820B143F27433C2F200031868704710B543F26B
:205B20007033C2F200031A680446904217D04AB1936883420AD02BB19A68A24207D01346FF
:205B4000002BF9D10023A360E36010BD1346A2689A60FFF7F3FE0023A360E36010BD8268B6
:205B60001A60FFF7EBFEEDE72DE9F84343F27C38C2F20008D8F8004043F27836221CC2F21D
:205B8000000618BF0122844218BF002C054689463768234604D01B689D4218BF002BFAD117
:205BA00063B3AB7BE3B10023AB736AB1A54220464FF087012A4604D0A37BDB0701D500F09B
:205BC00029F82468002CF1D1AB683BB14D4505D0356005F10C00832100229847D8F8004078
:205BE000A54212D04CB12368AB4209D02BB11A68AA4206D01346002BF9D13760BDE8F88369
:205C000023462A681A603760F8E72B683760C8F80030F3E770B5856804460E468DB143F282
:205C20007833C2F200030220A0731C6004F10C00A8470238012805D9832E1CBF0123A3735A
:205C400000D070BD20462146BDE87040FFF78CBF70B543F27C33C2F200031C6843F6717383
:205C6000C2F2000300261E7084B1012501E0246864B1E37B002BFAD0A573E673204682210F
:205C80000022FFF7C7FF2468002CF2D170BD00BF43F67273C2F200031878421C1A707047BB
:205CA00070B443F6707043F27C3143F27832002343F6727543F66F74C2F20000C2F200011E
:205CC000C2F20002C2F200058A26C2F2000403700B6013602E70237070BC70472DE9F04141
:205CE00043F67174C2F2000423780BB1FFF7B0FF43F67075C2F20005287818B343F66F7276
:205D0000C2F20002117843F2803301EB410C4FEA8C0CC2F2000303EB0C0701380131BE6809
:205D2000C0B201F01F012870117013F80C807F68B6B1B8F1810F04BF0123B37306D0B37B98
:205D4000DA0703D423781844BDE8F081304641463A46FFF75FFF287823781844BDE8F08100
:205D600043F27C33C2F200031E6836B9EAE7B37BD9070AD43668002EEDD02378002BF6D041
:205D8000FFF766FFB37BD907F4D5304641463A46FFF740FFEEE700BF43F6717243F6707353
:205DA000C2F20003C2F200021278187810447047F0B443F67073C2F200031D78202D08BF31
:205DC000012315D043F66F74C2F20004277843F280342F4407F01F0707EB4707BF00C2F21B
:205DE0000004E6190135E1551D7072600023B0601846F0BC704700BF38B5837B43F2783456
:205E0000C2F20004DB07256801D5FFF703FF256038BD00BF70B443F27C35C2F200052E68FB
:205E20000446864218BF002E334604D01B689C4218BF002BFAD1A3420BD001200023266046
:205E4000A073A3810A4620462C60812170BCFFF7D3BF70BC704700BF60B1837B013BDBB2F9
:205E6000012B9FBF43F671730122C2F200031A7098BFC273704700BFFDF7B8BD38B543F28A
:205E80000052C2F200020446156804986360A060216015B11460002038BD08461460FDF74E
:205EA000A7FD002038BD00BF10B543F20054C2F20004236863B1184600225B688168226017
:205EC0009847236823B11868BDE81040FDF790BD10BD00BF10B541600446FDF74BFD2060D6
:205EE00010BD00BF10B50446FDF744FD94E80C00C2F10102104483422CBF0020012010BD82
:205F0000F8B504880546672C0ED0792C04D064B3002303800320F8BD852933D143F20C6427
:205F2000C2F200040023236043F20C6443F28C56C2F20004C2F2000607E00A2824D022683E
:205F40007E2ADEBF511CB054196043F28450C2F2000000F017F943F20C63421CC2F200039C
:205F6000EBD167232B800120F8BDFFF791FE44F2720243F20C63C2F20002C2F2000310709A
:205F80001C60D1E70120F8BD43F20C64C2F20004276843F28C5344F27201C2F20003002671
:205FA000C2F200011A4607F1010E09783046DE55C4F800E0FFF7FCFE43F27833C2F2000378
:205FC000324618688521FFF7F3FE0028AAD179232B800120F8BD00BF08B543F2845043F2C2
:205FE0000451C2F20000C2F20001802200F0AAF8BDE8084040F2EC00C2F200000021FFF7D9
:2060000009BF00BF0029034611DD084413F8011B4A4052BA02F47F4182EA011292B282EAAB
:20602000123202F47F41834282EA5112EED11046704700BF00230360704700BF006870472C
:2060400010B404685CB1A14225D023680BB906E01346994210D01A681C46002AF8D10023E8
:206060000B6002680AB911E01A461368002BFBD111605DF8044B704764B10A6822600022CE
:206080001A6000230B600268002AEED101605DF8044B70470C46226823460260EFE700BFAD
:2060A00030B4056865B1A94219D02B6843B12C4600E01346994207D01A681C46002AF8D1EA
:2060C0000D60016030BC704744B10A68226000221A6005680D60016030BC70470D462A6807
:2060E0002B460260F3E700BF10B404685CB18C4215D023680BB906E01346994206D01A6883
:206100001C46002AF8D15DF8044B704734B11A68226000221A605DF8044B70470C46226813
:2061200023460260F5E700BF03682BB100201B680130002BFBD170471846704700B1006802
:20614000704700BF0023013A0160027143718371704700BF10B40346447980791A79201AE9
:20616000104082421FBF1A68012011555A791FBF197912180A405A7108BF00205DF8044B17
:20618000704700BF10B40346827940791979801A08421FBF1868541C2140805C14BF99716A
:2061A0004FF0FF305DF8044B704700BF08B543695B6803B1984708BD10B5044682B01A2058
:2061C00001F0FAFA014601A801F03CF963691B6813B1204601A9984702B010BD70B51446C4
:2061E0004AF2D8620646C0F200020D4602F002FC4AF2D46174612846C0F20001BDE870402A
:2062000000F036B810B544F230010446C2F200011A2001F0C5FA2046BDE8104002F0FABB89
:2062200043F21060C2F20000FFF704BF034643F210609980C2F200001946FFF701BF00BFBD
:2062400010B5044643F21060C2F20000FFF7F6FE50B18388A34203D109E08388A34205D079
:20626000FFF76CFF0028F8D1002010BD10BD10BD38B50D46FFF7E4FF044620B185602846BE
:2062800002F0D4FC207338BDF8B5064643F21460C2F200000D461746FFF7D0FE044648B1A7
:2062A000A368284603B198472046FFF747FF04460028F5D1304629463A46BDE8F84002F0C4
:2062C000B1BB00BF38B502F08FFC054643F21460C2F20000FFF7B2FE044640B1636803B121
:2062E00098472046FFF72AFF04460028F6D125B12846BDE8384002F08FBB38BD10B501F0B9
:206300006DFA01F0C5F902F093FB02F06BFCBDE8104002204FF400714FF4F0524FF4E123F7
:2063200002F044BC10B5044602F06EFC68B101F0B7F84AF25C73C0F2000346F28920C0F2F4
:20634000000021469B689847012010BD08B583695B6803B1984708BD38B504461B200D467D
:2063600001F02AFA44F23001C2F2000101F06EF828B1A3691B6813B120462946984738BDC0
:2063800070B514464AF2F4620646C0F200020D46FFF724FF4AF2FC61B4612846C0F20001B1
:2063A000BDE87040FFF764BF70B5064600F0C8F84FF400420546C4F20C0213684FF40044B8
:2063C000C4F20C04002BF8D0B0470123236005B170BDBDE8704000F0B7B800BF10B442F218
:2063E000080342F20C04C4F20903C4F209041A68206819688A42FAD1120442EA10405DF8C0
:20640000044B704742F2D413C4F20803186800F00E00704741F21832C5F2000213684BF673
:206420009A11C3F30F338B4213D04BF6BE12934208BF01200BD04BF64132934208BF0320ED
:2064400005D04BF6203083420CBF0220FF2040B270471068000F0B280CBF0420002040B2A1
:20646000704700BF10B541F29423C5F200031C68FFF7D0FF0128C4F3033409D1082C08BF08
:20648000002003D00F2C0CBF0120FF2040B210BDFF20FBE738B541F218324FF48553C5F2C7
:2064A0000003C5F2000212681C68150FE4B27F2C88BF0024FFF7AEFF04280FD8DFE800F0E5
:2064C0001108030304004DB90A34E0B240B238BDF5B1022D04BF1434E0B2F7D0FF2040B292
:2064E00038BD013D072DF9D801A353F825F000BF11650000DD6400001F650000DD64000025
:20650000DD640000DD64000023650000176500000A2040B238BD04F11600C0B2D6E7142076
:20652000D4E71520D2E700BF08B5FFF773FF012800D0FEE7FFF7AEFF1328FADD08BD00BFB7
:20654000EFF3108072B67047EFF3108062B6704770B50D46C10782B0044626D4A20713D463
:2065600063070FD54FF4D273C1F200031B68ADB24FF4204000955C68C4F20C0000210C22A0
:206580000223A04702B070BD4FF4D273C1F200031B68AAB200924FF420405E68C4F20C0036
:2065A000002102220123B047DAE74FF4D273C1F200031B68AAB2009200214FF420405E6881
:2065C000C4F20C000B460122B047C7E710B54FF4D273C1F200031B6804284FF42040DC6847
:2065E0004FF0340107BF4FF0C0421D234FF080521C23C4F20C00A04710BD00BF01280FD053
:2066000030B14FF4C073C4F2043301221A6070470023C4F209031A6822F005021A60704731
:206620000023C4F209031A6842F005021A60704770B4038843F6060293421ED001329342CE
:2066400017D040F60202934201D070BC7047C67B4369002BF9D003F1140544F238041968AF
:206660001A4688B2A04203F1040309D0AB42F6D1EBE790F82460C369EBE7C3690226E8E717
:20668000C1F303400028E0D0B31E1C2B10D8DFE803F00F0F0F41390F0F0F310F290F0F21F5
:2066A0000F0F0F0F0F0F0F0F0F0F0F0F0F0F49004FF49C53C5F200031B68C3F383430F2B9A
:2066C00038D0834282BF21F4702141EA0343136070BC704741F20413C5F200031B68C3F302
:2066E0008343ECE74FF48853C5F200031B68C3F38343E4E741F2FC03C5F200031B68C3F33A
:206700008343DCE741F2F803C5F200031B68C3F38343D4E74FF49953C5F200031B68C3F32C
:206720000323CCE741F20813C5F200031B68C3F38343C4E7053E192E08D8012303FA06F647
:2067400003F58463C0F2002333402BB921F4702141F48021116078E721F4702343F4E02300
:20676000136072E728B946F20223C4F20803187070474FF4C44246F20223C4F20802002089
:20678000C4F20803202110701970704738B541F21003C4F2090301214FF425720546196082
:2067A000C4F222321368002BFCD04FF4C042C4F20C02C02143F6B0731160C5F200031B6869
:2067C0009B070DD443F6AC73C5F200031A6846F25623C2F3034242F0F002C4F208031A7088
:2067E0004FF48252C4F20902002143F6B4731160C5F200031C68204600F0E8F82846214686
:2068000000F0AEFA41F21433C5F200031A6840F21D2392B29A4219D841F2BC23C5F20003DB
:2068200019681A68C1F30363C2F3034219462BBB931F012B83BF023202F00F021201702200
:2068400046F202030A43C4F208031A70204600F021F94FF4D073C1F200031B680220DB68CF
:2068600098474FF4C04240F29443C4F20C024020C4F2602301211060196038BD013BD9B2C7
:20688000D6E700BF38B541F21C33C5F200031C68FFF74AFE40F2844046F25C0142F20823A7
:2068A0000122C4F20433C4F260200025C4F20C0105600A601A6000F069FB4FF4C073C4F2E1
:2068C00028331B68B4F1FF3F08BF2C463BB14FF48073C4F2203320461B68FFF757FF42F22A
:2068E0008C12C4F20802002142F248031160C4F203031968042221F07F6121F4702141F0FE
:206900009C7141F480311960C4F209021368C3F30133012B06D00C22C4F268221368002BCF
