:020000040000FA
:2000000000500020ED000000E5000000C9000000E9000000E9000000E9000000000000001A
:20002000000000000000000000000000E9000000E900000000000000E9000000E90000001C
:2000400009370000E9000000853D0000E9000000E52D000055330000E9000000E900000060
:20006000E9000000B13D0000E9000000E9000000E9000000E9000000E9000000E900000033
:20008000E9000000E9000000E9000000E9000000E9000000E9000000E9000000E900000018
:2000A000E9000000E9000000E9000000E9000000E9000000E9000000E9000000E9000000F8
:2000C000E90000004D4000004EF62853CEF200031A68B2F5806F03D01B689B0500D4FEE761
:2000E000704700BFFEE700BFFEE700BF10B505F02DFD40F2000140F22C23C2F20001C2F241
:20010000000399420ED2CC431C4424F0030449F27C600434C0F200000023C258CA50043308
:20012000A342FAD1064807494FF000028842B8BF40F8042BFADB00F011FDFFF7C5FF10BD2E
:20014000300200207439002008B548F6902242F27C73C2F20003C0F20002D26A1979012056
:20016000904708BD38B504460D46022000F0BCFE2046E9B2BDE8384001F06ABE02F0E0BEC6
:2001800070B5064642F2E8600D46C2F200006421012201F027FD80B1002415B90FE0AC42AE
:2001A0000DD242F2E86006EBC401C2F2000001F0D1FC0134E4B20028F1D1002070BD42F286
:2001C000E860C2F2000001F0EDFC0028F5D042F2E860C2F2000001F0B9FC014642F2E860C3
:2001E000C2F2000001F034FE002070BD2DE9F04142F2F81242F2781643F6CC05C2F20002D4
:2002000002234FF0010EC2F200054FF00808C2F200064FF0700C42F254140027C2F2000473
:20022000194682F80180566082F800E082F809E0D560104682F808C0626023702F70FFF73A
:200240009FFF42F2182040F27D123B46C2F20000C0F200028021BDE8F04104F08FBC00BF75
:20026000034619784068FFF78BBF00BFF8B506460D46174600F006FF044628B13046394647
:200280002A4600F03DFF044600F032FF2046F8BD70B505460E46144600F0F4FE70B12846AD
:2002A000214600F0B3FF48B121463246284600F053FF044600F01CFF204670BD00F018FFBE
:2002C000002070BD70B5048882B0054684B140F213339C4207D188293BD040F213330120EB
:2002E0002B8002B070BD00230380032002B070BD42F2781042F27C76C2F200000821C2F259
:20030000000602F05FFE082231462046FFF7AEFF01F0E4F8326841F21703CCF613439A4236
:2003200007D0204631461124082233603471FFF7AFFF48F69023C0F200033179DB6A012018
:20034000984742F26C70C2F20000802104F024FDC3E742F26C73C2F200039A42BDD1012045
:20036000019200F0C1FD019A4021104604F014FDB3E700BF70B543F6CE03C2F200031E7810
:200380000546DEB140F2BC24013EC2F20004F6B204F58B634FF48B6202FB063603E004F5A6
:2003A0008B64B44208D020462946082208F0A8F90028F4D1204670BD002070BD304670BD78
:2003C00070B50646FFF7D6FF0446B8B943F6CE03C2F200031A78062A12D840F2BC21C2F2F6
:2003E00000014FF48B6505FB021530687168561C2A4603C21E702C72284670BD002070BD86
:2004000070BD00BF70B50D46FFF7B4FFC0B1017AA9B103691B78AB4213D00139C9B20131D3
:200420000246012304E0D46B2C322478AC4209D08B421E4603F10103F5D1002070BD0846E2
:2004400070BD00262C2303FB06000C3070BD00BF2DE9F0410E46044690B3FFF7D3FF054693
:2004600058BB237A182B0ED9E460304601F046FB94F83430206165F3000384F8343004F115
:200480000C00BDE8F0812C2707FB03483046C8F80C4001F033FBC8F81000217A07FB01F794
:2004A000E31993F83420013165F3000283F83420217203F10C00BDE8F0810020BDE8F08127
:2004C000BDE8F0812DE9F04F85B004AB03E90700DDF80480029EDDF80CA0B8F1000F0DD0CB
:2004E00042F2A844C2F200040025204604F06AFB38B901350F2D04F12004F6D105B0BDE8A3
:20050000F08F204651464246334616B342F2502C4FEA850BC2F2000C0BEB050906F120033E
:200520000CEBC9090093F36830687168B2684F460FC7009B10369E42B946F4D13068716818
:200540000BEB0503A9E803000CEBC30342462046514605B0BDE8F04F04F010BB2DE9F00762
:2005600042F2801242F2F01440F26123C2F20004C2F20002C0F2000382E8180042F2781660
:2005800042F24C7343F6CD05C2F20003C2F2000501274FF0000C4FF00809C2F200064FF031
:2005A0007808C2F808C04FF0020A83F801905E6083F80880DD601F705F7284F800A06360A5
:2005C00085F800C007CABDE8F007FFF77BBF00BF2DE9F00342F27C73C2F200031B7943F6D2
:2005E000CA055A1ED2B2172AC2F2000588BFFF232B7042F2701442F2641240F26123C2F266
:200600000004C2F20002C0F2000382E8180042F2781642F25C73C2F20003012700214FF0E5
:200620000808C2F200064FF0770C91604FF00209DD6083F801805E6083F808C01F705F7259
:2006400084F80090636007CABDE8F003FFF73ABF2DE9F84302780121531E994042F2904335
:20066000C0F2FD0342F27C74C2F200040B4025792271002B4AD143F6CF06C2F20006F92346
:200680002571337042F25C1542F2382440F26123C2F20005C2F20004C0F2000384E828007C
:2006A000002242F2082342F27817C2F200034FF0010EA2604FF0760C4FF00808C2F2000724
:2006C000DE6083F801805F6083F808C083F800E083F809E04FF0020994E807006B6085F80A
:2006E0000090FFF7EFFE33780BB1BDE8F88340F24912C0F2000204212361E26061610C34D2
:2007000094E80700BDE8F843FFF7DCBE002021460822FFF7BDFD43F6CF0620B1C2F20006EC
:2007200000233370AEE7C2F20006F7232146082225713370FFF7ACFDA4E700BF2DE9F04F82
:20074000832995B004466ED02388A3B140F2363083420AD143F67213C2F200031B788B4214
:200760001CD0012015B0BDE8F08F00230320238015B0BDE8F08F41F60160C0F2000002F075
:20078000A1FD01F075FB40F26510C0F20000014601F0B6FB40F236332380E2E7002AE0D037
:2007A00043F6CB05C2F200052B78B2F8806042F28C109F19642F3DDCC2F2000011461844AF
:2007C000324607F0D1FFF9B229700D29E2D942F2886B43F6D006C2F2000BC2F200060DF1F8
:2007E000330742F28C105A4633460097C2F2000001F00AFA0128CDD19DF83330012BC9D111
:200800009BF801209BF800308DF83D208DF83C30BDF83C2040F6010336789A42079612D03A
:2008200000232B70B6E70391029201F09BFB029A039989E71146C2F20000324607F094FFF9
:20084000F1B22970C1E70BF1020842F278104146C2F20000082207F053FF002840F02B8140
:200860004FF0020A9BF8006042F28863012EC2F20003D5D1D8F80410D8F800000DAA03C25F
:20088000079942F2241793F80190C2F200070A293E70C7F8048087F80190C1D943F67013E8
:2008A000C2F20003049340F25D53C0F2000340F2516140F2ED12089340F2D153C0F2000398
:2008C000C0F20001C0F2000209930A910B924FF00A09059406950BEB09035C781BF80980E5
:2008E000254634B142F2886109F10205C2F200010D44404601F0DAF8002800F0D380437815
:20090000A34240F0D580049A1378002B40F0D080BAF1030F00F0B380A8F17003392B1ED853
:20092000DFE803F09C1D1D1D1D1D8E87781D1D1D1D1D1D1D1D1D1D1D1D1D1D1D1D1D1D1D1C
:200940001D1D1D1D1D1D1D1D1D1D1D1D1D1D1D1D1D1D1D1D1D1D1D1D1D6E1D1D1D1D07EBEE
:20096000C60307F8368001365C705D60B6B20234A144079D5FFA89F94D45ACD8012E059C51
:20098000069D7FF64DAF40F25820C2F2000064210122F6B201F026F900283FF441AF4FF0FB
:2009A000000806E001F0D6F808F1010800283FF437AF5FFA88F340F25820B34207EBC80119
:2009C000C2F20000EED340F25820C2F2000001F0E9F800283FF424AF0220464906F082FB20
:2009E000002878D040F25820C2F2000001F0AEF8014640F25820C2F2000001F0DDFA0FE72F
:200A0000A52207EBC60307F8362001365C705D60B6B2ACE7BAF1010FA9D1089D0022202305
:200A200013931195129214AB13E90700FFF74AFD9DE7BAF1020F9AD100222023099DEFE73B
:200A4000BAF1020F93D10A99102313931191129514AB13E90700FFF735FD88E7BAF1020F9C
:200A600085D10B9A402312951393119214AB049D13E9070001232B70FFF724FD77E70DA8DC
:200A8000FFF778FC034608B30DA841460393FFF7B9FC039B00287FF43FAF18464146FFF769
:200AA000D7FC39E7404601F029F800287FF427AF059C069DB4E60320414606F013FB002886
:200AC0000CBF4FF0030A4FF0010ACBE60DA8FFF777FC0346D8E740F25820C2F2000001F08F
:200AE00035F840F258210246C2F20001014801F049FA95E690260020F0B5002783B0054609
:200B00003E463C46284600F0D9F90194019B9E4206DD00BF019B01330193019B9E42F8DC38
:200B2000284600F0D5F90194019BC6F5C876B34206DA00BF019B01330193019BB342F8DB03
:200B40000137B7F5487F06D0B7F5C87FCCBFC7F548763E46D6E703B0F0BD00BF2DE9F04175
:200B60004FF4EC74C1F2000423684FF4804084B05B68C4F2030001219847236801214FF4EC
:200B800080400A461B68C4F20300984704F03CFE02F0D4FD02F07AFD01F062FA02F0A0FDF4
:200BA00000F082F944F20C000821C4F209010123C4F2090042F22C02C4F2090203600B60CB
:200BC00018461368FFF798FF04F022FE02F078F801F0DCFF04F0B4FA02F07AF904F0C4F9B5
:200BE00041F2342003F026F902F042FB04F042FB48F67C10C0F2000002F0AEF904F066FD90
:200C000048F6781548F6741410F0040FC0F20005C0F200040CBFA846A04604F05FFD0128AB
:200C200014BF2F46274604F051FD10F0020F0CBF2E46264604F04AFD10F0080F08BF2C4676
:200C400048F694103A46334600944146C0F2000003F048FA40F2DC000021C2F2000004F0E0
:200C60003DFA03F04FFF03F0CBFF0220FFF744FF48F6C810C0F2000003F034FA49F2B053BD
:200C8000C0F20003186802F067F948F6D010C0F2000003F027FA49F2D853C0F2000318684E
:200CA00002F05AF948F6D810C0F2000049F2FC5403F018FAC0F2000448F6E0102168C0F268
:200CC000000003F00FFAE469A04738B1A047014648F6E410C0F2000003F004FA0A2002F0DC
:200CE00033F905F021FD02A8082102F06BF948F690249DF80F20BDF80E109DF80E6043F6C7
:200D00003013C2F20003C0F20004198042EA0626E56A4AF6CD310220A84731460320A8470B
:200D200000210120A847636B082202A90B2098470220FFF7E1FE40F220000021C2F20000B7
:200D400004F0CCF948F64810C0F2000003F07CFE02F0CEF80120FFF7CFFE04F023F904462F
:200D600002F0E0F814F0FF0FF7D102F02DFBF4E72DE9F04105888046772D42D07E2D36D0D9
:200D800025B1002303800320BDE8F08104F0E4F840F25C06C2F2000643F6711342F2847497
:200DA0003268C2F20003C2F2000418702560002A62D02B4643F62C151F46C2F20005EF5475
:200DC00093688020002198472368013356F823202360002AF3D1DBB243F6D101C2F200016A
:200DE0000B707723A8F800300120BDE8F08143F67113C2F200031B788B4223D00120BDE84A
:200E0000F08143F6D107C2F2000742F2847442F288763A78C2F20004C2F20006002393421B
:200E2000336023600ADA43F62C15C2F20005E956002923DB013393422360F4DB3368002BFE
:200E4000ECD1CEE742F2847443F62C1543F6D10742F28876C2F20004C2F20005C2F200070B
:200E6000C2F2000623683268E85C511C00F07F003A78E8543160DDE71346ADE743F6711188
:200E800040F25C02C2F20001C2F20002097852F82320002004F0F0F80028E3D17E23A8F830
:200EA00000300120BDE8F08108B501F091F843F6D203C2F2000300221A7008BD43F6D20350
:200EC000C2F200031A78024310461A7001F09CB843F6D203C2F200031A7822EA00021046A4
:200EE0001A7001F091B800BF43F6D203C2F200031A78424010461A7001F086B810B542F28E
:200F0000A00382B0062202A8C4F202034FF4801400F8042D01211C6000F0E6F942F290033B
:200F2000C4F202031C6002B010BD00BF30B548F61023C0F20003186842F2A00383B0002483
:200F4000C4F202034FF4801501908DF800408DF8014001A81D60042100F0C6F938B942F2C3
:200F60009003C4F202031D60FF2003B030BD6846022100F0D9F942F29003C4F202031D6055
:200F800010B9FF2003B030BD9DF80030C22B18BFEF2B18BF2046E8D19DF80130A3F11400C2
:200FA000113BC0B2DBB2012888BF012B94BF0020012080F00100D8E730B542F2A00383B097
:200FC000C4F20203052202AC4FF4801504F8042D1D6000F0CFF92046012100F085F920B978
:200FE00013E09DF80730DB0716D50DF10700012100F09AF90028F4D142F29003C4F202034C
:201000004FF480121A6003B030BD42F29003C4F202031D6003B030BD42F29003C4F20203C0
:201020004FF4801201201A6003B030BD10B582B0FFF7C2FF08B902B010BD42F2A003C4F225
:2010400002034FF48014B92202A800F8012D01211C6000F049F942F29003C4F202031C603B
:201060000A24FFF763FF631E0028E4D013F0FF04F7D142F29003C4F202034FF480121A60EE
:2010800002B010BD10B54FF4106082B00A21C0F23D0000F083F94FF4DA73C1F200031B68D8
:2010A0001420DB6B984742F2900142F2A003C4F202014FF48012AB2402A8C4F202030A600F
:2010C00000F8014D01211A6000F00EF908B1FFF773FF42F29003C4F202034FF480121A6045
:2010E000FFF724FF421E5042504102B010BD00BF08B5FFF79BFFBDE8084000F0B5B900BFBF
:20110000F0B583B004460E461746FFF755FF08B903B0F0BD42F2A0030320210CC4F20203AF
:20112000220A4FF480158DF804008DF805108DF807408DF8062001A81D60042100F0D4F80A
:2011400018B13846314600F0EFF842F29003C4F202031D6003B0F0BD2DE9F04F0D4683B0C0
:201160000446164600294BD042F2A00842F29009C4F20208C4F202094FF0020A4FF4801736
:201180002AE0FFF7BBFEE3B2C3F580734FEA144C220A0421AB4234BF9B46AB4600B38DF882
:2011A00006208DF807408DF804A08DF805C00DEB0100C8F8007000F097F8024659463046C5
:2011C0005C44CBEB050582B100F08EF8024660B1C9F800705E449DB1FFF7EEFE0028D0D1E1
:2011E0000022104603B0BDE8F08F42F29003C4F202034FF480111046196003B0BDE8F08FA4
:201200000122104603B0BDE8F08F00BF2DE9F04701F6FE71040B01EB000A2403C4EB0A0A1D
:2012200082B020235FEA1A3A8DF804302FD0002542F2A00742F29008A946C4F20207C4F2B4
:2012400002084FF4801619E0FFF758FE220C230A042104F58054B0B18DF806308DF8052053
:201260008DF807900DEB01003E6000F03DF84FF4801380B15545C8F8006008D00135FFF7D1
:201280009BFE0028E0D1002002B0BDE8F087012002B0BDE8F08742F29002C4F2020213600C
:2012A00002B0BDE8F08700BF08B5FFF7EBFEFFF7BDFEBDE8084000F0D7B800BF08B54FF429
:2012C000DC73C1F200031B6802205B6B9847012801BF42F27803C4F20803186800F00100F5
:2012E00018BF002008BD00BFF0B583B006460C46FFF7E4FF074698B194B14FF4E275C1F2FC
:2013000000052B684FF080405B6816F8011B98472B684FF08040DB6801A99847013CF0D10E
:20132000384603B0F0BD00BFF0B583B006460C46FFF7C4FF0746D0B1CCB14FF4E275C1F249
:20134000000507E02B68DB689847019B013C06F8013B0CD02B6800219B684FF08040984768
:20136000034601A94FF08040002BEBD11F46384603B0F0BD10B582B0FFF7A0FF58B14FF479
:20138000E274C1F2000423684FF080401B6901A998470028F7D102B010BD00BFF0B54FF493
:2013A000DC77C1F200073B68064685B05B6902200D4698473B6802205B6B98474FF4DC73E8
:2013C00001280446C1F20003F4D11B684FF48070DB69984742F22803C6F2080342F22802C6
:2013E0001C60C4F2080213689B07FCD51423C4F200031868202220F00F00C4F20002032116
:201400004FF4E274186008271160C1F2000423688DE8C00000224FF4D8411E68C0F2DC21F1
:2014200013464FF08040B0474FF4DA73C1F200031B6800955D6C09224FF0FF3339464FF0DC
:201440008040A8470423C4F200031A6842F002021A6023684FF080401B6903A9984700280A
:20146000F7D105B0F0BD00BF10B54FF4DC73C1F200031B684FF480701B6A984742F22803FD
:20148000C6F20803012142F228021960C4F2080213689907FCD54FF4DA74C1F20004236811
:2014A00008209B6B984723684FF4005108209B699847236809209B6B984723684FF400513D
:2014C00009209B69984723680A209B6B984723680A209B694FF40051984710BDF0B443F690
:2014E0002B12C2F20002167843F6E003C2F20003002E00F0D482197801291AD0751EEDB24D
:2015000005EB45051D44184603E010F8034F012C0DD0A842F9D106EB46010136F6B201259A
:20152000581808245D54167044708EB1197806291AD043F6E004C2F200041678002003E0D5
:2015400014F8035F062D0DD00130C0B2B042F7D306EB460106205854194401200136487037
:2015600019781670AF291AD043F6E004C2F200041678002003E014F8035FAF2D0DD00130D4
:20158000C0B2B042F7D306EB4601AF205854013658180224197816704470A0291AD043F6E6
:2015A000E004C2F200041678002003E014F8035FA02D0DD00130C0B2B042F7D306EB46014F
:2015C000A020585401365818302419781670447076291BD043F6E004C2F2000416780020CC
:2015E00003E014F8035F762D0ED00130C0B2B042F7D306EB460076211954012418440136C7
:20160000197816704470847077291CD043F6E004C2F200041678002003E014F8035F772D07
:201620000FD00130C0B2B042F7D306EB460077211954013618440025012419781670457087
:20164000847078291CD043F6E004C2F200041678002003E014F8035F782D0FD00130C0B20E
:20166000B042F7D306EB4600782119540136184400250124197816704570847070291CD04F
:2016800043F6E004C2F200041678002003E014F8035F702D0FD00130C0B2B042F7D306EBAA
:2016A0004600702119540136184400250124197816704570847080291CD043F6E004C2F2E3
:2016C00000041678002003E014F8035F802D0FD00130C0B2B042F7D306EB460080211954D7
:2016E0000136184400250124197816704570847084291CD043F6E004C2F200041678002031
:2017000003E014F8035F842D0FD00130C0B2B042F7D306EB46008421195401361844002588
:201720000124197816704570847085291CD043F6E004C2F200041678002003E014F8035F56
:20174000852D0FD00130C0B2B042F7D306EB46008521195401361844082501241978167053
:201760004570847086291BD043F6E004C2F200041678002003E014F8035F862D0ED0013090
:20178000C0B2B042F7D306EB460086211954012418440136197816704470847087291CD0BD
:2017A00043F6E004C2F200041678002003E014F8035F872D0FD00130C0B2B042F7D306EB72
:2017C0004600872119540136184400250124197816704570847088291CD043F6E004C2F2A3
:2017E00000041678002003E014F8035F882D0FD00130C0B2B042F7D306EB460088211954A6
:201800000136184410250124197816704570847089291CD043F6E004C2F2000416780020FA
:2018200003E014F8035F892D0FD00130C0B2B042F7D306EB4600892119540136184400255D
:2018400010241978167045708470A1291BD043F6E004C2F200041678002003E014F8035F0B
:20186000A12D0ED00130C0B2B042F7D306EB4600A121195401241844013619781670447074
:201880008470A2291CD043F6E004C2F200041678002003E014F8035FA22D0FD00130C0B278
:2018A000B042F7D306EB4600A221195401361844002501241978167045708470A3291CD0B0
:2018C00043F6E004C2F200041678002003E014F8035FA32D0FD00130C0B2B042F7D306EB35
:2018E0004600A321195401361844002501241978167045708470A4291CD043F6E004C2F24A
:2019000000041678002003E014F8035FA42D0FD00130C0B2B042F7D306EB4600A42119544C
:2019200001361844022507241978167045708470A5291CD043F6E004C2F2000416780020C5
:2019400003E014F8035FA52D0FD00130C0B28642F7D806EB4600A521195401361844012528
:20196000022419781670457084708A291CD043F6E004C2F200041678002003E014F8035F0E
:201980008A2D0FD00130C0B2B042F7D306EB46008A2119540136184400252B2419781670E5
:2019A00045708470A6291CD043F6E004C2F200041678002003E014F8035FA62D0FD001300C
:2019C000C0B2B042F7D306EB4600A621195401361844022506241978167045708470A829F9
:2019E0001CD043F6E004C2F200041678002003E014F8035FA82D0FD00130C0B2B042F7D314
:201A000006EB4600A821195401361844002505241978167045708470A72924D043F6E004D7
:201A2000C2F200041678002003E014F8035FA72D17D00130C0B2B042F7D306EB4604751C09
:201A40001819EDB24FF0A70C0427012643F6E00103F804C01570C2F20001477086708DB174
:201A60000978A92919D043F6E000C2F200001578002103E010F8034FA92C0ED00131C9B212
:201A8000A942F7D305EB450019180135A927002601241F5415704E708C70F0BC70470121A3
:201AA000082058701970117040E500BF70B443F62B13C2F200031D78F5B143F6E006C2F2E8
:201AC00000063378834211D0013DEDB201353246012303E012F8031F814208D0AB421C4607
:201AE00003F10103F6D1002070BC7047002404EB4404A01970BC70472846F5E770B443F686
:201B00002B13C2F200031D78F5B143F6E006C2F200063378834211D0013DEDB201353246E0
:201B2000012303E012F8031F814208D0AB421C4603F10103F6D1002070BC7047002404EBB3
:201B40004404A01970BC70472846F5E740780230C0B2704770B543784A780D46991C114445
:201B60006229044602DC0178402901D0002070BD591C465C08447D2EF8D103321344E65415
:201B80002B7863546B784370696819B102306A7806F0EAFD6B78627802331344637001208C
:201BA00070BD00BFF8B545780446602D02DC0378402B01D00020F8BD6E1C835D87197D2BDC
:201BC000F8D1AB1C294600F8013F002203F068FBA15D0346020A03356155A3557A70012012
:201BE000F8BD00BF042910B481BF022140247D23827083BF04704170C370002088BF012005
:201C00005DF8044B704700BF2DE9F04F8B4683B0074691469A46E1B1C31C002400F10108BE
:201C2000019301E0A34514D93D5D661C402D18BFB4B2F7D13B195D7802352C445C4507EB69
:201C4000050626DC16F8013C7D2B06D00124A345EAD8FF2003B0BDE8F08F00224046291FF9
:201C600003F01EFB16F8022C16F8033C03EB02239842EBD10C9ABB78AC1F13704846224609
:201C8000019906F071FDAB458AF8004005D02C46C8E7002003B0BDE8F08F0120DAE700BF06
:201CA0002DE9F047048807466D2C1BD0872C06D0002C49D0002303800320BDE8F087852919
:201CC0004FD142F2907442F28C7642F29475C2F20004C2F20006C2F20005002323603360D5
:201CE000A5F8803042F2907642F6A00542F28C78C2F20006C2F20005C2F200084FF0000AD0
:201D00004FF001090BE033687E2BE854D9BF01332360C4F800A0C8F800907D2824D042F643
:201D20009800C2F2000003F07BFB42F2907442F6A001431CC2F20004C2F20001E3D16D23CD
:201D40003B800120BDE8F08703F006F943F6721242F29073C2F20002C2F2000310701C603C
:201D6000C0E70120BDE8F08742F28C76C2F2000633685BBBD4F8008042F29475C2F200059C
:201D800042F6A00128464246C2F2000106F0ECFCA5F8808043F67213C2F2000342F2947295
:201DA0001978C2F20002002003F066F942F60453C2F2000318688521002203F05DF900286B
:201DC0008BD187233B800120BDE8F087D4F8008042F29475C2F20005C8F1800941444A466C
:201DE000284606F0C1FC42F6A00105EB09004246C2F2000106F0B8FC8023A5F88030C9E769
:201E000010B543F6D304C2F20004237801464BB17D2812D040F23000C2F2000003F080F94E
:201E2000012010BD42F69800C2F2000003F0E0FA0028EFD101232370ECE742F69800C2F26D
:201E4000000003F0D5FA0028E4D000232370E1E770B50E4658B149B14D1EEDB20544441E35
:201E600014F8010F01F01AFAAC42F9D1304670BD08B542F6980042F61801C2F20000C2F2A0
:201E80000001802203F0ACFABDE8084040F23000C2F20000002103F021B900BF704700BFE0
:201EA000704700BF704700BF38B540F24003C2F200035C6804F0FAFC054604F00FFD0146DD
:201EC0002846A04738BD00BF38B540F24003C2F200031C6804F0EAFC054604F0FFFC014601
:201EE0002846A04738BD00BF08B51B2004F0C8FDBDE8084049F2CC51C0F2000104F00ABC76
:201F000038B548F62422054642F62010C2F20000C0F200020C46922103F08AFB42F63C1034
:201F200048F62C22C2F20000C0F20002812103F0A3FA40F240032DB1C2F200031D6054B1EF
:201F40005C6038BD41F69D62C2F20003C0F200021A60002CF4D141F6A162C0F200025A601C
:201F600038BD00BF08B542F62010C2F2000003F073FBBDE8084042F63C10C2F2000003F05B
:201F80008FBA00BF38B543F63013C2F200031D88038804469D420CD00846114604F0EEFC61
:201FA00042F620102146C2F2000003F057FB012038BD002038BD00BF08B504F0DFFC42F6AB
:201FC0003C10C2F2000003F06DFA012008BD00BF10B542F65413C2F200031A689AB90122EF
:201FE0004FF4DA741A60C1F2000423680720DB6B984723680620DB6B984742F2A003C4F2E5
:202000000203C0221A6010BD43F6D40342F2A002C2F20003C4F20202C02118701160C20798
:2020200041BF42F29003C4F2020380221A60830741BF42F29003C4F2020340221A60704763
:2020400010B54FF4DC74C1F20004236804205B699847236804205B6B98470128F9D110BD0B
:20206000F0B597B003F0D0FB0746FFF7E9FF4FF4DC73C1F200031B684FF4A060DB6998475A
:2020800042F22803C6F20803012142F228021960C4F2080213689907FCD5FFF705F940F253
:2020A0004800C2F2000001F0E1FA48F63421542201A8C0F2000106F057FB019C621C1EBFB3
:2020C0004FF4DA7501AEC1F200050DD02B6820469B6B98472B6820469B694FF400519847DC
:2020E00056F8044F631CF1D14FF4DA74C1F2000423684FF0FF30DB6B984723684FF0FF309F
:202100009B694FF4005198470FB117B0F0BD17B0BDE8F04003F07CBB01207047012070479E
:2021200008B501F0B5FB48B140F23813C2F200035888022814BF0220012008BD022008BD48
:2021400010B582B001F012FE044601F0A1FB08B902B010BD0120C0F2014001A901F0A0FB26
:202160000128F5D1638803F44063002BF0D1638803F44063002BF5D0EAE700BF30B583B0E2
:2021800001F086FB40F23814C2F20004A8B900256580A37F40F238105BB2C3F5FF6307332F
:2021A0009BB2C2F2000001A9238301F079FB012818BF284608D003B030BD6388022B08BFA4
:2021C0000120E4D103B030BD00F078FD4FF6C075CFF6FF752D1A03E000F070FDC54203D50B
:2021E00063889BB2022BF7D1608880B2831E58425841E0E708B5B32994BF0A46B4220146A4
:20220000024806F0B1FA002008BD00BF7229002070B542F66415C2F200052C68002603E048
:2022200024682B68A3420DD02379032BF8D140F29000C2F2000002F073FF24682B680136FA
:20224000A342F1D1304670BDF8B542F66C14C2F2000425682B79032B18BF002601D0304674
:20226000F8BD2E89023E002E0CDD8E4205F10A070EDDB957042089B204F0E6FB03207F21D2
:2022800004F0E2FB2B68002223602A713046F8BD3946324606F068FAEBE700BF10B582B098
:2022A00001F0F6FAF8B140F23814C2F2000463880120022B15D101A9C0F2014001F0F0FAC7
:2022C00002E06388022B03D101F0E2FA0028F8D16088A0F55050043880B201288CBF002053
:2022E000012002B010BD012002B010BD10B540F2780340F28014C2F20004C2F200031A6875
:202300000521237E84F82410928882B003F0F80343F00803204601A96283237601F0C0FA95
:20232000012818BF002001D002B010BD204601F00DFB421E5042504102B010BD00B540F2E5
:20234000681083B0C2F2000001A901F0A9FA012818BF002002D003B05DF804FB40F268103D
:20236000C2F2000001F0F2FA411E4842484103B05DF804FB08B5FFF7B9FF012801D00020CE
:2023800008BDFFF7DBFF0128F9D1FFF7F7FEC0B208BD00BF08B501F041FD01280BD0FFF7EE
:2023A0007DFF01F0D5FB01F029FA40F23813C2F2000300225A80012008BD00BF2DE9F84F9A
:2023C00001F02CFD01282AD001F0E6F901F060FAF0B901F05DFA044620B3002001F064FC26
:2023E0008B4A0027A2F18C0E734602F50C760225842459791A6001F0FC0110468C3265F30D
:202400008301B2421F71DC80597115D00346F0E740F23813C2F200035B88022BD9D101207A
:20242000BDE8F88F01F0ACFA0128054610D001F08FFB0020BDE8F88FCEF8A4E101F0C4F9C5
:20244000FFF754FF012800F0D9800020BDE8F88F01F000FC40F21C4049F27C11C0F200017F
:202460004FF42C72C2F2001006F07EF94FF4647B40F2793840F2753CC2F2001BC2F20018C7
:20248000C2F2001C40F2773E40F2AE3740F2AB3640F2813040F24D314FF4707340F2CD5251
:2024A0004FF0020A8BF80040C2F2001E88F80050C2F200178CF800A0C2F20016C2F20010EF
:2024C000C2F20011C2F20013C2F200124FF003094FF0040B05244FF00608072541F21C0C14
:2024E0008EF80090C4F2040C87F800B0347080F800800D701A60DCF8003041F21C01C4F234
:202500000401002BF7D048F6C829C0F2000900204FF440434CF2A06A4A460860C2F20013ED
:20252000C2F2001A00E00B4609EB030101F15F41A1F54041D1F80080D2F804C0D2F808E072
:20254000D768166955699469D06903F120015145C3F8008002F12002C3F804C0C3F808E0AC
:20256000DF601E615D619C61D861DCD14CF2806343F660104FF4815E46F6137741F21166A0
:2025800046F6543541F21C044FF4805240F20111C2F20013C0F20E41C1F6102E4FF0000CC2
:2025A000C4F20402C6F25330C4F20404C6F62367C1F21266C7F200051862C3F824E00120DD
:2025C0009F62DE621D63C4F800C0116003F02EFA40F28010C2F2000003F08EF921460A6869
:2025E00041F21C03C4F20403002AF8D000221A6001F038FA01283FF4F0AE18E7FFF79EFE90
:2026000001287FF422AFBDE8F84FFFF7B7BD00BFB42A002070B582B0072800F29480DFE8E7
:2026200000F08C04929227922A69202900F2888040F26813C2F20003188ADC894FF47A72CD
:2026400002FB04F402FB00F2A4F55F2402F57F42A4F66C64FF3248F21F5004EB1242C5F284
:20266000EB10A0FB0240CAB2C0F38710824275D1002002B070BD49F22C45C0F20005AE881A
:202680004FF6FF70864208BFFF2209D02B46002208339C8801328442D2B2F9D1013AD2B205
:2026A00055F8323049F22C449942C0F2000447DB2368994244DC0191FFF742FD4FF6FF700C
:2026C000864201997ED000230834A28801338242DBB2F9D1013BDAB205EBC2040023E05899
:2026E000083B814266DD12F1FF32F8D2FFF742FE0020BEE740F22A23C2F20003197001F0E8
:20270000C7F810B340F23813C2F200035B88022B08BF002519D1FFF7C1FD012814BF032446
:202720000024FFF727FE012818BF03242046002D9FD0FFF72FFE20469BE7012935D071B3D3
:20274000022002B070BD012093E7FFF737FE012808BF0546DFD0032002B070BDC82000FBE3
:2027600001F044F6D35200F55F20C1F2620200F66C60A2FB00414FF618448909CFF6FF7473
:2027800004FB01000004A2FB004040F2801289B28009C2F200021882D9811184AFE7019169
:2027A000FFF7F8FD0199084663E7FFF707FE0128D1D15DE740F2780305EBC202C2F20003DA
:2027C0001A6093E7FF2287E72DE9F0430C4683B069B1102800F2A880DFE800F01523A6A601
:2027E000A6A6949D43A6A6A6A673767A0D00022003B0BDE8F08349F22C43C0F200031B6842
:2028000000202360F4E701F043F838B140F23813C2F200035888851E68426841206000207B
:20282000E6E740F26813C2F200031A8AD9894FF47A7303FB01F103FB02F3A1F55F2103F540
:202840007F43A1F66C61FF3348F21F5201EB1343C5F2EB12A2FB0312C2F3871222600020DD
:20286000C6E701F015F8002860D040F23813C2F200035B88022B08BF4FF0000956D10926AC
:2028800080254FF0000840F2034701A86946CDF80480ADF8047001F003F8731E30B19DF823
:2028A0000250680602D113F0FF06EED1B9F1000F42D168B2206010F1800F0CBF03200020BA
:2028C00096E70020206093E72023236000208FE749F22C45C0F20005AB884FF6FF708342F6
:2028E00008BFFF2209D02B4600220833998801328142D2B2F9D1013AD2B255F83230002056
:20290000236075E740F27803C2F200031B6800201B6823606CE740F22A23C2F2000393F9B6
:2029200000300020236063E7012061E7FFF746FD012804D18146A2E7FFF72CFDB9E76FF06C
:202940007F032360032053E770B582B0044600F09FFF80B340F23813C2F200035B88022B6F
:2029600008BF002627D1221DA01C42F6701340F2A814C2F2000392B2C2F2000480B2110ACE
:202980002082E36159701A70FFF788FC0020014601F0CAF9204601A900F082FF0125C0B949
:2029A000002001F0D7F900236380FFF7E7FB284656B902B070BDFFF701FD012808BF0646CC
:2029C000D1D0012002B070BDFFF7E4FC284602B070BD00F0A7FA638803F4406333B900F041
:2029E000E9FC638803F44063002BF8D06588ADB2B5F5505518BF0125D2E700BF10B5B329C9
:202A000094BF0A46B4220C460146044805F0ACFE2046BDE81040FFF797BF00BF7229002098
:202A200030B583B001F0FAF9012825D000F030FF20B340F2A813C2F200035B88022B18BFFF
:202A4000002528D0802403E09DF80640630607D10120C0F2034001A900F022FF0128F3D0F9
:202A6000B5B940F22A23C2F2000393F9000064B2A042D4BF0020012003B030BDFFF79EFC2A
:202A8000012808BF0546DDD0FFF784FC0120F3E7FFF780FCE5E70120EEE700BF08B500F03D
:202AA000F7FE70B140F23813C2F200035B88022B06D1FFF7B5FF10F1FF3018BF012008BD4E
:202AC000002008BD40F26400F8B5C2F2000000F0CDFD02F003FE012802D000242046F8BD33
:202AE00042F62824C2F20004204600214FF40C7205F0B0FE42F6581642F66C1142F66413A5
:202B000040F2381040F2801540F26812C2F20003C2F2000040F2953EC2F20002C2F20001ED
:202B200041F6991C0027C2F20006C2F200050C6083E890008362C662A5F820E0A2F80EE076
:202B4000A2F810C0FFF73AFC01280446C5D148F68820C0F2000001F00FF940F29000394604
:202B6000C2F2000002F0BAFAB8E700BF10B54FF4DC74C1F20004236804205B6998472368B1
:202B800004205B6B98470128F9D110BDF8B540F23021C2F2000100220023C1E900234FF472
:202BA000DC73C1F200031B6804205B6B9847012801D0FFF7DBFF4FF4DC73C1F200031B682F
:202BC0000020DB69984742F22803C6F20803012142F228021960C4F2080213689B07FCD5E9
:202BE0000C23C4F2010319684FF4E47221F4807121F001011960C1F2000213680024C4F236
:202C000001044FF404511B682046C0F20041984704233C2108221F46C4F201013126C4F284
:202C2000010240F22125C4F22433012027600E6015601860F8BD00BF10B442F2080342F25E
:202C40000C04C4F20903C4F209041968226818688142FAD1C90140F2302001EB5262C2F226
:202C600000000023C0E900235DF8044B03C8704710B542F2080342F20C04C4F20903C4F27F
:202C800009041968226818688142FAD1C90140F2302001EB52620023C2F20000C0E900237F
:202CA00002F08AF800B910BDBDE8104002F06EB8704700BF0146012000F058B802F0F2BC8F
:202CC0002DE9F04102F0A0FD002642F204034FF48032C4F2090301240027C4F224364FF467
:202CE00080714FF4C2753760C1F200051C6019601A602B6880461B683846232198472B689B
:202D000020461B68242198472B6802201B68252198474FF40053C4F20903196842F2080232
:202D200041F4E021C4F209021960176002F0BAFC42F21C024FF4287300F50070C4F2243362
:202D4000C4F209024FF4D8711060C1F200011C6034600B6814201B699847B8F1000F01D05F
:202D6000BDE8F081BDE8F04102F052BD431E042818BF012B10B42CD810F001021EBF42F2FA
:202D80001803C4F20903196010F002031EBF42F21C04C4F20904216010F004001EBF42F24E
:202DA0002004C4F2090421602AB14FF42072C4F22432012111602BB14FF42873C4F2243395
:202DC00001221A6028B14FF43073C4F2243301221A605DF8044B704742F65843C2F2000308
:202DE0001868704708B5FFF769FF42F65843C2F200031860FFF73CFFA023C4F224331B68FB
:202E0000BBB98023C4F224331B6863BBC023C4F224331B6863B14FF4307242F20403C4F290
:202E200024320020C4F209034FF480311060196008BD42F20403C4F209034FF480721A600C
:202E400002F030FC00F2052020F4FF7242F21C03C4F2090322F001021A608023C4F2243364
:202E60001B68002BD2D04FF4207242F20403C4F224320020C4F2090301211060196002F007
:202E800061F9C3E7820741BF4FF44063C4F2080301221A60C30700D4704702F0B9BC00BFE6
:202EA00008B502F0B1FC4FF44063C4F208031A68012A03BF4EF25152C1F6CC221A6000237B
:202EC00008BF0223002814BF184643F0010008BD00224FF6FF714FF44063C4F20802C0F285
:202EE0000F01C4F20803012011601860704700BF38B5FFF7D5FF00244FF6FF750C214FF47D
:202F00008273C4F20804C0F20F050122C4F20033C4F2080125600A601A60BDE83840FFF7ED
:202F2000B1BF00BF00224FF6FF710C23C4F20802C0F20F01C4F20803012011601860704758
:202F400008B5FFF7D5FFFEE710B50446C0B200F0A5F9204610BD00BF38B50546002403E0C5
:202F6000285D00F09BF90134284605F0BDFC8442F6D30A2000F092F900F0E0F90128FBD006
:202F8000204638BD70B505460E46A8B10078B8B1A1B1002404E015F8010F38B1B44205D0AD
:202FA00000F07CF96B1C04F10104F4D100F0C6F90128FBD0204670BD0446F7E70C46F5E7DA
:202FC0000446F3E710B44FF6C7734FF6CF74C0F20103C0F2010413F8012FFF2A12D1A34269
:202FE000F9D141F2F022C5F2000241B10A44002312F8014C013AC45401338B42F8DB5DF8D3
:20300000044B70474FF6C872C0F20102EDE700BF38B54FF4DC75C1F200052B6802205B6931
:2030200098472B6802205B6B98474FF4DC7301280446C1F20003F4D11B684FF40070DB695D
:20304000984742F22803C6F2080342F228021C60C4F2080213689B07FCD538BD2DE9F043A9
:203060004FF4E87683B0C1F20006FFF7D1FF33684FF480504FF4D878DB68C4F20000C1F210
:2030800000089847D8F8003041F238045B691520C4F200049847236841F2440523F4FE63C9
:2030A00023F00203C4F2000540F2F2794FF4DA772360C1F20007C5F800903B680320DB6B76
:2030C000984742F29003C4F2020308221A603A684FF0FF3300934FF48050176CC4F20000F9
:2030E00002210322B84733684FF480504FF4D8415E68C4F20000C0F2DC214FF4E13260237B
:20310000B04741F23403C4F20003142141F22C021960C4F20002116842F65C4341F010013C
:203120001160C2F20003196840F2013640F2011041F23002002914BF31460146C4F2000263
:203140001160C5F800901B6843B12368152043F050032360D8F800301B69984703B0BDE8B6
:20316000F08300BF08B54FF4DC73C1F200031B6802205B6B9847012801BF42F26C03C4F28C
:203180000803186800F0010018BF002008BD00BF38B50446FFF7E6FF30B141F21802C4F242
:2031A000000213681807FCD4032C06D042F65C43C2F200031B6803B138BDFFF7D3FF38BB29
:2031C0004FF4DC75C1F200052B684FF400701B6A9847032C41D042F22803C6F20803012175
:2031E00042F228021960C4F2080213689907FCD5032000F05DFA022000F05AFA4FF0FF300E
:2032000000F056FABDE838404FF0FF3000F050BA4FF4E873C1F200031B684FF48050DB68BC
:20322000C4F2000098474FF4D873C1F200031B6815205B69984741F23803C4F200031868B3
:2032400041F2440220F4FE6020F00200C4F2000240F2F27118601160B2E72B684FF400705C
:203260009B6A98472B684FF400701B6B9847B2E710B502F0C9FA044640F27C00C2F2000000
:2032800000F0F4F942F65C43C2F2000300221A6004B110BDBDE8104002F0BABA10B504463B
:2032A000FFF760FF08B9FFF7D9FE4FF4E873C1F200031B684FF480502146DB69C4F20000E0
:2032C000984710BD42F65C43C2F2000310B5186040F27C03C2F2000300B302224FF4DC74A5
:2032E0001A61C1F2000423684FF400705B6A984723684FF40070DB6A984742F22803C6F241
:203300000803012142F228021960C4F2080213689C07FCD5BDE81040FFF7A0BE4FF4DC741E
:203320001861C1F2000423684FF400709B6A984723684FF400701B6B9847DEE708B5FFF720
:2033400011FF30B141F21803C4F200031868C0F3C00008BD70B5FFF75BFE4FF48253C4F27B
:2033600000031A6841F24403C4F2000340F2F27112F0500F196018D041F218054FF4E8764D
:2033800042F65C44C4F20005C1F20006C2F2000406E03368C4F200001B69984723682BB920
:2033A0002B684FF48050DB06F3D570BDC0B29847F6E700BF4EF61053CEF200031A6822F0A6
:2033C00004021A6030BF704770B502F01DFA01F047FE18B1BDE8704002F01ABA42F66040A7
:2033E000C2F2000001F078FF0225044648B1636823B19847A84228BF2846C5B22468002C5B
:20340000F5D1FFF75BFC4FF42073C4F224331B680446002B40F0B88001F0CEFC034601460B
:20342000002840F0F280012D00F0CC80022DD1D12846002B00F00581FFF798FC42F6604016
:20344000C2F2000001F048FF06250446002800F0AF80A368022003B198472369246825EADD
:203460000305002CF5D1FFF75DFD6A0705F0060400F1A180002C40F0E98000F0BFF90020F3
:2034800004F04EF94FF48052C4F20902116841F2080321F003011160C4F2090319684FF458
:2034A000DC7241F00F011960C1F20002136839209B6998474FF482524FF484610023C4F280
:2034C0000902C4F222311360184613600B6002F0FDFE062C00F0C38042F22C0542F22424F6
:2034E000C4F20804C4F209052B6823684FF4EC7623F003032360C1F2000633684FF4804090
:20350000C4F2030003215B6898474FF4DC73C1F200031B689B6B98472B6803F055F84FF466
:20352000C0730022C4F204331A6033684FF48040C4F203005B6801219847216844F20C03E6
:2035400041F003010122C4F2090321601A602B6803F07AF804F0ACF8FFF78AFBFFF7E2FC77
:2035600042F66040C2F2000001F0B6FE044628B1E36803B198472468002CF9D102F048F964
:20358000BDE8704002F044B942F21803C4F209031B681B1A022B52D4A3F28F23002BB8BFE2
:2035A0000123BFF639AF9D4228BF1D46EDB233E7FFF7B8FC062444F20C03C4F2090300226B
:2035C0001A6057E7002B4ED04FF6F873CFF6FF731B1BCB4248BF04F1080106D404F5803434
:2035E000631A31EA230128BF21460220FFF7BEFB4EF61053CEF200031A6822F004021A6072
:2036000030BFBDE8704002F003B901F0DFFB0646FFF712FB361A002E15DDFFF7DDFB4FF61B
:203620007153CFF6FF731B1B00EB4621CB424FF001037FF5F8AE9D4228BF1D46F3E6002378
:20364000B1E7611EF8E600231946F4E74FF4DC73C1F200031B6820469B6998470DE70220EE
:2036600002F030F938E704F58031BEE7014642F66040C2F2000001F031BE00BF014642F6D0
:203680006040C2F2000001F07DBE00BF42F6604008B5C2F2000001F01BFE4FF4C273C1F26D
:2036A00000031B6803201B682021984708BD00BF411C10B5044611D04FF4DA73C1F20003A7
:2036C0001B684FF4C0421B68002198474FF4D053A400C4F24423234300221A6010BD00BFEA
:2036E00008B5084B002103F1800243F8041F9342FBD14FF4D873C1F200031B6810201B69A9
:20370000984708BD602C0020F8B542F2E003C4F202031D6842F664471D60C2F20007002416
:20372000012606FA04F32B42E0B203D057F8243003B198470134202CF3D1F8BD10B584B070
:203740000022412302A80292039303F0C7FF042002F0A0F8032819D00420032102F05CF806
:20376000042002F097F803280346F9D14FF4D272C1F2000212684FF4204000935468C4F208
:203780000C0000214FF040521C23A04702A804F007F804B010BD00BF00B583B000224123BA
:2037A00068468DE80C0003F099FF012002F072F8012803D00320012102F02EF8684603F0D8
:2037C000EFFF03B05DF804FB00B583B00022412368468DE80C0003F081FF012002F05AF87F
:2037E000012805D04823C1F20003986B01F040FF684603F0D5FF03B05DF804FB10B582B004
:203800004123684600240193009403F067FF0320214602F001F8012002F03CF828B14823F1
:20382000C1F20003986B01F023FF684603F0B8FF02B010BD70B503880646C3B140F22322FE
:20384000934219D1822921D148F69023C0F2000349F2FC551C69C0F20005FFF763FB03F057
:203860007BF803F023F88021A047002808DC40F223233380012070BD00230380032070BDC4
:2038800080B203F00DF82B699847E6E7012070BD42F29C13C4F20803186800F001007047A4
:2038A00038B510F0030305460C4626D001F0ACFF42F29C13C4F208031B68003018BF012097
:2038C000DB072AD54FF48053C4F2040341F204011D60C4F204010B684CF25032236003E02B
:2038E0000B68013A236018D013F0FF0FF8D050B32078421E5042504138BD02881005D5D57A
:203900006B8001F081FF42F29C13C4F208031B68003018BF0120D90702D480B1002038BD00
:203920002B8813F4405FCDD003F44063B3F5006F02BF42F6E443C2F200031D60C2E701F0F2
:2039400067FF002038BD01F063FFD1E74AF22013C0F2070301E0013B0FD0428802F4406258
:20396000B2F5806FF7D1408800F44060B0F5806CDCF1000050EB0C0070471846704700BF5D
:2039800070B582B001F040FF4FF4D874C1F20004236805461B6A19209847236812201B6AA5
:2039A0009847236819205B69984723684FF4DC745B691220C1F200049847236801205B69A7
:2039C0009847236801205B6B98470128F9D142F22C0142F22803C4F20801C6F2080342F24E
:2039E00028020860C4F20802186013689907FCD541F2100141F214030022C6F20401C6F2EC
:203A000004034FF4D8740A60C1F200041A60236819201B699847236812201B699847F5B188
:203A2000002441F21C014FF480535122C4F20403C0F20762C6F2040440F2FF36C4F20401CF
:203A4000002501202660C0F206400D601A6001A9FFF726FF431E5842584102B070BD01F092
:203A6000D7FEDDE730B542F6EC43C2F2000387B01B680024012240F60A0501A86946019477
:203A80000494059302940394ADF804508DF81120FFF706FF012804BF4AF22010C0F207000E
:203AA00004D0204607B030BD0138FBD0BDF8063003F44063B3F5806FF6D1BDF8060000F492
:203AC0004060B0F580646042604107B030BD00BF10B586B00023012240F6090401A869463B
:203AE00001930493029303930593ADF804408DF81120FFF7D5FE012806BF4AF22010C0F264
:203B00000700C0B203D006B010BD0138FBD0BDF8063003F44063B3F5806FF6D1BDF8063004
:203B200003F44063B3F5806F18BF0020EBD143F6D503C2F200031A780120002AE3D142F610
:203B4000EC420599C2F20002012011601870DAE730B587B001F058FE4FF4D874C1F200045F
:203B6000236805465B6919209847236812205B69984742F29C13C4F208031B68DA0720D536
:203B800041F2100141F214020023C6F20401C6F204020B6040F60D04136002A8012201A95E
:203BA0000293059303930493ADF808408DF81520FFF776FE012804BF4AF22013C0F2070383
:203BC0003DD0FFF785FF42F22C0142F22803C4F208010024C6F20803012042F228020C600D
:203BE000C4F20802186013689B07FCD54FF4DC74C1F20004236801209B699847236801201A
:203C00005B6B98470228F9D14FF4D874C1F20004236819201B6A9847236812201B6A98477C
:203C2000236819201B699847236812201B6998470DB901F0EDFD07B030BD013BC1D0BDF876
:203C40000A2002F44062B2F5806FF6D1BDF80A30B7E700BF08B501F069FD052815D00328A8
:203C60001AD050B1012801BF42F2D013C4F2080305221A6018BF002008BD42F2D013C4F26E
:203C8000080303221A60012008BD42F2D013C4F208031860012008BD42F2D013C4F2080386
:203CA00002221A60012008BDF8B542F29C13C4F208031A680023C8F2800300280CBF1D46F7
:203CC0000025D10700D4F8BD01F09EFD41F2180141F2140241F21003C6F20401C6F204027C
:203CE0000646C6F2040300204FF000474FF4D8740F60C1F2000415601860236819201B6A28
:203D00009847236812201B6A9847236819201B699847236812201B69984706B1F8BDBDE84B
:203D2000F84001F075BD00BF002398420CBF022008200029C8F2800318BF002341F21001B3
:203D400041F214021843C6F20401C6F204020B60106070470023984241F21402C8F280032F
:203D600018BF0023C6F204021360704742F6E443C2F200031868704742F6E843C2F20003FA
:203D80001860704708B542F29C13C4F208031B68D80704D4FFF7F4FD012800D008BD41F281
:203DA0001003C6F204036FF000421A6008BD00BF08B542F29C13C4F208031B68D9070AD4F0
:203DC00049F2B440C0F20000FFF7C6F8FFF7D8FD012800D008BD01F017FD41F21003C6F2C2
:203DE00004031A6812020ED441F21003C6F204031A6812F00A0F1CBF6FF00A021A60BDE83D
:203E0000084001F005BD6FF4000240F290001A60C2F2000001F084F9E6E700BF43F6D60346
:203E2000C2F200031878704708B500F0A3F880B208BD00BF00F038B938B54FF4DC75C1F271
:203E400000052B6804205B6998472B6804205B6B98474FF4DC7301280446C1F20003F4D127
:203E60001B6840F20140DB69984742F22803C6F2080342F228021C60C4F2080213689B0750
:203E8000FCD538BD42F6F043C2F20003186800280CBF0220012070472DE9F04103880646AF
:203EA000002B4AD0B3F5847F09D140F22B23C2F200031B788B4207D00120BDE8F081002370
:203EC00003800320BDE8F08142F6F047C2F200073B68B3B14FF4E673C1F200031A6848F2E7
:203EE0000403C4F2020352680220D3F8008090470024221848F10003194610463B68984731
:203F00003C604FF4DC73C1F200031B6840F201409B6A984742F22803C6F20803012142F26B
:203F200028021960C4F2080213689907FCD540F2A000C2F20000FFF7A1FB4FF4847333802D
:203F40000120BDE8F08100BF08B54FF4DC73C1F200031B6804205B6B9847012801BF42F2FD
:203F60003C03C4F208031868C0F3400018BF002008BD00BF70B542F6F043C2F200031B6889
:203F8000D3B142F6F440C2F200000023C15C42F6F442C2F2000229B90133042BF6D10020ED
:203FA000014670BD40F238210024C2F2000101EBC301D45403C970BDFFF7C6FF002842D063
:203FC00048F20803C4F202031A680123C8F2000313409BB949F6F073C4F2020301221A60DD
:203FE00018680028FCD102464FF4807102F070FB4FF42A73C4F2502301221A6001F004FCDC
:2040000048F208020646C4F202021368D807FCD54FF4E673C1F200031A6848F20403C4F260
:204020000203526802201C68904700222346141843F1000516B12046294670BD01F0E8FBB7
:204040002046294670BDFFF7F7FEB9E738B54FF42A750024C4F2502548F20C032C60C4F22A
:20406000020319684FF4D87221F001011960C1F20002136831205B699847204622464FF46C
:20408000807102F025FB012240F22B232A60C2F2000340F2B40022461978C2F20000BDE801
:2040A000384000F0E9BF00BF10B540F22B24C2F200042378802B00D010BD00F04DFF207084
:2040C00040F2B400C2F200000021BDE8104001F005B800BF08B51AB108461146FEF752FF50
:2040E000002008BD0FB400B583B004AB53F8041B40F2C4001A46C2F20000019300F022F86F
:2041000003B05DF804EB04B0704700BF38B50C46054609E049F21851C0F200012B68686851
:204120001022103C984718B9102CF3D8204604B938BD49F218512246C0F200012B68686810
:20414000984738BD2DE9F04F49F2705491B0C0F200040025824689460992049402958846EC
:2041600098F80030002B00F0F080252B00F01983444602E0252B04D02C466378651C002B8F
:20418000F8D145450FD0C8EB050641463246DAF80030DAF804009847002840F08F82637835
:2041A000029C34440294002B00F0CF806B78002B00F0CB8001350024A3F12002AC46102A64
:2041C0001CD8DFE802F0181B1B151B1B1B1B1B1B1B121B0F1B1B090044F0100401359CF885
:2041E0000130E9E744F00104F8E744F00604F5E744F00804F2E744F00204EFE7A3F131029C
:20420000D2B2082A00F2E580A3F13002D2B2092A9CBF01354FF0000B00F2DE800BEB8B0B5D
:2042200003EB4B0BAC4615F8013BABF1300BA3F13002D2B2092AF1D92E2B00F0D2804FF007
:20424000FF316C2B00F0EE80682B00F07B81782B00F28180DFE813F079007F007F007F0064
:204260007F007F007F007F007F007F007F007F007F007F007F007F007F007F007F007F004E
:204280007F007F007F007F007F007F007F007F007F007F007F007F007F007F007F007F002E
:2042A0007F00A2027F007F007F007F007F007F007F007F007F007F007F007F007F007F00E9
:2042C0007F007F007F007F007F007F007F007F007F007F007F007F007F009F027F007F00CC
:2042E0007F009C02990296027F007F007F007F007F007F007F007F007F007F007F007F007A
:204300007F007F007F007F0093027F007F007F007F007F007F007F007F0090027F008D0274
:204320008A028702840281027F008A027F007F007F007F007D007E027B027F007F00780266
:204340007F0075027F007F007202029811B0BDE8F08F44F4E06404F4E063B3F5806F0CF12B
:20436000010800F0CF806DD9B3F5C06F00F0B281B3F5E06F00F0A781B3F5A06F7FF4F0AEDE
:20438000099BBBF1010F1A6803F1040309938CBF0BF1FF3B4FF0000BE3078DF8282000F131
:2043A0003E8350465946FFF7B1FE002840F08681029CDAF800305C44DAF804000AA9012217
:2043C00002949847002840F079810BF1010B029D95E02A2B00F0C6802E2B4FF0000B7FF459
:2043E0002EAF9CF801300CF10101A3F13002D2B2092A00F2C4800CF102024FF0000909EB2C
:20440000890903EB490913789446A3F13001C9B20929A9F1300902F10102F0D96C2B49463B
:204420007FF412AF9CF801306C2B03BF9CF8023044F080040CF1020C0CF1010C18BF44F08C
:20444000600404E7B3F5807F00F0A780B3F5407F7FF486AE099A49F24C57116849F2385381
:20446000C0F20003043214F4804FC0F2000718BF1F46099200230A46002900F057810DF188
:204480003A00110902F00F0241EA0371BD5C1E090A463346014600F8015952EA0305F0D17F
:2044A0000DF13B035B1A18BFDD1C00F04181782030222323AB4501F8010C01F8022C01F883
:2044C000033CA1F103063AD84FF0000B14F0010406D150465946FFF719FE002840F0EE80BE
:2044E0003146DAF80030DAF804002A469847002840F0E48002980544002C40F0FB805D4407
:2045000002952DE6099B1E6804330993002E00F04A8233781D466BB1731C18781A4601332D
:204520000028FAD1951B8D4294BF002301230029B8BF0023002B18BF0D46AB45C4D9C5EB1A
:204540000B0BC3E79CF80130682B03BF9CF8023044F020040CF1020C0CF1010C18BF44F043
:20456000400474E6099B05F1010C1A680433002A0993B8BF44F0010493466B785CE62A2B74
:2045800018BF8C467FF45BAE099A9CF80230111D09910CF1020C116853E60029ABBF24F061
:2045A000100401250591059514F4005504F0E003039500F0A780402B00F0208200F2F3804C
:2045C000002B00F0DE81202B40F00882099B1A1D099293F90020D317002A73F10000C0F210
:2045E000DA81CDE906230025089504F4C053B3F5805F00F06481B3F5C05F00F07F81B3F5F9
:20460000006F1CBF0DF13E054FF0000900F03281059941F60803894504EA030341F2080245
:20462000C0F0E580934218BF002600F00A8241F60802934206EB090100F0FC8000273A46F3
:20464000039870B1089B002B40F00E8104F00603022B00F0CD810498062B08BF012708BF26
:2046600002467B189B458CBFC3EB0B0B4FF0000B14F00103039304D1E10640F19E815E44DA
:204680009B463FB11146DAF80030DAF804003A46984798B9102E344603D8B5E0102C40F2D4
:2046A000B38049F22851C0F20001DAF80030DAF804001022103C98470028EFD04FF0FF30D6
:2046C00011B0BDE8F08F099B029C1A6804331460099345E549F27C51C0F20001DAF8003003
:2046E000DAF80400012298470028E7D1029C0134029435E550465946FFF708FD00283FF4F4
:20470000FEAEDBE7402B00F080815CD8002B00F02D81202B40F05B81099B039D18781A1D70
:20472000002108950992CDE906015EE70DF13B01302301F8013C04250139B8E644F4C85406
:2047400009E644F4106406E644F4806403E644F4407400E644F48854FDE544F48134FAE539
:2047600044F40074F7E544F40244F4E544F42454F1E544F4A064EEE544F4C134EBE544F490
:20478000B244E8E544F4A134E5E544F48444E2E544F44244DFE544F4E134DCE544F4C064CC
:2047A000D9E5454602E5602B00F0EB80802B40F01581099B073323F0070303F108020992DE
:2047C000D3E9002308E7602B00F0D080802B40F0FE80099B039D073323F0070303F108024E
:2047E000D3E9000108950992CDE90601FDE69342C9EB01067FF41BAF002E08BF0126002714
:204800003A4606EB09011BE7002C40F0A1802946DAF80030DAF804004A46984700287FF44D
:204820004DAF029B039C4B441F443E44ACB95E44029695E4DDE9062313433FF4FFAE49F254
:20484000645249F2605314F4804FC0F20002C0F2000318BF1A460227F2E650465946FFF711
:2048600055FC0028E3D029E749F26852C0F200020127F6E6DDE90601014300F0B480DDE954
:2048800006670DF13D09304639460A22002303F04FFC303289F80020304639460A2200239E
:2048A00003F046FC06460F4656EA07024D4609F1FF39E8D10DF13E03C5EB0309A8E6DDE90C
:2048C0000623134300F08F80DDE906230DF13D01D00840EA4370DE0802F0070733460246D3
:2048E0000D4652EA030007F13001297005F1FF31EED10DF13E03C5EB030989E649F24C5737
:2049000049F2385314F4804FC0F20003C0F2000718BF1F46DDE90623134364D0DDE90623E8
:204920000DF13D01100902F00F0540EA03704FEA131E7E5D0246734652EA03000D460E7029
:2049400001F1FF31EED10DF13E03C5EB03095FE649F228512246C0F20001DAF80030DAF893
:204960000400984700283FF452AFA7E6039D099B08951A680021043310460993CDE9060101
:2049800033E6099B1A6804330993D317002A73F10000BFF626AE504263EB43010125CDE904
:2049A0000601089521E6052949F27456C0F200068CBF002301230625BCE55046594601923B
:2049C000FFF7A4FB019A00283FF45BAE76E60025002000210895CDE9060106E600200021FA
:2049E000CDE90601FFE54FF000090DF13E050FE649F26C52C0F20002012732E6099B1A1DD0
:204A00000992B3F90020D317E6E5099B039D18881A1D002108950992CDE90601E5E5DAF8AD
:204A20000030DAF804000AA90122984700287FF445AE50465946FFF769FB00283FF4C5ACD2
:204A40003CE60126DBE600BF10B50446006830B1002100F043FB54F8040F0028F8D110BDC9
:204A6000F8B5038806461546EBB14A2B17D1882946D142F6F840C2F2000000F02DFC04460F
:204A800048B1031D9D4202D126E09D4224D02468231D002CF9D14A2333800120F8BD002397
:204AA00003800320F8BD42F6F840C2F2000000F013FC044630B1201DA16800F06DF9246825
:204AC000002CF8D143F6D703C2F2000301221A704A2333800120F8BD42F6F840C2F2000050
:204AE000214600F04FFC42F604556269A369C2F200052F682A600BB1E06998472F60CAE7AE
:204B00000120F8BD10B543F6D70342F6F8400024C2F20003C2F200001C7000F0D9FB40F266
:204B2000CC002146C2F20000BDE8104000F0D6BA70B543F6D704C2F20004049D2678826106
:204B40000446C36145614EB9A16042F6F8402146C2F20000BDE8704000F0C0BB42F604555D
:204B6000C2F200052E6840F2CC03C2F2000304302B6000F011F92E60E7E700BF10B542F65D
:204B80000454C2F20004246882B00094FFF7D0FF02B010BD10B543F6D703C2F200031B784D
:204BA000044653B9C360036142F6F8402146C2F20000BDE8104000F0E5BB043000F012F9D9
:204BC000F2E700BF38B543F6D703C2F200031D7804466DB942F6F840C2F2000000F07CFBF6
:204BE00010B90AE0006840B18442FBD1002038BD0430BDE8384000F0D9B8012038BD00BF5B
:204C0000704700BF10B542F6FC44C2F200042368CBB1FEF711F8236859681A689B680A4405
:204C2000121A4BB193E812009B682144091A8A4228BF0A46002BF5D142F600530244C2F2BB
:204C400000031A6010BD42F60052C2F20002136010BD00BF2DE9F041038805467BB1592BFE
:204C600008D1872915D0822926D059232B800120BDE8F081002303800320BDE8F08142F6B0
:204C8000FC42C2F20002136059232B800120BDE8F08142F6FC47C2F200073B68002BE4D097
:204CA000D9688A4203D02BE0D9688A4227D19B68002BF9D13B60D8E742F6FC47C2F200077C
:204CC0004FF000083C68002CCFD0002604E0A3682646002BC9D01C46204600F051FA0028AE
:204CE000F5D0E0688821224600F0C6F9034640F2DC00C2F2000073B100F012FAE7E73B6053
:204D000099680029B1D0C86882420BBF89680B4699608968F5E7E360A3682EB1B360C4F826
:204D20000880FFF76FFFCDE73B60F8E710B5044640F2DC00C2F2000000F0F2F942F6FC4237
:204D4000E368C2F20002116853B149B18C4218BF0B4602D110E09C420ED09B68002BFAD16D
:204D600042F60453C2F200031B68A160E3601460BDE81040FFF746BF42F60453C2F200037C
:204D80001B68E360BDE81040FFF73CBF40F2DC00C2F2000000F0C4B910B5044600F0E8F958
:204DA0002046BDE81040FFF7C1BF00BFC068D0F1010038BF0020704742F6FC43C2F200037D
:204DC0001868003018BF0120704700BF42F6FC43C2F20003186820B142F60053C2F20003F4
:204DE0001868704710B542F6FC43C2F200031A680446904217D04AB1936883420AD02BB193
:204E00009A68A24207D01346002BF9D10023A360E36010BD1346A2689A60FFF7F3FE0023EA
:204E2000A360E36010BD82681A60FFF7EBFEEDE72DE9F84342F60858C2F20008D8F8004093
:204E400042F60456221CC2F2000618BF0122844218BF002C054689463768234604D01B688C
:204E60009D4218BF002BFAD163B3AB7BE3B10023AB736AB1A54220464FF087012A4604D002
:204E8000A37BDB0701D500F029F82468002CF1D1AB683BB14D4505D0356005F10C00832110
:204EA00000229847D8F80040A54212D04CB12368AB4209D02BB11A68AA4206D01346002B26
:204EC000F9D13760BDE8F88323462A681A603760F8E72B683760C8F80030F3E770B5856860
:204EE00004460E468DB142F60453C2F200030220A0731C6004F10C00A8470238012805D9AE
:204F0000832E1CBF0123A37300D070BD20462146BDE87040FFF78CBF70B542F60853C2F2FF
:204F200000031C6843F6DA03C2F2000300261E7084B1012501E0246864B1E37B002BFAD039
:204F4000A573E673204682210022FFF7C7FF2468002CF2D170BD00BF43F6DB03C2F20003C4
:204F60001878421C1A70704770B443F6D90042F6085142F60452002343F6DB0543F6D8045C
:204F8000C2F20000C2F20001C2F20002C2F200058A26C2F2000403700B6013602E7023704F
:204FA00070BC70472DE9F04143F6DA04C2F2000423780BB1FFF7B0FF43F6D905C2F200052C
:204FC000287818B343F6D802C2F20002117842F60C5301EB410C4FEA8C0CC2F2000303EBCE
:204FE0000C0701380131BE68C0B201F01F012870117013F80C807F68B6B1B8F1810F04BF90
:205000000123B37306D0B37BDA0703D423781844BDE8F081304641463A46FFF75FFF28780C
:2050200023781844BDE8F08142F60853C2F200031E6836B9EAE7B37BD9070AD43668002E1B
:20504000EDD02378002BF6D0FFF766FFB37BD907F4D5304641463A46FFF740FFEEE700BF8F
:2050600043F6DA0243F6D903C2F20003C2F200021278187810447047F0B443F6D903C2F207
:2050800000031D78202D08BF012315D043F6D804C2F20004277842F60C542F4407F01F07C7
:2050A00007EB4707BF00C2F20004E6190135E1551D7072600023B0601846F0BC704700BFBC
:2050C00038B5837B42F60454C2F20004DB07256801D5FFF703FF256038BD00BF70B442F6CB
:2050E0000855C2F200052E680446864218BF002E334604D01B689C4218BF002BFAD1A3428D
:205100000BD0012000232660A073A3810A4620462C60812170BCFFF7D3BF70BC704700BF79
:2051200060B1837B013BDBB2012B9FBF43F6DA030122C2F200031A7098BFC273704700BF91
:20514000FDF7B6BD10B542F68C64C2F20004236863B1184600225B6881682260984723688C
:2051600023B11868BDE81040FDF7A4BD10BD00BF10B541600446FDF75FFD206010BD00BFF9
:2051800010B50446FDF758FD94E80C00C2F10102104483422CBF0020012010BDF8B504882E
:2051A0000546672C0ED0792C04D064B3002303800320F8BD852933D142F69874C2F2000477
:2051C0000023236042F6987442F61876C2F20004C2F2000607E00A2824D022687E2ADEBFD1
:2051E000511CB054196042F61070C2F2000000F017F942F69873421CC2F20003EBD16723BB
:205200002B800120F8BDFFF7A7FE43F6731242F69873C2F20002C2F2000310701C60D1E750
:205220000120F8BD42F69874C2F20004276842F6187343F67311C2F200030026C2F20001FB
:205240001A4607F1010E09783046DE55C4F800E0FFF712FF42F60453C2F2000332461868DC
:205260008521FFF709FF0028AAD179232B800120F8BD00BF08B542F6107042F69061C2F2B9
:205280000000C2F20001802200F0AAF8BDE8084040F2EC00C2F200000021FFF71FBF00BFB2
:2052A0000029034611DD084413F8011B4A4052BA02F47F4182EA011292B282EA123202F466
:2052C0007F41834282EA5112EED11046704700BF00230360704700BF0068704710B40468A4
:2052E0005CB1A14225D023680BB906E01346994210D01A681C46002AF8D100230B600268B1
:205300000AB911E01A461368002BFBD111605DF8044B704764B10A68226000221A60002373
:205320000B600268002AEED101605DF8044B70470C46226823460260EFE700BF30B4056866
:2053400065B1A94219D02B6843B12C4600E01346994207D01A681C46002AF8D10D600160DA
:2053600030BC704744B10A68226000221A6005680D60016030BC70470D462A682B4602606F
:20538000F3E700BF10B404685CB18C4215D023680BB906E01346994206D01A681C46002A37
:2053A000F8D15DF8044B704734B11A68226000221A605DF8044B70470C4622682346026042
:2053C000F5E700BF03682BB100201B680130002BFBD170471846704700B10068704700BFC5
:2053E0000023013A0160027143718371704700BF10B40346447980791A79201A10408242B9
:205400001FBF1A68012011555A791FBF197912180A405A7108BF00205DF8044B704700BF22
:2054200010B40346827940791979801A08421FBF1868541C2140805C14BF99714FF0FF30DF
:205440005DF8044B704700BF08B543695B6803B1984708BD10B5044682B01A2001F010FB37
:20546000014601A801F052F963691B6813B1204601A9984702B010BD70B5144649F2A052D3
:205480000646C0F200020D4602F000FA49F29C5174612846C0F20001BDE8704000F040B872
:2054A00002F004BA10B543F630110446C2F200011A2001F0D9FA2046BDE8104002F0F8B902
:2054C00042F69C70C2F20000FFF702BF034642F69C709980C2F200001946FFF7FFBE00BFF2
:2054E000014642F69C70C2F20000FFF74BBF00BF10B5044642F69C70C2F20000FFF7ECFEC7
:2055000050B18388A34203D109E08388A34205D0FFF762FF0028F8D1002010BD10BD10BD49
:2055200038B50D46FFF7E4FF044620B18560284602F0CAFA207338BDF8B5064642F6A07065
:20554000C2F200000D461746FFF7C6FE044648B1A368284603B198472046FFF73DFF0446FC
:205560000028F5D1304629463A46BDE8F84002F0A7B900BF38B502F085FA054642F6A070F9
:20558000C2F20000FFF7A8FE044640B1636803B198472046FFF720FF04460028F6D125B198
:2055A0002846BDE8384002F085B938BD10B501F079FA01F0D1F902F089F902F061FABDE8F1
:2055C000104002204FF400714FF4F0524FF4E12302F03ABA10B5044602F064FA68B101F08A
:2055E000C3F849F22463C0F2000345F23950C0F2000021469B689847012010BD08B5836927
:205600005B6803B1984708BD38B504461B200D4601F036FA43F63011C2F2000101F07AF8F7
:2056200028B1A3691B6813B120462946984738BD70B5144649F2BC520646C0F200020D467A
:20564000FFF71AFF49F2C451B4612846C0F20001BDE87040FFF764BFFFF722BF10B5044661
:205660001B2001F001FA2046BDE81040FFF71ABF70B5064600F0C8F84FF400420546C4F232
:205680000C0213684FF40044C4F20C04002BF8D0B0470123236005B170BDBDE8704000F07B
:2056A000B7B800BF10B442F2080342F20C04C4F20903C4F209041A68206819688A42FAD1CE
:2056C000120442EA10405DF8044B704742F2D413C4F20803186800F00E00704741F218324F
:2056E000C5F2000213684BF69A11C3F30F338B4213D04BF6BE12934208BF01200BD04BF6F8
:205700004132934208BF032005D04BF6203083420CBF0220FF2040B270471068000F0B28BD
:205720000CBF0420002040B2704700BF10B541F29423C5F200031C68FFF7D0FF0128C4F360
:20574000033409D1082C08BF002003D00F2C0CBF0120FF2040B210BDFF20FBE738B541F224
:2057600018324FF48553C5F20003C5F2000212681C68150FE4B27F2C88BF0024FFF7AEFFE0
:2057800004280FD8DFE800F01108030304004DB90A34E0B240B238BDF5B1022D04BF14347F
:2057A000E0B2F7D0FF2040B238BD013D072DF9D801A353F825F000BFD9570000A557000058
:2057C000E7570000A5570000A5570000A5570000EB570000DF5700000A2040B238BD04F119
:2057E0001600C0B2D6E71420D4E71520D2E700BF08B5FFF773FF012800D0FEE7FFF7AEFF22
:205800001328FADD08BD00BFEFF3108072B67047EFF3108062B6704770B50D46C10782B0EE
:20582000044626D4A20713D463070FD54FF4D273C1F200031B68ADB24FF4204000955C682A
:20584000C4F20C0000210C220223A04702B070BD4FF4D273C1F200031B68AAB200924FF45A
:2058600020405E68C4F20C00002102220123B047DAE74FF4D273C1F200031B68AAB2009270
:2058800000214FF420405E68C4F20C000B460122B047C7E710B54FF4D273C1F200031B681D
:2058A00004284FF42040DC684FF0340107BF4FF0C0421D234FF080521C23C4F20C00A04721
:2058C00010BD00BF01280FD030B14FF4C073C4F2043301221A6070470023C4F209031A6835
:2058E00022F005021A6070470023C4F209031A6842F005021A60704770B4038843F606029D
:2059000093421ED00132934217D040F60202934201D070BC7047C67B4369002BF9D003F13D
:20592000140544F2380419681A4688B2A04203F1040309D0AB42F6D1EBE790F82460C3694D
:20594000EBE7C3690226E8E7C1F303400028E0D0B31E1C2B10D8DFE803F00F0F0F41390F13
:205960000F0F310F290F0F210F0F0F0F0F0F0F0F0F0F0F0F0F0F49004FF49C53C5F200035A
:205980001B68C3F383430F2B38D0834282BF21F4702141EA0343136070BC704741F2041309
:2059A000C5F200031B68C3F38343ECE74FF48853C5F200031B68C3F38343E4E741F2FC0387
:2059C000C5F200031B68C3F38343DCE741F2F803C5F200031B68C3F38343D4E74FF499537A
:2059E000C5F200031B68C3F30323CCE741F20813C5F200031B68C3F38343C4E7053E192E9F
:205A000008D8012303FA06F603F58463C0F2002333402BB921F4702141F48021116078E732
:205A200021F4702343F4E023136072E728B946F20223C4F20803187070474FF4C44246F2F9
:205A40000223C4F208020020C4F20803202110701970704738B541F21003C4F20903012168
:205A60004FF4257205461960C4F222321368002BFCD04FF4C042C4F20C02C02143F6B073C6
:205A80001160C5F200031B689B070DD443F6AC73C5F200031A6846F25623C2F3034242F064
:205AA000F002C4F208031A704FF48252C4F20902002143F6B4731160C5F200031C6820463B
:205AC00000F0E8F82846214600F0AEFA41F21433C5F200031A6840F21D2392B29A4219D850
:205AE00041F2BC23C5F2000319681A68C1F30363C2F3034219462BBB931F012B83BF02322A
:205B000002F00F021201702246F202030A43C4F208031A70204600F021F94FF4D073C1F25F
:205B200000031B680220DB6898474FF4C04240F29443C4F20C024020C4F26023012110605E
:205B4000196038BD013BD9B2D6E700BF38B541F21C33C5F200031C68FFF74AFE40F28440B3
:205B600046F25C0142F208230122C4F20433C4F260200025C4F20C0105600A601A6000F0CA
:205B800069FB4FF4C073C4F228331B68B4F1FF3F08BF2C463BB14FF48073C4F220332046EA
:205BA0001B68FFF757FF42F28C12C4F20802002142F248031160C4F203031968042221F0FF
:205BC0007F6121F4702141F09C7141F480311960C4F209021368C3F30133012B06D00C224C
:205BE000C4F268221368002BFCD138BD136823F0407323F4403343F4003111601360EEE711
:205C0000F0B441F28833C5F20003196846F20623C4F208031B78C1F3046103F01F03152996
:205C2000C8BF2039152BC8BF203B99422FD09822C4F22032002442F22C0046F26C25146005
:205C4000C4F20900C4F208056FF0010C0126CA1A022AC8BF022202DC6245B8BF6246134479
:205C600003F01F0444F4F85442F22C028B420768C4F209022C804FF001040660E7D1982362
:205C80001168C4F22033146011681C601368F0BC704700BF00F04073B3F1807F70B50446C7
:205CA0003DD041F2B823C5F200031B68C3F30463152B51DC03EB24730133152BC8BF41F64B
:205CC000157108DC13F10A0FA6BF03F01F0343F4F85141F6167146F26E22C4F208020023DA
:205CE0001180C4F209031B6813F0020309BF40F2944244F04064C4F22A321360C4F3C061C1
:205D00000022C4F38064082381F0010184F00104C4F22032C4F2203311601C6070BD46F24C
:205D2000252546F2662146F215238022C4F20803C4F20801C4F208054FF6D8062A700E80BA
:205D40001A70FFF75DFF41F28833C5F200031B68C3F30423152BADDD203BABE7F8B5C0F348
:205D60008143012B47D0022B4CD143F6B073C5F200031B684FF400711B075FBF4AF268039E
:205D8000C4F20C0340221A604AF28002C4F20C0241F28C331160C5F200031A68C0F38150BD
:205DA0004AF20813C2F3C14242F03002C4F20C0301281A7058D032D302282BD1042003215D
:205DC000FFF72AFD41F26C33C5F200031C684BF20B014BF2700204F03F04C4F20C01C4F2EE
:205DE0000C0247F6180042F22C030C70C4F2090310801B68F8BD41F28C33C5F200031B68A8
:205E00009A0375D54AF24003C4F20C034FF000421A60AAE704200221FFF7FEFCD2E70420B7
:205E20000121FFF7F9FC46F23C0046F2400146F24403C4F20C0043F2BD76C4F20C01862551
:205E4000C4F20C03012440F684020660C4F28C320D601C601368002BFCD046F24403C4F232
:205E60000C0300221A60ADE7FFF714FD044601460420FFF7D1FC0420FFF70CFDA042FAD194
:205E800043F6A873C5F20003186846F23C0446F2400146F2440387B2C4F20C04C0F3074605
:205EA000C4F20C01C4F20C03012540F684022760C4F28C320E601D601368002BFCD046F2E8
:205EC0004402C4F20C0200214FF4DA731160C1F200031B684FF060221B68000E0721984704
:205EE0004AF24003C4F20C034FF480621A6065E74AF24001C4F20C014FF4804446F20C02E6
:205F00000C60C4F208021168C3F3033421F08F012143C3F3004441EAC41446F20B01146035
:205F2000C4F208010A68C3F3032422F00F02144346F20A020C60C4F20802116803F0E70313
:205F400021F0E7010B4313600FE700BF41F25033C5F200031B688203C3F38361C3F38F2358
:205F60000DD440F30722002A0CDA5B0805D149080ABF01234FF6FF7319460132F5D143EA21
:205F800001407047FBD05B0043F00103B3F5803F4FEA410007D340F001010F2992BF012312
:205FA0000F214FF6FF73013AEDD143EA0140704770B441F2783343F6B072C5F20003C5F20E
:205FC00000021B681268C3F3035412F00102C3F3034105461CBF24050A0419D143F6AC701A
:205FE000C5F20000006840F30326341948BF144605D40F2CD8BF240501DD4FF4700440F3DC
:206000000330411804D40F29D4BF0A044FF4702298B2212D40EA040040EA020084BF03F046
:206020008043184370BC704770B5044682B00846FFF78CFF02464FF42040C4F20C00182109
:2060400001F066FD41F25033C5F2000319681A684FF4D273C1F3870102F00302C1F2000308
:206060001B6841EA022200924FF420405D68C4F20C002C2140F2FF320023A84741F27C33EE
:20608000C5F200031A684FF42040C2F30D02C4F20C001C2101F03CFD41F27433C5F20003A0
:2060A0001A684FF4204002F0FC32C4F20C00142101F02EFD41F27033C5F200031A684FF433
:2060C000204022F07F4222F440321021C4F20C0001F01EFD2046FFF76BFF02464FF4204055
:2060E000C4F20C000C2101F013FD212C73D941F28C32C5F2000211684AF24913C1F3007137
:20610000490041F02001C4F20C03C9B219701268C2F3407242F01002D2B21A7041F29835E8
:20612000C5F200052B684FF42040C3F30262C3F3C1619200C3F3815342EA01221A43C4F2FD
:206140000C00282101F0E4FC2A684AF24C13C2F30152520042F06002C4F20C03212C1A7062
:2061600063D941F28C33C5F2000319684AF24112C1F3C061C90061F07F01C4F20C02C9B279
:2061800011701A684AF2DC13C2F34552920042F47C42C4F20C031A8041F29833C5F20003E8
:2061A0001B68C3F30512C3F3892112041B0342EA81529BB21A434FF42040C4F20C000821C4
:2061C00001F0A6FC4AF24003C4F20C034FF480021A6002B070BD4AF24913C4F20C0322212A
:2061E00011221F2C19701A7098D84FF42040C4F20C002821002201F08BFC4AF24C104AF282
:2062000041114AF2DC13C4F20C006026C4F20C018025C4F20C034FF47C444FF4004206708E
:20622000C4F23F020D701C80C5E74AF241124AF2DC13C4F20C028020C4F20C034FF47C41BF
:206240001F2C10701980A7D84FF40042C4F23F02B1E700BF10B40C22C4F268221368002BB0
:20626000FCD144F2040343F6B072C4F20303C5F200021968126821F00051520721F0070175
:206280001CD44FF48042C4F20302146841F0005141F00400A40708BF18600CD041F007011C
:2062A0001960136803F00303032BFAD144F20403C4F2030318605DF8044B704741F00051AA
:2062C00041F0050119605DF8044B70472DE9F04F0023C4F209031B6883B013F002078046F1
:2062E00011D042F6A47341F230024FF6FD51C2F200030820C4F20902C0F2A4019871116005
:2063000003B0BDE8F08F01F0E7FB43F6B473C5F200031C6801462517A00205F1010540F1E3
:20632000D78004F04073B3F1807F00F0E08041F2B823C5F2000341F23C121B68C5F20002E7
:206340001668C3F30463152BC6F30446C8BF203B152E00DD203E1D44152DC4BF41F615701D
:20636000152540F3D98046F26E22C4F2080242F22423C4F2080310801A6812F0030318BFA2
:206380000123520748BF43F00203B8F1000F01D043F0040342F6A472C2F2000292F90700E8
:2063A000081A042826DC9079984208BF918821D142F20803C4F209031B6842F6A4701E29C1
:2063C0001360C2F200000B4600F2C6801F234EF208718380C8F2A40141F2300041F23402E4
:2063E000C4F20900C4F2090200230160136003B0BDE8F08FB1F10F0900F1D08009EB09193E
:206400004FEA2920072840F2938041F2B830C5F2000041F2B4374FF4E0688446C5F2000783
:20642000CDF804803F68DCF800C013F0040BC7EB0C0C18BFCCF307285FFA8CF718BF4744F9
:2064400013F0020A1CBFCCF30748474413F0010840F09780DDF804C0CCEB090909FB07F702
:2064600080373F0AD0F800C05FFA8CF0BBF1000F02D0CCF307294844BAF1000F02D0CCF36C
:2064800007494844B8F1000F01D000EB1C60751B002D07444FF03400C8BF6843E4B204FBEE
:2064A00000F04FF6FF7CB0FBF7F0604528BF604680B27F299080C8BF7F2105DC11F1800FE5
:2064C000A8BFC9B200DA8021D171937101466FE7C1F13E03DB10082BA8BF08239D42B8BF83
:2064E0001D4604F04073B3F1807F7FF420AF41F28833C5F2000341F288321B68C5F20002DC
:206500001668C3F30423152BC6F30466C8BF203B152E7FF720AF1DE715F10A0FA7BF05F0D5
:206520001F0040F4F85041F616706FF009051AE73FF46BAF00F1010841F298374FEA880883
:20654000C5F2000741F29C3C00024744C5F2000C0190C444384665E7B1F5007F28BF002291
:2065600027D35B08B3F5007F02F10102F9D24FF467410F3BC8F2A4011B09114341EAC301DB
:206580002AE7DDF8048007EB1C67C8EB090909FB07F780373F0A4FF0010863E741F29C30C4
:2065A000C5F2000003F0040B03F0020A03F0010858E7A1F10F031B094FF46741DB00C8F2A0
:2065C000A401194308E700BF10B541F23403C4F209031C68A4B204B910BD01F07DFA42F617
:2065E000A473C2F2000393F9072090421CDB9A8842F6A4739442C2F2000322D342F2080121
:20660000C4F20901086819680230411A1F2928BF1F21A41A4908CC404FF6FF7122448A42CB
:2066200028BF0A469A8010BD6FF07F029042B8BF10469A88D871944242F6A473C2F2000376
:20664000DCD29C8010BD00BF10B445F22803C4F209031B6853B343F6B472C5F200021168E2
:2066600001F04062B2F1406F20D00022C4F20902106884071AD443F6B070C5F200000068F9
:20668000800713D443F6AC74C5F200041068246810F0050FC4F3035404F11C044FEA0414EC
:2066A00007D0A3423CBF20F0050010605DF8044B7047A342FAD90B0158BF40F00100002314
:2066C0004C0158BF40F00400C4F209031860EDE730B448F21403C4F202031D68120202F495
:2066E0007062090AC0F387104FF6FF34090410432C4048F218020C4325F480650843C4F285
:2067000002021D601C60106030BC70470B880380704700BF08B5022201F0F2FFD0F1010058
:2067200038BF002008BD00BF08B548F69023C0F200031B68984749F2FC53C0F200035B68F7
:20674000984749F22463C0F200035B68984749F2D853C0F200035B68984749F2B053C0F294
:2067600000035B68984708BD43F6C60CC2F2000CF0B4BCF80070EFB143F6C403C2F20003C5
:206780001D88A5B143F6DC03C2F200031E7842F6AC7400233744FFB21A46C2F200040132A7
:2067A000E11892B2C85D13B2AB428855F7DB0023ACF80030F0BC70472DE9F04143F6DC025E
:2067C00043F6C403C2F20002C2F2000315781E888046AC19802CC8BF002414DC42F6AC77EC
:2067E000C2F200072A46394601F0BEFF43F6C603C2F20003197808EB05000D44E9B232469B
:20680000394401F0B1FF2046BDE8F081F0B443F6C60343F6DC06C2F20003C2F200061A781A
:20682000377843F6C403C2F200031B883A44D2B21A4492B21318802BC8BF002014DC013A03
:2068400092B213B2002BA2BF42F6AC74C2F20004251806DBE15C013A92B2E95413B2002B8C
:20686000F8DA384430700120F0BC704710B443F6C403C2F2000319888142A1BF43F6C60266
:20688000C2F20002148880B2A1BFC0EB0101001910801980ACBF012000205DF8044B70471E
:2068A00043F6C403C2F200031880704743F6C60243F6DC03C2F20003C2F200021878127832
:2068C00042F6AC731044C2F20003C0B21844704742F6AC70C2F20000704700BF43F6C40353
:2068E000C2F200031888704743F6C60243F6DC03C2F20003C2F200021878127843F6C403EA
:20690000C2F2000310441B88C0B2184480B2704738B543F63C1243F63414C2F20002002146
